{
	"lecture/26_tryCatch.sol": {
		"math": {
			"abi": [
				{
					"inputs": [
						{
							"internalType": "uint256",
							"name": "_num1",
							"type": "uint256"
						},
						{
							"internalType": "uint256",
							"name": "_num2",
							"type": "uint256"
						}
					],
					"name": "division",
					"outputs": [
						{
							"internalType": "uint256",
							"name": "",
							"type": "uint256"
						}
					],
					"stateMutability": "pure",
					"type": "function"
				}
			],
			"devdoc": {
				"kind": "dev",
				"methods": {},
				"version": 1
			},
			"evm": {
				"assembly": "    /* \"lecture/26_tryCatch.sol\":2484:2689  contract math{... */\n  mstore(0x40, 0x80)\n  callvalue\n  dup1\n  iszero\n  tag_1\n  jumpi\n  0x00\n  dup1\n  revert\ntag_1:\n  pop\n  dataSize(sub_0)\n  dup1\n  dataOffset(sub_0)\n  0x00\n  codecopy\n  0x00\n  return\nstop\n\nsub_0: assembly {\n        /* \"lecture/26_tryCatch.sol\":2484:2689  contract math{... */\n      mstore(0x40, 0x80)\n      callvalue\n      dup1\n      iszero\n      tag_1\n      jumpi\n      0x00\n      dup1\n      revert\n    tag_1:\n      pop\n      jumpi(tag_2, lt(calldatasize, 0x04))\n      shr(0xe0, calldataload(0x00))\n      dup1\n      0xe0068052\n      eq\n      tag_3\n      jumpi\n    tag_2:\n      0x00\n      dup1\n      revert\n        /* \"lecture/26_tryCatch.sol\":2503:2687  function division(uint256 _num1,uint256 _num2) public pure returns (uint256){... */\n    tag_3:\n      tag_4\n      0x04\n      dup1\n      calldatasize\n      sub\n      dup2\n      add\n      swap1\n      tag_5\n      swap2\n      swap1\n      tag_6\n      jump\t// in\n    tag_5:\n      tag_7\n      jump\t// in\n    tag_4:\n      mload(0x40)\n      tag_8\n      swap2\n      swap1\n      tag_9\n      jump\t// in\n    tag_8:\n      mload(0x40)\n      dup1\n      swap2\n      sub\n      swap1\n      return\n    tag_7:\n        /* \"lecture/26_tryCatch.sol\":2571:2578  uint256 */\n      0x00\n        /* \"lecture/26_tryCatch.sol\":2603:2605  10 */\n      0x0a\n        /* \"lecture/26_tryCatch.sol\":2597:2602  _num1 */\n      dup4\n        /* \"lecture/26_tryCatch.sol\":2597:2605  _num1<10 */\n      lt\n        /* \"lecture/26_tryCatch.sol\":2589:2639  require(_num1<10,\"num1 shoud not be more than 10\") */\n      tag_11\n      jumpi\n      mload(0x40)\n      0x08c379a000000000000000000000000000000000000000000000000000000000\n      dup2\n      mstore\n      0x04\n      add\n      tag_12\n      swap1\n      tag_13\n      jump\t// in\n    tag_12:\n      mload(0x40)\n      dup1\n      swap2\n      sub\n      swap1\n      revert\n    tag_11:\n        /* \"lecture/26_tryCatch.sol\":2664:2669  _num2 */\n      dup2\n        /* \"lecture/26_tryCatch.sol\":2658:2663  _num1 */\n      dup4\n        /* \"lecture/26_tryCatch.sol\":2658:2669  _num1/_num2 */\n      tag_14\n      swap2\n      swap1\n      tag_15\n      jump\t// in\n    tag_14:\n        /* \"lecture/26_tryCatch.sol\":2651:2669  return _num1/_num2 */\n      swap1\n      pop\n        /* \"lecture/26_tryCatch.sol\":2503:2687  function division(uint256 _num1,uint256 _num2) public pure returns (uint256){... */\n      swap3\n      swap2\n      pop\n      pop\n      jump\t// out\n        /* \"#utility.yul\":88:205   */\n    tag_17:\n        /* \"#utility.yul\":197:198   */\n      0x00\n        /* \"#utility.yul\":194:195   */\n      dup1\n        /* \"#utility.yul\":187:199   */\n      revert\n        /* \"#utility.yul\":334:411   */\n    tag_19:\n        /* \"#utility.yul\":371:378   */\n      0x00\n        /* \"#utility.yul\":400:405   */\n      dup2\n        /* \"#utility.yul\":389:405   */\n      swap1\n      pop\n        /* \"#utility.yul\":334:411   */\n      swap2\n      swap1\n      pop\n      jump\t// out\n        /* \"#utility.yul\":417:539   */\n    tag_20:\n        /* \"#utility.yul\":490:514   */\n      tag_34\n        /* \"#utility.yul\":508:513   */\n      dup2\n        /* \"#utility.yul\":490:514   */\n      tag_19\n      jump\t// in\n    tag_34:\n        /* \"#utility.yul\":483:488   */\n      dup2\n        /* \"#utility.yul\":480:515   */\n      eq\n        /* \"#utility.yul\":470:533   */\n      tag_35\n      jumpi\n        /* \"#utility.yul\":529:530   */\n      0x00\n        /* \"#utility.yul\":526:527   */\n      dup1\n        /* \"#utility.yul\":519:531   */\n      revert\n        /* \"#utility.yul\":470:533   */\n    tag_35:\n        /* \"#utility.yul\":417:539   */\n      pop\n      jump\t// out\n        /* \"#utility.yul\":545:684   */\n    tag_21:\n        /* \"#utility.yul\":591:596   */\n      0x00\n        /* \"#utility.yul\":629:635   */\n      dup2\n        /* \"#utility.yul\":616:636   */\n      calldataload\n        /* \"#utility.yul\":607:636   */\n      swap1\n      pop\n        /* \"#utility.yul\":645:678   */\n      tag_37\n        /* \"#utility.yul\":672:677   */\n      dup2\n        /* \"#utility.yul\":645:678   */\n      tag_20\n      jump\t// in\n    tag_37:\n        /* \"#utility.yul\":545:684   */\n      swap3\n      swap2\n      pop\n      pop\n      jump\t// out\n        /* \"#utility.yul\":690:1164   */\n    tag_6:\n        /* \"#utility.yul\":758:764   */\n      0x00\n        /* \"#utility.yul\":766:772   */\n      dup1\n        /* \"#utility.yul\":815:817   */\n      0x40\n        /* \"#utility.yul\":803:812   */\n      dup4\n        /* \"#utility.yul\":794:801   */\n      dup6\n        /* \"#utility.yul\":790:813   */\n      sub\n        /* \"#utility.yul\":786:818   */\n      slt\n        /* \"#utility.yul\":783:902   */\n      iszero\n      tag_39\n      jumpi\n        /* \"#utility.yul\":821:900   */\n      tag_40\n      tag_17\n      jump\t// in\n    tag_40:\n        /* \"#utility.yul\":783:902   */\n    tag_39:\n        /* \"#utility.yul\":941:942   */\n      0x00\n        /* \"#utility.yul\":966:1019   */\n      tag_41\n        /* \"#utility.yul\":1011:1018   */\n      dup6\n        /* \"#utility.yul\":1002:1008   */\n      dup3\n        /* \"#utility.yul\":991:1000   */\n      dup7\n        /* \"#utility.yul\":987:1009   */\n      add\n        /* \"#utility.yul\":966:1019   */\n      tag_21\n      jump\t// in\n    tag_41:\n        /* \"#utility.yul\":956:1019   */\n      swap3\n      pop\n        /* \"#utility.yul\":912:1029   */\n      pop\n        /* \"#utility.yul\":1068:1070   */\n      0x20\n        /* \"#utility.yul\":1094:1147   */\n      tag_42\n        /* \"#utility.yul\":1139:1146   */\n      dup6\n        /* \"#utility.yul\":1130:1136   */\n      dup3\n        /* \"#utility.yul\":1119:1128   */\n      dup7\n        /* \"#utility.yul\":1115:1137   */\n      add\n        /* \"#utility.yul\":1094:1147   */\n      tag_21\n      jump\t// in\n    tag_42:\n        /* \"#utility.yul\":1084:1147   */\n      swap2\n      pop\n        /* \"#utility.yul\":1039:1157   */\n      pop\n        /* \"#utility.yul\":690:1164   */\n      swap3\n      pop\n      swap3\n      swap1\n      pop\n      jump\t// out\n        /* \"#utility.yul\":1170:1288   */\n    tag_22:\n        /* \"#utility.yul\":1257:1281   */\n      tag_44\n        /* \"#utility.yul\":1275:1280   */\n      dup2\n        /* \"#utility.yul\":1257:1281   */\n      tag_19\n      jump\t// in\n    tag_44:\n        /* \"#utility.yul\":1252:1255   */\n      dup3\n        /* \"#utility.yul\":1245:1282   */\n      mstore\n        /* \"#utility.yul\":1170:1288   */\n      pop\n      pop\n      jump\t// out\n        /* \"#utility.yul\":1294:1516   */\n    tag_9:\n        /* \"#utility.yul\":1387:1391   */\n      0x00\n        /* \"#utility.yul\":1425:1427   */\n      0x20\n        /* \"#utility.yul\":1414:1423   */\n      dup3\n        /* \"#utility.yul\":1410:1428   */\n      add\n        /* \"#utility.yul\":1402:1428   */\n      swap1\n      pop\n        /* \"#utility.yul\":1438:1509   */\n      tag_46\n        /* \"#utility.yul\":1506:1507   */\n      0x00\n        /* \"#utility.yul\":1495:1504   */\n      dup4\n        /* \"#utility.yul\":1491:1508   */\n      add\n        /* \"#utility.yul\":1482:1488   */\n      dup5\n        /* \"#utility.yul\":1438:1509   */\n      tag_22\n      jump\t// in\n    tag_46:\n        /* \"#utility.yul\":1294:1516   */\n      swap3\n      swap2\n      pop\n      pop\n      jump\t// out\n        /* \"#utility.yul\":1522:1691   */\n    tag_23:\n        /* \"#utility.yul\":1606:1617   */\n      0x00\n        /* \"#utility.yul\":1640:1646   */\n      dup3\n        /* \"#utility.yul\":1635:1638   */\n      dup3\n        /* \"#utility.yul\":1628:1647   */\n      mstore\n        /* \"#utility.yul\":1680:1684   */\n      0x20\n        /* \"#utility.yul\":1675:1678   */\n      dup3\n        /* \"#utility.yul\":1671:1685   */\n      add\n        /* \"#utility.yul\":1656:1685   */\n      swap1\n      pop\n        /* \"#utility.yul\":1522:1691   */\n      swap3\n      swap2\n      pop\n      pop\n      jump\t// out\n        /* \"#utility.yul\":1697:1877   */\n    tag_24:\n        /* \"#utility.yul\":1837:1869   */\n      0x6e756d312073686f7564206e6f74206265206d6f7265207468616e2031300000\n        /* \"#utility.yul\":1833:1834   */\n      0x00\n        /* \"#utility.yul\":1825:1831   */\n      dup3\n        /* \"#utility.yul\":1821:1835   */\n      add\n        /* \"#utility.yul\":1814:1870   */\n      mstore\n        /* \"#utility.yul\":1697:1877   */\n      pop\n      jump\t// out\n        /* \"#utility.yul\":1883:2249   */\n    tag_25:\n        /* \"#utility.yul\":2025:2028   */\n      0x00\n        /* \"#utility.yul\":2046:2113   */\n      tag_50\n        /* \"#utility.yul\":2110:2112   */\n      0x1e\n        /* \"#utility.yul\":2105:2108   */\n      dup4\n        /* \"#utility.yul\":2046:2113   */\n      tag_23\n      jump\t// in\n    tag_50:\n        /* \"#utility.yul\":2039:2113   */\n      swap2\n      pop\n        /* \"#utility.yul\":2122:2215   */\n      tag_51\n        /* \"#utility.yul\":2211:2214   */\n      dup3\n        /* \"#utility.yul\":2122:2215   */\n      tag_24\n      jump\t// in\n    tag_51:\n        /* \"#utility.yul\":2240:2242   */\n      0x20\n        /* \"#utility.yul\":2235:2238   */\n      dup3\n        /* \"#utility.yul\":2231:2243   */\n      add\n        /* \"#utility.yul\":2224:2243   */\n      swap1\n      pop\n        /* \"#utility.yul\":1883:2249   */\n      swap2\n      swap1\n      pop\n      jump\t// out\n        /* \"#utility.yul\":2255:2674   */\n    tag_13:\n        /* \"#utility.yul\":2421:2425   */\n      0x00\n        /* \"#utility.yul\":2459:2461   */\n      0x20\n        /* \"#utility.yul\":2448:2457   */\n      dup3\n        /* \"#utility.yul\":2444:2462   */\n      add\n        /* \"#utility.yul\":2436:2462   */\n      swap1\n      pop\n        /* \"#utility.yul\":2508:2517   */\n      dup2\n        /* \"#utility.yul\":2502:2506   */\n      dup2\n        /* \"#utility.yul\":2498:2518   */\n      sub\n        /* \"#utility.yul\":2494:2495   */\n      0x00\n        /* \"#utility.yul\":2483:2492   */\n      dup4\n        /* \"#utility.yul\":2479:2496   */\n      add\n        /* \"#utility.yul\":2472:2519   */\n      mstore\n        /* \"#utility.yul\":2536:2667   */\n      tag_53\n        /* \"#utility.yul\":2662:2666   */\n      dup2\n        /* \"#utility.yul\":2536:2667   */\n      tag_25\n      jump\t// in\n    tag_53:\n        /* \"#utility.yul\":2528:2667   */\n      swap1\n      pop\n        /* \"#utility.yul\":2255:2674   */\n      swap2\n      swap1\n      pop\n      jump\t// out\n        /* \"#utility.yul\":2680:2860   */\n    tag_26:\n        /* \"#utility.yul\":2728:2805   */\n      0x4e487b7100000000000000000000000000000000000000000000000000000000\n        /* \"#utility.yul\":2725:2726   */\n      0x00\n        /* \"#utility.yul\":2718:2806   */\n      mstore\n        /* \"#utility.yul\":2825:2829   */\n      0x12\n        /* \"#utility.yul\":2822:2823   */\n      0x04\n        /* \"#utility.yul\":2815:2830   */\n      mstore\n        /* \"#utility.yul\":2849:2853   */\n      0x24\n        /* \"#utility.yul\":2846:2847   */\n      0x00\n        /* \"#utility.yul\":2839:2854   */\n      revert\n        /* \"#utility.yul\":3052:3237   */\n    tag_15:\n        /* \"#utility.yul\":3092:3093   */\n      0x00\n        /* \"#utility.yul\":3109:3129   */\n      tag_57\n        /* \"#utility.yul\":3127:3128   */\n      dup3\n        /* \"#utility.yul\":3109:3129   */\n      tag_19\n      jump\t// in\n    tag_57:\n        /* \"#utility.yul\":3104:3129   */\n      swap2\n      pop\n        /* \"#utility.yul\":3143:3163   */\n      tag_58\n        /* \"#utility.yul\":3161:3162   */\n      dup4\n        /* \"#utility.yul\":3143:3163   */\n      tag_19\n      jump\t// in\n    tag_58:\n        /* \"#utility.yul\":3138:3163   */\n      swap3\n      pop\n        /* \"#utility.yul\":3182:3183   */\n      dup3\n        /* \"#utility.yul\":3172:3207   */\n      tag_59\n      jumpi\n        /* \"#utility.yul\":3187:3205   */\n      tag_60\n      tag_26\n      jump\t// in\n    tag_60:\n        /* \"#utility.yul\":3172:3207   */\n    tag_59:\n        /* \"#utility.yul\":3229:3230   */\n      dup3\n        /* \"#utility.yul\":3226:3227   */\n      dup3\n        /* \"#utility.yul\":3222:3231   */\n      div\n        /* \"#utility.yul\":3217:3231   */\n      swap1\n      pop\n        /* \"#utility.yul\":3052:3237   */\n      swap3\n      swap2\n      pop\n      pop\n      jump\t// out\n\n    auxdata: 0xa264697066735822122030d7b72563bde85ffa47eccac706f8ac91fdbdc64a96ffc3d11e123db6fd7ddb64736f6c63430008120033\n}\n",
				"bytecode": {
					"linkReferences": {},
					"object": "608060405234801561001057600080fd5b50610271806100206000396000f3fe608060405234801561001057600080fd5b506004361061002b5760003560e01c8063e006805214610030575b600080fd5b61004a600480360381019061004591906100f4565b610060565b6040516100579190610143565b60405180910390f35b6000600a83106100a5576040517f08c379a000000000000000000000000000000000000000000000000000000000815260040161009c906101bb565b60405180910390fd5b81836100b1919061020a565b905092915050565b600080fd5b6000819050919050565b6100d1816100be565b81146100dc57600080fd5b50565b6000813590506100ee816100c8565b92915050565b6000806040838503121561010b5761010a6100b9565b5b6000610119858286016100df565b925050602061012a858286016100df565b9150509250929050565b61013d816100be565b82525050565b60006020820190506101586000830184610134565b92915050565b600082825260208201905092915050565b7f6e756d312073686f7564206e6f74206265206d6f7265207468616e2031300000600082015250565b60006101a5601e8361015e565b91506101b08261016f565b602082019050919050565b600060208201905081810360008301526101d481610198565b9050919050565b7f4e487b7100000000000000000000000000000000000000000000000000000000600052601260045260246000fd5b6000610215826100be565b9150610220836100be565b9250826102305761022f6101db565b5b82820490509291505056fea264697066735822122030d7b72563bde85ffa47eccac706f8ac91fdbdc64a96ffc3d11e123db6fd7ddb64736f6c63430008120033",
					"opcodes": "PUSH1 0x80 PUSH1 0x40 MSTORE CALLVALUE DUP1 ISZERO PUSH2 0x10 JUMPI PUSH1 0x0 DUP1 REVERT JUMPDEST POP PUSH2 0x271 DUP1 PUSH2 0x20 PUSH1 0x0 CODECOPY PUSH1 0x0 RETURN INVALID PUSH1 0x80 PUSH1 0x40 MSTORE CALLVALUE DUP1 ISZERO PUSH2 0x10 JUMPI PUSH1 0x0 DUP1 REVERT JUMPDEST POP PUSH1 0x4 CALLDATASIZE LT PUSH2 0x2B JUMPI PUSH1 0x0 CALLDATALOAD PUSH1 0xE0 SHR DUP1 PUSH4 0xE0068052 EQ PUSH2 0x30 JUMPI JUMPDEST PUSH1 0x0 DUP1 REVERT JUMPDEST PUSH2 0x4A PUSH1 0x4 DUP1 CALLDATASIZE SUB DUP2 ADD SWAP1 PUSH2 0x45 SWAP2 SWAP1 PUSH2 0xF4 JUMP JUMPDEST PUSH2 0x60 JUMP JUMPDEST PUSH1 0x40 MLOAD PUSH2 0x57 SWAP2 SWAP1 PUSH2 0x143 JUMP JUMPDEST PUSH1 0x40 MLOAD DUP1 SWAP2 SUB SWAP1 RETURN JUMPDEST PUSH1 0x0 PUSH1 0xA DUP4 LT PUSH2 0xA5 JUMPI PUSH1 0x40 MLOAD PUSH32 0x8C379A000000000000000000000000000000000000000000000000000000000 DUP2 MSTORE PUSH1 0x4 ADD PUSH2 0x9C SWAP1 PUSH2 0x1BB JUMP JUMPDEST PUSH1 0x40 MLOAD DUP1 SWAP2 SUB SWAP1 REVERT JUMPDEST DUP2 DUP4 PUSH2 0xB1 SWAP2 SWAP1 PUSH2 0x20A JUMP JUMPDEST SWAP1 POP SWAP3 SWAP2 POP POP JUMP JUMPDEST PUSH1 0x0 DUP1 REVERT JUMPDEST PUSH1 0x0 DUP2 SWAP1 POP SWAP2 SWAP1 POP JUMP JUMPDEST PUSH2 0xD1 DUP2 PUSH2 0xBE JUMP JUMPDEST DUP2 EQ PUSH2 0xDC JUMPI PUSH1 0x0 DUP1 REVERT JUMPDEST POP JUMP JUMPDEST PUSH1 0x0 DUP2 CALLDATALOAD SWAP1 POP PUSH2 0xEE DUP2 PUSH2 0xC8 JUMP JUMPDEST SWAP3 SWAP2 POP POP JUMP JUMPDEST PUSH1 0x0 DUP1 PUSH1 0x40 DUP4 DUP6 SUB SLT ISZERO PUSH2 0x10B JUMPI PUSH2 0x10A PUSH2 0xB9 JUMP JUMPDEST JUMPDEST PUSH1 0x0 PUSH2 0x119 DUP6 DUP3 DUP7 ADD PUSH2 0xDF JUMP JUMPDEST SWAP3 POP POP PUSH1 0x20 PUSH2 0x12A DUP6 DUP3 DUP7 ADD PUSH2 0xDF JUMP JUMPDEST SWAP2 POP POP SWAP3 POP SWAP3 SWAP1 POP JUMP JUMPDEST PUSH2 0x13D DUP2 PUSH2 0xBE JUMP JUMPDEST DUP3 MSTORE POP POP JUMP JUMPDEST PUSH1 0x0 PUSH1 0x20 DUP3 ADD SWAP1 POP PUSH2 0x158 PUSH1 0x0 DUP4 ADD DUP5 PUSH2 0x134 JUMP JUMPDEST SWAP3 SWAP2 POP POP JUMP JUMPDEST PUSH1 0x0 DUP3 DUP3 MSTORE PUSH1 0x20 DUP3 ADD SWAP1 POP SWAP3 SWAP2 POP POP JUMP JUMPDEST PUSH32 0x6E756D312073686F7564206E6F74206265206D6F7265207468616E2031300000 PUSH1 0x0 DUP3 ADD MSTORE POP JUMP JUMPDEST PUSH1 0x0 PUSH2 0x1A5 PUSH1 0x1E DUP4 PUSH2 0x15E JUMP JUMPDEST SWAP2 POP PUSH2 0x1B0 DUP3 PUSH2 0x16F JUMP JUMPDEST PUSH1 0x20 DUP3 ADD SWAP1 POP SWAP2 SWAP1 POP JUMP JUMPDEST PUSH1 0x0 PUSH1 0x20 DUP3 ADD SWAP1 POP DUP2 DUP2 SUB PUSH1 0x0 DUP4 ADD MSTORE PUSH2 0x1D4 DUP2 PUSH2 0x198 JUMP JUMPDEST SWAP1 POP SWAP2 SWAP1 POP JUMP JUMPDEST PUSH32 0x4E487B7100000000000000000000000000000000000000000000000000000000 PUSH1 0x0 MSTORE PUSH1 0x12 PUSH1 0x4 MSTORE PUSH1 0x24 PUSH1 0x0 REVERT JUMPDEST PUSH1 0x0 PUSH2 0x215 DUP3 PUSH2 0xBE JUMP JUMPDEST SWAP2 POP PUSH2 0x220 DUP4 PUSH2 0xBE JUMP JUMPDEST SWAP3 POP DUP3 PUSH2 0x230 JUMPI PUSH2 0x22F PUSH2 0x1DB JUMP JUMPDEST JUMPDEST DUP3 DUP3 DIV SWAP1 POP SWAP3 SWAP2 POP POP JUMP INVALID LOG2 PUSH5 0x6970667358 0x22 SLT KECCAK256 ADDRESS 0xD7 0xB7 0x25 PUSH4 0xBDE85FFA SELFBALANCE 0xEC 0xCA 0xC7 MOD 0xF8 0xAC SWAP2 REVERT 0xBD 0xC6 0x4A SWAP7 SELFDESTRUCT 0xC3 0xD1 0x1E SLT RETURNDATASIZE 0xB6 REVERT PUSH30 0xDB64736F6C63430008120033000000000000000000000000000000000000 "
				},
				"gasEstimates": {
					"creation": {
						"codeDepositCost": "125000",
						"executionCost": "171",
						"totalCost": "125171"
					},
					"external": {
						"division(uint256,uint256)": "infinite"
					}
				},
				"methodIdentifiers": {
					"division(uint256,uint256)": "e0068052"
				}
			},
			"storageLayout": {
				"storage": [],
				"types": null
			},
			"userdoc": {
				"kind": "user",
				"methods": {},
				"version": 1
			}
		}
	}
}