{
	"lecture/26_tryCatch.sol": {
		"runner": {
			"abi": [
				{
					"anonymous": false,
					"inputs": [
						{
							"indexed": false,
							"internalType": "string",
							"name": "_name",
							"type": "string"
						},
						{
							"indexed": false,
							"internalType": "string",
							"name": "_err",
							"type": "string"
						}
					],
					"name": "catchErr",
					"type": "event"
				},
				{
					"anonymous": false,
					"inputs": [
						{
							"indexed": false,
							"internalType": "string",
							"name": "_name",
							"type": "string"
						},
						{
							"indexed": false,
							"internalType": "bytes",
							"name": "_err",
							"type": "bytes"
						}
					],
					"name": "catchLowLevelErr",
					"type": "event"
				},
				{
					"anonymous": false,
					"inputs": [
						{
							"indexed": false,
							"internalType": "string",
							"name": "_name",
							"type": "string"
						},
						{
							"indexed": false,
							"internalType": "uint256",
							"name": "_err",
							"type": "uint256"
						}
					],
					"name": "catchPanic",
					"type": "event"
				},
				{
					"inputs": [],
					"name": "mathInstance",
					"outputs": [
						{
							"internalType": "contract math",
							"name": "",
							"type": "address"
						}
					],
					"stateMutability": "view",
					"type": "function"
				},
				{
					"inputs": [
						{
							"internalType": "uint256",
							"name": "_num1",
							"type": "uint256"
						},
						{
							"internalType": "uint256",
							"name": "_num2",
							"type": "uint256"
						}
					],
					"name": "playTryCatch",
					"outputs": [
						{
							"internalType": "uint256",
							"name": "",
							"type": "uint256"
						},
						{
							"internalType": "bool",
							"name": "",
							"type": "bool"
						}
					],
					"stateMutability": "nonpayable",
					"type": "function"
				}
			],
			"devdoc": {
				"kind": "dev",
				"methods": {},
				"version": 1
			},
			"evm": {
				"assembly": "    /* \"lecture/26_tryCatch.sol\":2691:3771  contract runner{... */\n  mstore(0x40, 0x80)\n    /* \"lecture/26_tryCatch.sol\":2926:2936  new math() */\n  mload(0x40)\n  tag_1\n  swap1\n  tag_2\n  jump\t// in\ntag_1:\n  mload(0x40)\n  dup1\n  swap2\n  sub\n  swap1\n  0x00\n  create\n  dup1\n  iszero\n  dup1\n  iszero\n  tag_3\n  jumpi\n  returndatasize\n  0x00\n  dup1\n  returndatacopy\n  revert(0x00, returndatasize)\ntag_3:\n  pop\n    /* \"lecture/26_tryCatch.sol\":2899:2936  math public mathInstance = new math() */\n  0x00\n  dup1\n  0x0100\n  exp\n  dup2\n  sload\n  dup2\n  0xffffffffffffffffffffffffffffffffffffffff\n  mul\n  not\n  and\n  swap1\n  dup4\n  0xffffffffffffffffffffffffffffffffffffffff\n  and\n  mul\n  or\n  swap1\n  sstore\n  pop\n    /* \"lecture/26_tryCatch.sol\":2691:3771  contract runner{... */\n  callvalue\n  dup1\n  iszero\n  tag_4\n  jumpi\n  0x00\n  dup1\n  revert\ntag_4:\n  pop\n  jump(tag_5)\ntag_2:\n  dataSize(sub_1)\n  dup1\n  dataOffset(sub_1)\n  dup4\n  codecopy\n  add\n  swap1\n  jump\t// out\ntag_5:\n  dataSize(sub_0)\n  dup1\n  dataOffset(sub_0)\n  0x00\n  codecopy\n  0x00\n  return\nstop\n\nsub_0: assembly {\n        /* \"lecture/26_tryCatch.sol\":2691:3771  contract runner{... */\n      mstore(0x40, 0x80)\n      callvalue\n      dup1\n      iszero\n      tag_1\n      jumpi\n      0x00\n      dup1\n      revert\n    tag_1:\n      pop\n      jumpi(tag_2, lt(calldatasize, 0x04))\n      shr(0xe0, calldataload(0x00))\n      dup1\n      0x0fc6b51c\n      eq\n      tag_3\n      jumpi\n      dup1\n      0x90560610\n      eq\n      tag_4\n      jumpi\n    tag_2:\n      0x00\n      dup1\n      revert\n        /* \"lecture/26_tryCatch.sol\":2947:3768  function playTryCatch(uint256 _num1, uint256 _num2) public returns(uint256,bool){... */\n    tag_3:\n      tag_5\n      0x04\n      dup1\n      calldatasize\n      sub\n      dup2\n      add\n      swap1\n      tag_6\n      swap2\n      swap1\n      tag_7\n      jump\t// in\n    tag_6:\n      tag_8\n      jump\t// in\n    tag_5:\n      mload(0x40)\n      tag_9\n      swap3\n      swap2\n      swap1\n      tag_10\n      jump\t// in\n    tag_9:\n      mload(0x40)\n      dup1\n      swap2\n      sub\n      swap1\n      return\n        /* \"lecture/26_tryCatch.sol\":2899:2936  math public mathInstance = new math() */\n    tag_4:\n      tag_11\n      tag_12\n      jump\t// in\n    tag_11:\n      mload(0x40)\n      tag_13\n      swap2\n      swap1\n      tag_14\n      jump\t// in\n    tag_13:\n      mload(0x40)\n      dup1\n      swap2\n      sub\n      swap1\n      return\n        /* \"lecture/26_tryCatch.sol\":2947:3768  function playTryCatch(uint256 _num1, uint256 _num2) public returns(uint256,bool){... */\n    tag_8:\n        /* \"lecture/26_tryCatch.sol\":3014:3021  uint256 */\n      0x00\n        /* \"lecture/26_tryCatch.sol\":3022:3026  bool */\n      dup1\n        /* \"lecture/26_tryCatch.sol\":3062:3074  mathInstance */\n      0x00\n      dup1\n      sload\n      swap1\n      0x0100\n      exp\n      swap1\n      div\n      0xffffffffffffffffffffffffffffffffffffffff\n      and\n        /* \"lecture/26_tryCatch.sol\":3062:3083  mathInstance.division */\n      0xffffffffffffffffffffffffffffffffffffffff\n      and\n      0xe0068052\n        /* \"lecture/26_tryCatch.sol\":3084:3089  _num1 */\n      dup6\n        /* \"lecture/26_tryCatch.sol\":3091:3096  _num2 */\n      dup6\n        /* \"lecture/26_tryCatch.sol\":3062:3097  mathInstance.division(_num1, _num2) */\n      mload(0x40)\n      dup4\n      0xffffffff\n      and\n      0xe0\n      shl\n      dup2\n      mstore\n      0x04\n      add\n      tag_16\n      swap3\n      swap2\n      swap1\n      tag_17\n      jump\t// in\n    tag_16:\n      0x20\n      mload(0x40)\n      dup1\n      dup4\n      sub\n      dup2\n      dup7\n      gas\n      staticcall\n      swap3\n      pop\n      pop\n      pop\n      dup1\n      iszero\n      tag_18\n      jumpi\n      pop\n      mload(0x40)\n      returndatasize\n      not(0x1f)\n      0x1f\n      dup3\n      add\n      and\n      dup3\n      add\n      dup1\n      0x40\n      mstore\n      pop\n      dup2\n      add\n      swap1\n      tag_19\n      swap2\n      swap1\n      tag_20\n      jump\t// in\n    tag_19:\n      0x01\n    tag_18:\n        /* \"lecture/26_tryCatch.sol\":3058:3762  try mathInstance.division(_num1, _num2) returns(uint256 value){... */\n      tag_21\n      jumpi\n      tag_25\n      tag_26\n      jump\t// in\n    tag_25:\n      dup1\n      0x08c379a0\n      sub\n      tag_24\n      jumpi\n      pop\n      tag_27\n      tag_28\n      jump\t// in\n    tag_27:\n      dup1\n      tag_29\n      jumpi\n      pop\n      jump(tag_23)\n    tag_29:\n        /* \"lecture/26_tryCatch.sol\":3279:3310  catchErr(\"revert/require\",_err) */\n      0x1a105f82e7a73e98ff8b7e5e0479a23ba4df818edeafeec2e4bdfe52624b3ba1\n        /* \"lecture/26_tryCatch.sol\":3305:3309  _err */\n      dup2\n        /* \"lecture/26_tryCatch.sol\":3279:3310  catchErr(\"revert/require\",_err) */\n      mload(0x40)\n      tag_30\n      swap2\n      swap1\n      tag_31\n      jump\t// in\n    tag_30:\n      mload(0x40)\n      dup1\n      swap2\n      sub\n      swap1\n      log1\n        /* \"lecture/26_tryCatch.sol\":3331:3332  0 */\n      0x00\n        /* \"lecture/26_tryCatch.sol\":3333:3338  false */\n      dup1\n        /* \"lecture/26_tryCatch.sol\":3324:3339  return(0,false) */\n      swap3\n      pop\n      swap3\n      pop\n      pop\n      jump(tag_15)\n        /* \"lecture/26_tryCatch.sol\":3058:3762  try mathInstance.division(_num1, _num2) returns(uint256 value){... */\n    tag_24:\n      0x4e487b71\n      sub\n      tag_23\n      jumpi\n      tag_32\n      tag_33\n      jump\t// in\n    tag_32:\n      swap1\n      tag_34\n      jumpi\n      pop\n      jump(tag_23)\n    tag_34:\n        /* \"lecture/26_tryCatch.sol\":3505:3547  catchPanic(\"assertError/Panic\",_errorCode) */\n      0xa999f44f5ca01f1755a1d8c28c08bdb6b5bff8c080bb72cc38486ebae8c928a6\n        /* \"lecture/26_tryCatch.sol\":3536:3546  _errorCode */\n      dup2\n        /* \"lecture/26_tryCatch.sol\":3505:3547  catchPanic(\"assertError/Panic\",_errorCode) */\n      mload(0x40)\n      tag_35\n      swap2\n      swap1\n      tag_36\n      jump\t// in\n    tag_35:\n      mload(0x40)\n      dup1\n      swap2\n      sub\n      swap1\n      log1\n        /* \"lecture/26_tryCatch.sol\":3568:3569  0 */\n      0x00\n        /* \"lecture/26_tryCatch.sol\":3570:3575  false */\n      dup1\n        /* \"lecture/26_tryCatch.sol\":3561:3576  return(0,false) */\n      swap3\n      pop\n      swap3\n      pop\n      pop\n      jump(tag_15)\n        /* \"lecture/26_tryCatch.sol\":3058:3762  try mathInstance.division(_num1, _num2) returns(uint256 value){... */\n    tag_23:\n      returndatasize\n      dup1\n      0x00\n      dup2\n      eq\n      tag_38\n      jumpi\n      mload(0x40)\n      swap2\n      pop\n      and(add(returndatasize, 0x3f), not(0x1f))\n      dup3\n      add\n      0x40\n      mstore\n      returndatasize\n      dup3\n      mstore\n      returndatasize\n      0x00\n      0x20\n      dup5\n      add\n      returndatacopy\n      jump(tag_37)\n    tag_38:\n      0x60\n      swap2\n      pop\n    tag_37:\n      pop\n        /* \"lecture/26_tryCatch.sol\":3678:3722  catchLowLevelErr(\"LowlevelError\",_errorCode) */\n      0x0a38afcafc8effb8f0fe817fd60b9ca57e0fde5511f65c8ba69a3a3972154831\n        /* \"lecture/26_tryCatch.sol\":3711:3721  _errorCode */\n      dup2\n        /* \"lecture/26_tryCatch.sol\":3678:3722  catchLowLevelErr(\"LowlevelError\",_errorCode) */\n      mload(0x40)\n      tag_39\n      swap2\n      swap1\n      tag_40\n      jump\t// in\n    tag_39:\n      mload(0x40)\n      dup1\n      swap2\n      sub\n      swap1\n      log1\n        /* \"lecture/26_tryCatch.sol\":3743:3744  0 */\n      0x00\n        /* \"lecture/26_tryCatch.sol\":3745:3750  false */\n      dup1\n        /* \"lecture/26_tryCatch.sol\":3736:3751  return(0,false) */\n      swap3\n      pop\n      swap3\n      pop\n      pop\n      jump(tag_15)\n        /* \"lecture/26_tryCatch.sol\":3058:3762  try mathInstance.division(_num1, _num2) returns(uint256 value){... */\n    tag_21:\n        /* \"lecture/26_tryCatch.sol\":3141:3146  value */\n      dup1\n        /* \"lecture/26_tryCatch.sol\":3147:3151  true */\n      0x01\n        /* \"lecture/26_tryCatch.sol\":3134:3152  return(value,true) */\n      swap3\n      pop\n      swap3\n      pop\n      pop\n        /* \"lecture/26_tryCatch.sol\":2947:3768  function playTryCatch(uint256 _num1, uint256 _num2) public returns(uint256,bool){... */\n    tag_15:\n      swap3\n      pop\n      swap3\n      swap1\n      pop\n      jump\t// out\n        /* \"lecture/26_tryCatch.sol\":2899:2936  math public mathInstance = new math() */\n    tag_12:\n      0x00\n      dup1\n      sload\n      swap1\n      0x0100\n      exp\n      swap1\n      div\n      0xffffffffffffffffffffffffffffffffffffffff\n      and\n      dup2\n      jump\t// out\n        /* \"#utility.yul\":7:82   */\n    tag_42:\n        /* \"#utility.yul\":40:46   */\n      0x00\n        /* \"#utility.yul\":73:75   */\n      0x40\n        /* \"#utility.yul\":67:76   */\n      mload\n        /* \"#utility.yul\":57:76   */\n      swap1\n      pop\n        /* \"#utility.yul\":7:82   */\n      swap1\n      jump\t// out\n        /* \"#utility.yul\":88:205   */\n    tag_43:\n        /* \"#utility.yul\":197:198   */\n      0x00\n        /* \"#utility.yul\":194:195   */\n      dup1\n        /* \"#utility.yul\":187:199   */\n      revert\n        /* \"#utility.yul\":334:411   */\n    tag_45:\n        /* \"#utility.yul\":371:378   */\n      0x00\n        /* \"#utility.yul\":400:405   */\n      dup2\n        /* \"#utility.yul\":389:405   */\n      swap1\n      pop\n        /* \"#utility.yul\":334:411   */\n      swap2\n      swap1\n      pop\n      jump\t// out\n        /* \"#utility.yul\":417:539   */\n    tag_46:\n        /* \"#utility.yul\":490:514   */\n      tag_81\n        /* \"#utility.yul\":508:513   */\n      dup2\n        /* \"#utility.yul\":490:514   */\n      tag_45\n      jump\t// in\n    tag_81:\n        /* \"#utility.yul\":483:488   */\n      dup2\n        /* \"#utility.yul\":480:515   */\n      eq\n        /* \"#utility.yul\":470:533   */\n      tag_82\n      jumpi\n        /* \"#utility.yul\":529:530   */\n      0x00\n        /* \"#utility.yul\":526:527   */\n      dup1\n        /* \"#utility.yul\":519:531   */\n      revert\n        /* \"#utility.yul\":470:533   */\n    tag_82:\n        /* \"#utility.yul\":417:539   */\n      pop\n      jump\t// out\n        /* \"#utility.yul\":545:684   */\n    tag_47:\n        /* \"#utility.yul\":591:596   */\n      0x00\n        /* \"#utility.yul\":629:635   */\n      dup2\n        /* \"#utility.yul\":616:636   */\n      calldataload\n        /* \"#utility.yul\":607:636   */\n      swap1\n      pop\n        /* \"#utility.yul\":645:678   */\n      tag_84\n        /* \"#utility.yul\":672:677   */\n      dup2\n        /* \"#utility.yul\":645:678   */\n      tag_46\n      jump\t// in\n    tag_84:\n        /* \"#utility.yul\":545:684   */\n      swap3\n      swap2\n      pop\n      pop\n      jump\t// out\n        /* \"#utility.yul\":690:1164   */\n    tag_7:\n        /* \"#utility.yul\":758:764   */\n      0x00\n        /* \"#utility.yul\":766:772   */\n      dup1\n        /* \"#utility.yul\":815:817   */\n      0x40\n        /* \"#utility.yul\":803:812   */\n      dup4\n        /* \"#utility.yul\":794:801   */\n      dup6\n        /* \"#utility.yul\":790:813   */\n      sub\n        /* \"#utility.yul\":786:818   */\n      slt\n        /* \"#utility.yul\":783:902   */\n      iszero\n      tag_86\n      jumpi\n        /* \"#utility.yul\":821:900   */\n      tag_87\n      tag_43\n      jump\t// in\n    tag_87:\n        /* \"#utility.yul\":783:902   */\n    tag_86:\n        /* \"#utility.yul\":941:942   */\n      0x00\n        /* \"#utility.yul\":966:1019   */\n      tag_88\n        /* \"#utility.yul\":1011:1018   */\n      dup6\n        /* \"#utility.yul\":1002:1008   */\n      dup3\n        /* \"#utility.yul\":991:1000   */\n      dup7\n        /* \"#utility.yul\":987:1009   */\n      add\n        /* \"#utility.yul\":966:1019   */\n      tag_47\n      jump\t// in\n    tag_88:\n        /* \"#utility.yul\":956:1019   */\n      swap3\n      pop\n        /* \"#utility.yul\":912:1029   */\n      pop\n        /* \"#utility.yul\":1068:1070   */\n      0x20\n        /* \"#utility.yul\":1094:1147   */\n      tag_89\n        /* \"#utility.yul\":1139:1146   */\n      dup6\n        /* \"#utility.yul\":1130:1136   */\n      dup3\n        /* \"#utility.yul\":1119:1128   */\n      dup7\n        /* \"#utility.yul\":1115:1137   */\n      add\n        /* \"#utility.yul\":1094:1147   */\n      tag_47\n      jump\t// in\n    tag_89:\n        /* \"#utility.yul\":1084:1147   */\n      swap2\n      pop\n        /* \"#utility.yul\":1039:1157   */\n      pop\n        /* \"#utility.yul\":690:1164   */\n      swap3\n      pop\n      swap3\n      swap1\n      pop\n      jump\t// out\n        /* \"#utility.yul\":1170:1288   */\n    tag_48:\n        /* \"#utility.yul\":1257:1281   */\n      tag_91\n        /* \"#utility.yul\":1275:1280   */\n      dup2\n        /* \"#utility.yul\":1257:1281   */\n      tag_45\n      jump\t// in\n    tag_91:\n        /* \"#utility.yul\":1252:1255   */\n      dup3\n        /* \"#utility.yul\":1245:1282   */\n      mstore\n        /* \"#utility.yul\":1170:1288   */\n      pop\n      pop\n      jump\t// out\n        /* \"#utility.yul\":1294:1384   */\n    tag_49:\n        /* \"#utility.yul\":1328:1335   */\n      0x00\n        /* \"#utility.yul\":1371:1376   */\n      dup2\n        /* \"#utility.yul\":1364:1377   */\n      iszero\n        /* \"#utility.yul\":1357:1378   */\n      iszero\n        /* \"#utility.yul\":1346:1378   */\n      swap1\n      pop\n        /* \"#utility.yul\":1294:1384   */\n      swap2\n      swap1\n      pop\n      jump\t// out\n        /* \"#utility.yul\":1390:1499   */\n    tag_50:\n        /* \"#utility.yul\":1471:1492   */\n      tag_94\n        /* \"#utility.yul\":1486:1491   */\n      dup2\n        /* \"#utility.yul\":1471:1492   */\n      tag_49\n      jump\t// in\n    tag_94:\n        /* \"#utility.yul\":1466:1469   */\n      dup3\n        /* \"#utility.yul\":1459:1493   */\n      mstore\n        /* \"#utility.yul\":1390:1499   */\n      pop\n      pop\n      jump\t// out\n        /* \"#utility.yul\":1505:1825   */\n    tag_10:\n        /* \"#utility.yul\":1620:1624   */\n      0x00\n        /* \"#utility.yul\":1658:1660   */\n      0x40\n        /* \"#utility.yul\":1647:1656   */\n      dup3\n        /* \"#utility.yul\":1643:1661   */\n      add\n        /* \"#utility.yul\":1635:1661   */\n      swap1\n      pop\n        /* \"#utility.yul\":1671:1742   */\n      tag_96\n        /* \"#utility.yul\":1739:1740   */\n      0x00\n        /* \"#utility.yul\":1728:1737   */\n      dup4\n        /* \"#utility.yul\":1724:1741   */\n      add\n        /* \"#utility.yul\":1715:1721   */\n      dup6\n        /* \"#utility.yul\":1671:1742   */\n      tag_48\n      jump\t// in\n    tag_96:\n        /* \"#utility.yul\":1752:1818   */\n      tag_97\n        /* \"#utility.yul\":1814:1816   */\n      0x20\n        /* \"#utility.yul\":1803:1812   */\n      dup4\n        /* \"#utility.yul\":1799:1817   */\n      add\n        /* \"#utility.yul\":1790:1796   */\n      dup5\n        /* \"#utility.yul\":1752:1818   */\n      tag_50\n      jump\t// in\n    tag_97:\n        /* \"#utility.yul\":1505:1825   */\n      swap4\n      swap3\n      pop\n      pop\n      pop\n      jump\t// out\n        /* \"#utility.yul\":1831:1957   */\n    tag_51:\n        /* \"#utility.yul\":1868:1875   */\n      0x00\n        /* \"#utility.yul\":1908:1950   */\n      0xffffffffffffffffffffffffffffffffffffffff\n        /* \"#utility.yul\":1901:1906   */\n      dup3\n        /* \"#utility.yul\":1897:1951   */\n      and\n        /* \"#utility.yul\":1886:1951   */\n      swap1\n      pop\n        /* \"#utility.yul\":1831:1957   */\n      swap2\n      swap1\n      pop\n      jump\t// out\n        /* \"#utility.yul\":1963:2023   */\n    tag_52:\n        /* \"#utility.yul\":1991:1994   */\n      0x00\n        /* \"#utility.yul\":2012:2017   */\n      dup2\n        /* \"#utility.yul\":2005:2017   */\n      swap1\n      pop\n        /* \"#utility.yul\":1963:2023   */\n      swap2\n      swap1\n      pop\n      jump\t// out\n        /* \"#utility.yul\":2029:2171   */\n    tag_53:\n        /* \"#utility.yul\":2079:2088   */\n      0x00\n        /* \"#utility.yul\":2112:2165   */\n      tag_101\n        /* \"#utility.yul\":2130:2164   */\n      tag_102\n        /* \"#utility.yul\":2139:2163   */\n      tag_103\n        /* \"#utility.yul\":2157:2162   */\n      dup5\n        /* \"#utility.yul\":2139:2163   */\n      tag_51\n      jump\t// in\n    tag_103:\n        /* \"#utility.yul\":2130:2164   */\n      tag_52\n      jump\t// in\n    tag_102:\n        /* \"#utility.yul\":2112:2165   */\n      tag_51\n      jump\t// in\n    tag_101:\n        /* \"#utility.yul\":2099:2165   */\n      swap1\n      pop\n        /* \"#utility.yul\":2029:2171   */\n      swap2\n      swap1\n      pop\n      jump\t// out\n        /* \"#utility.yul\":2177:2303   */\n    tag_54:\n        /* \"#utility.yul\":2227:2236   */\n      0x00\n        /* \"#utility.yul\":2260:2297   */\n      tag_105\n        /* \"#utility.yul\":2291:2296   */\n      dup3\n        /* \"#utility.yul\":2260:2297   */\n      tag_53\n      jump\t// in\n    tag_105:\n        /* \"#utility.yul\":2247:2297   */\n      swap1\n      pop\n        /* \"#utility.yul\":2177:2303   */\n      swap2\n      swap1\n      pop\n      jump\t// out\n        /* \"#utility.yul\":2309:2446   */\n    tag_55:\n        /* \"#utility.yul\":2370:2379   */\n      0x00\n        /* \"#utility.yul\":2403:2440   */\n      tag_107\n        /* \"#utility.yul\":2434:2439   */\n      dup3\n        /* \"#utility.yul\":2403:2440   */\n      tag_54\n      jump\t// in\n    tag_107:\n        /* \"#utility.yul\":2390:2440   */\n      swap1\n      pop\n        /* \"#utility.yul\":2309:2446   */\n      swap2\n      swap1\n      pop\n      jump\t// out\n        /* \"#utility.yul\":2452:2605   */\n    tag_56:\n        /* \"#utility.yul\":2550:2598   */\n      tag_109\n        /* \"#utility.yul\":2592:2597   */\n      dup2\n        /* \"#utility.yul\":2550:2598   */\n      tag_55\n      jump\t// in\n    tag_109:\n        /* \"#utility.yul\":2545:2548   */\n      dup3\n        /* \"#utility.yul\":2538:2599   */\n      mstore\n        /* \"#utility.yul\":2452:2605   */\n      pop\n      pop\n      jump\t// out\n        /* \"#utility.yul\":2611:2855   */\n    tag_14:\n        /* \"#utility.yul\":2715:2719   */\n      0x00\n        /* \"#utility.yul\":2753:2755   */\n      0x20\n        /* \"#utility.yul\":2742:2751   */\n      dup3\n        /* \"#utility.yul\":2738:2756   */\n      add\n        /* \"#utility.yul\":2730:2756   */\n      swap1\n      pop\n        /* \"#utility.yul\":2766:2848   */\n      tag_111\n        /* \"#utility.yul\":2845:2846   */\n      0x00\n        /* \"#utility.yul\":2834:2843   */\n      dup4\n        /* \"#utility.yul\":2830:2847   */\n      add\n        /* \"#utility.yul\":2821:2827   */\n      dup5\n        /* \"#utility.yul\":2766:2848   */\n      tag_56\n      jump\t// in\n    tag_111:\n        /* \"#utility.yul\":2611:2855   */\n      swap3\n      swap2\n      pop\n      pop\n      jump\t// out\n        /* \"#utility.yul\":2861:3193   */\n    tag_17:\n        /* \"#utility.yul\":2982:2986   */\n      0x00\n        /* \"#utility.yul\":3020:3022   */\n      0x40\n        /* \"#utility.yul\":3009:3018   */\n      dup3\n        /* \"#utility.yul\":3005:3023   */\n      add\n        /* \"#utility.yul\":2997:3023   */\n      swap1\n      pop\n        /* \"#utility.yul\":3033:3104   */\n      tag_113\n        /* \"#utility.yul\":3101:3102   */\n      0x00\n        /* \"#utility.yul\":3090:3099   */\n      dup4\n        /* \"#utility.yul\":3086:3103   */\n      add\n        /* \"#utility.yul\":3077:3083   */\n      dup6\n        /* \"#utility.yul\":3033:3104   */\n      tag_48\n      jump\t// in\n    tag_113:\n        /* \"#utility.yul\":3114:3186   */\n      tag_114\n        /* \"#utility.yul\":3182:3184   */\n      0x20\n        /* \"#utility.yul\":3171:3180   */\n      dup4\n        /* \"#utility.yul\":3167:3185   */\n      add\n        /* \"#utility.yul\":3158:3164   */\n      dup5\n        /* \"#utility.yul\":3114:3186   */\n      tag_48\n      jump\t// in\n    tag_114:\n        /* \"#utility.yul\":2861:3193   */\n      swap4\n      swap3\n      pop\n      pop\n      pop\n      jump\t// out\n        /* \"#utility.yul\":3199:3342   */\n    tag_57:\n        /* \"#utility.yul\":3256:3261   */\n      0x00\n        /* \"#utility.yul\":3287:3293   */\n      dup2\n        /* \"#utility.yul\":3281:3294   */\n      mload\n        /* \"#utility.yul\":3272:3294   */\n      swap1\n      pop\n        /* \"#utility.yul\":3303:3336   */\n      tag_116\n        /* \"#utility.yul\":3330:3335   */\n      dup2\n        /* \"#utility.yul\":3303:3336   */\n      tag_46\n      jump\t// in\n    tag_116:\n        /* \"#utility.yul\":3199:3342   */\n      swap3\n      swap2\n      pop\n      pop\n      jump\t// out\n        /* \"#utility.yul\":3348:3699   */\n    tag_20:\n        /* \"#utility.yul\":3418:3424   */\n      0x00\n        /* \"#utility.yul\":3467:3469   */\n      0x20\n        /* \"#utility.yul\":3455:3464   */\n      dup3\n        /* \"#utility.yul\":3446:3453   */\n      dup5\n        /* \"#utility.yul\":3442:3465   */\n      sub\n        /* \"#utility.yul\":3438:3470   */\n      slt\n        /* \"#utility.yul\":3435:3554   */\n      iszero\n      tag_118\n      jumpi\n        /* \"#utility.yul\":3473:3552   */\n      tag_119\n      tag_43\n      jump\t// in\n    tag_119:\n        /* \"#utility.yul\":3435:3554   */\n    tag_118:\n        /* \"#utility.yul\":3593:3594   */\n      0x00\n        /* \"#utility.yul\":3618:3682   */\n      tag_120\n        /* \"#utility.yul\":3674:3681   */\n      dup5\n        /* \"#utility.yul\":3665:3671   */\n      dup3\n        /* \"#utility.yul\":3654:3663   */\n      dup6\n        /* \"#utility.yul\":3650:3672   */\n      add\n        /* \"#utility.yul\":3618:3682   */\n      tag_57\n      jump\t// in\n    tag_120:\n        /* \"#utility.yul\":3608:3682   */\n      swap2\n      pop\n        /* \"#utility.yul\":3564:3692   */\n      pop\n        /* \"#utility.yul\":3348:3699   */\n      swap3\n      swap2\n      pop\n      pop\n      jump\t// out\n        /* \"#utility.yul\":3705:3811   */\n    tag_58:\n        /* \"#utility.yul\":3749:3757   */\n      0x00\n        /* \"#utility.yul\":3798:3803   */\n      dup2\n        /* \"#utility.yul\":3793:3796   */\n      0xe0\n        /* \"#utility.yul\":3789:3804   */\n      shr\n        /* \"#utility.yul\":3768:3804   */\n      swap1\n      pop\n        /* \"#utility.yul\":3705:3811   */\n      swap2\n      swap1\n      pop\n      jump\t// out\n        /* \"#utility.yul\":3817:4000   */\n    tag_26:\n        /* \"#utility.yul\":3852:3855   */\n      0x00\n        /* \"#utility.yul\":3890:3891   */\n      0x03\n        /* \"#utility.yul\":3872:3888   */\n      returndatasize\n        /* \"#utility.yul\":3869:3892   */\n      gt\n        /* \"#utility.yul\":3866:3994   */\n      iszero\n      tag_123\n      jumpi\n        /* \"#utility.yul\":3928:3929   */\n      0x04\n        /* \"#utility.yul\":3925:3926   */\n      0x00\n        /* \"#utility.yul\":3922:3923   */\n      dup1\n        /* \"#utility.yul\":3907:3930   */\n      returndatacopy\n        /* \"#utility.yul\":3950:3984   */\n      tag_124\n        /* \"#utility.yul\":3981:3982   */\n      0x00\n        /* \"#utility.yul\":3975:3983   */\n      mload\n        /* \"#utility.yul\":3950:3984   */\n      tag_58\n      jump\t// in\n    tag_124:\n        /* \"#utility.yul\":3943:3984   */\n      swap1\n      pop\n        /* \"#utility.yul\":3866:3994   */\n    tag_123:\n        /* \"#utility.yul\":3817:4000   */\n      swap1\n      jump\t// out\n        /* \"#utility.yul\":4006:4108   */\n    tag_59:\n        /* \"#utility.yul\":4047:4053   */\n      0x00\n        /* \"#utility.yul\":4098:4100   */\n      0x1f\n        /* \"#utility.yul\":4094:4101   */\n      not\n        /* \"#utility.yul\":4089:4091   */\n      0x1f\n        /* \"#utility.yul\":4082:4087   */\n      dup4\n        /* \"#utility.yul\":4078:4092   */\n      add\n        /* \"#utility.yul\":4074:4102   */\n      and\n        /* \"#utility.yul\":4064:4102   */\n      swap1\n      pop\n        /* \"#utility.yul\":4006:4108   */\n      swap2\n      swap1\n      pop\n      jump\t// out\n        /* \"#utility.yul\":4114:4294   */\n    tag_60:\n        /* \"#utility.yul\":4162:4239   */\n      0x4e487b7100000000000000000000000000000000000000000000000000000000\n        /* \"#utility.yul\":4159:4160   */\n      0x00\n        /* \"#utility.yul\":4152:4240   */\n      mstore\n        /* \"#utility.yul\":4259:4263   */\n      0x41\n        /* \"#utility.yul\":4256:4257   */\n      0x04\n        /* \"#utility.yul\":4249:4264   */\n      mstore\n        /* \"#utility.yul\":4283:4287   */\n      0x24\n        /* \"#utility.yul\":4280:4281   */\n      0x00\n        /* \"#utility.yul\":4273:4288   */\n      revert\n        /* \"#utility.yul\":4300:4581   */\n    tag_61:\n        /* \"#utility.yul\":4383:4410   */\n      tag_128\n        /* \"#utility.yul\":4405:4409   */\n      dup3\n        /* \"#utility.yul\":4383:4410   */\n      tag_59\n      jump\t// in\n    tag_128:\n        /* \"#utility.yul\":4375:4381   */\n      dup2\n        /* \"#utility.yul\":4371:4411   */\n      add\n        /* \"#utility.yul\":4513:4519   */\n      dup2\n        /* \"#utility.yul\":4501:4511   */\n      dup2\n        /* \"#utility.yul\":4498:4520   */\n      lt\n        /* \"#utility.yul\":4477:4495   */\n      0xffffffffffffffff\n        /* \"#utility.yul\":4465:4475   */\n      dup3\n        /* \"#utility.yul\":4462:4496   */\n      gt\n        /* \"#utility.yul\":4459:4521   */\n      or\n        /* \"#utility.yul\":4456:4544   */\n      iszero\n      tag_129\n      jumpi\n        /* \"#utility.yul\":4524:4542   */\n      tag_130\n      tag_60\n      jump\t// in\n    tag_130:\n        /* \"#utility.yul\":4456:4544   */\n    tag_129:\n        /* \"#utility.yul\":4564:4574   */\n      dup1\n        /* \"#utility.yul\":4560:4562   */\n      0x40\n        /* \"#utility.yul\":4553:4575   */\n      mstore\n        /* \"#utility.yul\":4343:4581   */\n      pop\n        /* \"#utility.yul\":4300:4581   */\n      pop\n      pop\n      jump\t// out\n        /* \"#utility.yul\":4587:5298   */\n    tag_28:\n        /* \"#utility.yul\":4626:4629   */\n      0x00\n        /* \"#utility.yul\":4664:4668   */\n      0x44\n        /* \"#utility.yul\":4646:4662   */\n      returndatasize\n        /* \"#utility.yul\":4643:4669   */\n      lt\n        /* \"#utility.yul\":4672:4677   */\n      tag_131\n        /* \"#utility.yul\":4640:4679   */\n      jumpi\n        /* \"#utility.yul\":4701:4721   */\n      tag_133\n      tag_42\n      jump\t// in\n    tag_133:\n        /* \"#utility.yul\":4776:4777   */\n      0x04\n        /* \"#utility.yul\":4758:4774   */\n      returndatasize\n        /* \"#utility.yul\":4754:4778   */\n      sub\n        /* \"#utility.yul\":4751:4752   */\n      0x04\n        /* \"#utility.yul\":4745:4749   */\n      dup3\n        /* \"#utility.yul\":4730:4779   */\n      returndatacopy\n        /* \"#utility.yul\":4809:4813   */\n      dup1\n        /* \"#utility.yul\":4803:4814   */\n      mload\n        /* \"#utility.yul\":4908:4924   */\n      returndatasize\n        /* \"#utility.yul\":4901:4905   */\n      0x24\n        /* \"#utility.yul\":4893:4899   */\n      dup3\n        /* \"#utility.yul\":4889:4906   */\n      add\n        /* \"#utility.yul\":4886:4925   */\n      gt\n        /* \"#utility.yul\":4853:4871   */\n      0xffffffffffffffff\n        /* \"#utility.yul\":4845:4851   */\n      dup3\n        /* \"#utility.yul\":4842:4872   */\n      gt\n        /* \"#utility.yul\":4826:4939   */\n      or\n        /* \"#utility.yul\":4823:4969   */\n      iszero\n      tag_134\n      jumpi\n        /* \"#utility.yul\":4954:4959   */\n      pop\n      pop\n      jump(tag_131)\n        /* \"#utility.yul\":4823:4969   */\n    tag_134:\n        /* \"#utility.yul\":5000:5006   */\n      dup1\n        /* \"#utility.yul\":4994:4998   */\n      dup3\n        /* \"#utility.yul\":4990:5007   */\n      add\n        /* \"#utility.yul\":5036:5039   */\n      dup1\n        /* \"#utility.yul\":5030:5040   */\n      mload\n        /* \"#utility.yul\":5063:5081   */\n      0xffffffffffffffff\n        /* \"#utility.yul\":5055:5061   */\n      dup2\n        /* \"#utility.yul\":5052:5082   */\n      gt\n        /* \"#utility.yul\":5049:5092   */\n      iszero\n      tag_135\n      jumpi\n        /* \"#utility.yul\":5085:5090   */\n      pop\n      pop\n      pop\n      pop\n      jump(tag_131)\n        /* \"#utility.yul\":5049:5092   */\n    tag_135:\n        /* \"#utility.yul\":5133:5139   */\n      dup1\n        /* \"#utility.yul\":5126:5130   */\n      0x20\n        /* \"#utility.yul\":5121:5124   */\n      dup4\n        /* \"#utility.yul\":5117:5131   */\n      add\n        /* \"#utility.yul\":5113:5140   */\n      add\n        /* \"#utility.yul\":5192:5193   */\n      0x04\n        /* \"#utility.yul\":5174:5190   */\n      returndatasize\n        /* \"#utility.yul\":5170:5194   */\n      sub\n        /* \"#utility.yul\":5164:5168   */\n      dup6\n        /* \"#utility.yul\":5160:5195   */\n      add\n        /* \"#utility.yul\":5155:5158   */\n      dup2\n        /* \"#utility.yul\":5152:5196   */\n      gt\n        /* \"#utility.yul\":5149:5206   */\n      iszero\n      tag_136\n      jumpi\n        /* \"#utility.yul\":5199:5204   */\n      pop\n      pop\n      pop\n      pop\n      pop\n      jump(tag_131)\n        /* \"#utility.yul\":5149:5206   */\n    tag_136:\n        /* \"#utility.yul\":5216:5273   */\n      tag_137\n        /* \"#utility.yul\":5264:5270   */\n      dup3\n        /* \"#utility.yul\":5258:5262   */\n      0x20\n        /* \"#utility.yul\":5254:5271   */\n      add\n        /* \"#utility.yul\":5246:5252   */\n      dup6\n        /* \"#utility.yul\":5242:5272   */\n      add\n        /* \"#utility.yul\":5236:5240   */\n      dup7\n        /* \"#utility.yul\":5216:5273   */\n      tag_61\n      jump\t// in\n    tag_137:\n        /* \"#utility.yul\":5289:5292   */\n      dup3\n        /* \"#utility.yul\":5282:5292   */\n      swap6\n      pop\n        /* \"#utility.yul\":4630:5298   */\n      pop\n      pop\n      pop\n      pop\n      pop\n        /* \"#utility.yul\":4587:5298   */\n    tag_131:\n      swap1\n      jump\t// out\n        /* \"#utility.yul\":5304:5473   */\n    tag_62:\n        /* \"#utility.yul\":5388:5399   */\n      0x00\n        /* \"#utility.yul\":5422:5428   */\n      dup3\n        /* \"#utility.yul\":5417:5420   */\n      dup3\n        /* \"#utility.yul\":5410:5429   */\n      mstore\n        /* \"#utility.yul\":5462:5466   */\n      0x20\n        /* \"#utility.yul\":5457:5460   */\n      dup3\n        /* \"#utility.yul\":5453:5467   */\n      add\n        /* \"#utility.yul\":5438:5467   */\n      swap1\n      pop\n        /* \"#utility.yul\":5304:5473   */\n      swap3\n      swap2\n      pop\n      pop\n      jump\t// out\n        /* \"#utility.yul\":5479:5643   */\n    tag_63:\n        /* \"#utility.yul\":5619:5635   */\n      0x7265766572742f72657175697265000000000000000000000000000000000000\n        /* \"#utility.yul\":5615:5616   */\n      0x00\n        /* \"#utility.yul\":5607:5613   */\n      dup3\n        /* \"#utility.yul\":5603:5617   */\n      add\n        /* \"#utility.yul\":5596:5636   */\n      mstore\n        /* \"#utility.yul\":5479:5643   */\n      pop\n      jump\t// out\n        /* \"#utility.yul\":5649:6015   */\n    tag_64:\n        /* \"#utility.yul\":5791:5794   */\n      0x00\n        /* \"#utility.yul\":5812:5879   */\n      tag_141\n        /* \"#utility.yul\":5876:5878   */\n      0x0e\n        /* \"#utility.yul\":5871:5874   */\n      dup4\n        /* \"#utility.yul\":5812:5879   */\n      tag_62\n      jump\t// in\n    tag_141:\n        /* \"#utility.yul\":5805:5879   */\n      swap2\n      pop\n        /* \"#utility.yul\":5888:5981   */\n      tag_142\n        /* \"#utility.yul\":5977:5980   */\n      dup3\n        /* \"#utility.yul\":5888:5981   */\n      tag_63\n      jump\t// in\n    tag_142:\n        /* \"#utility.yul\":6006:6008   */\n      0x20\n        /* \"#utility.yul\":6001:6004   */\n      dup3\n        /* \"#utility.yul\":5997:6009   */\n      add\n        /* \"#utility.yul\":5990:6009   */\n      swap1\n      pop\n        /* \"#utility.yul\":5649:6015   */\n      swap2\n      swap1\n      pop\n      jump\t// out\n        /* \"#utility.yul\":6021:6120   */\n    tag_65:\n        /* \"#utility.yul\":6073:6079   */\n      0x00\n        /* \"#utility.yul\":6107:6112   */\n      dup2\n        /* \"#utility.yul\":6101:6113   */\n      mload\n        /* \"#utility.yul\":6091:6113   */\n      swap1\n      pop\n        /* \"#utility.yul\":6021:6120   */\n      swap2\n      swap1\n      pop\n      jump\t// out\n        /* \"#utility.yul\":6126:6372   */\n    tag_66:\n        /* \"#utility.yul\":6207:6208   */\n      0x00\n        /* \"#utility.yul\":6217:6330   */\n    tag_145:\n        /* \"#utility.yul\":6231:6237   */\n      dup4\n        /* \"#utility.yul\":6228:6229   */\n      dup2\n        /* \"#utility.yul\":6225:6238   */\n      lt\n        /* \"#utility.yul\":6217:6330   */\n      iszero\n      tag_147\n      jumpi\n        /* \"#utility.yul\":6316:6317   */\n      dup1\n        /* \"#utility.yul\":6311:6314   */\n      dup3\n        /* \"#utility.yul\":6307:6318   */\n      add\n        /* \"#utility.yul\":6301:6319   */\n      mload\n        /* \"#utility.yul\":6297:6298   */\n      dup2\n        /* \"#utility.yul\":6292:6295   */\n      dup5\n        /* \"#utility.yul\":6288:6299   */\n      add\n        /* \"#utility.yul\":6281:6320   */\n      mstore\n        /* \"#utility.yul\":6253:6255   */\n      0x20\n        /* \"#utility.yul\":6250:6251   */\n      dup2\n        /* \"#utility.yul\":6246:6256   */\n      add\n        /* \"#utility.yul\":6241:6256   */\n      swap1\n      pop\n        /* \"#utility.yul\":6217:6330   */\n      jump(tag_145)\n    tag_147:\n        /* \"#utility.yul\":6364:6365   */\n      0x00\n        /* \"#utility.yul\":6355:6361   */\n      dup5\n        /* \"#utility.yul\":6350:6353   */\n      dup5\n        /* \"#utility.yul\":6346:6362   */\n      add\n        /* \"#utility.yul\":6339:6366   */\n      mstore\n        /* \"#utility.yul\":6188:6372   */\n      pop\n        /* \"#utility.yul\":6126:6372   */\n      pop\n      pop\n      pop\n      jump\t// out\n        /* \"#utility.yul\":6378:6755   */\n    tag_67:\n        /* \"#utility.yul\":6466:6469   */\n      0x00\n        /* \"#utility.yul\":6494:6533   */\n      tag_149\n        /* \"#utility.yul\":6527:6532   */\n      dup3\n        /* \"#utility.yul\":6494:6533   */\n      tag_65\n      jump\t// in\n    tag_149:\n        /* \"#utility.yul\":6549:6620   */\n      tag_150\n        /* \"#utility.yul\":6613:6619   */\n      dup2\n        /* \"#utility.yul\":6608:6611   */\n      dup6\n        /* \"#utility.yul\":6549:6620   */\n      tag_62\n      jump\t// in\n    tag_150:\n        /* \"#utility.yul\":6542:6620   */\n      swap4\n      pop\n        /* \"#utility.yul\":6629:6694   */\n      tag_151\n        /* \"#utility.yul\":6687:6693   */\n      dup2\n        /* \"#utility.yul\":6682:6685   */\n      dup6\n        /* \"#utility.yul\":6675:6679   */\n      0x20\n        /* \"#utility.yul\":6668:6673   */\n      dup7\n        /* \"#utility.yul\":6664:6680   */\n      add\n        /* \"#utility.yul\":6629:6694   */\n      tag_66\n      jump\t// in\n    tag_151:\n        /* \"#utility.yul\":6719:6748   */\n      tag_152\n        /* \"#utility.yul\":6741:6747   */\n      dup2\n        /* \"#utility.yul\":6719:6748   */\n      tag_59\n      jump\t// in\n    tag_152:\n        /* \"#utility.yul\":6714:6717   */\n      dup5\n        /* \"#utility.yul\":6710:6749   */\n      add\n        /* \"#utility.yul\":6703:6749   */\n      swap2\n      pop\n        /* \"#utility.yul\":6470:6755   */\n      pop\n        /* \"#utility.yul\":6378:6755   */\n      swap3\n      swap2\n      pop\n      pop\n      jump\t// out\n        /* \"#utility.yul\":6761:7381   */\n    tag_31:\n        /* \"#utility.yul\":6975:6979   */\n      0x00\n        /* \"#utility.yul\":7013:7015   */\n      0x40\n        /* \"#utility.yul\":7002:7011   */\n      dup3\n        /* \"#utility.yul\":6998:7016   */\n      add\n        /* \"#utility.yul\":6990:7016   */\n      swap1\n      pop\n        /* \"#utility.yul\":7062:7071   */\n      dup2\n        /* \"#utility.yul\":7056:7060   */\n      dup2\n        /* \"#utility.yul\":7052:7072   */\n      sub\n        /* \"#utility.yul\":7048:7049   */\n      0x00\n        /* \"#utility.yul\":7037:7046   */\n      dup4\n        /* \"#utility.yul\":7033:7050   */\n      add\n        /* \"#utility.yul\":7026:7073   */\n      mstore\n        /* \"#utility.yul\":7090:7221   */\n      tag_154\n        /* \"#utility.yul\":7216:7220   */\n      dup2\n        /* \"#utility.yul\":7090:7221   */\n      tag_64\n      jump\t// in\n    tag_154:\n        /* \"#utility.yul\":7082:7221   */\n      swap1\n      pop\n        /* \"#utility.yul\":7268:7277   */\n      dup2\n        /* \"#utility.yul\":7262:7266   */\n      dup2\n        /* \"#utility.yul\":7258:7278   */\n      sub\n        /* \"#utility.yul\":7253:7255   */\n      0x20\n        /* \"#utility.yul\":7242:7251   */\n      dup4\n        /* \"#utility.yul\":7238:7256   */\n      add\n        /* \"#utility.yul\":7231:7279   */\n      mstore\n        /* \"#utility.yul\":7296:7374   */\n      tag_155\n        /* \"#utility.yul\":7369:7373   */\n      dup2\n        /* \"#utility.yul\":7360:7366   */\n      dup5\n        /* \"#utility.yul\":7296:7374   */\n      tag_67\n      jump\t// in\n    tag_155:\n        /* \"#utility.yul\":7288:7374   */\n      swap1\n      pop\n        /* \"#utility.yul\":6761:7381   */\n      swap3\n      swap2\n      pop\n      pop\n      jump\t// out\n        /* \"#utility.yul\":7387:7587   */\n    tag_33:\n        /* \"#utility.yul\":7423:7430   */\n      0x00\n        /* \"#utility.yul\":7432:7436   */\n      dup1\n        /* \"#utility.yul\":7471:7475   */\n      0x23\n        /* \"#utility.yul\":7453:7469   */\n      returndatasize\n        /* \"#utility.yul\":7450:7476   */\n      gt\n        /* \"#utility.yul\":7447:7581   */\n      iszero\n      tag_157\n      jumpi\n        /* \"#utility.yul\":7512:7516   */\n      0x20\n        /* \"#utility.yul\":7509:7510   */\n      0x04\n        /* \"#utility.yul\":7506:7507   */\n      0x00\n        /* \"#utility.yul\":7491:7517   */\n      returndatacopy\n        /* \"#utility.yul\":7541:7542   */\n      0x01\n        /* \"#utility.yul\":7530:7542   */\n      swap2\n      pop\n        /* \"#utility.yul\":7569:7570   */\n      0x00\n        /* \"#utility.yul\":7563:7571   */\n      mload\n        /* \"#utility.yul\":7555:7571   */\n      swap1\n      pop\n        /* \"#utility.yul\":7447:7581   */\n    tag_157:\n        /* \"#utility.yul\":7387:7587   */\n      swap1\n      swap2\n      jump\t// out\n        /* \"#utility.yul\":7593:7760   */\n    tag_68:\n        /* \"#utility.yul\":7733:7752   */\n      0x6173736572744572726f722f50616e6963000000000000000000000000000000\n        /* \"#utility.yul\":7729:7730   */\n      0x00\n        /* \"#utility.yul\":7721:7727   */\n      dup3\n        /* \"#utility.yul\":7717:7731   */\n      add\n        /* \"#utility.yul\":7710:7753   */\n      mstore\n        /* \"#utility.yul\":7593:7760   */\n      pop\n      jump\t// out\n        /* \"#utility.yul\":7766:8132   */\n    tag_69:\n        /* \"#utility.yul\":7908:7911   */\n      0x00\n        /* \"#utility.yul\":7929:7996   */\n      tag_160\n        /* \"#utility.yul\":7993:7995   */\n      0x11\n        /* \"#utility.yul\":7988:7991   */\n      dup4\n        /* \"#utility.yul\":7929:7996   */\n      tag_62\n      jump\t// in\n    tag_160:\n        /* \"#utility.yul\":7922:7996   */\n      swap2\n      pop\n        /* \"#utility.yul\":8005:8098   */\n      tag_161\n        /* \"#utility.yul\":8094:8097   */\n      dup3\n        /* \"#utility.yul\":8005:8098   */\n      tag_68\n      jump\t// in\n    tag_161:\n        /* \"#utility.yul\":8123:8125   */\n      0x20\n        /* \"#utility.yul\":8118:8121   */\n      dup3\n        /* \"#utility.yul\":8114:8126   */\n      add\n        /* \"#utility.yul\":8107:8126   */\n      swap1\n      pop\n        /* \"#utility.yul\":7766:8132   */\n      swap2\n      swap1\n      pop\n      jump\t// out\n        /* \"#utility.yul\":8138:8667   */\n    tag_36:\n        /* \"#utility.yul\":8332:8336   */\n      0x00\n        /* \"#utility.yul\":8370:8372   */\n      0x40\n        /* \"#utility.yul\":8359:8368   */\n      dup3\n        /* \"#utility.yul\":8355:8373   */\n      add\n        /* \"#utility.yul\":8347:8373   */\n      swap1\n      pop\n        /* \"#utility.yul\":8419:8428   */\n      dup2\n        /* \"#utility.yul\":8413:8417   */\n      dup2\n        /* \"#utility.yul\":8409:8429   */\n      sub\n        /* \"#utility.yul\":8405:8406   */\n      0x00\n        /* \"#utility.yul\":8394:8403   */\n      dup4\n        /* \"#utility.yul\":8390:8407   */\n      add\n        /* \"#utility.yul\":8383:8430   */\n      mstore\n        /* \"#utility.yul\":8447:8578   */\n      tag_163\n        /* \"#utility.yul\":8573:8577   */\n      dup2\n        /* \"#utility.yul\":8447:8578   */\n      tag_69\n      jump\t// in\n    tag_163:\n        /* \"#utility.yul\":8439:8578   */\n      swap1\n      pop\n        /* \"#utility.yul\":8588:8660   */\n      tag_164\n        /* \"#utility.yul\":8656:8658   */\n      0x20\n        /* \"#utility.yul\":8645:8654   */\n      dup4\n        /* \"#utility.yul\":8641:8659   */\n      add\n        /* \"#utility.yul\":8632:8638   */\n      dup5\n        /* \"#utility.yul\":8588:8660   */\n      tag_48\n      jump\t// in\n    tag_164:\n        /* \"#utility.yul\":8138:8667   */\n      swap3\n      swap2\n      pop\n      pop\n      jump\t// out\n        /* \"#utility.yul\":8673:8836   */\n    tag_70:\n        /* \"#utility.yul\":8813:8828   */\n      0x4c6f776c6576656c4572726f7200000000000000000000000000000000000000\n        /* \"#utility.yul\":8809:8810   */\n      0x00\n        /* \"#utility.yul\":8801:8807   */\n      dup3\n        /* \"#utility.yul\":8797:8811   */\n      add\n        /* \"#utility.yul\":8790:8829   */\n      mstore\n        /* \"#utility.yul\":8673:8836   */\n      pop\n      jump\t// out\n        /* \"#utility.yul\":8842:9208   */\n    tag_71:\n        /* \"#utility.yul\":8984:8987   */\n      0x00\n        /* \"#utility.yul\":9005:9072   */\n      tag_167\n        /* \"#utility.yul\":9069:9071   */\n      0x0d\n        /* \"#utility.yul\":9064:9067   */\n      dup4\n        /* \"#utility.yul\":9005:9072   */\n      tag_62\n      jump\t// in\n    tag_167:\n        /* \"#utility.yul\":8998:9072   */\n      swap2\n      pop\n        /* \"#utility.yul\":9081:9174   */\n      tag_168\n        /* \"#utility.yul\":9170:9173   */\n      dup3\n        /* \"#utility.yul\":9081:9174   */\n      tag_70\n      jump\t// in\n    tag_168:\n        /* \"#utility.yul\":9199:9201   */\n      0x20\n        /* \"#utility.yul\":9194:9197   */\n      dup3\n        /* \"#utility.yul\":9190:9202   */\n      add\n        /* \"#utility.yul\":9183:9202   */\n      swap1\n      pop\n        /* \"#utility.yul\":8842:9208   */\n      swap2\n      swap1\n      pop\n      jump\t// out\n        /* \"#utility.yul\":9214:9312   */\n    tag_72:\n        /* \"#utility.yul\":9265:9271   */\n      0x00\n        /* \"#utility.yul\":9299:9304   */\n      dup2\n        /* \"#utility.yul\":9293:9305   */\n      mload\n        /* \"#utility.yul\":9283:9305   */\n      swap1\n      pop\n        /* \"#utility.yul\":9214:9312   */\n      swap2\n      swap1\n      pop\n      jump\t// out\n        /* \"#utility.yul\":9318:9486   */\n    tag_73:\n        /* \"#utility.yul\":9401:9412   */\n      0x00\n        /* \"#utility.yul\":9435:9441   */\n      dup3\n        /* \"#utility.yul\":9430:9433   */\n      dup3\n        /* \"#utility.yul\":9423:9442   */\n      mstore\n        /* \"#utility.yul\":9475:9479   */\n      0x20\n        /* \"#utility.yul\":9470:9473   */\n      dup3\n        /* \"#utility.yul\":9466:9480   */\n      add\n        /* \"#utility.yul\":9451:9480   */\n      swap1\n      pop\n        /* \"#utility.yul\":9318:9486   */\n      swap3\n      swap2\n      pop\n      pop\n      jump\t// out\n        /* \"#utility.yul\":9492:9865   */\n    tag_74:\n        /* \"#utility.yul\":9578:9581   */\n      0x00\n        /* \"#utility.yul\":9606:9644   */\n      tag_172\n        /* \"#utility.yul\":9638:9643   */\n      dup3\n        /* \"#utility.yul\":9606:9644   */\n      tag_72\n      jump\t// in\n    tag_172:\n        /* \"#utility.yul\":9660:9730   */\n      tag_173\n        /* \"#utility.yul\":9723:9729   */\n      dup2\n        /* \"#utility.yul\":9718:9721   */\n      dup6\n        /* \"#utility.yul\":9660:9730   */\n      tag_73\n      jump\t// in\n    tag_173:\n        /* \"#utility.yul\":9653:9730   */\n      swap4\n      pop\n        /* \"#utility.yul\":9739:9804   */\n      tag_174\n        /* \"#utility.yul\":9797:9803   */\n      dup2\n        /* \"#utility.yul\":9792:9795   */\n      dup6\n        /* \"#utility.yul\":9785:9789   */\n      0x20\n        /* \"#utility.yul\":9778:9783   */\n      dup7\n        /* \"#utility.yul\":9774:9790   */\n      add\n        /* \"#utility.yul\":9739:9804   */\n      tag_66\n      jump\t// in\n    tag_174:\n        /* \"#utility.yul\":9829:9858   */\n      tag_175\n        /* \"#utility.yul\":9851:9857   */\n      dup2\n        /* \"#utility.yul\":9829:9858   */\n      tag_59\n      jump\t// in\n    tag_175:\n        /* \"#utility.yul\":9824:9827   */\n      dup5\n        /* \"#utility.yul\":9820:9859   */\n      add\n        /* \"#utility.yul\":9813:9859   */\n      swap2\n      pop\n        /* \"#utility.yul\":9582:9865   */\n      pop\n        /* \"#utility.yul\":9492:9865   */\n      swap3\n      swap2\n      pop\n      pop\n      jump\t// out\n        /* \"#utility.yul\":9871:10487   */\n    tag_40:\n        /* \"#utility.yul\":10083:10087   */\n      0x00\n        /* \"#utility.yul\":10121:10123   */\n      0x40\n        /* \"#utility.yul\":10110:10119   */\n      dup3\n        /* \"#utility.yul\":10106:10124   */\n      add\n        /* \"#utility.yul\":10098:10124   */\n      swap1\n      pop\n        /* \"#utility.yul\":10170:10179   */\n      dup2\n        /* \"#utility.yul\":10164:10168   */\n      dup2\n        /* \"#utility.yul\":10160:10180   */\n      sub\n        /* \"#utility.yul\":10156:10157   */\n      0x00\n        /* \"#utility.yul\":10145:10154   */\n      dup4\n        /* \"#utility.yul\":10141:10158   */\n      add\n        /* \"#utility.yul\":10134:10181   */\n      mstore\n        /* \"#utility.yul\":10198:10329   */\n      tag_177\n        /* \"#utility.yul\":10324:10328   */\n      dup2\n        /* \"#utility.yul\":10198:10329   */\n      tag_71\n      jump\t// in\n    tag_177:\n        /* \"#utility.yul\":10190:10329   */\n      swap1\n      pop\n        /* \"#utility.yul\":10376:10385   */\n      dup2\n        /* \"#utility.yul\":10370:10374   */\n      dup2\n        /* \"#utility.yul\":10366:10386   */\n      sub\n        /* \"#utility.yul\":10361:10363   */\n      0x20\n        /* \"#utility.yul\":10350:10359   */\n      dup4\n        /* \"#utility.yul\":10346:10364   */\n      add\n        /* \"#utility.yul\":10339:10387   */\n      mstore\n        /* \"#utility.yul\":10404:10480   */\n      tag_178\n        /* \"#utility.yul\":10475:10479   */\n      dup2\n        /* \"#utility.yul\":10466:10472   */\n      dup5\n        /* \"#utility.yul\":10404:10480   */\n      tag_74\n      jump\t// in\n    tag_178:\n        /* \"#utility.yul\":10396:10480   */\n      swap1\n      pop\n        /* \"#utility.yul\":9871:10487   */\n      swap3\n      swap2\n      pop\n      pop\n      jump\t// out\n\n    auxdata: 0xa264697066735822122009085c0f1b9320a3168fc455de12fe8a82eda0dfdcd945c8f41bc8afbee0a90164736f6c63430008120033\n}\n\nsub_1: assembly {\n        /* \"lecture/26_tryCatch.sol\":2484:2689  contract math{... */\n      mstore(0x40, 0x80)\n      callvalue\n      dup1\n      iszero\n      tag_1\n      jumpi\n      0x00\n      dup1\n      revert\n    tag_1:\n      pop\n      dataSize(sub_0)\n      dup1\n      dataOffset(sub_0)\n      0x00\n      codecopy\n      0x00\n      return\n    stop\n\n    sub_0: assembly {\n            /* \"lecture/26_tryCatch.sol\":2484:2689  contract math{... */\n          mstore(0x40, 0x80)\n          callvalue\n          dup1\n          iszero\n          tag_1\n          jumpi\n          0x00\n          dup1\n          revert\n        tag_1:\n          pop\n          jumpi(tag_2, lt(calldatasize, 0x04))\n          shr(0xe0, calldataload(0x00))\n          dup1\n          0xe0068052\n          eq\n          tag_3\n          jumpi\n        tag_2:\n          0x00\n          dup1\n          revert\n            /* \"lecture/26_tryCatch.sol\":2503:2687  function division(uint256 _num1,uint256 _num2) public pure returns (uint256){... */\n        tag_3:\n          tag_4\n          0x04\n          dup1\n          calldatasize\n          sub\n          dup2\n          add\n          swap1\n          tag_5\n          swap2\n          swap1\n          tag_6\n          jump\t// in\n        tag_5:\n          tag_7\n          jump\t// in\n        tag_4:\n          mload(0x40)\n          tag_8\n          swap2\n          swap1\n          tag_9\n          jump\t// in\n        tag_8:\n          mload(0x40)\n          dup1\n          swap2\n          sub\n          swap1\n          return\n        tag_7:\n            /* \"lecture/26_tryCatch.sol\":2571:2578  uint256 */\n          0x00\n            /* \"lecture/26_tryCatch.sol\":2603:2605  10 */\n          0x0a\n            /* \"lecture/26_tryCatch.sol\":2597:2602  _num1 */\n          dup4\n            /* \"lecture/26_tryCatch.sol\":2597:2605  _num1<10 */\n          lt\n            /* \"lecture/26_tryCatch.sol\":2589:2639  require(_num1<10,\"num1 shoud not be more than 10\") */\n          tag_11\n          jumpi\n          mload(0x40)\n          0x08c379a000000000000000000000000000000000000000000000000000000000\n          dup2\n          mstore\n          0x04\n          add\n          tag_12\n          swap1\n          tag_13\n          jump\t// in\n        tag_12:\n          mload(0x40)\n          dup1\n          swap2\n          sub\n          swap1\n          revert\n        tag_11:\n            /* \"lecture/26_tryCatch.sol\":2664:2669  _num2 */\n          dup2\n            /* \"lecture/26_tryCatch.sol\":2658:2663  _num1 */\n          dup4\n            /* \"lecture/26_tryCatch.sol\":2658:2669  _num1/_num2 */\n          tag_14\n          swap2\n          swap1\n          tag_15\n          jump\t// in\n        tag_14:\n            /* \"lecture/26_tryCatch.sol\":2651:2669  return _num1/_num2 */\n          swap1\n          pop\n            /* \"lecture/26_tryCatch.sol\":2503:2687  function division(uint256 _num1,uint256 _num2) public pure returns (uint256){... */\n          swap3\n          swap2\n          pop\n          pop\n          jump\t// out\n            /* \"#utility.yul\":88:205   */\n        tag_17:\n            /* \"#utility.yul\":197:198   */\n          0x00\n            /* \"#utility.yul\":194:195   */\n          dup1\n            /* \"#utility.yul\":187:199   */\n          revert\n            /* \"#utility.yul\":334:411   */\n        tag_19:\n            /* \"#utility.yul\":371:378   */\n          0x00\n            /* \"#utility.yul\":400:405   */\n          dup2\n            /* \"#utility.yul\":389:405   */\n          swap1\n          pop\n            /* \"#utility.yul\":334:411   */\n          swap2\n          swap1\n          pop\n          jump\t// out\n            /* \"#utility.yul\":417:539   */\n        tag_20:\n            /* \"#utility.yul\":490:514   */\n          tag_34\n            /* \"#utility.yul\":508:513   */\n          dup2\n            /* \"#utility.yul\":490:514   */\n          tag_19\n          jump\t// in\n        tag_34:\n            /* \"#utility.yul\":483:488   */\n          dup2\n            /* \"#utility.yul\":480:515   */\n          eq\n            /* \"#utility.yul\":470:533   */\n          tag_35\n          jumpi\n            /* \"#utility.yul\":529:530   */\n          0x00\n            /* \"#utility.yul\":526:527   */\n          dup1\n            /* \"#utility.yul\":519:531   */\n          revert\n            /* \"#utility.yul\":470:533   */\n        tag_35:\n            /* \"#utility.yul\":417:539   */\n          pop\n          jump\t// out\n            /* \"#utility.yul\":545:684   */\n        tag_21:\n            /* \"#utility.yul\":591:596   */\n          0x00\n            /* \"#utility.yul\":629:635   */\n          dup2\n            /* \"#utility.yul\":616:636   */\n          calldataload\n            /* \"#utility.yul\":607:636   */\n          swap1\n          pop\n            /* \"#utility.yul\":645:678   */\n          tag_37\n            /* \"#utility.yul\":672:677   */\n          dup2\n            /* \"#utility.yul\":645:678   */\n          tag_20\n          jump\t// in\n        tag_37:\n            /* \"#utility.yul\":545:684   */\n          swap3\n          swap2\n          pop\n          pop\n          jump\t// out\n            /* \"#utility.yul\":690:1164   */\n        tag_6:\n            /* \"#utility.yul\":758:764   */\n          0x00\n            /* \"#utility.yul\":766:772   */\n          dup1\n            /* \"#utility.yul\":815:817   */\n          0x40\n            /* \"#utility.yul\":803:812   */\n          dup4\n            /* \"#utility.yul\":794:801   */\n          dup6\n            /* \"#utility.yul\":790:813   */\n          sub\n            /* \"#utility.yul\":786:818   */\n          slt\n            /* \"#utility.yul\":783:902   */\n          iszero\n          tag_39\n          jumpi\n            /* \"#utility.yul\":821:900   */\n          tag_40\n          tag_17\n          jump\t// in\n        tag_40:\n            /* \"#utility.yul\":783:902   */\n        tag_39:\n            /* \"#utility.yul\":941:942   */\n          0x00\n            /* \"#utility.yul\":966:1019   */\n          tag_41\n            /* \"#utility.yul\":1011:1018   */\n          dup6\n            /* \"#utility.yul\":1002:1008   */\n          dup3\n            /* \"#utility.yul\":991:1000   */\n          dup7\n            /* \"#utility.yul\":987:1009   */\n          add\n            /* \"#utility.yul\":966:1019   */\n          tag_21\n          jump\t// in\n        tag_41:\n            /* \"#utility.yul\":956:1019   */\n          swap3\n          pop\n            /* \"#utility.yul\":912:1029   */\n          pop\n            /* \"#utility.yul\":1068:1070   */\n          0x20\n            /* \"#utility.yul\":1094:1147   */\n          tag_42\n            /* \"#utility.yul\":1139:1146   */\n          dup6\n            /* \"#utility.yul\":1130:1136   */\n          dup3\n            /* \"#utility.yul\":1119:1128   */\n          dup7\n            /* \"#utility.yul\":1115:1137   */\n          add\n            /* \"#utility.yul\":1094:1147   */\n          tag_21\n          jump\t// in\n        tag_42:\n            /* \"#utility.yul\":1084:1147   */\n          swap2\n          pop\n            /* \"#utility.yul\":1039:1157   */\n          pop\n            /* \"#utility.yul\":690:1164   */\n          swap3\n          pop\n          swap3\n          swap1\n          pop\n          jump\t// out\n            /* \"#utility.yul\":1170:1288   */\n        tag_22:\n            /* \"#utility.yul\":1257:1281   */\n          tag_44\n            /* \"#utility.yul\":1275:1280   */\n          dup2\n            /* \"#utility.yul\":1257:1281   */\n          tag_19\n          jump\t// in\n        tag_44:\n            /* \"#utility.yul\":1252:1255   */\n          dup3\n            /* \"#utility.yul\":1245:1282   */\n          mstore\n            /* \"#utility.yul\":1170:1288   */\n          pop\n          pop\n          jump\t// out\n            /* \"#utility.yul\":1294:1516   */\n        tag_9:\n            /* \"#utility.yul\":1387:1391   */\n          0x00\n            /* \"#utility.yul\":1425:1427   */\n          0x20\n            /* \"#utility.yul\":1414:1423   */\n          dup3\n            /* \"#utility.yul\":1410:1428   */\n          add\n            /* \"#utility.yul\":1402:1428   */\n          swap1\n          pop\n            /* \"#utility.yul\":1438:1509   */\n          tag_46\n            /* \"#utility.yul\":1506:1507   */\n          0x00\n            /* \"#utility.yul\":1495:1504   */\n          dup4\n            /* \"#utility.yul\":1491:1508   */\n          add\n            /* \"#utility.yul\":1482:1488   */\n          dup5\n            /* \"#utility.yul\":1438:1509   */\n          tag_22\n          jump\t// in\n        tag_46:\n            /* \"#utility.yul\":1294:1516   */\n          swap3\n          swap2\n          pop\n          pop\n          jump\t// out\n            /* \"#utility.yul\":1522:1691   */\n        tag_23:\n            /* \"#utility.yul\":1606:1617   */\n          0x00\n            /* \"#utility.yul\":1640:1646   */\n          dup3\n            /* \"#utility.yul\":1635:1638   */\n          dup3\n            /* \"#utility.yul\":1628:1647   */\n          mstore\n            /* \"#utility.yul\":1680:1684   */\n          0x20\n            /* \"#utility.yul\":1675:1678   */\n          dup3\n            /* \"#utility.yul\":1671:1685   */\n          add\n            /* \"#utility.yul\":1656:1685   */\n          swap1\n          pop\n            /* \"#utility.yul\":1522:1691   */\n          swap3\n          swap2\n          pop\n          pop\n          jump\t// out\n            /* \"#utility.yul\":1697:1877   */\n        tag_24:\n            /* \"#utility.yul\":1837:1869   */\n          0x6e756d312073686f7564206e6f74206265206d6f7265207468616e2031300000\n            /* \"#utility.yul\":1833:1834   */\n          0x00\n            /* \"#utility.yul\":1825:1831   */\n          dup3\n            /* \"#utility.yul\":1821:1835   */\n          add\n            /* \"#utility.yul\":1814:1870   */\n          mstore\n            /* \"#utility.yul\":1697:1877   */\n          pop\n          jump\t// out\n            /* \"#utility.yul\":1883:2249   */\n        tag_25:\n            /* \"#utility.yul\":2025:2028   */\n          0x00\n            /* \"#utility.yul\":2046:2113   */\n          tag_50\n            /* \"#utility.yul\":2110:2112   */\n          0x1e\n            /* \"#utility.yul\":2105:2108   */\n          dup4\n            /* \"#utility.yul\":2046:2113   */\n          tag_23\n          jump\t// in\n        tag_50:\n            /* \"#utility.yul\":2039:2113   */\n          swap2\n          pop\n            /* \"#utility.yul\":2122:2215   */\n          tag_51\n            /* \"#utility.yul\":2211:2214   */\n          dup3\n            /* \"#utility.yul\":2122:2215   */\n          tag_24\n          jump\t// in\n        tag_51:\n            /* \"#utility.yul\":2240:2242   */\n          0x20\n            /* \"#utility.yul\":2235:2238   */\n          dup3\n            /* \"#utility.yul\":2231:2243   */\n          add\n            /* \"#utility.yul\":2224:2243   */\n          swap1\n          pop\n            /* \"#utility.yul\":1883:2249   */\n          swap2\n          swap1\n          pop\n          jump\t// out\n            /* \"#utility.yul\":2255:2674   */\n        tag_13:\n            /* \"#utility.yul\":2421:2425   */\n          0x00\n            /* \"#utility.yul\":2459:2461   */\n          0x20\n            /* \"#utility.yul\":2448:2457   */\n          dup3\n            /* \"#utility.yul\":2444:2462   */\n          add\n            /* \"#utility.yul\":2436:2462   */\n          swap1\n          pop\n            /* \"#utility.yul\":2508:2517   */\n          dup2\n            /* \"#utility.yul\":2502:2506   */\n          dup2\n            /* \"#utility.yul\":2498:2518   */\n          sub\n            /* \"#utility.yul\":2494:2495   */\n          0x00\n            /* \"#utility.yul\":2483:2492   */\n          dup4\n            /* \"#utility.yul\":2479:2496   */\n          add\n            /* \"#utility.yul\":2472:2519   */\n          mstore\n            /* \"#utility.yul\":2536:2667   */\n          tag_53\n            /* \"#utility.yul\":2662:2666   */\n          dup2\n            /* \"#utility.yul\":2536:2667   */\n          tag_25\n          jump\t// in\n        tag_53:\n            /* \"#utility.yul\":2528:2667   */\n          swap1\n          pop\n            /* \"#utility.yul\":2255:2674   */\n          swap2\n          swap1\n          pop\n          jump\t// out\n            /* \"#utility.yul\":2680:2860   */\n        tag_26:\n            /* \"#utility.yul\":2728:2805   */\n          0x4e487b7100000000000000000000000000000000000000000000000000000000\n            /* \"#utility.yul\":2725:2726   */\n          0x00\n            /* \"#utility.yul\":2718:2806   */\n          mstore\n            /* \"#utility.yul\":2825:2829   */\n          0x12\n            /* \"#utility.yul\":2822:2823   */\n          0x04\n            /* \"#utility.yul\":2815:2830   */\n          mstore\n            /* \"#utility.yul\":2849:2853   */\n          0x24\n            /* \"#utility.yul\":2846:2847   */\n          0x00\n            /* \"#utility.yul\":2839:2854   */\n          revert\n            /* \"#utility.yul\":3052:3237   */\n        tag_15:\n            /* \"#utility.yul\":3092:3093   */\n          0x00\n            /* \"#utility.yul\":3109:3129   */\n          tag_57\n            /* \"#utility.yul\":3127:3128   */\n          dup3\n            /* \"#utility.yul\":3109:3129   */\n          tag_19\n          jump\t// in\n        tag_57:\n            /* \"#utility.yul\":3104:3129   */\n          swap2\n          pop\n            /* \"#utility.yul\":3143:3163   */\n          tag_58\n            /* \"#utility.yul\":3161:3162   */\n          dup4\n            /* \"#utility.yul\":3143:3163   */\n          tag_19\n          jump\t// in\n        tag_58:\n            /* \"#utility.yul\":3138:3163   */\n          swap3\n          pop\n            /* \"#utility.yul\":3182:3183   */\n          dup3\n            /* \"#utility.yul\":3172:3207   */\n          tag_59\n          jumpi\n            /* \"#utility.yul\":3187:3205   */\n          tag_60\n          tag_26\n          jump\t// in\n        tag_60:\n            /* \"#utility.yul\":3172:3207   */\n        tag_59:\n            /* \"#utility.yul\":3229:3230   */\n          dup3\n            /* \"#utility.yul\":3226:3227   */\n          dup3\n            /* \"#utility.yul\":3222:3231   */\n          div\n            /* \"#utility.yul\":3217:3231   */\n          swap1\n          pop\n            /* \"#utility.yul\":3052:3237   */\n          swap3\n          swap2\n          pop\n          pop\n          jump\t// out\n\n        auxdata: 0xa264697066735822122030d7b72563bde85ffa47eccac706f8ac91fdbdc64a96ffc3d11e123db6fd7ddb64736f6c63430008120033\n    }\n}\n",
				"bytecode": {
					"linkReferences": {},
					"object": "60806040526040516100109061007e565b604051809103906000f08015801561002c573d6000803e3d6000fd5b506000806101000a81548173ffffffffffffffffffffffffffffffffffffffff021916908373ffffffffffffffffffffffffffffffffffffffff16021790555034801561007857600080fd5b5061008b565b610291806108ea83390190565b6108508061009a6000396000f3fe608060405234801561001057600080fd5b50600436106100365760003560e01c80630fc6b51c1461003b578063905606101461006c575b600080fd5b610055600480360381019061005091906102e1565b61008a565b60405161006392919061034b565b60405180910390f35b610074610278565b60405161008191906103f3565b60405180910390f35b60008060008054906101000a900473ffffffffffffffffffffffffffffffffffffffff1673ffffffffffffffffffffffffffffffffffffffff1663e006805285856040518363ffffffff1660e01b81526004016100e892919061040e565b602060405180830381865afa92505050801561012257506040513d601f19601f8201168201806040525081019061011f919061044c565b60015b6102685761012e610486565b806308c379a0036101915750610142610519565b8061014d57506101f2565b7f1a105f82e7a73e98ff8b7e5e0479a23ba4df818edeafeec2e4bdfe52624b3ba18160405161017c9190610674565b60405180910390a16000809250925050610271565b634e487b71036101f2576101a36106a9565b906101ae57506101f2565b7fa999f44f5ca01f1755a1d8c28c08bdb6b5bff8c080bb72cc38486ebae8c928a6816040516101dd9190610716565b60405180910390a16000809250925050610271565b3d806000811461021e576040519150601f19603f3d011682016040523d82523d6000602084013e610223565b606091505b507f0a38afcafc8effb8f0fe817fd60b9ca57e0fde5511f65c8ba69a3a39721548318160405161025391906107e5565b60405180910390a16000809250925050610271565b80600192509250505b9250929050565b60008054906101000a900473ffffffffffffffffffffffffffffffffffffffff1681565b6000604051905090565b600080fd5b6000819050919050565b6102be816102ab565b81146102c957600080fd5b50565b6000813590506102db816102b5565b92915050565b600080604083850312156102f8576102f76102a6565b5b6000610306858286016102cc565b9250506020610317858286016102cc565b9150509250929050565b61032a816102ab565b82525050565b60008115159050919050565b61034581610330565b82525050565b60006040820190506103606000830185610321565b61036d602083018461033c565b9392505050565b600073ffffffffffffffffffffffffffffffffffffffff82169050919050565b6000819050919050565b60006103b96103b46103af84610374565b610394565b610374565b9050919050565b60006103cb8261039e565b9050919050565b60006103dd826103c0565b9050919050565b6103ed816103d2565b82525050565b600060208201905061040860008301846103e4565b92915050565b60006040820190506104236000830185610321565b6104306020830184610321565b9392505050565b600081519050610446816102b5565b92915050565b600060208284031215610462576104616102a6565b5b600061047084828501610437565b91505092915050565b60008160e01c9050919050565b600060033d11156104a55760046000803e6104a2600051610479565b90505b90565b6000601f19601f8301169050919050565b7f4e487b7100000000000000000000000000000000000000000000000000000000600052604160045260246000fd5b6104f1826104a8565b810181811067ffffffffffffffff821117156105105761050f6104b9565b5b80604052505050565b600060443d106105a65761052b61029c565b60043d036004823e80513d602482011167ffffffffffffffff821117156105535750506105a6565b808201805167ffffffffffffffff81111561057157505050506105a6565b80602083010160043d03850181111561058e5750505050506105a6565b61059d826020018501866104e8565b82955050505050505b90565b600082825260208201905092915050565b7f7265766572742f72657175697265000000000000000000000000000000000000600082015250565b60006105f0600e836105a9565b91506105fb826105ba565b602082019050919050565b600081519050919050565b60005b8381101561062f578082015181840152602081019050610614565b60008484015250505050565b600061064682610606565b61065081856105a9565b9350610660818560208601610611565b610669816104a8565b840191505092915050565b6000604082019050818103600083015261068d816105e3565b905081810360208301526106a1818461063b565b905092915050565b60008060233d11156106c6576020600460003e6001915060005190505b9091565b7f6173736572744572726f722f50616e6963000000000000000000000000000000600082015250565b60006107006011836105a9565b915061070b826106ca565b602082019050919050565b6000604082019050818103600083015261072f816106f3565b905061073e6020830184610321565b92915050565b7f4c6f776c6576656c4572726f7200000000000000000000000000000000000000600082015250565b600061077a600d836105a9565b915061078582610744565b602082019050919050565b600081519050919050565b600082825260208201905092915050565b60006107b782610790565b6107c1818561079b565b93506107d1818560208601610611565b6107da816104a8565b840191505092915050565b600060408201905081810360008301526107fe8161076d565b9050818103602083015261081281846107ac565b90509291505056fea264697066735822122009085c0f1b9320a3168fc455de12fe8a82eda0dfdcd945c8f41bc8afbee0a90164736f6c63430008120033608060405234801561001057600080fd5b50610271806100206000396000f3fe608060405234801561001057600080fd5b506004361061002b5760003560e01c8063e006805214610030575b600080fd5b61004a600480360381019061004591906100f4565b610060565b6040516100579190610143565b60405180910390f35b6000600a83106100a5576040517f08c379a000000000000000000000000000000000000000000000000000000000815260040161009c906101bb565b60405180910390fd5b81836100b1919061020a565b905092915050565b600080fd5b6000819050919050565b6100d1816100be565b81146100dc57600080fd5b50565b6000813590506100ee816100c8565b92915050565b6000806040838503121561010b5761010a6100b9565b5b6000610119858286016100df565b925050602061012a858286016100df565b9150509250929050565b61013d816100be565b82525050565b60006020820190506101586000830184610134565b92915050565b600082825260208201905092915050565b7f6e756d312073686f7564206e6f74206265206d6f7265207468616e2031300000600082015250565b60006101a5601e8361015e565b91506101b08261016f565b602082019050919050565b600060208201905081810360008301526101d481610198565b9050919050565b7f4e487b7100000000000000000000000000000000000000000000000000000000600052601260045260246000fd5b6000610215826100be565b9150610220836100be565b9250826102305761022f6101db565b5b82820490509291505056fea264697066735822122030d7b72563bde85ffa47eccac706f8ac91fdbdc64a96ffc3d11e123db6fd7ddb64736f6c63430008120033",
					"opcodes": "PUSH1 0x80 PUSH1 0x40 MSTORE PUSH1 0x40 MLOAD PUSH2 0x10 SWAP1 PUSH2 0x7E JUMP JUMPDEST PUSH1 0x40 MLOAD DUP1 SWAP2 SUB SWAP1 PUSH1 0x0 CREATE DUP1 ISZERO DUP1 ISZERO PUSH2 0x2C JUMPI RETURNDATASIZE PUSH1 0x0 DUP1 RETURNDATACOPY RETURNDATASIZE PUSH1 0x0 REVERT JUMPDEST POP PUSH1 0x0 DUP1 PUSH2 0x100 EXP DUP2 SLOAD DUP2 PUSH20 0xFFFFFFFFFFFFFFFFFFFFFFFFFFFFFFFFFFFFFFFF MUL NOT AND SWAP1 DUP4 PUSH20 0xFFFFFFFFFFFFFFFFFFFFFFFFFFFFFFFFFFFFFFFF AND MUL OR SWAP1 SSTORE POP CALLVALUE DUP1 ISZERO PUSH2 0x78 JUMPI PUSH1 0x0 DUP1 REVERT JUMPDEST POP PUSH2 0x8B JUMP JUMPDEST PUSH2 0x291 DUP1 PUSH2 0x8EA DUP4 CODECOPY ADD SWAP1 JUMP JUMPDEST PUSH2 0x850 DUP1 PUSH2 0x9A PUSH1 0x0 CODECOPY PUSH1 0x0 RETURN INVALID PUSH1 0x80 PUSH1 0x40 MSTORE CALLVALUE DUP1 ISZERO PUSH2 0x10 JUMPI PUSH1 0x0 DUP1 REVERT JUMPDEST POP PUSH1 0x4 CALLDATASIZE LT PUSH2 0x36 JUMPI PUSH1 0x0 CALLDATALOAD PUSH1 0xE0 SHR DUP1 PUSH4 0xFC6B51C EQ PUSH2 0x3B JUMPI DUP1 PUSH4 0x90560610 EQ PUSH2 0x6C JUMPI JUMPDEST PUSH1 0x0 DUP1 REVERT JUMPDEST PUSH2 0x55 PUSH1 0x4 DUP1 CALLDATASIZE SUB DUP2 ADD SWAP1 PUSH2 0x50 SWAP2 SWAP1 PUSH2 0x2E1 JUMP JUMPDEST PUSH2 0x8A JUMP JUMPDEST PUSH1 0x40 MLOAD PUSH2 0x63 SWAP3 SWAP2 SWAP1 PUSH2 0x34B JUMP JUMPDEST PUSH1 0x40 MLOAD DUP1 SWAP2 SUB SWAP1 RETURN JUMPDEST PUSH2 0x74 PUSH2 0x278 JUMP JUMPDEST PUSH1 0x40 MLOAD PUSH2 0x81 SWAP2 SWAP1 PUSH2 0x3F3 JUMP JUMPDEST PUSH1 0x40 MLOAD DUP1 SWAP2 SUB SWAP1 RETURN JUMPDEST PUSH1 0x0 DUP1 PUSH1 0x0 DUP1 SLOAD SWAP1 PUSH2 0x100 EXP SWAP1 DIV PUSH20 0xFFFFFFFFFFFFFFFFFFFFFFFFFFFFFFFFFFFFFFFF AND PUSH20 0xFFFFFFFFFFFFFFFFFFFFFFFFFFFFFFFFFFFFFFFF AND PUSH4 0xE0068052 DUP6 DUP6 PUSH1 0x40 MLOAD DUP4 PUSH4 0xFFFFFFFF AND PUSH1 0xE0 SHL DUP2 MSTORE PUSH1 0x4 ADD PUSH2 0xE8 SWAP3 SWAP2 SWAP1 PUSH2 0x40E JUMP JUMPDEST PUSH1 0x20 PUSH1 0x40 MLOAD DUP1 DUP4 SUB DUP2 DUP7 GAS STATICCALL SWAP3 POP POP POP DUP1 ISZERO PUSH2 0x122 JUMPI POP PUSH1 0x40 MLOAD RETURNDATASIZE PUSH1 0x1F NOT PUSH1 0x1F DUP3 ADD AND DUP3 ADD DUP1 PUSH1 0x40 MSTORE POP DUP2 ADD SWAP1 PUSH2 0x11F SWAP2 SWAP1 PUSH2 0x44C JUMP JUMPDEST PUSH1 0x1 JUMPDEST PUSH2 0x268 JUMPI PUSH2 0x12E PUSH2 0x486 JUMP JUMPDEST DUP1 PUSH4 0x8C379A0 SUB PUSH2 0x191 JUMPI POP PUSH2 0x142 PUSH2 0x519 JUMP JUMPDEST DUP1 PUSH2 0x14D JUMPI POP PUSH2 0x1F2 JUMP JUMPDEST PUSH32 0x1A105F82E7A73E98FF8B7E5E0479A23BA4DF818EDEAFEEC2E4BDFE52624B3BA1 DUP2 PUSH1 0x40 MLOAD PUSH2 0x17C SWAP2 SWAP1 PUSH2 0x674 JUMP JUMPDEST PUSH1 0x40 MLOAD DUP1 SWAP2 SUB SWAP1 LOG1 PUSH1 0x0 DUP1 SWAP3 POP SWAP3 POP POP PUSH2 0x271 JUMP JUMPDEST PUSH4 0x4E487B71 SUB PUSH2 0x1F2 JUMPI PUSH2 0x1A3 PUSH2 0x6A9 JUMP JUMPDEST SWAP1 PUSH2 0x1AE JUMPI POP PUSH2 0x1F2 JUMP JUMPDEST PUSH32 0xA999F44F5CA01F1755A1D8C28C08BDB6B5BFF8C080BB72CC38486EBAE8C928A6 DUP2 PUSH1 0x40 MLOAD PUSH2 0x1DD SWAP2 SWAP1 PUSH2 0x716 JUMP JUMPDEST PUSH1 0x40 MLOAD DUP1 SWAP2 SUB SWAP1 LOG1 PUSH1 0x0 DUP1 SWAP3 POP SWAP3 POP POP PUSH2 0x271 JUMP JUMPDEST RETURNDATASIZE DUP1 PUSH1 0x0 DUP2 EQ PUSH2 0x21E JUMPI PUSH1 0x40 MLOAD SWAP2 POP PUSH1 0x1F NOT PUSH1 0x3F RETURNDATASIZE ADD AND DUP3 ADD PUSH1 0x40 MSTORE RETURNDATASIZE DUP3 MSTORE RETURNDATASIZE PUSH1 0x0 PUSH1 0x20 DUP5 ADD RETURNDATACOPY PUSH2 0x223 JUMP JUMPDEST PUSH1 0x60 SWAP2 POP JUMPDEST POP PUSH32 0xA38AFCAFC8EFFB8F0FE817FD60B9CA57E0FDE5511F65C8BA69A3A3972154831 DUP2 PUSH1 0x40 MLOAD PUSH2 0x253 SWAP2 SWAP1 PUSH2 0x7E5 JUMP JUMPDEST PUSH1 0x40 MLOAD DUP1 SWAP2 SUB SWAP1 LOG1 PUSH1 0x0 DUP1 SWAP3 POP SWAP3 POP POP PUSH2 0x271 JUMP JUMPDEST DUP1 PUSH1 0x1 SWAP3 POP SWAP3 POP POP JUMPDEST SWAP3 POP SWAP3 SWAP1 POP JUMP JUMPDEST PUSH1 0x0 DUP1 SLOAD SWAP1 PUSH2 0x100 EXP SWAP1 DIV PUSH20 0xFFFFFFFFFFFFFFFFFFFFFFFFFFFFFFFFFFFFFFFF AND DUP2 JUMP JUMPDEST PUSH1 0x0 PUSH1 0x40 MLOAD SWAP1 POP SWAP1 JUMP JUMPDEST PUSH1 0x0 DUP1 REVERT JUMPDEST PUSH1 0x0 DUP2 SWAP1 POP SWAP2 SWAP1 POP JUMP JUMPDEST PUSH2 0x2BE DUP2 PUSH2 0x2AB JUMP JUMPDEST DUP2 EQ PUSH2 0x2C9 JUMPI PUSH1 0x0 DUP1 REVERT JUMPDEST POP JUMP JUMPDEST PUSH1 0x0 DUP2 CALLDATALOAD SWAP1 POP PUSH2 0x2DB DUP2 PUSH2 0x2B5 JUMP JUMPDEST SWAP3 SWAP2 POP POP JUMP JUMPDEST PUSH1 0x0 DUP1 PUSH1 0x40 DUP4 DUP6 SUB SLT ISZERO PUSH2 0x2F8 JUMPI PUSH2 0x2F7 PUSH2 0x2A6 JUMP JUMPDEST JUMPDEST PUSH1 0x0 PUSH2 0x306 DUP6 DUP3 DUP7 ADD PUSH2 0x2CC JUMP JUMPDEST SWAP3 POP POP PUSH1 0x20 PUSH2 0x317 DUP6 DUP3 DUP7 ADD PUSH2 0x2CC JUMP JUMPDEST SWAP2 POP POP SWAP3 POP SWAP3 SWAP1 POP JUMP JUMPDEST PUSH2 0x32A DUP2 PUSH2 0x2AB JUMP JUMPDEST DUP3 MSTORE POP POP JUMP JUMPDEST PUSH1 0x0 DUP2 ISZERO ISZERO SWAP1 POP SWAP2 SWAP1 POP JUMP JUMPDEST PUSH2 0x345 DUP2 PUSH2 0x330 JUMP JUMPDEST DUP3 MSTORE POP POP JUMP JUMPDEST PUSH1 0x0 PUSH1 0x40 DUP3 ADD SWAP1 POP PUSH2 0x360 PUSH1 0x0 DUP4 ADD DUP6 PUSH2 0x321 JUMP JUMPDEST PUSH2 0x36D PUSH1 0x20 DUP4 ADD DUP5 PUSH2 0x33C JUMP JUMPDEST SWAP4 SWAP3 POP POP POP JUMP JUMPDEST PUSH1 0x0 PUSH20 0xFFFFFFFFFFFFFFFFFFFFFFFFFFFFFFFFFFFFFFFF DUP3 AND SWAP1 POP SWAP2 SWAP1 POP JUMP JUMPDEST PUSH1 0x0 DUP2 SWAP1 POP SWAP2 SWAP1 POP JUMP JUMPDEST PUSH1 0x0 PUSH2 0x3B9 PUSH2 0x3B4 PUSH2 0x3AF DUP5 PUSH2 0x374 JUMP JUMPDEST PUSH2 0x394 JUMP JUMPDEST PUSH2 0x374 JUMP JUMPDEST SWAP1 POP SWAP2 SWAP1 POP JUMP JUMPDEST PUSH1 0x0 PUSH2 0x3CB DUP3 PUSH2 0x39E JUMP JUMPDEST SWAP1 POP SWAP2 SWAP1 POP JUMP JUMPDEST PUSH1 0x0 PUSH2 0x3DD DUP3 PUSH2 0x3C0 JUMP JUMPDEST SWAP1 POP SWAP2 SWAP1 POP JUMP JUMPDEST PUSH2 0x3ED DUP2 PUSH2 0x3D2 JUMP JUMPDEST DUP3 MSTORE POP POP JUMP JUMPDEST PUSH1 0x0 PUSH1 0x20 DUP3 ADD SWAP1 POP PUSH2 0x408 PUSH1 0x0 DUP4 ADD DUP5 PUSH2 0x3E4 JUMP JUMPDEST SWAP3 SWAP2 POP POP JUMP JUMPDEST PUSH1 0x0 PUSH1 0x40 DUP3 ADD SWAP1 POP PUSH2 0x423 PUSH1 0x0 DUP4 ADD DUP6 PUSH2 0x321 JUMP JUMPDEST PUSH2 0x430 PUSH1 0x20 DUP4 ADD DUP5 PUSH2 0x321 JUMP JUMPDEST SWAP4 SWAP3 POP POP POP JUMP JUMPDEST PUSH1 0x0 DUP2 MLOAD SWAP1 POP PUSH2 0x446 DUP2 PUSH2 0x2B5 JUMP JUMPDEST SWAP3 SWAP2 POP POP JUMP JUMPDEST PUSH1 0x0 PUSH1 0x20 DUP3 DUP5 SUB SLT ISZERO PUSH2 0x462 JUMPI PUSH2 0x461 PUSH2 0x2A6 JUMP JUMPDEST JUMPDEST PUSH1 0x0 PUSH2 0x470 DUP5 DUP3 DUP6 ADD PUSH2 0x437 JUMP JUMPDEST SWAP2 POP POP SWAP3 SWAP2 POP POP JUMP JUMPDEST PUSH1 0x0 DUP2 PUSH1 0xE0 SHR SWAP1 POP SWAP2 SWAP1 POP JUMP JUMPDEST PUSH1 0x0 PUSH1 0x3 RETURNDATASIZE GT ISZERO PUSH2 0x4A5 JUMPI PUSH1 0x4 PUSH1 0x0 DUP1 RETURNDATACOPY PUSH2 0x4A2 PUSH1 0x0 MLOAD PUSH2 0x479 JUMP JUMPDEST SWAP1 POP JUMPDEST SWAP1 JUMP JUMPDEST PUSH1 0x0 PUSH1 0x1F NOT PUSH1 0x1F DUP4 ADD AND SWAP1 POP SWAP2 SWAP1 POP JUMP JUMPDEST PUSH32 0x4E487B7100000000000000000000000000000000000000000000000000000000 PUSH1 0x0 MSTORE PUSH1 0x41 PUSH1 0x4 MSTORE PUSH1 0x24 PUSH1 0x0 REVERT JUMPDEST PUSH2 0x4F1 DUP3 PUSH2 0x4A8 JUMP JUMPDEST DUP2 ADD DUP2 DUP2 LT PUSH8 0xFFFFFFFFFFFFFFFF DUP3 GT OR ISZERO PUSH2 0x510 JUMPI PUSH2 0x50F PUSH2 0x4B9 JUMP JUMPDEST JUMPDEST DUP1 PUSH1 0x40 MSTORE POP POP POP JUMP JUMPDEST PUSH1 0x0 PUSH1 0x44 RETURNDATASIZE LT PUSH2 0x5A6 JUMPI PUSH2 0x52B PUSH2 0x29C JUMP JUMPDEST PUSH1 0x4 RETURNDATASIZE SUB PUSH1 0x4 DUP3 RETURNDATACOPY DUP1 MLOAD RETURNDATASIZE PUSH1 0x24 DUP3 ADD GT PUSH8 0xFFFFFFFFFFFFFFFF DUP3 GT OR ISZERO PUSH2 0x553 JUMPI POP POP PUSH2 0x5A6 JUMP JUMPDEST DUP1 DUP3 ADD DUP1 MLOAD PUSH8 0xFFFFFFFFFFFFFFFF DUP2 GT ISZERO PUSH2 0x571 JUMPI POP POP POP POP PUSH2 0x5A6 JUMP JUMPDEST DUP1 PUSH1 0x20 DUP4 ADD ADD PUSH1 0x4 RETURNDATASIZE SUB DUP6 ADD DUP2 GT ISZERO PUSH2 0x58E JUMPI POP POP POP POP POP PUSH2 0x5A6 JUMP JUMPDEST PUSH2 0x59D DUP3 PUSH1 0x20 ADD DUP6 ADD DUP7 PUSH2 0x4E8 JUMP JUMPDEST DUP3 SWAP6 POP POP POP POP POP POP JUMPDEST SWAP1 JUMP JUMPDEST PUSH1 0x0 DUP3 DUP3 MSTORE PUSH1 0x20 DUP3 ADD SWAP1 POP SWAP3 SWAP2 POP POP JUMP JUMPDEST PUSH32 0x7265766572742F72657175697265000000000000000000000000000000000000 PUSH1 0x0 DUP3 ADD MSTORE POP JUMP JUMPDEST PUSH1 0x0 PUSH2 0x5F0 PUSH1 0xE DUP4 PUSH2 0x5A9 JUMP JUMPDEST SWAP2 POP PUSH2 0x5FB DUP3 PUSH2 0x5BA JUMP JUMPDEST PUSH1 0x20 DUP3 ADD SWAP1 POP SWAP2 SWAP1 POP JUMP JUMPDEST PUSH1 0x0 DUP2 MLOAD SWAP1 POP SWAP2 SWAP1 POP JUMP JUMPDEST PUSH1 0x0 JUMPDEST DUP4 DUP2 LT ISZERO PUSH2 0x62F JUMPI DUP1 DUP3 ADD MLOAD DUP2 DUP5 ADD MSTORE PUSH1 0x20 DUP2 ADD SWAP1 POP PUSH2 0x614 JUMP JUMPDEST PUSH1 0x0 DUP5 DUP5 ADD MSTORE POP POP POP POP JUMP JUMPDEST PUSH1 0x0 PUSH2 0x646 DUP3 PUSH2 0x606 JUMP JUMPDEST PUSH2 0x650 DUP2 DUP6 PUSH2 0x5A9 JUMP JUMPDEST SWAP4 POP PUSH2 0x660 DUP2 DUP6 PUSH1 0x20 DUP7 ADD PUSH2 0x611 JUMP JUMPDEST PUSH2 0x669 DUP2 PUSH2 0x4A8 JUMP JUMPDEST DUP5 ADD SWAP2 POP POP SWAP3 SWAP2 POP POP JUMP JUMPDEST PUSH1 0x0 PUSH1 0x40 DUP3 ADD SWAP1 POP DUP2 DUP2 SUB PUSH1 0x0 DUP4 ADD MSTORE PUSH2 0x68D DUP2 PUSH2 0x5E3 JUMP JUMPDEST SWAP1 POP DUP2 DUP2 SUB PUSH1 0x20 DUP4 ADD MSTORE PUSH2 0x6A1 DUP2 DUP5 PUSH2 0x63B JUMP JUMPDEST SWAP1 POP SWAP3 SWAP2 POP POP JUMP JUMPDEST PUSH1 0x0 DUP1 PUSH1 0x23 RETURNDATASIZE GT ISZERO PUSH2 0x6C6 JUMPI PUSH1 0x20 PUSH1 0x4 PUSH1 0x0 RETURNDATACOPY PUSH1 0x1 SWAP2 POP PUSH1 0x0 MLOAD SWAP1 POP JUMPDEST SWAP1 SWAP2 JUMP JUMPDEST PUSH32 0x6173736572744572726F722F50616E6963000000000000000000000000000000 PUSH1 0x0 DUP3 ADD MSTORE POP JUMP JUMPDEST PUSH1 0x0 PUSH2 0x700 PUSH1 0x11 DUP4 PUSH2 0x5A9 JUMP JUMPDEST SWAP2 POP PUSH2 0x70B DUP3 PUSH2 0x6CA JUMP JUMPDEST PUSH1 0x20 DUP3 ADD SWAP1 POP SWAP2 SWAP1 POP JUMP JUMPDEST PUSH1 0x0 PUSH1 0x40 DUP3 ADD SWAP1 POP DUP2 DUP2 SUB PUSH1 0x0 DUP4 ADD MSTORE PUSH2 0x72F DUP2 PUSH2 0x6F3 JUMP JUMPDEST SWAP1 POP PUSH2 0x73E PUSH1 0x20 DUP4 ADD DUP5 PUSH2 0x321 JUMP JUMPDEST SWAP3 SWAP2 POP POP JUMP JUMPDEST PUSH32 0x4C6F776C6576656C4572726F7200000000000000000000000000000000000000 PUSH1 0x0 DUP3 ADD MSTORE POP JUMP JUMPDEST PUSH1 0x0 PUSH2 0x77A PUSH1 0xD DUP4 PUSH2 0x5A9 JUMP JUMPDEST SWAP2 POP PUSH2 0x785 DUP3 PUSH2 0x744 JUMP JUMPDEST PUSH1 0x20 DUP3 ADD SWAP1 POP SWAP2 SWAP1 POP JUMP JUMPDEST PUSH1 0x0 DUP2 MLOAD SWAP1 POP SWAP2 SWAP1 POP JUMP JUMPDEST PUSH1 0x0 DUP3 DUP3 MSTORE PUSH1 0x20 DUP3 ADD SWAP1 POP SWAP3 SWAP2 POP POP JUMP JUMPDEST PUSH1 0x0 PUSH2 0x7B7 DUP3 PUSH2 0x790 JUMP JUMPDEST PUSH2 0x7C1 DUP2 DUP6 PUSH2 0x79B JUMP JUMPDEST SWAP4 POP PUSH2 0x7D1 DUP2 DUP6 PUSH1 0x20 DUP7 ADD PUSH2 0x611 JUMP JUMPDEST PUSH2 0x7DA DUP2 PUSH2 0x4A8 JUMP JUMPDEST DUP5 ADD SWAP2 POP POP SWAP3 SWAP2 POP POP JUMP JUMPDEST PUSH1 0x0 PUSH1 0x40 DUP3 ADD SWAP1 POP DUP2 DUP2 SUB PUSH1 0x0 DUP4 ADD MSTORE PUSH2 0x7FE DUP2 PUSH2 0x76D JUMP JUMPDEST SWAP1 POP DUP2 DUP2 SUB PUSH1 0x20 DUP4 ADD MSTORE PUSH2 0x812 DUP2 DUP5 PUSH2 0x7AC JUMP JUMPDEST SWAP1 POP SWAP3 SWAP2 POP POP JUMP INVALID LOG2 PUSH5 0x6970667358 0x22 SLT KECCAK256 MULMOD ADDMOD 0x5C 0xF SHL SWAP4 KECCAK256 LOG3 AND DUP16 0xC4 SSTORE 0xDE SLT INVALID DUP11 DUP3 0xED LOG0 0xDF 0xDC 0xD9 GASLIMIT 0xC8 DELEGATECALL SHL 0xC8 0xAF 0xBE 0xE0 0xA9 ADD PUSH5 0x736F6C6343 STOP ADDMOD SLT STOP CALLER PUSH1 0x80 PUSH1 0x40 MSTORE CALLVALUE DUP1 ISZERO PUSH2 0x10 JUMPI PUSH1 0x0 DUP1 REVERT JUMPDEST POP PUSH2 0x271 DUP1 PUSH2 0x20 PUSH1 0x0 CODECOPY PUSH1 0x0 RETURN INVALID PUSH1 0x80 PUSH1 0x40 MSTORE CALLVALUE DUP1 ISZERO PUSH2 0x10 JUMPI PUSH1 0x0 DUP1 REVERT JUMPDEST POP PUSH1 0x4 CALLDATASIZE LT PUSH2 0x2B JUMPI PUSH1 0x0 CALLDATALOAD PUSH1 0xE0 SHR DUP1 PUSH4 0xE0068052 EQ PUSH2 0x30 JUMPI JUMPDEST PUSH1 0x0 DUP1 REVERT JUMPDEST PUSH2 0x4A PUSH1 0x4 DUP1 CALLDATASIZE SUB DUP2 ADD SWAP1 PUSH2 0x45 SWAP2 SWAP1 PUSH2 0xF4 JUMP JUMPDEST PUSH2 0x60 JUMP JUMPDEST PUSH1 0x40 MLOAD PUSH2 0x57 SWAP2 SWAP1 PUSH2 0x143 JUMP JUMPDEST PUSH1 0x40 MLOAD DUP1 SWAP2 SUB SWAP1 RETURN JUMPDEST PUSH1 0x0 PUSH1 0xA DUP4 LT PUSH2 0xA5 JUMPI PUSH1 0x40 MLOAD PUSH32 0x8C379A000000000000000000000000000000000000000000000000000000000 DUP2 MSTORE PUSH1 0x4 ADD PUSH2 0x9C SWAP1 PUSH2 0x1BB JUMP JUMPDEST PUSH1 0x40 MLOAD DUP1 SWAP2 SUB SWAP1 REVERT JUMPDEST DUP2 DUP4 PUSH2 0xB1 SWAP2 SWAP1 PUSH2 0x20A JUMP JUMPDEST SWAP1 POP SWAP3 SWAP2 POP POP JUMP JUMPDEST PUSH1 0x0 DUP1 REVERT JUMPDEST PUSH1 0x0 DUP2 SWAP1 POP SWAP2 SWAP1 POP JUMP JUMPDEST PUSH2 0xD1 DUP2 PUSH2 0xBE JUMP JUMPDEST DUP2 EQ PUSH2 0xDC JUMPI PUSH1 0x0 DUP1 REVERT JUMPDEST POP JUMP JUMPDEST PUSH1 0x0 DUP2 CALLDATALOAD SWAP1 POP PUSH2 0xEE DUP2 PUSH2 0xC8 JUMP JUMPDEST SWAP3 SWAP2 POP POP JUMP JUMPDEST PUSH1 0x0 DUP1 PUSH1 0x40 DUP4 DUP6 SUB SLT ISZERO PUSH2 0x10B JUMPI PUSH2 0x10A PUSH2 0xB9 JUMP JUMPDEST JUMPDEST PUSH1 0x0 PUSH2 0x119 DUP6 DUP3 DUP7 ADD PUSH2 0xDF JUMP JUMPDEST SWAP3 POP POP PUSH1 0x20 PUSH2 0x12A DUP6 DUP3 DUP7 ADD PUSH2 0xDF JUMP JUMPDEST SWAP2 POP POP SWAP3 POP SWAP3 SWAP1 POP JUMP JUMPDEST PUSH2 0x13D DUP2 PUSH2 0xBE JUMP JUMPDEST DUP3 MSTORE POP POP JUMP JUMPDEST PUSH1 0x0 PUSH1 0x20 DUP3 ADD SWAP1 POP PUSH2 0x158 PUSH1 0x0 DUP4 ADD DUP5 PUSH2 0x134 JUMP JUMPDEST SWAP3 SWAP2 POP POP JUMP JUMPDEST PUSH1 0x0 DUP3 DUP3 MSTORE PUSH1 0x20 DUP3 ADD SWAP1 POP SWAP3 SWAP2 POP POP JUMP JUMPDEST PUSH32 0x6E756D312073686F7564206E6F74206265206D6F7265207468616E2031300000 PUSH1 0x0 DUP3 ADD MSTORE POP JUMP JUMPDEST PUSH1 0x0 PUSH2 0x1A5 PUSH1 0x1E DUP4 PUSH2 0x15E JUMP JUMPDEST SWAP2 POP PUSH2 0x1B0 DUP3 PUSH2 0x16F JUMP JUMPDEST PUSH1 0x20 DUP3 ADD SWAP1 POP SWAP2 SWAP1 POP JUMP JUMPDEST PUSH1 0x0 PUSH1 0x20 DUP3 ADD SWAP1 POP DUP2 DUP2 SUB PUSH1 0x0 DUP4 ADD MSTORE PUSH2 0x1D4 DUP2 PUSH2 0x198 JUMP JUMPDEST SWAP1 POP SWAP2 SWAP1 POP JUMP JUMPDEST PUSH32 0x4E487B7100000000000000000000000000000000000000000000000000000000 PUSH1 0x0 MSTORE PUSH1 0x12 PUSH1 0x4 MSTORE PUSH1 0x24 PUSH1 0x0 REVERT JUMPDEST PUSH1 0x0 PUSH2 0x215 DUP3 PUSH2 0xBE JUMP JUMPDEST SWAP2 POP PUSH2 0x220 DUP4 PUSH2 0xBE JUMP JUMPDEST SWAP3 POP DUP3 PUSH2 0x230 JUMPI PUSH2 0x22F PUSH2 0x1DB JUMP JUMPDEST JUMPDEST DUP3 DUP3 DIV SWAP1 POP SWAP3 SWAP2 POP POP JUMP INVALID LOG2 PUSH5 0x6970667358 0x22 SLT KECCAK256 ADDRESS 0xD7 0xB7 0x25 PUSH4 0xBDE85FFA SELFBALANCE 0xEC 0xCA 0xC7 MOD 0xF8 0xAC SWAP2 REVERT 0xBD 0xC6 0x4A SWAP7 SELFDESTRUCT 0xC3 0xD1 0x1E SLT RETURNDATASIZE 0xB6 REVERT PUSH30 0xDB64736F6C63430008120033000000000000000000000000000000000000 "
				},
				"gasEstimates": {
					"creation": {
						"codeDepositCost": "425600",
						"executionCost": "infinite",
						"totalCost": "infinite"
					},
					"external": {
						"mathInstance()": "infinite",
						"playTryCatch(uint256,uint256)": "infinite"
					}
				},
				"methodIdentifiers": {
					"mathInstance()": "90560610",
					"playTryCatch(uint256,uint256)": "0fc6b51c"
				}
			},
			"storageLayout": {
				"storage": [
					{
						"astId": 48,
						"contract": "lecture/26_tryCatch.sol:runner",
						"label": "mathInstance",
						"offset": 0,
						"slot": "0",
						"type": "t_contract(math)23"
					}
				],
				"types": {
					"t_contract(math)23": {
						"encoding": "inplace",
						"label": "contract math",
						"numberOfBytes": "20"
					}
				}
			},
			"userdoc": {
				"kind": "user",
				"methods": {},
				"version": 1
			}
		}
	}
}