{
	"lecture/28_함수리턴값변수명시.sol": {
		"lec29": {
			"abi": [
				{
					"inputs": [
						{
							"internalType": "uint256",
							"name": "_num1",
							"type": "uint256"
						},
						{
							"internalType": "uint256",
							"name": "_num2",
							"type": "uint256"
						}
					],
					"name": "add",
					"outputs": [
						{
							"internalType": "uint256",
							"name": "",
							"type": "uint256"
						}
					],
					"stateMutability": "pure",
					"type": "function"
				},
				{
					"inputs": [
						{
							"internalType": "uint256",
							"name": "_num1",
							"type": "uint256"
						},
						{
							"internalType": "uint256",
							"name": "_num2",
							"type": "uint256"
						}
					],
					"name": "add2",
					"outputs": [
						{
							"internalType": "uint256",
							"name": "total",
							"type": "uint256"
						}
					],
					"stateMutability": "pure",
					"type": "function"
				}
			],
			"devdoc": {
				"kind": "dev",
				"methods": {},
				"version": 1
			},
			"evm": {
				"assembly": "    /* \"lecture/28_\\xed\\x95\\xa8\\xec\\x88\\x98\\xeb\\xa6\\xac\\xed\\x84\\xb4\\xea\\xb0\\x92\\xeb\\xb3\\x80\\xec\\x88\\x98\\xeb\\xaa\\x85\\xec\\x8b\\x9c.sol\":70:671  contract lec29{... */\n  mstore(0x40, 0x80)\n  callvalue\n  dup1\n  iszero\n  tag_1\n  jumpi\n  0x00\n  dup1\n  revert\ntag_1:\n  pop\n  dataSize(sub_0)\n  dup1\n  dataOffset(sub_0)\n  0x00\n  codecopy\n  0x00\n  return\nstop\n\nsub_0: assembly {\n        /* \"lecture/28_\\xed\\x95\\xa8\\xec\\x88\\x98\\xeb\\xa6\\xac\\xed\\x84\\xb4\\xea\\xb0\\x92\\xeb\\xb3\\x80\\xec\\x88\\x98\\xeb\\xaa\\x85\\xec\\x8b\\x9c.sol\":70:671  contract lec29{... */\n      mstore(0x40, 0x80)\n      callvalue\n      dup1\n      iszero\n      tag_1\n      jumpi\n      0x00\n      dup1\n      revert\n    tag_1:\n      pop\n      jumpi(tag_2, lt(calldatasize, 0x04))\n      shr(0xe0, calldataload(0x00))\n      dup1\n      0x29fcda33\n      eq\n      tag_3\n      jumpi\n      dup1\n      0x771602f7\n      eq\n      tag_4\n      jumpi\n    tag_2:\n      0x00\n      dup1\n      revert\n        /* \"lecture/28_\\xed\\x95\\xa8\\xec\\x88\\x98\\xeb\\xa6\\xac\\xed\\x84\\xb4\\xea\\xb0\\x92\\xeb\\xb3\\x80\\xec\\x88\\x98\\xeb\\xaa\\x85\\xec\\x8b\\x9c.sol\":523:664  function add2(uint256 _num1, uint256 _num2) public pure returns (uint256 total){... */\n    tag_3:\n      tag_5\n      0x04\n      dup1\n      calldatasize\n      sub\n      dup2\n      add\n      swap1\n      tag_6\n      swap2\n      swap1\n      tag_7\n      jump\t// in\n    tag_6:\n      tag_8\n      jump\t// in\n    tag_5:\n      mload(0x40)\n      tag_9\n      swap2\n      swap1\n      tag_10\n      jump\t// in\n    tag_9:\n      mload(0x40)\n      dup1\n      swap2\n      sub\n      swap1\n      return\n        /* \"lecture/28_\\xed\\x95\\xa8\\xec\\x88\\x98\\xeb\\xa6\\xac\\xed\\x84\\xb4\\xea\\xb0\\x92\\xeb\\xb3\\x80\\xec\\x88\\x98\\xeb\\xaa\\x85\\xec\\x8b\\x9c.sol\":234:374  function add(uint256 _num1, uint256 _num2) public pure returns (uint256){... */\n    tag_4:\n      tag_11\n      0x04\n      dup1\n      calldatasize\n      sub\n      dup2\n      add\n      swap1\n      tag_12\n      swap2\n      swap1\n      tag_7\n      jump\t// in\n    tag_12:\n      tag_13\n      jump\t// in\n    tag_11:\n      mload(0x40)\n      tag_14\n      swap2\n      swap1\n      tag_10\n      jump\t// in\n    tag_14:\n      mload(0x40)\n      dup1\n      swap2\n      sub\n      swap1\n      return\n        /* \"lecture/28_\\xed\\x95\\xa8\\xec\\x88\\x98\\xeb\\xa6\\xac\\xed\\x84\\xb4\\xea\\xb0\\x92\\xeb\\xb3\\x80\\xec\\x88\\x98\\xeb\\xaa\\x85\\xec\\x8b\\x9c.sol\":523:664  function add2(uint256 _num1, uint256 _num2) public pure returns (uint256 total){... */\n    tag_8:\n        /* \"lecture/28_\\xed\\x95\\xa8\\xec\\x88\\x98\\xeb\\xa6\\xac\\xed\\x84\\xb4\\xea\\xb0\\x92\\xeb\\xb3\\x80\\xec\\x88\\x98\\xeb\\xaa\\x85\\xec\\x8b\\x9c.sol\":588:601  uint256 total */\n      0x00\n        /* \"lecture/28_\\xed\\x95\\xa8\\xec\\x88\\x98\\xeb\\xa6\\xac\\xed\\x84\\xb4\\xea\\xb0\\x92\\xeb\\xb3\\x80\\xec\\x88\\x98\\xeb\\xaa\\x85\\xec\\x8b\\x9c.sol\":629:634  _num2 */\n      dup2\n        /* \"lecture/28_\\xed\\x95\\xa8\\xec\\x88\\x98\\xeb\\xa6\\xac\\xed\\x84\\xb4\\xea\\xb0\\x92\\xeb\\xb3\\x80\\xec\\x88\\x98\\xeb\\xaa\\x85\\xec\\x8b\\x9c.sol\":621:626  _num1 */\n      dup4\n        /* \"lecture/28_\\xed\\x95\\xa8\\xec\\x88\\x98\\xeb\\xa6\\xac\\xed\\x84\\xb4\\xea\\xb0\\x92\\xeb\\xb3\\x80\\xec\\x88\\x98\\xeb\\xaa\\x85\\xec\\x8b\\x9c.sol\":621:634  _num1 + _num2 */\n      tag_16\n      swap2\n      swap1\n      tag_17\n      jump\t// in\n    tag_16:\n        /* \"lecture/28_\\xed\\x95\\xa8\\xec\\x88\\x98\\xeb\\xa6\\xac\\xed\\x84\\xb4\\xea\\xb0\\x92\\xeb\\xb3\\x80\\xec\\x88\\x98\\xeb\\xaa\\x85\\xec\\x8b\\x9c.sol\":613:634  total = _num1 + _num2 */\n      swap1\n      pop\n        /* \"lecture/28_\\xed\\x95\\xa8\\xec\\x88\\x98\\xeb\\xa6\\xac\\xed\\x84\\xb4\\xea\\xb0\\x92\\xeb\\xb3\\x80\\xec\\x88\\x98\\xeb\\xaa\\x85\\xec\\x8b\\x9c.sol\":523:664  function add2(uint256 _num1, uint256 _num2) public pure returns (uint256 total){... */\n      swap3\n      swap2\n      pop\n      pop\n      jump\t// out\n        /* \"lecture/28_\\xed\\x95\\xa8\\xec\\x88\\x98\\xeb\\xa6\\xac\\xed\\x84\\xb4\\xea\\xb0\\x92\\xeb\\xb3\\x80\\xec\\x88\\x98\\xeb\\xaa\\x85\\xec\\x8b\\x9c.sol\":234:374  function add(uint256 _num1, uint256 _num2) public pure returns (uint256){... */\n    tag_13:\n        /* \"lecture/28_\\xed\\x95\\xa8\\xec\\x88\\x98\\xeb\\xa6\\xac\\xed\\x84\\xb4\\xea\\xb0\\x92\\xeb\\xb3\\x80\\xec\\x88\\x98\\xeb\\xaa\\x85\\xec\\x8b\\x9c.sol\":298:305  uint256 */\n      0x00\n        /* \"lecture/28_\\xed\\x95\\xa8\\xec\\x88\\x98\\xeb\\xa6\\xac\\xed\\x84\\xb4\\xea\\xb0\\x92\\xeb\\xb3\\x80\\xec\\x88\\x98\\xeb\\xaa\\x85\\xec\\x8b\\x9c.sol\":316:329  uint256 total */\n      dup1\n        /* \"lecture/28_\\xed\\x95\\xa8\\xec\\x88\\x98\\xeb\\xa6\\xac\\xed\\x84\\xb4\\xea\\xb0\\x92\\xeb\\xb3\\x80\\xec\\x88\\x98\\xeb\\xaa\\x85\\xec\\x8b\\x9c.sol\":340:345  _num2 */\n      dup3\n        /* \"lecture/28_\\xed\\x95\\xa8\\xec\\x88\\x98\\xeb\\xa6\\xac\\xed\\x84\\xb4\\xea\\xb0\\x92\\xeb\\xb3\\x80\\xec\\x88\\x98\\xeb\\xaa\\x85\\xec\\x8b\\x9c.sol\":332:337  _num1 */\n      dup5\n        /* \"lecture/28_\\xed\\x95\\xa8\\xec\\x88\\x98\\xeb\\xa6\\xac\\xed\\x84\\xb4\\xea\\xb0\\x92\\xeb\\xb3\\x80\\xec\\x88\\x98\\xeb\\xaa\\x85\\xec\\x8b\\x9c.sol\":332:345  _num1 + _num2 */\n      tag_19\n      swap2\n      swap1\n      tag_17\n      jump\t// in\n    tag_19:\n        /* \"lecture/28_\\xed\\x95\\xa8\\xec\\x88\\x98\\xeb\\xa6\\xac\\xed\\x84\\xb4\\xea\\xb0\\x92\\xeb\\xb3\\x80\\xec\\x88\\x98\\xeb\\xaa\\x85\\xec\\x8b\\x9c.sol\":316:345  uint256 total = _num1 + _num2 */\n      swap1\n      pop\n        /* \"lecture/28_\\xed\\x95\\xa8\\xec\\x88\\x98\\xeb\\xa6\\xac\\xed\\x84\\xb4\\xea\\xb0\\x92\\xeb\\xb3\\x80\\xec\\x88\\x98\\xeb\\xaa\\x85\\xec\\x8b\\x9c.sol\":362:367  total */\n      dup1\n        /* \"lecture/28_\\xed\\x95\\xa8\\xec\\x88\\x98\\xeb\\xa6\\xac\\xed\\x84\\xb4\\xea\\xb0\\x92\\xeb\\xb3\\x80\\xec\\x88\\x98\\xeb\\xaa\\x85\\xec\\x8b\\x9c.sol\":355:367  return total */\n      swap2\n      pop\n      pop\n        /* \"lecture/28_\\xed\\x95\\xa8\\xec\\x88\\x98\\xeb\\xa6\\xac\\xed\\x84\\xb4\\xea\\xb0\\x92\\xeb\\xb3\\x80\\xec\\x88\\x98\\xeb\\xaa\\x85\\xec\\x8b\\x9c.sol\":234:374  function add(uint256 _num1, uint256 _num2) public pure returns (uint256){... */\n      swap3\n      swap2\n      pop\n      pop\n      jump\t// out\n        /* \"#utility.yul\":88:205   */\n    tag_21:\n        /* \"#utility.yul\":197:198   */\n      0x00\n        /* \"#utility.yul\":194:195   */\n      dup1\n        /* \"#utility.yul\":187:199   */\n      revert\n        /* \"#utility.yul\":334:411   */\n    tag_23:\n        /* \"#utility.yul\":371:378   */\n      0x00\n        /* \"#utility.yul\":400:405   */\n      dup2\n        /* \"#utility.yul\":389:405   */\n      swap1\n      pop\n        /* \"#utility.yul\":334:411   */\n      swap2\n      swap1\n      pop\n      jump\t// out\n        /* \"#utility.yul\":417:539   */\n    tag_24:\n        /* \"#utility.yul\":490:514   */\n      tag_34\n        /* \"#utility.yul\":508:513   */\n      dup2\n        /* \"#utility.yul\":490:514   */\n      tag_23\n      jump\t// in\n    tag_34:\n        /* \"#utility.yul\":483:488   */\n      dup2\n        /* \"#utility.yul\":480:515   */\n      eq\n        /* \"#utility.yul\":470:533   */\n      tag_35\n      jumpi\n        /* \"#utility.yul\":529:530   */\n      0x00\n        /* \"#utility.yul\":526:527   */\n      dup1\n        /* \"#utility.yul\":519:531   */\n      revert\n        /* \"#utility.yul\":470:533   */\n    tag_35:\n        /* \"#utility.yul\":417:539   */\n      pop\n      jump\t// out\n        /* \"#utility.yul\":545:684   */\n    tag_25:\n        /* \"#utility.yul\":591:596   */\n      0x00\n        /* \"#utility.yul\":629:635   */\n      dup2\n        /* \"#utility.yul\":616:636   */\n      calldataload\n        /* \"#utility.yul\":607:636   */\n      swap1\n      pop\n        /* \"#utility.yul\":645:678   */\n      tag_37\n        /* \"#utility.yul\":672:677   */\n      dup2\n        /* \"#utility.yul\":645:678   */\n      tag_24\n      jump\t// in\n    tag_37:\n        /* \"#utility.yul\":545:684   */\n      swap3\n      swap2\n      pop\n      pop\n      jump\t// out\n        /* \"#utility.yul\":690:1164   */\n    tag_7:\n        /* \"#utility.yul\":758:764   */\n      0x00\n        /* \"#utility.yul\":766:772   */\n      dup1\n        /* \"#utility.yul\":815:817   */\n      0x40\n        /* \"#utility.yul\":803:812   */\n      dup4\n        /* \"#utility.yul\":794:801   */\n      dup6\n        /* \"#utility.yul\":790:813   */\n      sub\n        /* \"#utility.yul\":786:818   */\n      slt\n        /* \"#utility.yul\":783:902   */\n      iszero\n      tag_39\n      jumpi\n        /* \"#utility.yul\":821:900   */\n      tag_40\n      tag_21\n      jump\t// in\n    tag_40:\n        /* \"#utility.yul\":783:902   */\n    tag_39:\n        /* \"#utility.yul\":941:942   */\n      0x00\n        /* \"#utility.yul\":966:1019   */\n      tag_41\n        /* \"#utility.yul\":1011:1018   */\n      dup6\n        /* \"#utility.yul\":1002:1008   */\n      dup3\n        /* \"#utility.yul\":991:1000   */\n      dup7\n        /* \"#utility.yul\":987:1009   */\n      add\n        /* \"#utility.yul\":966:1019   */\n      tag_25\n      jump\t// in\n    tag_41:\n        /* \"#utility.yul\":956:1019   */\n      swap3\n      pop\n        /* \"#utility.yul\":912:1029   */\n      pop\n        /* \"#utility.yul\":1068:1070   */\n      0x20\n        /* \"#utility.yul\":1094:1147   */\n      tag_42\n        /* \"#utility.yul\":1139:1146   */\n      dup6\n        /* \"#utility.yul\":1130:1136   */\n      dup3\n        /* \"#utility.yul\":1119:1128   */\n      dup7\n        /* \"#utility.yul\":1115:1137   */\n      add\n        /* \"#utility.yul\":1094:1147   */\n      tag_25\n      jump\t// in\n    tag_42:\n        /* \"#utility.yul\":1084:1147   */\n      swap2\n      pop\n        /* \"#utility.yul\":1039:1157   */\n      pop\n        /* \"#utility.yul\":690:1164   */\n      swap3\n      pop\n      swap3\n      swap1\n      pop\n      jump\t// out\n        /* \"#utility.yul\":1170:1288   */\n    tag_26:\n        /* \"#utility.yul\":1257:1281   */\n      tag_44\n        /* \"#utility.yul\":1275:1280   */\n      dup2\n        /* \"#utility.yul\":1257:1281   */\n      tag_23\n      jump\t// in\n    tag_44:\n        /* \"#utility.yul\":1252:1255   */\n      dup3\n        /* \"#utility.yul\":1245:1282   */\n      mstore\n        /* \"#utility.yul\":1170:1288   */\n      pop\n      pop\n      jump\t// out\n        /* \"#utility.yul\":1294:1516   */\n    tag_10:\n        /* \"#utility.yul\":1387:1391   */\n      0x00\n        /* \"#utility.yul\":1425:1427   */\n      0x20\n        /* \"#utility.yul\":1414:1423   */\n      dup3\n        /* \"#utility.yul\":1410:1428   */\n      add\n        /* \"#utility.yul\":1402:1428   */\n      swap1\n      pop\n        /* \"#utility.yul\":1438:1509   */\n      tag_46\n        /* \"#utility.yul\":1506:1507   */\n      0x00\n        /* \"#utility.yul\":1495:1504   */\n      dup4\n        /* \"#utility.yul\":1491:1508   */\n      add\n        /* \"#utility.yul\":1482:1488   */\n      dup5\n        /* \"#utility.yul\":1438:1509   */\n      tag_26\n      jump\t// in\n    tag_46:\n        /* \"#utility.yul\":1294:1516   */\n      swap3\n      swap2\n      pop\n      pop\n      jump\t// out\n        /* \"#utility.yul\":1522:1702   */\n    tag_27:\n        /* \"#utility.yul\":1570:1647   */\n      0x4e487b7100000000000000000000000000000000000000000000000000000000\n        /* \"#utility.yul\":1567:1568   */\n      0x00\n        /* \"#utility.yul\":1560:1648   */\n      mstore\n        /* \"#utility.yul\":1667:1671   */\n      0x11\n        /* \"#utility.yul\":1664:1665   */\n      0x04\n        /* \"#utility.yul\":1657:1672   */\n      mstore\n        /* \"#utility.yul\":1691:1695   */\n      0x24\n        /* \"#utility.yul\":1688:1689   */\n      0x00\n        /* \"#utility.yul\":1681:1696   */\n      revert\n        /* \"#utility.yul\":1708:1899   */\n    tag_17:\n        /* \"#utility.yul\":1748:1751   */\n      0x00\n        /* \"#utility.yul\":1767:1787   */\n      tag_49\n        /* \"#utility.yul\":1785:1786   */\n      dup3\n        /* \"#utility.yul\":1767:1787   */\n      tag_23\n      jump\t// in\n    tag_49:\n        /* \"#utility.yul\":1762:1787   */\n      swap2\n      pop\n        /* \"#utility.yul\":1801:1821   */\n      tag_50\n        /* \"#utility.yul\":1819:1820   */\n      dup4\n        /* \"#utility.yul\":1801:1821   */\n      tag_23\n      jump\t// in\n    tag_50:\n        /* \"#utility.yul\":1796:1821   */\n      swap3\n      pop\n        /* \"#utility.yul\":1844:1845   */\n      dup3\n        /* \"#utility.yul\":1841:1842   */\n      dup3\n        /* \"#utility.yul\":1837:1846   */\n      add\n        /* \"#utility.yul\":1830:1846   */\n      swap1\n      pop\n        /* \"#utility.yul\":1865:1868   */\n      dup1\n        /* \"#utility.yul\":1862:1863   */\n      dup3\n        /* \"#utility.yul\":1859:1869   */\n      gt\n        /* \"#utility.yul\":1856:1892   */\n      iszero\n      tag_51\n      jumpi\n        /* \"#utility.yul\":1872:1890   */\n      tag_52\n      tag_27\n      jump\t// in\n    tag_52:\n        /* \"#utility.yul\":1856:1892   */\n    tag_51:\n        /* \"#utility.yul\":1708:1899   */\n      swap3\n      swap2\n      pop\n      pop\n      jump\t// out\n\n    auxdata: 0xa2646970667358221220679450ebabef9ca99e864f4b5a0b51d1bb602bbf19f40119d0ab742aedf0a38b64736f6c63430008120033\n}\n",
				"bytecode": {
					"linkReferences": {},
					"object": "608060405234801561001057600080fd5b5061020a806100206000396000f3fe608060405234801561001057600080fd5b50600436106100365760003560e01c806329fcda331461003b578063771602f71461006b575b600080fd5b61005560048036038101906100509190610107565b61009b565b6040516100629190610156565b60405180910390f35b61008560048036038101906100809190610107565b6100b1565b6040516100929190610156565b60405180910390f35b600081836100a991906101a0565b905092915050565b60008082846100c091906101a0565b90508091505092915050565b600080fd5b6000819050919050565b6100e4816100d1565b81146100ef57600080fd5b50565b600081359050610101816100db565b92915050565b6000806040838503121561011e5761011d6100cc565b5b600061012c858286016100f2565b925050602061013d858286016100f2565b9150509250929050565b610150816100d1565b82525050565b600060208201905061016b6000830184610147565b92915050565b7f4e487b7100000000000000000000000000000000000000000000000000000000600052601160045260246000fd5b60006101ab826100d1565b91506101b6836100d1565b92508282019050808211156101ce576101cd610171565b5b9291505056fea2646970667358221220679450ebabef9ca99e864f4b5a0b51d1bb602bbf19f40119d0ab742aedf0a38b64736f6c63430008120033",
					"opcodes": "PUSH1 0x80 PUSH1 0x40 MSTORE CALLVALUE DUP1 ISZERO PUSH2 0x10 JUMPI PUSH1 0x0 DUP1 REVERT JUMPDEST POP PUSH2 0x20A DUP1 PUSH2 0x20 PUSH1 0x0 CODECOPY PUSH1 0x0 RETURN INVALID PUSH1 0x80 PUSH1 0x40 MSTORE CALLVALUE DUP1 ISZERO PUSH2 0x10 JUMPI PUSH1 0x0 DUP1 REVERT JUMPDEST POP PUSH1 0x4 CALLDATASIZE LT PUSH2 0x36 JUMPI PUSH1 0x0 CALLDATALOAD PUSH1 0xE0 SHR DUP1 PUSH4 0x29FCDA33 EQ PUSH2 0x3B JUMPI DUP1 PUSH4 0x771602F7 EQ PUSH2 0x6B JUMPI JUMPDEST PUSH1 0x0 DUP1 REVERT JUMPDEST PUSH2 0x55 PUSH1 0x4 DUP1 CALLDATASIZE SUB DUP2 ADD SWAP1 PUSH2 0x50 SWAP2 SWAP1 PUSH2 0x107 JUMP JUMPDEST PUSH2 0x9B JUMP JUMPDEST PUSH1 0x40 MLOAD PUSH2 0x62 SWAP2 SWAP1 PUSH2 0x156 JUMP JUMPDEST PUSH1 0x40 MLOAD DUP1 SWAP2 SUB SWAP1 RETURN JUMPDEST PUSH2 0x85 PUSH1 0x4 DUP1 CALLDATASIZE SUB DUP2 ADD SWAP1 PUSH2 0x80 SWAP2 SWAP1 PUSH2 0x107 JUMP JUMPDEST PUSH2 0xB1 JUMP JUMPDEST PUSH1 0x40 MLOAD PUSH2 0x92 SWAP2 SWAP1 PUSH2 0x156 JUMP JUMPDEST PUSH1 0x40 MLOAD DUP1 SWAP2 SUB SWAP1 RETURN JUMPDEST PUSH1 0x0 DUP2 DUP4 PUSH2 0xA9 SWAP2 SWAP1 PUSH2 0x1A0 JUMP JUMPDEST SWAP1 POP SWAP3 SWAP2 POP POP JUMP JUMPDEST PUSH1 0x0 DUP1 DUP3 DUP5 PUSH2 0xC0 SWAP2 SWAP1 PUSH2 0x1A0 JUMP JUMPDEST SWAP1 POP DUP1 SWAP2 POP POP SWAP3 SWAP2 POP POP JUMP JUMPDEST PUSH1 0x0 DUP1 REVERT JUMPDEST PUSH1 0x0 DUP2 SWAP1 POP SWAP2 SWAP1 POP JUMP JUMPDEST PUSH2 0xE4 DUP2 PUSH2 0xD1 JUMP JUMPDEST DUP2 EQ PUSH2 0xEF JUMPI PUSH1 0x0 DUP1 REVERT JUMPDEST POP JUMP JUMPDEST PUSH1 0x0 DUP2 CALLDATALOAD SWAP1 POP PUSH2 0x101 DUP2 PUSH2 0xDB JUMP JUMPDEST SWAP3 SWAP2 POP POP JUMP JUMPDEST PUSH1 0x0 DUP1 PUSH1 0x40 DUP4 DUP6 SUB SLT ISZERO PUSH2 0x11E JUMPI PUSH2 0x11D PUSH2 0xCC JUMP JUMPDEST JUMPDEST PUSH1 0x0 PUSH2 0x12C DUP6 DUP3 DUP7 ADD PUSH2 0xF2 JUMP JUMPDEST SWAP3 POP POP PUSH1 0x20 PUSH2 0x13D DUP6 DUP3 DUP7 ADD PUSH2 0xF2 JUMP JUMPDEST SWAP2 POP POP SWAP3 POP SWAP3 SWAP1 POP JUMP JUMPDEST PUSH2 0x150 DUP2 PUSH2 0xD1 JUMP JUMPDEST DUP3 MSTORE POP POP JUMP JUMPDEST PUSH1 0x0 PUSH1 0x20 DUP3 ADD SWAP1 POP PUSH2 0x16B PUSH1 0x0 DUP4 ADD DUP5 PUSH2 0x147 JUMP JUMPDEST SWAP3 SWAP2 POP POP JUMP JUMPDEST PUSH32 0x4E487B7100000000000000000000000000000000000000000000000000000000 PUSH1 0x0 MSTORE PUSH1 0x11 PUSH1 0x4 MSTORE PUSH1 0x24 PUSH1 0x0 REVERT JUMPDEST PUSH1 0x0 PUSH2 0x1AB DUP3 PUSH2 0xD1 JUMP JUMPDEST SWAP2 POP PUSH2 0x1B6 DUP4 PUSH2 0xD1 JUMP JUMPDEST SWAP3 POP DUP3 DUP3 ADD SWAP1 POP DUP1 DUP3 GT ISZERO PUSH2 0x1CE JUMPI PUSH2 0x1CD PUSH2 0x171 JUMP JUMPDEST JUMPDEST SWAP3 SWAP2 POP POP JUMP INVALID LOG2 PUSH5 0x6970667358 0x22 SLT KECCAK256 PUSH8 0x9450EBABEF9CA99E DUP7 0x4F 0x4B GAS SIGNEXTEND MLOAD 0xD1 0xBB PUSH1 0x2B 0xBF NOT DELEGATECALL ADD NOT 0xD0 0xAB PUSH21 0x2AEDF0A38B64736F6C634300081200330000000000 "
				},
				"gasEstimates": {
					"creation": {
						"codeDepositCost": "104400",
						"executionCost": "153",
						"totalCost": "104553"
					},
					"external": {
						"add(uint256,uint256)": "infinite",
						"add2(uint256,uint256)": "infinite"
					}
				},
				"methodIdentifiers": {
					"add(uint256,uint256)": "771602f7",
					"add2(uint256,uint256)": "29fcda33"
				}
			},
			"storageLayout": {
				"storage": [],
				"types": null
			},
			"userdoc": {
				"kind": "user",
				"methods": {},
				"version": 1
			}
		}
	}
}