{
	"lecture/35.fallback_ver06~과call.sol": {
		"add": {
			"abi": [
				{
					"anonymous": false,
					"inputs": [
						{
							"indexed": false,
							"internalType": "string",
							"name": "_str",
							"type": "string"
						}
					],
					"name": "JustFallback",
					"type": "event"
				},
				{
					"anonymous": false,
					"inputs": [
						{
							"indexed": false,
							"internalType": "string",
							"name": "_str",
							"type": "string"
						}
					],
					"name": "JustReceive",
					"type": "event"
				},
				{
					"stateMutability": "payable",
					"type": "fallback"
				},
				{
					"inputs": [
						{
							"internalType": "uint256",
							"name": "_num1",
							"type": "uint256"
						},
						{
							"internalType": "uint256",
							"name": "_num2",
							"type": "uint256"
						}
					],
					"name": "addNumber",
					"outputs": [
						{
							"internalType": "uint256",
							"name": "",
							"type": "uint256"
						}
					],
					"stateMutability": "pure",
					"type": "function"
				},
				{
					"stateMutability": "payable",
					"type": "receive"
				}
			],
			"devdoc": {
				"kind": "dev",
				"methods": {},
				"version": 1
			},
			"evm": {
				"assembly": "    /* \"lecture/35.fallback_ver06~\\xea\\xb3\\xbccall.sol\":1523:2167  contract add{... */\n  mstore(0x40, 0x80)\n  callvalue\n  dup1\n  iszero\n  tag_1\n  jumpi\n  0x00\n  dup1\n  revert\ntag_1:\n  pop\n  dataSize(sub_0)\n  dup1\n  dataOffset(sub_0)\n  0x00\n  codecopy\n  0x00\n  return\nstop\n\nsub_0: assembly {\n        /* \"lecture/35.fallback_ver06~\\xea\\xb3\\xbccall.sol\":1523:2167  contract add{... */\n      mstore(0x40, 0x80)\n      jumpi(tag_1, lt(calldatasize, 0x04))\n      shr(0xe0, calldataload(0x00))\n      dup1\n      0x0f3d0204\n      eq\n      tag_3\n      jumpi\n      jump(tag_2)\n    tag_1:\n      jumpi(tag_2, calldatasize)\n        /* \"lecture/35.fallback_ver06~\\xea\\xb3\\xbccall.sol\":2122:2158  JustReceive(\"JustReceive is called\") */\n      0xea76936da7e733de51185273d52362d5abc78a41b970e52e5a32d35a187566c2\n      mload(0x40)\n      tag_6\n      swap1\n      tag_7\n      jump\t// in\n    tag_6:\n      mload(0x40)\n      dup1\n      swap2\n      sub\n      swap1\n      log1\n        /* \"lecture/35.fallback_ver06~\\xea\\xb3\\xbccall.sol\":1523:2167  contract add{... */\n      stop\n    tag_2:\n        /* \"lecture/35.fallback_ver06~\\xea\\xb3\\xbccall.sol\":1970:2008  JustFallback(\"JustFallback is called\") */\n      0xa34784e3343c15d43f7dcaa7f7575208ff57743c4f087aade7e1f63d9f87b35c\n      mload(0x40)\n      tag_10\n      swap1\n      tag_11\n      jump\t// in\n    tag_10:\n      mload(0x40)\n      dup1\n      swap2\n      sub\n      swap1\n      log1\n        /* \"lecture/35.fallback_ver06~\\xea\\xb3\\xbccall.sol\":1523:2167  contract add{... */\n      stop\n        /* \"lecture/35.fallback_ver06~\\xea\\xb3\\xbccall.sol\":1686:1800  function addNumber(uint256 _num1, uint256 _num2) public pure returns(uint256){... */\n    tag_3:\n      callvalue\n      dup1\n      iszero\n      tag_12\n      jumpi\n      0x00\n      dup1\n      revert\n    tag_12:\n      pop\n      tag_13\n      0x04\n      dup1\n      calldatasize\n      sub\n      dup2\n      add\n      swap1\n      tag_14\n      swap2\n      swap1\n      tag_15\n      jump\t// in\n    tag_14:\n      tag_16\n      jump\t// in\n    tag_13:\n      mload(0x40)\n      tag_17\n      swap2\n      swap1\n      tag_18\n      jump\t// in\n    tag_17:\n      mload(0x40)\n      dup1\n      swap2\n      sub\n      swap1\n      return\n    tag_16:\n        /* \"lecture/35.fallback_ver06~\\xea\\xb3\\xbccall.sol\":1755:1762  uint256 */\n      0x00\n        /* \"lecture/35.fallback_ver06~\\xea\\xb3\\xbccall.sol\":1788:1793  _num2 */\n      dup2\n        /* \"lecture/35.fallback_ver06~\\xea\\xb3\\xbccall.sol\":1780:1785  _num1 */\n      dup4\n        /* \"lecture/35.fallback_ver06~\\xea\\xb3\\xbccall.sol\":1780:1793  _num1 + _num2 */\n      tag_20\n      swap2\n      swap1\n      tag_21\n      jump\t// in\n    tag_20:\n        /* \"lecture/35.fallback_ver06~\\xea\\xb3\\xbccall.sol\":1773:1793  return _num1 + _num2 */\n      swap1\n      pop\n        /* \"lecture/35.fallback_ver06~\\xea\\xb3\\xbccall.sol\":1686:1800  function addNumber(uint256 _num1, uint256 _num2) public pure returns(uint256){... */\n      swap3\n      swap2\n      pop\n      pop\n      jump\t// out\n        /* \"#utility.yul\":7:176   */\n    tag_22:\n        /* \"#utility.yul\":91:102   */\n      0x00\n        /* \"#utility.yul\":125:131   */\n      dup3\n        /* \"#utility.yul\":120:123   */\n      dup3\n        /* \"#utility.yul\":113:132   */\n      mstore\n        /* \"#utility.yul\":165:169   */\n      0x20\n        /* \"#utility.yul\":160:163   */\n      dup3\n        /* \"#utility.yul\":156:170   */\n      add\n        /* \"#utility.yul\":141:170   */\n      swap1\n      pop\n        /* \"#utility.yul\":7:176   */\n      swap3\n      swap2\n      pop\n      pop\n      jump\t// out\n        /* \"#utility.yul\":182:353   */\n    tag_23:\n        /* \"#utility.yul\":322:345   */\n      0x4a757374526563656976652069732063616c6c65640000000000000000000000\n        /* \"#utility.yul\":318:319   */\n      0x00\n        /* \"#utility.yul\":310:316   */\n      dup3\n        /* \"#utility.yul\":306:320   */\n      add\n        /* \"#utility.yul\":299:346   */\n      mstore\n        /* \"#utility.yul\":182:353   */\n      pop\n      jump\t// out\n        /* \"#utility.yul\":359:725   */\n    tag_24:\n        /* \"#utility.yul\":501:504   */\n      0x00\n        /* \"#utility.yul\":522:589   */\n      tag_39\n        /* \"#utility.yul\":586:588   */\n      0x15\n        /* \"#utility.yul\":581:584   */\n      dup4\n        /* \"#utility.yul\":522:589   */\n      tag_22\n      jump\t// in\n    tag_39:\n        /* \"#utility.yul\":515:589   */\n      swap2\n      pop\n        /* \"#utility.yul\":598:691   */\n      tag_40\n        /* \"#utility.yul\":687:690   */\n      dup3\n        /* \"#utility.yul\":598:691   */\n      tag_23\n      jump\t// in\n    tag_40:\n        /* \"#utility.yul\":716:718   */\n      0x20\n        /* \"#utility.yul\":711:714   */\n      dup3\n        /* \"#utility.yul\":707:719   */\n      add\n        /* \"#utility.yul\":700:719   */\n      swap1\n      pop\n        /* \"#utility.yul\":359:725   */\n      swap2\n      swap1\n      pop\n      jump\t// out\n        /* \"#utility.yul\":731:1150   */\n    tag_7:\n        /* \"#utility.yul\":897:901   */\n      0x00\n        /* \"#utility.yul\":935:937   */\n      0x20\n        /* \"#utility.yul\":924:933   */\n      dup3\n        /* \"#utility.yul\":920:938   */\n      add\n        /* \"#utility.yul\":912:938   */\n      swap1\n      pop\n        /* \"#utility.yul\":984:993   */\n      dup2\n        /* \"#utility.yul\":978:982   */\n      dup2\n        /* \"#utility.yul\":974:994   */\n      sub\n        /* \"#utility.yul\":970:971   */\n      0x00\n        /* \"#utility.yul\":959:968   */\n      dup4\n        /* \"#utility.yul\":955:972   */\n      add\n        /* \"#utility.yul\":948:995   */\n      mstore\n        /* \"#utility.yul\":1012:1143   */\n      tag_42\n        /* \"#utility.yul\":1138:1142   */\n      dup2\n        /* \"#utility.yul\":1012:1143   */\n      tag_24\n      jump\t// in\n    tag_42:\n        /* \"#utility.yul\":1004:1143   */\n      swap1\n      pop\n        /* \"#utility.yul\":731:1150   */\n      swap2\n      swap1\n      pop\n      jump\t// out\n        /* \"#utility.yul\":1156:1328   */\n    tag_25:\n        /* \"#utility.yul\":1296:1320   */\n      0x4a75737446616c6c6261636b2069732063616c6c656400000000000000000000\n        /* \"#utility.yul\":1292:1293   */\n      0x00\n        /* \"#utility.yul\":1284:1290   */\n      dup3\n        /* \"#utility.yul\":1280:1294   */\n      add\n        /* \"#utility.yul\":1273:1321   */\n      mstore\n        /* \"#utility.yul\":1156:1328   */\n      pop\n      jump\t// out\n        /* \"#utility.yul\":1334:1700   */\n    tag_26:\n        /* \"#utility.yul\":1476:1479   */\n      0x00\n        /* \"#utility.yul\":1497:1564   */\n      tag_45\n        /* \"#utility.yul\":1561:1563   */\n      0x16\n        /* \"#utility.yul\":1556:1559   */\n      dup4\n        /* \"#utility.yul\":1497:1564   */\n      tag_22\n      jump\t// in\n    tag_45:\n        /* \"#utility.yul\":1490:1564   */\n      swap2\n      pop\n        /* \"#utility.yul\":1573:1666   */\n      tag_46\n        /* \"#utility.yul\":1662:1665   */\n      dup3\n        /* \"#utility.yul\":1573:1666   */\n      tag_25\n      jump\t// in\n    tag_46:\n        /* \"#utility.yul\":1691:1693   */\n      0x20\n        /* \"#utility.yul\":1686:1689   */\n      dup3\n        /* \"#utility.yul\":1682:1694   */\n      add\n        /* \"#utility.yul\":1675:1694   */\n      swap1\n      pop\n        /* \"#utility.yul\":1334:1700   */\n      swap2\n      swap1\n      pop\n      jump\t// out\n        /* \"#utility.yul\":1706:2125   */\n    tag_11:\n        /* \"#utility.yul\":1872:1876   */\n      0x00\n        /* \"#utility.yul\":1910:1912   */\n      0x20\n        /* \"#utility.yul\":1899:1908   */\n      dup3\n        /* \"#utility.yul\":1895:1913   */\n      add\n        /* \"#utility.yul\":1887:1913   */\n      swap1\n      pop\n        /* \"#utility.yul\":1959:1968   */\n      dup2\n        /* \"#utility.yul\":1953:1957   */\n      dup2\n        /* \"#utility.yul\":1949:1969   */\n      sub\n        /* \"#utility.yul\":1945:1946   */\n      0x00\n        /* \"#utility.yul\":1934:1943   */\n      dup4\n        /* \"#utility.yul\":1930:1947   */\n      add\n        /* \"#utility.yul\":1923:1970   */\n      mstore\n        /* \"#utility.yul\":1987:2118   */\n      tag_48\n        /* \"#utility.yul\":2113:2117   */\n      dup2\n        /* \"#utility.yul\":1987:2118   */\n      tag_26\n      jump\t// in\n    tag_48:\n        /* \"#utility.yul\":1979:2118   */\n      swap1\n      pop\n        /* \"#utility.yul\":1706:2125   */\n      swap2\n      swap1\n      pop\n      jump\t// out\n        /* \"#utility.yul\":2212:2329   */\n    tag_28:\n        /* \"#utility.yul\":2321:2322   */\n      0x00\n        /* \"#utility.yul\":2318:2319   */\n      dup1\n        /* \"#utility.yul\":2311:2323   */\n      revert\n        /* \"#utility.yul\":2458:2535   */\n    tag_30:\n        /* \"#utility.yul\":2495:2502   */\n      0x00\n        /* \"#utility.yul\":2524:2529   */\n      dup2\n        /* \"#utility.yul\":2513:2529   */\n      swap1\n      pop\n        /* \"#utility.yul\":2458:2535   */\n      swap2\n      swap1\n      pop\n      jump\t// out\n        /* \"#utility.yul\":2541:2663   */\n    tag_31:\n        /* \"#utility.yul\":2614:2638   */\n      tag_54\n        /* \"#utility.yul\":2632:2637   */\n      dup2\n        /* \"#utility.yul\":2614:2638   */\n      tag_30\n      jump\t// in\n    tag_54:\n        /* \"#utility.yul\":2607:2612   */\n      dup2\n        /* \"#utility.yul\":2604:2639   */\n      eq\n        /* \"#utility.yul\":2594:2657   */\n      tag_55\n      jumpi\n        /* \"#utility.yul\":2653:2654   */\n      0x00\n        /* \"#utility.yul\":2650:2651   */\n      dup1\n        /* \"#utility.yul\":2643:2655   */\n      revert\n        /* \"#utility.yul\":2594:2657   */\n    tag_55:\n        /* \"#utility.yul\":2541:2663   */\n      pop\n      jump\t// out\n        /* \"#utility.yul\":2669:2808   */\n    tag_32:\n        /* \"#utility.yul\":2715:2720   */\n      0x00\n        /* \"#utility.yul\":2753:2759   */\n      dup2\n        /* \"#utility.yul\":2740:2760   */\n      calldataload\n        /* \"#utility.yul\":2731:2760   */\n      swap1\n      pop\n        /* \"#utility.yul\":2769:2802   */\n      tag_57\n        /* \"#utility.yul\":2796:2801   */\n      dup2\n        /* \"#utility.yul\":2769:2802   */\n      tag_31\n      jump\t// in\n    tag_57:\n        /* \"#utility.yul\":2669:2808   */\n      swap3\n      swap2\n      pop\n      pop\n      jump\t// out\n        /* \"#utility.yul\":2814:3288   */\n    tag_15:\n        /* \"#utility.yul\":2882:2888   */\n      0x00\n        /* \"#utility.yul\":2890:2896   */\n      dup1\n        /* \"#utility.yul\":2939:2941   */\n      0x40\n        /* \"#utility.yul\":2927:2936   */\n      dup4\n        /* \"#utility.yul\":2918:2925   */\n      dup6\n        /* \"#utility.yul\":2914:2937   */\n      sub\n        /* \"#utility.yul\":2910:2942   */\n      slt\n        /* \"#utility.yul\":2907:3026   */\n      iszero\n      tag_59\n      jumpi\n        /* \"#utility.yul\":2945:3024   */\n      tag_60\n      tag_28\n      jump\t// in\n    tag_60:\n        /* \"#utility.yul\":2907:3026   */\n    tag_59:\n        /* \"#utility.yul\":3065:3066   */\n      0x00\n        /* \"#utility.yul\":3090:3143   */\n      tag_61\n        /* \"#utility.yul\":3135:3142   */\n      dup6\n        /* \"#utility.yul\":3126:3132   */\n      dup3\n        /* \"#utility.yul\":3115:3124   */\n      dup7\n        /* \"#utility.yul\":3111:3133   */\n      add\n        /* \"#utility.yul\":3090:3143   */\n      tag_32\n      jump\t// in\n    tag_61:\n        /* \"#utility.yul\":3080:3143   */\n      swap3\n      pop\n        /* \"#utility.yul\":3036:3153   */\n      pop\n        /* \"#utility.yul\":3192:3194   */\n      0x20\n        /* \"#utility.yul\":3218:3271   */\n      tag_62\n        /* \"#utility.yul\":3263:3270   */\n      dup6\n        /* \"#utility.yul\":3254:3260   */\n      dup3\n        /* \"#utility.yul\":3243:3252   */\n      dup7\n        /* \"#utility.yul\":3239:3261   */\n      add\n        /* \"#utility.yul\":3218:3271   */\n      tag_32\n      jump\t// in\n    tag_62:\n        /* \"#utility.yul\":3208:3271   */\n      swap2\n      pop\n        /* \"#utility.yul\":3163:3281   */\n      pop\n        /* \"#utility.yul\":2814:3288   */\n      swap3\n      pop\n      swap3\n      swap1\n      pop\n      jump\t// out\n        /* \"#utility.yul\":3294:3412   */\n    tag_33:\n        /* \"#utility.yul\":3381:3405   */\n      tag_64\n        /* \"#utility.yul\":3399:3404   */\n      dup2\n        /* \"#utility.yul\":3381:3405   */\n      tag_30\n      jump\t// in\n    tag_64:\n        /* \"#utility.yul\":3376:3379   */\n      dup3\n        /* \"#utility.yul\":3369:3406   */\n      mstore\n        /* \"#utility.yul\":3294:3412   */\n      pop\n      pop\n      jump\t// out\n        /* \"#utility.yul\":3418:3640   */\n    tag_18:\n        /* \"#utility.yul\":3511:3515   */\n      0x00\n        /* \"#utility.yul\":3549:3551   */\n      0x20\n        /* \"#utility.yul\":3538:3547   */\n      dup3\n        /* \"#utility.yul\":3534:3552   */\n      add\n        /* \"#utility.yul\":3526:3552   */\n      swap1\n      pop\n        /* \"#utility.yul\":3562:3633   */\n      tag_66\n        /* \"#utility.yul\":3630:3631   */\n      0x00\n        /* \"#utility.yul\":3619:3628   */\n      dup4\n        /* \"#utility.yul\":3615:3632   */\n      add\n        /* \"#utility.yul\":3606:3612   */\n      dup5\n        /* \"#utility.yul\":3562:3633   */\n      tag_33\n      jump\t// in\n    tag_66:\n        /* \"#utility.yul\":3418:3640   */\n      swap3\n      swap2\n      pop\n      pop\n      jump\t// out\n        /* \"#utility.yul\":3646:3826   */\n    tag_34:\n        /* \"#utility.yul\":3694:3771   */\n      0x4e487b7100000000000000000000000000000000000000000000000000000000\n        /* \"#utility.yul\":3691:3692   */\n      0x00\n        /* \"#utility.yul\":3684:3772   */\n      mstore\n        /* \"#utility.yul\":3791:3795   */\n      0x11\n        /* \"#utility.yul\":3788:3789   */\n      0x04\n        /* \"#utility.yul\":3781:3796   */\n      mstore\n        /* \"#utility.yul\":3815:3819   */\n      0x24\n        /* \"#utility.yul\":3812:3813   */\n      0x00\n        /* \"#utility.yul\":3805:3820   */\n      revert\n        /* \"#utility.yul\":3832:4023   */\n    tag_21:\n        /* \"#utility.yul\":3872:3875   */\n      0x00\n        /* \"#utility.yul\":3891:3911   */\n      tag_69\n        /* \"#utility.yul\":3909:3910   */\n      dup3\n        /* \"#utility.yul\":3891:3911   */\n      tag_30\n      jump\t// in\n    tag_69:\n        /* \"#utility.yul\":3886:3911   */\n      swap2\n      pop\n        /* \"#utility.yul\":3925:3945   */\n      tag_70\n        /* \"#utility.yul\":3943:3944   */\n      dup4\n        /* \"#utility.yul\":3925:3945   */\n      tag_30\n      jump\t// in\n    tag_70:\n        /* \"#utility.yul\":3920:3945   */\n      swap3\n      pop\n        /* \"#utility.yul\":3968:3969   */\n      dup3\n        /* \"#utility.yul\":3965:3966   */\n      dup3\n        /* \"#utility.yul\":3961:3970   */\n      add\n        /* \"#utility.yul\":3954:3970   */\n      swap1\n      pop\n        /* \"#utility.yul\":3989:3992   */\n      dup1\n        /* \"#utility.yul\":3986:3987   */\n      dup3\n        /* \"#utility.yul\":3983:3993   */\n      gt\n        /* \"#utility.yul\":3980:4016   */\n      iszero\n      tag_71\n      jumpi\n        /* \"#utility.yul\":3996:4014   */\n      tag_72\n      tag_34\n      jump\t// in\n    tag_72:\n        /* \"#utility.yul\":3980:4016   */\n    tag_71:\n        /* \"#utility.yul\":3832:4023   */\n      swap3\n      swap2\n      pop\n      pop\n      jump\t// out\n\n    auxdata: 0xa2646970667358221220a3c97e3bee4008a72bca938f98d70978e62ecb863085fc32ee89ec1298c1fad164736f6c63430008120033\n}\n",
				"bytecode": {
					"linkReferences": {},
					"object": "608060405234801561001057600080fd5b5061030f806100206000396000f3fe6080604052600436106100225760003560e01c80630f3d0204146100955761005e565b3661005e577fea76936da7e733de51185273d52362d5abc78a41b970e52e5a32d35a187566c260405161005490610145565b60405180910390a1005b7fa34784e3343c15d43f7dcaa7f7575208ff57743c4f087aade7e1f63d9f87b35c60405161008b906101b1565b60405180910390a1005b3480156100a157600080fd5b506100bc60048036038101906100b7919061020c565b6100d2565b6040516100c9919061025b565b60405180910390f35b600081836100e091906102a5565b905092915050565b600082825260208201905092915050565b7f4a757374526563656976652069732063616c6c65640000000000000000000000600082015250565b600061012f6015836100e8565b915061013a826100f9565b602082019050919050565b6000602082019050818103600083015261015e81610122565b9050919050565b7f4a75737446616c6c6261636b2069732063616c6c656400000000000000000000600082015250565b600061019b6016836100e8565b91506101a682610165565b602082019050919050565b600060208201905081810360008301526101ca8161018e565b9050919050565b600080fd5b6000819050919050565b6101e9816101d6565b81146101f457600080fd5b50565b600081359050610206816101e0565b92915050565b60008060408385031215610223576102226101d1565b5b6000610231858286016101f7565b9250506020610242858286016101f7565b9150509250929050565b610255816101d6565b82525050565b6000602082019050610270600083018461024c565b92915050565b7f4e487b7100000000000000000000000000000000000000000000000000000000600052601160045260246000fd5b60006102b0826101d6565b91506102bb836101d6565b92508282019050808211156102d3576102d2610276565b5b9291505056fea2646970667358221220a3c97e3bee4008a72bca938f98d70978e62ecb863085fc32ee89ec1298c1fad164736f6c63430008120033",
					"opcodes": "PUSH1 0x80 PUSH1 0x40 MSTORE CALLVALUE DUP1 ISZERO PUSH2 0x10 JUMPI PUSH1 0x0 DUP1 REVERT JUMPDEST POP PUSH2 0x30F DUP1 PUSH2 0x20 PUSH1 0x0 CODECOPY PUSH1 0x0 RETURN INVALID PUSH1 0x80 PUSH1 0x40 MSTORE PUSH1 0x4 CALLDATASIZE LT PUSH2 0x22 JUMPI PUSH1 0x0 CALLDATALOAD PUSH1 0xE0 SHR DUP1 PUSH4 0xF3D0204 EQ PUSH2 0x95 JUMPI PUSH2 0x5E JUMP JUMPDEST CALLDATASIZE PUSH2 0x5E JUMPI PUSH32 0xEA76936DA7E733DE51185273D52362D5ABC78A41B970E52E5A32D35A187566C2 PUSH1 0x40 MLOAD PUSH2 0x54 SWAP1 PUSH2 0x145 JUMP JUMPDEST PUSH1 0x40 MLOAD DUP1 SWAP2 SUB SWAP1 LOG1 STOP JUMPDEST PUSH32 0xA34784E3343C15D43F7DCAA7F7575208FF57743C4F087AADE7E1F63D9F87B35C PUSH1 0x40 MLOAD PUSH2 0x8B SWAP1 PUSH2 0x1B1 JUMP JUMPDEST PUSH1 0x40 MLOAD DUP1 SWAP2 SUB SWAP1 LOG1 STOP JUMPDEST CALLVALUE DUP1 ISZERO PUSH2 0xA1 JUMPI PUSH1 0x0 DUP1 REVERT JUMPDEST POP PUSH2 0xBC PUSH1 0x4 DUP1 CALLDATASIZE SUB DUP2 ADD SWAP1 PUSH2 0xB7 SWAP2 SWAP1 PUSH2 0x20C JUMP JUMPDEST PUSH2 0xD2 JUMP JUMPDEST PUSH1 0x40 MLOAD PUSH2 0xC9 SWAP2 SWAP1 PUSH2 0x25B JUMP JUMPDEST PUSH1 0x40 MLOAD DUP1 SWAP2 SUB SWAP1 RETURN JUMPDEST PUSH1 0x0 DUP2 DUP4 PUSH2 0xE0 SWAP2 SWAP1 PUSH2 0x2A5 JUMP JUMPDEST SWAP1 POP SWAP3 SWAP2 POP POP JUMP JUMPDEST PUSH1 0x0 DUP3 DUP3 MSTORE PUSH1 0x20 DUP3 ADD SWAP1 POP SWAP3 SWAP2 POP POP JUMP JUMPDEST PUSH32 0x4A757374526563656976652069732063616C6C65640000000000000000000000 PUSH1 0x0 DUP3 ADD MSTORE POP JUMP JUMPDEST PUSH1 0x0 PUSH2 0x12F PUSH1 0x15 DUP4 PUSH2 0xE8 JUMP JUMPDEST SWAP2 POP PUSH2 0x13A DUP3 PUSH2 0xF9 JUMP JUMPDEST PUSH1 0x20 DUP3 ADD SWAP1 POP SWAP2 SWAP1 POP JUMP JUMPDEST PUSH1 0x0 PUSH1 0x20 DUP3 ADD SWAP1 POP DUP2 DUP2 SUB PUSH1 0x0 DUP4 ADD MSTORE PUSH2 0x15E DUP2 PUSH2 0x122 JUMP JUMPDEST SWAP1 POP SWAP2 SWAP1 POP JUMP JUMPDEST PUSH32 0x4A75737446616C6C6261636B2069732063616C6C656400000000000000000000 PUSH1 0x0 DUP3 ADD MSTORE POP JUMP JUMPDEST PUSH1 0x0 PUSH2 0x19B PUSH1 0x16 DUP4 PUSH2 0xE8 JUMP JUMPDEST SWAP2 POP PUSH2 0x1A6 DUP3 PUSH2 0x165 JUMP JUMPDEST PUSH1 0x20 DUP3 ADD SWAP1 POP SWAP2 SWAP1 POP JUMP JUMPDEST PUSH1 0x0 PUSH1 0x20 DUP3 ADD SWAP1 POP DUP2 DUP2 SUB PUSH1 0x0 DUP4 ADD MSTORE PUSH2 0x1CA DUP2 PUSH2 0x18E JUMP JUMPDEST SWAP1 POP SWAP2 SWAP1 POP JUMP JUMPDEST PUSH1 0x0 DUP1 REVERT JUMPDEST PUSH1 0x0 DUP2 SWAP1 POP SWAP2 SWAP1 POP JUMP JUMPDEST PUSH2 0x1E9 DUP2 PUSH2 0x1D6 JUMP JUMPDEST DUP2 EQ PUSH2 0x1F4 JUMPI PUSH1 0x0 DUP1 REVERT JUMPDEST POP JUMP JUMPDEST PUSH1 0x0 DUP2 CALLDATALOAD SWAP1 POP PUSH2 0x206 DUP2 PUSH2 0x1E0 JUMP JUMPDEST SWAP3 SWAP2 POP POP JUMP JUMPDEST PUSH1 0x0 DUP1 PUSH1 0x40 DUP4 DUP6 SUB SLT ISZERO PUSH2 0x223 JUMPI PUSH2 0x222 PUSH2 0x1D1 JUMP JUMPDEST JUMPDEST PUSH1 0x0 PUSH2 0x231 DUP6 DUP3 DUP7 ADD PUSH2 0x1F7 JUMP JUMPDEST SWAP3 POP POP PUSH1 0x20 PUSH2 0x242 DUP6 DUP3 DUP7 ADD PUSH2 0x1F7 JUMP JUMPDEST SWAP2 POP POP SWAP3 POP SWAP3 SWAP1 POP JUMP JUMPDEST PUSH2 0x255 DUP2 PUSH2 0x1D6 JUMP JUMPDEST DUP3 MSTORE POP POP JUMP JUMPDEST PUSH1 0x0 PUSH1 0x20 DUP3 ADD SWAP1 POP PUSH2 0x270 PUSH1 0x0 DUP4 ADD DUP5 PUSH2 0x24C JUMP JUMPDEST SWAP3 SWAP2 POP POP JUMP JUMPDEST PUSH32 0x4E487B7100000000000000000000000000000000000000000000000000000000 PUSH1 0x0 MSTORE PUSH1 0x11 PUSH1 0x4 MSTORE PUSH1 0x24 PUSH1 0x0 REVERT JUMPDEST PUSH1 0x0 PUSH2 0x2B0 DUP3 PUSH2 0x1D6 JUMP JUMPDEST SWAP2 POP PUSH2 0x2BB DUP4 PUSH2 0x1D6 JUMP JUMPDEST SWAP3 POP DUP3 DUP3 ADD SWAP1 POP DUP1 DUP3 GT ISZERO PUSH2 0x2D3 JUMPI PUSH2 0x2D2 PUSH2 0x276 JUMP JUMPDEST JUMPDEST SWAP3 SWAP2 POP POP JUMP INVALID LOG2 PUSH5 0x6970667358 0x22 SLT KECCAK256 LOG3 0xC9 PUSH31 0x3BEE4008A72BCA938F98D70978E62ECB863085FC32EE89EC1298C1FAD16473 PUSH16 0x6C634300081200330000000000000000 "
				},
				"gasEstimates": {
					"creation": {
						"codeDepositCost": "156600",
						"executionCost": "202",
						"totalCost": "156802"
					},
					"external": {
						"": "1887",
						"addNumber(uint256,uint256)": "infinite"
					}
				},
				"methodIdentifiers": {
					"addNumber(uint256,uint256)": "0f3d0204"
				}
			},
			"storageLayout": {
				"storage": [],
				"types": null
			},
			"userdoc": {
				"kind": "user",
				"methods": {},
				"version": 1
			}
		}
	}
}