{
	"lecture/함수.sol": {
		"lec4": {
			"abi": [
				{
					"inputs": [],
					"name": "a",
					"outputs": [
						{
							"internalType": "uint256",
							"name": "",
							"type": "uint256"
						}
					],
					"stateMutability": "view",
					"type": "function"
				},
				{
					"inputs": [],
					"name": "changeA1",
					"outputs": [],
					"stateMutability": "nonpayable",
					"type": "function"
				},
				{
					"inputs": [
						{
							"internalType": "uint256",
							"name": "_value",
							"type": "uint256"
						}
					],
					"name": "changeA2",
					"outputs": [],
					"stateMutability": "nonpayable",
					"type": "function"
				},
				{
					"inputs": [],
					"name": "changeA3",
					"outputs": [
						{
							"internalType": "uint256",
							"name": "",
							"type": "uint256"
						}
					],
					"stateMutability": "view",
					"type": "function"
				},
				{
					"inputs": [
						{
							"internalType": "uint256",
							"name": "_value",
							"type": "uint256"
						}
					],
					"name": "changeA4",
					"outputs": [
						{
							"internalType": "uint256",
							"name": "",
							"type": "uint256"
						}
					],
					"stateMutability": "nonpayable",
					"type": "function"
				}
			],
			"devdoc": {
				"kind": "dev",
				"methods": {},
				"version": 1
			},
			"evm": {
				"assembly": "    /* \"lecture/\\xed\\x95\\xa8\\xec\\x88\\x98.sol\":72:796  contract lec4{... */\n  mstore(0x40, 0x80)\n    /* \"lecture/\\xed\\x95\\xa8\\xec\\x88\\x98.sol\":251:252  3 */\n  0x03\n    /* \"lecture/\\xed\\x95\\xa8\\xec\\x88\\x98.sol\":232:252  uint256 public a = 3 */\n  0x00\n  sstore\n    /* \"lecture/\\xed\\x95\\xa8\\xec\\x88\\x98.sol\":72:796  contract lec4{... */\n  callvalue\n  dup1\n  iszero\n  tag_1\n  jumpi\n  0x00\n  dup1\n  revert\ntag_1:\n  pop\n  dataSize(sub_0)\n  dup1\n  dataOffset(sub_0)\n  0x00\n  codecopy\n  0x00\n  return\nstop\n\nsub_0: assembly {\n        /* \"lecture/\\xed\\x95\\xa8\\xec\\x88\\x98.sol\":72:796  contract lec4{... */\n      mstore(0x40, 0x80)\n      callvalue\n      dup1\n      iszero\n      tag_1\n      jumpi\n      0x00\n      dup1\n      revert\n    tag_1:\n      pop\n      jumpi(tag_2, lt(calldatasize, 0x04))\n      shr(0xe0, calldataload(0x00))\n      dup1\n      0x0dbe671f\n      eq\n      tag_3\n      jumpi\n      dup1\n      0x1fd29060\n      eq\n      tag_4\n      jumpi\n      dup1\n      0x8395bb01\n      eq\n      tag_5\n      jumpi\n      dup1\n      0x910dbc9d\n      eq\n      tag_6\n      jumpi\n      dup1\n      0xa9af0691\n      eq\n      tag_7\n      jumpi\n    tag_2:\n      0x00\n      dup1\n      revert\n        /* \"lecture/\\xed\\x95\\xa8\\xec\\x88\\x98.sol\":232:252  uint256 public a = 3 */\n    tag_3:\n      tag_8\n      tag_9\n      jump\t// in\n    tag_8:\n      mload(0x40)\n      tag_10\n      swap2\n      swap1\n      tag_11\n      jump\t// in\n    tag_10:\n      mload(0x40)\n      dup1\n      swap2\n      sub\n      swap1\n      return\n        /* \"lecture/\\xed\\x95\\xa8\\xec\\x88\\x98.sol\":310:356  function changeA1() public{... */\n    tag_4:\n      tag_12\n      tag_13\n      jump\t// in\n    tag_12:\n      stop\n        /* \"lecture/\\xed\\x95\\xa8\\xec\\x88\\x98.sol\":695:794  function changeA4(uint256 _value) public returns(uint256){... */\n    tag_5:\n      tag_14\n      0x04\n      dup1\n      calldatasize\n      sub\n      dup2\n      add\n      swap1\n      tag_15\n      swap2\n      swap1\n      tag_16\n      jump\t// in\n    tag_15:\n      tag_17\n      jump\t// in\n    tag_14:\n      mload(0x40)\n      tag_18\n      swap2\n      swap1\n      tag_11\n      jump\t// in\n    tag_18:\n      mload(0x40)\n      dup1\n      swap2\n      sub\n      swap1\n      return\n        /* \"lecture/\\xed\\x95\\xa8\\xec\\x88\\x98.sol\":456:521  function changeA2(uint256 _value) public{... */\n    tag_6:\n      tag_19\n      0x04\n      dup1\n      calldatasize\n      sub\n      dup2\n      add\n      swap1\n      tag_20\n      swap2\n      swap1\n      tag_16\n      jump\t// in\n    tag_20:\n      tag_21\n      jump\t// in\n    tag_19:\n      stop\n        /* \"lecture/\\xed\\x95\\xa8\\xec\\x88\\x98.sol\":567:638  function changeA3() public view returns(uint256){... */\n    tag_7:\n      tag_22\n      tag_23\n      jump\t// in\n    tag_22:\n      mload(0x40)\n      tag_24\n      swap2\n      swap1\n      tag_11\n      jump\t// in\n    tag_24:\n      mload(0x40)\n      dup1\n      swap2\n      sub\n      swap1\n      return\n        /* \"lecture/\\xed\\x95\\xa8\\xec\\x88\\x98.sol\":232:252  uint256 public a = 3 */\n    tag_9:\n      sload(0x00)\n      dup2\n      jump\t// out\n        /* \"lecture/\\xed\\x95\\xa8\\xec\\x88\\x98.sol\":310:356  function changeA1() public{... */\n    tag_13:\n        /* \"lecture/\\xed\\x95\\xa8\\xec\\x88\\x98.sol\":349:350  5 */\n      0x05\n        /* \"lecture/\\xed\\x95\\xa8\\xec\\x88\\x98.sol\":345:346  a */\n      0x00\n        /* \"lecture/\\xed\\x95\\xa8\\xec\\x88\\x98.sol\":345:350  a = 5 */\n      dup2\n      swap1\n      sstore\n      pop\n        /* \"lecture/\\xed\\x95\\xa8\\xec\\x88\\x98.sol\":310:356  function changeA1() public{... */\n      jump\t// out\n        /* \"lecture/\\xed\\x95\\xa8\\xec\\x88\\x98.sol\":695:794  function changeA4(uint256 _value) public returns(uint256){... */\n    tag_17:\n        /* \"lecture/\\xed\\x95\\xa8\\xec\\x88\\x98.sol\":744:751  uint256 */\n      0x00\n        /* \"lecture/\\xed\\x95\\xa8\\xec\\x88\\x98.sol\":765:771  _value */\n      dup2\n        /* \"lecture/\\xed\\x95\\xa8\\xec\\x88\\x98.sol\":761:762  a */\n      0x00\n        /* \"lecture/\\xed\\x95\\xa8\\xec\\x88\\x98.sol\":761:771  a = _value */\n      dup2\n      swap1\n      sstore\n      pop\n        /* \"lecture/\\xed\\x95\\xa8\\xec\\x88\\x98.sol\":787:788  a */\n      sload(0x00)\n        /* \"lecture/\\xed\\x95\\xa8\\xec\\x88\\x98.sol\":780:788  return a */\n      swap1\n      pop\n        /* \"lecture/\\xed\\x95\\xa8\\xec\\x88\\x98.sol\":695:794  function changeA4(uint256 _value) public returns(uint256){... */\n      swap2\n      swap1\n      pop\n      jump\t// out\n        /* \"lecture/\\xed\\x95\\xa8\\xec\\x88\\x98.sol\":456:521  function changeA2(uint256 _value) public{... */\n    tag_21:\n        /* \"lecture/\\xed\\x95\\xa8\\xec\\x88\\x98.sol\":509:515  _value */\n      dup1\n        /* \"lecture/\\xed\\x95\\xa8\\xec\\x88\\x98.sol\":505:506  a */\n      0x00\n        /* \"lecture/\\xed\\x95\\xa8\\xec\\x88\\x98.sol\":505:515  a = _value */\n      dup2\n      swap1\n      sstore\n      pop\n        /* \"lecture/\\xed\\x95\\xa8\\xec\\x88\\x98.sol\":456:521  function changeA2(uint256 _value) public{... */\n      pop\n      jump\t// out\n        /* \"lecture/\\xed\\x95\\xa8\\xec\\x88\\x98.sol\":567:638  function changeA3() public view returns(uint256){... */\n    tag_23:\n        /* \"lecture/\\xed\\x95\\xa8\\xec\\x88\\x98.sol\":607:614  uint256 */\n      0x00\n        /* \"lecture/\\xed\\x95\\xa8\\xec\\x88\\x98.sol\":631:632  a */\n      dup1\n      sload\n        /* \"lecture/\\xed\\x95\\xa8\\xec\\x88\\x98.sol\":624:632  return a */\n      swap1\n      pop\n        /* \"lecture/\\xed\\x95\\xa8\\xec\\x88\\x98.sol\":567:638  function changeA3() public view returns(uint256){... */\n      swap1\n      jump\t// out\n        /* \"#utility.yul\":7:84   */\n    tag_29:\n        /* \"#utility.yul\":44:51   */\n      0x00\n        /* \"#utility.yul\":73:78   */\n      dup2\n        /* \"#utility.yul\":62:78   */\n      swap1\n      pop\n        /* \"#utility.yul\":7:84   */\n      swap2\n      swap1\n      pop\n      jump\t// out\n        /* \"#utility.yul\":90:208   */\n    tag_30:\n        /* \"#utility.yul\":177:201   */\n      tag_39\n        /* \"#utility.yul\":195:200   */\n      dup2\n        /* \"#utility.yul\":177:201   */\n      tag_29\n      jump\t// in\n    tag_39:\n        /* \"#utility.yul\":172:175   */\n      dup3\n        /* \"#utility.yul\":165:202   */\n      mstore\n        /* \"#utility.yul\":90:208   */\n      pop\n      pop\n      jump\t// out\n        /* \"#utility.yul\":214:436   */\n    tag_11:\n        /* \"#utility.yul\":307:311   */\n      0x00\n        /* \"#utility.yul\":345:347   */\n      0x20\n        /* \"#utility.yul\":334:343   */\n      dup3\n        /* \"#utility.yul\":330:348   */\n      add\n        /* \"#utility.yul\":322:348   */\n      swap1\n      pop\n        /* \"#utility.yul\":358:429   */\n      tag_41\n        /* \"#utility.yul\":426:427   */\n      0x00\n        /* \"#utility.yul\":415:424   */\n      dup4\n        /* \"#utility.yul\":411:428   */\n      add\n        /* \"#utility.yul\":402:408   */\n      dup5\n        /* \"#utility.yul\":358:429   */\n      tag_30\n      jump\t// in\n    tag_41:\n        /* \"#utility.yul\":214:436   */\n      swap3\n      swap2\n      pop\n      pop\n      jump\t// out\n        /* \"#utility.yul\":523:640   */\n    tag_32:\n        /* \"#utility.yul\":632:633   */\n      0x00\n        /* \"#utility.yul\":629:630   */\n      dup1\n        /* \"#utility.yul\":622:634   */\n      revert\n        /* \"#utility.yul\":769:891   */\n    tag_34:\n        /* \"#utility.yul\":842:866   */\n      tag_46\n        /* \"#utility.yul\":860:865   */\n      dup2\n        /* \"#utility.yul\":842:866   */\n      tag_29\n      jump\t// in\n    tag_46:\n        /* \"#utility.yul\":835:840   */\n      dup2\n        /* \"#utility.yul\":832:867   */\n      eq\n        /* \"#utility.yul\":822:885   */\n      tag_47\n      jumpi\n        /* \"#utility.yul\":881:882   */\n      0x00\n        /* \"#utility.yul\":878:879   */\n      dup1\n        /* \"#utility.yul\":871:883   */\n      revert\n        /* \"#utility.yul\":822:885   */\n    tag_47:\n        /* \"#utility.yul\":769:891   */\n      pop\n      jump\t// out\n        /* \"#utility.yul\":897:1036   */\n    tag_35:\n        /* \"#utility.yul\":943:948   */\n      0x00\n        /* \"#utility.yul\":981:987   */\n      dup2\n        /* \"#utility.yul\":968:988   */\n      calldataload\n        /* \"#utility.yul\":959:988   */\n      swap1\n      pop\n        /* \"#utility.yul\":997:1030   */\n      tag_49\n        /* \"#utility.yul\":1024:1029   */\n      dup2\n        /* \"#utility.yul\":997:1030   */\n      tag_34\n      jump\t// in\n    tag_49:\n        /* \"#utility.yul\":897:1036   */\n      swap3\n      swap2\n      pop\n      pop\n      jump\t// out\n        /* \"#utility.yul\":1042:1371   */\n    tag_16:\n        /* \"#utility.yul\":1101:1107   */\n      0x00\n        /* \"#utility.yul\":1150:1152   */\n      0x20\n        /* \"#utility.yul\":1138:1147   */\n      dup3\n        /* \"#utility.yul\":1129:1136   */\n      dup5\n        /* \"#utility.yul\":1125:1148   */\n      sub\n        /* \"#utility.yul\":1121:1153   */\n      slt\n        /* \"#utility.yul\":1118:1237   */\n      iszero\n      tag_51\n      jumpi\n        /* \"#utility.yul\":1156:1235   */\n      tag_52\n      tag_32\n      jump\t// in\n    tag_52:\n        /* \"#utility.yul\":1118:1237   */\n    tag_51:\n        /* \"#utility.yul\":1276:1277   */\n      0x00\n        /* \"#utility.yul\":1301:1354   */\n      tag_53\n        /* \"#utility.yul\":1346:1353   */\n      dup5\n        /* \"#utility.yul\":1337:1343   */\n      dup3\n        /* \"#utility.yul\":1326:1335   */\n      dup6\n        /* \"#utility.yul\":1322:1344   */\n      add\n        /* \"#utility.yul\":1301:1354   */\n      tag_35\n      jump\t// in\n    tag_53:\n        /* \"#utility.yul\":1291:1354   */\n      swap2\n      pop\n        /* \"#utility.yul\":1247:1364   */\n      pop\n        /* \"#utility.yul\":1042:1371   */\n      swap3\n      swap2\n      pop\n      pop\n      jump\t// out\n\n    auxdata: 0xa26469706673582212204c468f4c208920d0918e00258910d04a13280390db660304d09a3aab038b556864736f6c63430008120033\n}\n",
				"bytecode": {
					"linkReferences": {},
					"object": "6080604052600360005534801561001557600080fd5b506101ec806100256000396000f3fe608060405234801561001057600080fd5b50600436106100575760003560e01c80630dbe671f1461005c5780631fd290601461007a5780638395bb0114610084578063910dbc9d146100b4578063a9af0691146100d0575b600080fd5b6100646100ee565b604051610071919061013d565b60405180910390f35b6100826100f4565b005b61009e60048036038101906100999190610189565b6100fe565b6040516100ab919061013d565b60405180910390f35b6100ce60048036038101906100c99190610189565b610111565b005b6100d861011b565b6040516100e5919061013d565b60405180910390f35b60005481565b6005600081905550565b6000816000819055506000549050919050565b8060008190555050565b60008054905090565b6000819050919050565b61013781610124565b82525050565b6000602082019050610152600083018461012e565b92915050565b600080fd5b61016681610124565b811461017157600080fd5b50565b6000813590506101838161015d565b92915050565b60006020828403121561019f5761019e610158565b5b60006101ad84828501610174565b9150509291505056fea26469706673582212204c468f4c208920d0918e00258910d04a13280390db660304d09a3aab038b556864736f6c63430008120033",
					"opcodes": "PUSH1 0x80 PUSH1 0x40 MSTORE PUSH1 0x3 PUSH1 0x0 SSTORE CALLVALUE DUP1 ISZERO PUSH2 0x15 JUMPI PUSH1 0x0 DUP1 REVERT JUMPDEST POP PUSH2 0x1EC DUP1 PUSH2 0x25 PUSH1 0x0 CODECOPY PUSH1 0x0 RETURN INVALID PUSH1 0x80 PUSH1 0x40 MSTORE CALLVALUE DUP1 ISZERO PUSH2 0x10 JUMPI PUSH1 0x0 DUP1 REVERT JUMPDEST POP PUSH1 0x4 CALLDATASIZE LT PUSH2 0x57 JUMPI PUSH1 0x0 CALLDATALOAD PUSH1 0xE0 SHR DUP1 PUSH4 0xDBE671F EQ PUSH2 0x5C JUMPI DUP1 PUSH4 0x1FD29060 EQ PUSH2 0x7A JUMPI DUP1 PUSH4 0x8395BB01 EQ PUSH2 0x84 JUMPI DUP1 PUSH4 0x910DBC9D EQ PUSH2 0xB4 JUMPI DUP1 PUSH4 0xA9AF0691 EQ PUSH2 0xD0 JUMPI JUMPDEST PUSH1 0x0 DUP1 REVERT JUMPDEST PUSH2 0x64 PUSH2 0xEE JUMP JUMPDEST PUSH1 0x40 MLOAD PUSH2 0x71 SWAP2 SWAP1 PUSH2 0x13D JUMP JUMPDEST PUSH1 0x40 MLOAD DUP1 SWAP2 SUB SWAP1 RETURN JUMPDEST PUSH2 0x82 PUSH2 0xF4 JUMP JUMPDEST STOP JUMPDEST PUSH2 0x9E PUSH1 0x4 DUP1 CALLDATASIZE SUB DUP2 ADD SWAP1 PUSH2 0x99 SWAP2 SWAP1 PUSH2 0x189 JUMP JUMPDEST PUSH2 0xFE JUMP JUMPDEST PUSH1 0x40 MLOAD PUSH2 0xAB SWAP2 SWAP1 PUSH2 0x13D JUMP JUMPDEST PUSH1 0x40 MLOAD DUP1 SWAP2 SUB SWAP1 RETURN JUMPDEST PUSH2 0xCE PUSH1 0x4 DUP1 CALLDATASIZE SUB DUP2 ADD SWAP1 PUSH2 0xC9 SWAP2 SWAP1 PUSH2 0x189 JUMP JUMPDEST PUSH2 0x111 JUMP JUMPDEST STOP JUMPDEST PUSH2 0xD8 PUSH2 0x11B JUMP JUMPDEST PUSH1 0x40 MLOAD PUSH2 0xE5 SWAP2 SWAP1 PUSH2 0x13D JUMP JUMPDEST PUSH1 0x40 MLOAD DUP1 SWAP2 SUB SWAP1 RETURN JUMPDEST PUSH1 0x0 SLOAD DUP2 JUMP JUMPDEST PUSH1 0x5 PUSH1 0x0 DUP2 SWAP1 SSTORE POP JUMP JUMPDEST PUSH1 0x0 DUP2 PUSH1 0x0 DUP2 SWAP1 SSTORE POP PUSH1 0x0 SLOAD SWAP1 POP SWAP2 SWAP1 POP JUMP JUMPDEST DUP1 PUSH1 0x0 DUP2 SWAP1 SSTORE POP POP JUMP JUMPDEST PUSH1 0x0 DUP1 SLOAD SWAP1 POP SWAP1 JUMP JUMPDEST PUSH1 0x0 DUP2 SWAP1 POP SWAP2 SWAP1 POP JUMP JUMPDEST PUSH2 0x137 DUP2 PUSH2 0x124 JUMP JUMPDEST DUP3 MSTORE POP POP JUMP JUMPDEST PUSH1 0x0 PUSH1 0x20 DUP3 ADD SWAP1 POP PUSH2 0x152 PUSH1 0x0 DUP4 ADD DUP5 PUSH2 0x12E JUMP JUMPDEST SWAP3 SWAP2 POP POP JUMP JUMPDEST PUSH1 0x0 DUP1 REVERT JUMPDEST PUSH2 0x166 DUP2 PUSH2 0x124 JUMP JUMPDEST DUP2 EQ PUSH2 0x171 JUMPI PUSH1 0x0 DUP1 REVERT JUMPDEST POP JUMP JUMPDEST PUSH1 0x0 DUP2 CALLDATALOAD SWAP1 POP PUSH2 0x183 DUP2 PUSH2 0x15D JUMP JUMPDEST SWAP3 SWAP2 POP POP JUMP JUMPDEST PUSH1 0x0 PUSH1 0x20 DUP3 DUP5 SUB SLT ISZERO PUSH2 0x19F JUMPI PUSH2 0x19E PUSH2 0x158 JUMP JUMPDEST JUMPDEST PUSH1 0x0 PUSH2 0x1AD DUP5 DUP3 DUP6 ADD PUSH2 0x174 JUMP JUMPDEST SWAP2 POP POP SWAP3 SWAP2 POP POP JUMP INVALID LOG2 PUSH5 0x6970667358 0x22 SLT KECCAK256 0x4C CHAINID DUP16 0x4C KECCAK256 DUP10 KECCAK256 0xD0 SWAP2 DUP15 STOP 0x25 DUP10 LT 0xD0 0x4A SGT 0x28 SUB SWAP1 0xDB PUSH7 0x304D09A3AAB03 DUP12 SSTORE PUSH9 0x64736F6C6343000812 STOP CALLER "
				},
				"gasEstimates": {
					"creation": {
						"codeDepositCost": "98400",
						"executionCost": "22253",
						"totalCost": "120653"
					},
					"external": {
						"a()": "2407",
						"changeA1()": "22258",
						"changeA2(uint256)": "22564",
						"changeA3()": "2503",
						"changeA4(uint256)": "infinite"
					}
				},
				"methodIdentifiers": {
					"a()": "0dbe671f",
					"changeA1()": "1fd29060",
					"changeA2(uint256)": "910dbc9d",
					"changeA3()": "a9af0691",
					"changeA4(uint256)": "8395bb01"
				}
			},
			"storageLayout": {
				"storage": [
					{
						"astId": 4,
						"contract": "lecture/함수.sol:lec4",
						"label": "a",
						"offset": 0,
						"slot": "0",
						"type": "t_uint256"
					}
				],
				"types": {
					"t_uint256": {
						"encoding": "inplace",
						"label": "uint256",
						"numberOfBytes": "32"
					}
				}
			},
			"userdoc": {
				"kind": "user",
				"methods": {},
				"version": 1
			}
		}
	}
}