{
	"lecture/04_접근제한자.sol": {
		"external_example": {
			"abi": [
				{
					"inputs": [],
					"name": "get_a",
					"outputs": [
						{
							"internalType": "uint256",
							"name": "",
							"type": "uint256"
						}
					],
					"stateMutability": "view",
					"type": "function"
				}
			],
			"devdoc": {
				"kind": "dev",
				"methods": {},
				"version": 1
			},
			"evm": {
				"assembly": "    /* \"lecture/04_\\xec\\xa0\\x91\\xea\\xb7\\xbc\\xec\\xa0\\x9c\\xed\\x95\\x9c\\xec\\x9e\\x90.sol\":2110:2408  contract external_example {... */\n  mstore(0x40, 0x80)\n    /* \"lecture/04_\\xec\\xa0\\x91\\xea\\xb7\\xbc\\xec\\xa0\\x9c\\xed\\x95\\x9c\\xec\\x9e\\x90.sol\":2216:2217  3 */\n  0x03\n    /* \"lecture/04_\\xec\\xa0\\x91\\xea\\xb7\\xbc\\xec\\xa0\\x9c\\xed\\x95\\x9c\\xec\\x9e\\x90.sol\":2196:2217  uint256 private a = 3 */\n  0x00\n  sstore\n    /* \"lecture/04_\\xec\\xa0\\x91\\xea\\xb7\\xbc\\xec\\xa0\\x9c\\xed\\x95\\x9c\\xec\\x9e\\x90.sol\":2110:2408  contract external_example {... */\n  callvalue\n  dup1\n  iszero\n  tag_1\n  jumpi\n  0x00\n  dup1\n  revert\ntag_1:\n  pop\n  dataSize(sub_0)\n  dup1\n  dataOffset(sub_0)\n  0x00\n  codecopy\n  0x00\n  return\nstop\n\nsub_0: assembly {\n        /* \"lecture/04_\\xec\\xa0\\x91\\xea\\xb7\\xbc\\xec\\xa0\\x9c\\xed\\x95\\x9c\\xec\\x9e\\x90.sol\":2110:2408  contract external_example {... */\n      mstore(0x40, 0x80)\n      callvalue\n      dup1\n      iszero\n      tag_1\n      jumpi\n      0x00\n      dup1\n      revert\n    tag_1:\n      pop\n      jumpi(tag_2, lt(calldatasize, 0x04))\n      shr(0xe0, calldataload(0x00))\n      dup1\n      0x48159181\n      eq\n      tag_3\n      jumpi\n    tag_2:\n      0x00\n      dup1\n      revert\n        /* \"lecture/04_\\xec\\xa0\\x91\\xea\\xb7\\xbc\\xec\\xa0\\x9c\\xed\\x95\\x9c\\xec\\x9e\\x90.sol\":2330:2405  function get_a() view external returns (uint256)  {... */\n    tag_3:\n      tag_4\n      tag_5\n      jump\t// in\n    tag_4:\n      mload(0x40)\n      tag_6\n      swap2\n      swap1\n      tag_7\n      jump\t// in\n    tag_6:\n      mload(0x40)\n      dup1\n      swap2\n      sub\n      swap1\n      return\n    tag_5:\n        /* \"lecture/04_\\xec\\xa0\\x91\\xea\\xb7\\xbc\\xec\\xa0\\x9c\\xed\\x95\\x9c\\xec\\x9e\\x90.sol\":2370:2377  uint256 */\n      0x00\n        /* \"lecture/04_\\xec\\xa0\\x91\\xea\\xb7\\xbc\\xec\\xa0\\x9c\\xed\\x95\\x9c\\xec\\x9e\\x90.sol\":2397:2398  a */\n      dup1\n      sload\n        /* \"lecture/04_\\xec\\xa0\\x91\\xea\\xb7\\xbc\\xec\\xa0\\x9c\\xed\\x95\\x9c\\xec\\x9e\\x90.sol\":2390:2398  return a */\n      swap1\n      pop\n        /* \"lecture/04_\\xec\\xa0\\x91\\xea\\xb7\\xbc\\xec\\xa0\\x9c\\xed\\x95\\x9c\\xec\\x9e\\x90.sol\":2330:2405  function get_a() view external returns (uint256)  {... */\n      swap1\n      jump\t// out\n        /* \"#utility.yul\":7:84   */\n    tag_9:\n        /* \"#utility.yul\":44:51   */\n      0x00\n        /* \"#utility.yul\":73:78   */\n      dup2\n        /* \"#utility.yul\":62:78   */\n      swap1\n      pop\n        /* \"#utility.yul\":7:84   */\n      swap2\n      swap1\n      pop\n      jump\t// out\n        /* \"#utility.yul\":90:208   */\n    tag_10:\n        /* \"#utility.yul\":177:201   */\n      tag_14\n        /* \"#utility.yul\":195:200   */\n      dup2\n        /* \"#utility.yul\":177:201   */\n      tag_9\n      jump\t// in\n    tag_14:\n        /* \"#utility.yul\":172:175   */\n      dup3\n        /* \"#utility.yul\":165:202   */\n      mstore\n        /* \"#utility.yul\":90:208   */\n      pop\n      pop\n      jump\t// out\n        /* \"#utility.yul\":214:436   */\n    tag_7:\n        /* \"#utility.yul\":307:311   */\n      0x00\n        /* \"#utility.yul\":345:347   */\n      0x20\n        /* \"#utility.yul\":334:343   */\n      dup3\n        /* \"#utility.yul\":330:348   */\n      add\n        /* \"#utility.yul\":322:348   */\n      swap1\n      pop\n        /* \"#utility.yul\":358:429   */\n      tag_16\n        /* \"#utility.yul\":426:427   */\n      0x00\n        /* \"#utility.yul\":415:424   */\n      dup4\n        /* \"#utility.yul\":411:428   */\n      add\n        /* \"#utility.yul\":402:408   */\n      dup5\n        /* \"#utility.yul\":358:429   */\n      tag_10\n      jump\t// in\n    tag_16:\n        /* \"#utility.yul\":214:436   */\n      swap3\n      swap2\n      pop\n      pop\n      jump\t// out\n\n    auxdata: 0xa2646970667358221220edb0f704dd26dd93659db94d6bdfa5c3c4876e3890d3b6e6c30cab19dc487de464736f6c63430008120033\n}\n",
				"bytecode": {
					"linkReferences": {},
					"object": "6080604052600360005534801561001557600080fd5b5060b6806100246000396000f3fe6080604052348015600f57600080fd5b506004361060285760003560e01c80634815918114602d575b600080fd5b60336047565b604051603e91906067565b60405180910390f35b60008054905090565b6000819050919050565b6061816050565b82525050565b6000602082019050607a6000830184605a565b9291505056fea2646970667358221220edb0f704dd26dd93659db94d6bdfa5c3c4876e3890d3b6e6c30cab19dc487de464736f6c63430008120033",
					"opcodes": "PUSH1 0x80 PUSH1 0x40 MSTORE PUSH1 0x3 PUSH1 0x0 SSTORE CALLVALUE DUP1 ISZERO PUSH2 0x15 JUMPI PUSH1 0x0 DUP1 REVERT JUMPDEST POP PUSH1 0xB6 DUP1 PUSH2 0x24 PUSH1 0x0 CODECOPY PUSH1 0x0 RETURN INVALID PUSH1 0x80 PUSH1 0x40 MSTORE CALLVALUE DUP1 ISZERO PUSH1 0xF JUMPI PUSH1 0x0 DUP1 REVERT JUMPDEST POP PUSH1 0x4 CALLDATASIZE LT PUSH1 0x28 JUMPI PUSH1 0x0 CALLDATALOAD PUSH1 0xE0 SHR DUP1 PUSH4 0x48159181 EQ PUSH1 0x2D JUMPI JUMPDEST PUSH1 0x0 DUP1 REVERT JUMPDEST PUSH1 0x33 PUSH1 0x47 JUMP JUMPDEST PUSH1 0x40 MLOAD PUSH1 0x3E SWAP2 SWAP1 PUSH1 0x67 JUMP JUMPDEST PUSH1 0x40 MLOAD DUP1 SWAP2 SUB SWAP1 RETURN JUMPDEST PUSH1 0x0 DUP1 SLOAD SWAP1 POP SWAP1 JUMP JUMPDEST PUSH1 0x0 DUP2 SWAP1 POP SWAP2 SWAP1 POP JUMP JUMPDEST PUSH1 0x61 DUP2 PUSH1 0x50 JUMP JUMPDEST DUP3 MSTORE POP POP JUMP JUMPDEST PUSH1 0x0 PUSH1 0x20 DUP3 ADD SWAP1 POP PUSH1 0x7A PUSH1 0x0 DUP4 ADD DUP5 PUSH1 0x5A JUMP JUMPDEST SWAP3 SWAP2 POP POP JUMP INVALID LOG2 PUSH5 0x6970667358 0x22 SLT KECCAK256 0xED 0xB0 0xF7 DIV 0xDD 0x26 0xDD SWAP4 PUSH6 0x9DB94D6BDFA5 0xC3 0xC4 DUP8 PUSH15 0x3890D3B6E6C30CAB19DC487DE46473 PUSH16 0x6C634300081200330000000000000000 "
				},
				"gasEstimates": {
					"creation": {
						"codeDepositCost": "36400",
						"executionCost": "22193",
						"totalCost": "58593"
					},
					"external": {
						"get_a()": "2415"
					}
				},
				"methodIdentifiers": {
					"get_a()": "48159181"
				}
			},
			"storageLayout": {
				"storage": [
					{
						"astId": 75,
						"contract": "lecture/04_접근제한자.sol:external_example",
						"label": "a",
						"offset": 0,
						"slot": "0",
						"type": "t_uint256"
					}
				],
				"types": {
					"t_uint256": {
						"encoding": "inplace",
						"label": "uint256",
						"numberOfBytes": "32"
					}
				}
			},
			"userdoc": {
				"kind": "user",
				"methods": {},
				"version": 1
			}
		}
	}
}