{
	"lecture/04_접근제한자.sol": {
		"Public_example": {
			"abi": [
				{
					"inputs": [],
					"name": "a",
					"outputs": [
						{
							"internalType": "uint256",
							"name": "",
							"type": "uint256"
						}
					],
					"stateMutability": "view",
					"type": "function"
				},
				{
					"inputs": [
						{
							"internalType": "uint256",
							"name": "_value",
							"type": "uint256"
						}
					],
					"name": "changeA",
					"outputs": [],
					"stateMutability": "nonpayable",
					"type": "function"
				},
				{
					"inputs": [],
					"name": "get_a",
					"outputs": [
						{
							"internalType": "uint256",
							"name": "",
							"type": "uint256"
						}
					],
					"stateMutability": "view",
					"type": "function"
				}
			],
			"devdoc": {
				"kind": "dev",
				"methods": {},
				"version": 1
			},
			"evm": {
				"assembly": "    /* \"lecture/04_\\xec\\xa0\\x91\\xea\\xb7\\xbc\\xec\\xa0\\x9c\\xed\\x95\\x9c\\xec\\x9e\\x90.sol\":903:1300  contract Public_example {... */\n  mstore(0x40, 0x80)\n    /* \"lecture/04_\\xec\\xa0\\x91\\xea\\xb7\\xbc\\xec\\xa0\\x9c\\xed\\x95\\x9c\\xec\\x9e\\x90.sol\":990:991  3 */\n  0x03\n    /* \"lecture/04_\\xec\\xa0\\x91\\xea\\xb7\\xbc\\xec\\xa0\\x9c\\xed\\x95\\x9c\\xec\\x9e\\x90.sol\":971:991  uint256 public a = 3 */\n  0x00\n  sstore\n    /* \"lecture/04_\\xec\\xa0\\x91\\xea\\xb7\\xbc\\xec\\xa0\\x9c\\xed\\x95\\x9c\\xec\\x9e\\x90.sol\":903:1300  contract Public_example {... */\n  callvalue\n  dup1\n  iszero\n  tag_1\n  jumpi\n  0x00\n  dup1\n  revert\ntag_1:\n  pop\n  dataSize(sub_0)\n  dup1\n  dataOffset(sub_0)\n  0x00\n  codecopy\n  0x00\n  return\nstop\n\nsub_0: assembly {\n        /* \"lecture/04_\\xec\\xa0\\x91\\xea\\xb7\\xbc\\xec\\xa0\\x9c\\xed\\x95\\x9c\\xec\\x9e\\x90.sol\":903:1300  contract Public_example {... */\n      mstore(0x40, 0x80)\n      callvalue\n      dup1\n      iszero\n      tag_1\n      jumpi\n      0x00\n      dup1\n      revert\n    tag_1:\n      pop\n      jumpi(tag_2, lt(calldatasize, 0x04))\n      shr(0xe0, calldataload(0x00))\n      dup1\n      0x0dbe671f\n      eq\n      tag_3\n      jumpi\n      dup1\n      0x48159181\n      eq\n      tag_4\n      jumpi\n      dup1\n      0xfcbfcc71\n      eq\n      tag_5\n      jumpi\n    tag_2:\n      0x00\n      dup1\n      revert\n        /* \"lecture/04_\\xec\\xa0\\x91\\xea\\xb7\\xbc\\xec\\xa0\\x9c\\xed\\x95\\x9c\\xec\\x9e\\x90.sol\":971:991  uint256 public a = 3 */\n    tag_3:\n      tag_6\n      tag_7\n      jump\t// in\n    tag_6:\n      mload(0x40)\n      tag_8\n      swap2\n      swap1\n      tag_9\n      jump\t// in\n    tag_8:\n      mload(0x40)\n      dup1\n      swap2\n      sub\n      swap1\n      return\n        /* \"lecture/04_\\xec\\xa0\\x91\\xea\\xb7\\xbc\\xec\\xa0\\x9c\\xed\\x95\\x9c\\xec\\x9e\\x90.sol\":1225:1298  function get_a() view public returns (uint256)  {... */\n    tag_4:\n      tag_10\n      tag_11\n      jump\t// in\n    tag_10:\n      mload(0x40)\n      tag_12\n      swap2\n      swap1\n      tag_9\n      jump\t// in\n    tag_12:\n      mload(0x40)\n      dup1\n      swap2\n      sub\n      swap1\n      return\n        /* \"lecture/04_\\xec\\xa0\\x91\\xea\\xb7\\xbc\\xec\\xa0\\x9c\\xed\\x95\\x9c\\xec\\x9e\\x90.sol\":1082:1149  function changeA(uint256 _value) public  {... */\n    tag_5:\n      tag_13\n      0x04\n      dup1\n      calldatasize\n      sub\n      dup2\n      add\n      swap1\n      tag_14\n      swap2\n      swap1\n      tag_15\n      jump\t// in\n    tag_14:\n      tag_16\n      jump\t// in\n    tag_13:\n      stop\n        /* \"lecture/04_\\xec\\xa0\\x91\\xea\\xb7\\xbc\\xec\\xa0\\x9c\\xed\\x95\\x9c\\xec\\x9e\\x90.sol\":971:991  uint256 public a = 3 */\n    tag_7:\n      sload(0x00)\n      dup2\n      jump\t// out\n        /* \"lecture/04_\\xec\\xa0\\x91\\xea\\xb7\\xbc\\xec\\xa0\\x9c\\xed\\x95\\x9c\\xec\\x9e\\x90.sol\":1225:1298  function get_a() view public returns (uint256)  {... */\n    tag_11:\n        /* \"lecture/04_\\xec\\xa0\\x91\\xea\\xb7\\xbc\\xec\\xa0\\x9c\\xed\\x95\\x9c\\xec\\x9e\\x90.sol\":1263:1270  uint256 */\n      0x00\n        /* \"lecture/04_\\xec\\xa0\\x91\\xea\\xb7\\xbc\\xec\\xa0\\x9c\\xed\\x95\\x9c\\xec\\x9e\\x90.sol\":1290:1291  a */\n      dup1\n      sload\n        /* \"lecture/04_\\xec\\xa0\\x91\\xea\\xb7\\xbc\\xec\\xa0\\x9c\\xed\\x95\\x9c\\xec\\x9e\\x90.sol\":1283:1291  return a */\n      swap1\n      pop\n        /* \"lecture/04_\\xec\\xa0\\x91\\xea\\xb7\\xbc\\xec\\xa0\\x9c\\xed\\x95\\x9c\\xec\\x9e\\x90.sol\":1225:1298  function get_a() view public returns (uint256)  {... */\n      swap1\n      jump\t// out\n        /* \"lecture/04_\\xec\\xa0\\x91\\xea\\xb7\\xbc\\xec\\xa0\\x9c\\xed\\x95\\x9c\\xec\\x9e\\x90.sol\":1082:1149  function changeA(uint256 _value) public  {... */\n    tag_16:\n        /* \"lecture/04_\\xec\\xa0\\x91\\xea\\xb7\\xbc\\xec\\xa0\\x9c\\xed\\x95\\x9c\\xec\\x9e\\x90.sol\":1136:1142  _value */\n      dup1\n        /* \"lecture/04_\\xec\\xa0\\x91\\xea\\xb7\\xbc\\xec\\xa0\\x9c\\xed\\x95\\x9c\\xec\\x9e\\x90.sol\":1133:1134  a */\n      0x00\n        /* \"lecture/04_\\xec\\xa0\\x91\\xea\\xb7\\xbc\\xec\\xa0\\x9c\\xed\\x95\\x9c\\xec\\x9e\\x90.sol\":1133:1142  a =_value */\n      dup2\n      swap1\n      sstore\n      pop\n        /* \"lecture/04_\\xec\\xa0\\x91\\xea\\xb7\\xbc\\xec\\xa0\\x9c\\xed\\x95\\x9c\\xec\\x9e\\x90.sol\":1082:1149  function changeA(uint256 _value) public  {... */\n      pop\n      jump\t// out\n        /* \"#utility.yul\":7:84   */\n    tag_19:\n        /* \"#utility.yul\":44:51   */\n      0x00\n        /* \"#utility.yul\":73:78   */\n      dup2\n        /* \"#utility.yul\":62:78   */\n      swap1\n      pop\n        /* \"#utility.yul\":7:84   */\n      swap2\n      swap1\n      pop\n      jump\t// out\n        /* \"#utility.yul\":90:208   */\n    tag_20:\n        /* \"#utility.yul\":177:201   */\n      tag_29\n        /* \"#utility.yul\":195:200   */\n      dup2\n        /* \"#utility.yul\":177:201   */\n      tag_19\n      jump\t// in\n    tag_29:\n        /* \"#utility.yul\":172:175   */\n      dup3\n        /* \"#utility.yul\":165:202   */\n      mstore\n        /* \"#utility.yul\":90:208   */\n      pop\n      pop\n      jump\t// out\n        /* \"#utility.yul\":214:436   */\n    tag_9:\n        /* \"#utility.yul\":307:311   */\n      0x00\n        /* \"#utility.yul\":345:347   */\n      0x20\n        /* \"#utility.yul\":334:343   */\n      dup3\n        /* \"#utility.yul\":330:348   */\n      add\n        /* \"#utility.yul\":322:348   */\n      swap1\n      pop\n        /* \"#utility.yul\":358:429   */\n      tag_31\n        /* \"#utility.yul\":426:427   */\n      0x00\n        /* \"#utility.yul\":415:424   */\n      dup4\n        /* \"#utility.yul\":411:428   */\n      add\n        /* \"#utility.yul\":402:408   */\n      dup5\n        /* \"#utility.yul\":358:429   */\n      tag_20\n      jump\t// in\n    tag_31:\n        /* \"#utility.yul\":214:436   */\n      swap3\n      swap2\n      pop\n      pop\n      jump\t// out\n        /* \"#utility.yul\":523:640   */\n    tag_22:\n        /* \"#utility.yul\":632:633   */\n      0x00\n        /* \"#utility.yul\":629:630   */\n      dup1\n        /* \"#utility.yul\":622:634   */\n      revert\n        /* \"#utility.yul\":769:891   */\n    tag_24:\n        /* \"#utility.yul\":842:866   */\n      tag_36\n        /* \"#utility.yul\":860:865   */\n      dup2\n        /* \"#utility.yul\":842:866   */\n      tag_19\n      jump\t// in\n    tag_36:\n        /* \"#utility.yul\":835:840   */\n      dup2\n        /* \"#utility.yul\":832:867   */\n      eq\n        /* \"#utility.yul\":822:885   */\n      tag_37\n      jumpi\n        /* \"#utility.yul\":881:882   */\n      0x00\n        /* \"#utility.yul\":878:879   */\n      dup1\n        /* \"#utility.yul\":871:883   */\n      revert\n        /* \"#utility.yul\":822:885   */\n    tag_37:\n        /* \"#utility.yul\":769:891   */\n      pop\n      jump\t// out\n        /* \"#utility.yul\":897:1036   */\n    tag_25:\n        /* \"#utility.yul\":943:948   */\n      0x00\n        /* \"#utility.yul\":981:987   */\n      dup2\n        /* \"#utility.yul\":968:988   */\n      calldataload\n        /* \"#utility.yul\":959:988   */\n      swap1\n      pop\n        /* \"#utility.yul\":997:1030   */\n      tag_39\n        /* \"#utility.yul\":1024:1029   */\n      dup2\n        /* \"#utility.yul\":997:1030   */\n      tag_24\n      jump\t// in\n    tag_39:\n        /* \"#utility.yul\":897:1036   */\n      swap3\n      swap2\n      pop\n      pop\n      jump\t// out\n        /* \"#utility.yul\":1042:1371   */\n    tag_15:\n        /* \"#utility.yul\":1101:1107   */\n      0x00\n        /* \"#utility.yul\":1150:1152   */\n      0x20\n        /* \"#utility.yul\":1138:1147   */\n      dup3\n        /* \"#utility.yul\":1129:1136   */\n      dup5\n        /* \"#utility.yul\":1125:1148   */\n      sub\n        /* \"#utility.yul\":1121:1153   */\n      slt\n        /* \"#utility.yul\":1118:1237   */\n      iszero\n      tag_41\n      jumpi\n        /* \"#utility.yul\":1156:1235   */\n      tag_42\n      tag_22\n      jump\t// in\n    tag_42:\n        /* \"#utility.yul\":1118:1237   */\n    tag_41:\n        /* \"#utility.yul\":1276:1277   */\n      0x00\n        /* \"#utility.yul\":1301:1354   */\n      tag_43\n        /* \"#utility.yul\":1346:1353   */\n      dup5\n        /* \"#utility.yul\":1337:1343   */\n      dup3\n        /* \"#utility.yul\":1326:1335   */\n      dup6\n        /* \"#utility.yul\":1322:1344   */\n      add\n        /* \"#utility.yul\":1301:1354   */\n      tag_25\n      jump\t// in\n    tag_43:\n        /* \"#utility.yul\":1291:1354   */\n      swap2\n      pop\n        /* \"#utility.yul\":1247:1364   */\n      pop\n        /* \"#utility.yul\":1042:1371   */\n      swap3\n      swap2\n      pop\n      pop\n      jump\t// out\n\n    auxdata: 0xa26469706673582212203e281319e282be338b46fdc880f3297cd7a9e77b130e22cd284101d8d61aed9164736f6c63430008120033\n}\n",
				"bytecode": {
					"linkReferences": {},
					"object": "6080604052600360005534801561001557600080fd5b5061017f806100256000396000f3fe608060405234801561001057600080fd5b50600436106100415760003560e01c80630dbe671f146100465780634815918114610064578063fcbfcc7114610082575b600080fd5b61004e61009e565b60405161005b91906100d0565b60405180910390f35b61006c6100a4565b60405161007991906100d0565b60405180910390f35b61009c6004803603810190610097919061011c565b6100ad565b005b60005481565b60008054905090565b8060008190555050565b6000819050919050565b6100ca816100b7565b82525050565b60006020820190506100e560008301846100c1565b92915050565b600080fd5b6100f9816100b7565b811461010457600080fd5b50565b600081359050610116816100f0565b92915050565b600060208284031215610132576101316100eb565b5b600061014084828501610107565b9150509291505056fea26469706673582212203e281319e282be338b46fdc880f3297cd7a9e77b130e22cd284101d8d61aed9164736f6c63430008120033",
					"opcodes": "PUSH1 0x80 PUSH1 0x40 MSTORE PUSH1 0x3 PUSH1 0x0 SSTORE CALLVALUE DUP1 ISZERO PUSH2 0x15 JUMPI PUSH1 0x0 DUP1 REVERT JUMPDEST POP PUSH2 0x17F DUP1 PUSH2 0x25 PUSH1 0x0 CODECOPY PUSH1 0x0 RETURN INVALID PUSH1 0x80 PUSH1 0x40 MSTORE CALLVALUE DUP1 ISZERO PUSH2 0x10 JUMPI PUSH1 0x0 DUP1 REVERT JUMPDEST POP PUSH1 0x4 CALLDATASIZE LT PUSH2 0x41 JUMPI PUSH1 0x0 CALLDATALOAD PUSH1 0xE0 SHR DUP1 PUSH4 0xDBE671F EQ PUSH2 0x46 JUMPI DUP1 PUSH4 0x48159181 EQ PUSH2 0x64 JUMPI DUP1 PUSH4 0xFCBFCC71 EQ PUSH2 0x82 JUMPI JUMPDEST PUSH1 0x0 DUP1 REVERT JUMPDEST PUSH2 0x4E PUSH2 0x9E JUMP JUMPDEST PUSH1 0x40 MLOAD PUSH2 0x5B SWAP2 SWAP1 PUSH2 0xD0 JUMP JUMPDEST PUSH1 0x40 MLOAD DUP1 SWAP2 SUB SWAP1 RETURN JUMPDEST PUSH2 0x6C PUSH2 0xA4 JUMP JUMPDEST PUSH1 0x40 MLOAD PUSH2 0x79 SWAP2 SWAP1 PUSH2 0xD0 JUMP JUMPDEST PUSH1 0x40 MLOAD DUP1 SWAP2 SUB SWAP1 RETURN JUMPDEST PUSH2 0x9C PUSH1 0x4 DUP1 CALLDATASIZE SUB DUP2 ADD SWAP1 PUSH2 0x97 SWAP2 SWAP1 PUSH2 0x11C JUMP JUMPDEST PUSH2 0xAD JUMP JUMPDEST STOP JUMPDEST PUSH1 0x0 SLOAD DUP2 JUMP JUMPDEST PUSH1 0x0 DUP1 SLOAD SWAP1 POP SWAP1 JUMP JUMPDEST DUP1 PUSH1 0x0 DUP2 SWAP1 SSTORE POP POP JUMP JUMPDEST PUSH1 0x0 DUP2 SWAP1 POP SWAP2 SWAP1 POP JUMP JUMPDEST PUSH2 0xCA DUP2 PUSH2 0xB7 JUMP JUMPDEST DUP3 MSTORE POP POP JUMP JUMPDEST PUSH1 0x0 PUSH1 0x20 DUP3 ADD SWAP1 POP PUSH2 0xE5 PUSH1 0x0 DUP4 ADD DUP5 PUSH2 0xC1 JUMP JUMPDEST SWAP3 SWAP2 POP POP JUMP JUMPDEST PUSH1 0x0 DUP1 REVERT JUMPDEST PUSH2 0xF9 DUP2 PUSH2 0xB7 JUMP JUMPDEST DUP2 EQ PUSH2 0x104 JUMPI PUSH1 0x0 DUP1 REVERT JUMPDEST POP JUMP JUMPDEST PUSH1 0x0 DUP2 CALLDATALOAD SWAP1 POP PUSH2 0x116 DUP2 PUSH2 0xF0 JUMP JUMPDEST SWAP3 SWAP2 POP POP JUMP JUMPDEST PUSH1 0x0 PUSH1 0x20 DUP3 DUP5 SUB SLT ISZERO PUSH2 0x132 JUMPI PUSH2 0x131 PUSH2 0xEB JUMP JUMPDEST JUMPDEST PUSH1 0x0 PUSH2 0x140 DUP5 DUP3 DUP6 ADD PUSH2 0x107 JUMP JUMPDEST SWAP2 POP POP SWAP3 SWAP2 POP POP JUMP INVALID LOG2 PUSH5 0x6970667358 0x22 SLT KECCAK256 RETURNDATACOPY 0x28 SGT NOT 0xE2 DUP3 0xBE CALLER DUP12 CHAINID REVERT 0xC8 DUP1 RETURN 0x29 PUSH29 0xD7A9E77B130E22CD284101D8D61AED9164736F6C634300081200330000 "
				},
				"gasEstimates": {
					"creation": {
						"codeDepositCost": "76600",
						"executionCost": "22229",
						"totalCost": "98829"
					},
					"external": {
						"a()": "2407",
						"changeA(uint256)": "22542",
						"get_a()": "2437"
					}
				},
				"methodIdentifiers": {
					"a()": "0dbe671f",
					"changeA(uint256)": "fcbfcc71",
					"get_a()": "48159181"
				}
			},
			"storageLayout": {
				"storage": [
					{
						"astId": 11,
						"contract": "lecture/04_접근제한자.sol:Public_example",
						"label": "a",
						"offset": 0,
						"slot": "0",
						"type": "t_uint256"
					}
				],
				"types": {
					"t_uint256": {
						"encoding": "inplace",
						"label": "uint256",
						"numberOfBytes": "32"
					}
				}
			},
			"userdoc": {
				"kind": "user",
				"methods": {},
				"version": 1
			}
		}
	}
}