{
	"lecture/04_접근제한자.sol": {
		"Public_example_2": {
			"abi": [
				{
					"inputs": [
						{
							"internalType": "uint256",
							"name": "_value",
							"type": "uint256"
						}
					],
					"name": "changeA_2",
					"outputs": [],
					"stateMutability": "nonpayable",
					"type": "function"
				},
				{
					"inputs": [],
					"name": "use_public_example_a",
					"outputs": [
						{
							"internalType": "uint256",
							"name": "",
							"type": "uint256"
						}
					],
					"stateMutability": "view",
					"type": "function"
				}
			],
			"devdoc": {
				"kind": "dev",
				"methods": {},
				"version": 1
			},
			"evm": {
				"assembly": "    /* \"lecture/04_\\xec\\xa0\\x91\\xea\\xb7\\xbc\\xec\\xa0\\x9c\\xed\\x95\\x9c\\xec\\x9e\\x90.sol\":1302:1842  contract Public_example_2 {... */\n  mstore(0x40, 0x80)\n    /* \"lecture/04_\\xec\\xa0\\x91\\xea\\xb7\\xbc\\xec\\xa0\\x9c\\xed\\x95\\x9c\\xec\\x9e\\x90.sol\":1398:1418  new Public_example() */\n  mload(0x40)\n  tag_1\n  swap1\n  tag_2\n  jump\t// in\ntag_1:\n  mload(0x40)\n  dup1\n  swap2\n  sub\n  swap1\n  0x00\n  create\n  dup1\n  iszero\n  dup1\n  iszero\n  tag_3\n  jumpi\n  returndatasize\n  0x00\n  dup1\n  returndatacopy\n  revert(0x00, returndatasize)\ntag_3:\n  pop\n    /* \"lecture/04_\\xec\\xa0\\x91\\xea\\xb7\\xbc\\xec\\xa0\\x9c\\xed\\x95\\x9c\\xec\\x9e\\x90.sol\":1372:1418  Public_example instance = new Public_example() */\n  0x00\n  dup1\n  0x0100\n  exp\n  dup2\n  sload\n  dup2\n  0xffffffffffffffffffffffffffffffffffffffff\n  mul\n  not\n  and\n  swap1\n  dup4\n  0xffffffffffffffffffffffffffffffffffffffff\n  and\n  mul\n  or\n  swap1\n  sstore\n  pop\n    /* \"lecture/04_\\xec\\xa0\\x91\\xea\\xb7\\xbc\\xec\\xa0\\x9c\\xed\\x95\\x9c\\xec\\x9e\\x90.sol\":1302:1842  contract Public_example_2 {... */\n  callvalue\n  dup1\n  iszero\n  tag_4\n  jumpi\n  0x00\n  dup1\n  revert\ntag_4:\n  pop\n  jump(tag_5)\ntag_2:\n  dataSize(sub_1)\n  dup1\n  dataOffset(sub_1)\n  dup4\n  codecopy\n  add\n  swap1\n  jump\t// out\ntag_5:\n  dataSize(sub_0)\n  dup1\n  dataOffset(sub_0)\n  0x00\n  codecopy\n  0x00\n  return\nstop\n\nsub_0: assembly {\n        /* \"lecture/04_\\xec\\xa0\\x91\\xea\\xb7\\xbc\\xec\\xa0\\x9c\\xed\\x95\\x9c\\xec\\x9e\\x90.sol\":1302:1842  contract Public_example_2 {... */\n      mstore(0x40, 0x80)\n      callvalue\n      dup1\n      iszero\n      tag_1\n      jumpi\n      0x00\n      dup1\n      revert\n    tag_1:\n      pop\n      jumpi(tag_2, lt(calldatasize, 0x04))\n      shr(0xe0, calldataload(0x00))\n      dup1\n      0xb51e2a46\n      eq\n      tag_3\n      jumpi\n      dup1\n      0xe9d462a7\n      eq\n      tag_4\n      jumpi\n    tag_2:\n      0x00\n      dup1\n      revert\n        /* \"lecture/04_\\xec\\xa0\\x91\\xea\\xb7\\xbc\\xec\\xa0\\x9c\\xed\\x95\\x9c\\xec\\x9e\\x90.sol\":1539:1619  function changeA_2(uint256 _value) public{... */\n    tag_3:\n      tag_5\n      0x04\n      dup1\n      calldatasize\n      sub\n      dup2\n      add\n      swap1\n      tag_6\n      swap2\n      swap1\n      tag_7\n      jump\t// in\n    tag_6:\n      tag_8\n      jump\t// in\n    tag_5:\n      stop\n        /* \"lecture/04_\\xec\\xa0\\x91\\xea\\xb7\\xbc\\xec\\xa0\\x9c\\xed\\x95\\x9c\\xec\\x9e\\x90.sol\":1737:1840  function use_public_example_a() view public returns (uint256)  {... */\n    tag_4:\n      tag_9\n      tag_10\n      jump\t// in\n    tag_9:\n      mload(0x40)\n      tag_11\n      swap2\n      swap1\n      tag_12\n      jump\t// in\n    tag_11:\n      mload(0x40)\n      dup1\n      swap2\n      sub\n      swap1\n      return\n        /* \"lecture/04_\\xec\\xa0\\x91\\xea\\xb7\\xbc\\xec\\xa0\\x9c\\xed\\x95\\x9c\\xec\\x9e\\x90.sol\":1539:1619  function changeA_2(uint256 _value) public{... */\n    tag_8:\n        /* \"lecture/04_\\xec\\xa0\\x91\\xea\\xb7\\xbc\\xec\\xa0\\x9c\\xed\\x95\\x9c\\xec\\x9e\\x90.sol\":1588:1596  instance */\n      0x00\n      dup1\n      sload\n      swap1\n      0x0100\n      exp\n      swap1\n      div\n      0xffffffffffffffffffffffffffffffffffffffff\n      and\n        /* \"lecture/04_\\xec\\xa0\\x91\\xea\\xb7\\xbc\\xec\\xa0\\x9c\\xed\\x95\\x9c\\xec\\x9e\\x90.sol\":1588:1604  instance.changeA */\n      0xffffffffffffffffffffffffffffffffffffffff\n      and\n      0xfcbfcc71\n        /* \"lecture/04_\\xec\\xa0\\x91\\xea\\xb7\\xbc\\xec\\xa0\\x9c\\xed\\x95\\x9c\\xec\\x9e\\x90.sol\":1605:1611  _value */\n      dup3\n        /* \"lecture/04_\\xec\\xa0\\x91\\xea\\xb7\\xbc\\xec\\xa0\\x9c\\xed\\x95\\x9c\\xec\\x9e\\x90.sol\":1588:1612  instance.changeA(_value) */\n      mload(0x40)\n      dup3\n      0xffffffff\n      and\n      0xe0\n      shl\n      dup2\n      mstore\n      0x04\n      add\n      tag_14\n      swap2\n      swap1\n      tag_12\n      jump\t// in\n    tag_14:\n      0x00\n      mload(0x40)\n      dup1\n      dup4\n      sub\n      dup2\n      0x00\n      dup8\n      dup1\n      extcodesize\n      iszero\n      dup1\n      iszero\n      tag_15\n      jumpi\n      0x00\n      dup1\n      revert\n    tag_15:\n      pop\n      gas\n      call\n      iszero\n      dup1\n      iszero\n      tag_17\n      jumpi\n      returndatasize\n      0x00\n      dup1\n      returndatacopy\n      revert(0x00, returndatasize)\n    tag_17:\n      pop\n      pop\n      pop\n      pop\n        /* \"lecture/04_\\xec\\xa0\\x91\\xea\\xb7\\xbc\\xec\\xa0\\x9c\\xed\\x95\\x9c\\xec\\x9e\\x90.sol\":1539:1619  function changeA_2(uint256 _value) public{... */\n      pop\n      jump\t// out\n        /* \"lecture/04_\\xec\\xa0\\x91\\xea\\xb7\\xbc\\xec\\xa0\\x9c\\xed\\x95\\x9c\\xec\\x9e\\x90.sol\":1737:1840  function use_public_example_a() view public returns (uint256)  {... */\n    tag_10:\n        /* \"lecture/04_\\xec\\xa0\\x91\\xea\\xb7\\xbc\\xec\\xa0\\x9c\\xed\\x95\\x9c\\xec\\x9e\\x90.sol\":1790:1797  uint256 */\n      0x00\n        /* \"lecture/04_\\xec\\xa0\\x91\\xea\\xb7\\xbc\\xec\\xa0\\x9c\\xed\\x95\\x9c\\xec\\x9e\\x90.sol\":1817:1825  instance */\n      dup1\n      0x00\n      swap1\n      sload\n      swap1\n      0x0100\n      exp\n      swap1\n      div\n      0xffffffffffffffffffffffffffffffffffffffff\n      and\n        /* \"lecture/04_\\xec\\xa0\\x91\\xea\\xb7\\xbc\\xec\\xa0\\x9c\\xed\\x95\\x9c\\xec\\x9e\\x90.sol\":1817:1831  instance.get_a */\n      0xffffffffffffffffffffffffffffffffffffffff\n      and\n      0x48159181\n        /* \"lecture/04_\\xec\\xa0\\x91\\xea\\xb7\\xbc\\xec\\xa0\\x9c\\xed\\x95\\x9c\\xec\\x9e\\x90.sol\":1817:1833  instance.get_a() */\n      mload(0x40)\n      dup2\n      0xffffffff\n      and\n      0xe0\n      shl\n      dup2\n      mstore\n      0x04\n      add\n      0x20\n      mload(0x40)\n      dup1\n      dup4\n      sub\n      dup2\n      dup7\n      gas\n      staticcall\n      iszero\n      dup1\n      iszero\n      tag_20\n      jumpi\n      returndatasize\n      0x00\n      dup1\n      returndatacopy\n      revert(0x00, returndatasize)\n    tag_20:\n      pop\n      pop\n      pop\n      pop\n      mload(0x40)\n      returndatasize\n      not(0x1f)\n      0x1f\n      dup3\n      add\n      and\n      dup3\n      add\n      dup1\n      0x40\n      mstore\n      pop\n      dup2\n      add\n      swap1\n      tag_21\n      swap2\n      swap1\n      tag_22\n      jump\t// in\n    tag_21:\n        /* \"lecture/04_\\xec\\xa0\\x91\\xea\\xb7\\xbc\\xec\\xa0\\x9c\\xed\\x95\\x9c\\xec\\x9e\\x90.sol\":1810:1833  return instance.get_a() */\n      swap1\n      pop\n        /* \"lecture/04_\\xec\\xa0\\x91\\xea\\xb7\\xbc\\xec\\xa0\\x9c\\xed\\x95\\x9c\\xec\\x9e\\x90.sol\":1737:1840  function use_public_example_a() view public returns (uint256)  {... */\n      swap1\n      jump\t// out\n        /* \"#utility.yul\":88:205   */\n    tag_24:\n        /* \"#utility.yul\":197:198   */\n      0x00\n        /* \"#utility.yul\":194:195   */\n      dup1\n        /* \"#utility.yul\":187:199   */\n      revert\n        /* \"#utility.yul\":334:411   */\n    tag_26:\n        /* \"#utility.yul\":371:378   */\n      0x00\n        /* \"#utility.yul\":400:405   */\n      dup2\n        /* \"#utility.yul\":389:405   */\n      swap1\n      pop\n        /* \"#utility.yul\":334:411   */\n      swap2\n      swap1\n      pop\n      jump\t// out\n        /* \"#utility.yul\":417:539   */\n    tag_27:\n        /* \"#utility.yul\":490:514   */\n      tag_37\n        /* \"#utility.yul\":508:513   */\n      dup2\n        /* \"#utility.yul\":490:514   */\n      tag_26\n      jump\t// in\n    tag_37:\n        /* \"#utility.yul\":483:488   */\n      dup2\n        /* \"#utility.yul\":480:515   */\n      eq\n        /* \"#utility.yul\":470:533   */\n      tag_38\n      jumpi\n        /* \"#utility.yul\":529:530   */\n      0x00\n        /* \"#utility.yul\":526:527   */\n      dup1\n        /* \"#utility.yul\":519:531   */\n      revert\n        /* \"#utility.yul\":470:533   */\n    tag_38:\n        /* \"#utility.yul\":417:539   */\n      pop\n      jump\t// out\n        /* \"#utility.yul\":545:684   */\n    tag_28:\n        /* \"#utility.yul\":591:596   */\n      0x00\n        /* \"#utility.yul\":629:635   */\n      dup2\n        /* \"#utility.yul\":616:636   */\n      calldataload\n        /* \"#utility.yul\":607:636   */\n      swap1\n      pop\n        /* \"#utility.yul\":645:678   */\n      tag_40\n        /* \"#utility.yul\":672:677   */\n      dup2\n        /* \"#utility.yul\":645:678   */\n      tag_27\n      jump\t// in\n    tag_40:\n        /* \"#utility.yul\":545:684   */\n      swap3\n      swap2\n      pop\n      pop\n      jump\t// out\n        /* \"#utility.yul\":690:1019   */\n    tag_7:\n        /* \"#utility.yul\":749:755   */\n      0x00\n        /* \"#utility.yul\":798:800   */\n      0x20\n        /* \"#utility.yul\":786:795   */\n      dup3\n        /* \"#utility.yul\":777:784   */\n      dup5\n        /* \"#utility.yul\":773:796   */\n      sub\n        /* \"#utility.yul\":769:801   */\n      slt\n        /* \"#utility.yul\":766:885   */\n      iszero\n      tag_42\n      jumpi\n        /* \"#utility.yul\":804:883   */\n      tag_43\n      tag_24\n      jump\t// in\n    tag_43:\n        /* \"#utility.yul\":766:885   */\n    tag_42:\n        /* \"#utility.yul\":924:925   */\n      0x00\n        /* \"#utility.yul\":949:1002   */\n      tag_44\n        /* \"#utility.yul\":994:1001   */\n      dup5\n        /* \"#utility.yul\":985:991   */\n      dup3\n        /* \"#utility.yul\":974:983   */\n      dup6\n        /* \"#utility.yul\":970:992   */\n      add\n        /* \"#utility.yul\":949:1002   */\n      tag_28\n      jump\t// in\n    tag_44:\n        /* \"#utility.yul\":939:1002   */\n      swap2\n      pop\n        /* \"#utility.yul\":895:1012   */\n      pop\n        /* \"#utility.yul\":690:1019   */\n      swap3\n      swap2\n      pop\n      pop\n      jump\t// out\n        /* \"#utility.yul\":1025:1143   */\n    tag_29:\n        /* \"#utility.yul\":1112:1136   */\n      tag_46\n        /* \"#utility.yul\":1130:1135   */\n      dup2\n        /* \"#utility.yul\":1112:1136   */\n      tag_26\n      jump\t// in\n    tag_46:\n        /* \"#utility.yul\":1107:1110   */\n      dup3\n        /* \"#utility.yul\":1100:1137   */\n      mstore\n        /* \"#utility.yul\":1025:1143   */\n      pop\n      pop\n      jump\t// out\n        /* \"#utility.yul\":1149:1371   */\n    tag_12:\n        /* \"#utility.yul\":1242:1246   */\n      0x00\n        /* \"#utility.yul\":1280:1282   */\n      0x20\n        /* \"#utility.yul\":1269:1278   */\n      dup3\n        /* \"#utility.yul\":1265:1283   */\n      add\n        /* \"#utility.yul\":1257:1283   */\n      swap1\n      pop\n        /* \"#utility.yul\":1293:1364   */\n      tag_48\n        /* \"#utility.yul\":1361:1362   */\n      0x00\n        /* \"#utility.yul\":1350:1359   */\n      dup4\n        /* \"#utility.yul\":1346:1363   */\n      add\n        /* \"#utility.yul\":1337:1343   */\n      dup5\n        /* \"#utility.yul\":1293:1364   */\n      tag_29\n      jump\t// in\n    tag_48:\n        /* \"#utility.yul\":1149:1371   */\n      swap3\n      swap2\n      pop\n      pop\n      jump\t// out\n        /* \"#utility.yul\":1377:1520   */\n    tag_30:\n        /* \"#utility.yul\":1434:1439   */\n      0x00\n        /* \"#utility.yul\":1465:1471   */\n      dup2\n        /* \"#utility.yul\":1459:1472   */\n      mload\n        /* \"#utility.yul\":1450:1472   */\n      swap1\n      pop\n        /* \"#utility.yul\":1481:1514   */\n      tag_50\n        /* \"#utility.yul\":1508:1513   */\n      dup2\n        /* \"#utility.yul\":1481:1514   */\n      tag_27\n      jump\t// in\n    tag_50:\n        /* \"#utility.yul\":1377:1520   */\n      swap3\n      swap2\n      pop\n      pop\n      jump\t// out\n        /* \"#utility.yul\":1526:1877   */\n    tag_22:\n        /* \"#utility.yul\":1596:1602   */\n      0x00\n        /* \"#utility.yul\":1645:1647   */\n      0x20\n        /* \"#utility.yul\":1633:1642   */\n      dup3\n        /* \"#utility.yul\":1624:1631   */\n      dup5\n        /* \"#utility.yul\":1620:1643   */\n      sub\n        /* \"#utility.yul\":1616:1648   */\n      slt\n        /* \"#utility.yul\":1613:1732   */\n      iszero\n      tag_52\n      jumpi\n        /* \"#utility.yul\":1651:1730   */\n      tag_53\n      tag_24\n      jump\t// in\n    tag_53:\n        /* \"#utility.yul\":1613:1732   */\n    tag_52:\n        /* \"#utility.yul\":1771:1772   */\n      0x00\n        /* \"#utility.yul\":1796:1860   */\n      tag_54\n        /* \"#utility.yul\":1852:1859   */\n      dup5\n        /* \"#utility.yul\":1843:1849   */\n      dup3\n        /* \"#utility.yul\":1832:1841   */\n      dup6\n        /* \"#utility.yul\":1828:1850   */\n      add\n        /* \"#utility.yul\":1796:1860   */\n      tag_30\n      jump\t// in\n    tag_54:\n        /* \"#utility.yul\":1786:1860   */\n      swap2\n      pop\n        /* \"#utility.yul\":1742:1870   */\n      pop\n        /* \"#utility.yul\":1526:1877   */\n      swap3\n      swap2\n      pop\n      pop\n      jump\t// out\n\n    auxdata: 0xa26469706673582212206b2f3516d116b8795a7937e264050daaccb54a8f3d90e31c7aa2ba5419ef4f2864736f6c63430008120033\n}\n\nsub_1: assembly {\n        /* \"lecture/04_\\xec\\xa0\\x91\\xea\\xb7\\xbc\\xec\\xa0\\x9c\\xed\\x95\\x9c\\xec\\x9e\\x90.sol\":903:1300  contract Public_example {... */\n      mstore(0x40, 0x80)\n        /* \"lecture/04_\\xec\\xa0\\x91\\xea\\xb7\\xbc\\xec\\xa0\\x9c\\xed\\x95\\x9c\\xec\\x9e\\x90.sol\":990:991  3 */\n      0x03\n        /* \"lecture/04_\\xec\\xa0\\x91\\xea\\xb7\\xbc\\xec\\xa0\\x9c\\xed\\x95\\x9c\\xec\\x9e\\x90.sol\":971:991  uint256 public a = 3 */\n      0x00\n      sstore\n        /* \"lecture/04_\\xec\\xa0\\x91\\xea\\xb7\\xbc\\xec\\xa0\\x9c\\xed\\x95\\x9c\\xec\\x9e\\x90.sol\":903:1300  contract Public_example {... */\n      callvalue\n      dup1\n      iszero\n      tag_1\n      jumpi\n      0x00\n      dup1\n      revert\n    tag_1:\n      pop\n      dataSize(sub_0)\n      dup1\n      dataOffset(sub_0)\n      0x00\n      codecopy\n      0x00\n      return\n    stop\n\n    sub_0: assembly {\n            /* \"lecture/04_\\xec\\xa0\\x91\\xea\\xb7\\xbc\\xec\\xa0\\x9c\\xed\\x95\\x9c\\xec\\x9e\\x90.sol\":903:1300  contract Public_example {... */\n          mstore(0x40, 0x80)\n          callvalue\n          dup1\n          iszero\n          tag_1\n          jumpi\n          0x00\n          dup1\n          revert\n        tag_1:\n          pop\n          jumpi(tag_2, lt(calldatasize, 0x04))\n          shr(0xe0, calldataload(0x00))\n          dup1\n          0x0dbe671f\n          eq\n          tag_3\n          jumpi\n          dup1\n          0x48159181\n          eq\n          tag_4\n          jumpi\n          dup1\n          0xfcbfcc71\n          eq\n          tag_5\n          jumpi\n        tag_2:\n          0x00\n          dup1\n          revert\n            /* \"lecture/04_\\xec\\xa0\\x91\\xea\\xb7\\xbc\\xec\\xa0\\x9c\\xed\\x95\\x9c\\xec\\x9e\\x90.sol\":971:991  uint256 public a = 3 */\n        tag_3:\n          tag_6\n          tag_7\n          jump\t// in\n        tag_6:\n          mload(0x40)\n          tag_8\n          swap2\n          swap1\n          tag_9\n          jump\t// in\n        tag_8:\n          mload(0x40)\n          dup1\n          swap2\n          sub\n          swap1\n          return\n            /* \"lecture/04_\\xec\\xa0\\x91\\xea\\xb7\\xbc\\xec\\xa0\\x9c\\xed\\x95\\x9c\\xec\\x9e\\x90.sol\":1225:1298  function get_a() view public returns (uint256)  {... */\n        tag_4:\n          tag_10\n          tag_11\n          jump\t// in\n        tag_10:\n          mload(0x40)\n          tag_12\n          swap2\n          swap1\n          tag_9\n          jump\t// in\n        tag_12:\n          mload(0x40)\n          dup1\n          swap2\n          sub\n          swap1\n          return\n            /* \"lecture/04_\\xec\\xa0\\x91\\xea\\xb7\\xbc\\xec\\xa0\\x9c\\xed\\x95\\x9c\\xec\\x9e\\x90.sol\":1082:1149  function changeA(uint256 _value) public  {... */\n        tag_5:\n          tag_13\n          0x04\n          dup1\n          calldatasize\n          sub\n          dup2\n          add\n          swap1\n          tag_14\n          swap2\n          swap1\n          tag_15\n          jump\t// in\n        tag_14:\n          tag_16\n          jump\t// in\n        tag_13:\n          stop\n            /* \"lecture/04_\\xec\\xa0\\x91\\xea\\xb7\\xbc\\xec\\xa0\\x9c\\xed\\x95\\x9c\\xec\\x9e\\x90.sol\":971:991  uint256 public a = 3 */\n        tag_7:\n          sload(0x00)\n          dup2\n          jump\t// out\n            /* \"lecture/04_\\xec\\xa0\\x91\\xea\\xb7\\xbc\\xec\\xa0\\x9c\\xed\\x95\\x9c\\xec\\x9e\\x90.sol\":1225:1298  function get_a() view public returns (uint256)  {... */\n        tag_11:\n            /* \"lecture/04_\\xec\\xa0\\x91\\xea\\xb7\\xbc\\xec\\xa0\\x9c\\xed\\x95\\x9c\\xec\\x9e\\x90.sol\":1263:1270  uint256 */\n          0x00\n            /* \"lecture/04_\\xec\\xa0\\x91\\xea\\xb7\\xbc\\xec\\xa0\\x9c\\xed\\x95\\x9c\\xec\\x9e\\x90.sol\":1290:1291  a */\n          dup1\n          sload\n            /* \"lecture/04_\\xec\\xa0\\x91\\xea\\xb7\\xbc\\xec\\xa0\\x9c\\xed\\x95\\x9c\\xec\\x9e\\x90.sol\":1283:1291  return a */\n          swap1\n          pop\n            /* \"lecture/04_\\xec\\xa0\\x91\\xea\\xb7\\xbc\\xec\\xa0\\x9c\\xed\\x95\\x9c\\xec\\x9e\\x90.sol\":1225:1298  function get_a() view public returns (uint256)  {... */\n          swap1\n          jump\t// out\n            /* \"lecture/04_\\xec\\xa0\\x91\\xea\\xb7\\xbc\\xec\\xa0\\x9c\\xed\\x95\\x9c\\xec\\x9e\\x90.sol\":1082:1149  function changeA(uint256 _value) public  {... */\n        tag_16:\n            /* \"lecture/04_\\xec\\xa0\\x91\\xea\\xb7\\xbc\\xec\\xa0\\x9c\\xed\\x95\\x9c\\xec\\x9e\\x90.sol\":1136:1142  _value */\n          dup1\n            /* \"lecture/04_\\xec\\xa0\\x91\\xea\\xb7\\xbc\\xec\\xa0\\x9c\\xed\\x95\\x9c\\xec\\x9e\\x90.sol\":1133:1134  a */\n          0x00\n            /* \"lecture/04_\\xec\\xa0\\x91\\xea\\xb7\\xbc\\xec\\xa0\\x9c\\xed\\x95\\x9c\\xec\\x9e\\x90.sol\":1133:1142  a =_value */\n          dup2\n          swap1\n          sstore\n          pop\n            /* \"lecture/04_\\xec\\xa0\\x91\\xea\\xb7\\xbc\\xec\\xa0\\x9c\\xed\\x95\\x9c\\xec\\x9e\\x90.sol\":1082:1149  function changeA(uint256 _value) public  {... */\n          pop\n          jump\t// out\n            /* \"#utility.yul\":7:84   */\n        tag_19:\n            /* \"#utility.yul\":44:51   */\n          0x00\n            /* \"#utility.yul\":73:78   */\n          dup2\n            /* \"#utility.yul\":62:78   */\n          swap1\n          pop\n            /* \"#utility.yul\":7:84   */\n          swap2\n          swap1\n          pop\n          jump\t// out\n            /* \"#utility.yul\":90:208   */\n        tag_20:\n            /* \"#utility.yul\":177:201   */\n          tag_29\n            /* \"#utility.yul\":195:200   */\n          dup2\n            /* \"#utility.yul\":177:201   */\n          tag_19\n          jump\t// in\n        tag_29:\n            /* \"#utility.yul\":172:175   */\n          dup3\n            /* \"#utility.yul\":165:202   */\n          mstore\n            /* \"#utility.yul\":90:208   */\n          pop\n          pop\n          jump\t// out\n            /* \"#utility.yul\":214:436   */\n        tag_9:\n            /* \"#utility.yul\":307:311   */\n          0x00\n            /* \"#utility.yul\":345:347   */\n          0x20\n            /* \"#utility.yul\":334:343   */\n          dup3\n            /* \"#utility.yul\":330:348   */\n          add\n            /* \"#utility.yul\":322:348   */\n          swap1\n          pop\n            /* \"#utility.yul\":358:429   */\n          tag_31\n            /* \"#utility.yul\":426:427   */\n          0x00\n            /* \"#utility.yul\":415:424   */\n          dup4\n            /* \"#utility.yul\":411:428   */\n          add\n            /* \"#utility.yul\":402:408   */\n          dup5\n            /* \"#utility.yul\":358:429   */\n          tag_20\n          jump\t// in\n        tag_31:\n            /* \"#utility.yul\":214:436   */\n          swap3\n          swap2\n          pop\n          pop\n          jump\t// out\n            /* \"#utility.yul\":523:640   */\n        tag_22:\n            /* \"#utility.yul\":632:633   */\n          0x00\n            /* \"#utility.yul\":629:630   */\n          dup1\n            /* \"#utility.yul\":622:634   */\n          revert\n            /* \"#utility.yul\":769:891   */\n        tag_24:\n            /* \"#utility.yul\":842:866   */\n          tag_36\n            /* \"#utility.yul\":860:865   */\n          dup2\n            /* \"#utility.yul\":842:866   */\n          tag_19\n          jump\t// in\n        tag_36:\n            /* \"#utility.yul\":835:840   */\n          dup2\n            /* \"#utility.yul\":832:867   */\n          eq\n            /* \"#utility.yul\":822:885   */\n          tag_37\n          jumpi\n            /* \"#utility.yul\":881:882   */\n          0x00\n            /* \"#utility.yul\":878:879   */\n          dup1\n            /* \"#utility.yul\":871:883   */\n          revert\n            /* \"#utility.yul\":822:885   */\n        tag_37:\n            /* \"#utility.yul\":769:891   */\n          pop\n          jump\t// out\n            /* \"#utility.yul\":897:1036   */\n        tag_25:\n            /* \"#utility.yul\":943:948   */\n          0x00\n            /* \"#utility.yul\":981:987   */\n          dup2\n            /* \"#utility.yul\":968:988   */\n          calldataload\n            /* \"#utility.yul\":959:988   */\n          swap1\n          pop\n            /* \"#utility.yul\":997:1030   */\n          tag_39\n            /* \"#utility.yul\":1024:1029   */\n          dup2\n            /* \"#utility.yul\":997:1030   */\n          tag_24\n          jump\t// in\n        tag_39:\n            /* \"#utility.yul\":897:1036   */\n          swap3\n          swap2\n          pop\n          pop\n          jump\t// out\n            /* \"#utility.yul\":1042:1371   */\n        tag_15:\n            /* \"#utility.yul\":1101:1107   */\n          0x00\n            /* \"#utility.yul\":1150:1152   */\n          0x20\n            /* \"#utility.yul\":1138:1147   */\n          dup3\n            /* \"#utility.yul\":1129:1136   */\n          dup5\n            /* \"#utility.yul\":1125:1148   */\n          sub\n            /* \"#utility.yul\":1121:1153   */\n          slt\n            /* \"#utility.yul\":1118:1237   */\n          iszero\n          tag_41\n          jumpi\n            /* \"#utility.yul\":1156:1235   */\n          tag_42\n          tag_22\n          jump\t// in\n        tag_42:\n            /* \"#utility.yul\":1118:1237   */\n        tag_41:\n            /* \"#utility.yul\":1276:1277   */\n          0x00\n            /* \"#utility.yul\":1301:1354   */\n          tag_43\n            /* \"#utility.yul\":1346:1353   */\n          dup5\n            /* \"#utility.yul\":1337:1343   */\n          dup3\n            /* \"#utility.yul\":1326:1335   */\n          dup6\n            /* \"#utility.yul\":1322:1344   */\n          add\n            /* \"#utility.yul\":1301:1354   */\n          tag_25\n          jump\t// in\n        tag_43:\n            /* \"#utility.yul\":1291:1354   */\n          swap2\n          pop\n            /* \"#utility.yul\":1247:1364   */\n          pop\n            /* \"#utility.yul\":1042:1371   */\n          swap3\n          swap2\n          pop\n          pop\n          jump\t// out\n\n        auxdata: 0xa26469706673582212203e281319e282be338b46fdc880f3297cd7a9e77b130e22cd284101d8d61aed9164736f6c63430008120033\n    }\n}\n",
				"bytecode": {
					"linkReferences": {},
					"object": "60806040526040516100109061007e565b604051809103906000f08015801561002c573d6000803e3d6000fd5b506000806101000a81548173ffffffffffffffffffffffffffffffffffffffff021916908373ffffffffffffffffffffffffffffffffffffffff16021790555034801561007857600080fd5b5061008b565b6101a48061033e83390190565b6102a48061009a6000396000f3fe608060405234801561001057600080fd5b50600436106100365760003560e01c8063b51e2a461461003b578063e9d462a714610057575b600080fd5b610055600480360381019061005091906101d5565b610075565b005b61005f610103565b60405161006c9190610211565b60405180910390f35b60008054906101000a900473ffffffffffffffffffffffffffffffffffffffff1673ffffffffffffffffffffffffffffffffffffffff1663fcbfcc71826040518263ffffffff1660e01b81526004016100ce9190610211565b600060405180830381600087803b1580156100e857600080fd5b505af11580156100fc573d6000803e3d6000fd5b5050505050565b60008060009054906101000a900473ffffffffffffffffffffffffffffffffffffffff1673ffffffffffffffffffffffffffffffffffffffff1663481591816040518163ffffffff1660e01b8152600401602060405180830381865afa158015610171573d6000803e3d6000fd5b505050506040513d601f19601f820116820180604052508101906101959190610241565b905090565b600080fd5b6000819050919050565b6101b28161019f565b81146101bd57600080fd5b50565b6000813590506101cf816101a9565b92915050565b6000602082840312156101eb576101ea61019a565b5b60006101f9848285016101c0565b91505092915050565b61020b8161019f565b82525050565b60006020820190506102266000830184610202565b92915050565b60008151905061023b816101a9565b92915050565b6000602082840312156102575761025661019a565b5b60006102658482850161022c565b9150509291505056fea26469706673582212206b2f3516d116b8795a7937e264050daaccb54a8f3d90e31c7aa2ba5419ef4f2864736f6c634300081200336080604052600360005534801561001557600080fd5b5061017f806100256000396000f3fe608060405234801561001057600080fd5b50600436106100415760003560e01c80630dbe671f146100465780634815918114610064578063fcbfcc7114610082575b600080fd5b61004e61009e565b60405161005b91906100d0565b60405180910390f35b61006c6100a4565b60405161007991906100d0565b60405180910390f35b61009c6004803603810190610097919061011c565b6100ad565b005b60005481565b60008054905090565b8060008190555050565b6000819050919050565b6100ca816100b7565b82525050565b60006020820190506100e560008301846100c1565b92915050565b600080fd5b6100f9816100b7565b811461010457600080fd5b50565b600081359050610116816100f0565b92915050565b600060208284031215610132576101316100eb565b5b600061014084828501610107565b9150509291505056fea26469706673582212203e281319e282be338b46fdc880f3297cd7a9e77b130e22cd284101d8d61aed9164736f6c63430008120033",
					"opcodes": "PUSH1 0x80 PUSH1 0x40 MSTORE PUSH1 0x40 MLOAD PUSH2 0x10 SWAP1 PUSH2 0x7E JUMP JUMPDEST PUSH1 0x40 MLOAD DUP1 SWAP2 SUB SWAP1 PUSH1 0x0 CREATE DUP1 ISZERO DUP1 ISZERO PUSH2 0x2C JUMPI RETURNDATASIZE PUSH1 0x0 DUP1 RETURNDATACOPY RETURNDATASIZE PUSH1 0x0 REVERT JUMPDEST POP PUSH1 0x0 DUP1 PUSH2 0x100 EXP DUP2 SLOAD DUP2 PUSH20 0xFFFFFFFFFFFFFFFFFFFFFFFFFFFFFFFFFFFFFFFF MUL NOT AND SWAP1 DUP4 PUSH20 0xFFFFFFFFFFFFFFFFFFFFFFFFFFFFFFFFFFFFFFFF AND MUL OR SWAP1 SSTORE POP CALLVALUE DUP1 ISZERO PUSH2 0x78 JUMPI PUSH1 0x0 DUP1 REVERT JUMPDEST POP PUSH2 0x8B JUMP JUMPDEST PUSH2 0x1A4 DUP1 PUSH2 0x33E DUP4 CODECOPY ADD SWAP1 JUMP JUMPDEST PUSH2 0x2A4 DUP1 PUSH2 0x9A PUSH1 0x0 CODECOPY PUSH1 0x0 RETURN INVALID PUSH1 0x80 PUSH1 0x40 MSTORE CALLVALUE DUP1 ISZERO PUSH2 0x10 JUMPI PUSH1 0x0 DUP1 REVERT JUMPDEST POP PUSH1 0x4 CALLDATASIZE LT PUSH2 0x36 JUMPI PUSH1 0x0 CALLDATALOAD PUSH1 0xE0 SHR DUP1 PUSH4 0xB51E2A46 EQ PUSH2 0x3B JUMPI DUP1 PUSH4 0xE9D462A7 EQ PUSH2 0x57 JUMPI JUMPDEST PUSH1 0x0 DUP1 REVERT JUMPDEST PUSH2 0x55 PUSH1 0x4 DUP1 CALLDATASIZE SUB DUP2 ADD SWAP1 PUSH2 0x50 SWAP2 SWAP1 PUSH2 0x1D5 JUMP JUMPDEST PUSH2 0x75 JUMP JUMPDEST STOP JUMPDEST PUSH2 0x5F PUSH2 0x103 JUMP JUMPDEST PUSH1 0x40 MLOAD PUSH2 0x6C SWAP2 SWAP1 PUSH2 0x211 JUMP JUMPDEST PUSH1 0x40 MLOAD DUP1 SWAP2 SUB SWAP1 RETURN JUMPDEST PUSH1 0x0 DUP1 SLOAD SWAP1 PUSH2 0x100 EXP SWAP1 DIV PUSH20 0xFFFFFFFFFFFFFFFFFFFFFFFFFFFFFFFFFFFFFFFF AND PUSH20 0xFFFFFFFFFFFFFFFFFFFFFFFFFFFFFFFFFFFFFFFF AND PUSH4 0xFCBFCC71 DUP3 PUSH1 0x40 MLOAD DUP3 PUSH4 0xFFFFFFFF AND PUSH1 0xE0 SHL DUP2 MSTORE PUSH1 0x4 ADD PUSH2 0xCE SWAP2 SWAP1 PUSH2 0x211 JUMP JUMPDEST PUSH1 0x0 PUSH1 0x40 MLOAD DUP1 DUP4 SUB DUP2 PUSH1 0x0 DUP8 DUP1 EXTCODESIZE ISZERO DUP1 ISZERO PUSH2 0xE8 JUMPI PUSH1 0x0 DUP1 REVERT JUMPDEST POP GAS CALL ISZERO DUP1 ISZERO PUSH2 0xFC JUMPI RETURNDATASIZE PUSH1 0x0 DUP1 RETURNDATACOPY RETURNDATASIZE PUSH1 0x0 REVERT JUMPDEST POP POP POP POP POP JUMP JUMPDEST PUSH1 0x0 DUP1 PUSH1 0x0 SWAP1 SLOAD SWAP1 PUSH2 0x100 EXP SWAP1 DIV PUSH20 0xFFFFFFFFFFFFFFFFFFFFFFFFFFFFFFFFFFFFFFFF AND PUSH20 0xFFFFFFFFFFFFFFFFFFFFFFFFFFFFFFFFFFFFFFFF AND PUSH4 0x48159181 PUSH1 0x40 MLOAD DUP2 PUSH4 0xFFFFFFFF AND PUSH1 0xE0 SHL DUP2 MSTORE PUSH1 0x4 ADD PUSH1 0x20 PUSH1 0x40 MLOAD DUP1 DUP4 SUB DUP2 DUP7 GAS STATICCALL ISZERO DUP1 ISZERO PUSH2 0x171 JUMPI RETURNDATASIZE PUSH1 0x0 DUP1 RETURNDATACOPY RETURNDATASIZE PUSH1 0x0 REVERT JUMPDEST POP POP POP POP PUSH1 0x40 MLOAD RETURNDATASIZE PUSH1 0x1F NOT PUSH1 0x1F DUP3 ADD AND DUP3 ADD DUP1 PUSH1 0x40 MSTORE POP DUP2 ADD SWAP1 PUSH2 0x195 SWAP2 SWAP1 PUSH2 0x241 JUMP JUMPDEST SWAP1 POP SWAP1 JUMP JUMPDEST PUSH1 0x0 DUP1 REVERT JUMPDEST PUSH1 0x0 DUP2 SWAP1 POP SWAP2 SWAP1 POP JUMP JUMPDEST PUSH2 0x1B2 DUP2 PUSH2 0x19F JUMP JUMPDEST DUP2 EQ PUSH2 0x1BD JUMPI PUSH1 0x0 DUP1 REVERT JUMPDEST POP JUMP JUMPDEST PUSH1 0x0 DUP2 CALLDATALOAD SWAP1 POP PUSH2 0x1CF DUP2 PUSH2 0x1A9 JUMP JUMPDEST SWAP3 SWAP2 POP POP JUMP JUMPDEST PUSH1 0x0 PUSH1 0x20 DUP3 DUP5 SUB SLT ISZERO PUSH2 0x1EB JUMPI PUSH2 0x1EA PUSH2 0x19A JUMP JUMPDEST JUMPDEST PUSH1 0x0 PUSH2 0x1F9 DUP5 DUP3 DUP6 ADD PUSH2 0x1C0 JUMP JUMPDEST SWAP2 POP POP SWAP3 SWAP2 POP POP JUMP JUMPDEST PUSH2 0x20B DUP2 PUSH2 0x19F JUMP JUMPDEST DUP3 MSTORE POP POP JUMP JUMPDEST PUSH1 0x0 PUSH1 0x20 DUP3 ADD SWAP1 POP PUSH2 0x226 PUSH1 0x0 DUP4 ADD DUP5 PUSH2 0x202 JUMP JUMPDEST SWAP3 SWAP2 POP POP JUMP JUMPDEST PUSH1 0x0 DUP2 MLOAD SWAP1 POP PUSH2 0x23B DUP2 PUSH2 0x1A9 JUMP JUMPDEST SWAP3 SWAP2 POP POP JUMP JUMPDEST PUSH1 0x0 PUSH1 0x20 DUP3 DUP5 SUB SLT ISZERO PUSH2 0x257 JUMPI PUSH2 0x256 PUSH2 0x19A JUMP JUMPDEST JUMPDEST PUSH1 0x0 PUSH2 0x265 DUP5 DUP3 DUP6 ADD PUSH2 0x22C JUMP JUMPDEST SWAP2 POP POP SWAP3 SWAP2 POP POP JUMP INVALID LOG2 PUSH5 0x6970667358 0x22 SLT KECCAK256 PUSH12 0x2F3516D116B8795A7937E264 SDIV 0xD 0xAA 0xCC 0xB5 0x4A DUP16 RETURNDATASIZE SWAP1 0xE3 SHR PUSH27 0xA2BA5419EF4F2864736F6C63430008120033608060405260036000 SSTORE CALLVALUE DUP1 ISZERO PUSH2 0x15 JUMPI PUSH1 0x0 DUP1 REVERT JUMPDEST POP PUSH2 0x17F DUP1 PUSH2 0x25 PUSH1 0x0 CODECOPY PUSH1 0x0 RETURN INVALID PUSH1 0x80 PUSH1 0x40 MSTORE CALLVALUE DUP1 ISZERO PUSH2 0x10 JUMPI PUSH1 0x0 DUP1 REVERT JUMPDEST POP PUSH1 0x4 CALLDATASIZE LT PUSH2 0x41 JUMPI PUSH1 0x0 CALLDATALOAD PUSH1 0xE0 SHR DUP1 PUSH4 0xDBE671F EQ PUSH2 0x46 JUMPI DUP1 PUSH4 0x48159181 EQ PUSH2 0x64 JUMPI DUP1 PUSH4 0xFCBFCC71 EQ PUSH2 0x82 JUMPI JUMPDEST PUSH1 0x0 DUP1 REVERT JUMPDEST PUSH2 0x4E PUSH2 0x9E JUMP JUMPDEST PUSH1 0x40 MLOAD PUSH2 0x5B SWAP2 SWAP1 PUSH2 0xD0 JUMP JUMPDEST PUSH1 0x40 MLOAD DUP1 SWAP2 SUB SWAP1 RETURN JUMPDEST PUSH2 0x6C PUSH2 0xA4 JUMP JUMPDEST PUSH1 0x40 MLOAD PUSH2 0x79 SWAP2 SWAP1 PUSH2 0xD0 JUMP JUMPDEST PUSH1 0x40 MLOAD DUP1 SWAP2 SUB SWAP1 RETURN JUMPDEST PUSH2 0x9C PUSH1 0x4 DUP1 CALLDATASIZE SUB DUP2 ADD SWAP1 PUSH2 0x97 SWAP2 SWAP1 PUSH2 0x11C JUMP JUMPDEST PUSH2 0xAD JUMP JUMPDEST STOP JUMPDEST PUSH1 0x0 SLOAD DUP2 JUMP JUMPDEST PUSH1 0x0 DUP1 SLOAD SWAP1 POP SWAP1 JUMP JUMPDEST DUP1 PUSH1 0x0 DUP2 SWAP1 SSTORE POP POP JUMP JUMPDEST PUSH1 0x0 DUP2 SWAP1 POP SWAP2 SWAP1 POP JUMP JUMPDEST PUSH2 0xCA DUP2 PUSH2 0xB7 JUMP JUMPDEST DUP3 MSTORE POP POP JUMP JUMPDEST PUSH1 0x0 PUSH1 0x20 DUP3 ADD SWAP1 POP PUSH2 0xE5 PUSH1 0x0 DUP4 ADD DUP5 PUSH2 0xC1 JUMP JUMPDEST SWAP3 SWAP2 POP POP JUMP JUMPDEST PUSH1 0x0 DUP1 REVERT JUMPDEST PUSH2 0xF9 DUP2 PUSH2 0xB7 JUMP JUMPDEST DUP2 EQ PUSH2 0x104 JUMPI PUSH1 0x0 DUP1 REVERT JUMPDEST POP JUMP JUMPDEST PUSH1 0x0 DUP2 CALLDATALOAD SWAP1 POP PUSH2 0x116 DUP2 PUSH2 0xF0 JUMP JUMPDEST SWAP3 SWAP2 POP POP JUMP JUMPDEST PUSH1 0x0 PUSH1 0x20 DUP3 DUP5 SUB SLT ISZERO PUSH2 0x132 JUMPI PUSH2 0x131 PUSH2 0xEB JUMP JUMPDEST JUMPDEST PUSH1 0x0 PUSH2 0x140 DUP5 DUP3 DUP6 ADD PUSH2 0x107 JUMP JUMPDEST SWAP2 POP POP SWAP3 SWAP2 POP POP JUMP INVALID LOG2 PUSH5 0x6970667358 0x22 SLT KECCAK256 RETURNDATACOPY 0x28 SGT NOT 0xE2 DUP3 0xBE CALLER DUP12 CHAINID REVERT 0xC8 DUP1 RETURN 0x29 PUSH29 0xD7A9E77B130E22CD284101D8D61AED9164736F6C634300081200330000 "
				},
				"gasEstimates": {
					"creation": {
						"codeDepositCost": "135200",
						"executionCost": "infinite",
						"totalCost": "infinite"
					},
					"external": {
						"changeA_2(uint256)": "infinite",
						"use_public_example_a()": "infinite"
					}
				},
				"methodIdentifiers": {
					"changeA_2(uint256)": "b51e2a46",
					"use_public_example_a()": "e9d462a7"
				}
			},
			"storageLayout": {
				"storage": [
					{
						"astId": 37,
						"contract": "lecture/04_접근제한자.sol:Public_example_2",
						"label": "instance",
						"offset": 0,
						"slot": "0",
						"type": "t_contract(Public_example)30"
					}
				],
				"types": {
					"t_contract(Public_example)30": {
						"encoding": "inplace",
						"label": "contract Public_example",
						"numberOfBytes": "20"
					}
				}
			},
			"userdoc": {
				"kind": "user",
				"methods": {},
				"version": 1
			}
		}
	}
}