{
	"lecture/04_접근제한자.sol": {
		"private_example": {
			"abi": [
				{
					"inputs": [],
					"name": "get_a",
					"outputs": [
						{
							"internalType": "uint256",
							"name": "",
							"type": "uint256"
						}
					],
					"stateMutability": "view",
					"type": "function"
				}
			],
			"devdoc": {
				"kind": "dev",
				"methods": {},
				"version": 1
			},
			"evm": {
				"assembly": "    /* \"lecture/04_\\xec\\xa0\\x91\\xea\\xb7\\xbc\\xec\\xa0\\x9c\\xed\\x95\\x9c\\xec\\x9e\\x90.sol\":1844:2108  contract private_example {... */\n  mstore(0x40, 0x80)\n    /* \"lecture/04_\\xec\\xa0\\x91\\xea\\xb7\\xbc\\xec\\xa0\\x9c\\xed\\x95\\x9c\\xec\\x9e\\x90.sol\":1949:1950  3 */\n  0x03\n    /* \"lecture/04_\\xec\\xa0\\x91\\xea\\xb7\\xbc\\xec\\xa0\\x9c\\xed\\x95\\x9c\\xec\\x9e\\x90.sol\":1929:1950  uint256 private a = 3 */\n  0x00\n  sstore\n    /* \"lecture/04_\\xec\\xa0\\x91\\xea\\xb7\\xbc\\xec\\xa0\\x9c\\xed\\x95\\x9c\\xec\\x9e\\x90.sol\":1844:2108  contract private_example {... */\n  callvalue\n  dup1\n  iszero\n  tag_1\n  jumpi\n  0x00\n  dup1\n  revert\ntag_1:\n  pop\n  dataSize(sub_0)\n  dup1\n  dataOffset(sub_0)\n  0x00\n  codecopy\n  0x00\n  return\nstop\n\nsub_0: assembly {\n        /* \"lecture/04_\\xec\\xa0\\x91\\xea\\xb7\\xbc\\xec\\xa0\\x9c\\xed\\x95\\x9c\\xec\\x9e\\x90.sol\":1844:2108  contract private_example {... */\n      mstore(0x40, 0x80)\n      callvalue\n      dup1\n      iszero\n      tag_1\n      jumpi\n      0x00\n      dup1\n      revert\n    tag_1:\n      pop\n      jumpi(tag_2, lt(calldatasize, 0x04))\n      shr(0xe0, calldataload(0x00))\n      dup1\n      0x48159181\n      eq\n      tag_3\n      jumpi\n    tag_2:\n      0x00\n      dup1\n      revert\n        /* \"lecture/04_\\xec\\xa0\\x91\\xea\\xb7\\xbc\\xec\\xa0\\x9c\\xed\\x95\\x9c\\xec\\x9e\\x90.sol\":2032:2105  function get_a() view public returns (uint256)  {... */\n    tag_3:\n      tag_4\n      tag_5\n      jump\t// in\n    tag_4:\n      mload(0x40)\n      tag_6\n      swap2\n      swap1\n      tag_7\n      jump\t// in\n    tag_6:\n      mload(0x40)\n      dup1\n      swap2\n      sub\n      swap1\n      return\n    tag_5:\n        /* \"lecture/04_\\xec\\xa0\\x91\\xea\\xb7\\xbc\\xec\\xa0\\x9c\\xed\\x95\\x9c\\xec\\x9e\\x90.sol\":2070:2077  uint256 */\n      0x00\n        /* \"lecture/04_\\xec\\xa0\\x91\\xea\\xb7\\xbc\\xec\\xa0\\x9c\\xed\\x95\\x9c\\xec\\x9e\\x90.sol\":2097:2098  a */\n      dup1\n      sload\n        /* \"lecture/04_\\xec\\xa0\\x91\\xea\\xb7\\xbc\\xec\\xa0\\x9c\\xed\\x95\\x9c\\xec\\x9e\\x90.sol\":2090:2098  return a */\n      swap1\n      pop\n        /* \"lecture/04_\\xec\\xa0\\x91\\xea\\xb7\\xbc\\xec\\xa0\\x9c\\xed\\x95\\x9c\\xec\\x9e\\x90.sol\":2032:2105  function get_a() view public returns (uint256)  {... */\n      swap1\n      jump\t// out\n        /* \"#utility.yul\":7:84   */\n    tag_9:\n        /* \"#utility.yul\":44:51   */\n      0x00\n        /* \"#utility.yul\":73:78   */\n      dup2\n        /* \"#utility.yul\":62:78   */\n      swap1\n      pop\n        /* \"#utility.yul\":7:84   */\n      swap2\n      swap1\n      pop\n      jump\t// out\n        /* \"#utility.yul\":90:208   */\n    tag_10:\n        /* \"#utility.yul\":177:201   */\n      tag_14\n        /* \"#utility.yul\":195:200   */\n      dup2\n        /* \"#utility.yul\":177:201   */\n      tag_9\n      jump\t// in\n    tag_14:\n        /* \"#utility.yul\":172:175   */\n      dup3\n        /* \"#utility.yul\":165:202   */\n      mstore\n        /* \"#utility.yul\":90:208   */\n      pop\n      pop\n      jump\t// out\n        /* \"#utility.yul\":214:436   */\n    tag_7:\n        /* \"#utility.yul\":307:311   */\n      0x00\n        /* \"#utility.yul\":345:347   */\n      0x20\n        /* \"#utility.yul\":334:343   */\n      dup3\n        /* \"#utility.yul\":330:348   */\n      add\n        /* \"#utility.yul\":322:348   */\n      swap1\n      pop\n        /* \"#utility.yul\":358:429   */\n      tag_16\n        /* \"#utility.yul\":426:427   */\n      0x00\n        /* \"#utility.yul\":415:424   */\n      dup4\n        /* \"#utility.yul\":411:428   */\n      add\n        /* \"#utility.yul\":402:408   */\n      dup5\n        /* \"#utility.yul\":358:429   */\n      tag_10\n      jump\t// in\n    tag_16:\n        /* \"#utility.yul\":214:436   */\n      swap3\n      swap2\n      pop\n      pop\n      jump\t// out\n\n    auxdata: 0xa2646970667358221220f14e86138be78bbb44fb60381563828f91035ccdb6dc6b0144ecc690202b2d6b64736f6c63430008120033\n}\n",
				"bytecode": {
					"linkReferences": {},
					"object": "6080604052600360005534801561001557600080fd5b5060b6806100246000396000f3fe6080604052348015600f57600080fd5b506004361060285760003560e01c80634815918114602d575b600080fd5b60336047565b604051603e91906067565b60405180910390f35b60008054905090565b6000819050919050565b6061816050565b82525050565b6000602082019050607a6000830184605a565b9291505056fea2646970667358221220f14e86138be78bbb44fb60381563828f91035ccdb6dc6b0144ecc690202b2d6b64736f6c63430008120033",
					"opcodes": "PUSH1 0x80 PUSH1 0x40 MSTORE PUSH1 0x3 PUSH1 0x0 SSTORE CALLVALUE DUP1 ISZERO PUSH2 0x15 JUMPI PUSH1 0x0 DUP1 REVERT JUMPDEST POP PUSH1 0xB6 DUP1 PUSH2 0x24 PUSH1 0x0 CODECOPY PUSH1 0x0 RETURN INVALID PUSH1 0x80 PUSH1 0x40 MSTORE CALLVALUE DUP1 ISZERO PUSH1 0xF JUMPI PUSH1 0x0 DUP1 REVERT JUMPDEST POP PUSH1 0x4 CALLDATASIZE LT PUSH1 0x28 JUMPI PUSH1 0x0 CALLDATALOAD PUSH1 0xE0 SHR DUP1 PUSH4 0x48159181 EQ PUSH1 0x2D JUMPI JUMPDEST PUSH1 0x0 DUP1 REVERT JUMPDEST PUSH1 0x33 PUSH1 0x47 JUMP JUMPDEST PUSH1 0x40 MLOAD PUSH1 0x3E SWAP2 SWAP1 PUSH1 0x67 JUMP JUMPDEST PUSH1 0x40 MLOAD DUP1 SWAP2 SUB SWAP1 RETURN JUMPDEST PUSH1 0x0 DUP1 SLOAD SWAP1 POP SWAP1 JUMP JUMPDEST PUSH1 0x0 DUP2 SWAP1 POP SWAP2 SWAP1 POP JUMP JUMPDEST PUSH1 0x61 DUP2 PUSH1 0x50 JUMP JUMPDEST DUP3 MSTORE POP POP JUMP JUMPDEST PUSH1 0x0 PUSH1 0x20 DUP3 ADD SWAP1 POP PUSH1 0x7A PUSH1 0x0 DUP4 ADD DUP5 PUSH1 0x5A JUMP JUMPDEST SWAP3 SWAP2 POP POP JUMP INVALID LOG2 PUSH5 0x6970667358 0x22 SLT KECCAK256 CALL 0x4E DUP7 SGT DUP12 0xE7 DUP12 0xBB PREVRANDAO 0xFB PUSH1 0x38 ISZERO PUSH4 0x828F9103 0x5C 0xCD 0xB6 0xDC PUSH12 0x144ECC690202B2D6B64736F PUSH13 0x63430008120033000000000000 "
				},
				"gasEstimates": {
					"creation": {
						"codeDepositCost": "36400",
						"executionCost": "22193",
						"totalCost": "58593"
					},
					"external": {
						"get_a()": "2415"
					}
				},
				"methodIdentifiers": {
					"get_a()": "48159181"
				}
			},
			"storageLayout": {
				"storage": [
					{
						"astId": 63,
						"contract": "lecture/04_접근제한자.sol:private_example",
						"label": "a",
						"offset": 0,
						"slot": "0",
						"type": "t_uint256"
					}
				],
				"types": {
					"t_uint256": {
						"encoding": "inplace",
						"label": "uint256",
						"numberOfBytes": "32"
					}
				}
			},
			"userdoc": {
				"kind": "user",
				"methods": {},
				"version": 1
			}
		}
	}
}