{
	"lecture/39_library.sol": {
		"lec40": {
			"abi": [
				{
					"inputs": [],
					"name": "a",
					"outputs": [
						{
							"internalType": "uint8",
							"name": "",
							"type": "uint8"
						}
					],
					"stateMutability": "view",
					"type": "function"
				},
				{
					"inputs": [
						{
							"internalType": "uint8",
							"name": "_num1",
							"type": "uint8"
						},
						{
							"internalType": "uint8",
							"name": "_num2",
							"type": "uint8"
						}
					],
					"name": "becomeOverflow",
					"outputs": [],
					"stateMutability": "nonpayable",
					"type": "function"
				}
			],
			"devdoc": {
				"kind": "dev",
				"methods": {},
				"version": 1
			},
			"evm": {
				"assembly": "    /* \"lecture/39_library.sol\":2259:2526  contract lec40{... */\n  mstore(0x40, 0x80)\n  callvalue\n  dup1\n  iszero\n  tag_1\n  jumpi\n  0x00\n  dup1\n  revert\ntag_1:\n  pop\n  dataSize(sub_0)\n  dup1\n  dataOffset(sub_0)\n  0x00\n  codecopy\n  0x00\n  return\nstop\n\nsub_0: assembly {\n        /* \"lecture/39_library.sol\":2259:2526  contract lec40{... */\n      mstore(0x40, 0x80)\n      callvalue\n      dup1\n      iszero\n      tag_1\n      jumpi\n      0x00\n      dup1\n      revert\n    tag_1:\n      pop\n      jumpi(tag_2, lt(calldatasize, 0x04))\n      shr(0xe0, calldataload(0x00))\n      dup1\n      0x0dbe671f\n      eq\n      tag_3\n      jumpi\n      dup1\n      0x5d2b6e03\n      eq\n      tag_4\n      jumpi\n    tag_2:\n      0x00\n      dup1\n      revert\n        /* \"lecture/39_library.sol\":2361:2375  uint8 public a */\n    tag_3:\n      tag_5\n      tag_6\n      jump\t// in\n    tag_5:\n      mload(0x40)\n      tag_7\n      swap2\n      swap1\n      tag_8\n      jump\t// in\n    tag_7:\n      mload(0x40)\n      dup1\n      swap2\n      sub\n      swap1\n      return\n        /* \"lecture/39_library.sol\":2387:2523  function becomeOverflow(uint8 _num1,uint8 _num2) public  {... */\n    tag_4:\n      tag_9\n      0x04\n      dup1\n      calldatasize\n      sub\n      dup2\n      add\n      swap1\n      tag_10\n      swap2\n      swap1\n      tag_11\n      jump\t// in\n    tag_10:\n      tag_12\n      jump\t// in\n    tag_9:\n      stop\n        /* \"lecture/39_library.sol\":2361:2375  uint8 public a */\n    tag_6:\n      0x00\n      dup1\n      sload\n      swap1\n      0x0100\n      exp\n      swap1\n      div\n      0xff\n      and\n      dup2\n      jump\t// out\n        /* \"lecture/39_library.sol\":2387:2523  function becomeOverflow(uint8 _num1,uint8 _num2) public  {... */\n    tag_12:\n        /* \"lecture/39_library.sol\":2490:2516  SafeMath.add(_num1 ,_num2) */\n      tag_14\n        /* \"lecture/39_library.sol\":2503:2508  _num1 */\n      dup3\n        /* \"lecture/39_library.sol\":2510:2515  _num2 */\n      dup3\n        /* \"lecture/39_library.sol\":2490:2502  SafeMath.add */\n      tag_15\n        /* \"lecture/39_library.sol\":2490:2516  SafeMath.add(_num1 ,_num2) */\n      jump\t// in\n    tag_14:\n        /* \"lecture/39_library.sol\":2486:2487  a */\n      0x00\n      dup1\n        /* \"lecture/39_library.sol\":2486:2516  a = SafeMath.add(_num1 ,_num2) */\n      0x0100\n      exp\n      dup2\n      sload\n      dup2\n      0xff\n      mul\n      not\n      and\n      swap1\n      dup4\n      0xff\n      and\n      mul\n      or\n      swap1\n      sstore\n      pop\n        /* \"lecture/39_library.sol\":2387:2523  function becomeOverflow(uint8 _num1,uint8 _num2) public  {... */\n      pop\n      pop\n      jump\t// out\n        /* \"lecture/39_library.sol\":1901:2255  function add(uint8 a, uint8 b) internal pure returns (uint8) {... */\n    tag_15:\n        /* \"lecture/39_library.sol\":1955:1960  uint8 */\n      0x00\n        /* \"lecture/39_library.sol\":2192:2193  a */\n      dup3\n        /* \"lecture/39_library.sol\":2185:2193  a+b >= a */\n      0xff\n      and\n        /* \"lecture/39_library.sol\":2187:2188  b */\n      dup3\n        /* \"lecture/39_library.sol\":2185:2186  a */\n      dup5\n        /* \"lecture/39_library.sol\":2185:2188  a+b */\n      tag_17\n      swap2\n      swap1\n      tag_18\n      jump\t// in\n    tag_17:\n        /* \"lecture/39_library.sol\":2185:2193  a+b >= a */\n      0xff\n      and\n      lt\n      iszero\n        /* \"lecture/39_library.sol\":2177:2226  require(a+b >= a , \"SafeMath: addition overflow\") */\n      tag_19\n      jumpi\n      mload(0x40)\n      0x08c379a000000000000000000000000000000000000000000000000000000000\n      dup2\n      mstore\n      0x04\n      add\n      tag_20\n      swap1\n      tag_21\n      jump\t// in\n    tag_20:\n      mload(0x40)\n      dup1\n      swap2\n      sub\n      swap1\n      revert\n    tag_19:\n        /* \"lecture/39_library.sol\":2247:2248  b */\n      dup2\n        /* \"lecture/39_library.sol\":2243:2244  a */\n      dup4\n        /* \"lecture/39_library.sol\":2243:2248  a + b */\n      tag_22\n      swap2\n      swap1\n      tag_18\n      jump\t// in\n    tag_22:\n        /* \"lecture/39_library.sol\":2236:2248  return a + b */\n      swap1\n      pop\n        /* \"lecture/39_library.sol\":1901:2255  function add(uint8 a, uint8 b) internal pure returns (uint8) {... */\n      swap3\n      swap2\n      pop\n      pop\n      jump\t// out\n        /* \"#utility.yul\":7:93   */\n    tag_23:\n        /* \"#utility.yul\":42:49   */\n      0x00\n        /* \"#utility.yul\":82:86   */\n      0xff\n        /* \"#utility.yul\":75:80   */\n      dup3\n        /* \"#utility.yul\":71:87   */\n      and\n        /* \"#utility.yul\":60:87   */\n      swap1\n      pop\n        /* \"#utility.yul\":7:93   */\n      swap2\n      swap1\n      pop\n      jump\t// out\n        /* \"#utility.yul\":99:211   */\n    tag_24:\n        /* \"#utility.yul\":182:204   */\n      tag_37\n        /* \"#utility.yul\":198:203   */\n      dup2\n        /* \"#utility.yul\":182:204   */\n      tag_23\n      jump\t// in\n    tag_37:\n        /* \"#utility.yul\":177:180   */\n      dup3\n        /* \"#utility.yul\":170:205   */\n      mstore\n        /* \"#utility.yul\":99:211   */\n      pop\n      pop\n      jump\t// out\n        /* \"#utility.yul\":217:431   */\n    tag_8:\n        /* \"#utility.yul\":306:310   */\n      0x00\n        /* \"#utility.yul\":344:346   */\n      0x20\n        /* \"#utility.yul\":333:342   */\n      dup3\n        /* \"#utility.yul\":329:347   */\n      add\n        /* \"#utility.yul\":321:347   */\n      swap1\n      pop\n        /* \"#utility.yul\":357:424   */\n      tag_39\n        /* \"#utility.yul\":421:422   */\n      0x00\n        /* \"#utility.yul\":410:419   */\n      dup4\n        /* \"#utility.yul\":406:423   */\n      add\n        /* \"#utility.yul\":397:403   */\n      dup5\n        /* \"#utility.yul\":357:424   */\n      tag_24\n      jump\t// in\n    tag_39:\n        /* \"#utility.yul\":217:431   */\n      swap3\n      swap2\n      pop\n      pop\n      jump\t// out\n        /* \"#utility.yul\":518:635   */\n    tag_26:\n        /* \"#utility.yul\":627:628   */\n      0x00\n        /* \"#utility.yul\":624:625   */\n      dup1\n        /* \"#utility.yul\":617:629   */\n      revert\n        /* \"#utility.yul\":764:882   */\n    tag_28:\n        /* \"#utility.yul\":835:857   */\n      tag_44\n        /* \"#utility.yul\":851:856   */\n      dup2\n        /* \"#utility.yul\":835:857   */\n      tag_23\n      jump\t// in\n    tag_44:\n        /* \"#utility.yul\":828:833   */\n      dup2\n        /* \"#utility.yul\":825:858   */\n      eq\n        /* \"#utility.yul\":815:876   */\n      tag_45\n      jumpi\n        /* \"#utility.yul\":872:873   */\n      0x00\n        /* \"#utility.yul\":869:870   */\n      dup1\n        /* \"#utility.yul\":862:874   */\n      revert\n        /* \"#utility.yul\":815:876   */\n    tag_45:\n        /* \"#utility.yul\":764:882   */\n      pop\n      jump\t// out\n        /* \"#utility.yul\":888:1023   */\n    tag_29:\n        /* \"#utility.yul\":932:937   */\n      0x00\n        /* \"#utility.yul\":970:976   */\n      dup2\n        /* \"#utility.yul\":957:977   */\n      calldataload\n        /* \"#utility.yul\":948:977   */\n      swap1\n      pop\n        /* \"#utility.yul\":986:1017   */\n      tag_47\n        /* \"#utility.yul\":1011:1016   */\n      dup2\n        /* \"#utility.yul\":986:1017   */\n      tag_28\n      jump\t// in\n    tag_47:\n        /* \"#utility.yul\":888:1023   */\n      swap3\n      swap2\n      pop\n      pop\n      jump\t// out\n        /* \"#utility.yul\":1029:1495   */\n    tag_11:\n        /* \"#utility.yul\":1093:1099   */\n      0x00\n        /* \"#utility.yul\":1101:1107   */\n      dup1\n        /* \"#utility.yul\":1150:1152   */\n      0x40\n        /* \"#utility.yul\":1138:1147   */\n      dup4\n        /* \"#utility.yul\":1129:1136   */\n      dup6\n        /* \"#utility.yul\":1125:1148   */\n      sub\n        /* \"#utility.yul\":1121:1153   */\n      slt\n        /* \"#utility.yul\":1118:1237   */\n      iszero\n      tag_49\n      jumpi\n        /* \"#utility.yul\":1156:1235   */\n      tag_50\n      tag_26\n      jump\t// in\n    tag_50:\n        /* \"#utility.yul\":1118:1237   */\n    tag_49:\n        /* \"#utility.yul\":1276:1277   */\n      0x00\n        /* \"#utility.yul\":1301:1352   */\n      tag_51\n        /* \"#utility.yul\":1344:1351   */\n      dup6\n        /* \"#utility.yul\":1335:1341   */\n      dup3\n        /* \"#utility.yul\":1324:1333   */\n      dup7\n        /* \"#utility.yul\":1320:1342   */\n      add\n        /* \"#utility.yul\":1301:1352   */\n      tag_29\n      jump\t// in\n    tag_51:\n        /* \"#utility.yul\":1291:1352   */\n      swap3\n      pop\n        /* \"#utility.yul\":1247:1362   */\n      pop\n        /* \"#utility.yul\":1401:1403   */\n      0x20\n        /* \"#utility.yul\":1427:1478   */\n      tag_52\n        /* \"#utility.yul\":1470:1477   */\n      dup6\n        /* \"#utility.yul\":1461:1467   */\n      dup3\n        /* \"#utility.yul\":1450:1459   */\n      dup7\n        /* \"#utility.yul\":1446:1468   */\n      add\n        /* \"#utility.yul\":1427:1478   */\n      tag_29\n      jump\t// in\n    tag_52:\n        /* \"#utility.yul\":1417:1478   */\n      swap2\n      pop\n        /* \"#utility.yul\":1372:1488   */\n      pop\n        /* \"#utility.yul\":1029:1495   */\n      swap3\n      pop\n      swap3\n      swap1\n      pop\n      jump\t// out\n        /* \"#utility.yul\":1501:1681   */\n    tag_30:\n        /* \"#utility.yul\":1549:1626   */\n      0x4e487b7100000000000000000000000000000000000000000000000000000000\n        /* \"#utility.yul\":1546:1547   */\n      0x00\n        /* \"#utility.yul\":1539:1627   */\n      mstore\n        /* \"#utility.yul\":1646:1650   */\n      0x11\n        /* \"#utility.yul\":1643:1644   */\n      0x04\n        /* \"#utility.yul\":1636:1651   */\n      mstore\n        /* \"#utility.yul\":1670:1674   */\n      0x24\n        /* \"#utility.yul\":1667:1668   */\n      0x00\n        /* \"#utility.yul\":1660:1675   */\n      revert\n        /* \"#utility.yul\":1687:1875   */\n    tag_18:\n        /* \"#utility.yul\":1725:1728   */\n      0x00\n        /* \"#utility.yul\":1744:1762   */\n      tag_55\n        /* \"#utility.yul\":1760:1761   */\n      dup3\n        /* \"#utility.yul\":1744:1762   */\n      tag_23\n      jump\t// in\n    tag_55:\n        /* \"#utility.yul\":1739:1762   */\n      swap2\n      pop\n        /* \"#utility.yul\":1776:1794   */\n      tag_56\n        /* \"#utility.yul\":1792:1793   */\n      dup4\n        /* \"#utility.yul\":1776:1794   */\n      tag_23\n      jump\t// in\n    tag_56:\n        /* \"#utility.yul\":1771:1794   */\n      swap3\n      pop\n        /* \"#utility.yul\":1817:1818   */\n      dup3\n        /* \"#utility.yul\":1814:1815   */\n      dup3\n        /* \"#utility.yul\":1810:1819   */\n      add\n        /* \"#utility.yul\":1803:1819   */\n      swap1\n      pop\n        /* \"#utility.yul\":1840:1844   */\n      0xff\n        /* \"#utility.yul\":1835:1838   */\n      dup2\n        /* \"#utility.yul\":1832:1845   */\n      gt\n        /* \"#utility.yul\":1829:1868   */\n      iszero\n      tag_57\n      jumpi\n        /* \"#utility.yul\":1848:1866   */\n      tag_58\n      tag_30\n      jump\t// in\n    tag_58:\n        /* \"#utility.yul\":1829:1868   */\n    tag_57:\n        /* \"#utility.yul\":1687:1875   */\n      swap3\n      swap2\n      pop\n      pop\n      jump\t// out\n        /* \"#utility.yul\":1881:2050   */\n    tag_31:\n        /* \"#utility.yul\":1965:1976   */\n      0x00\n        /* \"#utility.yul\":1999:2005   */\n      dup3\n        /* \"#utility.yul\":1994:1997   */\n      dup3\n        /* \"#utility.yul\":1987:2006   */\n      mstore\n        /* \"#utility.yul\":2039:2043   */\n      0x20\n        /* \"#utility.yul\":2034:2037   */\n      dup3\n        /* \"#utility.yul\":2030:2044   */\n      add\n        /* \"#utility.yul\":2015:2044   */\n      swap1\n      pop\n        /* \"#utility.yul\":1881:2050   */\n      swap3\n      swap2\n      pop\n      pop\n      jump\t// out\n        /* \"#utility.yul\":2056:2233   */\n    tag_32:\n        /* \"#utility.yul\":2196:2225   */\n      0x536166654d6174683a206164646974696f6e206f766572666c6f770000000000\n        /* \"#utility.yul\":2192:2193   */\n      0x00\n        /* \"#utility.yul\":2184:2190   */\n      dup3\n        /* \"#utility.yul\":2180:2194   */\n      add\n        /* \"#utility.yul\":2173:2226   */\n      mstore\n        /* \"#utility.yul\":2056:2233   */\n      pop\n      jump\t// out\n        /* \"#utility.yul\":2239:2605   */\n    tag_33:\n        /* \"#utility.yul\":2381:2384   */\n      0x00\n        /* \"#utility.yul\":2402:2469   */\n      tag_62\n        /* \"#utility.yul\":2466:2468   */\n      0x1b\n        /* \"#utility.yul\":2461:2464   */\n      dup4\n        /* \"#utility.yul\":2402:2469   */\n      tag_31\n      jump\t// in\n    tag_62:\n        /* \"#utility.yul\":2395:2469   */\n      swap2\n      pop\n        /* \"#utility.yul\":2478:2571   */\n      tag_63\n        /* \"#utility.yul\":2567:2570   */\n      dup3\n        /* \"#utility.yul\":2478:2571   */\n      tag_32\n      jump\t// in\n    tag_63:\n        /* \"#utility.yul\":2596:2598   */\n      0x20\n        /* \"#utility.yul\":2591:2594   */\n      dup3\n        /* \"#utility.yul\":2587:2599   */\n      add\n        /* \"#utility.yul\":2580:2599   */\n      swap1\n      pop\n        /* \"#utility.yul\":2239:2605   */\n      swap2\n      swap1\n      pop\n      jump\t// out\n        /* \"#utility.yul\":2611:3030   */\n    tag_21:\n        /* \"#utility.yul\":2777:2781   */\n      0x00\n        /* \"#utility.yul\":2815:2817   */\n      0x20\n        /* \"#utility.yul\":2804:2813   */\n      dup3\n        /* \"#utility.yul\":2800:2818   */\n      add\n        /* \"#utility.yul\":2792:2818   */\n      swap1\n      pop\n        /* \"#utility.yul\":2864:2873   */\n      dup2\n        /* \"#utility.yul\":2858:2862   */\n      dup2\n        /* \"#utility.yul\":2854:2874   */\n      sub\n        /* \"#utility.yul\":2850:2851   */\n      0x00\n        /* \"#utility.yul\":2839:2848   */\n      dup4\n        /* \"#utility.yul\":2835:2852   */\n      add\n        /* \"#utility.yul\":2828:2875   */\n      mstore\n        /* \"#utility.yul\":2892:3023   */\n      tag_65\n        /* \"#utility.yul\":3018:3022   */\n      dup2\n        /* \"#utility.yul\":2892:3023   */\n      tag_33\n      jump\t// in\n    tag_65:\n        /* \"#utility.yul\":2884:3023   */\n      swap1\n      pop\n        /* \"#utility.yul\":2611:3030   */\n      swap2\n      swap1\n      pop\n      jump\t// out\n\n    auxdata: 0xa264697066735822122096c052989ddf88063c2805a002f018070c3180254d678ccc571717e5b40ad94664736f6c63430008120033\n}\n",
				"bytecode": {
					"linkReferences": {},
					"object": "608060405234801561001057600080fd5b506102d6806100206000396000f3fe608060405234801561001057600080fd5b50600436106100365760003560e01c80630dbe671f1461003b5780635d2b6e0314610059575b600080fd5b610043610075565b6040516100509190610133565b60405180910390f35b610073600480360381019061006e919061017f565b610086565b005b60008054906101000a900460ff1681565b61009082826100ad565b6000806101000a81548160ff021916908360ff1602179055505050565b60008260ff1682846100bf91906101ee565b60ff161015610103576040517f08c379a00000000000000000000000000000000000000000000000000000000081526004016100fa90610280565b60405180910390fd5b818361010f91906101ee565b905092915050565b600060ff82169050919050565b61012d81610117565b82525050565b60006020820190506101486000830184610124565b92915050565b600080fd5b61015c81610117565b811461016757600080fd5b50565b60008135905061017981610153565b92915050565b600080604083850312156101965761019561014e565b5b60006101a48582860161016a565b92505060206101b58582860161016a565b9150509250929050565b7f4e487b7100000000000000000000000000000000000000000000000000000000600052601160045260246000fd5b60006101f982610117565b915061020483610117565b9250828201905060ff81111561021d5761021c6101bf565b5b92915050565b600082825260208201905092915050565b7f536166654d6174683a206164646974696f6e206f766572666c6f770000000000600082015250565b600061026a601b83610223565b915061027582610234565b602082019050919050565b600060208201905081810360008301526102998161025d565b905091905056fea264697066735822122096c052989ddf88063c2805a002f018070c3180254d678ccc571717e5b40ad94664736f6c63430008120033",
					"opcodes": "PUSH1 0x80 PUSH1 0x40 MSTORE CALLVALUE DUP1 ISZERO PUSH2 0x10 JUMPI PUSH1 0x0 DUP1 REVERT JUMPDEST POP PUSH2 0x2D6 DUP1 PUSH2 0x20 PUSH1 0x0 CODECOPY PUSH1 0x0 RETURN INVALID PUSH1 0x80 PUSH1 0x40 MSTORE CALLVALUE DUP1 ISZERO PUSH2 0x10 JUMPI PUSH1 0x0 DUP1 REVERT JUMPDEST POP PUSH1 0x4 CALLDATASIZE LT PUSH2 0x36 JUMPI PUSH1 0x0 CALLDATALOAD PUSH1 0xE0 SHR DUP1 PUSH4 0xDBE671F EQ PUSH2 0x3B JUMPI DUP1 PUSH4 0x5D2B6E03 EQ PUSH2 0x59 JUMPI JUMPDEST PUSH1 0x0 DUP1 REVERT JUMPDEST PUSH2 0x43 PUSH2 0x75 JUMP JUMPDEST PUSH1 0x40 MLOAD PUSH2 0x50 SWAP2 SWAP1 PUSH2 0x133 JUMP JUMPDEST PUSH1 0x40 MLOAD DUP1 SWAP2 SUB SWAP1 RETURN JUMPDEST PUSH2 0x73 PUSH1 0x4 DUP1 CALLDATASIZE SUB DUP2 ADD SWAP1 PUSH2 0x6E SWAP2 SWAP1 PUSH2 0x17F JUMP JUMPDEST PUSH2 0x86 JUMP JUMPDEST STOP JUMPDEST PUSH1 0x0 DUP1 SLOAD SWAP1 PUSH2 0x100 EXP SWAP1 DIV PUSH1 0xFF AND DUP2 JUMP JUMPDEST PUSH2 0x90 DUP3 DUP3 PUSH2 0xAD JUMP JUMPDEST PUSH1 0x0 DUP1 PUSH2 0x100 EXP DUP2 SLOAD DUP2 PUSH1 0xFF MUL NOT AND SWAP1 DUP4 PUSH1 0xFF AND MUL OR SWAP1 SSTORE POP POP POP JUMP JUMPDEST PUSH1 0x0 DUP3 PUSH1 0xFF AND DUP3 DUP5 PUSH2 0xBF SWAP2 SWAP1 PUSH2 0x1EE JUMP JUMPDEST PUSH1 0xFF AND LT ISZERO PUSH2 0x103 JUMPI PUSH1 0x40 MLOAD PUSH32 0x8C379A000000000000000000000000000000000000000000000000000000000 DUP2 MSTORE PUSH1 0x4 ADD PUSH2 0xFA SWAP1 PUSH2 0x280 JUMP JUMPDEST PUSH1 0x40 MLOAD DUP1 SWAP2 SUB SWAP1 REVERT JUMPDEST DUP2 DUP4 PUSH2 0x10F SWAP2 SWAP1 PUSH2 0x1EE JUMP JUMPDEST SWAP1 POP SWAP3 SWAP2 POP POP JUMP JUMPDEST PUSH1 0x0 PUSH1 0xFF DUP3 AND SWAP1 POP SWAP2 SWAP1 POP JUMP JUMPDEST PUSH2 0x12D DUP2 PUSH2 0x117 JUMP JUMPDEST DUP3 MSTORE POP POP JUMP JUMPDEST PUSH1 0x0 PUSH1 0x20 DUP3 ADD SWAP1 POP PUSH2 0x148 PUSH1 0x0 DUP4 ADD DUP5 PUSH2 0x124 JUMP JUMPDEST SWAP3 SWAP2 POP POP JUMP JUMPDEST PUSH1 0x0 DUP1 REVERT JUMPDEST PUSH2 0x15C DUP2 PUSH2 0x117 JUMP JUMPDEST DUP2 EQ PUSH2 0x167 JUMPI PUSH1 0x0 DUP1 REVERT JUMPDEST POP JUMP JUMPDEST PUSH1 0x0 DUP2 CALLDATALOAD SWAP1 POP PUSH2 0x179 DUP2 PUSH2 0x153 JUMP JUMPDEST SWAP3 SWAP2 POP POP JUMP JUMPDEST PUSH1 0x0 DUP1 PUSH1 0x40 DUP4 DUP6 SUB SLT ISZERO PUSH2 0x196 JUMPI PUSH2 0x195 PUSH2 0x14E JUMP JUMPDEST JUMPDEST PUSH1 0x0 PUSH2 0x1A4 DUP6 DUP3 DUP7 ADD PUSH2 0x16A JUMP JUMPDEST SWAP3 POP POP PUSH1 0x20 PUSH2 0x1B5 DUP6 DUP3 DUP7 ADD PUSH2 0x16A JUMP JUMPDEST SWAP2 POP POP SWAP3 POP SWAP3 SWAP1 POP JUMP JUMPDEST PUSH32 0x4E487B7100000000000000000000000000000000000000000000000000000000 PUSH1 0x0 MSTORE PUSH1 0x11 PUSH1 0x4 MSTORE PUSH1 0x24 PUSH1 0x0 REVERT JUMPDEST PUSH1 0x0 PUSH2 0x1F9 DUP3 PUSH2 0x117 JUMP JUMPDEST SWAP2 POP PUSH2 0x204 DUP4 PUSH2 0x117 JUMP JUMPDEST SWAP3 POP DUP3 DUP3 ADD SWAP1 POP PUSH1 0xFF DUP2 GT ISZERO PUSH2 0x21D JUMPI PUSH2 0x21C PUSH2 0x1BF JUMP JUMPDEST JUMPDEST SWAP3 SWAP2 POP POP JUMP JUMPDEST PUSH1 0x0 DUP3 DUP3 MSTORE PUSH1 0x20 DUP3 ADD SWAP1 POP SWAP3 SWAP2 POP POP JUMP JUMPDEST PUSH32 0x536166654D6174683A206164646974696F6E206F766572666C6F770000000000 PUSH1 0x0 DUP3 ADD MSTORE POP JUMP JUMPDEST PUSH1 0x0 PUSH2 0x26A PUSH1 0x1B DUP4 PUSH2 0x223 JUMP JUMPDEST SWAP2 POP PUSH2 0x275 DUP3 PUSH2 0x234 JUMP JUMPDEST PUSH1 0x20 DUP3 ADD SWAP1 POP SWAP2 SWAP1 POP JUMP JUMPDEST PUSH1 0x0 PUSH1 0x20 DUP3 ADD SWAP1 POP DUP2 DUP2 SUB PUSH1 0x0 DUP4 ADD MSTORE PUSH2 0x299 DUP2 PUSH2 0x25D JUMP JUMPDEST SWAP1 POP SWAP2 SWAP1 POP JUMP INVALID LOG2 PUSH5 0x6970667358 0x22 SLT KECCAK256 SWAP7 0xC0 MSTORE SWAP9 SWAP14 0xDF DUP9 MOD EXTCODECOPY 0x28 SDIV LOG0 MUL CREATE XOR SMOD 0xC BALANCE DUP1 0x25 0x4D PUSH8 0x8CCC571717E5B40A 0xD9 CHAINID PUSH5 0x736F6C6343 STOP ADDMOD SLT STOP CALLER "
				},
				"gasEstimates": {
					"creation": {
						"codeDepositCost": "145200",
						"executionCost": "190",
						"totalCost": "145390"
					},
					"external": {
						"a()": "2446",
						"becomeOverflow(uint8,uint8)": "infinite"
					}
				},
				"methodIdentifiers": {
					"a()": "0dbe671f",
					"becomeOverflow(uint8,uint8)": "5d2b6e03"
				}
			},
			"storageLayout": {
				"storage": [
					{
						"astId": 30,
						"contract": "lecture/39_library.sol:lec40",
						"label": "a",
						"offset": 0,
						"slot": "0",
						"type": "t_uint8"
					}
				],
				"types": {
					"t_uint8": {
						"encoding": "inplace",
						"label": "uint8",
						"numberOfBytes": "1"
					}
				}
			},
			"userdoc": {
				"kind": "user",
				"methods": {},
				"version": 1
			}
		}
	}
}