{
	"lecture/16_.맵핑.sol": {
		"lec17": {
			"abi": [
				{
					"inputs": [
						{
							"internalType": "uint256",
							"name": "_key",
							"type": "uint256"
						}
					],
					"name": "getAge",
					"outputs": [
						{
							"internalType": "uint256",
							"name": "",
							"type": "uint256"
						}
					],
					"stateMutability": "view",
					"type": "function"
				},
				{
					"inputs": [
						{
							"internalType": "uint256",
							"name": "_key",
							"type": "uint256"
						}
					],
					"name": "getName",
					"outputs": [
						{
							"internalType": "string",
							"name": "",
							"type": "string"
						}
					],
					"stateMutability": "view",
					"type": "function"
				},
				{
					"inputs": [
						{
							"internalType": "string",
							"name": "_key",
							"type": "string"
						}
					],
					"name": "getPriceList",
					"outputs": [
						{
							"internalType": "uint256",
							"name": "",
							"type": "uint256"
						}
					],
					"stateMutability": "view",
					"type": "function"
				},
				{
					"inputs": [
						{
							"internalType": "uint256",
							"name": "_key",
							"type": "uint256"
						},
						{
							"internalType": "uint256",
							"name": "_age",
							"type": "uint256"
						}
					],
					"name": "setAgeList",
					"outputs": [],
					"stateMutability": "nonpayable",
					"type": "function"
				},
				{
					"inputs": [
						{
							"internalType": "uint256",
							"name": "_key",
							"type": "uint256"
						},
						{
							"internalType": "string",
							"name": "_name",
							"type": "string"
						}
					],
					"name": "setNameList",
					"outputs": [],
					"stateMutability": "nonpayable",
					"type": "function"
				},
				{
					"inputs": [
						{
							"internalType": "string",
							"name": "_itemName",
							"type": "string"
						},
						{
							"internalType": "uint256",
							"name": "_price",
							"type": "uint256"
						}
					],
					"name": "setPriceList",
					"outputs": [],
					"stateMutability": "nonpayable",
					"type": "function"
				}
			],
			"devdoc": {
				"kind": "dev",
				"methods": {},
				"version": 1
			},
			"evm": {
				"assembly": "    /* \"lecture/16_.\\xeb\\xa7\\xb5\\xed\\x95\\x91.sol\":134:1808  contract lec17{... */\n  mstore(0x40, 0x80)\n  callvalue\n  dup1\n  iszero\n  tag_1\n  jumpi\n  0x00\n  dup1\n  revert\ntag_1:\n  pop\n  dataSize(sub_0)\n  dup1\n  dataOffset(sub_0)\n  0x00\n  codecopy\n  0x00\n  return\nstop\n\nsub_0: assembly {\n        /* \"lecture/16_.\\xeb\\xa7\\xb5\\xed\\x95\\x91.sol\":134:1808  contract lec17{... */\n      mstore(0x40, 0x80)\n      callvalue\n      dup1\n      iszero\n      tag_1\n      jumpi\n      0x00\n      dup1\n      revert\n    tag_1:\n      pop\n      jumpi(tag_2, lt(calldatasize, 0x04))\n      shr(0xe0, calldataload(0x00))\n      dup1\n      0x0e37008a\n      eq\n      tag_3\n      jumpi\n      dup1\n      0x1bbefaf1\n      eq\n      tag_4\n      jumpi\n      dup1\n      0x5eac9098\n      eq\n      tag_5\n      jumpi\n      dup1\n      0x6b8ff574\n      eq\n      tag_6\n      jumpi\n      dup1\n      0xa266f6c2\n      eq\n      tag_7\n      jumpi\n      dup1\n      0xfe093d3b\n      eq\n      tag_8\n      jumpi\n    tag_2:\n      0x00\n      dup1\n      revert\n        /* \"lecture/16_.\\xeb\\xa7\\xb5\\xed\\x95\\x91.sol\":808:903  function getAge(uint256 _key) public view returns(uint256){... */\n    tag_3:\n      tag_9\n      0x04\n      dup1\n      calldatasize\n      sub\n      dup2\n      add\n      swap1\n      tag_10\n      swap2\n      swap1\n      tag_11\n      jump\t// in\n    tag_10:\n      tag_12\n      jump\t// in\n    tag_9:\n      mload(0x40)\n      tag_13\n      swap2\n      swap1\n      tag_14\n      jump\t// in\n    tag_13:\n      mload(0x40)\n      dup1\n      swap2\n      sub\n      swap1\n      return\n        /* \"lecture/16_.\\xeb\\xa7\\xb5\\xed\\x95\\x91.sol\":1057:1158  function setNameList(uint256 _key,string memory _name) public {... */\n    tag_4:\n      tag_15\n      0x04\n      dup1\n      calldatasize\n      sub\n      dup2\n      add\n      swap1\n      tag_16\n      swap2\n      swap1\n      tag_17\n      jump\t// in\n    tag_16:\n      tag_18\n      jump\t// in\n    tag_15:\n      stop\n        /* \"lecture/16_.\\xeb\\xa7\\xb5\\xed\\x95\\x91.sol\":1692:1801  function getPriceList(string memory _key) public view returns(uint256){... */\n    tag_5:\n      tag_19\n      0x04\n      dup1\n      calldatasize\n      sub\n      dup2\n      add\n      swap1\n      tag_20\n      swap2\n      swap1\n      tag_21\n      jump\t// in\n    tag_20:\n      tag_22\n      jump\t// in\n    tag_19:\n      mload(0x40)\n      tag_23\n      swap2\n      swap1\n      tag_14\n      jump\t// in\n    tag_23:\n      mload(0x40)\n      dup1\n      swap2\n      sub\n      swap1\n      return\n        /* \"lecture/16_.\\xeb\\xa7\\xb5\\xed\\x95\\x91.sol\":1237:1340  function getName(uint256 _key) public view returns(string memory){... */\n    tag_6:\n      tag_24\n      0x04\n      dup1\n      calldatasize\n      sub\n      dup2\n      add\n      swap1\n      tag_25\n      swap2\n      swap1\n      tag_11\n      jump\t// in\n    tag_25:\n      tag_26\n      jump\t// in\n    tag_24:\n      mload(0x40)\n      tag_27\n      swap2\n      swap1\n      tag_28\n      jump\t// in\n    tag_27:\n      mload(0x40)\n      dup1\n      swap2\n      sub\n      swap1\n      return\n        /* \"lecture/16_.\\xeb\\xa7\\xb5\\xed\\x95\\x91.sol\":1493:1608  function setPriceList(string memory _itemName,uint256 _price) public {... */\n    tag_7:\n      tag_29\n      0x04\n      dup1\n      calldatasize\n      sub\n      dup2\n      add\n      swap1\n      tag_30\n      swap2\n      swap1\n      tag_31\n      jump\t// in\n    tag_30:\n      tag_32\n      jump\t// in\n    tag_29:\n      stop\n        /* \"lecture/16_.\\xeb\\xa7\\xb5\\xed\\x95\\x91.sol\":634:725  function setAgeList(uint256 _key,uint256 _age) public {... */\n    tag_8:\n      tag_33\n      0x04\n      dup1\n      calldatasize\n      sub\n      dup2\n      add\n      swap1\n      tag_34\n      swap2\n      swap1\n      tag_35\n      jump\t// in\n    tag_34:\n      tag_36\n      jump\t// in\n    tag_33:\n      stop\n        /* \"lecture/16_.\\xeb\\xa7\\xb5\\xed\\x95\\x91.sol\":808:903  function getAge(uint256 _key) public view returns(uint256){... */\n    tag_12:\n        /* \"lecture/16_.\\xeb\\xa7\\xb5\\xed\\x95\\x91.sol\":858:865  uint256 */\n      0x00\n        /* \"lecture/16_.\\xeb\\xa7\\xb5\\xed\\x95\\x91.sol\":883:890  ageList */\n      0x02\n        /* \"lecture/16_.\\xeb\\xa7\\xb5\\xed\\x95\\x91.sol\":883:896  ageList[_key] */\n      0x00\n        /* \"lecture/16_.\\xeb\\xa7\\xb5\\xed\\x95\\x91.sol\":891:895  _key */\n      dup4\n        /* \"lecture/16_.\\xeb\\xa7\\xb5\\xed\\x95\\x91.sol\":883:896  ageList[_key] */\n      dup2\n      mstore\n      0x20\n      add\n      swap1\n      dup2\n      mstore\n      0x20\n      add\n      0x00\n      keccak256\n      sload\n        /* \"lecture/16_.\\xeb\\xa7\\xb5\\xed\\x95\\x91.sol\":876:896  return ageList[_key] */\n      swap1\n      pop\n        /* \"lecture/16_.\\xeb\\xa7\\xb5\\xed\\x95\\x91.sol\":808:903  function getAge(uint256 _key) public view returns(uint256){... */\n      swap2\n      swap1\n      pop\n      jump\t// out\n        /* \"lecture/16_.\\xeb\\xa7\\xb5\\xed\\x95\\x91.sol\":1057:1158  function setNameList(uint256 _key,string memory _name) public {... */\n    tag_18:\n        /* \"lecture/16_.\\xeb\\xa7\\xb5\\xed\\x95\\x91.sol\":1146:1151  _name */\n      dup1\n        /* \"lecture/16_.\\xeb\\xa7\\xb5\\xed\\x95\\x91.sol\":1129:1137  nameList */\n      0x01\n        /* \"lecture/16_.\\xeb\\xa7\\xb5\\xed\\x95\\x91.sol\":1129:1143  nameList[_key] */\n      0x00\n        /* \"lecture/16_.\\xeb\\xa7\\xb5\\xed\\x95\\x91.sol\":1138:1142  _key */\n      dup5\n        /* \"lecture/16_.\\xeb\\xa7\\xb5\\xed\\x95\\x91.sol\":1129:1143  nameList[_key] */\n      dup2\n      mstore\n      0x20\n      add\n      swap1\n      dup2\n      mstore\n      0x20\n      add\n      0x00\n      keccak256\n        /* \"lecture/16_.\\xeb\\xa7\\xb5\\xed\\x95\\x91.sol\":1129:1151  nameList[_key] = _name */\n      swap1\n      dup2\n      tag_39\n      swap2\n      swap1\n      tag_40\n      jump\t// in\n    tag_39:\n      pop\n        /* \"lecture/16_.\\xeb\\xa7\\xb5\\xed\\x95\\x91.sol\":1057:1158  function setNameList(uint256 _key,string memory _name) public {... */\n      pop\n      pop\n      jump\t// out\n        /* \"lecture/16_.\\xeb\\xa7\\xb5\\xed\\x95\\x91.sol\":1692:1801  function getPriceList(string memory _key) public view returns(uint256){... */\n    tag_22:\n        /* \"lecture/16_.\\xeb\\xa7\\xb5\\xed\\x95\\x91.sol\":1754:1761  uint256 */\n      0x00\n        /* \"lecture/16_.\\xeb\\xa7\\xb5\\xed\\x95\\x91.sol\":1779:1788  priceList */\n      dup1\n        /* \"lecture/16_.\\xeb\\xa7\\xb5\\xed\\x95\\x91.sol\":1789:1793  _key */\n      dup3\n        /* \"lecture/16_.\\xeb\\xa7\\xb5\\xed\\x95\\x91.sol\":1779:1794  priceList[_key] */\n      mload(0x40)\n      tag_42\n      swap2\n      swap1\n      tag_43\n      jump\t// in\n    tag_42:\n      swap1\n      dup2\n      mstore\n      0x20\n      add\n      mload(0x40)\n      dup1\n      swap2\n      sub\n      swap1\n      keccak256\n      sload\n        /* \"lecture/16_.\\xeb\\xa7\\xb5\\xed\\x95\\x91.sol\":1772:1794  return priceList[_key] */\n      swap1\n      pop\n        /* \"lecture/16_.\\xeb\\xa7\\xb5\\xed\\x95\\x91.sol\":1692:1801  function getPriceList(string memory _key) public view returns(uint256){... */\n      swap2\n      swap1\n      pop\n      jump\t// out\n        /* \"lecture/16_.\\xeb\\xa7\\xb5\\xed\\x95\\x91.sol\":1237:1340  function getName(uint256 _key) public view returns(string memory){... */\n    tag_26:\n        /* \"lecture/16_.\\xeb\\xa7\\xb5\\xed\\x95\\x91.sol\":1288:1301  string memory */\n      0x60\n        /* \"lecture/16_.\\xeb\\xa7\\xb5\\xed\\x95\\x91.sol\":1319:1327  nameList */\n      0x01\n        /* \"lecture/16_.\\xeb\\xa7\\xb5\\xed\\x95\\x91.sol\":1319:1333  nameList[_key] */\n      0x00\n        /* \"lecture/16_.\\xeb\\xa7\\xb5\\xed\\x95\\x91.sol\":1328:1332  _key */\n      dup4\n        /* \"lecture/16_.\\xeb\\xa7\\xb5\\xed\\x95\\x91.sol\":1319:1333  nameList[_key] */\n      dup2\n      mstore\n      0x20\n      add\n      swap1\n      dup2\n      mstore\n      0x20\n      add\n      0x00\n      keccak256\n        /* \"lecture/16_.\\xeb\\xa7\\xb5\\xed\\x95\\x91.sol\":1312:1333  return nameList[_key] */\n      dup1\n      sload\n      tag_45\n      swap1\n      tag_46\n      jump\t// in\n    tag_45:\n      dup1\n      0x1f\n      add\n      0x20\n      dup1\n      swap2\n      div\n      mul\n      0x20\n      add\n      mload(0x40)\n      swap1\n      dup2\n      add\n      0x40\n      mstore\n      dup1\n      swap3\n      swap2\n      swap1\n      dup2\n      dup2\n      mstore\n      0x20\n      add\n      dup3\n      dup1\n      sload\n      tag_47\n      swap1\n      tag_46\n      jump\t// in\n    tag_47:\n      dup1\n      iszero\n      tag_48\n      jumpi\n      dup1\n      0x1f\n      lt\n      tag_49\n      jumpi\n      0x0100\n      dup1\n      dup4\n      sload\n      div\n      mul\n      dup4\n      mstore\n      swap2\n      0x20\n      add\n      swap2\n      jump(tag_48)\n    tag_49:\n      dup3\n      add\n      swap2\n      swap1\n      0x00\n      mstore\n      keccak256(0x00, 0x20)\n      swap1\n    tag_50:\n      dup2\n      sload\n      dup2\n      mstore\n      swap1\n      0x01\n      add\n      swap1\n      0x20\n      add\n      dup1\n      dup4\n      gt\n      tag_50\n      jumpi\n      dup3\n      swap1\n      sub\n      0x1f\n      and\n      dup3\n      add\n      swap2\n    tag_48:\n      pop\n      pop\n      pop\n      pop\n      pop\n      swap1\n      pop\n        /* \"lecture/16_.\\xeb\\xa7\\xb5\\xed\\x95\\x91.sol\":1237:1340  function getName(uint256 _key) public view returns(string memory){... */\n      swap2\n      swap1\n      pop\n      jump\t// out\n        /* \"lecture/16_.\\xeb\\xa7\\xb5\\xed\\x95\\x91.sol\":1493:1608  function setPriceList(string memory _itemName,uint256 _price) public {... */\n    tag_32:\n        /* \"lecture/16_.\\xeb\\xa7\\xb5\\xed\\x95\\x91.sol\":1595:1601  _price */\n      dup1\n        /* \"lecture/16_.\\xeb\\xa7\\xb5\\xed\\x95\\x91.sol\":1572:1581  priceList */\n      0x00\n        /* \"lecture/16_.\\xeb\\xa7\\xb5\\xed\\x95\\x91.sol\":1582:1591  _itemName */\n      dup4\n        /* \"lecture/16_.\\xeb\\xa7\\xb5\\xed\\x95\\x91.sol\":1572:1592  priceList[_itemName] */\n      mload(0x40)\n      tag_52\n      swap2\n      swap1\n      tag_43\n      jump\t// in\n    tag_52:\n      swap1\n      dup2\n      mstore\n      0x20\n      add\n      mload(0x40)\n      dup1\n      swap2\n      sub\n      swap1\n      keccak256\n        /* \"lecture/16_.\\xeb\\xa7\\xb5\\xed\\x95\\x91.sol\":1572:1601  priceList[_itemName] = _price */\n      dup2\n      swap1\n      sstore\n      pop\n        /* \"lecture/16_.\\xeb\\xa7\\xb5\\xed\\x95\\x91.sol\":1493:1608  function setPriceList(string memory _itemName,uint256 _price) public {... */\n      pop\n      pop\n      jump\t// out\n        /* \"lecture/16_.\\xeb\\xa7\\xb5\\xed\\x95\\x91.sol\":634:725  function setAgeList(uint256 _key,uint256 _age) public {... */\n    tag_36:\n        /* \"lecture/16_.\\xeb\\xa7\\xb5\\xed\\x95\\x91.sol\":714:718  _age */\n      dup1\n        /* \"lecture/16_.\\xeb\\xa7\\xb5\\xed\\x95\\x91.sol\":698:705  ageList */\n      0x02\n        /* \"lecture/16_.\\xeb\\xa7\\xb5\\xed\\x95\\x91.sol\":698:711  ageList[_key] */\n      0x00\n        /* \"lecture/16_.\\xeb\\xa7\\xb5\\xed\\x95\\x91.sol\":706:710  _key */\n      dup5\n        /* \"lecture/16_.\\xeb\\xa7\\xb5\\xed\\x95\\x91.sol\":698:711  ageList[_key] */\n      dup2\n      mstore\n      0x20\n      add\n      swap1\n      dup2\n      mstore\n      0x20\n      add\n      0x00\n      keccak256\n        /* \"lecture/16_.\\xeb\\xa7\\xb5\\xed\\x95\\x91.sol\":698:718  ageList[_key] = _age */\n      dup2\n      swap1\n      sstore\n      pop\n        /* \"lecture/16_.\\xeb\\xa7\\xb5\\xed\\x95\\x91.sol\":634:725  function setAgeList(uint256 _key,uint256 _age) public {... */\n      pop\n      pop\n      jump\t// out\n        /* \"#utility.yul\":7:82   */\n    tag_54:\n        /* \"#utility.yul\":40:46   */\n      0x00\n        /* \"#utility.yul\":73:75   */\n      0x40\n        /* \"#utility.yul\":67:76   */\n      mload\n        /* \"#utility.yul\":57:76   */\n      swap1\n      pop\n        /* \"#utility.yul\":7:82   */\n      swap1\n      jump\t// out\n        /* \"#utility.yul\":88:205   */\n    tag_55:\n        /* \"#utility.yul\":197:198   */\n      0x00\n        /* \"#utility.yul\":194:195   */\n      dup1\n        /* \"#utility.yul\":187:199   */\n      revert\n        /* \"#utility.yul\":211:328   */\n    tag_56:\n        /* \"#utility.yul\":320:321   */\n      0x00\n        /* \"#utility.yul\":317:318   */\n      dup1\n        /* \"#utility.yul\":310:322   */\n      revert\n        /* \"#utility.yul\":334:411   */\n    tag_57:\n        /* \"#utility.yul\":371:378   */\n      0x00\n        /* \"#utility.yul\":400:405   */\n      dup2\n        /* \"#utility.yul\":389:405   */\n      swap1\n      pop\n        /* \"#utility.yul\":334:411   */\n      swap2\n      swap1\n      pop\n      jump\t// out\n        /* \"#utility.yul\":417:539   */\n    tag_58:\n        /* \"#utility.yul\":490:514   */\n      tag_99\n        /* \"#utility.yul\":508:513   */\n      dup2\n        /* \"#utility.yul\":490:514   */\n      tag_57\n      jump\t// in\n    tag_99:\n        /* \"#utility.yul\":483:488   */\n      dup2\n        /* \"#utility.yul\":480:515   */\n      eq\n        /* \"#utility.yul\":470:533   */\n      tag_100\n      jumpi\n        /* \"#utility.yul\":529:530   */\n      0x00\n        /* \"#utility.yul\":526:527   */\n      dup1\n        /* \"#utility.yul\":519:531   */\n      revert\n        /* \"#utility.yul\":470:533   */\n    tag_100:\n        /* \"#utility.yul\":417:539   */\n      pop\n      jump\t// out\n        /* \"#utility.yul\":545:684   */\n    tag_59:\n        /* \"#utility.yul\":591:596   */\n      0x00\n        /* \"#utility.yul\":629:635   */\n      dup2\n        /* \"#utility.yul\":616:636   */\n      calldataload\n        /* \"#utility.yul\":607:636   */\n      swap1\n      pop\n        /* \"#utility.yul\":645:678   */\n      tag_102\n        /* \"#utility.yul\":672:677   */\n      dup2\n        /* \"#utility.yul\":645:678   */\n      tag_58\n      jump\t// in\n    tag_102:\n        /* \"#utility.yul\":545:684   */\n      swap3\n      swap2\n      pop\n      pop\n      jump\t// out\n        /* \"#utility.yul\":690:1019   */\n    tag_11:\n        /* \"#utility.yul\":749:755   */\n      0x00\n        /* \"#utility.yul\":798:800   */\n      0x20\n        /* \"#utility.yul\":786:795   */\n      dup3\n        /* \"#utility.yul\":777:784   */\n      dup5\n        /* \"#utility.yul\":773:796   */\n      sub\n        /* \"#utility.yul\":769:801   */\n      slt\n        /* \"#utility.yul\":766:885   */\n      iszero\n      tag_104\n      jumpi\n        /* \"#utility.yul\":804:883   */\n      tag_105\n      tag_55\n      jump\t// in\n    tag_105:\n        /* \"#utility.yul\":766:885   */\n    tag_104:\n        /* \"#utility.yul\":924:925   */\n      0x00\n        /* \"#utility.yul\":949:1002   */\n      tag_106\n        /* \"#utility.yul\":994:1001   */\n      dup5\n        /* \"#utility.yul\":985:991   */\n      dup3\n        /* \"#utility.yul\":974:983   */\n      dup6\n        /* \"#utility.yul\":970:992   */\n      add\n        /* \"#utility.yul\":949:1002   */\n      tag_59\n      jump\t// in\n    tag_106:\n        /* \"#utility.yul\":939:1002   */\n      swap2\n      pop\n        /* \"#utility.yul\":895:1012   */\n      pop\n        /* \"#utility.yul\":690:1019   */\n      swap3\n      swap2\n      pop\n      pop\n      jump\t// out\n        /* \"#utility.yul\":1025:1143   */\n    tag_60:\n        /* \"#utility.yul\":1112:1136   */\n      tag_108\n        /* \"#utility.yul\":1130:1135   */\n      dup2\n        /* \"#utility.yul\":1112:1136   */\n      tag_57\n      jump\t// in\n    tag_108:\n        /* \"#utility.yul\":1107:1110   */\n      dup3\n        /* \"#utility.yul\":1100:1137   */\n      mstore\n        /* \"#utility.yul\":1025:1143   */\n      pop\n      pop\n      jump\t// out\n        /* \"#utility.yul\":1149:1371   */\n    tag_14:\n        /* \"#utility.yul\":1242:1246   */\n      0x00\n        /* \"#utility.yul\":1280:1282   */\n      0x20\n        /* \"#utility.yul\":1269:1278   */\n      dup3\n        /* \"#utility.yul\":1265:1283   */\n      add\n        /* \"#utility.yul\":1257:1283   */\n      swap1\n      pop\n        /* \"#utility.yul\":1293:1364   */\n      tag_110\n        /* \"#utility.yul\":1361:1362   */\n      0x00\n        /* \"#utility.yul\":1350:1359   */\n      dup4\n        /* \"#utility.yul\":1346:1363   */\n      add\n        /* \"#utility.yul\":1337:1343   */\n      dup5\n        /* \"#utility.yul\":1293:1364   */\n      tag_60\n      jump\t// in\n    tag_110:\n        /* \"#utility.yul\":1149:1371   */\n      swap3\n      swap2\n      pop\n      pop\n      jump\t// out\n        /* \"#utility.yul\":1377:1494   */\n    tag_61:\n        /* \"#utility.yul\":1486:1487   */\n      0x00\n        /* \"#utility.yul\":1483:1484   */\n      dup1\n        /* \"#utility.yul\":1476:1488   */\n      revert\n        /* \"#utility.yul\":1500:1617   */\n    tag_62:\n        /* \"#utility.yul\":1609:1610   */\n      0x00\n        /* \"#utility.yul\":1606:1607   */\n      dup1\n        /* \"#utility.yul\":1599:1611   */\n      revert\n        /* \"#utility.yul\":1623:1725   */\n    tag_63:\n        /* \"#utility.yul\":1664:1670   */\n      0x00\n        /* \"#utility.yul\":1715:1717   */\n      0x1f\n        /* \"#utility.yul\":1711:1718   */\n      not\n        /* \"#utility.yul\":1706:1708   */\n      0x1f\n        /* \"#utility.yul\":1699:1704   */\n      dup4\n        /* \"#utility.yul\":1695:1709   */\n      add\n        /* \"#utility.yul\":1691:1719   */\n      and\n        /* \"#utility.yul\":1681:1719   */\n      swap1\n      pop\n        /* \"#utility.yul\":1623:1725   */\n      swap2\n      swap1\n      pop\n      jump\t// out\n        /* \"#utility.yul\":1731:1911   */\n    tag_64:\n        /* \"#utility.yul\":1779:1856   */\n      0x4e487b7100000000000000000000000000000000000000000000000000000000\n        /* \"#utility.yul\":1776:1777   */\n      0x00\n        /* \"#utility.yul\":1769:1857   */\n      mstore\n        /* \"#utility.yul\":1876:1880   */\n      0x41\n        /* \"#utility.yul\":1873:1874   */\n      0x04\n        /* \"#utility.yul\":1866:1881   */\n      mstore\n        /* \"#utility.yul\":1900:1904   */\n      0x24\n        /* \"#utility.yul\":1897:1898   */\n      0x00\n        /* \"#utility.yul\":1890:1905   */\n      revert\n        /* \"#utility.yul\":1917:2198   */\n    tag_65:\n        /* \"#utility.yul\":2000:2027   */\n      tag_116\n        /* \"#utility.yul\":2022:2026   */\n      dup3\n        /* \"#utility.yul\":2000:2027   */\n      tag_63\n      jump\t// in\n    tag_116:\n        /* \"#utility.yul\":1992:1998   */\n      dup2\n        /* \"#utility.yul\":1988:2028   */\n      add\n        /* \"#utility.yul\":2130:2136   */\n      dup2\n        /* \"#utility.yul\":2118:2128   */\n      dup2\n        /* \"#utility.yul\":2115:2137   */\n      lt\n        /* \"#utility.yul\":2094:2112   */\n      0xffffffffffffffff\n        /* \"#utility.yul\":2082:2092   */\n      dup3\n        /* \"#utility.yul\":2079:2113   */\n      gt\n        /* \"#utility.yul\":2076:2138   */\n      or\n        /* \"#utility.yul\":2073:2161   */\n      iszero\n      tag_117\n      jumpi\n        /* \"#utility.yul\":2141:2159   */\n      tag_118\n      tag_64\n      jump\t// in\n    tag_118:\n        /* \"#utility.yul\":2073:2161   */\n    tag_117:\n        /* \"#utility.yul\":2181:2191   */\n      dup1\n        /* \"#utility.yul\":2177:2179   */\n      0x40\n        /* \"#utility.yul\":2170:2192   */\n      mstore\n        /* \"#utility.yul\":1960:2198   */\n      pop\n        /* \"#utility.yul\":1917:2198   */\n      pop\n      pop\n      jump\t// out\n        /* \"#utility.yul\":2204:2333   */\n    tag_66:\n        /* \"#utility.yul\":2238:2244   */\n      0x00\n        /* \"#utility.yul\":2265:2285   */\n      tag_120\n      tag_54\n      jump\t// in\n    tag_120:\n        /* \"#utility.yul\":2255:2285   */\n      swap1\n      pop\n        /* \"#utility.yul\":2294:2327   */\n      tag_121\n        /* \"#utility.yul\":2322:2326   */\n      dup3\n        /* \"#utility.yul\":2314:2320   */\n      dup3\n        /* \"#utility.yul\":2294:2327   */\n      tag_65\n      jump\t// in\n    tag_121:\n        /* \"#utility.yul\":2204:2333   */\n      swap2\n      swap1\n      pop\n      jump\t// out\n        /* \"#utility.yul\":2339:2647   */\n    tag_67:\n        /* \"#utility.yul\":2401:2405   */\n      0x00\n        /* \"#utility.yul\":2491:2509   */\n      0xffffffffffffffff\n        /* \"#utility.yul\":2483:2489   */\n      dup3\n        /* \"#utility.yul\":2480:2510   */\n      gt\n        /* \"#utility.yul\":2477:2533   */\n      iszero\n      tag_123\n      jumpi\n        /* \"#utility.yul\":2513:2531   */\n      tag_124\n      tag_64\n      jump\t// in\n    tag_124:\n        /* \"#utility.yul\":2477:2533   */\n    tag_123:\n        /* \"#utility.yul\":2551:2580   */\n      tag_125\n        /* \"#utility.yul\":2573:2579   */\n      dup3\n        /* \"#utility.yul\":2551:2580   */\n      tag_63\n      jump\t// in\n    tag_125:\n        /* \"#utility.yul\":2543:2580   */\n      swap1\n      pop\n        /* \"#utility.yul\":2635:2639   */\n      0x20\n        /* \"#utility.yul\":2629:2633   */\n      dup2\n        /* \"#utility.yul\":2625:2640   */\n      add\n        /* \"#utility.yul\":2617:2640   */\n      swap1\n      pop\n        /* \"#utility.yul\":2339:2647   */\n      swap2\n      swap1\n      pop\n      jump\t// out\n        /* \"#utility.yul\":2653:2799   */\n    tag_68:\n        /* \"#utility.yul\":2750:2756   */\n      dup3\n        /* \"#utility.yul\":2745:2748   */\n      dup2\n        /* \"#utility.yul\":2740:2743   */\n      dup4\n        /* \"#utility.yul\":2727:2757   */\n      calldatacopy\n        /* \"#utility.yul\":2791:2792   */\n      0x00\n        /* \"#utility.yul\":2782:2788   */\n      dup4\n        /* \"#utility.yul\":2777:2780   */\n      dup4\n        /* \"#utility.yul\":2773:2789   */\n      add\n        /* \"#utility.yul\":2766:2793   */\n      mstore\n        /* \"#utility.yul\":2653:2799   */\n      pop\n      pop\n      pop\n      jump\t// out\n        /* \"#utility.yul\":2805:3230   */\n    tag_69:\n        /* \"#utility.yul\":2883:2888   */\n      0x00\n        /* \"#utility.yul\":2908:2974   */\n      tag_128\n        /* \"#utility.yul\":2924:2973   */\n      tag_129\n        /* \"#utility.yul\":2966:2972   */\n      dup5\n        /* \"#utility.yul\":2924:2973   */\n      tag_67\n      jump\t// in\n    tag_129:\n        /* \"#utility.yul\":2908:2974   */\n      tag_66\n      jump\t// in\n    tag_128:\n        /* \"#utility.yul\":2899:2974   */\n      swap1\n      pop\n        /* \"#utility.yul\":2997:3003   */\n      dup3\n        /* \"#utility.yul\":2990:2995   */\n      dup2\n        /* \"#utility.yul\":2983:3004   */\n      mstore\n        /* \"#utility.yul\":3035:3039   */\n      0x20\n        /* \"#utility.yul\":3028:3033   */\n      dup2\n        /* \"#utility.yul\":3024:3040   */\n      add\n        /* \"#utility.yul\":3073:3076   */\n      dup5\n        /* \"#utility.yul\":3064:3070   */\n      dup5\n        /* \"#utility.yul\":3059:3062   */\n      dup5\n        /* \"#utility.yul\":3055:3071   */\n      add\n        /* \"#utility.yul\":3052:3077   */\n      gt\n        /* \"#utility.yul\":3049:3161   */\n      iszero\n      tag_130\n      jumpi\n        /* \"#utility.yul\":3080:3159   */\n      tag_131\n      tag_62\n      jump\t// in\n    tag_131:\n        /* \"#utility.yul\":3049:3161   */\n    tag_130:\n        /* \"#utility.yul\":3170:3224   */\n      tag_132\n        /* \"#utility.yul\":3217:3223   */\n      dup5\n        /* \"#utility.yul\":3212:3215   */\n      dup3\n        /* \"#utility.yul\":3207:3210   */\n      dup6\n        /* \"#utility.yul\":3170:3224   */\n      tag_68\n      jump\t// in\n    tag_132:\n        /* \"#utility.yul\":2889:3230   */\n      pop\n        /* \"#utility.yul\":2805:3230   */\n      swap4\n      swap3\n      pop\n      pop\n      pop\n      jump\t// out\n        /* \"#utility.yul\":3250:3590   */\n    tag_70:\n        /* \"#utility.yul\":3306:3311   */\n      0x00\n        /* \"#utility.yul\":3355:3358   */\n      dup3\n        /* \"#utility.yul\":3348:3352   */\n      0x1f\n        /* \"#utility.yul\":3340:3346   */\n      dup4\n        /* \"#utility.yul\":3336:3353   */\n      add\n        /* \"#utility.yul\":3332:3359   */\n      slt\n        /* \"#utility.yul\":3322:3444   */\n      tag_134\n      jumpi\n        /* \"#utility.yul\":3363:3442   */\n      tag_135\n      tag_61\n      jump\t// in\n    tag_135:\n        /* \"#utility.yul\":3322:3444   */\n    tag_134:\n        /* \"#utility.yul\":3480:3486   */\n      dup2\n        /* \"#utility.yul\":3467:3487   */\n      calldataload\n        /* \"#utility.yul\":3505:3584   */\n      tag_136\n        /* \"#utility.yul\":3580:3583   */\n      dup5\n        /* \"#utility.yul\":3572:3578   */\n      dup3\n        /* \"#utility.yul\":3565:3569   */\n      0x20\n        /* \"#utility.yul\":3557:3563   */\n      dup7\n        /* \"#utility.yul\":3553:3570   */\n      add\n        /* \"#utility.yul\":3505:3584   */\n      tag_69\n      jump\t// in\n    tag_136:\n        /* \"#utility.yul\":3496:3584   */\n      swap2\n      pop\n        /* \"#utility.yul\":3312:3590   */\n      pop\n        /* \"#utility.yul\":3250:3590   */\n      swap3\n      swap2\n      pop\n      pop\n      jump\t// out\n        /* \"#utility.yul\":3596:4250   */\n    tag_17:\n        /* \"#utility.yul\":3674:3680   */\n      0x00\n        /* \"#utility.yul\":3682:3688   */\n      dup1\n        /* \"#utility.yul\":3731:3733   */\n      0x40\n        /* \"#utility.yul\":3719:3728   */\n      dup4\n        /* \"#utility.yul\":3710:3717   */\n      dup6\n        /* \"#utility.yul\":3706:3729   */\n      sub\n        /* \"#utility.yul\":3702:3734   */\n      slt\n        /* \"#utility.yul\":3699:3818   */\n      iszero\n      tag_138\n      jumpi\n        /* \"#utility.yul\":3737:3816   */\n      tag_139\n      tag_55\n      jump\t// in\n    tag_139:\n        /* \"#utility.yul\":3699:3818   */\n    tag_138:\n        /* \"#utility.yul\":3857:3858   */\n      0x00\n        /* \"#utility.yul\":3882:3935   */\n      tag_140\n        /* \"#utility.yul\":3927:3934   */\n      dup6\n        /* \"#utility.yul\":3918:3924   */\n      dup3\n        /* \"#utility.yul\":3907:3916   */\n      dup7\n        /* \"#utility.yul\":3903:3925   */\n      add\n        /* \"#utility.yul\":3882:3935   */\n      tag_59\n      jump\t// in\n    tag_140:\n        /* \"#utility.yul\":3872:3935   */\n      swap3\n      pop\n        /* \"#utility.yul\":3828:3945   */\n      pop\n        /* \"#utility.yul\":4012:4014   */\n      0x20\n        /* \"#utility.yul\":4001:4010   */\n      dup4\n        /* \"#utility.yul\":3997:4015   */\n      add\n        /* \"#utility.yul\":3984:4016   */\n      calldataload\n        /* \"#utility.yul\":4043:4061   */\n      0xffffffffffffffff\n        /* \"#utility.yul\":4035:4041   */\n      dup2\n        /* \"#utility.yul\":4032:4062   */\n      gt\n        /* \"#utility.yul\":4029:4146   */\n      iszero\n      tag_141\n      jumpi\n        /* \"#utility.yul\":4065:4144   */\n      tag_142\n      tag_56\n      jump\t// in\n    tag_142:\n        /* \"#utility.yul\":4029:4146   */\n    tag_141:\n        /* \"#utility.yul\":4170:4233   */\n      tag_143\n        /* \"#utility.yul\":4225:4232   */\n      dup6\n        /* \"#utility.yul\":4216:4222   */\n      dup3\n        /* \"#utility.yul\":4205:4214   */\n      dup7\n        /* \"#utility.yul\":4201:4223   */\n      add\n        /* \"#utility.yul\":4170:4233   */\n      tag_70\n      jump\t// in\n    tag_143:\n        /* \"#utility.yul\":4160:4233   */\n      swap2\n      pop\n        /* \"#utility.yul\":3955:4243   */\n      pop\n        /* \"#utility.yul\":3596:4250   */\n      swap3\n      pop\n      swap3\n      swap1\n      pop\n      jump\t// out\n        /* \"#utility.yul\":4256:4765   */\n    tag_21:\n        /* \"#utility.yul\":4325:4331   */\n      0x00\n        /* \"#utility.yul\":4374:4376   */\n      0x20\n        /* \"#utility.yul\":4362:4371   */\n      dup3\n        /* \"#utility.yul\":4353:4360   */\n      dup5\n        /* \"#utility.yul\":4349:4372   */\n      sub\n        /* \"#utility.yul\":4345:4377   */\n      slt\n        /* \"#utility.yul\":4342:4461   */\n      iszero\n      tag_145\n      jumpi\n        /* \"#utility.yul\":4380:4459   */\n      tag_146\n      tag_55\n      jump\t// in\n    tag_146:\n        /* \"#utility.yul\":4342:4461   */\n    tag_145:\n        /* \"#utility.yul\":4528:4529   */\n      0x00\n        /* \"#utility.yul\":4517:4526   */\n      dup3\n        /* \"#utility.yul\":4513:4530   */\n      add\n        /* \"#utility.yul\":4500:4531   */\n      calldataload\n        /* \"#utility.yul\":4558:4576   */\n      0xffffffffffffffff\n        /* \"#utility.yul\":4550:4556   */\n      dup2\n        /* \"#utility.yul\":4547:4577   */\n      gt\n        /* \"#utility.yul\":4544:4661   */\n      iszero\n      tag_147\n      jumpi\n        /* \"#utility.yul\":4580:4659   */\n      tag_148\n      tag_56\n      jump\t// in\n    tag_148:\n        /* \"#utility.yul\":4544:4661   */\n    tag_147:\n        /* \"#utility.yul\":4685:4748   */\n      tag_149\n        /* \"#utility.yul\":4740:4747   */\n      dup5\n        /* \"#utility.yul\":4731:4737   */\n      dup3\n        /* \"#utility.yul\":4720:4729   */\n      dup6\n        /* \"#utility.yul\":4716:4738   */\n      add\n        /* \"#utility.yul\":4685:4748   */\n      tag_70\n      jump\t// in\n    tag_149:\n        /* \"#utility.yul\":4675:4748   */\n      swap2\n      pop\n        /* \"#utility.yul\":4471:4758   */\n      pop\n        /* \"#utility.yul\":4256:4765   */\n      swap3\n      swap2\n      pop\n      pop\n      jump\t// out\n        /* \"#utility.yul\":4771:4870   */\n    tag_71:\n        /* \"#utility.yul\":4823:4829   */\n      0x00\n        /* \"#utility.yul\":4857:4862   */\n      dup2\n        /* \"#utility.yul\":4851:4863   */\n      mload\n        /* \"#utility.yul\":4841:4863   */\n      swap1\n      pop\n        /* \"#utility.yul\":4771:4870   */\n      swap2\n      swap1\n      pop\n      jump\t// out\n        /* \"#utility.yul\":4876:5045   */\n    tag_72:\n        /* \"#utility.yul\":4960:4971   */\n      0x00\n        /* \"#utility.yul\":4994:5000   */\n      dup3\n        /* \"#utility.yul\":4989:4992   */\n      dup3\n        /* \"#utility.yul\":4982:5001   */\n      mstore\n        /* \"#utility.yul\":5034:5038   */\n      0x20\n        /* \"#utility.yul\":5029:5032   */\n      dup3\n        /* \"#utility.yul\":5025:5039   */\n      add\n        /* \"#utility.yul\":5010:5039   */\n      swap1\n      pop\n        /* \"#utility.yul\":4876:5045   */\n      swap3\n      swap2\n      pop\n      pop\n      jump\t// out\n        /* \"#utility.yul\":5051:5297   */\n    tag_73:\n        /* \"#utility.yul\":5132:5133   */\n      0x00\n        /* \"#utility.yul\":5142:5255   */\n    tag_153:\n        /* \"#utility.yul\":5156:5162   */\n      dup4\n        /* \"#utility.yul\":5153:5154   */\n      dup2\n        /* \"#utility.yul\":5150:5163   */\n      lt\n        /* \"#utility.yul\":5142:5255   */\n      iszero\n      tag_155\n      jumpi\n        /* \"#utility.yul\":5241:5242   */\n      dup1\n        /* \"#utility.yul\":5236:5239   */\n      dup3\n        /* \"#utility.yul\":5232:5243   */\n      add\n        /* \"#utility.yul\":5226:5244   */\n      mload\n        /* \"#utility.yul\":5222:5223   */\n      dup2\n        /* \"#utility.yul\":5217:5220   */\n      dup5\n        /* \"#utility.yul\":5213:5224   */\n      add\n        /* \"#utility.yul\":5206:5245   */\n      mstore\n        /* \"#utility.yul\":5178:5180   */\n      0x20\n        /* \"#utility.yul\":5175:5176   */\n      dup2\n        /* \"#utility.yul\":5171:5181   */\n      add\n        /* \"#utility.yul\":5166:5181   */\n      swap1\n      pop\n        /* \"#utility.yul\":5142:5255   */\n      jump(tag_153)\n    tag_155:\n        /* \"#utility.yul\":5289:5290   */\n      0x00\n        /* \"#utility.yul\":5280:5286   */\n      dup5\n        /* \"#utility.yul\":5275:5278   */\n      dup5\n        /* \"#utility.yul\":5271:5287   */\n      add\n        /* \"#utility.yul\":5264:5291   */\n      mstore\n        /* \"#utility.yul\":5113:5297   */\n      pop\n        /* \"#utility.yul\":5051:5297   */\n      pop\n      pop\n      pop\n      jump\t// out\n        /* \"#utility.yul\":5303:5680   */\n    tag_74:\n        /* \"#utility.yul\":5391:5394   */\n      0x00\n        /* \"#utility.yul\":5419:5458   */\n      tag_157\n        /* \"#utility.yul\":5452:5457   */\n      dup3\n        /* \"#utility.yul\":5419:5458   */\n      tag_71\n      jump\t// in\n    tag_157:\n        /* \"#utility.yul\":5474:5545   */\n      tag_158\n        /* \"#utility.yul\":5538:5544   */\n      dup2\n        /* \"#utility.yul\":5533:5536   */\n      dup6\n        /* \"#utility.yul\":5474:5545   */\n      tag_72\n      jump\t// in\n    tag_158:\n        /* \"#utility.yul\":5467:5545   */\n      swap4\n      pop\n        /* \"#utility.yul\":5554:5619   */\n      tag_159\n        /* \"#utility.yul\":5612:5618   */\n      dup2\n        /* \"#utility.yul\":5607:5610   */\n      dup6\n        /* \"#utility.yul\":5600:5604   */\n      0x20\n        /* \"#utility.yul\":5593:5598   */\n      dup7\n        /* \"#utility.yul\":5589:5605   */\n      add\n        /* \"#utility.yul\":5554:5619   */\n      tag_73\n      jump\t// in\n    tag_159:\n        /* \"#utility.yul\":5644:5673   */\n      tag_160\n        /* \"#utility.yul\":5666:5672   */\n      dup2\n        /* \"#utility.yul\":5644:5673   */\n      tag_63\n      jump\t// in\n    tag_160:\n        /* \"#utility.yul\":5639:5642   */\n      dup5\n        /* \"#utility.yul\":5635:5674   */\n      add\n        /* \"#utility.yul\":5628:5674   */\n      swap2\n      pop\n        /* \"#utility.yul\":5395:5680   */\n      pop\n        /* \"#utility.yul\":5303:5680   */\n      swap3\n      swap2\n      pop\n      pop\n      jump\t// out\n        /* \"#utility.yul\":5686:5999   */\n    tag_28:\n        /* \"#utility.yul\":5799:5803   */\n      0x00\n        /* \"#utility.yul\":5837:5839   */\n      0x20\n        /* \"#utility.yul\":5826:5835   */\n      dup3\n        /* \"#utility.yul\":5822:5840   */\n      add\n        /* \"#utility.yul\":5814:5840   */\n      swap1\n      pop\n        /* \"#utility.yul\":5886:5895   */\n      dup2\n        /* \"#utility.yul\":5880:5884   */\n      dup2\n        /* \"#utility.yul\":5876:5896   */\n      sub\n        /* \"#utility.yul\":5872:5873   */\n      0x00\n        /* \"#utility.yul\":5861:5870   */\n      dup4\n        /* \"#utility.yul\":5857:5874   */\n      add\n        /* \"#utility.yul\":5850:5897   */\n      mstore\n        /* \"#utility.yul\":5914:5992   */\n      tag_162\n        /* \"#utility.yul\":5987:5991   */\n      dup2\n        /* \"#utility.yul\":5978:5984   */\n      dup5\n        /* \"#utility.yul\":5914:5992   */\n      tag_74\n      jump\t// in\n    tag_162:\n        /* \"#utility.yul\":5906:5992   */\n      swap1\n      pop\n        /* \"#utility.yul\":5686:5999   */\n      swap3\n      swap2\n      pop\n      pop\n      jump\t// out\n        /* \"#utility.yul\":6005:6659   */\n    tag_31:\n        /* \"#utility.yul\":6083:6089   */\n      0x00\n        /* \"#utility.yul\":6091:6097   */\n      dup1\n        /* \"#utility.yul\":6140:6142   */\n      0x40\n        /* \"#utility.yul\":6128:6137   */\n      dup4\n        /* \"#utility.yul\":6119:6126   */\n      dup6\n        /* \"#utility.yul\":6115:6138   */\n      sub\n        /* \"#utility.yul\":6111:6143   */\n      slt\n        /* \"#utility.yul\":6108:6227   */\n      iszero\n      tag_164\n      jumpi\n        /* \"#utility.yul\":6146:6225   */\n      tag_165\n      tag_55\n      jump\t// in\n    tag_165:\n        /* \"#utility.yul\":6108:6227   */\n    tag_164:\n        /* \"#utility.yul\":6294:6295   */\n      0x00\n        /* \"#utility.yul\":6283:6292   */\n      dup4\n        /* \"#utility.yul\":6279:6296   */\n      add\n        /* \"#utility.yul\":6266:6297   */\n      calldataload\n        /* \"#utility.yul\":6324:6342   */\n      0xffffffffffffffff\n        /* \"#utility.yul\":6316:6322   */\n      dup2\n        /* \"#utility.yul\":6313:6343   */\n      gt\n        /* \"#utility.yul\":6310:6427   */\n      iszero\n      tag_166\n      jumpi\n        /* \"#utility.yul\":6346:6425   */\n      tag_167\n      tag_56\n      jump\t// in\n    tag_167:\n        /* \"#utility.yul\":6310:6427   */\n    tag_166:\n        /* \"#utility.yul\":6451:6514   */\n      tag_168\n        /* \"#utility.yul\":6506:6513   */\n      dup6\n        /* \"#utility.yul\":6497:6503   */\n      dup3\n        /* \"#utility.yul\":6486:6495   */\n      dup7\n        /* \"#utility.yul\":6482:6504   */\n      add\n        /* \"#utility.yul\":6451:6514   */\n      tag_70\n      jump\t// in\n    tag_168:\n        /* \"#utility.yul\":6441:6514   */\n      swap3\n      pop\n        /* \"#utility.yul\":6237:6524   */\n      pop\n        /* \"#utility.yul\":6563:6565   */\n      0x20\n        /* \"#utility.yul\":6589:6642   */\n      tag_169\n        /* \"#utility.yul\":6634:6641   */\n      dup6\n        /* \"#utility.yul\":6625:6631   */\n      dup3\n        /* \"#utility.yul\":6614:6623   */\n      dup7\n        /* \"#utility.yul\":6610:6632   */\n      add\n        /* \"#utility.yul\":6589:6642   */\n      tag_59\n      jump\t// in\n    tag_169:\n        /* \"#utility.yul\":6579:6642   */\n      swap2\n      pop\n        /* \"#utility.yul\":6534:6652   */\n      pop\n        /* \"#utility.yul\":6005:6659   */\n      swap3\n      pop\n      swap3\n      swap1\n      pop\n      jump\t// out\n        /* \"#utility.yul\":6665:7139   */\n    tag_35:\n        /* \"#utility.yul\":6733:6739   */\n      0x00\n        /* \"#utility.yul\":6741:6747   */\n      dup1\n        /* \"#utility.yul\":6790:6792   */\n      0x40\n        /* \"#utility.yul\":6778:6787   */\n      dup4\n        /* \"#utility.yul\":6769:6776   */\n      dup6\n        /* \"#utility.yul\":6765:6788   */\n      sub\n        /* \"#utility.yul\":6761:6793   */\n      slt\n        /* \"#utility.yul\":6758:6877   */\n      iszero\n      tag_171\n      jumpi\n        /* \"#utility.yul\":6796:6875   */\n      tag_172\n      tag_55\n      jump\t// in\n    tag_172:\n        /* \"#utility.yul\":6758:6877   */\n    tag_171:\n        /* \"#utility.yul\":6916:6917   */\n      0x00\n        /* \"#utility.yul\":6941:6994   */\n      tag_173\n        /* \"#utility.yul\":6986:6993   */\n      dup6\n        /* \"#utility.yul\":6977:6983   */\n      dup3\n        /* \"#utility.yul\":6966:6975   */\n      dup7\n        /* \"#utility.yul\":6962:6984   */\n      add\n        /* \"#utility.yul\":6941:6994   */\n      tag_59\n      jump\t// in\n    tag_173:\n        /* \"#utility.yul\":6931:6994   */\n      swap3\n      pop\n        /* \"#utility.yul\":6887:7004   */\n      pop\n        /* \"#utility.yul\":7043:7045   */\n      0x20\n        /* \"#utility.yul\":7069:7122   */\n      tag_174\n        /* \"#utility.yul\":7114:7121   */\n      dup6\n        /* \"#utility.yul\":7105:7111   */\n      dup3\n        /* \"#utility.yul\":7094:7103   */\n      dup7\n        /* \"#utility.yul\":7090:7112   */\n      add\n        /* \"#utility.yul\":7069:7122   */\n      tag_59\n      jump\t// in\n    tag_174:\n        /* \"#utility.yul\":7059:7122   */\n      swap2\n      pop\n        /* \"#utility.yul\":7014:7132   */\n      pop\n        /* \"#utility.yul\":6665:7139   */\n      swap3\n      pop\n      swap3\n      swap1\n      pop\n      jump\t// out\n        /* \"#utility.yul\":7145:7325   */\n    tag_75:\n        /* \"#utility.yul\":7193:7270   */\n      0x4e487b7100000000000000000000000000000000000000000000000000000000\n        /* \"#utility.yul\":7190:7191   */\n      0x00\n        /* \"#utility.yul\":7183:7271   */\n      mstore\n        /* \"#utility.yul\":7290:7294   */\n      0x22\n        /* \"#utility.yul\":7287:7288   */\n      0x04\n        /* \"#utility.yul\":7280:7295   */\n      mstore\n        /* \"#utility.yul\":7314:7318   */\n      0x24\n        /* \"#utility.yul\":7311:7312   */\n      0x00\n        /* \"#utility.yul\":7304:7319   */\n      revert\n        /* \"#utility.yul\":7331:7651   */\n    tag_46:\n        /* \"#utility.yul\":7375:7381   */\n      0x00\n        /* \"#utility.yul\":7412:7413   */\n      0x02\n        /* \"#utility.yul\":7406:7410   */\n      dup3\n        /* \"#utility.yul\":7402:7414   */\n      div\n        /* \"#utility.yul\":7392:7414   */\n      swap1\n      pop\n        /* \"#utility.yul\":7459:7460   */\n      0x01\n        /* \"#utility.yul\":7453:7457   */\n      dup3\n        /* \"#utility.yul\":7449:7461   */\n      and\n        /* \"#utility.yul\":7480:7498   */\n      dup1\n        /* \"#utility.yul\":7470:7551   */\n      tag_177\n      jumpi\n        /* \"#utility.yul\":7536:7540   */\n      0x7f\n        /* \"#utility.yul\":7528:7534   */\n      dup3\n        /* \"#utility.yul\":7524:7541   */\n      and\n        /* \"#utility.yul\":7514:7541   */\n      swap2\n      pop\n        /* \"#utility.yul\":7470:7551   */\n    tag_177:\n        /* \"#utility.yul\":7598:7600   */\n      0x20\n        /* \"#utility.yul\":7590:7596   */\n      dup3\n        /* \"#utility.yul\":7587:7601   */\n      lt\n        /* \"#utility.yul\":7567:7585   */\n      dup2\n        /* \"#utility.yul\":7564:7602   */\n      sub\n        /* \"#utility.yul\":7561:7645   */\n      tag_178\n      jumpi\n        /* \"#utility.yul\":7617:7635   */\n      tag_179\n      tag_75\n      jump\t// in\n    tag_179:\n        /* \"#utility.yul\":7561:7645   */\n    tag_178:\n        /* \"#utility.yul\":7382:7651   */\n      pop\n        /* \"#utility.yul\":7331:7651   */\n      swap2\n      swap1\n      pop\n      jump\t// out\n        /* \"#utility.yul\":7657:7798   */\n    tag_76:\n        /* \"#utility.yul\":7706:7710   */\n      0x00\n        /* \"#utility.yul\":7729:7732   */\n      dup2\n        /* \"#utility.yul\":7721:7732   */\n      swap1\n      pop\n        /* \"#utility.yul\":7752:7755   */\n      dup2\n        /* \"#utility.yul\":7749:7750   */\n      0x00\n        /* \"#utility.yul\":7742:7756   */\n      mstore\n        /* \"#utility.yul\":7786:7790   */\n      0x20\n        /* \"#utility.yul\":7783:7784   */\n      0x00\n        /* \"#utility.yul\":7773:7791   */\n      keccak256\n        /* \"#utility.yul\":7765:7791   */\n      swap1\n      pop\n        /* \"#utility.yul\":7657:7798   */\n      swap2\n      swap1\n      pop\n      jump\t// out\n        /* \"#utility.yul\":7804:7897   */\n    tag_77:\n        /* \"#utility.yul\":7841:7847   */\n      0x00\n        /* \"#utility.yul\":7888:7890   */\n      0x20\n        /* \"#utility.yul\":7883:7885   */\n      0x1f\n        /* \"#utility.yul\":7876:7881   */\n      dup4\n        /* \"#utility.yul\":7872:7886   */\n      add\n        /* \"#utility.yul\":7868:7891   */\n      div\n        /* \"#utility.yul\":7858:7891   */\n      swap1\n      pop\n        /* \"#utility.yul\":7804:7897   */\n      swap2\n      swap1\n      pop\n      jump\t// out\n        /* \"#utility.yul\":7903:8010   */\n    tag_78:\n        /* \"#utility.yul\":7947:7955   */\n      0x00\n        /* \"#utility.yul\":7997:8002   */\n      dup3\n        /* \"#utility.yul\":7991:7995   */\n      dup3\n        /* \"#utility.yul\":7987:8003   */\n      shl\n        /* \"#utility.yul\":7966:8003   */\n      swap1\n      pop\n        /* \"#utility.yul\":7903:8010   */\n      swap3\n      swap2\n      pop\n      pop\n      jump\t// out\n        /* \"#utility.yul\":8016:8409   */\n    tag_79:\n        /* \"#utility.yul\":8085:8091   */\n      0x00\n        /* \"#utility.yul\":8135:8136   */\n      0x08\n        /* \"#utility.yul\":8123:8133   */\n      dup4\n        /* \"#utility.yul\":8119:8137   */\n      mul\n        /* \"#utility.yul\":8158:8255   */\n      tag_184\n        /* \"#utility.yul\":8188:8254   */\n      0xffffffffffffffffffffffffffffffffffffffffffffffffffffffffffffffff\n        /* \"#utility.yul\":8177:8186   */\n      dup3\n        /* \"#utility.yul\":8158:8255   */\n      tag_78\n      jump\t// in\n    tag_184:\n        /* \"#utility.yul\":8276:8315   */\n      tag_185\n        /* \"#utility.yul\":8306:8314   */\n      dup7\n        /* \"#utility.yul\":8295:8304   */\n      dup4\n        /* \"#utility.yul\":8276:8315   */\n      tag_78\n      jump\t// in\n    tag_185:\n        /* \"#utility.yul\":8264:8315   */\n      swap6\n      pop\n        /* \"#utility.yul\":8348:8352   */\n      dup1\n        /* \"#utility.yul\":8344:8353   */\n      not\n        /* \"#utility.yul\":8337:8342   */\n      dup5\n        /* \"#utility.yul\":8333:8354   */\n      and\n        /* \"#utility.yul\":8324:8354   */\n      swap4\n      pop\n        /* \"#utility.yul\":8397:8401   */\n      dup1\n        /* \"#utility.yul\":8387:8395   */\n      dup7\n        /* \"#utility.yul\":8383:8402   */\n      and\n        /* \"#utility.yul\":8376:8381   */\n      dup5\n        /* \"#utility.yul\":8373:8403   */\n      or\n        /* \"#utility.yul\":8363:8403   */\n      swap3\n      pop\n        /* \"#utility.yul\":8092:8409   */\n      pop\n      pop\n        /* \"#utility.yul\":8016:8409   */\n      swap4\n      swap3\n      pop\n      pop\n      pop\n      jump\t// out\n        /* \"#utility.yul\":8415:8475   */\n    tag_80:\n        /* \"#utility.yul\":8443:8446   */\n      0x00\n        /* \"#utility.yul\":8464:8469   */\n      dup2\n        /* \"#utility.yul\":8457:8469   */\n      swap1\n      pop\n        /* \"#utility.yul\":8415:8475   */\n      swap2\n      swap1\n      pop\n      jump\t// out\n        /* \"#utility.yul\":8481:8623   */\n    tag_81:\n        /* \"#utility.yul\":8531:8540   */\n      0x00\n        /* \"#utility.yul\":8564:8617   */\n      tag_188\n        /* \"#utility.yul\":8582:8616   */\n      tag_189\n        /* \"#utility.yul\":8591:8615   */\n      tag_190\n        /* \"#utility.yul\":8609:8614   */\n      dup5\n        /* \"#utility.yul\":8591:8615   */\n      tag_57\n      jump\t// in\n    tag_190:\n        /* \"#utility.yul\":8582:8616   */\n      tag_80\n      jump\t// in\n    tag_189:\n        /* \"#utility.yul\":8564:8617   */\n      tag_57\n      jump\t// in\n    tag_188:\n        /* \"#utility.yul\":8551:8617   */\n      swap1\n      pop\n        /* \"#utility.yul\":8481:8623   */\n      swap2\n      swap1\n      pop\n      jump\t// out\n        /* \"#utility.yul\":8629:8704   */\n    tag_82:\n        /* \"#utility.yul\":8672:8675   */\n      0x00\n        /* \"#utility.yul\":8693:8698   */\n      dup2\n        /* \"#utility.yul\":8686:8698   */\n      swap1\n      pop\n        /* \"#utility.yul\":8629:8704   */\n      swap2\n      swap1\n      pop\n      jump\t// out\n        /* \"#utility.yul\":8710:8979   */\n    tag_83:\n        /* \"#utility.yul\":8820:8859   */\n      tag_193\n        /* \"#utility.yul\":8851:8858   */\n      dup4\n        /* \"#utility.yul\":8820:8859   */\n      tag_81\n      jump\t// in\n    tag_193:\n        /* \"#utility.yul\":8881:8972   */\n      tag_194\n        /* \"#utility.yul\":8930:8971   */\n      tag_195\n        /* \"#utility.yul\":8954:8970   */\n      dup3\n        /* \"#utility.yul\":8930:8971   */\n      tag_82\n      jump\t// in\n    tag_195:\n        /* \"#utility.yul\":8922:8928   */\n      dup5\n        /* \"#utility.yul\":8915:8919   */\n      dup5\n        /* \"#utility.yul\":8909:8920   */\n      sload\n        /* \"#utility.yul\":8881:8972   */\n      tag_79\n      jump\t// in\n    tag_194:\n        /* \"#utility.yul\":8875:8879   */\n      dup3\n        /* \"#utility.yul\":8868:8973   */\n      sstore\n        /* \"#utility.yul\":8786:8979   */\n      pop\n        /* \"#utility.yul\":8710:8979   */\n      pop\n      pop\n      pop\n      jump\t// out\n        /* \"#utility.yul\":8985:9058   */\n    tag_84:\n        /* \"#utility.yul\":9030:9033   */\n      0x00\n        /* \"#utility.yul\":8985:9058   */\n      swap1\n      jump\t// out\n        /* \"#utility.yul\":9064:9253   */\n    tag_85:\n        /* \"#utility.yul\":9141:9173   */\n      tag_198\n      tag_84\n      jump\t// in\n    tag_198:\n        /* \"#utility.yul\":9182:9247   */\n      tag_199\n        /* \"#utility.yul\":9240:9246   */\n      dup2\n        /* \"#utility.yul\":9232:9238   */\n      dup5\n        /* \"#utility.yul\":9226:9230   */\n      dup5\n        /* \"#utility.yul\":9182:9247   */\n      tag_83\n      jump\t// in\n    tag_199:\n        /* \"#utility.yul\":9117:9253   */\n      pop\n        /* \"#utility.yul\":9064:9253   */\n      pop\n      pop\n      jump\t// out\n        /* \"#utility.yul\":9259:9445   */\n    tag_86:\n        /* \"#utility.yul\":9319:9439   */\n    tag_201:\n        /* \"#utility.yul\":9336:9339   */\n      dup2\n        /* \"#utility.yul\":9329:9334   */\n      dup2\n        /* \"#utility.yul\":9326:9340   */\n      lt\n        /* \"#utility.yul\":9319:9439   */\n      iszero\n      tag_203\n      jumpi\n        /* \"#utility.yul\":9390:9429   */\n      tag_204\n        /* \"#utility.yul\":9427:9428   */\n      0x00\n        /* \"#utility.yul\":9420:9425   */\n      dup3\n        /* \"#utility.yul\":9390:9429   */\n      tag_85\n      jump\t// in\n    tag_204:\n        /* \"#utility.yul\":9363:9364   */\n      0x01\n        /* \"#utility.yul\":9356:9361   */\n      dup2\n        /* \"#utility.yul\":9352:9365   */\n      add\n        /* \"#utility.yul\":9343:9365   */\n      swap1\n      pop\n        /* \"#utility.yul\":9319:9439   */\n      jump(tag_201)\n    tag_203:\n        /* \"#utility.yul\":9259:9445   */\n      pop\n      pop\n      jump\t// out\n        /* \"#utility.yul\":9451:9994   */\n    tag_87:\n        /* \"#utility.yul\":9552:9554   */\n      0x1f\n        /* \"#utility.yul\":9547:9550   */\n      dup3\n        /* \"#utility.yul\":9544:9555   */\n      gt\n        /* \"#utility.yul\":9541:9987   */\n      iszero\n      tag_206\n      jumpi\n        /* \"#utility.yul\":9586:9624   */\n      tag_207\n        /* \"#utility.yul\":9618:9623   */\n      dup2\n        /* \"#utility.yul\":9586:9624   */\n      tag_76\n      jump\t// in\n    tag_207:\n        /* \"#utility.yul\":9670:9699   */\n      tag_208\n        /* \"#utility.yul\":9688:9698   */\n      dup5\n        /* \"#utility.yul\":9670:9699   */\n      tag_77\n      jump\t// in\n    tag_208:\n        /* \"#utility.yul\":9660:9668   */\n      dup2\n        /* \"#utility.yul\":9656:9700   */\n      add\n        /* \"#utility.yul\":9853:9855   */\n      0x20\n        /* \"#utility.yul\":9841:9851   */\n      dup6\n        /* \"#utility.yul\":9838:9856   */\n      lt\n        /* \"#utility.yul\":9835:9884   */\n      iszero\n      tag_209\n      jumpi\n        /* \"#utility.yul\":9874:9882   */\n      dup2\n        /* \"#utility.yul\":9859:9882   */\n      swap1\n      pop\n        /* \"#utility.yul\":9835:9884   */\n    tag_209:\n        /* \"#utility.yul\":9897:9977   */\n      tag_210\n        /* \"#utility.yul\":9953:9975   */\n      tag_211\n        /* \"#utility.yul\":9971:9974   */\n      dup6\n        /* \"#utility.yul\":9953:9975   */\n      tag_77\n      jump\t// in\n    tag_211:\n        /* \"#utility.yul\":9943:9951   */\n      dup4\n        /* \"#utility.yul\":9939:9976   */\n      add\n        /* \"#utility.yul\":9926:9937   */\n      dup3\n        /* \"#utility.yul\":9897:9977   */\n      tag_86\n      jump\t// in\n    tag_210:\n        /* \"#utility.yul\":9556:9987   */\n      pop\n      pop\n        /* \"#utility.yul\":9541:9987   */\n    tag_206:\n        /* \"#utility.yul\":9451:9994   */\n      pop\n      pop\n      pop\n      jump\t// out\n        /* \"#utility.yul\":10000:10117   */\n    tag_88:\n        /* \"#utility.yul\":10054:10062   */\n      0x00\n        /* \"#utility.yul\":10104:10109   */\n      dup3\n        /* \"#utility.yul\":10098:10102   */\n      dup3\n        /* \"#utility.yul\":10094:10110   */\n      shr\n        /* \"#utility.yul\":10073:10110   */\n      swap1\n      pop\n        /* \"#utility.yul\":10000:10117   */\n      swap3\n      swap2\n      pop\n      pop\n      jump\t// out\n        /* \"#utility.yul\":10123:10292   */\n    tag_89:\n        /* \"#utility.yul\":10167:10173   */\n      0x00\n        /* \"#utility.yul\":10200:10251   */\n      tag_214\n        /* \"#utility.yul\":10248:10249   */\n      0x00\n        /* \"#utility.yul\":10244:10250   */\n      not\n        /* \"#utility.yul\":10236:10241   */\n      dup5\n        /* \"#utility.yul\":10233:10234   */\n      0x08\n        /* \"#utility.yul\":10229:10242   */\n      mul\n        /* \"#utility.yul\":10200:10251   */\n      tag_88\n      jump\t// in\n    tag_214:\n        /* \"#utility.yul\":10196:10252   */\n      not\n        /* \"#utility.yul\":10281:10285   */\n      dup1\n        /* \"#utility.yul\":10275:10279   */\n      dup4\n        /* \"#utility.yul\":10271:10286   */\n      and\n        /* \"#utility.yul\":10261:10286   */\n      swap2\n      pop\n        /* \"#utility.yul\":10174:10292   */\n      pop\n        /* \"#utility.yul\":10123:10292   */\n      swap3\n      swap2\n      pop\n      pop\n      jump\t// out\n        /* \"#utility.yul\":10297:10592   */\n    tag_90:\n        /* \"#utility.yul\":10373:10377   */\n      0x00\n        /* \"#utility.yul\":10519:10548   */\n      tag_216\n        /* \"#utility.yul\":10544:10547   */\n      dup4\n        /* \"#utility.yul\":10538:10542   */\n      dup4\n        /* \"#utility.yul\":10519:10548   */\n      tag_89\n      jump\t// in\n    tag_216:\n        /* \"#utility.yul\":10511:10548   */\n      swap2\n      pop\n        /* \"#utility.yul\":10581:10584   */\n      dup3\n        /* \"#utility.yul\":10578:10579   */\n      0x02\n        /* \"#utility.yul\":10574:10585   */\n      mul\n        /* \"#utility.yul\":10568:10572   */\n      dup3\n        /* \"#utility.yul\":10565:10586   */\n      or\n        /* \"#utility.yul\":10557:10586   */\n      swap1\n      pop\n        /* \"#utility.yul\":10297:10592   */\n      swap3\n      swap2\n      pop\n      pop\n      jump\t// out\n        /* \"#utility.yul\":10597:11992   */\n    tag_40:\n        /* \"#utility.yul\":10714:10751   */\n      tag_218\n        /* \"#utility.yul\":10747:10750   */\n      dup3\n        /* \"#utility.yul\":10714:10751   */\n      tag_71\n      jump\t// in\n    tag_218:\n        /* \"#utility.yul\":10816:10834   */\n      0xffffffffffffffff\n        /* \"#utility.yul\":10808:10814   */\n      dup2\n        /* \"#utility.yul\":10805:10835   */\n      gt\n        /* \"#utility.yul\":10802:10858   */\n      iszero\n      tag_219\n      jumpi\n        /* \"#utility.yul\":10838:10856   */\n      tag_220\n      tag_64\n      jump\t// in\n    tag_220:\n        /* \"#utility.yul\":10802:10858   */\n    tag_219:\n        /* \"#utility.yul\":10882:10920   */\n      tag_221\n        /* \"#utility.yul\":10914:10918   */\n      dup3\n        /* \"#utility.yul\":10908:10919   */\n      sload\n        /* \"#utility.yul\":10882:10920   */\n      tag_46\n      jump\t// in\n    tag_221:\n        /* \"#utility.yul\":10967:11034   */\n      tag_222\n        /* \"#utility.yul\":11027:11033   */\n      dup3\n        /* \"#utility.yul\":11019:11025   */\n      dup3\n        /* \"#utility.yul\":11013:11017   */\n      dup6\n        /* \"#utility.yul\":10967:11034   */\n      tag_87\n      jump\t// in\n    tag_222:\n        /* \"#utility.yul\":11061:11062   */\n      0x00\n        /* \"#utility.yul\":11085:11089   */\n      0x20\n        /* \"#utility.yul\":11072:11089   */\n      swap1\n      pop\n        /* \"#utility.yul\":11117:11119   */\n      0x1f\n        /* \"#utility.yul\":11109:11115   */\n      dup4\n        /* \"#utility.yul\":11106:11120   */\n      gt\n        /* \"#utility.yul\":11134:11135   */\n      0x01\n        /* \"#utility.yul\":11129:11747   */\n      dup2\n      eq\n      tag_224\n      jumpi\n        /* \"#utility.yul\":11791:11792   */\n      0x00\n        /* \"#utility.yul\":11808:11814   */\n      dup5\n        /* \"#utility.yul\":11805:11882   */\n      iszero\n      tag_225\n      jumpi\n        /* \"#utility.yul\":11857:11866   */\n      dup3\n        /* \"#utility.yul\":11852:11855   */\n      dup8\n        /* \"#utility.yul\":11848:11867   */\n      add\n        /* \"#utility.yul\":11842:11868   */\n      mload\n        /* \"#utility.yul\":11833:11868   */\n      swap1\n      pop\n        /* \"#utility.yul\":11805:11882   */\n    tag_225:\n        /* \"#utility.yul\":11908:11975   */\n      tag_226\n        /* \"#utility.yul\":11968:11974   */\n      dup6\n        /* \"#utility.yul\":11961:11966   */\n      dup3\n        /* \"#utility.yul\":11908:11975   */\n      tag_90\n      jump\t// in\n    tag_226:\n        /* \"#utility.yul\":11902:11906   */\n      dup7\n        /* \"#utility.yul\":11895:11976   */\n      sstore\n        /* \"#utility.yul\":11764:11986   */\n      pop\n        /* \"#utility.yul\":11099:11986   */\n      jump(tag_223)\n        /* \"#utility.yul\":11129:11747   */\n    tag_224:\n        /* \"#utility.yul\":11181:11185   */\n      0x1f\n        /* \"#utility.yul\":11177:11186   */\n      not\n        /* \"#utility.yul\":11169:11175   */\n      dup5\n        /* \"#utility.yul\":11165:11187   */\n      and\n        /* \"#utility.yul\":11215:11252   */\n      tag_227\n        /* \"#utility.yul\":11247:11251   */\n      dup7\n        /* \"#utility.yul\":11215:11252   */\n      tag_76\n      jump\t// in\n    tag_227:\n        /* \"#utility.yul\":11274:11275   */\n      0x00\n        /* \"#utility.yul\":11288:11496   */\n    tag_228:\n        /* \"#utility.yul\":11302:11309   */\n      dup3\n        /* \"#utility.yul\":11299:11300   */\n      dup2\n        /* \"#utility.yul\":11296:11310   */\n      lt\n        /* \"#utility.yul\":11288:11496   */\n      iszero\n      tag_230\n      jumpi\n        /* \"#utility.yul\":11381:11390   */\n      dup5\n        /* \"#utility.yul\":11376:11379   */\n      dup10\n        /* \"#utility.yul\":11372:11391   */\n      add\n        /* \"#utility.yul\":11366:11392   */\n      mload\n        /* \"#utility.yul\":11358:11364   */\n      dup3\n        /* \"#utility.yul\":11351:11393   */\n      sstore\n        /* \"#utility.yul\":11432:11433   */\n      0x01\n        /* \"#utility.yul\":11424:11430   */\n      dup3\n        /* \"#utility.yul\":11420:11434   */\n      add\n        /* \"#utility.yul\":11410:11434   */\n      swap2\n      pop\n        /* \"#utility.yul\":11479:11481   */\n      0x20\n        /* \"#utility.yul\":11468:11477   */\n      dup6\n        /* \"#utility.yul\":11464:11482   */\n      add\n        /* \"#utility.yul\":11451:11482   */\n      swap5\n      pop\n        /* \"#utility.yul\":11325:11329   */\n      0x20\n        /* \"#utility.yul\":11322:11323   */\n      dup2\n        /* \"#utility.yul\":11318:11330   */\n      add\n        /* \"#utility.yul\":11313:11330   */\n      swap1\n      pop\n        /* \"#utility.yul\":11288:11496   */\n      jump(tag_228)\n    tag_230:\n        /* \"#utility.yul\":11524:11530   */\n      dup7\n        /* \"#utility.yul\":11515:11522   */\n      dup4\n        /* \"#utility.yul\":11512:11531   */\n      lt\n        /* \"#utility.yul\":11509:11688   */\n      iszero\n      tag_231\n      jumpi\n        /* \"#utility.yul\":11582:11591   */\n      dup5\n        /* \"#utility.yul\":11577:11580   */\n      dup10\n        /* \"#utility.yul\":11573:11592   */\n      add\n        /* \"#utility.yul\":11567:11593   */\n      mload\n        /* \"#utility.yul\":11625:11673   */\n      tag_232\n        /* \"#utility.yul\":11667:11671   */\n      0x1f\n        /* \"#utility.yul\":11659:11665   */\n      dup10\n        /* \"#utility.yul\":11655:11672   */\n      and\n        /* \"#utility.yul\":11644:11653   */\n      dup3\n        /* \"#utility.yul\":11625:11673   */\n      tag_89\n      jump\t// in\n    tag_232:\n        /* \"#utility.yul\":11617:11623   */\n      dup4\n        /* \"#utility.yul\":11610:11674   */\n      sstore\n        /* \"#utility.yul\":11532:11688   */\n      pop\n        /* \"#utility.yul\":11509:11688   */\n    tag_231:\n        /* \"#utility.yul\":11734:11735   */\n      0x01\n        /* \"#utility.yul\":11730:11731   */\n      0x02\n        /* \"#utility.yul\":11722:11728   */\n      dup9\n        /* \"#utility.yul\":11718:11732   */\n      mul\n        /* \"#utility.yul\":11714:11736   */\n      add\n        /* \"#utility.yul\":11708:11712   */\n      dup9\n        /* \"#utility.yul\":11701:11737   */\n      sstore\n        /* \"#utility.yul\":11136:11747   */\n      pop\n      pop\n      pop\n        /* \"#utility.yul\":11099:11986   */\n    tag_223:\n      pop\n        /* \"#utility.yul\":10689:11992   */\n      pop\n      pop\n      pop\n        /* \"#utility.yul\":10597:11992   */\n      pop\n      pop\n      jump\t// out\n        /* \"#utility.yul\":11998:12146   */\n    tag_91:\n        /* \"#utility.yul\":12100:12111   */\n      0x00\n        /* \"#utility.yul\":12137:12140   */\n      dup2\n        /* \"#utility.yul\":12122:12140   */\n      swap1\n      pop\n        /* \"#utility.yul\":11998:12146   */\n      swap3\n      swap2\n      pop\n      pop\n      jump\t// out\n        /* \"#utility.yul\":12152:12542   */\n    tag_92:\n        /* \"#utility.yul\":12258:12261   */\n      0x00\n        /* \"#utility.yul\":12286:12325   */\n      tag_235\n        /* \"#utility.yul\":12319:12324   */\n      dup3\n        /* \"#utility.yul\":12286:12325   */\n      tag_71\n      jump\t// in\n    tag_235:\n        /* \"#utility.yul\":12341:12430   */\n      tag_236\n        /* \"#utility.yul\":12423:12429   */\n      dup2\n        /* \"#utility.yul\":12418:12421   */\n      dup6\n        /* \"#utility.yul\":12341:12430   */\n      tag_91\n      jump\t// in\n    tag_236:\n        /* \"#utility.yul\":12334:12430   */\n      swap4\n      pop\n        /* \"#utility.yul\":12439:12504   */\n      tag_237\n        /* \"#utility.yul\":12497:12503   */\n      dup2\n        /* \"#utility.yul\":12492:12495   */\n      dup6\n        /* \"#utility.yul\":12485:12489   */\n      0x20\n        /* \"#utility.yul\":12478:12483   */\n      dup7\n        /* \"#utility.yul\":12474:12490   */\n      add\n        /* \"#utility.yul\":12439:12504   */\n      tag_73\n      jump\t// in\n    tag_237:\n        /* \"#utility.yul\":12529:12535   */\n      dup1\n        /* \"#utility.yul\":12524:12527   */\n      dup5\n        /* \"#utility.yul\":12520:12536   */\n      add\n        /* \"#utility.yul\":12513:12536   */\n      swap2\n      pop\n        /* \"#utility.yul\":12262:12542   */\n      pop\n        /* \"#utility.yul\":12152:12542   */\n      swap3\n      swap2\n      pop\n      pop\n      jump\t// out\n        /* \"#utility.yul\":12548:12823   */\n    tag_43:\n        /* \"#utility.yul\":12680:12683   */\n      0x00\n        /* \"#utility.yul\":12702:12797   */\n      tag_239\n        /* \"#utility.yul\":12793:12796   */\n      dup3\n        /* \"#utility.yul\":12784:12790   */\n      dup5\n        /* \"#utility.yul\":12702:12797   */\n      tag_92\n      jump\t// in\n    tag_239:\n        /* \"#utility.yul\":12695:12797   */\n      swap2\n      pop\n        /* \"#utility.yul\":12814:12817   */\n      dup2\n        /* \"#utility.yul\":12807:12817   */\n      swap1\n      pop\n        /* \"#utility.yul\":12548:12823   */\n      swap3\n      swap2\n      pop\n      pop\n      jump\t// out\n\n    auxdata: 0xa26469706673582212201bccc01294da30bcdb198596dab57bd36bb9282d14c556a7c28fbd69c08ba0eb64736f6c63430008120033\n}\n",
				"bytecode": {
					"linkReferences": {},
					"object": "608060405234801561001057600080fd5b506109cc806100206000396000f3fe608060405234801561001057600080fd5b50600436106100625760003560e01c80630e37008a146100675780631bbefaf1146100975780635eac9098146100b35780636b8ff574146100e3578063a266f6c214610113578063fe093d3b1461012f575b600080fd5b610081600480360381019061007c91906102e6565b61014b565b60405161008e9190610322565b60405180910390f35b6100b160048036038101906100ac9190610483565b610168565b005b6100cd60048036038101906100c891906104df565b61018d565b6040516100da9190610322565b60405180910390f35b6100fd60048036038101906100f891906102e6565b6101b4565b60405161010a91906105a7565b60405180910390f35b61012d600480360381019061012891906105c9565b610259565b005b61014960048036038101906101449190610625565b610280565b005b600060026000838152602001908152602001600020549050919050565b806001600084815260200190815260200160002090816101889190610871565b505050565b6000808260405161019e919061097f565b9081526020016040518091039020549050919050565b60606001600083815260200190815260200160002080546101d490610694565b80601f016020809104026020016040519081016040528092919081815260200182805461020090610694565b801561024d5780601f106102225761010080835404028352916020019161024d565b820191906000526020600020905b81548152906001019060200180831161023057829003601f168201915b50505050509050919050565b8060008360405161026a919061097f565b9081526020016040518091039020819055505050565b8060026000848152602001908152602001600020819055505050565b6000604051905090565b600080fd5b600080fd5b6000819050919050565b6102c3816102b0565b81146102ce57600080fd5b50565b6000813590506102e0816102ba565b92915050565b6000602082840312156102fc576102fb6102a6565b5b600061030a848285016102d1565b91505092915050565b61031c816102b0565b82525050565b60006020820190506103376000830184610313565b92915050565b600080fd5b600080fd5b6000601f19601f8301169050919050565b7f4e487b7100000000000000000000000000000000000000000000000000000000600052604160045260246000fd5b61039082610347565b810181811067ffffffffffffffff821117156103af576103ae610358565b5b80604052505050565b60006103c261029c565b90506103ce8282610387565b919050565b600067ffffffffffffffff8211156103ee576103ed610358565b5b6103f782610347565b9050602081019050919050565b82818337600083830152505050565b6000610426610421846103d3565b6103b8565b90508281526020810184848401111561044257610441610342565b5b61044d848285610404565b509392505050565b600082601f83011261046a5761046961033d565b5b813561047a848260208601610413565b91505092915050565b6000806040838503121561049a576104996102a6565b5b60006104a8858286016102d1565b925050602083013567ffffffffffffffff8111156104c9576104c86102ab565b5b6104d585828601610455565b9150509250929050565b6000602082840312156104f5576104f46102a6565b5b600082013567ffffffffffffffff811115610513576105126102ab565b5b61051f84828501610455565b91505092915050565b600081519050919050565b600082825260208201905092915050565b60005b83811015610562578082015181840152602081019050610547565b60008484015250505050565b600061057982610528565b6105838185610533565b9350610593818560208601610544565b61059c81610347565b840191505092915050565b600060208201905081810360008301526105c1818461056e565b905092915050565b600080604083850312156105e0576105df6102a6565b5b600083013567ffffffffffffffff8111156105fe576105fd6102ab565b5b61060a85828601610455565b925050602061061b858286016102d1565b9150509250929050565b6000806040838503121561063c5761063b6102a6565b5b600061064a858286016102d1565b925050602061065b858286016102d1565b9150509250929050565b7f4e487b7100000000000000000000000000000000000000000000000000000000600052602260045260246000fd5b600060028204905060018216806106ac57607f821691505b6020821081036106bf576106be610665565b5b50919050565b60008190508160005260206000209050919050565b60006020601f8301049050919050565b600082821b905092915050565b6000600883026107277fffffffffffffffffffffffffffffffffffffffffffffffffffffffffffffffff826106ea565b61073186836106ea565b95508019841693508086168417925050509392505050565b6000819050919050565b600061076e610769610764846102b0565b610749565b6102b0565b9050919050565b6000819050919050565b61078883610753565b61079c61079482610775565b8484546106f7565b825550505050565b600090565b6107b16107a4565b6107bc81848461077f565b505050565b5b818110156107e0576107d56000826107a9565b6001810190506107c2565b5050565b601f821115610825576107f6816106c5565b6107ff846106da565b8101602085101561080e578190505b61082261081a856106da565b8301826107c1565b50505b505050565b600082821c905092915050565b60006108486000198460080261082a565b1980831691505092915050565b60006108618383610837565b9150826002028217905092915050565b61087a82610528565b67ffffffffffffffff81111561089357610892610358565b5b61089d8254610694565b6108a88282856107e4565b600060209050601f8311600181146108db57600084156108c9578287015190505b6108d38582610855565b86555061093b565b601f1984166108e9866106c5565b60005b82811015610911578489015182556001820191506020850194506020810190506108ec565b8683101561092e578489015161092a601f891682610837565b8355505b6001600288020188555050505b505050505050565b600081905092915050565b600061095982610528565b6109638185610943565b9350610973818560208601610544565b80840191505092915050565b600061098b828461094e565b91508190509291505056fea26469706673582212201bccc01294da30bcdb198596dab57bd36bb9282d14c556a7c28fbd69c08ba0eb64736f6c63430008120033",
					"opcodes": "PUSH1 0x80 PUSH1 0x40 MSTORE CALLVALUE DUP1 ISZERO PUSH2 0x10 JUMPI PUSH1 0x0 DUP1 REVERT JUMPDEST POP PUSH2 0x9CC DUP1 PUSH2 0x20 PUSH1 0x0 CODECOPY PUSH1 0x0 RETURN INVALID PUSH1 0x80 PUSH1 0x40 MSTORE CALLVALUE DUP1 ISZERO PUSH2 0x10 JUMPI PUSH1 0x0 DUP1 REVERT JUMPDEST POP PUSH1 0x4 CALLDATASIZE LT PUSH2 0x62 JUMPI PUSH1 0x0 CALLDATALOAD PUSH1 0xE0 SHR DUP1 PUSH4 0xE37008A EQ PUSH2 0x67 JUMPI DUP1 PUSH4 0x1BBEFAF1 EQ PUSH2 0x97 JUMPI DUP1 PUSH4 0x5EAC9098 EQ PUSH2 0xB3 JUMPI DUP1 PUSH4 0x6B8FF574 EQ PUSH2 0xE3 JUMPI DUP1 PUSH4 0xA266F6C2 EQ PUSH2 0x113 JUMPI DUP1 PUSH4 0xFE093D3B EQ PUSH2 0x12F JUMPI JUMPDEST PUSH1 0x0 DUP1 REVERT JUMPDEST PUSH2 0x81 PUSH1 0x4 DUP1 CALLDATASIZE SUB DUP2 ADD SWAP1 PUSH2 0x7C SWAP2 SWAP1 PUSH2 0x2E6 JUMP JUMPDEST PUSH2 0x14B JUMP JUMPDEST PUSH1 0x40 MLOAD PUSH2 0x8E SWAP2 SWAP1 PUSH2 0x322 JUMP JUMPDEST PUSH1 0x40 MLOAD DUP1 SWAP2 SUB SWAP1 RETURN JUMPDEST PUSH2 0xB1 PUSH1 0x4 DUP1 CALLDATASIZE SUB DUP2 ADD SWAP1 PUSH2 0xAC SWAP2 SWAP1 PUSH2 0x483 JUMP JUMPDEST PUSH2 0x168 JUMP JUMPDEST STOP JUMPDEST PUSH2 0xCD PUSH1 0x4 DUP1 CALLDATASIZE SUB DUP2 ADD SWAP1 PUSH2 0xC8 SWAP2 SWAP1 PUSH2 0x4DF JUMP JUMPDEST PUSH2 0x18D JUMP JUMPDEST PUSH1 0x40 MLOAD PUSH2 0xDA SWAP2 SWAP1 PUSH2 0x322 JUMP JUMPDEST PUSH1 0x40 MLOAD DUP1 SWAP2 SUB SWAP1 RETURN JUMPDEST PUSH2 0xFD PUSH1 0x4 DUP1 CALLDATASIZE SUB DUP2 ADD SWAP1 PUSH2 0xF8 SWAP2 SWAP1 PUSH2 0x2E6 JUMP JUMPDEST PUSH2 0x1B4 JUMP JUMPDEST PUSH1 0x40 MLOAD PUSH2 0x10A SWAP2 SWAP1 PUSH2 0x5A7 JUMP JUMPDEST PUSH1 0x40 MLOAD DUP1 SWAP2 SUB SWAP1 RETURN JUMPDEST PUSH2 0x12D PUSH1 0x4 DUP1 CALLDATASIZE SUB DUP2 ADD SWAP1 PUSH2 0x128 SWAP2 SWAP1 PUSH2 0x5C9 JUMP JUMPDEST PUSH2 0x259 JUMP JUMPDEST STOP JUMPDEST PUSH2 0x149 PUSH1 0x4 DUP1 CALLDATASIZE SUB DUP2 ADD SWAP1 PUSH2 0x144 SWAP2 SWAP1 PUSH2 0x625 JUMP JUMPDEST PUSH2 0x280 JUMP JUMPDEST STOP JUMPDEST PUSH1 0x0 PUSH1 0x2 PUSH1 0x0 DUP4 DUP2 MSTORE PUSH1 0x20 ADD SWAP1 DUP2 MSTORE PUSH1 0x20 ADD PUSH1 0x0 KECCAK256 SLOAD SWAP1 POP SWAP2 SWAP1 POP JUMP JUMPDEST DUP1 PUSH1 0x1 PUSH1 0x0 DUP5 DUP2 MSTORE PUSH1 0x20 ADD SWAP1 DUP2 MSTORE PUSH1 0x20 ADD PUSH1 0x0 KECCAK256 SWAP1 DUP2 PUSH2 0x188 SWAP2 SWAP1 PUSH2 0x871 JUMP JUMPDEST POP POP POP JUMP JUMPDEST PUSH1 0x0 DUP1 DUP3 PUSH1 0x40 MLOAD PUSH2 0x19E SWAP2 SWAP1 PUSH2 0x97F JUMP JUMPDEST SWAP1 DUP2 MSTORE PUSH1 0x20 ADD PUSH1 0x40 MLOAD DUP1 SWAP2 SUB SWAP1 KECCAK256 SLOAD SWAP1 POP SWAP2 SWAP1 POP JUMP JUMPDEST PUSH1 0x60 PUSH1 0x1 PUSH1 0x0 DUP4 DUP2 MSTORE PUSH1 0x20 ADD SWAP1 DUP2 MSTORE PUSH1 0x20 ADD PUSH1 0x0 KECCAK256 DUP1 SLOAD PUSH2 0x1D4 SWAP1 PUSH2 0x694 JUMP JUMPDEST DUP1 PUSH1 0x1F ADD PUSH1 0x20 DUP1 SWAP2 DIV MUL PUSH1 0x20 ADD PUSH1 0x40 MLOAD SWAP1 DUP2 ADD PUSH1 0x40 MSTORE DUP1 SWAP3 SWAP2 SWAP1 DUP2 DUP2 MSTORE PUSH1 0x20 ADD DUP3 DUP1 SLOAD PUSH2 0x200 SWAP1 PUSH2 0x694 JUMP JUMPDEST DUP1 ISZERO PUSH2 0x24D JUMPI DUP1 PUSH1 0x1F LT PUSH2 0x222 JUMPI PUSH2 0x100 DUP1 DUP4 SLOAD DIV MUL DUP4 MSTORE SWAP2 PUSH1 0x20 ADD SWAP2 PUSH2 0x24D JUMP JUMPDEST DUP3 ADD SWAP2 SWAP1 PUSH1 0x0 MSTORE PUSH1 0x20 PUSH1 0x0 KECCAK256 SWAP1 JUMPDEST DUP2 SLOAD DUP2 MSTORE SWAP1 PUSH1 0x1 ADD SWAP1 PUSH1 0x20 ADD DUP1 DUP4 GT PUSH2 0x230 JUMPI DUP3 SWAP1 SUB PUSH1 0x1F AND DUP3 ADD SWAP2 JUMPDEST POP POP POP POP POP SWAP1 POP SWAP2 SWAP1 POP JUMP JUMPDEST DUP1 PUSH1 0x0 DUP4 PUSH1 0x40 MLOAD PUSH2 0x26A SWAP2 SWAP1 PUSH2 0x97F JUMP JUMPDEST SWAP1 DUP2 MSTORE PUSH1 0x20 ADD PUSH1 0x40 MLOAD DUP1 SWAP2 SUB SWAP1 KECCAK256 DUP2 SWAP1 SSTORE POP POP POP JUMP JUMPDEST DUP1 PUSH1 0x2 PUSH1 0x0 DUP5 DUP2 MSTORE PUSH1 0x20 ADD SWAP1 DUP2 MSTORE PUSH1 0x20 ADD PUSH1 0x0 KECCAK256 DUP2 SWAP1 SSTORE POP POP POP JUMP JUMPDEST PUSH1 0x0 PUSH1 0x40 MLOAD SWAP1 POP SWAP1 JUMP JUMPDEST PUSH1 0x0 DUP1 REVERT JUMPDEST PUSH1 0x0 DUP1 REVERT JUMPDEST PUSH1 0x0 DUP2 SWAP1 POP SWAP2 SWAP1 POP JUMP JUMPDEST PUSH2 0x2C3 DUP2 PUSH2 0x2B0 JUMP JUMPDEST DUP2 EQ PUSH2 0x2CE JUMPI PUSH1 0x0 DUP1 REVERT JUMPDEST POP JUMP JUMPDEST PUSH1 0x0 DUP2 CALLDATALOAD SWAP1 POP PUSH2 0x2E0 DUP2 PUSH2 0x2BA JUMP JUMPDEST SWAP3 SWAP2 POP POP JUMP JUMPDEST PUSH1 0x0 PUSH1 0x20 DUP3 DUP5 SUB SLT ISZERO PUSH2 0x2FC JUMPI PUSH2 0x2FB PUSH2 0x2A6 JUMP JUMPDEST JUMPDEST PUSH1 0x0 PUSH2 0x30A DUP5 DUP3 DUP6 ADD PUSH2 0x2D1 JUMP JUMPDEST SWAP2 POP POP SWAP3 SWAP2 POP POP JUMP JUMPDEST PUSH2 0x31C DUP2 PUSH2 0x2B0 JUMP JUMPDEST DUP3 MSTORE POP POP JUMP JUMPDEST PUSH1 0x0 PUSH1 0x20 DUP3 ADD SWAP1 POP PUSH2 0x337 PUSH1 0x0 DUP4 ADD DUP5 PUSH2 0x313 JUMP JUMPDEST SWAP3 SWAP2 POP POP JUMP JUMPDEST PUSH1 0x0 DUP1 REVERT JUMPDEST PUSH1 0x0 DUP1 REVERT JUMPDEST PUSH1 0x0 PUSH1 0x1F NOT PUSH1 0x1F DUP4 ADD AND SWAP1 POP SWAP2 SWAP1 POP JUMP JUMPDEST PUSH32 0x4E487B7100000000000000000000000000000000000000000000000000000000 PUSH1 0x0 MSTORE PUSH1 0x41 PUSH1 0x4 MSTORE PUSH1 0x24 PUSH1 0x0 REVERT JUMPDEST PUSH2 0x390 DUP3 PUSH2 0x347 JUMP JUMPDEST DUP2 ADD DUP2 DUP2 LT PUSH8 0xFFFFFFFFFFFFFFFF DUP3 GT OR ISZERO PUSH2 0x3AF JUMPI PUSH2 0x3AE PUSH2 0x358 JUMP JUMPDEST JUMPDEST DUP1 PUSH1 0x40 MSTORE POP POP POP JUMP JUMPDEST PUSH1 0x0 PUSH2 0x3C2 PUSH2 0x29C JUMP JUMPDEST SWAP1 POP PUSH2 0x3CE DUP3 DUP3 PUSH2 0x387 JUMP JUMPDEST SWAP2 SWAP1 POP JUMP JUMPDEST PUSH1 0x0 PUSH8 0xFFFFFFFFFFFFFFFF DUP3 GT ISZERO PUSH2 0x3EE JUMPI PUSH2 0x3ED PUSH2 0x358 JUMP JUMPDEST JUMPDEST PUSH2 0x3F7 DUP3 PUSH2 0x347 JUMP JUMPDEST SWAP1 POP PUSH1 0x20 DUP2 ADD SWAP1 POP SWAP2 SWAP1 POP JUMP JUMPDEST DUP3 DUP2 DUP4 CALLDATACOPY PUSH1 0x0 DUP4 DUP4 ADD MSTORE POP POP POP JUMP JUMPDEST PUSH1 0x0 PUSH2 0x426 PUSH2 0x421 DUP5 PUSH2 0x3D3 JUMP JUMPDEST PUSH2 0x3B8 JUMP JUMPDEST SWAP1 POP DUP3 DUP2 MSTORE PUSH1 0x20 DUP2 ADD DUP5 DUP5 DUP5 ADD GT ISZERO PUSH2 0x442 JUMPI PUSH2 0x441 PUSH2 0x342 JUMP JUMPDEST JUMPDEST PUSH2 0x44D DUP5 DUP3 DUP6 PUSH2 0x404 JUMP JUMPDEST POP SWAP4 SWAP3 POP POP POP JUMP JUMPDEST PUSH1 0x0 DUP3 PUSH1 0x1F DUP4 ADD SLT PUSH2 0x46A JUMPI PUSH2 0x469 PUSH2 0x33D JUMP JUMPDEST JUMPDEST DUP2 CALLDATALOAD PUSH2 0x47A DUP5 DUP3 PUSH1 0x20 DUP7 ADD PUSH2 0x413 JUMP JUMPDEST SWAP2 POP POP SWAP3 SWAP2 POP POP JUMP JUMPDEST PUSH1 0x0 DUP1 PUSH1 0x40 DUP4 DUP6 SUB SLT ISZERO PUSH2 0x49A JUMPI PUSH2 0x499 PUSH2 0x2A6 JUMP JUMPDEST JUMPDEST PUSH1 0x0 PUSH2 0x4A8 DUP6 DUP3 DUP7 ADD PUSH2 0x2D1 JUMP JUMPDEST SWAP3 POP POP PUSH1 0x20 DUP4 ADD CALLDATALOAD PUSH8 0xFFFFFFFFFFFFFFFF DUP2 GT ISZERO PUSH2 0x4C9 JUMPI PUSH2 0x4C8 PUSH2 0x2AB JUMP JUMPDEST JUMPDEST PUSH2 0x4D5 DUP6 DUP3 DUP7 ADD PUSH2 0x455 JUMP JUMPDEST SWAP2 POP POP SWAP3 POP SWAP3 SWAP1 POP JUMP JUMPDEST PUSH1 0x0 PUSH1 0x20 DUP3 DUP5 SUB SLT ISZERO PUSH2 0x4F5 JUMPI PUSH2 0x4F4 PUSH2 0x2A6 JUMP JUMPDEST JUMPDEST PUSH1 0x0 DUP3 ADD CALLDATALOAD PUSH8 0xFFFFFFFFFFFFFFFF DUP2 GT ISZERO PUSH2 0x513 JUMPI PUSH2 0x512 PUSH2 0x2AB JUMP JUMPDEST JUMPDEST PUSH2 0x51F DUP5 DUP3 DUP6 ADD PUSH2 0x455 JUMP JUMPDEST SWAP2 POP POP SWAP3 SWAP2 POP POP JUMP JUMPDEST PUSH1 0x0 DUP2 MLOAD SWAP1 POP SWAP2 SWAP1 POP JUMP JUMPDEST PUSH1 0x0 DUP3 DUP3 MSTORE PUSH1 0x20 DUP3 ADD SWAP1 POP SWAP3 SWAP2 POP POP JUMP JUMPDEST PUSH1 0x0 JUMPDEST DUP4 DUP2 LT ISZERO PUSH2 0x562 JUMPI DUP1 DUP3 ADD MLOAD DUP2 DUP5 ADD MSTORE PUSH1 0x20 DUP2 ADD SWAP1 POP PUSH2 0x547 JUMP JUMPDEST PUSH1 0x0 DUP5 DUP5 ADD MSTORE POP POP POP POP JUMP JUMPDEST PUSH1 0x0 PUSH2 0x579 DUP3 PUSH2 0x528 JUMP JUMPDEST PUSH2 0x583 DUP2 DUP6 PUSH2 0x533 JUMP JUMPDEST SWAP4 POP PUSH2 0x593 DUP2 DUP6 PUSH1 0x20 DUP7 ADD PUSH2 0x544 JUMP JUMPDEST PUSH2 0x59C DUP2 PUSH2 0x347 JUMP JUMPDEST DUP5 ADD SWAP2 POP POP SWAP3 SWAP2 POP POP JUMP JUMPDEST PUSH1 0x0 PUSH1 0x20 DUP3 ADD SWAP1 POP DUP2 DUP2 SUB PUSH1 0x0 DUP4 ADD MSTORE PUSH2 0x5C1 DUP2 DUP5 PUSH2 0x56E JUMP JUMPDEST SWAP1 POP SWAP3 SWAP2 POP POP JUMP JUMPDEST PUSH1 0x0 DUP1 PUSH1 0x40 DUP4 DUP6 SUB SLT ISZERO PUSH2 0x5E0 JUMPI PUSH2 0x5DF PUSH2 0x2A6 JUMP JUMPDEST JUMPDEST PUSH1 0x0 DUP4 ADD CALLDATALOAD PUSH8 0xFFFFFFFFFFFFFFFF DUP2 GT ISZERO PUSH2 0x5FE JUMPI PUSH2 0x5FD PUSH2 0x2AB JUMP JUMPDEST JUMPDEST PUSH2 0x60A DUP6 DUP3 DUP7 ADD PUSH2 0x455 JUMP JUMPDEST SWAP3 POP POP PUSH1 0x20 PUSH2 0x61B DUP6 DUP3 DUP7 ADD PUSH2 0x2D1 JUMP JUMPDEST SWAP2 POP POP SWAP3 POP SWAP3 SWAP1 POP JUMP JUMPDEST PUSH1 0x0 DUP1 PUSH1 0x40 DUP4 DUP6 SUB SLT ISZERO PUSH2 0x63C JUMPI PUSH2 0x63B PUSH2 0x2A6 JUMP JUMPDEST JUMPDEST PUSH1 0x0 PUSH2 0x64A DUP6 DUP3 DUP7 ADD PUSH2 0x2D1 JUMP JUMPDEST SWAP3 POP POP PUSH1 0x20 PUSH2 0x65B DUP6 DUP3 DUP7 ADD PUSH2 0x2D1 JUMP JUMPDEST SWAP2 POP POP SWAP3 POP SWAP3 SWAP1 POP JUMP JUMPDEST PUSH32 0x4E487B7100000000000000000000000000000000000000000000000000000000 PUSH1 0x0 MSTORE PUSH1 0x22 PUSH1 0x4 MSTORE PUSH1 0x24 PUSH1 0x0 REVERT JUMPDEST PUSH1 0x0 PUSH1 0x2 DUP3 DIV SWAP1 POP PUSH1 0x1 DUP3 AND DUP1 PUSH2 0x6AC JUMPI PUSH1 0x7F DUP3 AND SWAP2 POP JUMPDEST PUSH1 0x20 DUP3 LT DUP2 SUB PUSH2 0x6BF JUMPI PUSH2 0x6BE PUSH2 0x665 JUMP JUMPDEST JUMPDEST POP SWAP2 SWAP1 POP JUMP JUMPDEST PUSH1 0x0 DUP2 SWAP1 POP DUP2 PUSH1 0x0 MSTORE PUSH1 0x20 PUSH1 0x0 KECCAK256 SWAP1 POP SWAP2 SWAP1 POP JUMP JUMPDEST PUSH1 0x0 PUSH1 0x20 PUSH1 0x1F DUP4 ADD DIV SWAP1 POP SWAP2 SWAP1 POP JUMP JUMPDEST PUSH1 0x0 DUP3 DUP3 SHL SWAP1 POP SWAP3 SWAP2 POP POP JUMP JUMPDEST PUSH1 0x0 PUSH1 0x8 DUP4 MUL PUSH2 0x727 PUSH32 0xFFFFFFFFFFFFFFFFFFFFFFFFFFFFFFFFFFFFFFFFFFFFFFFFFFFFFFFFFFFFFFFF DUP3 PUSH2 0x6EA JUMP JUMPDEST PUSH2 0x731 DUP7 DUP4 PUSH2 0x6EA JUMP JUMPDEST SWAP6 POP DUP1 NOT DUP5 AND SWAP4 POP DUP1 DUP7 AND DUP5 OR SWAP3 POP POP POP SWAP4 SWAP3 POP POP POP JUMP JUMPDEST PUSH1 0x0 DUP2 SWAP1 POP SWAP2 SWAP1 POP JUMP JUMPDEST PUSH1 0x0 PUSH2 0x76E PUSH2 0x769 PUSH2 0x764 DUP5 PUSH2 0x2B0 JUMP JUMPDEST PUSH2 0x749 JUMP JUMPDEST PUSH2 0x2B0 JUMP JUMPDEST SWAP1 POP SWAP2 SWAP1 POP JUMP JUMPDEST PUSH1 0x0 DUP2 SWAP1 POP SWAP2 SWAP1 POP JUMP JUMPDEST PUSH2 0x788 DUP4 PUSH2 0x753 JUMP JUMPDEST PUSH2 0x79C PUSH2 0x794 DUP3 PUSH2 0x775 JUMP JUMPDEST DUP5 DUP5 SLOAD PUSH2 0x6F7 JUMP JUMPDEST DUP3 SSTORE POP POP POP POP JUMP JUMPDEST PUSH1 0x0 SWAP1 JUMP JUMPDEST PUSH2 0x7B1 PUSH2 0x7A4 JUMP JUMPDEST PUSH2 0x7BC DUP2 DUP5 DUP5 PUSH2 0x77F JUMP JUMPDEST POP POP POP JUMP JUMPDEST JUMPDEST DUP2 DUP2 LT ISZERO PUSH2 0x7E0 JUMPI PUSH2 0x7D5 PUSH1 0x0 DUP3 PUSH2 0x7A9 JUMP JUMPDEST PUSH1 0x1 DUP2 ADD SWAP1 POP PUSH2 0x7C2 JUMP JUMPDEST POP POP JUMP JUMPDEST PUSH1 0x1F DUP3 GT ISZERO PUSH2 0x825 JUMPI PUSH2 0x7F6 DUP2 PUSH2 0x6C5 JUMP JUMPDEST PUSH2 0x7FF DUP5 PUSH2 0x6DA JUMP JUMPDEST DUP2 ADD PUSH1 0x20 DUP6 LT ISZERO PUSH2 0x80E JUMPI DUP2 SWAP1 POP JUMPDEST PUSH2 0x822 PUSH2 0x81A DUP6 PUSH2 0x6DA JUMP JUMPDEST DUP4 ADD DUP3 PUSH2 0x7C1 JUMP JUMPDEST POP POP JUMPDEST POP POP POP JUMP JUMPDEST PUSH1 0x0 DUP3 DUP3 SHR SWAP1 POP SWAP3 SWAP2 POP POP JUMP JUMPDEST PUSH1 0x0 PUSH2 0x848 PUSH1 0x0 NOT DUP5 PUSH1 0x8 MUL PUSH2 0x82A JUMP JUMPDEST NOT DUP1 DUP4 AND SWAP2 POP POP SWAP3 SWAP2 POP POP JUMP JUMPDEST PUSH1 0x0 PUSH2 0x861 DUP4 DUP4 PUSH2 0x837 JUMP JUMPDEST SWAP2 POP DUP3 PUSH1 0x2 MUL DUP3 OR SWAP1 POP SWAP3 SWAP2 POP POP JUMP JUMPDEST PUSH2 0x87A DUP3 PUSH2 0x528 JUMP JUMPDEST PUSH8 0xFFFFFFFFFFFFFFFF DUP2 GT ISZERO PUSH2 0x893 JUMPI PUSH2 0x892 PUSH2 0x358 JUMP JUMPDEST JUMPDEST PUSH2 0x89D DUP3 SLOAD PUSH2 0x694 JUMP JUMPDEST PUSH2 0x8A8 DUP3 DUP3 DUP6 PUSH2 0x7E4 JUMP JUMPDEST PUSH1 0x0 PUSH1 0x20 SWAP1 POP PUSH1 0x1F DUP4 GT PUSH1 0x1 DUP2 EQ PUSH2 0x8DB JUMPI PUSH1 0x0 DUP5 ISZERO PUSH2 0x8C9 JUMPI DUP3 DUP8 ADD MLOAD SWAP1 POP JUMPDEST PUSH2 0x8D3 DUP6 DUP3 PUSH2 0x855 JUMP JUMPDEST DUP7 SSTORE POP PUSH2 0x93B JUMP JUMPDEST PUSH1 0x1F NOT DUP5 AND PUSH2 0x8E9 DUP7 PUSH2 0x6C5 JUMP JUMPDEST PUSH1 0x0 JUMPDEST DUP3 DUP2 LT ISZERO PUSH2 0x911 JUMPI DUP5 DUP10 ADD MLOAD DUP3 SSTORE PUSH1 0x1 DUP3 ADD SWAP2 POP PUSH1 0x20 DUP6 ADD SWAP5 POP PUSH1 0x20 DUP2 ADD SWAP1 POP PUSH2 0x8EC JUMP JUMPDEST DUP7 DUP4 LT ISZERO PUSH2 0x92E JUMPI DUP5 DUP10 ADD MLOAD PUSH2 0x92A PUSH1 0x1F DUP10 AND DUP3 PUSH2 0x837 JUMP JUMPDEST DUP4 SSTORE POP JUMPDEST PUSH1 0x1 PUSH1 0x2 DUP9 MUL ADD DUP9 SSTORE POP POP POP JUMPDEST POP POP POP POP POP POP JUMP JUMPDEST PUSH1 0x0 DUP2 SWAP1 POP SWAP3 SWAP2 POP POP JUMP JUMPDEST PUSH1 0x0 PUSH2 0x959 DUP3 PUSH2 0x528 JUMP JUMPDEST PUSH2 0x963 DUP2 DUP6 PUSH2 0x943 JUMP JUMPDEST SWAP4 POP PUSH2 0x973 DUP2 DUP6 PUSH1 0x20 DUP7 ADD PUSH2 0x544 JUMP JUMPDEST DUP1 DUP5 ADD SWAP2 POP POP SWAP3 SWAP2 POP POP JUMP JUMPDEST PUSH1 0x0 PUSH2 0x98B DUP3 DUP5 PUSH2 0x94E JUMP JUMPDEST SWAP2 POP DUP2 SWAP1 POP SWAP3 SWAP2 POP POP JUMP INVALID LOG2 PUSH5 0x6970667358 0x22 SLT KECCAK256 SHL 0xCC 0xC0 SLT SWAP5 0xDA ADDRESS 0xBC 0xDB NOT DUP6 SWAP7 0xDA 0xB5 PUSH28 0xD36BB9282D14C556A7C28FBD69C08BA0EB64736F6C63430008120033 "
				},
				"gasEstimates": {
					"creation": {
						"codeDepositCost": "501600",
						"executionCost": "537",
						"totalCost": "502137"
					},
					"external": {
						"getAge(uint256)": "infinite",
						"getName(uint256)": "infinite",
						"getPriceList(string)": "infinite",
						"setAgeList(uint256,uint256)": "infinite",
						"setNameList(uint256,string)": "infinite",
						"setPriceList(string,uint256)": "infinite"
					}
				},
				"methodIdentifiers": {
					"getAge(uint256)": "0e37008a",
					"getName(uint256)": "6b8ff574",
					"getPriceList(string)": "5eac9098",
					"setAgeList(uint256,uint256)": "fe093d3b",
					"setNameList(uint256,string)": "1bbefaf1",
					"setPriceList(string,uint256)": "a266f6c2"
				}
			},
			"storageLayout": {
				"storage": [
					{
						"astId": 5,
						"contract": "lecture/16_.맵핑.sol:lec17",
						"label": "priceList",
						"offset": 0,
						"slot": "0",
						"type": "t_mapping(t_string_memory_ptr,t_uint256)"
					},
					{
						"astId": 9,
						"contract": "lecture/16_.맵핑.sol:lec17",
						"label": "nameList",
						"offset": 0,
						"slot": "1",
						"type": "t_mapping(t_uint256,t_string_storage)"
					},
					{
						"astId": 13,
						"contract": "lecture/16_.맵핑.sol:lec17",
						"label": "ageList",
						"offset": 0,
						"slot": "2",
						"type": "t_mapping(t_uint256,t_uint256)"
					}
				],
				"types": {
					"t_mapping(t_string_memory_ptr,t_uint256)": {
						"encoding": "mapping",
						"key": "t_string_memory_ptr",
						"label": "mapping(string => uint256)",
						"numberOfBytes": "32",
						"value": "t_uint256"
					},
					"t_mapping(t_uint256,t_string_storage)": {
						"encoding": "mapping",
						"key": "t_uint256",
						"label": "mapping(uint256 => string)",
						"numberOfBytes": "32",
						"value": "t_string_storage"
					},
					"t_mapping(t_uint256,t_uint256)": {
						"encoding": "mapping",
						"key": "t_uint256",
						"label": "mapping(uint256 => uint256)",
						"numberOfBytes": "32",
						"value": "t_uint256"
					},
					"t_string_memory_ptr": {
						"encoding": "bytes",
						"label": "string",
						"numberOfBytes": "32"
					},
					"t_string_storage": {
						"encoding": "bytes",
						"label": "string",
						"numberOfBytes": "32"
					},
					"t_uint256": {
						"encoding": "inplace",
						"label": "uint256",
						"numberOfBytes": "32"
					}
				}
			},
			"userdoc": {
				"kind": "user",
				"methods": {},
				"version": 1
			}
		}
	}
}