{
	"lecture/36_fallVSdeligate.sol": {
		"caller": {
			"abi": [
				{
					"inputs": [
						{
							"internalType": "address",
							"name": "_contractAddr",
							"type": "address"
						}
					],
					"name": "callNow",
					"outputs": [],
					"stateMutability": "payable",
					"type": "function"
				},
				{
					"inputs": [
						{
							"internalType": "address",
							"name": "_contractAddr",
							"type": "address"
						}
					],
					"name": "delcateCallNow",
					"outputs": [],
					"stateMutability": "payable",
					"type": "function"
				},
				{
					"inputs": [],
					"name": "num",
					"outputs": [
						{
							"internalType": "uint256",
							"name": "",
							"type": "uint256"
						}
					],
					"stateMutability": "view",
					"type": "function"
				}
			],
			"devdoc": {
				"kind": "dev",
				"methods": {},
				"version": 1
			},
			"evm": {
				"assembly": "    /* \"lecture/36_fallVSdeligate.sol\":911:1764  contract caller{... */\n  mstore(0x40, 0x80)\n    /* \"lecture/36_fallVSdeligate.sol\":1078:1079  0 */\n  0x00\n    /* \"lecture/36_fallVSdeligate.sol\":1057:1079  uint256 public num = 0 */\n  dup1\n  sstore\n    /* \"lecture/36_fallVSdeligate.sol\":911:1764  contract caller{... */\n  callvalue\n  dup1\n  iszero\n  tag_1\n  jumpi\n  0x00\n  dup1\n  revert\ntag_1:\n  pop\n  dataSize(sub_0)\n  dup1\n  dataOffset(sub_0)\n  0x00\n  codecopy\n  0x00\n  return\nstop\n\nsub_0: assembly {\n        /* \"lecture/36_fallVSdeligate.sol\":911:1764  contract caller{... */\n      mstore(0x40, 0x80)\n      jumpi(tag_1, lt(calldatasize, 0x04))\n      shr(0xe0, calldataload(0x00))\n      dup1\n      0x3375e17d\n      eq\n      tag_2\n      jumpi\n      dup1\n      0x4e70b1dc\n      eq\n      tag_3\n      jumpi\n      dup1\n      0x75a4624d\n      eq\n      tag_4\n      jumpi\n    tag_1:\n      0x00\n      dup1\n      revert\n        /* \"lecture/36_fallVSdeligate.sol\":1453:1762  function delcateCallNow(address _contractAddr) public payable{... */\n    tag_2:\n      tag_5\n      0x04\n      dup1\n      calldatasize\n      sub\n      dup2\n      add\n      swap1\n      tag_6\n      swap2\n      swap1\n      tag_7\n      jump\t// in\n    tag_6:\n      tag_8\n      jump\t// in\n    tag_5:\n      stop\n        /* \"lecture/36_fallVSdeligate.sol\":1057:1079  uint256 public num = 0 */\n    tag_3:\n      callvalue\n      dup1\n      iszero\n      tag_9\n      jumpi\n      0x00\n      dup1\n      revert\n    tag_9:\n      pop\n      tag_10\n      tag_11\n      jump\t// in\n    tag_10:\n      mload(0x40)\n      tag_12\n      swap2\n      swap1\n      tag_13\n      jump\t// in\n    tag_12:\n      mload(0x40)\n      dup1\n      swap2\n      sub\n      swap1\n      return\n        /* \"lecture/36_fallVSdeligate.sol\":1128:1396  function callNow(address _contractAddr) public payable{... */\n    tag_4:\n      tag_14\n      0x04\n      dup1\n      calldatasize\n      sub\n      dup2\n      add\n      swap1\n      tag_15\n      swap2\n      swap1\n      tag_7\n      jump\t// in\n    tag_15:\n      tag_16\n      jump\t// in\n    tag_14:\n      stop\n        /* \"lecture/36_fallVSdeligate.sol\":1453:1762  function delcateCallNow(address _contractAddr) public payable{... */\n    tag_8:\n        /* \"lecture/36_fallVSdeligate.sol\":1621:1633  bool success */\n      0x00\n        /* \"lecture/36_fallVSdeligate.sol\":1638:1651  _contractAddr */\n      dup2\n        /* \"lecture/36_fallVSdeligate.sol\":1638:1664  _contractAddr.delegatecall */\n      0xffffffffffffffffffffffffffffffffffffffff\n      and\n        /* \"lecture/36_fallVSdeligate.sol\":1665:1701  abi.encodeWithSignature(\"plusOne()\") */\n      add(0x24, mload(0x40))\n      mload(0x40)\n      0x20\n      dup2\n      dup4\n      sub\n      sub\n      dup2\n      mstore\n      swap1\n      0x40\n      mstore\n      and(not(0xffffffffffffffffffffffffffffffffffffffffffffffffffffffff), 0x68e5c06600000000000000000000000000000000000000000000000000000000)\n      0x20\n      dup3\n      add\n      dup1\n      mload\n      0xffffffffffffffffffffffffffffffffffffffffffffffffffffffff\n      dup4\n      dup2\n      dup4\n      and\n      or\n      dup4\n      mstore\n      pop\n      pop\n      pop\n      pop\n        /* \"lecture/36_fallVSdeligate.sol\":1638:1702  _contractAddr.delegatecall(abi.encodeWithSignature(\"plusOne()\")) */\n      mload(0x40)\n      tag_18\n      swap2\n      swap1\n      tag_19\n      jump\t// in\n    tag_18:\n      0x00\n      mload(0x40)\n      dup1\n      dup4\n      sub\n      dup2\n      dup6\n      gas\n      delegatecall\n      swap2\n      pop\n      pop\n      returndatasize\n      dup1\n      0x00\n      dup2\n      eq\n      tag_22\n      jumpi\n      mload(0x40)\n      swap2\n      pop\n      and(add(returndatasize, 0x3f), not(0x1f))\n      dup3\n      add\n      0x40\n      mstore\n      returndatasize\n      dup3\n      mstore\n      returndatasize\n      0x00\n      0x20\n      dup5\n      add\n      returndatacopy\n      jump(tag_21)\n    tag_22:\n      0x60\n      swap2\n      pop\n    tag_21:\n      pop\n        /* \"lecture/36_fallVSdeligate.sol\":1620:1702  (bool success,) = _contractAddr.delegatecall(abi.encodeWithSignature(\"plusOne()\")) */\n      pop\n      swap1\n      pop\n        /* \"lecture/36_fallVSdeligate.sol\":1720:1727  success */\n      dup1\n        /* \"lecture/36_fallVSdeligate.sol\":1712:1755  require(success,\"failed to transfer ether\") */\n      tag_23\n      jumpi\n      mload(0x40)\n      0x08c379a000000000000000000000000000000000000000000000000000000000\n      dup2\n      mstore\n      0x04\n      add\n      tag_24\n      swap1\n      tag_25\n      jump\t// in\n    tag_24:\n      mload(0x40)\n      dup1\n      swap2\n      sub\n      swap1\n      revert\n    tag_23:\n        /* \"lecture/36_fallVSdeligate.sol\":1514:1762  {... */\n      pop\n        /* \"lecture/36_fallVSdeligate.sol\":1453:1762  function delcateCallNow(address _contractAddr) public payable{... */\n      pop\n      jump\t// out\n        /* \"lecture/36_fallVSdeligate.sol\":1057:1079  uint256 public num = 0 */\n    tag_11:\n      sload(0x00)\n      dup2\n      jump\t// out\n        /* \"lecture/36_fallVSdeligate.sol\":1128:1396  function callNow(address _contractAddr) public payable{... */\n    tag_16:\n        /* \"lecture/36_fallVSdeligate.sol\":1263:1275  bool success */\n      0x00\n        /* \"lecture/36_fallVSdeligate.sol\":1280:1293  _contractAddr */\n      dup2\n        /* \"lecture/36_fallVSdeligate.sol\":1280:1298  _contractAddr.call */\n      0xffffffffffffffffffffffffffffffffffffffff\n      and\n        /* \"lecture/36_fallVSdeligate.sol\":1299:1335  abi.encodeWithSignature(\"plusOne()\") */\n      add(0x24, mload(0x40))\n      mload(0x40)\n      0x20\n      dup2\n      dup4\n      sub\n      sub\n      dup2\n      mstore\n      swap1\n      0x40\n      mstore\n      and(not(0xffffffffffffffffffffffffffffffffffffffffffffffffffffffff), 0x68e5c06600000000000000000000000000000000000000000000000000000000)\n      0x20\n      dup3\n      add\n      dup1\n      mload\n      0xffffffffffffffffffffffffffffffffffffffffffffffffffffffff\n      dup4\n      dup2\n      dup4\n      and\n      or\n      dup4\n      mstore\n      pop\n      pop\n      pop\n      pop\n        /* \"lecture/36_fallVSdeligate.sol\":1280:1336  _contractAddr.call(abi.encodeWithSignature(\"plusOne()\")) */\n      mload(0x40)\n      tag_27\n      swap2\n      swap1\n      tag_19\n      jump\t// in\n    tag_27:\n      0x00\n      mload(0x40)\n      dup1\n      dup4\n      sub\n      dup2\n      0x00\n      dup7\n      gas\n      call\n      swap2\n      pop\n      pop\n      returndatasize\n      dup1\n      0x00\n      dup2\n      eq\n      tag_30\n      jumpi\n      mload(0x40)\n      swap2\n      pop\n      and(add(returndatasize, 0x3f), not(0x1f))\n      dup3\n      add\n      0x40\n      mstore\n      returndatasize\n      dup3\n      mstore\n      returndatasize\n      0x00\n      0x20\n      dup5\n      add\n      returndatacopy\n      jump(tag_29)\n    tag_30:\n      0x60\n      swap2\n      pop\n    tag_29:\n      pop\n        /* \"lecture/36_fallVSdeligate.sol\":1262:1336  (bool success,) = _contractAddr.call(abi.encodeWithSignature(\"plusOne()\")) */\n      pop\n      swap1\n      pop\n        /* \"lecture/36_fallVSdeligate.sol\":1354:1361  success */\n      dup1\n        /* \"lecture/36_fallVSdeligate.sol\":1346:1389  require(success,\"failed to transfer ether\") */\n      tag_31\n      jumpi\n      mload(0x40)\n      0x08c379a000000000000000000000000000000000000000000000000000000000\n      dup2\n      mstore\n      0x04\n      add\n      tag_32\n      swap1\n      tag_25\n      jump\t// in\n    tag_32:\n      mload(0x40)\n      dup1\n      swap2\n      sub\n      swap1\n      revert\n    tag_31:\n        /* \"lecture/36_fallVSdeligate.sol\":1182:1396  {... */\n      pop\n        /* \"lecture/36_fallVSdeligate.sol\":1128:1396  function callNow(address _contractAddr) public payable{... */\n      pop\n      jump\t// out\n        /* \"#utility.yul\":88:205   */\n    tag_34:\n        /* \"#utility.yul\":197:198   */\n      0x00\n        /* \"#utility.yul\":194:195   */\n      dup1\n        /* \"#utility.yul\":187:199   */\n      revert\n        /* \"#utility.yul\":334:460   */\n    tag_36:\n        /* \"#utility.yul\":371:378   */\n      0x00\n        /* \"#utility.yul\":411:453   */\n      0xffffffffffffffffffffffffffffffffffffffff\n        /* \"#utility.yul\":404:409   */\n      dup3\n        /* \"#utility.yul\":400:454   */\n      and\n        /* \"#utility.yul\":389:454   */\n      swap1\n      pop\n        /* \"#utility.yul\":334:460   */\n      swap2\n      swap1\n      pop\n      jump\t// out\n        /* \"#utility.yul\":466:562   */\n    tag_37:\n        /* \"#utility.yul\":503:510   */\n      0x00\n        /* \"#utility.yul\":532:556   */\n      tag_55\n        /* \"#utility.yul\":550:555   */\n      dup3\n        /* \"#utility.yul\":532:556   */\n      tag_36\n      jump\t// in\n    tag_55:\n        /* \"#utility.yul\":521:556   */\n      swap1\n      pop\n        /* \"#utility.yul\":466:562   */\n      swap2\n      swap1\n      pop\n      jump\t// out\n        /* \"#utility.yul\":568:690   */\n    tag_38:\n        /* \"#utility.yul\":641:665   */\n      tag_57\n        /* \"#utility.yul\":659:664   */\n      dup2\n        /* \"#utility.yul\":641:665   */\n      tag_37\n      jump\t// in\n    tag_57:\n        /* \"#utility.yul\":634:639   */\n      dup2\n        /* \"#utility.yul\":631:666   */\n      eq\n        /* \"#utility.yul\":621:684   */\n      tag_58\n      jumpi\n        /* \"#utility.yul\":680:681   */\n      0x00\n        /* \"#utility.yul\":677:678   */\n      dup1\n        /* \"#utility.yul\":670:682   */\n      revert\n        /* \"#utility.yul\":621:684   */\n    tag_58:\n        /* \"#utility.yul\":568:690   */\n      pop\n      jump\t// out\n        /* \"#utility.yul\":696:835   */\n    tag_39:\n        /* \"#utility.yul\":742:747   */\n      0x00\n        /* \"#utility.yul\":780:786   */\n      dup2\n        /* \"#utility.yul\":767:787   */\n      calldataload\n        /* \"#utility.yul\":758:787   */\n      swap1\n      pop\n        /* \"#utility.yul\":796:829   */\n      tag_60\n        /* \"#utility.yul\":823:828   */\n      dup2\n        /* \"#utility.yul\":796:829   */\n      tag_38\n      jump\t// in\n    tag_60:\n        /* \"#utility.yul\":696:835   */\n      swap3\n      swap2\n      pop\n      pop\n      jump\t// out\n        /* \"#utility.yul\":841:1170   */\n    tag_7:\n        /* \"#utility.yul\":900:906   */\n      0x00\n        /* \"#utility.yul\":949:951   */\n      0x20\n        /* \"#utility.yul\":937:946   */\n      dup3\n        /* \"#utility.yul\":928:935   */\n      dup5\n        /* \"#utility.yul\":924:947   */\n      sub\n        /* \"#utility.yul\":920:952   */\n      slt\n        /* \"#utility.yul\":917:1036   */\n      iszero\n      tag_62\n      jumpi\n        /* \"#utility.yul\":955:1034   */\n      tag_63\n      tag_34\n      jump\t// in\n    tag_63:\n        /* \"#utility.yul\":917:1036   */\n    tag_62:\n        /* \"#utility.yul\":1075:1076   */\n      0x00\n        /* \"#utility.yul\":1100:1153   */\n      tag_64\n        /* \"#utility.yul\":1145:1152   */\n      dup5\n        /* \"#utility.yul\":1136:1142   */\n      dup3\n        /* \"#utility.yul\":1125:1134   */\n      dup6\n        /* \"#utility.yul\":1121:1143   */\n      add\n        /* \"#utility.yul\":1100:1153   */\n      tag_39\n      jump\t// in\n    tag_64:\n        /* \"#utility.yul\":1090:1153   */\n      swap2\n      pop\n        /* \"#utility.yul\":1046:1163   */\n      pop\n        /* \"#utility.yul\":841:1170   */\n      swap3\n      swap2\n      pop\n      pop\n      jump\t// out\n        /* \"#utility.yul\":1176:1253   */\n    tag_40:\n        /* \"#utility.yul\":1213:1220   */\n      0x00\n        /* \"#utility.yul\":1242:1247   */\n      dup2\n        /* \"#utility.yul\":1231:1247   */\n      swap1\n      pop\n        /* \"#utility.yul\":1176:1253   */\n      swap2\n      swap1\n      pop\n      jump\t// out\n        /* \"#utility.yul\":1259:1377   */\n    tag_41:\n        /* \"#utility.yul\":1346:1370   */\n      tag_67\n        /* \"#utility.yul\":1364:1369   */\n      dup2\n        /* \"#utility.yul\":1346:1370   */\n      tag_40\n      jump\t// in\n    tag_67:\n        /* \"#utility.yul\":1341:1344   */\n      dup3\n        /* \"#utility.yul\":1334:1371   */\n      mstore\n        /* \"#utility.yul\":1259:1377   */\n      pop\n      pop\n      jump\t// out\n        /* \"#utility.yul\":1383:1605   */\n    tag_13:\n        /* \"#utility.yul\":1476:1480   */\n      0x00\n        /* \"#utility.yul\":1514:1516   */\n      0x20\n        /* \"#utility.yul\":1503:1512   */\n      dup3\n        /* \"#utility.yul\":1499:1517   */\n      add\n        /* \"#utility.yul\":1491:1517   */\n      swap1\n      pop\n        /* \"#utility.yul\":1527:1598   */\n      tag_69\n        /* \"#utility.yul\":1595:1596   */\n      0x00\n        /* \"#utility.yul\":1584:1593   */\n      dup4\n        /* \"#utility.yul\":1580:1597   */\n      add\n        /* \"#utility.yul\":1571:1577   */\n      dup5\n        /* \"#utility.yul\":1527:1598   */\n      tag_41\n      jump\t// in\n    tag_69:\n        /* \"#utility.yul\":1383:1605   */\n      swap3\n      swap2\n      pop\n      pop\n      jump\t// out\n        /* \"#utility.yul\":1611:1709   */\n    tag_42:\n        /* \"#utility.yul\":1662:1668   */\n      0x00\n        /* \"#utility.yul\":1696:1701   */\n      dup2\n        /* \"#utility.yul\":1690:1702   */\n      mload\n        /* \"#utility.yul\":1680:1702   */\n      swap1\n      pop\n        /* \"#utility.yul\":1611:1709   */\n      swap2\n      swap1\n      pop\n      jump\t// out\n        /* \"#utility.yul\":1715:1862   */\n    tag_43:\n        /* \"#utility.yul\":1816:1827   */\n      0x00\n        /* \"#utility.yul\":1853:1856   */\n      dup2\n        /* \"#utility.yul\":1838:1856   */\n      swap1\n      pop\n        /* \"#utility.yul\":1715:1862   */\n      swap3\n      swap2\n      pop\n      pop\n      jump\t// out\n        /* \"#utility.yul\":1868:2114   */\n    tag_44:\n        /* \"#utility.yul\":1949:1950   */\n      0x00\n        /* \"#utility.yul\":1959:2072   */\n    tag_73:\n        /* \"#utility.yul\":1973:1979   */\n      dup4\n        /* \"#utility.yul\":1970:1971   */\n      dup2\n        /* \"#utility.yul\":1967:1980   */\n      lt\n        /* \"#utility.yul\":1959:2072   */\n      iszero\n      tag_75\n      jumpi\n        /* \"#utility.yul\":2058:2059   */\n      dup1\n        /* \"#utility.yul\":2053:2056   */\n      dup3\n        /* \"#utility.yul\":2049:2060   */\n      add\n        /* \"#utility.yul\":2043:2061   */\n      mload\n        /* \"#utility.yul\":2039:2040   */\n      dup2\n        /* \"#utility.yul\":2034:2037   */\n      dup5\n        /* \"#utility.yul\":2030:2041   */\n      add\n        /* \"#utility.yul\":2023:2062   */\n      mstore\n        /* \"#utility.yul\":1995:1997   */\n      0x20\n        /* \"#utility.yul\":1992:1993   */\n      dup2\n        /* \"#utility.yul\":1988:1998   */\n      add\n        /* \"#utility.yul\":1983:1998   */\n      swap1\n      pop\n        /* \"#utility.yul\":1959:2072   */\n      jump(tag_73)\n    tag_75:\n        /* \"#utility.yul\":2106:2107   */\n      0x00\n        /* \"#utility.yul\":2097:2103   */\n      dup5\n        /* \"#utility.yul\":2092:2095   */\n      dup5\n        /* \"#utility.yul\":2088:2104   */\n      add\n        /* \"#utility.yul\":2081:2108   */\n      mstore\n        /* \"#utility.yul\":1930:2114   */\n      pop\n        /* \"#utility.yul\":1868:2114   */\n      pop\n      pop\n      pop\n      jump\t// out\n        /* \"#utility.yul\":2120:2506   */\n    tag_45:\n        /* \"#utility.yul\":2224:2227   */\n      0x00\n        /* \"#utility.yul\":2252:2290   */\n      tag_77\n        /* \"#utility.yul\":2284:2289   */\n      dup3\n        /* \"#utility.yul\":2252:2290   */\n      tag_42\n      jump\t// in\n    tag_77:\n        /* \"#utility.yul\":2306:2394   */\n      tag_78\n        /* \"#utility.yul\":2387:2393   */\n      dup2\n        /* \"#utility.yul\":2382:2385   */\n      dup6\n        /* \"#utility.yul\":2306:2394   */\n      tag_43\n      jump\t// in\n    tag_78:\n        /* \"#utility.yul\":2299:2394   */\n      swap4\n      pop\n        /* \"#utility.yul\":2403:2468   */\n      tag_79\n        /* \"#utility.yul\":2461:2467   */\n      dup2\n        /* \"#utility.yul\":2456:2459   */\n      dup6\n        /* \"#utility.yul\":2449:2453   */\n      0x20\n        /* \"#utility.yul\":2442:2447   */\n      dup7\n        /* \"#utility.yul\":2438:2454   */\n      add\n        /* \"#utility.yul\":2403:2468   */\n      tag_44\n      jump\t// in\n    tag_79:\n        /* \"#utility.yul\":2493:2499   */\n      dup1\n        /* \"#utility.yul\":2488:2491   */\n      dup5\n        /* \"#utility.yul\":2484:2500   */\n      add\n        /* \"#utility.yul\":2477:2500   */\n      swap2\n      pop\n        /* \"#utility.yul\":2228:2506   */\n      pop\n        /* \"#utility.yul\":2120:2506   */\n      swap3\n      swap2\n      pop\n      pop\n      jump\t// out\n        /* \"#utility.yul\":2512:2783   */\n    tag_19:\n        /* \"#utility.yul\":2642:2645   */\n      0x00\n        /* \"#utility.yul\":2664:2757   */\n      tag_81\n        /* \"#utility.yul\":2753:2756   */\n      dup3\n        /* \"#utility.yul\":2744:2750   */\n      dup5\n        /* \"#utility.yul\":2664:2757   */\n      tag_45\n      jump\t// in\n    tag_81:\n        /* \"#utility.yul\":2657:2757   */\n      swap2\n      pop\n        /* \"#utility.yul\":2774:2777   */\n      dup2\n        /* \"#utility.yul\":2767:2777   */\n      swap1\n      pop\n        /* \"#utility.yul\":2512:2783   */\n      swap3\n      swap2\n      pop\n      pop\n      jump\t// out\n        /* \"#utility.yul\":2789:2958   */\n    tag_46:\n        /* \"#utility.yul\":2873:2884   */\n      0x00\n        /* \"#utility.yul\":2907:2913   */\n      dup3\n        /* \"#utility.yul\":2902:2905   */\n      dup3\n        /* \"#utility.yul\":2895:2914   */\n      mstore\n        /* \"#utility.yul\":2947:2951   */\n      0x20\n        /* \"#utility.yul\":2942:2945   */\n      dup3\n        /* \"#utility.yul\":2938:2952   */\n      add\n        /* \"#utility.yul\":2923:2952   */\n      swap1\n      pop\n        /* \"#utility.yul\":2789:2958   */\n      swap3\n      swap2\n      pop\n      pop\n      jump\t// out\n        /* \"#utility.yul\":2964:3138   */\n    tag_47:\n        /* \"#utility.yul\":3104:3130   */\n      0x6661696c656420746f207472616e736665722065746865720000000000000000\n        /* \"#utility.yul\":3100:3101   */\n      0x00\n        /* \"#utility.yul\":3092:3098   */\n      dup3\n        /* \"#utility.yul\":3088:3102   */\n      add\n        /* \"#utility.yul\":3081:3131   */\n      mstore\n        /* \"#utility.yul\":2964:3138   */\n      pop\n      jump\t// out\n        /* \"#utility.yul\":3144:3510   */\n    tag_48:\n        /* \"#utility.yul\":3286:3289   */\n      0x00\n        /* \"#utility.yul\":3307:3374   */\n      tag_85\n        /* \"#utility.yul\":3371:3373   */\n      0x18\n        /* \"#utility.yul\":3366:3369   */\n      dup4\n        /* \"#utility.yul\":3307:3374   */\n      tag_46\n      jump\t// in\n    tag_85:\n        /* \"#utility.yul\":3300:3374   */\n      swap2\n      pop\n        /* \"#utility.yul\":3383:3476   */\n      tag_86\n        /* \"#utility.yul\":3472:3475   */\n      dup3\n        /* \"#utility.yul\":3383:3476   */\n      tag_47\n      jump\t// in\n    tag_86:\n        /* \"#utility.yul\":3501:3503   */\n      0x20\n        /* \"#utility.yul\":3496:3499   */\n      dup3\n        /* \"#utility.yul\":3492:3504   */\n      add\n        /* \"#utility.yul\":3485:3504   */\n      swap1\n      pop\n        /* \"#utility.yul\":3144:3510   */\n      swap2\n      swap1\n      pop\n      jump\t// out\n        /* \"#utility.yul\":3516:3935   */\n    tag_25:\n        /* \"#utility.yul\":3682:3686   */\n      0x00\n        /* \"#utility.yul\":3720:3722   */\n      0x20\n        /* \"#utility.yul\":3709:3718   */\n      dup3\n        /* \"#utility.yul\":3705:3723   */\n      add\n        /* \"#utility.yul\":3697:3723   */\n      swap1\n      pop\n        /* \"#utility.yul\":3769:3778   */\n      dup2\n        /* \"#utility.yul\":3763:3767   */\n      dup2\n        /* \"#utility.yul\":3759:3779   */\n      sub\n        /* \"#utility.yul\":3755:3756   */\n      0x00\n        /* \"#utility.yul\":3744:3753   */\n      dup4\n        /* \"#utility.yul\":3740:3757   */\n      add\n        /* \"#utility.yul\":3733:3780   */\n      mstore\n        /* \"#utility.yul\":3797:3928   */\n      tag_88\n        /* \"#utility.yul\":3923:3927   */\n      dup2\n        /* \"#utility.yul\":3797:3928   */\n      tag_48\n      jump\t// in\n    tag_88:\n        /* \"#utility.yul\":3789:3928   */\n      swap1\n      pop\n        /* \"#utility.yul\":3516:3935   */\n      swap2\n      swap1\n      pop\n      jump\t// out\n\n    auxdata: 0xa26469706673582212202cdd4ed2760b794d78b420bccbb8fdb4451e118f3d99d76078eda9737b7a357a64736f6c63430008120033\n}\n",
				"bytecode": {
					"linkReferences": {},
					"object": "60806040526000805534801561001457600080fd5b50610505806100246000396000f3fe6080604052600436106100345760003560e01c80633375e17d146100395780634e70b1dc1461005557806375a4624d14610080575b600080fd5b610053600480360381019061004e9190610369565b61009c565b005b34801561006157600080fd5b5061006a6101cd565b60405161007791906103af565b60405180910390f35b61009a60048036038101906100959190610369565b6101d3565b005b60008173ffffffffffffffffffffffffffffffffffffffff166040516024016040516020818303038152906040527f68e5c066000000000000000000000000000000000000000000000000000000007bffffffffffffffffffffffffffffffffffffffffffffffffffffffff19166020820180517bffffffffffffffffffffffffffffffffffffffffffffffffffffffff8381831617835250505050604051610145919061043b565b600060405180830381855af49150503d8060008114610180576040519150601f19603f3d011682016040523d82523d6000602084013e610185565b606091505b50509050806101c9576040517f08c379a00000000000000000000000000000000000000000000000000000000081526004016101c0906104af565b60405180910390fd5b5050565b60005481565b60008173ffffffffffffffffffffffffffffffffffffffff166040516024016040516020818303038152906040527f68e5c066000000000000000000000000000000000000000000000000000000007bffffffffffffffffffffffffffffffffffffffffffffffffffffffff19166020820180517bffffffffffffffffffffffffffffffffffffffffffffffffffffffff838183161783525050505060405161027c919061043b565b6000604051808303816000865af19150503d80600081146102b9576040519150601f19603f3d011682016040523d82523d6000602084013e6102be565b606091505b5050905080610302576040517f08c379a00000000000000000000000000000000000000000000000000000000081526004016102f9906104af565b60405180910390fd5b5050565b600080fd5b600073ffffffffffffffffffffffffffffffffffffffff82169050919050565b60006103368261030b565b9050919050565b6103468161032b565b811461035157600080fd5b50565b6000813590506103638161033d565b92915050565b60006020828403121561037f5761037e610306565b5b600061038d84828501610354565b91505092915050565b6000819050919050565b6103a981610396565b82525050565b60006020820190506103c460008301846103a0565b92915050565b600081519050919050565b600081905092915050565b60005b838110156103fe5780820151818401526020810190506103e3565b60008484015250505050565b6000610415826103ca565b61041f81856103d5565b935061042f8185602086016103e0565b80840191505092915050565b6000610447828461040a565b915081905092915050565b600082825260208201905092915050565b7f6661696c656420746f207472616e736665722065746865720000000000000000600082015250565b6000610499601883610452565b91506104a482610463565b602082019050919050565b600060208201905081810360008301526104c88161048c565b905091905056fea26469706673582212202cdd4ed2760b794d78b420bccbb8fdb4451e118f3d99d76078eda9737b7a357a64736f6c63430008120033",
					"opcodes": "PUSH1 0x80 PUSH1 0x40 MSTORE PUSH1 0x0 DUP1 SSTORE CALLVALUE DUP1 ISZERO PUSH2 0x14 JUMPI PUSH1 0x0 DUP1 REVERT JUMPDEST POP PUSH2 0x505 DUP1 PUSH2 0x24 PUSH1 0x0 CODECOPY PUSH1 0x0 RETURN INVALID PUSH1 0x80 PUSH1 0x40 MSTORE PUSH1 0x4 CALLDATASIZE LT PUSH2 0x34 JUMPI PUSH1 0x0 CALLDATALOAD PUSH1 0xE0 SHR DUP1 PUSH4 0x3375E17D EQ PUSH2 0x39 JUMPI DUP1 PUSH4 0x4E70B1DC EQ PUSH2 0x55 JUMPI DUP1 PUSH4 0x75A4624D EQ PUSH2 0x80 JUMPI JUMPDEST PUSH1 0x0 DUP1 REVERT JUMPDEST PUSH2 0x53 PUSH1 0x4 DUP1 CALLDATASIZE SUB DUP2 ADD SWAP1 PUSH2 0x4E SWAP2 SWAP1 PUSH2 0x369 JUMP JUMPDEST PUSH2 0x9C JUMP JUMPDEST STOP JUMPDEST CALLVALUE DUP1 ISZERO PUSH2 0x61 JUMPI PUSH1 0x0 DUP1 REVERT JUMPDEST POP PUSH2 0x6A PUSH2 0x1CD JUMP JUMPDEST PUSH1 0x40 MLOAD PUSH2 0x77 SWAP2 SWAP1 PUSH2 0x3AF JUMP JUMPDEST PUSH1 0x40 MLOAD DUP1 SWAP2 SUB SWAP1 RETURN JUMPDEST PUSH2 0x9A PUSH1 0x4 DUP1 CALLDATASIZE SUB DUP2 ADD SWAP1 PUSH2 0x95 SWAP2 SWAP1 PUSH2 0x369 JUMP JUMPDEST PUSH2 0x1D3 JUMP JUMPDEST STOP JUMPDEST PUSH1 0x0 DUP2 PUSH20 0xFFFFFFFFFFFFFFFFFFFFFFFFFFFFFFFFFFFFFFFF AND PUSH1 0x40 MLOAD PUSH1 0x24 ADD PUSH1 0x40 MLOAD PUSH1 0x20 DUP2 DUP4 SUB SUB DUP2 MSTORE SWAP1 PUSH1 0x40 MSTORE PUSH32 0x68E5C06600000000000000000000000000000000000000000000000000000000 PUSH28 0xFFFFFFFFFFFFFFFFFFFFFFFFFFFFFFFFFFFFFFFFFFFFFFFFFFFFFFFF NOT AND PUSH1 0x20 DUP3 ADD DUP1 MLOAD PUSH28 0xFFFFFFFFFFFFFFFFFFFFFFFFFFFFFFFFFFFFFFFFFFFFFFFFFFFFFFFF DUP4 DUP2 DUP4 AND OR DUP4 MSTORE POP POP POP POP PUSH1 0x40 MLOAD PUSH2 0x145 SWAP2 SWAP1 PUSH2 0x43B JUMP JUMPDEST PUSH1 0x0 PUSH1 0x40 MLOAD DUP1 DUP4 SUB DUP2 DUP6 GAS DELEGATECALL SWAP2 POP POP RETURNDATASIZE DUP1 PUSH1 0x0 DUP2 EQ PUSH2 0x180 JUMPI PUSH1 0x40 MLOAD SWAP2 POP PUSH1 0x1F NOT PUSH1 0x3F RETURNDATASIZE ADD AND DUP3 ADD PUSH1 0x40 MSTORE RETURNDATASIZE DUP3 MSTORE RETURNDATASIZE PUSH1 0x0 PUSH1 0x20 DUP5 ADD RETURNDATACOPY PUSH2 0x185 JUMP JUMPDEST PUSH1 0x60 SWAP2 POP JUMPDEST POP POP SWAP1 POP DUP1 PUSH2 0x1C9 JUMPI PUSH1 0x40 MLOAD PUSH32 0x8C379A000000000000000000000000000000000000000000000000000000000 DUP2 MSTORE PUSH1 0x4 ADD PUSH2 0x1C0 SWAP1 PUSH2 0x4AF JUMP JUMPDEST PUSH1 0x40 MLOAD DUP1 SWAP2 SUB SWAP1 REVERT JUMPDEST POP POP JUMP JUMPDEST PUSH1 0x0 SLOAD DUP2 JUMP JUMPDEST PUSH1 0x0 DUP2 PUSH20 0xFFFFFFFFFFFFFFFFFFFFFFFFFFFFFFFFFFFFFFFF AND PUSH1 0x40 MLOAD PUSH1 0x24 ADD PUSH1 0x40 MLOAD PUSH1 0x20 DUP2 DUP4 SUB SUB DUP2 MSTORE SWAP1 PUSH1 0x40 MSTORE PUSH32 0x68E5C06600000000000000000000000000000000000000000000000000000000 PUSH28 0xFFFFFFFFFFFFFFFFFFFFFFFFFFFFFFFFFFFFFFFFFFFFFFFFFFFFFFFF NOT AND PUSH1 0x20 DUP3 ADD DUP1 MLOAD PUSH28 0xFFFFFFFFFFFFFFFFFFFFFFFFFFFFFFFFFFFFFFFFFFFFFFFFFFFFFFFF DUP4 DUP2 DUP4 AND OR DUP4 MSTORE POP POP POP POP PUSH1 0x40 MLOAD PUSH2 0x27C SWAP2 SWAP1 PUSH2 0x43B JUMP JUMPDEST PUSH1 0x0 PUSH1 0x40 MLOAD DUP1 DUP4 SUB DUP2 PUSH1 0x0 DUP7 GAS CALL SWAP2 POP POP RETURNDATASIZE DUP1 PUSH1 0x0 DUP2 EQ PUSH2 0x2B9 JUMPI PUSH1 0x40 MLOAD SWAP2 POP PUSH1 0x1F NOT PUSH1 0x3F RETURNDATASIZE ADD AND DUP3 ADD PUSH1 0x40 MSTORE RETURNDATASIZE DUP3 MSTORE RETURNDATASIZE PUSH1 0x0 PUSH1 0x20 DUP5 ADD RETURNDATACOPY PUSH2 0x2BE JUMP JUMPDEST PUSH1 0x60 SWAP2 POP JUMPDEST POP POP SWAP1 POP DUP1 PUSH2 0x302 JUMPI PUSH1 0x40 MLOAD PUSH32 0x8C379A000000000000000000000000000000000000000000000000000000000 DUP2 MSTORE PUSH1 0x4 ADD PUSH2 0x2F9 SWAP1 PUSH2 0x4AF JUMP JUMPDEST PUSH1 0x40 MLOAD DUP1 SWAP2 SUB SWAP1 REVERT JUMPDEST POP POP JUMP JUMPDEST PUSH1 0x0 DUP1 REVERT JUMPDEST PUSH1 0x0 PUSH20 0xFFFFFFFFFFFFFFFFFFFFFFFFFFFFFFFFFFFFFFFF DUP3 AND SWAP1 POP SWAP2 SWAP1 POP JUMP JUMPDEST PUSH1 0x0 PUSH2 0x336 DUP3 PUSH2 0x30B JUMP JUMPDEST SWAP1 POP SWAP2 SWAP1 POP JUMP JUMPDEST PUSH2 0x346 DUP2 PUSH2 0x32B JUMP JUMPDEST DUP2 EQ PUSH2 0x351 JUMPI PUSH1 0x0 DUP1 REVERT JUMPDEST POP JUMP JUMPDEST PUSH1 0x0 DUP2 CALLDATALOAD SWAP1 POP PUSH2 0x363 DUP2 PUSH2 0x33D JUMP JUMPDEST SWAP3 SWAP2 POP POP JUMP JUMPDEST PUSH1 0x0 PUSH1 0x20 DUP3 DUP5 SUB SLT ISZERO PUSH2 0x37F JUMPI PUSH2 0x37E PUSH2 0x306 JUMP JUMPDEST JUMPDEST PUSH1 0x0 PUSH2 0x38D DUP5 DUP3 DUP6 ADD PUSH2 0x354 JUMP JUMPDEST SWAP2 POP POP SWAP3 SWAP2 POP POP JUMP JUMPDEST PUSH1 0x0 DUP2 SWAP1 POP SWAP2 SWAP1 POP JUMP JUMPDEST PUSH2 0x3A9 DUP2 PUSH2 0x396 JUMP JUMPDEST DUP3 MSTORE POP POP JUMP JUMPDEST PUSH1 0x0 PUSH1 0x20 DUP3 ADD SWAP1 POP PUSH2 0x3C4 PUSH1 0x0 DUP4 ADD DUP5 PUSH2 0x3A0 JUMP JUMPDEST SWAP3 SWAP2 POP POP JUMP JUMPDEST PUSH1 0x0 DUP2 MLOAD SWAP1 POP SWAP2 SWAP1 POP JUMP JUMPDEST PUSH1 0x0 DUP2 SWAP1 POP SWAP3 SWAP2 POP POP JUMP JUMPDEST PUSH1 0x0 JUMPDEST DUP4 DUP2 LT ISZERO PUSH2 0x3FE JUMPI DUP1 DUP3 ADD MLOAD DUP2 DUP5 ADD MSTORE PUSH1 0x20 DUP2 ADD SWAP1 POP PUSH2 0x3E3 JUMP JUMPDEST PUSH1 0x0 DUP5 DUP5 ADD MSTORE POP POP POP POP JUMP JUMPDEST PUSH1 0x0 PUSH2 0x415 DUP3 PUSH2 0x3CA JUMP JUMPDEST PUSH2 0x41F DUP2 DUP6 PUSH2 0x3D5 JUMP JUMPDEST SWAP4 POP PUSH2 0x42F DUP2 DUP6 PUSH1 0x20 DUP7 ADD PUSH2 0x3E0 JUMP JUMPDEST DUP1 DUP5 ADD SWAP2 POP POP SWAP3 SWAP2 POP POP JUMP JUMPDEST PUSH1 0x0 PUSH2 0x447 DUP3 DUP5 PUSH2 0x40A JUMP JUMPDEST SWAP2 POP DUP2 SWAP1 POP SWAP3 SWAP2 POP POP JUMP JUMPDEST PUSH1 0x0 DUP3 DUP3 MSTORE PUSH1 0x20 DUP3 ADD SWAP1 POP SWAP3 SWAP2 POP POP JUMP JUMPDEST PUSH32 0x6661696C656420746F207472616E736665722065746865720000000000000000 PUSH1 0x0 DUP3 ADD MSTORE POP JUMP JUMPDEST PUSH1 0x0 PUSH2 0x499 PUSH1 0x18 DUP4 PUSH2 0x452 JUMP JUMPDEST SWAP2 POP PUSH2 0x4A4 DUP3 PUSH2 0x463 JUMP JUMPDEST PUSH1 0x20 DUP3 ADD SWAP1 POP SWAP2 SWAP1 POP JUMP JUMPDEST PUSH1 0x0 PUSH1 0x20 DUP3 ADD SWAP1 POP DUP2 DUP2 SUB PUSH1 0x0 DUP4 ADD MSTORE PUSH2 0x4C8 DUP2 PUSH2 0x48C JUMP JUMPDEST SWAP1 POP SWAP2 SWAP1 POP JUMP INVALID LOG2 PUSH5 0x6970667358 0x22 SLT KECCAK256 0x2C 0xDD 0x4E 0xD2 PUSH23 0xB794D78B420BCCBB8FDB4451E118F3D99D76078EDA973 PUSH28 0x7A357A64736F6C634300081200330000000000000000000000000000 "
				},
				"gasEstimates": {
					"creation": {
						"codeDepositCost": "257000",
						"executionCost": "5306",
						"totalCost": "262306"
					},
					"external": {
						"callNow(address)": "infinite",
						"delcateCallNow(address)": "infinite",
						"num()": "2429"
					}
				},
				"methodIdentifiers": {
					"callNow(address)": "75a4624d",
					"delcateCallNow(address)": "3375e17d",
					"num()": "4e70b1dc"
				}
			},
			"storageLayout": {
				"storage": [
					{
						"astId": 30,
						"contract": "lecture/36_fallVSdeligate.sol:caller",
						"label": "num",
						"offset": 0,
						"slot": "0",
						"type": "t_uint256"
					}
				],
				"types": {
					"t_uint256": {
						"encoding": "inplace",
						"label": "uint256",
						"numberOfBytes": "32"
					}
				}
			},
			"userdoc": {
				"kind": "user",
				"methods": {},
				"version": 1
			}
		}
	}
}