{
	"lecture/34.fallback.sol": {
		"You": {
			"abi": [
				{
					"inputs": [
						{
							"internalType": "address payable",
							"name": "_to",
							"type": "address"
						}
					],
					"name": "DepositWithCall",
					"outputs": [],
					"stateMutability": "payable",
					"type": "function"
				},
				{
					"inputs": [
						{
							"internalType": "address payable",
							"name": "_to",
							"type": "address"
						}
					],
					"name": "DepositWithSend",
					"outputs": [],
					"stateMutability": "payable",
					"type": "function"
				},
				{
					"inputs": [
						{
							"internalType": "address payable",
							"name": "_to",
							"type": "address"
						}
					],
					"name": "DepositWithTransfer",
					"outputs": [],
					"stateMutability": "payable",
					"type": "function"
				},
				{
					"inputs": [
						{
							"internalType": "address",
							"name": "_to",
							"type": "address"
						}
					],
					"name": "JustGiveMessage",
					"outputs": [],
					"stateMutability": "nonpayable",
					"type": "function"
				},
				{
					"inputs": [
						{
							"internalType": "address payable",
							"name": "_to",
							"type": "address"
						}
					],
					"name": "JustGiveMessageWithFunds",
					"outputs": [],
					"stateMutability": "payable",
					"type": "function"
				}
			],
			"devdoc": {
				"kind": "dev",
				"methods": {},
				"version": 1
			},
			"evm": {
				"assembly": "    /* \"lecture/34.fallback.sol\":1635:3382  contract You{... */\n  mstore(0x40, 0x80)\n  callvalue\n  dup1\n  iszero\n  tag_1\n  jumpi\n  0x00\n  dup1\n  revert\ntag_1:\n  pop\n  dataSize(sub_0)\n  dup1\n  dataOffset(sub_0)\n  0x00\n  codecopy\n  0x00\n  return\nstop\n\nsub_0: assembly {\n        /* \"lecture/34.fallback.sol\":1635:3382  contract You{... */\n      mstore(0x40, 0x80)\n      jumpi(tag_1, lt(calldatasize, 0x04))\n      shr(0xe0, calldataload(0x00))\n      dup1\n      0x7ea4d6ae\n      eq\n      tag_2\n      jumpi\n      dup1\n      0xac2a35c8\n      eq\n      tag_3\n      jumpi\n      dup1\n      0xbc54f7ed\n      eq\n      tag_4\n      jumpi\n      dup1\n      0xe1972dbb\n      eq\n      tag_5\n      jumpi\n      dup1\n      0xf97447dd\n      eq\n      tag_6\n      jumpi\n    tag_1:\n      0x00\n      dup1\n      revert\n        /* \"lecture/34.fallback.sol\":2575:3005  function JustGiveMessage(address _to) public{... */\n    tag_2:\n      callvalue\n      dup1\n      iszero\n      tag_7\n      jumpi\n      0x00\n      dup1\n      revert\n    tag_7:\n      pop\n      tag_8\n      0x04\n      dup1\n      calldatasize\n      sub\n      dup2\n      add\n      swap1\n      tag_9\n      swap2\n      swap1\n      tag_10\n      jump\t// in\n    tag_9:\n      tag_11\n      jump\t// in\n    tag_8:\n      stop\n        /* \"lecture/34.fallback.sol\":3050:3375  function JustGiveMessageWithFunds(address payable _to) public payable{... */\n    tag_3:\n      tag_12\n      0x04\n      dup1\n      calldatasize\n      sub\n      dup2\n      add\n      swap1\n      tag_13\n      swap2\n      swap1\n      tag_14\n      jump\t// in\n    tag_13:\n      tag_15\n      jump\t// in\n    tag_12:\n      stop\n        /* \"lecture/34.fallback.sol\":2155:2548  function DepositWithCall(address payable _to) public payable{... */\n    tag_4:\n      tag_16\n      0x04\n      dup1\n      calldatasize\n      sub\n      dup2\n      add\n      swap1\n      tag_17\n      swap2\n      swap1\n      tag_14\n      jump\t// in\n    tag_17:\n      tag_18\n      jump\t// in\n    tag_16:\n      stop\n        /* \"lecture/34.fallback.sol\":2003:2145  function DepositWithTransfer(address payable _to) public payable{... */\n    tag_5:\n      tag_19\n      0x04\n      dup1\n      calldatasize\n      sub\n      dup2\n      add\n      swap1\n      tag_20\n      swap2\n      swap1\n      tag_14\n      jump\t// in\n    tag_20:\n      tag_21\n      jump\t// in\n    tag_19:\n      stop\n        /* \"lecture/34.fallback.sol\":1706:1946  function DepositWithSend(address payable _to) public payable{... */\n    tag_6:\n      tag_22\n      0x04\n      dup1\n      calldatasize\n      sub\n      dup2\n      add\n      swap1\n      tag_23\n      swap2\n      swap1\n      tag_14\n      jump\t// in\n    tag_23:\n      tag_24\n      jump\t// in\n    tag_22:\n      stop\n        /* \"lecture/34.fallback.sol\":2575:3005  function JustGiveMessage(address _to) public{... */\n    tag_11:\n        /* \"lecture/34.fallback.sol\":2810:2819  bool sent */\n      0x00\n        /* \"lecture/34.fallback.sol\":2825:2828  _to */\n      dup2\n        /* \"lecture/34.fallback.sol\":2825:2833  _to.call */\n      0xffffffffffffffffffffffffffffffffffffffff\n      and\n        /* \"lecture/34.fallback.sol\":2825:2839  _to.call(\"HI\") */\n      mload(0x40)\n      tag_26\n      swap1\n      tag_27\n      jump\t// in\n    tag_26:\n      0x00\n      mload(0x40)\n      dup1\n      dup4\n      sub\n      dup2\n      0x00\n      dup7\n      gas\n      call\n      swap2\n      pop\n      pop\n      returndatasize\n      dup1\n      0x00\n      dup2\n      eq\n      tag_30\n      jumpi\n      mload(0x40)\n      swap2\n      pop\n      and(add(returndatasize, 0x3f), not(0x1f))\n      dup3\n      add\n      0x40\n      mstore\n      returndatasize\n      dup3\n      mstore\n      returndatasize\n      0x00\n      0x20\n      dup5\n      add\n      returndatacopy\n      jump(tag_29)\n    tag_30:\n      0x60\n      swap2\n      pop\n    tag_29:\n      pop\n        /* \"lecture/34.fallback.sol\":2809:2839  (bool sent, ) = _to.call(\"HI\") */\n      pop\n      swap1\n      pop\n        /* \"lecture/34.fallback.sol\":2857:2861  sent */\n      dup1\n        /* \"lecture/34.fallback.sol\":2849:2886  require(sent,\"Failed to send either\") */\n      tag_31\n      jumpi\n      mload(0x40)\n      0x08c379a000000000000000000000000000000000000000000000000000000000\n      dup2\n      mstore\n      0x04\n      add\n      tag_32\n      swap1\n      tag_33\n      jump\t// in\n    tag_32:\n      mload(0x40)\n      dup1\n      swap2\n      sub\n      swap1\n      revert\n    tag_31:\n        /* \"lecture/34.fallback.sol\":2619:3005  {... */\n      pop\n        /* \"lecture/34.fallback.sol\":2575:3005  function JustGiveMessage(address _to) public{... */\n      pop\n      jump\t// out\n        /* \"lecture/34.fallback.sol\":3050:3375  function JustGiveMessageWithFunds(address payable _to) public payable{... */\n    tag_15:\n        /* \"lecture/34.fallback.sol\":3282:3294  bool success */\n      0x00\n        /* \"lecture/34.fallback.sol\":3299:3302  _to */\n      dup2\n        /* \"lecture/34.fallback.sol\":3299:3307  _to.call */\n      0xffffffffffffffffffffffffffffffffffffffff\n      and\n        /* \"lecture/34.fallback.sol\":3314:3323  msg.value */\n      callvalue\n        /* \"lecture/34.fallback.sol\":3299:3330  _to.call{value:msg.value}(\"HI\") */\n      mload(0x40)\n      tag_35\n      swap1\n      tag_27\n      jump\t// in\n    tag_35:\n      0x00\n      mload(0x40)\n      dup1\n      dup4\n      sub\n      dup2\n      dup6\n      dup8\n      gas\n      call\n      swap3\n      pop\n      pop\n      pop\n      returndatasize\n      dup1\n      0x00\n      dup2\n      eq\n      tag_38\n      jumpi\n      mload(0x40)\n      swap2\n      pop\n      and(add(returndatasize, 0x3f), not(0x1f))\n      dup3\n      add\n      0x40\n      mstore\n      returndatasize\n      dup3\n      mstore\n      returndatasize\n      0x00\n      0x20\n      dup5\n      add\n      returndatacopy\n      jump(tag_37)\n    tag_38:\n      0x60\n      swap2\n      pop\n    tag_37:\n      pop\n        /* \"lecture/34.fallback.sol\":3281:3330  (bool success,) = _to.call{value:msg.value}(\"HI\") */\n      pop\n      swap1\n      pop\n        /* \"lecture/34.fallback.sol\":3348:3355  success */\n      dup1\n        /* \"lecture/34.fallback.sol\":3340:3368  require(success, \"Failled\" ) */\n      tag_39\n      jumpi\n      mload(0x40)\n      0x08c379a000000000000000000000000000000000000000000000000000000000\n      dup2\n      mstore\n      0x04\n      add\n      tag_40\n      swap1\n      tag_41\n      jump\t// in\n    tag_40:\n      mload(0x40)\n      dup1\n      swap2\n      sub\n      swap1\n      revert\n    tag_39:\n        /* \"lecture/34.fallback.sol\":3119:3375  {... */\n      pop\n        /* \"lecture/34.fallback.sol\":3050:3375  function JustGiveMessageWithFunds(address payable _to) public payable{... */\n      pop\n      jump\t// out\n        /* \"lecture/34.fallback.sol\":2155:2548  function DepositWithCall(address payable _to) public payable{... */\n    tag_18:\n        /* \"lecture/34.fallback.sol\":2461:2470  bool sent */\n      0x00\n        /* \"lecture/34.fallback.sol\":2476:2479  _to */\n      dup2\n        /* \"lecture/34.fallback.sol\":2476:2484  _to.call */\n      0xffffffffffffffffffffffffffffffffffffffff\n      and\n        /* \"lecture/34.fallback.sol\":2492:2501  msg.value */\n      callvalue\n        /* \"lecture/34.fallback.sol\":2476:2506  _to.call{value: msg.value}(\"\") */\n      mload(0x40)\n      tag_43\n      swap1\n      tag_44\n      jump\t// in\n    tag_43:\n      0x00\n      mload(0x40)\n      dup1\n      dup4\n      sub\n      dup2\n      dup6\n      dup8\n      gas\n      call\n      swap3\n      pop\n      pop\n      pop\n      returndatasize\n      dup1\n      0x00\n      dup2\n      eq\n      tag_47\n      jumpi\n      mload(0x40)\n      swap2\n      pop\n      and(add(returndatasize, 0x3f), not(0x1f))\n      dup3\n      add\n      0x40\n      mstore\n      returndatasize\n      dup3\n      mstore\n      returndatasize\n      0x00\n      0x20\n      dup5\n      add\n      returndatacopy\n      jump(tag_46)\n    tag_47:\n      0x60\n      swap2\n      pop\n    tag_46:\n      pop\n        /* \"lecture/34.fallback.sol\":2460:2506  (bool sent, ) = _to.call{value: msg.value}(\"\") */\n      pop\n      swap1\n      pop\n        /* \"lecture/34.fallback.sol\":2524:2528  sent */\n      dup1\n        /* \"lecture/34.fallback.sol\":2516:2541  require(sent, \"Failled\" ) */\n      tag_48\n      jumpi\n      mload(0x40)\n      0x08c379a000000000000000000000000000000000000000000000000000000000\n      dup2\n      mstore\n      0x04\n      add\n      tag_49\n      swap1\n      tag_41\n      jump\t// in\n    tag_49:\n      mload(0x40)\n      dup1\n      swap2\n      sub\n      swap1\n      revert\n    tag_48:\n        /* \"lecture/34.fallback.sol\":2215:2548  {... */\n      pop\n        /* \"lecture/34.fallback.sol\":2155:2548  function DepositWithCall(address payable _to) public payable{... */\n      pop\n      jump\t// out\n        /* \"lecture/34.fallback.sol\":2003:2145  function DepositWithTransfer(address payable _to) public payable{... */\n    tag_21:\n        /* \"lecture/34.fallback.sol\":2115:2118  _to */\n      dup1\n        /* \"lecture/34.fallback.sol\":2115:2127  _to.transfer */\n      0xffffffffffffffffffffffffffffffffffffffff\n      and\n        /* \"lecture/34.fallback.sol\":2115:2138  _to.transfer(msg.value) */\n      0x08fc\n        /* \"lecture/34.fallback.sol\":2128:2137  msg.value */\n      callvalue\n        /* \"lecture/34.fallback.sol\":2115:2138  _to.transfer(msg.value) */\n      swap1\n      dup2\n      iszero\n      mul\n      swap1\n      mload(0x40)\n      0x00\n      mload(0x40)\n      dup1\n      dup4\n      sub\n      dup2\n      dup6\n      dup9\n      dup9\n      call\n      swap4\n      pop\n      pop\n      pop\n      pop\n      iszero\n      dup1\n      iszero\n      tag_52\n      jumpi\n      returndatasize\n      0x00\n      dup1\n      returndatacopy\n      revert(0x00, returndatasize)\n    tag_52:\n      pop\n        /* \"lecture/34.fallback.sol\":2003:2145  function DepositWithTransfer(address payable _to) public payable{... */\n      pop\n      jump\t// out\n        /* \"lecture/34.fallback.sol\":1706:1946  function DepositWithSend(address payable _to) public payable{... */\n    tag_24:\n        /* \"lecture/34.fallback.sol\":1827:1839  bool success */\n      0x00\n        /* \"lecture/34.fallback.sol\":1842:1845  _to */\n      dup2\n        /* \"lecture/34.fallback.sol\":1842:1850  _to.send */\n      0xffffffffffffffffffffffffffffffffffffffff\n      and\n        /* \"lecture/34.fallback.sol\":1842:1861  _to.send(msg.value) */\n      0x08fc\n        /* \"lecture/34.fallback.sol\":1851:1860  msg.value */\n      callvalue\n        /* \"lecture/34.fallback.sol\":1842:1861  _to.send(msg.value) */\n      swap1\n      dup2\n      iszero\n      mul\n      swap1\n      mload(0x40)\n      0x00\n      mload(0x40)\n      dup1\n      dup4\n      sub\n      dup2\n      dup6\n      dup9\n      dup9\n      call\n      swap4\n      pop\n      pop\n      pop\n      pop\n        /* \"lecture/34.fallback.sol\":1827:1861  bool success = _to.send(msg.value) */\n      swap1\n      pop\n        /* \"lecture/34.fallback.sol\":1919:1926  success */\n      dup1\n        /* \"lecture/34.fallback.sol\":1911:1939  require(success, \"Failled\" ) */\n      tag_55\n      jumpi\n      mload(0x40)\n      0x08c379a000000000000000000000000000000000000000000000000000000000\n      dup2\n      mstore\n      0x04\n      add\n      tag_56\n      swap1\n      tag_41\n      jump\t// in\n    tag_56:\n      mload(0x40)\n      dup1\n      swap2\n      sub\n      swap1\n      revert\n    tag_55:\n        /* \"lecture/34.fallback.sol\":1766:1946  {... */\n      pop\n        /* \"lecture/34.fallback.sol\":1706:1946  function DepositWithSend(address payable _to) public payable{... */\n      pop\n      jump\t// out\n        /* \"#utility.yul\":88:205   */\n    tag_58:\n        /* \"#utility.yul\":197:198   */\n      0x00\n        /* \"#utility.yul\":194:195   */\n      dup1\n        /* \"#utility.yul\":187:199   */\n      revert\n        /* \"#utility.yul\":334:460   */\n    tag_60:\n        /* \"#utility.yul\":371:378   */\n      0x00\n        /* \"#utility.yul\":411:453   */\n      0xffffffffffffffffffffffffffffffffffffffff\n        /* \"#utility.yul\":404:409   */\n      dup3\n        /* \"#utility.yul\":400:454   */\n      and\n        /* \"#utility.yul\":389:454   */\n      swap1\n      pop\n        /* \"#utility.yul\":334:460   */\n      swap2\n      swap1\n      pop\n      jump\t// out\n        /* \"#utility.yul\":466:562   */\n    tag_61:\n        /* \"#utility.yul\":503:510   */\n      0x00\n        /* \"#utility.yul\":532:556   */\n      tag_83\n        /* \"#utility.yul\":550:555   */\n      dup3\n        /* \"#utility.yul\":532:556   */\n      tag_60\n      jump\t// in\n    tag_83:\n        /* \"#utility.yul\":521:556   */\n      swap1\n      pop\n        /* \"#utility.yul\":466:562   */\n      swap2\n      swap1\n      pop\n      jump\t// out\n        /* \"#utility.yul\":568:690   */\n    tag_62:\n        /* \"#utility.yul\":641:665   */\n      tag_85\n        /* \"#utility.yul\":659:664   */\n      dup2\n        /* \"#utility.yul\":641:665   */\n      tag_61\n      jump\t// in\n    tag_85:\n        /* \"#utility.yul\":634:639   */\n      dup2\n        /* \"#utility.yul\":631:666   */\n      eq\n        /* \"#utility.yul\":621:684   */\n      tag_86\n      jumpi\n        /* \"#utility.yul\":680:681   */\n      0x00\n        /* \"#utility.yul\":677:678   */\n      dup1\n        /* \"#utility.yul\":670:682   */\n      revert\n        /* \"#utility.yul\":621:684   */\n    tag_86:\n        /* \"#utility.yul\":568:690   */\n      pop\n      jump\t// out\n        /* \"#utility.yul\":696:835   */\n    tag_63:\n        /* \"#utility.yul\":742:747   */\n      0x00\n        /* \"#utility.yul\":780:786   */\n      dup2\n        /* \"#utility.yul\":767:787   */\n      calldataload\n        /* \"#utility.yul\":758:787   */\n      swap1\n      pop\n        /* \"#utility.yul\":796:829   */\n      tag_88\n        /* \"#utility.yul\":823:828   */\n      dup2\n        /* \"#utility.yul\":796:829   */\n      tag_62\n      jump\t// in\n    tag_88:\n        /* \"#utility.yul\":696:835   */\n      swap3\n      swap2\n      pop\n      pop\n      jump\t// out\n        /* \"#utility.yul\":841:1170   */\n    tag_10:\n        /* \"#utility.yul\":900:906   */\n      0x00\n        /* \"#utility.yul\":949:951   */\n      0x20\n        /* \"#utility.yul\":937:946   */\n      dup3\n        /* \"#utility.yul\":928:935   */\n      dup5\n        /* \"#utility.yul\":924:947   */\n      sub\n        /* \"#utility.yul\":920:952   */\n      slt\n        /* \"#utility.yul\":917:1036   */\n      iszero\n      tag_90\n      jumpi\n        /* \"#utility.yul\":955:1034   */\n      tag_91\n      tag_58\n      jump\t// in\n    tag_91:\n        /* \"#utility.yul\":917:1036   */\n    tag_90:\n        /* \"#utility.yul\":1075:1076   */\n      0x00\n        /* \"#utility.yul\":1100:1153   */\n      tag_92\n        /* \"#utility.yul\":1145:1152   */\n      dup5\n        /* \"#utility.yul\":1136:1142   */\n      dup3\n        /* \"#utility.yul\":1125:1134   */\n      dup6\n        /* \"#utility.yul\":1121:1143   */\n      add\n        /* \"#utility.yul\":1100:1153   */\n      tag_63\n      jump\t// in\n    tag_92:\n        /* \"#utility.yul\":1090:1153   */\n      swap2\n      pop\n        /* \"#utility.yul\":1046:1163   */\n      pop\n        /* \"#utility.yul\":841:1170   */\n      swap3\n      swap2\n      pop\n      pop\n      jump\t// out\n        /* \"#utility.yul\":1176:1280   */\n    tag_64:\n        /* \"#utility.yul\":1221:1228   */\n      0x00\n        /* \"#utility.yul\":1250:1274   */\n      tag_94\n        /* \"#utility.yul\":1268:1273   */\n      dup3\n        /* \"#utility.yul\":1250:1274   */\n      tag_60\n      jump\t// in\n    tag_94:\n        /* \"#utility.yul\":1239:1274   */\n      swap1\n      pop\n        /* \"#utility.yul\":1176:1280   */\n      swap2\n      swap1\n      pop\n      jump\t// out\n        /* \"#utility.yul\":1286:1424   */\n    tag_65:\n        /* \"#utility.yul\":1367:1399   */\n      tag_96\n        /* \"#utility.yul\":1393:1398   */\n      dup2\n        /* \"#utility.yul\":1367:1399   */\n      tag_64\n      jump\t// in\n    tag_96:\n        /* \"#utility.yul\":1360:1365   */\n      dup2\n        /* \"#utility.yul\":1357:1400   */\n      eq\n        /* \"#utility.yul\":1347:1418   */\n      tag_97\n      jumpi\n        /* \"#utility.yul\":1414:1415   */\n      0x00\n        /* \"#utility.yul\":1411:1412   */\n      dup1\n        /* \"#utility.yul\":1404:1416   */\n      revert\n        /* \"#utility.yul\":1347:1418   */\n    tag_97:\n        /* \"#utility.yul\":1286:1424   */\n      pop\n      jump\t// out\n        /* \"#utility.yul\":1430:1585   */\n    tag_66:\n        /* \"#utility.yul\":1484:1489   */\n      0x00\n        /* \"#utility.yul\":1522:1528   */\n      dup2\n        /* \"#utility.yul\":1509:1529   */\n      calldataload\n        /* \"#utility.yul\":1500:1529   */\n      swap1\n      pop\n        /* \"#utility.yul\":1538:1579   */\n      tag_99\n        /* \"#utility.yul\":1573:1578   */\n      dup2\n        /* \"#utility.yul\":1538:1579   */\n      tag_65\n      jump\t// in\n    tag_99:\n        /* \"#utility.yul\":1430:1585   */\n      swap3\n      swap2\n      pop\n      pop\n      jump\t// out\n        /* \"#utility.yul\":1591:1936   */\n    tag_14:\n        /* \"#utility.yul\":1658:1664   */\n      0x00\n        /* \"#utility.yul\":1707:1709   */\n      0x20\n        /* \"#utility.yul\":1695:1704   */\n      dup3\n        /* \"#utility.yul\":1686:1693   */\n      dup5\n        /* \"#utility.yul\":1682:1705   */\n      sub\n        /* \"#utility.yul\":1678:1710   */\n      slt\n        /* \"#utility.yul\":1675:1794   */\n      iszero\n      tag_101\n      jumpi\n        /* \"#utility.yul\":1713:1792   */\n      tag_102\n      tag_58\n      jump\t// in\n    tag_102:\n        /* \"#utility.yul\":1675:1794   */\n    tag_101:\n        /* \"#utility.yul\":1833:1834   */\n      0x00\n        /* \"#utility.yul\":1858:1919   */\n      tag_103\n        /* \"#utility.yul\":1911:1918   */\n      dup5\n        /* \"#utility.yul\":1902:1908   */\n      dup3\n        /* \"#utility.yul\":1891:1900   */\n      dup6\n        /* \"#utility.yul\":1887:1909   */\n      add\n        /* \"#utility.yul\":1858:1919   */\n      tag_66\n      jump\t// in\n    tag_103:\n        /* \"#utility.yul\":1848:1919   */\n      swap2\n      pop\n        /* \"#utility.yul\":1804:1929   */\n      pop\n        /* \"#utility.yul\":1591:1936   */\n      swap3\n      swap2\n      pop\n      pop\n      jump\t// out\n        /* \"#utility.yul\":1942:2089   */\n    tag_67:\n        /* \"#utility.yul\":2043:2054   */\n      0x00\n        /* \"#utility.yul\":2080:2083   */\n      dup2\n        /* \"#utility.yul\":2065:2083   */\n      swap1\n      pop\n        /* \"#utility.yul\":1942:2089   */\n      swap3\n      swap2\n      pop\n      pop\n      jump\t// out\n        /* \"#utility.yul\":2095:2247   */\n    tag_68:\n        /* \"#utility.yul\":2235:2239   */\n      0x4849000000000000000000000000000000000000000000000000000000000000\n        /* \"#utility.yul\":2231:2232   */\n      0x00\n        /* \"#utility.yul\":2223:2229   */\n      dup3\n        /* \"#utility.yul\":2219:2233   */\n      add\n        /* \"#utility.yul\":2212:2240   */\n      mstore\n        /* \"#utility.yul\":2095:2247   */\n      pop\n      jump\t// out\n        /* \"#utility.yul\":2253:2651   */\n    tag_69:\n        /* \"#utility.yul\":2412:2415   */\n      0x00\n        /* \"#utility.yul\":2433:2516   */\n      tag_107\n        /* \"#utility.yul\":2514:2515   */\n      0x02\n        /* \"#utility.yul\":2509:2512   */\n      dup4\n        /* \"#utility.yul\":2433:2516   */\n      tag_67\n      jump\t// in\n    tag_107:\n        /* \"#utility.yul\":2426:2516   */\n      swap2\n      pop\n        /* \"#utility.yul\":2525:2618   */\n      tag_108\n        /* \"#utility.yul\":2614:2617   */\n      dup3\n        /* \"#utility.yul\":2525:2618   */\n      tag_68\n      jump\t// in\n    tag_108:\n        /* \"#utility.yul\":2643:2644   */\n      0x02\n        /* \"#utility.yul\":2638:2641   */\n      dup3\n        /* \"#utility.yul\":2634:2645   */\n      add\n        /* \"#utility.yul\":2627:2645   */\n      swap1\n      pop\n        /* \"#utility.yul\":2253:2651   */\n      swap2\n      swap1\n      pop\n      jump\t// out\n        /* \"#utility.yul\":2657:3036   */\n    tag_27:\n        /* \"#utility.yul\":2841:2844   */\n      0x00\n        /* \"#utility.yul\":2863:3010   */\n      tag_110\n        /* \"#utility.yul\":3006:3009   */\n      dup3\n        /* \"#utility.yul\":2863:3010   */\n      tag_69\n      jump\t// in\n    tag_110:\n        /* \"#utility.yul\":2856:3010   */\n      swap2\n      pop\n        /* \"#utility.yul\":3027:3030   */\n      dup2\n        /* \"#utility.yul\":3020:3030   */\n      swap1\n      pop\n        /* \"#utility.yul\":2657:3036   */\n      swap2\n      swap1\n      pop\n      jump\t// out\n        /* \"#utility.yul\":3042:3211   */\n    tag_70:\n        /* \"#utility.yul\":3126:3137   */\n      0x00\n        /* \"#utility.yul\":3160:3166   */\n      dup3\n        /* \"#utility.yul\":3155:3158   */\n      dup3\n        /* \"#utility.yul\":3148:3167   */\n      mstore\n        /* \"#utility.yul\":3200:3204   */\n      0x20\n        /* \"#utility.yul\":3195:3198   */\n      dup3\n        /* \"#utility.yul\":3191:3205   */\n      add\n        /* \"#utility.yul\":3176:3205   */\n      swap1\n      pop\n        /* \"#utility.yul\":3042:3211   */\n      swap3\n      swap2\n      pop\n      pop\n      jump\t// out\n        /* \"#utility.yul\":3217:3388   */\n    tag_71:\n        /* \"#utility.yul\":3357:3380   */\n      0x4661696c656420746f2073656e64206569746865720000000000000000000000\n        /* \"#utility.yul\":3353:3354   */\n      0x00\n        /* \"#utility.yul\":3345:3351   */\n      dup3\n        /* \"#utility.yul\":3341:3355   */\n      add\n        /* \"#utility.yul\":3334:3381   */\n      mstore\n        /* \"#utility.yul\":3217:3388   */\n      pop\n      jump\t// out\n        /* \"#utility.yul\":3394:3760   */\n    tag_72:\n        /* \"#utility.yul\":3536:3539   */\n      0x00\n        /* \"#utility.yul\":3557:3624   */\n      tag_114\n        /* \"#utility.yul\":3621:3623   */\n      0x15\n        /* \"#utility.yul\":3616:3619   */\n      dup4\n        /* \"#utility.yul\":3557:3624   */\n      tag_70\n      jump\t// in\n    tag_114:\n        /* \"#utility.yul\":3550:3624   */\n      swap2\n      pop\n        /* \"#utility.yul\":3633:3726   */\n      tag_115\n        /* \"#utility.yul\":3722:3725   */\n      dup3\n        /* \"#utility.yul\":3633:3726   */\n      tag_71\n      jump\t// in\n    tag_115:\n        /* \"#utility.yul\":3751:3753   */\n      0x20\n        /* \"#utility.yul\":3746:3749   */\n      dup3\n        /* \"#utility.yul\":3742:3754   */\n      add\n        /* \"#utility.yul\":3735:3754   */\n      swap1\n      pop\n        /* \"#utility.yul\":3394:3760   */\n      swap2\n      swap1\n      pop\n      jump\t// out\n        /* \"#utility.yul\":3766:4185   */\n    tag_33:\n        /* \"#utility.yul\":3932:3936   */\n      0x00\n        /* \"#utility.yul\":3970:3972   */\n      0x20\n        /* \"#utility.yul\":3959:3968   */\n      dup3\n        /* \"#utility.yul\":3955:3973   */\n      add\n        /* \"#utility.yul\":3947:3973   */\n      swap1\n      pop\n        /* \"#utility.yul\":4019:4028   */\n      dup2\n        /* \"#utility.yul\":4013:4017   */\n      dup2\n        /* \"#utility.yul\":4009:4029   */\n      sub\n        /* \"#utility.yul\":4005:4006   */\n      0x00\n        /* \"#utility.yul\":3994:4003   */\n      dup4\n        /* \"#utility.yul\":3990:4007   */\n      add\n        /* \"#utility.yul\":3983:4030   */\n      mstore\n        /* \"#utility.yul\":4047:4178   */\n      tag_117\n        /* \"#utility.yul\":4173:4177   */\n      dup2\n        /* \"#utility.yul\":4047:4178   */\n      tag_72\n      jump\t// in\n    tag_117:\n        /* \"#utility.yul\":4039:4178   */\n      swap1\n      pop\n        /* \"#utility.yul\":3766:4185   */\n      swap2\n      swap1\n      pop\n      jump\t// out\n        /* \"#utility.yul\":4191:4348   */\n    tag_73:\n        /* \"#utility.yul\":4331:4340   */\n      0x4661696c6c656400000000000000000000000000000000000000000000000000\n        /* \"#utility.yul\":4327:4328   */\n      0x00\n        /* \"#utility.yul\":4319:4325   */\n      dup3\n        /* \"#utility.yul\":4315:4329   */\n      add\n        /* \"#utility.yul\":4308:4341   */\n      mstore\n        /* \"#utility.yul\":4191:4348   */\n      pop\n      jump\t// out\n        /* \"#utility.yul\":4354:4719   */\n    tag_74:\n        /* \"#utility.yul\":4496:4499   */\n      0x00\n        /* \"#utility.yul\":4517:4583   */\n      tag_120\n        /* \"#utility.yul\":4581:4582   */\n      0x07\n        /* \"#utility.yul\":4576:4579   */\n      dup4\n        /* \"#utility.yul\":4517:4583   */\n      tag_70\n      jump\t// in\n    tag_120:\n        /* \"#utility.yul\":4510:4583   */\n      swap2\n      pop\n        /* \"#utility.yul\":4592:4685   */\n      tag_121\n        /* \"#utility.yul\":4681:4684   */\n      dup3\n        /* \"#utility.yul\":4592:4685   */\n      tag_73\n      jump\t// in\n    tag_121:\n        /* \"#utility.yul\":4710:4712   */\n      0x20\n        /* \"#utility.yul\":4705:4708   */\n      dup3\n        /* \"#utility.yul\":4701:4713   */\n      add\n        /* \"#utility.yul\":4694:4713   */\n      swap1\n      pop\n        /* \"#utility.yul\":4354:4719   */\n      swap2\n      swap1\n      pop\n      jump\t// out\n        /* \"#utility.yul\":4725:5144   */\n    tag_41:\n        /* \"#utility.yul\":4891:4895   */\n      0x00\n        /* \"#utility.yul\":4929:4931   */\n      0x20\n        /* \"#utility.yul\":4918:4927   */\n      dup3\n        /* \"#utility.yul\":4914:4932   */\n      add\n        /* \"#utility.yul\":4906:4932   */\n      swap1\n      pop\n        /* \"#utility.yul\":4978:4987   */\n      dup2\n        /* \"#utility.yul\":4972:4976   */\n      dup2\n        /* \"#utility.yul\":4968:4988   */\n      sub\n        /* \"#utility.yul\":4964:4965   */\n      0x00\n        /* \"#utility.yul\":4953:4962   */\n      dup4\n        /* \"#utility.yul\":4949:4966   */\n      add\n        /* \"#utility.yul\":4942:4989   */\n      mstore\n        /* \"#utility.yul\":5006:5137   */\n      tag_123\n        /* \"#utility.yul\":5132:5136   */\n      dup2\n        /* \"#utility.yul\":5006:5137   */\n      tag_74\n      jump\t// in\n    tag_123:\n        /* \"#utility.yul\":4998:5137   */\n      swap1\n      pop\n        /* \"#utility.yul\":4725:5144   */\n      swap2\n      swap1\n      pop\n      jump\t// out\n        /* \"#utility.yul\":5150:5264   */\n    tag_75:\n      pop\n      jump\t// out\n        /* \"#utility.yul\":5270:5668   */\n    tag_76:\n        /* \"#utility.yul\":5429:5432   */\n      0x00\n        /* \"#utility.yul\":5450:5533   */\n      tag_126\n        /* \"#utility.yul\":5531:5532   */\n      0x00\n        /* \"#utility.yul\":5526:5529   */\n      dup4\n        /* \"#utility.yul\":5450:5533   */\n      tag_67\n      jump\t// in\n    tag_126:\n        /* \"#utility.yul\":5443:5533   */\n      swap2\n      pop\n        /* \"#utility.yul\":5542:5635   */\n      tag_127\n        /* \"#utility.yul\":5631:5634   */\n      dup3\n        /* \"#utility.yul\":5542:5635   */\n      tag_75\n      jump\t// in\n    tag_127:\n        /* \"#utility.yul\":5660:5661   */\n      0x00\n        /* \"#utility.yul\":5655:5658   */\n      dup3\n        /* \"#utility.yul\":5651:5662   */\n      add\n        /* \"#utility.yul\":5644:5662   */\n      swap1\n      pop\n        /* \"#utility.yul\":5270:5668   */\n      swap2\n      swap1\n      pop\n      jump\t// out\n        /* \"#utility.yul\":5674:6053   */\n    tag_44:\n        /* \"#utility.yul\":5858:5861   */\n      0x00\n        /* \"#utility.yul\":5880:6027   */\n      tag_129\n        /* \"#utility.yul\":6023:6026   */\n      dup3\n        /* \"#utility.yul\":5880:6027   */\n      tag_76\n      jump\t// in\n    tag_129:\n        /* \"#utility.yul\":5873:6027   */\n      swap2\n      pop\n        /* \"#utility.yul\":6044:6047   */\n      dup2\n        /* \"#utility.yul\":6037:6047   */\n      swap1\n      pop\n        /* \"#utility.yul\":5674:6053   */\n      swap2\n      swap1\n      pop\n      jump\t// out\n\n    auxdata: 0xa264697066735822122034eac4e318e31b1659c42ed50222ae0c5f1fbfc748e14fce943c837f1ac21e8e64736f6c63430008120033\n}\n",
				"bytecode": {
					"linkReferences": {},
					"object": "608060405234801561001057600080fd5b5061067f806100206000396000f3fe60806040526004361061004a5760003560e01c80637ea4d6ae1461004f578063ac2a35c814610078578063bc54f7ed14610094578063e1972dbb146100b0578063f97447dd146100cc575b600080fd5b34801561005b57600080fd5b5061007660048036038101906100719190610421565b6100e8565b005b610092600480360381019061008d919061048c565b610197565b005b6100ae60048036038101906100a9919061048c565b610247565b005b6100ca60048036038101906100c5919061048c565b6102f7565b005b6100e660048036038101906100e1919061048c565b610341565b005b60008173ffffffffffffffffffffffffffffffffffffffff1660405161010d90610510565b6000604051808303816000865af19150503d806000811461014a576040519150601f19603f3d011682016040523d82523d6000602084013e61014f565b606091505b5050905080610193576040517f08c379a000000000000000000000000000000000000000000000000000000000815260040161018a90610582565b60405180910390fd5b5050565b60008173ffffffffffffffffffffffffffffffffffffffff16346040516101bd90610510565b60006040518083038185875af1925050503d80600081146101fa576040519150601f19603f3d011682016040523d82523d6000602084013e6101ff565b606091505b5050905080610243576040517f08c379a000000000000000000000000000000000000000000000000000000000815260040161023a906105ee565b60405180910390fd5b5050565b60008173ffffffffffffffffffffffffffffffffffffffff163460405161026d90610634565b60006040518083038185875af1925050503d80600081146102aa576040519150601f19603f3d011682016040523d82523d6000602084013e6102af565b606091505b50509050806102f3576040517f08c379a00000000000000000000000000000000000000000000000000000000081526004016102ea906105ee565b60405180910390fd5b5050565b8073ffffffffffffffffffffffffffffffffffffffff166108fc349081150290604051600060405180830381858888f1935050505015801561033d573d6000803e3d6000fd5b5050565b60008173ffffffffffffffffffffffffffffffffffffffff166108fc349081150290604051600060405180830381858888f193505050509050806103ba576040517f08c379a00000000000000000000000000000000000000000000000000000000081526004016103b1906105ee565b60405180910390fd5b5050565b600080fd5b600073ffffffffffffffffffffffffffffffffffffffff82169050919050565b60006103ee826103c3565b9050919050565b6103fe816103e3565b811461040957600080fd5b50565b60008135905061041b816103f5565b92915050565b600060208284031215610437576104366103be565b5b60006104458482850161040c565b91505092915050565b6000610459826103c3565b9050919050565b6104698161044e565b811461047457600080fd5b50565b60008135905061048681610460565b92915050565b6000602082840312156104a2576104a16103be565b5b60006104b084828501610477565b91505092915050565b600081905092915050565b7f4849000000000000000000000000000000000000000000000000000000000000600082015250565b60006104fa6002836104b9565b9150610505826104c4565b600282019050919050565b600061051b826104ed565b9150819050919050565b600082825260208201905092915050565b7f4661696c656420746f2073656e64206569746865720000000000000000000000600082015250565b600061056c601583610525565b915061057782610536565b602082019050919050565b6000602082019050818103600083015261059b8161055f565b9050919050565b7f4661696c6c656400000000000000000000000000000000000000000000000000600082015250565b60006105d8600783610525565b91506105e3826105a2565b602082019050919050565b60006020820190508181036000830152610607816105cb565b9050919050565b50565b600061061e6000836104b9565b91506106298261060e565b600082019050919050565b600061063f82610611565b915081905091905056fea264697066735822122034eac4e318e31b1659c42ed50222ae0c5f1fbfc748e14fce943c837f1ac21e8e64736f6c63430008120033",
					"opcodes": "PUSH1 0x80 PUSH1 0x40 MSTORE CALLVALUE DUP1 ISZERO PUSH2 0x10 JUMPI PUSH1 0x0 DUP1 REVERT JUMPDEST POP PUSH2 0x67F DUP1 PUSH2 0x20 PUSH1 0x0 CODECOPY PUSH1 0x0 RETURN INVALID PUSH1 0x80 PUSH1 0x40 MSTORE PUSH1 0x4 CALLDATASIZE LT PUSH2 0x4A JUMPI PUSH1 0x0 CALLDATALOAD PUSH1 0xE0 SHR DUP1 PUSH4 0x7EA4D6AE EQ PUSH2 0x4F JUMPI DUP1 PUSH4 0xAC2A35C8 EQ PUSH2 0x78 JUMPI DUP1 PUSH4 0xBC54F7ED EQ PUSH2 0x94 JUMPI DUP1 PUSH4 0xE1972DBB EQ PUSH2 0xB0 JUMPI DUP1 PUSH4 0xF97447DD EQ PUSH2 0xCC JUMPI JUMPDEST PUSH1 0x0 DUP1 REVERT JUMPDEST CALLVALUE DUP1 ISZERO PUSH2 0x5B JUMPI PUSH1 0x0 DUP1 REVERT JUMPDEST POP PUSH2 0x76 PUSH1 0x4 DUP1 CALLDATASIZE SUB DUP2 ADD SWAP1 PUSH2 0x71 SWAP2 SWAP1 PUSH2 0x421 JUMP JUMPDEST PUSH2 0xE8 JUMP JUMPDEST STOP JUMPDEST PUSH2 0x92 PUSH1 0x4 DUP1 CALLDATASIZE SUB DUP2 ADD SWAP1 PUSH2 0x8D SWAP2 SWAP1 PUSH2 0x48C JUMP JUMPDEST PUSH2 0x197 JUMP JUMPDEST STOP JUMPDEST PUSH2 0xAE PUSH1 0x4 DUP1 CALLDATASIZE SUB DUP2 ADD SWAP1 PUSH2 0xA9 SWAP2 SWAP1 PUSH2 0x48C JUMP JUMPDEST PUSH2 0x247 JUMP JUMPDEST STOP JUMPDEST PUSH2 0xCA PUSH1 0x4 DUP1 CALLDATASIZE SUB DUP2 ADD SWAP1 PUSH2 0xC5 SWAP2 SWAP1 PUSH2 0x48C JUMP JUMPDEST PUSH2 0x2F7 JUMP JUMPDEST STOP JUMPDEST PUSH2 0xE6 PUSH1 0x4 DUP1 CALLDATASIZE SUB DUP2 ADD SWAP1 PUSH2 0xE1 SWAP2 SWAP1 PUSH2 0x48C JUMP JUMPDEST PUSH2 0x341 JUMP JUMPDEST STOP JUMPDEST PUSH1 0x0 DUP2 PUSH20 0xFFFFFFFFFFFFFFFFFFFFFFFFFFFFFFFFFFFFFFFF AND PUSH1 0x40 MLOAD PUSH2 0x10D SWAP1 PUSH2 0x510 JUMP JUMPDEST PUSH1 0x0 PUSH1 0x40 MLOAD DUP1 DUP4 SUB DUP2 PUSH1 0x0 DUP7 GAS CALL SWAP2 POP POP RETURNDATASIZE DUP1 PUSH1 0x0 DUP2 EQ PUSH2 0x14A JUMPI PUSH1 0x40 MLOAD SWAP2 POP PUSH1 0x1F NOT PUSH1 0x3F RETURNDATASIZE ADD AND DUP3 ADD PUSH1 0x40 MSTORE RETURNDATASIZE DUP3 MSTORE RETURNDATASIZE PUSH1 0x0 PUSH1 0x20 DUP5 ADD RETURNDATACOPY PUSH2 0x14F JUMP JUMPDEST PUSH1 0x60 SWAP2 POP JUMPDEST POP POP SWAP1 POP DUP1 PUSH2 0x193 JUMPI PUSH1 0x40 MLOAD PUSH32 0x8C379A000000000000000000000000000000000000000000000000000000000 DUP2 MSTORE PUSH1 0x4 ADD PUSH2 0x18A SWAP1 PUSH2 0x582 JUMP JUMPDEST PUSH1 0x40 MLOAD DUP1 SWAP2 SUB SWAP1 REVERT JUMPDEST POP POP JUMP JUMPDEST PUSH1 0x0 DUP2 PUSH20 0xFFFFFFFFFFFFFFFFFFFFFFFFFFFFFFFFFFFFFFFF AND CALLVALUE PUSH1 0x40 MLOAD PUSH2 0x1BD SWAP1 PUSH2 0x510 JUMP JUMPDEST PUSH1 0x0 PUSH1 0x40 MLOAD DUP1 DUP4 SUB DUP2 DUP6 DUP8 GAS CALL SWAP3 POP POP POP RETURNDATASIZE DUP1 PUSH1 0x0 DUP2 EQ PUSH2 0x1FA JUMPI PUSH1 0x40 MLOAD SWAP2 POP PUSH1 0x1F NOT PUSH1 0x3F RETURNDATASIZE ADD AND DUP3 ADD PUSH1 0x40 MSTORE RETURNDATASIZE DUP3 MSTORE RETURNDATASIZE PUSH1 0x0 PUSH1 0x20 DUP5 ADD RETURNDATACOPY PUSH2 0x1FF JUMP JUMPDEST PUSH1 0x60 SWAP2 POP JUMPDEST POP POP SWAP1 POP DUP1 PUSH2 0x243 JUMPI PUSH1 0x40 MLOAD PUSH32 0x8C379A000000000000000000000000000000000000000000000000000000000 DUP2 MSTORE PUSH1 0x4 ADD PUSH2 0x23A SWAP1 PUSH2 0x5EE JUMP JUMPDEST PUSH1 0x40 MLOAD DUP1 SWAP2 SUB SWAP1 REVERT JUMPDEST POP POP JUMP JUMPDEST PUSH1 0x0 DUP2 PUSH20 0xFFFFFFFFFFFFFFFFFFFFFFFFFFFFFFFFFFFFFFFF AND CALLVALUE PUSH1 0x40 MLOAD PUSH2 0x26D SWAP1 PUSH2 0x634 JUMP JUMPDEST PUSH1 0x0 PUSH1 0x40 MLOAD DUP1 DUP4 SUB DUP2 DUP6 DUP8 GAS CALL SWAP3 POP POP POP RETURNDATASIZE DUP1 PUSH1 0x0 DUP2 EQ PUSH2 0x2AA JUMPI PUSH1 0x40 MLOAD SWAP2 POP PUSH1 0x1F NOT PUSH1 0x3F RETURNDATASIZE ADD AND DUP3 ADD PUSH1 0x40 MSTORE RETURNDATASIZE DUP3 MSTORE RETURNDATASIZE PUSH1 0x0 PUSH1 0x20 DUP5 ADD RETURNDATACOPY PUSH2 0x2AF JUMP JUMPDEST PUSH1 0x60 SWAP2 POP JUMPDEST POP POP SWAP1 POP DUP1 PUSH2 0x2F3 JUMPI PUSH1 0x40 MLOAD PUSH32 0x8C379A000000000000000000000000000000000000000000000000000000000 DUP2 MSTORE PUSH1 0x4 ADD PUSH2 0x2EA SWAP1 PUSH2 0x5EE JUMP JUMPDEST PUSH1 0x40 MLOAD DUP1 SWAP2 SUB SWAP1 REVERT JUMPDEST POP POP JUMP JUMPDEST DUP1 PUSH20 0xFFFFFFFFFFFFFFFFFFFFFFFFFFFFFFFFFFFFFFFF AND PUSH2 0x8FC CALLVALUE SWAP1 DUP2 ISZERO MUL SWAP1 PUSH1 0x40 MLOAD PUSH1 0x0 PUSH1 0x40 MLOAD DUP1 DUP4 SUB DUP2 DUP6 DUP9 DUP9 CALL SWAP4 POP POP POP POP ISZERO DUP1 ISZERO PUSH2 0x33D JUMPI RETURNDATASIZE PUSH1 0x0 DUP1 RETURNDATACOPY RETURNDATASIZE PUSH1 0x0 REVERT JUMPDEST POP POP JUMP JUMPDEST PUSH1 0x0 DUP2 PUSH20 0xFFFFFFFFFFFFFFFFFFFFFFFFFFFFFFFFFFFFFFFF AND PUSH2 0x8FC CALLVALUE SWAP1 DUP2 ISZERO MUL SWAP1 PUSH1 0x40 MLOAD PUSH1 0x0 PUSH1 0x40 MLOAD DUP1 DUP4 SUB DUP2 DUP6 DUP9 DUP9 CALL SWAP4 POP POP POP POP SWAP1 POP DUP1 PUSH2 0x3BA JUMPI PUSH1 0x40 MLOAD PUSH32 0x8C379A000000000000000000000000000000000000000000000000000000000 DUP2 MSTORE PUSH1 0x4 ADD PUSH2 0x3B1 SWAP1 PUSH2 0x5EE JUMP JUMPDEST PUSH1 0x40 MLOAD DUP1 SWAP2 SUB SWAP1 REVERT JUMPDEST POP POP JUMP JUMPDEST PUSH1 0x0 DUP1 REVERT JUMPDEST PUSH1 0x0 PUSH20 0xFFFFFFFFFFFFFFFFFFFFFFFFFFFFFFFFFFFFFFFF DUP3 AND SWAP1 POP SWAP2 SWAP1 POP JUMP JUMPDEST PUSH1 0x0 PUSH2 0x3EE DUP3 PUSH2 0x3C3 JUMP JUMPDEST SWAP1 POP SWAP2 SWAP1 POP JUMP JUMPDEST PUSH2 0x3FE DUP2 PUSH2 0x3E3 JUMP JUMPDEST DUP2 EQ PUSH2 0x409 JUMPI PUSH1 0x0 DUP1 REVERT JUMPDEST POP JUMP JUMPDEST PUSH1 0x0 DUP2 CALLDATALOAD SWAP1 POP PUSH2 0x41B DUP2 PUSH2 0x3F5 JUMP JUMPDEST SWAP3 SWAP2 POP POP JUMP JUMPDEST PUSH1 0x0 PUSH1 0x20 DUP3 DUP5 SUB SLT ISZERO PUSH2 0x437 JUMPI PUSH2 0x436 PUSH2 0x3BE JUMP JUMPDEST JUMPDEST PUSH1 0x0 PUSH2 0x445 DUP5 DUP3 DUP6 ADD PUSH2 0x40C JUMP JUMPDEST SWAP2 POP POP SWAP3 SWAP2 POP POP JUMP JUMPDEST PUSH1 0x0 PUSH2 0x459 DUP3 PUSH2 0x3C3 JUMP JUMPDEST SWAP1 POP SWAP2 SWAP1 POP JUMP JUMPDEST PUSH2 0x469 DUP2 PUSH2 0x44E JUMP JUMPDEST DUP2 EQ PUSH2 0x474 JUMPI PUSH1 0x0 DUP1 REVERT JUMPDEST POP JUMP JUMPDEST PUSH1 0x0 DUP2 CALLDATALOAD SWAP1 POP PUSH2 0x486 DUP2 PUSH2 0x460 JUMP JUMPDEST SWAP3 SWAP2 POP POP JUMP JUMPDEST PUSH1 0x0 PUSH1 0x20 DUP3 DUP5 SUB SLT ISZERO PUSH2 0x4A2 JUMPI PUSH2 0x4A1 PUSH2 0x3BE JUMP JUMPDEST JUMPDEST PUSH1 0x0 PUSH2 0x4B0 DUP5 DUP3 DUP6 ADD PUSH2 0x477 JUMP JUMPDEST SWAP2 POP POP SWAP3 SWAP2 POP POP JUMP JUMPDEST PUSH1 0x0 DUP2 SWAP1 POP SWAP3 SWAP2 POP POP JUMP JUMPDEST PUSH32 0x4849000000000000000000000000000000000000000000000000000000000000 PUSH1 0x0 DUP3 ADD MSTORE POP JUMP JUMPDEST PUSH1 0x0 PUSH2 0x4FA PUSH1 0x2 DUP4 PUSH2 0x4B9 JUMP JUMPDEST SWAP2 POP PUSH2 0x505 DUP3 PUSH2 0x4C4 JUMP JUMPDEST PUSH1 0x2 DUP3 ADD SWAP1 POP SWAP2 SWAP1 POP JUMP JUMPDEST PUSH1 0x0 PUSH2 0x51B DUP3 PUSH2 0x4ED JUMP JUMPDEST SWAP2 POP DUP2 SWAP1 POP SWAP2 SWAP1 POP JUMP JUMPDEST PUSH1 0x0 DUP3 DUP3 MSTORE PUSH1 0x20 DUP3 ADD SWAP1 POP SWAP3 SWAP2 POP POP JUMP JUMPDEST PUSH32 0x4661696C656420746F2073656E64206569746865720000000000000000000000 PUSH1 0x0 DUP3 ADD MSTORE POP JUMP JUMPDEST PUSH1 0x0 PUSH2 0x56C PUSH1 0x15 DUP4 PUSH2 0x525 JUMP JUMPDEST SWAP2 POP PUSH2 0x577 DUP3 PUSH2 0x536 JUMP JUMPDEST PUSH1 0x20 DUP3 ADD SWAP1 POP SWAP2 SWAP1 POP JUMP JUMPDEST PUSH1 0x0 PUSH1 0x20 DUP3 ADD SWAP1 POP DUP2 DUP2 SUB PUSH1 0x0 DUP4 ADD MSTORE PUSH2 0x59B DUP2 PUSH2 0x55F JUMP JUMPDEST SWAP1 POP SWAP2 SWAP1 POP JUMP JUMPDEST PUSH32 0x4661696C6C656400000000000000000000000000000000000000000000000000 PUSH1 0x0 DUP3 ADD MSTORE POP JUMP JUMPDEST PUSH1 0x0 PUSH2 0x5D8 PUSH1 0x7 DUP4 PUSH2 0x525 JUMP JUMPDEST SWAP2 POP PUSH2 0x5E3 DUP3 PUSH2 0x5A2 JUMP JUMPDEST PUSH1 0x20 DUP3 ADD SWAP1 POP SWAP2 SWAP1 POP JUMP JUMPDEST PUSH1 0x0 PUSH1 0x20 DUP3 ADD SWAP1 POP DUP2 DUP2 SUB PUSH1 0x0 DUP4 ADD MSTORE PUSH2 0x607 DUP2 PUSH2 0x5CB JUMP JUMPDEST SWAP1 POP SWAP2 SWAP1 POP JUMP JUMPDEST POP JUMP JUMPDEST PUSH1 0x0 PUSH2 0x61E PUSH1 0x0 DUP4 PUSH2 0x4B9 JUMP JUMPDEST SWAP2 POP PUSH2 0x629 DUP3 PUSH2 0x60E JUMP JUMPDEST PUSH1 0x0 DUP3 ADD SWAP1 POP SWAP2 SWAP1 POP JUMP JUMPDEST PUSH1 0x0 PUSH2 0x63F DUP3 PUSH2 0x611 JUMP JUMPDEST SWAP2 POP DUP2 SWAP1 POP SWAP2 SWAP1 POP JUMP INVALID LOG2 PUSH5 0x6970667358 0x22 SLT KECCAK256 CALLVALUE 0xEA 0xC4 0xE3 XOR 0xE3 SHL AND MSIZE 0xC4 0x2E 0xD5 MUL 0x22 0xAE 0xC 0x5F 0x1F 0xBF 0xC7 BASEFEE 0xE1 0x4F 0xCE SWAP5 EXTCODECOPY DUP4 PUSH32 0x1AC21E8E64736F6C634300081200330000000000000000000000000000000000 "
				},
				"gasEstimates": {
					"creation": {
						"codeDepositCost": "332600",
						"executionCost": "368",
						"totalCost": "332968"
					},
					"external": {
						"DepositWithCall(address)": "infinite",
						"DepositWithSend(address)": "infinite",
						"DepositWithTransfer(address)": "infinite",
						"JustGiveMessage(address)": "infinite",
						"JustGiveMessageWithFunds(address)": "infinite"
					}
				},
				"methodIdentifiers": {
					"DepositWithCall(address)": "bc54f7ed",
					"DepositWithSend(address)": "f97447dd",
					"DepositWithTransfer(address)": "e1972dbb",
					"JustGiveMessage(address)": "7ea4d6ae",
					"JustGiveMessageWithFunds(address)": "ac2a35c8"
				}
			},
			"storageLayout": {
				"storage": [],
				"types": null
			},
			"userdoc": {
				"kind": "user",
				"methods": {},
				"version": 1
			}
		}
	}
}