{
	"lecture/DataType.sol": {
		"lec2": {
			"abi": [
				{
					"inputs": [],
					"name": "addr",
					"outputs": [
						{
							"internalType": "address",
							"name": "",
							"type": "address"
						}
					],
					"stateMutability": "view",
					"type": "function"
				},
				{
					"inputs": [],
					"name": "b",
					"outputs": [
						{
							"internalType": "bool",
							"name": "",
							"type": "bool"
						}
					],
					"stateMutability": "view",
					"type": "function"
				},
				{
					"inputs": [],
					"name": "b1",
					"outputs": [
						{
							"internalType": "bool",
							"name": "",
							"type": "bool"
						}
					],
					"stateMutability": "view",
					"type": "function"
				},
				{
					"inputs": [],
					"name": "b2",
					"outputs": [
						{
							"internalType": "bool",
							"name": "",
							"type": "bool"
						}
					],
					"stateMutability": "view",
					"type": "function"
				},
				{
					"inputs": [],
					"name": "b3",
					"outputs": [
						{
							"internalType": "bool",
							"name": "",
							"type": "bool"
						}
					],
					"stateMutability": "view",
					"type": "function"
				},
				{
					"inputs": [],
					"name": "b4",
					"outputs": [
						{
							"internalType": "bool",
							"name": "",
							"type": "bool"
						}
					],
					"stateMutability": "view",
					"type": "function"
				},
				{
					"inputs": [],
					"name": "b5",
					"outputs": [
						{
							"internalType": "bool",
							"name": "",
							"type": "bool"
						}
					],
					"stateMutability": "view",
					"type": "function"
				},
				{
					"inputs": [],
					"name": "bt",
					"outputs": [
						{
							"internalType": "bytes4",
							"name": "",
							"type": "bytes4"
						}
					],
					"stateMutability": "view",
					"type": "function"
				},
				{
					"inputs": [],
					"name": "bt2",
					"outputs": [
						{
							"internalType": "bytes",
							"name": "",
							"type": "bytes"
						}
					],
					"stateMutability": "view",
					"type": "function"
				},
				{
					"inputs": [],
					"name": "it",
					"outputs": [
						{
							"internalType": "int8",
							"name": "",
							"type": "int8"
						}
					],
					"stateMutability": "view",
					"type": "function"
				},
				{
					"inputs": [],
					"name": "it2",
					"outputs": [
						{
							"internalType": "uint8",
							"name": "",
							"type": "uint8"
						}
					],
					"stateMutability": "view",
					"type": "function"
				},
				{
					"inputs": [],
					"name": "it3",
					"outputs": [
						{
							"internalType": "uint256",
							"name": "",
							"type": "uint256"
						}
					],
					"stateMutability": "view",
					"type": "function"
				}
			],
			"devdoc": {
				"kind": "dev",
				"methods": {},
				"version": 1
			},
			"evm": {
				"assembly": "    /* \"lecture/DataType.sol\":100:823  contract lec2{... */\n  mstore(0x40, 0x80)\n    /* \"lecture/DataType.sol\":162:167  false */\n  0x00\n    /* \"lecture/DataType.sol\":146:167  bool public b = false */\n  dup1\n  exp(0x0100, 0x00)\n  dup2\n  sload\n  dup2\n  0xff\n  mul\n  not\n  and\n  swap1\n  dup4\n  iszero\n  iszero\n  mul\n  or\n  swap1\n  sstore\n  pop\n    /* \"lecture/DataType.sol\":217:222  false */\n  0x00\n    /* \"lecture/DataType.sol\":216:222  !false */\n  iszero\n    /* \"lecture/DataType.sol\":199:222  bool public b1 = !false */\n  0x00\n  exp(0x0100, 0x01)\n  dup2\n  sload\n  dup2\n  0xff\n  mul\n  not\n  and\n  swap1\n  dup4\n  iszero\n  iszero\n  mul\n  or\n  swap1\n  sstore\n  pop\n    /* \"lecture/DataType.sol\":252:257  false */\n  0x00\n    /* \"lecture/DataType.sol\":252:265  false || true */\n  dup1\n  tag_1\n  jumpi\n  pop\n    /* \"lecture/DataType.sol\":261:265  true */\n  0x01\n    /* \"lecture/DataType.sol\":252:265  false || true */\ntag_1:\n    /* \"lecture/DataType.sol\":235:265  bool public b2 = false || true */\n  0x00\n  exp(0x0100, 0x02)\n  dup2\n  sload\n  dup2\n  0xff\n  mul\n  not\n  and\n  swap1\n  dup4\n  iszero\n  iszero\n  mul\n  or\n  swap1\n  sstore\n  pop\n    /* \"lecture/DataType.sol\":305:309  true */\n  0x01\n    /* \"lecture/DataType.sol\":296:309  false == true */\n  iszero\n  iszero\n    /* \"lecture/DataType.sol\":296:301  false */\n  0x00\n    /* \"lecture/DataType.sol\":296:309  false == true */\n  iszero\n  iszero\n  eq\n    /* \"lecture/DataType.sol\":279:309  bool public b3 = false == true */\n  0x00\n  exp(0x0100, 0x03)\n  dup2\n  sload\n  dup2\n  0xff\n  mul\n  not\n  and\n  swap1\n  dup4\n  iszero\n  iszero\n  mul\n  or\n  swap1\n  sstore\n  pop\n    /* \"lecture/DataType.sol\":349:354  false */\n  0x00\n    /* \"lecture/DataType.sol\":340:354  false != false */\n  iszero\n  iszero\n    /* \"lecture/DataType.sol\":340:345  false */\n  0x00\n    /* \"lecture/DataType.sol\":340:354  false != false */\n  iszero\n  iszero\n  eq\n  iszero\n    /* \"lecture/DataType.sol\":323:354  bool public b4 = false != false */\n  0x00\n  exp(0x0100, 0x04)\n  dup2\n  sload\n  dup2\n  0xff\n  mul\n  not\n  and\n  swap1\n  dup4\n  iszero\n  iszero\n  mul\n  or\n  swap1\n  sstore\n  pop\n    /* \"lecture/DataType.sol\":386:391  false */\n  0x00\n    /* \"lecture/DataType.sol\":386:399  false && true */\n  dup1\n  iszero\n  tag_2\n  jumpi\n  pop\n    /* \"lecture/DataType.sol\":395:399  true */\n  0x01\n    /* \"lecture/DataType.sol\":386:399  false && true */\ntag_2:\n    /* \"lecture/DataType.sol\":369:399  bool public b5 = false && true */\n  0x00\n  exp(0x0100, 0x05)\n  dup2\n  sload\n  dup2\n  0xff\n  mul\n  not\n  and\n  swap1\n  dup4\n  iszero\n  iszero\n  mul\n  or\n  swap1\n  sstore\n  pop\n    /* \"lecture/DataType.sol\":455:465  0x12345678 */\n  0x12345678\n    /* \"lecture/DataType.sol\":436:465  bytes4 public bt = 0x12345678 */\n  0xe0\n  shl\n  0x00\n  exp(0x0100, 0x06)\n  dup2\n  sload\n  dup2\n  0xffffffff\n  mul\n  not\n  and\n  swap1\n  dup4\n  0xe0\n  shr\n  mul\n  or\n  swap1\n  sstore\n  pop\n    /* \"lecture/DataType.sol\":471:498  bytes public bt2 = \"STRING\" */\n  mload(0x40)\n  dup1\n  0x40\n  add\n  0x40\n  mstore\n  dup1\n  0x06\n  dup2\n  mstore\n  0x20\n  add\n  0x535452494e470000000000000000000000000000000000000000000000000000\n  dup2\n  mstore\n  pop\n  0x01\n  swap1\n  dup2\n  tag_3\n  swap2\n  swap1\n  tag_4\n  jump\t// in\ntag_3:\n  pop\n    /* \"lecture/DataType.sol\":546:588  0xd9145CCE52D386f254917e481eB44e9943F39138 */\n  0xd9145cce52d386f254917e481eb44e9943f39138\n    /* \"lecture/DataType.sol\":524:588  address public addr = 0xd9145CCE52D386f254917e481eB44e9943F39138 */\n  0x02\n  exp(0x0100, 0x00)\n  dup2\n  sload\n  dup2\n  0xffffffffffffffffffffffffffffffffffffffff\n  mul\n  not\n  and\n  swap1\n  dup4\n  0xffffffffffffffffffffffffffffffffffffffff\n  and\n  mul\n  or\n  swap1\n  sstore\n  pop\n    /* \"lecture/DataType.sol\":703:705  -4 */\n  0xfffffffffffffffffffffffffffffffffffffffffffffffffffffffffffffffc\n    /* \"lecture/DataType.sol\":686:705  int8 public it = -4 */\n  0x02\n  exp(0x0100, 0x14)\n  dup2\n  sload\n  dup2\n  0xff\n  mul\n  not\n  and\n  swap1\n  dup4\n  0x00\n  signextend\n  0xff\n  and\n  mul\n  or\n  swap1\n  sstore\n  pop\n    /* \"lecture/DataType.sol\":754:757  123 */\n  0x7b\n    /* \"lecture/DataType.sol\":735:757  uint8 public it2 = 123 */\n  0x02\n  exp(0x0100, 0x15)\n  dup2\n  sload\n  dup2\n  0xff\n  mul\n  not\n  and\n  swap1\n  dup4\n  0xff\n  and\n  mul\n  or\n  swap1\n  sstore\n  pop\n    /* \"lecture/DataType.sol\":817:820  123 */\n  0x7b\n    /* \"lecture/DataType.sol\":796:820  uint256 public it3 = 123 */\n  0x03\n  sstore\n    /* \"lecture/DataType.sol\":100:823  contract lec2{... */\n  callvalue\n  dup1\n  iszero\n  tag_5\n  jumpi\n  0x00\n  dup1\n  revert\ntag_5:\n  pop\n  jump(tag_6)\n    /* \"#utility.yul\":7:106   */\ntag_7:\n    /* \"#utility.yul\":59:65   */\n  0x00\n    /* \"#utility.yul\":93:98   */\n  dup2\n    /* \"#utility.yul\":87:99   */\n  mload\n    /* \"#utility.yul\":77:99   */\n  swap1\n  pop\n    /* \"#utility.yul\":7:106   */\n  swap2\n  swap1\n  pop\n  jump\t// out\n    /* \"#utility.yul\":112:292   */\ntag_8:\n    /* \"#utility.yul\":160:237   */\n  0x4e487b7100000000000000000000000000000000000000000000000000000000\n    /* \"#utility.yul\":157:158   */\n  0x00\n    /* \"#utility.yul\":150:238   */\n  mstore\n    /* \"#utility.yul\":257:261   */\n  0x41\n    /* \"#utility.yul\":254:255   */\n  0x04\n    /* \"#utility.yul\":247:262   */\n  mstore\n    /* \"#utility.yul\":281:285   */\n  0x24\n    /* \"#utility.yul\":278:279   */\n  0x00\n    /* \"#utility.yul\":271:286   */\n  revert\n    /* \"#utility.yul\":298:478   */\ntag_9:\n    /* \"#utility.yul\":346:423   */\n  0x4e487b7100000000000000000000000000000000000000000000000000000000\n    /* \"#utility.yul\":343:344   */\n  0x00\n    /* \"#utility.yul\":336:424   */\n  mstore\n    /* \"#utility.yul\":443:447   */\n  0x22\n    /* \"#utility.yul\":440:441   */\n  0x04\n    /* \"#utility.yul\":433:448   */\n  mstore\n    /* \"#utility.yul\":467:471   */\n  0x24\n    /* \"#utility.yul\":464:465   */\n  0x00\n    /* \"#utility.yul\":457:472   */\n  revert\n    /* \"#utility.yul\":484:804   */\ntag_10:\n    /* \"#utility.yul\":528:534   */\n  0x00\n    /* \"#utility.yul\":565:566   */\n  0x02\n    /* \"#utility.yul\":559:563   */\n  dup3\n    /* \"#utility.yul\":555:567   */\n  div\n    /* \"#utility.yul\":545:567   */\n  swap1\n  pop\n    /* \"#utility.yul\":612:613   */\n  0x01\n    /* \"#utility.yul\":606:610   */\n  dup3\n    /* \"#utility.yul\":602:614   */\n  and\n    /* \"#utility.yul\":633:651   */\n  dup1\n    /* \"#utility.yul\":623:704   */\n  tag_32\n  jumpi\n    /* \"#utility.yul\":689:693   */\n  0x7f\n    /* \"#utility.yul\":681:687   */\n  dup3\n    /* \"#utility.yul\":677:694   */\n  and\n    /* \"#utility.yul\":667:694   */\n  swap2\n  pop\n    /* \"#utility.yul\":623:704   */\ntag_32:\n    /* \"#utility.yul\":751:753   */\n  0x20\n    /* \"#utility.yul\":743:749   */\n  dup3\n    /* \"#utility.yul\":740:754   */\n  lt\n    /* \"#utility.yul\":720:738   */\n  dup2\n    /* \"#utility.yul\":717:755   */\n  sub\n    /* \"#utility.yul\":714:798   */\n  tag_33\n  jumpi\n    /* \"#utility.yul\":770:788   */\n  tag_34\n  tag_9\n  jump\t// in\ntag_34:\n    /* \"#utility.yul\":714:798   */\ntag_33:\n    /* \"#utility.yul\":535:804   */\n  pop\n    /* \"#utility.yul\":484:804   */\n  swap2\n  swap1\n  pop\n  jump\t// out\n    /* \"#utility.yul\":810:950   */\ntag_11:\n    /* \"#utility.yul\":858:862   */\n  0x00\n    /* \"#utility.yul\":881:884   */\n  dup2\n    /* \"#utility.yul\":873:884   */\n  swap1\n  pop\n    /* \"#utility.yul\":904:907   */\n  dup2\n    /* \"#utility.yul\":901:902   */\n  0x00\n    /* \"#utility.yul\":894:908   */\n  mstore\n    /* \"#utility.yul\":938:942   */\n  0x20\n    /* \"#utility.yul\":935:936   */\n  0x00\n    /* \"#utility.yul\":925:943   */\n  keccak256\n    /* \"#utility.yul\":917:943   */\n  swap1\n  pop\n    /* \"#utility.yul\":810:950   */\n  swap2\n  swap1\n  pop\n  jump\t// out\n    /* \"#utility.yul\":956:1049   */\ntag_12:\n    /* \"#utility.yul\":993:999   */\n  0x00\n    /* \"#utility.yul\":1040:1042   */\n  0x20\n    /* \"#utility.yul\":1035:1037   */\n  0x1f\n    /* \"#utility.yul\":1028:1033   */\n  dup4\n    /* \"#utility.yul\":1024:1038   */\n  add\n    /* \"#utility.yul\":1020:1043   */\n  div\n    /* \"#utility.yul\":1010:1043   */\n  swap1\n  pop\n    /* \"#utility.yul\":956:1049   */\n  swap2\n  swap1\n  pop\n  jump\t// out\n    /* \"#utility.yul\":1055:1162   */\ntag_13:\n    /* \"#utility.yul\":1099:1107   */\n  0x00\n    /* \"#utility.yul\":1149:1154   */\n  dup3\n    /* \"#utility.yul\":1143:1147   */\n  dup3\n    /* \"#utility.yul\":1139:1155   */\n  shl\n    /* \"#utility.yul\":1118:1155   */\n  swap1\n  pop\n    /* \"#utility.yul\":1055:1162   */\n  swap3\n  swap2\n  pop\n  pop\n  jump\t// out\n    /* \"#utility.yul\":1168:1561   */\ntag_14:\n    /* \"#utility.yul\":1237:1243   */\n  0x00\n    /* \"#utility.yul\":1287:1288   */\n  0x08\n    /* \"#utility.yul\":1275:1285   */\n  dup4\n    /* \"#utility.yul\":1271:1289   */\n  mul\n    /* \"#utility.yul\":1310:1407   */\n  tag_39\n    /* \"#utility.yul\":1340:1406   */\n  0xffffffffffffffffffffffffffffffffffffffffffffffffffffffffffffffff\n    /* \"#utility.yul\":1329:1338   */\n  dup3\n    /* \"#utility.yul\":1310:1407   */\n  tag_13\n  jump\t// in\ntag_39:\n    /* \"#utility.yul\":1428:1467   */\n  tag_40\n    /* \"#utility.yul\":1458:1466   */\n  dup7\n    /* \"#utility.yul\":1447:1456   */\n  dup4\n    /* \"#utility.yul\":1428:1467   */\n  tag_13\n  jump\t// in\ntag_40:\n    /* \"#utility.yul\":1416:1467   */\n  swap6\n  pop\n    /* \"#utility.yul\":1500:1504   */\n  dup1\n    /* \"#utility.yul\":1496:1505   */\n  not\n    /* \"#utility.yul\":1489:1494   */\n  dup5\n    /* \"#utility.yul\":1485:1506   */\n  and\n    /* \"#utility.yul\":1476:1506   */\n  swap4\n  pop\n    /* \"#utility.yul\":1549:1553   */\n  dup1\n    /* \"#utility.yul\":1539:1547   */\n  dup7\n    /* \"#utility.yul\":1535:1554   */\n  and\n    /* \"#utility.yul\":1528:1533   */\n  dup5\n    /* \"#utility.yul\":1525:1555   */\n  or\n    /* \"#utility.yul\":1515:1555   */\n  swap3\n  pop\n    /* \"#utility.yul\":1244:1561   */\n  pop\n  pop\n    /* \"#utility.yul\":1168:1561   */\n  swap4\n  swap3\n  pop\n  pop\n  pop\n  jump\t// out\n    /* \"#utility.yul\":1567:1644   */\ntag_15:\n    /* \"#utility.yul\":1604:1611   */\n  0x00\n    /* \"#utility.yul\":1633:1638   */\n  dup2\n    /* \"#utility.yul\":1622:1638   */\n  swap1\n  pop\n    /* \"#utility.yul\":1567:1644   */\n  swap2\n  swap1\n  pop\n  jump\t// out\n    /* \"#utility.yul\":1650:1710   */\ntag_16:\n    /* \"#utility.yul\":1678:1681   */\n  0x00\n    /* \"#utility.yul\":1699:1704   */\n  dup2\n    /* \"#utility.yul\":1692:1704   */\n  swap1\n  pop\n    /* \"#utility.yul\":1650:1710   */\n  swap2\n  swap1\n  pop\n  jump\t// out\n    /* \"#utility.yul\":1716:1858   */\ntag_17:\n    /* \"#utility.yul\":1766:1775   */\n  0x00\n    /* \"#utility.yul\":1799:1852   */\n  tag_44\n    /* \"#utility.yul\":1817:1851   */\n  tag_45\n    /* \"#utility.yul\":1826:1850   */\n  tag_46\n    /* \"#utility.yul\":1844:1849   */\n  dup5\n    /* \"#utility.yul\":1826:1850   */\n  tag_15\n  jump\t// in\ntag_46:\n    /* \"#utility.yul\":1817:1851   */\n  tag_16\n  jump\t// in\ntag_45:\n    /* \"#utility.yul\":1799:1852   */\n  tag_15\n  jump\t// in\ntag_44:\n    /* \"#utility.yul\":1786:1852   */\n  swap1\n  pop\n    /* \"#utility.yul\":1716:1858   */\n  swap2\n  swap1\n  pop\n  jump\t// out\n    /* \"#utility.yul\":1864:1939   */\ntag_18:\n    /* \"#utility.yul\":1907:1910   */\n  0x00\n    /* \"#utility.yul\":1928:1933   */\n  dup2\n    /* \"#utility.yul\":1921:1933   */\n  swap1\n  pop\n    /* \"#utility.yul\":1864:1939   */\n  swap2\n  swap1\n  pop\n  jump\t// out\n    /* \"#utility.yul\":1945:2214   */\ntag_19:\n    /* \"#utility.yul\":2055:2094   */\n  tag_49\n    /* \"#utility.yul\":2086:2093   */\n  dup4\n    /* \"#utility.yul\":2055:2094   */\n  tag_17\n  jump\t// in\ntag_49:\n    /* \"#utility.yul\":2116:2207   */\n  tag_50\n    /* \"#utility.yul\":2165:2206   */\n  tag_51\n    /* \"#utility.yul\":2189:2205   */\n  dup3\n    /* \"#utility.yul\":2165:2206   */\n  tag_18\n  jump\t// in\ntag_51:\n    /* \"#utility.yul\":2157:2163   */\n  dup5\n    /* \"#utility.yul\":2150:2154   */\n  dup5\n    /* \"#utility.yul\":2144:2155   */\n  sload\n    /* \"#utility.yul\":2116:2207   */\n  tag_14\n  jump\t// in\ntag_50:\n    /* \"#utility.yul\":2110:2114   */\n  dup3\n    /* \"#utility.yul\":2103:2208   */\n  sstore\n    /* \"#utility.yul\":2021:2214   */\n  pop\n    /* \"#utility.yul\":1945:2214   */\n  pop\n  pop\n  pop\n  jump\t// out\n    /* \"#utility.yul\":2220:2293   */\ntag_20:\n    /* \"#utility.yul\":2265:2268   */\n  0x00\n    /* \"#utility.yul\":2220:2293   */\n  swap1\n  jump\t// out\n    /* \"#utility.yul\":2299:2488   */\ntag_21:\n    /* \"#utility.yul\":2376:2408   */\n  tag_54\n  tag_20\n  jump\t// in\ntag_54:\n    /* \"#utility.yul\":2417:2482   */\n  tag_55\n    /* \"#utility.yul\":2475:2481   */\n  dup2\n    /* \"#utility.yul\":2467:2473   */\n  dup5\n    /* \"#utility.yul\":2461:2465   */\n  dup5\n    /* \"#utility.yul\":2417:2482   */\n  tag_19\n  jump\t// in\ntag_55:\n    /* \"#utility.yul\":2352:2488   */\n  pop\n    /* \"#utility.yul\":2299:2488   */\n  pop\n  pop\n  jump\t// out\n    /* \"#utility.yul\":2494:2680   */\ntag_22:\n    /* \"#utility.yul\":2554:2674   */\ntag_57:\n    /* \"#utility.yul\":2571:2574   */\n  dup2\n    /* \"#utility.yul\":2564:2569   */\n  dup2\n    /* \"#utility.yul\":2561:2575   */\n  lt\n    /* \"#utility.yul\":2554:2674   */\n  iszero\n  tag_59\n  jumpi\n    /* \"#utility.yul\":2625:2664   */\n  tag_60\n    /* \"#utility.yul\":2662:2663   */\n  0x00\n    /* \"#utility.yul\":2655:2660   */\n  dup3\n    /* \"#utility.yul\":2625:2664   */\n  tag_21\n  jump\t// in\ntag_60:\n    /* \"#utility.yul\":2598:2599   */\n  0x01\n    /* \"#utility.yul\":2591:2596   */\n  dup2\n    /* \"#utility.yul\":2587:2600   */\n  add\n    /* \"#utility.yul\":2578:2600   */\n  swap1\n  pop\n    /* \"#utility.yul\":2554:2674   */\n  jump(tag_57)\ntag_59:\n    /* \"#utility.yul\":2494:2680   */\n  pop\n  pop\n  jump\t// out\n    /* \"#utility.yul\":2686:3227   */\ntag_23:\n    /* \"#utility.yul\":2786:2788   */\n  0x1f\n    /* \"#utility.yul\":2781:2784   */\n  dup3\n    /* \"#utility.yul\":2778:2789   */\n  gt\n    /* \"#utility.yul\":2775:3220   */\n  iszero\n  tag_62\n  jumpi\n    /* \"#utility.yul\":2820:2857   */\n  tag_63\n    /* \"#utility.yul\":2851:2856   */\n  dup2\n    /* \"#utility.yul\":2820:2857   */\n  tag_11\n  jump\t// in\ntag_63:\n    /* \"#utility.yul\":2903:2932   */\n  tag_64\n    /* \"#utility.yul\":2921:2931   */\n  dup5\n    /* \"#utility.yul\":2903:2932   */\n  tag_12\n  jump\t// in\ntag_64:\n    /* \"#utility.yul\":2893:2901   */\n  dup2\n    /* \"#utility.yul\":2889:2933   */\n  add\n    /* \"#utility.yul\":3086:3088   */\n  0x20\n    /* \"#utility.yul\":3074:3084   */\n  dup6\n    /* \"#utility.yul\":3071:3089   */\n  lt\n    /* \"#utility.yul\":3068:3117   */\n  iszero\n  tag_65\n  jumpi\n    /* \"#utility.yul\":3107:3115   */\n  dup2\n    /* \"#utility.yul\":3092:3115   */\n  swap1\n  pop\n    /* \"#utility.yul\":3068:3117   */\ntag_65:\n    /* \"#utility.yul\":3130:3210   */\n  tag_66\n    /* \"#utility.yul\":3186:3208   */\n  tag_67\n    /* \"#utility.yul\":3204:3207   */\n  dup6\n    /* \"#utility.yul\":3186:3208   */\n  tag_12\n  jump\t// in\ntag_67:\n    /* \"#utility.yul\":3176:3184   */\n  dup4\n    /* \"#utility.yul\":3172:3209   */\n  add\n    /* \"#utility.yul\":3159:3170   */\n  dup3\n    /* \"#utility.yul\":3130:3210   */\n  tag_22\n  jump\t// in\ntag_66:\n    /* \"#utility.yul\":2790:3220   */\n  pop\n  pop\n    /* \"#utility.yul\":2775:3220   */\ntag_62:\n    /* \"#utility.yul\":2686:3227   */\n  pop\n  pop\n  pop\n  jump\t// out\n    /* \"#utility.yul\":3233:3350   */\ntag_24:\n    /* \"#utility.yul\":3287:3295   */\n  0x00\n    /* \"#utility.yul\":3337:3342   */\n  dup3\n    /* \"#utility.yul\":3331:3335   */\n  dup3\n    /* \"#utility.yul\":3327:3343   */\n  shr\n    /* \"#utility.yul\":3306:3343   */\n  swap1\n  pop\n    /* \"#utility.yul\":3233:3350   */\n  swap3\n  swap2\n  pop\n  pop\n  jump\t// out\n    /* \"#utility.yul\":3356:3525   */\ntag_25:\n    /* \"#utility.yul\":3400:3406   */\n  0x00\n    /* \"#utility.yul\":3433:3484   */\n  tag_70\n    /* \"#utility.yul\":3481:3482   */\n  0x00\n    /* \"#utility.yul\":3477:3483   */\n  not\n    /* \"#utility.yul\":3469:3474   */\n  dup5\n    /* \"#utility.yul\":3466:3467   */\n  0x08\n    /* \"#utility.yul\":3462:3475   */\n  mul\n    /* \"#utility.yul\":3433:3484   */\n  tag_24\n  jump\t// in\ntag_70:\n    /* \"#utility.yul\":3429:3485   */\n  not\n    /* \"#utility.yul\":3514:3518   */\n  dup1\n    /* \"#utility.yul\":3508:3512   */\n  dup4\n    /* \"#utility.yul\":3504:3519   */\n  and\n    /* \"#utility.yul\":3494:3519   */\n  swap2\n  pop\n    /* \"#utility.yul\":3407:3525   */\n  pop\n    /* \"#utility.yul\":3356:3525   */\n  swap3\n  swap2\n  pop\n  pop\n  jump\t// out\n    /* \"#utility.yul\":3530:3825   */\ntag_26:\n    /* \"#utility.yul\":3606:3610   */\n  0x00\n    /* \"#utility.yul\":3752:3781   */\n  tag_72\n    /* \"#utility.yul\":3777:3780   */\n  dup4\n    /* \"#utility.yul\":3771:3775   */\n  dup4\n    /* \"#utility.yul\":3752:3781   */\n  tag_25\n  jump\t// in\ntag_72:\n    /* \"#utility.yul\":3744:3781   */\n  swap2\n  pop\n    /* \"#utility.yul\":3814:3817   */\n  dup3\n    /* \"#utility.yul\":3811:3812   */\n  0x02\n    /* \"#utility.yul\":3807:3818   */\n  mul\n    /* \"#utility.yul\":3801:3805   */\n  dup3\n    /* \"#utility.yul\":3798:3819   */\n  or\n    /* \"#utility.yul\":3790:3819   */\n  swap1\n  pop\n    /* \"#utility.yul\":3530:3825   */\n  swap3\n  swap2\n  pop\n  pop\n  jump\t// out\n    /* \"#utility.yul\":3830:5222   */\ntag_4:\n    /* \"#utility.yul\":3946:3983   */\n  tag_74\n    /* \"#utility.yul\":3979:3982   */\n  dup3\n    /* \"#utility.yul\":3946:3983   */\n  tag_7\n  jump\t// in\ntag_74:\n    /* \"#utility.yul\":4048:4066   */\n  0xffffffffffffffff\n    /* \"#utility.yul\":4040:4046   */\n  dup2\n    /* \"#utility.yul\":4037:4067   */\n  gt\n    /* \"#utility.yul\":4034:4090   */\n  iszero\n  tag_75\n  jumpi\n    /* \"#utility.yul\":4070:4088   */\n  tag_76\n  tag_8\n  jump\t// in\ntag_76:\n    /* \"#utility.yul\":4034:4090   */\ntag_75:\n    /* \"#utility.yul\":4114:4152   */\n  tag_77\n    /* \"#utility.yul\":4146:4150   */\n  dup3\n    /* \"#utility.yul\":4140:4151   */\n  sload\n    /* \"#utility.yul\":4114:4152   */\n  tag_10\n  jump\t// in\ntag_77:\n    /* \"#utility.yul\":4199:4265   */\n  tag_78\n    /* \"#utility.yul\":4258:4264   */\n  dup3\n    /* \"#utility.yul\":4250:4256   */\n  dup3\n    /* \"#utility.yul\":4244:4248   */\n  dup6\n    /* \"#utility.yul\":4199:4265   */\n  tag_23\n  jump\t// in\ntag_78:\n    /* \"#utility.yul\":4292:4293   */\n  0x00\n    /* \"#utility.yul\":4316:4320   */\n  0x20\n    /* \"#utility.yul\":4303:4320   */\n  swap1\n  pop\n    /* \"#utility.yul\":4348:4350   */\n  0x1f\n    /* \"#utility.yul\":4340:4346   */\n  dup4\n    /* \"#utility.yul\":4337:4351   */\n  gt\n    /* \"#utility.yul\":4365:4366   */\n  0x01\n    /* \"#utility.yul\":4360:4977   */\n  dup2\n  eq\n  tag_80\n  jumpi\n    /* \"#utility.yul\":5021:5022   */\n  0x00\n    /* \"#utility.yul\":5038:5044   */\n  dup5\n    /* \"#utility.yul\":5035:5112   */\n  iszero\n  tag_81\n  jumpi\n    /* \"#utility.yul\":5087:5096   */\n  dup3\n    /* \"#utility.yul\":5082:5085   */\n  dup8\n    /* \"#utility.yul\":5078:5097   */\n  add\n    /* \"#utility.yul\":5072:5098   */\n  mload\n    /* \"#utility.yul\":5063:5098   */\n  swap1\n  pop\n    /* \"#utility.yul\":5035:5112   */\ntag_81:\n    /* \"#utility.yul\":5138:5205   */\n  tag_82\n    /* \"#utility.yul\":5198:5204   */\n  dup6\n    /* \"#utility.yul\":5191:5196   */\n  dup3\n    /* \"#utility.yul\":5138:5205   */\n  tag_26\n  jump\t// in\ntag_82:\n    /* \"#utility.yul\":5132:5136   */\n  dup7\n    /* \"#utility.yul\":5125:5206   */\n  sstore\n    /* \"#utility.yul\":4994:5216   */\n  pop\n    /* \"#utility.yul\":4330:5216   */\n  jump(tag_79)\n    /* \"#utility.yul\":4360:4977   */\ntag_80:\n    /* \"#utility.yul\":4412:4416   */\n  0x1f\n    /* \"#utility.yul\":4408:4417   */\n  not\n    /* \"#utility.yul\":4400:4406   */\n  dup5\n    /* \"#utility.yul\":4396:4418   */\n  and\n    /* \"#utility.yul\":4446:4482   */\n  tag_83\n    /* \"#utility.yul\":4477:4481   */\n  dup7\n    /* \"#utility.yul\":4446:4482   */\n  tag_11\n  jump\t// in\ntag_83:\n    /* \"#utility.yul\":4504:4505   */\n  0x00\n    /* \"#utility.yul\":4518:4726   */\ntag_84:\n    /* \"#utility.yul\":4532:4539   */\n  dup3\n    /* \"#utility.yul\":4529:4530   */\n  dup2\n    /* \"#utility.yul\":4526:4540   */\n  lt\n    /* \"#utility.yul\":4518:4726   */\n  iszero\n  tag_86\n  jumpi\n    /* \"#utility.yul\":4611:4620   */\n  dup5\n    /* \"#utility.yul\":4606:4609   */\n  dup10\n    /* \"#utility.yul\":4602:4621   */\n  add\n    /* \"#utility.yul\":4596:4622   */\n  mload\n    /* \"#utility.yul\":4588:4594   */\n  dup3\n    /* \"#utility.yul\":4581:4623   */\n  sstore\n    /* \"#utility.yul\":4662:4663   */\n  0x01\n    /* \"#utility.yul\":4654:4660   */\n  dup3\n    /* \"#utility.yul\":4650:4664   */\n  add\n    /* \"#utility.yul\":4640:4664   */\n  swap2\n  pop\n    /* \"#utility.yul\":4709:4711   */\n  0x20\n    /* \"#utility.yul\":4698:4707   */\n  dup6\n    /* \"#utility.yul\":4694:4712   */\n  add\n    /* \"#utility.yul\":4681:4712   */\n  swap5\n  pop\n    /* \"#utility.yul\":4555:4559   */\n  0x20\n    /* \"#utility.yul\":4552:4553   */\n  dup2\n    /* \"#utility.yul\":4548:4560   */\n  add\n    /* \"#utility.yul\":4543:4560   */\n  swap1\n  pop\n    /* \"#utility.yul\":4518:4726   */\n  jump(tag_84)\ntag_86:\n    /* \"#utility.yul\":4754:4760   */\n  dup7\n    /* \"#utility.yul\":4745:4752   */\n  dup4\n    /* \"#utility.yul\":4742:4761   */\n  lt\n    /* \"#utility.yul\":4739:4918   */\n  iszero\n  tag_87\n  jumpi\n    /* \"#utility.yul\":4812:4821   */\n  dup5\n    /* \"#utility.yul\":4807:4810   */\n  dup10\n    /* \"#utility.yul\":4803:4822   */\n  add\n    /* \"#utility.yul\":4797:4823   */\n  mload\n    /* \"#utility.yul\":4855:4903   */\n  tag_88\n    /* \"#utility.yul\":4897:4901   */\n  0x1f\n    /* \"#utility.yul\":4889:4895   */\n  dup10\n    /* \"#utility.yul\":4885:4902   */\n  and\n    /* \"#utility.yul\":4874:4883   */\n  dup3\n    /* \"#utility.yul\":4855:4903   */\n  tag_25\n  jump\t// in\ntag_88:\n    /* \"#utility.yul\":4847:4853   */\n  dup4\n    /* \"#utility.yul\":4840:4904   */\n  sstore\n    /* \"#utility.yul\":4762:4918   */\n  pop\n    /* \"#utility.yul\":4739:4918   */\ntag_87:\n    /* \"#utility.yul\":4964:4965   */\n  0x01\n    /* \"#utility.yul\":4960:4961   */\n  0x02\n    /* \"#utility.yul\":4952:4958   */\n  dup9\n    /* \"#utility.yul\":4948:4962   */\n  mul\n    /* \"#utility.yul\":4944:4966   */\n  add\n    /* \"#utility.yul\":4938:4942   */\n  dup9\n    /* \"#utility.yul\":4931:4967   */\n  sstore\n    /* \"#utility.yul\":4367:4977   */\n  pop\n  pop\n  pop\n    /* \"#utility.yul\":4330:5216   */\ntag_79:\n  pop\n    /* \"#utility.yul\":3921:5222   */\n  pop\n  pop\n  pop\n    /* \"#utility.yul\":3830:5222   */\n  pop\n  pop\n  jump\t// out\n    /* \"lecture/DataType.sol\":100:823  contract lec2{... */\ntag_6:\n  dataSize(sub_0)\n  dup1\n  dataOffset(sub_0)\n  0x00\n  codecopy\n  0x00\n  return\nstop\n\nsub_0: assembly {\n        /* \"lecture/DataType.sol\":100:823  contract lec2{... */\n      mstore(0x40, 0x80)\n      callvalue\n      dup1\n      iszero\n      tag_1\n      jumpi\n      0x00\n      dup1\n      revert\n    tag_1:\n      pop\n      jumpi(tag_2, lt(calldatasize, 0x04))\n      shr(0xe0, calldataload(0x00))\n      dup1\n      0x5ce692f2\n      gt\n      tag_15\n      jumpi\n      dup1\n      0x5ce692f2\n      eq\n      tag_9\n      jumpi\n      dup1\n      0x767800de\n      eq\n      tag_10\n      jumpi\n      dup1\n      0xac9c1959\n      eq\n      tag_11\n      jumpi\n      dup1\n      0xcb2182c5\n      eq\n      tag_12\n      jumpi\n      dup1\n      0xe9b61909\n      eq\n      tag_13\n      jumpi\n      dup1\n      0xee495002\n      eq\n      tag_14\n      jumpi\n      jump(tag_2)\n    tag_15:\n      dup1\n      0x03806605\n      eq\n      tag_3\n      jumpi\n      dup1\n      0x0add6ef2\n      eq\n      tag_4\n      jumpi\n      dup1\n      0x2c622fae\n      eq\n      tag_5\n      jumpi\n      dup1\n      0x3db3fb0a\n      eq\n      tag_6\n      jumpi\n      dup1\n      0x4df7e3d0\n      eq\n      tag_7\n      jumpi\n      dup1\n      0x5ab9e50e\n      eq\n      tag_8\n      jumpi\n    tag_2:\n      0x00\n      dup1\n      revert\n        /* \"lecture/DataType.sol\":796:820  uint256 public it3 = 123 */\n    tag_3:\n      tag_16\n      tag_17\n      jump\t// in\n    tag_16:\n      mload(0x40)\n      tag_18\n      swap2\n      swap1\n      tag_19\n      jump\t// in\n    tag_18:\n      mload(0x40)\n      dup1\n      swap2\n      sub\n      swap1\n      return\n        /* \"lecture/DataType.sol\":235:265  bool public b2 = false || true */\n    tag_4:\n      tag_20\n      tag_21\n      jump\t// in\n    tag_20:\n      mload(0x40)\n      tag_22\n      swap2\n      swap1\n      tag_23\n      jump\t// in\n    tag_22:\n      mload(0x40)\n      dup1\n      swap2\n      sub\n      swap1\n      return\n        /* \"lecture/DataType.sol\":471:498  bytes public bt2 = \"STRING\" */\n    tag_5:\n      tag_24\n      tag_25\n      jump\t// in\n    tag_24:\n      mload(0x40)\n      tag_26\n      swap2\n      swap1\n      tag_27\n      jump\t// in\n    tag_26:\n      mload(0x40)\n      dup1\n      swap2\n      sub\n      swap1\n      return\n        /* \"lecture/DataType.sol\":323:354  bool public b4 = false != false */\n    tag_6:\n      tag_28\n      tag_29\n      jump\t// in\n    tag_28:\n      mload(0x40)\n      tag_30\n      swap2\n      swap1\n      tag_23\n      jump\t// in\n    tag_30:\n      mload(0x40)\n      dup1\n      swap2\n      sub\n      swap1\n      return\n        /* \"lecture/DataType.sol\":146:167  bool public b = false */\n    tag_7:\n      tag_31\n      tag_32\n      jump\t// in\n    tag_31:\n      mload(0x40)\n      tag_33\n      swap2\n      swap1\n      tag_23\n      jump\t// in\n    tag_33:\n      mload(0x40)\n      dup1\n      swap2\n      sub\n      swap1\n      return\n        /* \"lecture/DataType.sol\":735:757  uint8 public it2 = 123 */\n    tag_8:\n      tag_34\n      tag_35\n      jump\t// in\n    tag_34:\n      mload(0x40)\n      tag_36\n      swap2\n      swap1\n      tag_37\n      jump\t// in\n    tag_36:\n      mload(0x40)\n      dup1\n      swap2\n      sub\n      swap1\n      return\n        /* \"lecture/DataType.sol\":686:705  int8 public it = -4 */\n    tag_9:\n      tag_38\n      tag_39\n      jump\t// in\n    tag_38:\n      mload(0x40)\n      tag_40\n      swap2\n      swap1\n      tag_41\n      jump\t// in\n    tag_40:\n      mload(0x40)\n      dup1\n      swap2\n      sub\n      swap1\n      return\n        /* \"lecture/DataType.sol\":524:588  address public addr = 0xd9145CCE52D386f254917e481eB44e9943F39138 */\n    tag_10:\n      tag_42\n      tag_43\n      jump\t// in\n    tag_42:\n      mload(0x40)\n      tag_44\n      swap2\n      swap1\n      tag_45\n      jump\t// in\n    tag_44:\n      mload(0x40)\n      dup1\n      swap2\n      sub\n      swap1\n      return\n        /* \"lecture/DataType.sol\":436:465  bytes4 public bt = 0x12345678 */\n    tag_11:\n      tag_46\n      tag_47\n      jump\t// in\n    tag_46:\n      mload(0x40)\n      tag_48\n      swap2\n      swap1\n      tag_49\n      jump\t// in\n    tag_48:\n      mload(0x40)\n      dup1\n      swap2\n      sub\n      swap1\n      return\n        /* \"lecture/DataType.sol\":369:399  bool public b5 = false && true */\n    tag_12:\n      tag_50\n      tag_51\n      jump\t// in\n    tag_50:\n      mload(0x40)\n      tag_52\n      swap2\n      swap1\n      tag_23\n      jump\t// in\n    tag_52:\n      mload(0x40)\n      dup1\n      swap2\n      sub\n      swap1\n      return\n        /* \"lecture/DataType.sol\":279:309  bool public b3 = false == true */\n    tag_13:\n      tag_53\n      tag_54\n      jump\t// in\n    tag_53:\n      mload(0x40)\n      tag_55\n      swap2\n      swap1\n      tag_23\n      jump\t// in\n    tag_55:\n      mload(0x40)\n      dup1\n      swap2\n      sub\n      swap1\n      return\n        /* \"lecture/DataType.sol\":199:222  bool public b1 = !false */\n    tag_14:\n      tag_56\n      tag_57\n      jump\t// in\n    tag_56:\n      mload(0x40)\n      tag_58\n      swap2\n      swap1\n      tag_23\n      jump\t// in\n    tag_58:\n      mload(0x40)\n      dup1\n      swap2\n      sub\n      swap1\n      return\n        /* \"lecture/DataType.sol\":796:820  uint256 public it3 = 123 */\n    tag_17:\n      sload(0x03)\n      dup2\n      jump\t// out\n        /* \"lecture/DataType.sol\":235:265  bool public b2 = false || true */\n    tag_21:\n      0x00\n      0x02\n      swap1\n      sload\n      swap1\n      0x0100\n      exp\n      swap1\n      div\n      0xff\n      and\n      dup2\n      jump\t// out\n        /* \"lecture/DataType.sol\":471:498  bytes public bt2 = \"STRING\" */\n    tag_25:\n      0x01\n      dup1\n      sload\n      tag_59\n      swap1\n      tag_60\n      jump\t// in\n    tag_59:\n      dup1\n      0x1f\n      add\n      0x20\n      dup1\n      swap2\n      div\n      mul\n      0x20\n      add\n      mload(0x40)\n      swap1\n      dup2\n      add\n      0x40\n      mstore\n      dup1\n      swap3\n      swap2\n      swap1\n      dup2\n      dup2\n      mstore\n      0x20\n      add\n      dup3\n      dup1\n      sload\n      tag_61\n      swap1\n      tag_60\n      jump\t// in\n    tag_61:\n      dup1\n      iszero\n      tag_62\n      jumpi\n      dup1\n      0x1f\n      lt\n      tag_63\n      jumpi\n      0x0100\n      dup1\n      dup4\n      sload\n      div\n      mul\n      dup4\n      mstore\n      swap2\n      0x20\n      add\n      swap2\n      jump(tag_62)\n    tag_63:\n      dup3\n      add\n      swap2\n      swap1\n      0x00\n      mstore\n      keccak256(0x00, 0x20)\n      swap1\n    tag_64:\n      dup2\n      sload\n      dup2\n      mstore\n      swap1\n      0x01\n      add\n      swap1\n      0x20\n      add\n      dup1\n      dup4\n      gt\n      tag_64\n      jumpi\n      dup3\n      swap1\n      sub\n      0x1f\n      and\n      dup3\n      add\n      swap2\n    tag_62:\n      pop\n      pop\n      pop\n      pop\n      pop\n      dup2\n      jump\t// out\n        /* \"lecture/DataType.sol\":323:354  bool public b4 = false != false */\n    tag_29:\n      0x00\n      0x04\n      swap1\n      sload\n      swap1\n      0x0100\n      exp\n      swap1\n      div\n      0xff\n      and\n      dup2\n      jump\t// out\n        /* \"lecture/DataType.sol\":146:167  bool public b = false */\n    tag_32:\n      0x00\n      dup1\n      sload\n      swap1\n      0x0100\n      exp\n      swap1\n      div\n      0xff\n      and\n      dup2\n      jump\t// out\n        /* \"lecture/DataType.sol\":735:757  uint8 public it2 = 123 */\n    tag_35:\n      0x02\n      0x15\n      swap1\n      sload\n      swap1\n      0x0100\n      exp\n      swap1\n      div\n      0xff\n      and\n      dup2\n      jump\t// out\n        /* \"lecture/DataType.sol\":686:705  int8 public it = -4 */\n    tag_39:\n      0x02\n      0x14\n      swap1\n      sload\n      swap1\n      0x0100\n      exp\n      swap1\n      div\n      0x00\n      signextend\n      dup2\n      jump\t// out\n        /* \"lecture/DataType.sol\":524:588  address public addr = 0xd9145CCE52D386f254917e481eB44e9943F39138 */\n    tag_43:\n      0x02\n      0x00\n      swap1\n      sload\n      swap1\n      0x0100\n      exp\n      swap1\n      div\n      0xffffffffffffffffffffffffffffffffffffffff\n      and\n      dup2\n      jump\t// out\n        /* \"lecture/DataType.sol\":436:465  bytes4 public bt = 0x12345678 */\n    tag_47:\n      0x00\n      0x06\n      swap1\n      sload\n      swap1\n      0x0100\n      exp\n      swap1\n      div\n      0xe0\n      shl\n      dup2\n      jump\t// out\n        /* \"lecture/DataType.sol\":369:399  bool public b5 = false && true */\n    tag_51:\n      0x00\n      0x05\n      swap1\n      sload\n      swap1\n      0x0100\n      exp\n      swap1\n      div\n      0xff\n      and\n      dup2\n      jump\t// out\n        /* \"lecture/DataType.sol\":279:309  bool public b3 = false == true */\n    tag_54:\n      0x00\n      0x03\n      swap1\n      sload\n      swap1\n      0x0100\n      exp\n      swap1\n      div\n      0xff\n      and\n      dup2\n      jump\t// out\n        /* \"lecture/DataType.sol\":199:222  bool public b1 = !false */\n    tag_57:\n      0x00\n      0x01\n      swap1\n      sload\n      swap1\n      0x0100\n      exp\n      swap1\n      div\n      0xff\n      and\n      dup2\n      jump\t// out\n        /* \"#utility.yul\":7:84   */\n    tag_65:\n        /* \"#utility.yul\":44:51   */\n      0x00\n        /* \"#utility.yul\":73:78   */\n      dup2\n        /* \"#utility.yul\":62:78   */\n      swap1\n      pop\n        /* \"#utility.yul\":7:84   */\n      swap2\n      swap1\n      pop\n      jump\t// out\n        /* \"#utility.yul\":90:208   */\n    tag_66:\n        /* \"#utility.yul\":177:201   */\n      tag_87\n        /* \"#utility.yul\":195:200   */\n      dup2\n        /* \"#utility.yul\":177:201   */\n      tag_65\n      jump\t// in\n    tag_87:\n        /* \"#utility.yul\":172:175   */\n      dup3\n        /* \"#utility.yul\":165:202   */\n      mstore\n        /* \"#utility.yul\":90:208   */\n      pop\n      pop\n      jump\t// out\n        /* \"#utility.yul\":214:436   */\n    tag_19:\n        /* \"#utility.yul\":307:311   */\n      0x00\n        /* \"#utility.yul\":345:347   */\n      0x20\n        /* \"#utility.yul\":334:343   */\n      dup3\n        /* \"#utility.yul\":330:348   */\n      add\n        /* \"#utility.yul\":322:348   */\n      swap1\n      pop\n        /* \"#utility.yul\":358:429   */\n      tag_89\n        /* \"#utility.yul\":426:427   */\n      0x00\n        /* \"#utility.yul\":415:424   */\n      dup4\n        /* \"#utility.yul\":411:428   */\n      add\n        /* \"#utility.yul\":402:408   */\n      dup5\n        /* \"#utility.yul\":358:429   */\n      tag_66\n      jump\t// in\n    tag_89:\n        /* \"#utility.yul\":214:436   */\n      swap3\n      swap2\n      pop\n      pop\n      jump\t// out\n        /* \"#utility.yul\":442:532   */\n    tag_67:\n        /* \"#utility.yul\":476:483   */\n      0x00\n        /* \"#utility.yul\":519:524   */\n      dup2\n        /* \"#utility.yul\":512:525   */\n      iszero\n        /* \"#utility.yul\":505:526   */\n      iszero\n        /* \"#utility.yul\":494:526   */\n      swap1\n      pop\n        /* \"#utility.yul\":442:532   */\n      swap2\n      swap1\n      pop\n      jump\t// out\n        /* \"#utility.yul\":538:647   */\n    tag_68:\n        /* \"#utility.yul\":619:640   */\n      tag_92\n        /* \"#utility.yul\":634:639   */\n      dup2\n        /* \"#utility.yul\":619:640   */\n      tag_67\n      jump\t// in\n    tag_92:\n        /* \"#utility.yul\":614:617   */\n      dup3\n        /* \"#utility.yul\":607:641   */\n      mstore\n        /* \"#utility.yul\":538:647   */\n      pop\n      pop\n      jump\t// out\n        /* \"#utility.yul\":653:863   */\n    tag_23:\n        /* \"#utility.yul\":740:744   */\n      0x00\n        /* \"#utility.yul\":778:780   */\n      0x20\n        /* \"#utility.yul\":767:776   */\n      dup3\n        /* \"#utility.yul\":763:781   */\n      add\n        /* \"#utility.yul\":755:781   */\n      swap1\n      pop\n        /* \"#utility.yul\":791:856   */\n      tag_94\n        /* \"#utility.yul\":853:854   */\n      0x00\n        /* \"#utility.yul\":842:851   */\n      dup4\n        /* \"#utility.yul\":838:855   */\n      add\n        /* \"#utility.yul\":829:835   */\n      dup5\n        /* \"#utility.yul\":791:856   */\n      tag_68\n      jump\t// in\n    tag_94:\n        /* \"#utility.yul\":653:863   */\n      swap3\n      swap2\n      pop\n      pop\n      jump\t// out\n        /* \"#utility.yul\":869:967   */\n    tag_69:\n        /* \"#utility.yul\":920:926   */\n      0x00\n        /* \"#utility.yul\":954:959   */\n      dup2\n        /* \"#utility.yul\":948:960   */\n      mload\n        /* \"#utility.yul\":938:960   */\n      swap1\n      pop\n        /* \"#utility.yul\":869:967   */\n      swap2\n      swap1\n      pop\n      jump\t// out\n        /* \"#utility.yul\":973:1141   */\n    tag_70:\n        /* \"#utility.yul\":1056:1067   */\n      0x00\n        /* \"#utility.yul\":1090:1096   */\n      dup3\n        /* \"#utility.yul\":1085:1088   */\n      dup3\n        /* \"#utility.yul\":1078:1097   */\n      mstore\n        /* \"#utility.yul\":1130:1134   */\n      0x20\n        /* \"#utility.yul\":1125:1128   */\n      dup3\n        /* \"#utility.yul\":1121:1135   */\n      add\n        /* \"#utility.yul\":1106:1135   */\n      swap1\n      pop\n        /* \"#utility.yul\":973:1141   */\n      swap3\n      swap2\n      pop\n      pop\n      jump\t// out\n        /* \"#utility.yul\":1147:1393   */\n    tag_71:\n        /* \"#utility.yul\":1228:1229   */\n      0x00\n        /* \"#utility.yul\":1238:1351   */\n    tag_98:\n        /* \"#utility.yul\":1252:1258   */\n      dup4\n        /* \"#utility.yul\":1249:1250   */\n      dup2\n        /* \"#utility.yul\":1246:1259   */\n      lt\n        /* \"#utility.yul\":1238:1351   */\n      iszero\n      tag_100\n      jumpi\n        /* \"#utility.yul\":1337:1338   */\n      dup1\n        /* \"#utility.yul\":1332:1335   */\n      dup3\n        /* \"#utility.yul\":1328:1339   */\n      add\n        /* \"#utility.yul\":1322:1340   */\n      mload\n        /* \"#utility.yul\":1318:1319   */\n      dup2\n        /* \"#utility.yul\":1313:1316   */\n      dup5\n        /* \"#utility.yul\":1309:1320   */\n      add\n        /* \"#utility.yul\":1302:1341   */\n      mstore\n        /* \"#utility.yul\":1274:1276   */\n      0x20\n        /* \"#utility.yul\":1271:1272   */\n      dup2\n        /* \"#utility.yul\":1267:1277   */\n      add\n        /* \"#utility.yul\":1262:1277   */\n      swap1\n      pop\n        /* \"#utility.yul\":1238:1351   */\n      jump(tag_98)\n    tag_100:\n        /* \"#utility.yul\":1385:1386   */\n      0x00\n        /* \"#utility.yul\":1376:1382   */\n      dup5\n        /* \"#utility.yul\":1371:1374   */\n      dup5\n        /* \"#utility.yul\":1367:1383   */\n      add\n        /* \"#utility.yul\":1360:1387   */\n      mstore\n        /* \"#utility.yul\":1209:1393   */\n      pop\n        /* \"#utility.yul\":1147:1393   */\n      pop\n      pop\n      pop\n      jump\t// out\n        /* \"#utility.yul\":1399:1501   */\n    tag_72:\n        /* \"#utility.yul\":1440:1446   */\n      0x00\n        /* \"#utility.yul\":1491:1493   */\n      0x1f\n        /* \"#utility.yul\":1487:1494   */\n      not\n        /* \"#utility.yul\":1482:1484   */\n      0x1f\n        /* \"#utility.yul\":1475:1480   */\n      dup4\n        /* \"#utility.yul\":1471:1485   */\n      add\n        /* \"#utility.yul\":1467:1495   */\n      and\n        /* \"#utility.yul\":1457:1495   */\n      swap1\n      pop\n        /* \"#utility.yul\":1399:1501   */\n      swap2\n      swap1\n      pop\n      jump\t// out\n        /* \"#utility.yul\":1507:1880   */\n    tag_73:\n        /* \"#utility.yul\":1593:1596   */\n      0x00\n        /* \"#utility.yul\":1621:1659   */\n      tag_103\n        /* \"#utility.yul\":1653:1658   */\n      dup3\n        /* \"#utility.yul\":1621:1659   */\n      tag_69\n      jump\t// in\n    tag_103:\n        /* \"#utility.yul\":1675:1745   */\n      tag_104\n        /* \"#utility.yul\":1738:1744   */\n      dup2\n        /* \"#utility.yul\":1733:1736   */\n      dup6\n        /* \"#utility.yul\":1675:1745   */\n      tag_70\n      jump\t// in\n    tag_104:\n        /* \"#utility.yul\":1668:1745   */\n      swap4\n      pop\n        /* \"#utility.yul\":1754:1819   */\n      tag_105\n        /* \"#utility.yul\":1812:1818   */\n      dup2\n        /* \"#utility.yul\":1807:1810   */\n      dup6\n        /* \"#utility.yul\":1800:1804   */\n      0x20\n        /* \"#utility.yul\":1793:1798   */\n      dup7\n        /* \"#utility.yul\":1789:1805   */\n      add\n        /* \"#utility.yul\":1754:1819   */\n      tag_71\n      jump\t// in\n    tag_105:\n        /* \"#utility.yul\":1844:1873   */\n      tag_106\n        /* \"#utility.yul\":1866:1872   */\n      dup2\n        /* \"#utility.yul\":1844:1873   */\n      tag_72\n      jump\t// in\n    tag_106:\n        /* \"#utility.yul\":1839:1842   */\n      dup5\n        /* \"#utility.yul\":1835:1874   */\n      add\n        /* \"#utility.yul\":1828:1874   */\n      swap2\n      pop\n        /* \"#utility.yul\":1597:1880   */\n      pop\n        /* \"#utility.yul\":1507:1880   */\n      swap3\n      swap2\n      pop\n      pop\n      jump\t// out\n        /* \"#utility.yul\":1886:2195   */\n    tag_27:\n        /* \"#utility.yul\":1997:2001   */\n      0x00\n        /* \"#utility.yul\":2035:2037   */\n      0x20\n        /* \"#utility.yul\":2024:2033   */\n      dup3\n        /* \"#utility.yul\":2020:2038   */\n      add\n        /* \"#utility.yul\":2012:2038   */\n      swap1\n      pop\n        /* \"#utility.yul\":2084:2093   */\n      dup2\n        /* \"#utility.yul\":2078:2082   */\n      dup2\n        /* \"#utility.yul\":2074:2094   */\n      sub\n        /* \"#utility.yul\":2070:2071   */\n      0x00\n        /* \"#utility.yul\":2059:2068   */\n      dup4\n        /* \"#utility.yul\":2055:2072   */\n      add\n        /* \"#utility.yul\":2048:2095   */\n      mstore\n        /* \"#utility.yul\":2112:2188   */\n      tag_108\n        /* \"#utility.yul\":2183:2187   */\n      dup2\n        /* \"#utility.yul\":2174:2180   */\n      dup5\n        /* \"#utility.yul\":2112:2188   */\n      tag_73\n      jump\t// in\n    tag_108:\n        /* \"#utility.yul\":2104:2188   */\n      swap1\n      pop\n        /* \"#utility.yul\":1886:2195   */\n      swap3\n      swap2\n      pop\n      pop\n      jump\t// out\n        /* \"#utility.yul\":2201:2287   */\n    tag_74:\n        /* \"#utility.yul\":2236:2243   */\n      0x00\n        /* \"#utility.yul\":2276:2280   */\n      0xff\n        /* \"#utility.yul\":2269:2274   */\n      dup3\n        /* \"#utility.yul\":2265:2281   */\n      and\n        /* \"#utility.yul\":2254:2281   */\n      swap1\n      pop\n        /* \"#utility.yul\":2201:2287   */\n      swap2\n      swap1\n      pop\n      jump\t// out\n        /* \"#utility.yul\":2293:2405   */\n    tag_75:\n        /* \"#utility.yul\":2376:2398   */\n      tag_111\n        /* \"#utility.yul\":2392:2397   */\n      dup2\n        /* \"#utility.yul\":2376:2398   */\n      tag_74\n      jump\t// in\n    tag_111:\n        /* \"#utility.yul\":2371:2374   */\n      dup3\n        /* \"#utility.yul\":2364:2399   */\n      mstore\n        /* \"#utility.yul\":2293:2405   */\n      pop\n      pop\n      jump\t// out\n        /* \"#utility.yul\":2411:2625   */\n    tag_37:\n        /* \"#utility.yul\":2500:2504   */\n      0x00\n        /* \"#utility.yul\":2538:2540   */\n      0x20\n        /* \"#utility.yul\":2527:2536   */\n      dup3\n        /* \"#utility.yul\":2523:2541   */\n      add\n        /* \"#utility.yul\":2515:2541   */\n      swap1\n      pop\n        /* \"#utility.yul\":2551:2618   */\n      tag_113\n        /* \"#utility.yul\":2615:2616   */\n      0x00\n        /* \"#utility.yul\":2604:2613   */\n      dup4\n        /* \"#utility.yul\":2600:2617   */\n      add\n        /* \"#utility.yul\":2591:2597   */\n      dup5\n        /* \"#utility.yul\":2551:2618   */\n      tag_75\n      jump\t// in\n    tag_113:\n        /* \"#utility.yul\":2411:2625   */\n      swap3\n      swap2\n      pop\n      pop\n      jump\t// out\n        /* \"#utility.yul\":2631:2720   */\n    tag_76:\n        /* \"#utility.yul\":2665:2672   */\n      0x00\n        /* \"#utility.yul\":2708:2713   */\n      dup2\n        /* \"#utility.yul\":2705:2706   */\n      0x00\n        /* \"#utility.yul\":2694:2714   */\n      signextend\n        /* \"#utility.yul\":2683:2714   */\n      swap1\n      pop\n        /* \"#utility.yul\":2631:2720   */\n      swap2\n      swap1\n      pop\n      jump\t// out\n        /* \"#utility.yul\":2726:2835   */\n    tag_77:\n        /* \"#utility.yul\":2807:2828   */\n      tag_116\n        /* \"#utility.yul\":2822:2827   */\n      dup2\n        /* \"#utility.yul\":2807:2828   */\n      tag_76\n      jump\t// in\n    tag_116:\n        /* \"#utility.yul\":2802:2805   */\n      dup3\n        /* \"#utility.yul\":2795:2829   */\n      mstore\n        /* \"#utility.yul\":2726:2835   */\n      pop\n      pop\n      jump\t// out\n        /* \"#utility.yul\":2841:3051   */\n    tag_41:\n        /* \"#utility.yul\":2928:2932   */\n      0x00\n        /* \"#utility.yul\":2966:2968   */\n      0x20\n        /* \"#utility.yul\":2955:2964   */\n      dup3\n        /* \"#utility.yul\":2951:2969   */\n      add\n        /* \"#utility.yul\":2943:2969   */\n      swap1\n      pop\n        /* \"#utility.yul\":2979:3044   */\n      tag_118\n        /* \"#utility.yul\":3041:3042   */\n      0x00\n        /* \"#utility.yul\":3030:3039   */\n      dup4\n        /* \"#utility.yul\":3026:3043   */\n      add\n        /* \"#utility.yul\":3017:3023   */\n      dup5\n        /* \"#utility.yul\":2979:3044   */\n      tag_77\n      jump\t// in\n    tag_118:\n        /* \"#utility.yul\":2841:3051   */\n      swap3\n      swap2\n      pop\n      pop\n      jump\t// out\n        /* \"#utility.yul\":3057:3183   */\n    tag_78:\n        /* \"#utility.yul\":3094:3101   */\n      0x00\n        /* \"#utility.yul\":3134:3176   */\n      0xffffffffffffffffffffffffffffffffffffffff\n        /* \"#utility.yul\":3127:3132   */\n      dup3\n        /* \"#utility.yul\":3123:3177   */\n      and\n        /* \"#utility.yul\":3112:3177   */\n      swap1\n      pop\n        /* \"#utility.yul\":3057:3183   */\n      swap2\n      swap1\n      pop\n      jump\t// out\n        /* \"#utility.yul\":3189:3285   */\n    tag_79:\n        /* \"#utility.yul\":3226:3233   */\n      0x00\n        /* \"#utility.yul\":3255:3279   */\n      tag_121\n        /* \"#utility.yul\":3273:3278   */\n      dup3\n        /* \"#utility.yul\":3255:3279   */\n      tag_78\n      jump\t// in\n    tag_121:\n        /* \"#utility.yul\":3244:3279   */\n      swap1\n      pop\n        /* \"#utility.yul\":3189:3285   */\n      swap2\n      swap1\n      pop\n      jump\t// out\n        /* \"#utility.yul\":3291:3409   */\n    tag_80:\n        /* \"#utility.yul\":3378:3402   */\n      tag_123\n        /* \"#utility.yul\":3396:3401   */\n      dup2\n        /* \"#utility.yul\":3378:3402   */\n      tag_79\n      jump\t// in\n    tag_123:\n        /* \"#utility.yul\":3373:3376   */\n      dup3\n        /* \"#utility.yul\":3366:3403   */\n      mstore\n        /* \"#utility.yul\":3291:3409   */\n      pop\n      pop\n      jump\t// out\n        /* \"#utility.yul\":3415:3637   */\n    tag_45:\n        /* \"#utility.yul\":3508:3512   */\n      0x00\n        /* \"#utility.yul\":3546:3548   */\n      0x20\n        /* \"#utility.yul\":3535:3544   */\n      dup3\n        /* \"#utility.yul\":3531:3549   */\n      add\n        /* \"#utility.yul\":3523:3549   */\n      swap1\n      pop\n        /* \"#utility.yul\":3559:3630   */\n      tag_125\n        /* \"#utility.yul\":3627:3628   */\n      0x00\n        /* \"#utility.yul\":3616:3625   */\n      dup4\n        /* \"#utility.yul\":3612:3629   */\n      add\n        /* \"#utility.yul\":3603:3609   */\n      dup5\n        /* \"#utility.yul\":3559:3630   */\n      tag_80\n      jump\t// in\n    tag_125:\n        /* \"#utility.yul\":3415:3637   */\n      swap3\n      swap2\n      pop\n      pop\n      jump\t// out\n        /* \"#utility.yul\":3643:3792   */\n    tag_81:\n        /* \"#utility.yul\":3679:3686   */\n      0x00\n        /* \"#utility.yul\":3719:3785   */\n      0xffffffff00000000000000000000000000000000000000000000000000000000\n        /* \"#utility.yul\":3712:3717   */\n      dup3\n        /* \"#utility.yul\":3708:3786   */\n      and\n        /* \"#utility.yul\":3697:3786   */\n      swap1\n      pop\n        /* \"#utility.yul\":3643:3792   */\n      swap2\n      swap1\n      pop\n      jump\t// out\n        /* \"#utility.yul\":3798:3913   */\n    tag_82:\n        /* \"#utility.yul\":3883:3906   */\n      tag_128\n        /* \"#utility.yul\":3900:3905   */\n      dup2\n        /* \"#utility.yul\":3883:3906   */\n      tag_81\n      jump\t// in\n    tag_128:\n        /* \"#utility.yul\":3878:3881   */\n      dup3\n        /* \"#utility.yul\":3871:3907   */\n      mstore\n        /* \"#utility.yul\":3798:3913   */\n      pop\n      pop\n      jump\t// out\n        /* \"#utility.yul\":3919:4137   */\n    tag_49:\n        /* \"#utility.yul\":4010:4014   */\n      0x00\n        /* \"#utility.yul\":4048:4050   */\n      0x20\n        /* \"#utility.yul\":4037:4046   */\n      dup3\n        /* \"#utility.yul\":4033:4051   */\n      add\n        /* \"#utility.yul\":4025:4051   */\n      swap1\n      pop\n        /* \"#utility.yul\":4061:4130   */\n      tag_130\n        /* \"#utility.yul\":4127:4128   */\n      0x00\n        /* \"#utility.yul\":4116:4125   */\n      dup4\n        /* \"#utility.yul\":4112:4129   */\n      add\n        /* \"#utility.yul\":4103:4109   */\n      dup5\n        /* \"#utility.yul\":4061:4130   */\n      tag_82\n      jump\t// in\n    tag_130:\n        /* \"#utility.yul\":3919:4137   */\n      swap3\n      swap2\n      pop\n      pop\n      jump\t// out\n        /* \"#utility.yul\":4143:4323   */\n    tag_83:\n        /* \"#utility.yul\":4191:4268   */\n      0x4e487b7100000000000000000000000000000000000000000000000000000000\n        /* \"#utility.yul\":4188:4189   */\n      0x00\n        /* \"#utility.yul\":4181:4269   */\n      mstore\n        /* \"#utility.yul\":4288:4292   */\n      0x22\n        /* \"#utility.yul\":4285:4286   */\n      0x04\n        /* \"#utility.yul\":4278:4293   */\n      mstore\n        /* \"#utility.yul\":4312:4316   */\n      0x24\n        /* \"#utility.yul\":4309:4310   */\n      0x00\n        /* \"#utility.yul\":4302:4317   */\n      revert\n        /* \"#utility.yul\":4329:4649   */\n    tag_60:\n        /* \"#utility.yul\":4373:4379   */\n      0x00\n        /* \"#utility.yul\":4410:4411   */\n      0x02\n        /* \"#utility.yul\":4404:4408   */\n      dup3\n        /* \"#utility.yul\":4400:4412   */\n      div\n        /* \"#utility.yul\":4390:4412   */\n      swap1\n      pop\n        /* \"#utility.yul\":4457:4458   */\n      0x01\n        /* \"#utility.yul\":4451:4455   */\n      dup3\n        /* \"#utility.yul\":4447:4459   */\n      and\n        /* \"#utility.yul\":4478:4496   */\n      dup1\n        /* \"#utility.yul\":4468:4549   */\n      tag_133\n      jumpi\n        /* \"#utility.yul\":4534:4538   */\n      0x7f\n        /* \"#utility.yul\":4526:4532   */\n      dup3\n        /* \"#utility.yul\":4522:4539   */\n      and\n        /* \"#utility.yul\":4512:4539   */\n      swap2\n      pop\n        /* \"#utility.yul\":4468:4549   */\n    tag_133:\n        /* \"#utility.yul\":4596:4598   */\n      0x20\n        /* \"#utility.yul\":4588:4594   */\n      dup3\n        /* \"#utility.yul\":4585:4599   */\n      lt\n        /* \"#utility.yul\":4565:4583   */\n      dup2\n        /* \"#utility.yul\":4562:4600   */\n      sub\n        /* \"#utility.yul\":4559:4643   */\n      tag_134\n      jumpi\n        /* \"#utility.yul\":4615:4633   */\n      tag_135\n      tag_83\n      jump\t// in\n    tag_135:\n        /* \"#utility.yul\":4559:4643   */\n    tag_134:\n        /* \"#utility.yul\":4380:4649   */\n      pop\n        /* \"#utility.yul\":4329:4649   */\n      swap2\n      swap1\n      pop\n      jump\t// out\n\n    auxdata: 0xa26469706673582212209296c3d37966a686ca3008a2d510b494aa5f0f36653701d06df793b361f454a564736f6c63430008120033\n}\n",
				"bytecode": {
					"linkReferences": {},
					"object": "608060405260008060006101000a81548160ff021916908315150217905550600015600060016101000a81548160ff02191690831515021790555060008062000046575060015b600060026101000a81548160ff021916908315150217905550600115156000151514600060036101000a81548160ff02191690831515021790555060001515600015151415600060046101000a81548160ff02191690831515021790555060008015620000b1575060015b600060056101000a81548160ff021916908315150217905550631234567860e01b600060066101000a81548163ffffffff021916908360e01c02179055506040518060400160405280600681526020017f535452494e4700000000000000000000000000000000000000000000000000008152506001908162000135919062000478565b5073d9145cce52d386f254917e481eb44e9943f39138600260006101000a81548173ffffffffffffffffffffffffffffffffffffffff021916908373ffffffffffffffffffffffffffffffffffffffff1602179055507ffffffffffffffffffffffffffffffffffffffffffffffffffffffffffffffffc600260146101000a81548160ff021916908360000b60ff160217905550607b600260156101000a81548160ff021916908360ff160217905550607b600355348015620001f757600080fd5b506200055f565b600081519050919050565b7f4e487b7100000000000000000000000000000000000000000000000000000000600052604160045260246000fd5b7f4e487b7100000000000000000000000000000000000000000000000000000000600052602260045260246000fd5b600060028204905060018216806200028057607f821691505b60208210810362000296576200029562000238565b5b50919050565b60008190508160005260206000209050919050565b60006020601f8301049050919050565b600082821b905092915050565b600060088302620003007fffffffffffffffffffffffffffffffffffffffffffffffffffffffffffffffff82620002c1565b6200030c8683620002c1565b95508019841693508086168417925050509392505050565b6000819050919050565b6000819050919050565b600062000359620003536200034d8462000324565b6200032e565b62000324565b9050919050565b6000819050919050565b620003758362000338565b6200038d620003848262000360565b848454620002ce565b825550505050565b600090565b620003a462000395565b620003b18184846200036a565b505050565b5b81811015620003d957620003cd6000826200039a565b600181019050620003b7565b5050565b601f8211156200042857620003f2816200029c565b620003fd84620002b1565b810160208510156200040d578190505b620004256200041c85620002b1565b830182620003b6565b50505b505050565b600082821c905092915050565b60006200044d600019846008026200042d565b1980831691505092915050565b60006200046883836200043a565b9150826002028217905092915050565b6200048382620001fe565b67ffffffffffffffff8111156200049f576200049e62000209565b5b620004ab825462000267565b620004b8828285620003dd565b600060209050601f831160018114620004f05760008415620004db578287015190505b620004e785826200045a565b86555062000557565b601f19841662000500866200029c565b60005b828110156200052a5784890151825560018201915060208501945060208101905062000503565b868310156200054a578489015162000546601f8916826200043a565b8355505b6001600288020188555050505b505050505050565b610656806200056f6000396000f3fe608060405234801561001057600080fd5b50600436106100b45760003560e01c80635ce692f2116100715780635ce692f21461016d578063767800de1461018b578063ac9c1959146101a9578063cb2182c5146101c7578063e9b61909146101e5578063ee49500214610203576100b4565b806303806605146100b95780630add6ef2146100d75780632c622fae146100f55780633db3fb0a146101135780634df7e3d0146101315780635ab9e50e1461014f575b600080fd5b6100c1610221565b6040516100ce919061039d565b60405180910390f35b6100df610227565b6040516100ec91906103d3565b60405180910390f35b6100fd61023a565b60405161010a919061047e565b60405180910390f35b61011b6102c8565b60405161012891906103d3565b60405180910390f35b6101396102db565b60405161014691906103d3565b60405180910390f35b6101576102ec565b60405161016491906104bc565b60405180910390f35b6101756102ff565b60405161018291906104f3565b60405180910390f35b610193610312565b6040516101a0919061054f565b60405180910390f35b6101b1610338565b6040516101be91906105a5565b60405180910390f35b6101cf61034b565b6040516101dc91906103d3565b60405180910390f35b6101ed61035e565b6040516101fa91906103d3565b60405180910390f35b61020b610371565b60405161021891906103d3565b60405180910390f35b60035481565b600060029054906101000a900460ff1681565b60018054610247906105ef565b80601f0160208091040260200160405190810160405280929190818152602001828054610273906105ef565b80156102c05780601f10610295576101008083540402835291602001916102c0565b820191906000526020600020905b8154815290600101906020018083116102a357829003601f168201915b505050505081565b600060049054906101000a900460ff1681565b60008054906101000a900460ff1681565b600260159054906101000a900460ff1681565b600260149054906101000a900460000b81565b600260009054906101000a900473ffffffffffffffffffffffffffffffffffffffff1681565b600060069054906101000a900460e01b81565b600060059054906101000a900460ff1681565b600060039054906101000a900460ff1681565b600060019054906101000a900460ff1681565b6000819050919050565b61039781610384565b82525050565b60006020820190506103b2600083018461038e565b92915050565b60008115159050919050565b6103cd816103b8565b82525050565b60006020820190506103e860008301846103c4565b92915050565b600081519050919050565b600082825260208201905092915050565b60005b8381101561042857808201518184015260208101905061040d565b60008484015250505050565b6000601f19601f8301169050919050565b6000610450826103ee565b61045a81856103f9565b935061046a81856020860161040a565b61047381610434565b840191505092915050565b600060208201905081810360008301526104988184610445565b905092915050565b600060ff82169050919050565b6104b6816104a0565b82525050565b60006020820190506104d160008301846104ad565b92915050565b60008160000b9050919050565b6104ed816104d7565b82525050565b600060208201905061050860008301846104e4565b92915050565b600073ffffffffffffffffffffffffffffffffffffffff82169050919050565b60006105398261050e565b9050919050565b6105498161052e565b82525050565b60006020820190506105646000830184610540565b92915050565b60007fffffffff0000000000000000000000000000000000000000000000000000000082169050919050565b61059f8161056a565b82525050565b60006020820190506105ba6000830184610596565b92915050565b7f4e487b7100000000000000000000000000000000000000000000000000000000600052602260045260246000fd5b6000600282049050600182168061060757607f821691505b60208210810361061a576106196105c0565b5b5091905056fea26469706673582212209296c3d37966a686ca3008a2d510b494aa5f0f36653701d06df793b361f454a564736f6c63430008120033",
					"opcodes": "PUSH1 0x80 PUSH1 0x40 MSTORE PUSH1 0x0 DUP1 PUSH1 0x0 PUSH2 0x100 EXP DUP2 SLOAD DUP2 PUSH1 0xFF MUL NOT AND SWAP1 DUP4 ISZERO ISZERO MUL OR SWAP1 SSTORE POP PUSH1 0x0 ISZERO PUSH1 0x0 PUSH1 0x1 PUSH2 0x100 EXP DUP2 SLOAD DUP2 PUSH1 0xFF MUL NOT AND SWAP1 DUP4 ISZERO ISZERO MUL OR SWAP1 SSTORE POP PUSH1 0x0 DUP1 PUSH3 0x46 JUMPI POP PUSH1 0x1 JUMPDEST PUSH1 0x0 PUSH1 0x2 PUSH2 0x100 EXP DUP2 SLOAD DUP2 PUSH1 0xFF MUL NOT AND SWAP1 DUP4 ISZERO ISZERO MUL OR SWAP1 SSTORE POP PUSH1 0x1 ISZERO ISZERO PUSH1 0x0 ISZERO ISZERO EQ PUSH1 0x0 PUSH1 0x3 PUSH2 0x100 EXP DUP2 SLOAD DUP2 PUSH1 0xFF MUL NOT AND SWAP1 DUP4 ISZERO ISZERO MUL OR SWAP1 SSTORE POP PUSH1 0x0 ISZERO ISZERO PUSH1 0x0 ISZERO ISZERO EQ ISZERO PUSH1 0x0 PUSH1 0x4 PUSH2 0x100 EXP DUP2 SLOAD DUP2 PUSH1 0xFF MUL NOT AND SWAP1 DUP4 ISZERO ISZERO MUL OR SWAP1 SSTORE POP PUSH1 0x0 DUP1 ISZERO PUSH3 0xB1 JUMPI POP PUSH1 0x1 JUMPDEST PUSH1 0x0 PUSH1 0x5 PUSH2 0x100 EXP DUP2 SLOAD DUP2 PUSH1 0xFF MUL NOT AND SWAP1 DUP4 ISZERO ISZERO MUL OR SWAP1 SSTORE POP PUSH4 0x12345678 PUSH1 0xE0 SHL PUSH1 0x0 PUSH1 0x6 PUSH2 0x100 EXP DUP2 SLOAD DUP2 PUSH4 0xFFFFFFFF MUL NOT AND SWAP1 DUP4 PUSH1 0xE0 SHR MUL OR SWAP1 SSTORE POP PUSH1 0x40 MLOAD DUP1 PUSH1 0x40 ADD PUSH1 0x40 MSTORE DUP1 PUSH1 0x6 DUP2 MSTORE PUSH1 0x20 ADD PUSH32 0x535452494E470000000000000000000000000000000000000000000000000000 DUP2 MSTORE POP PUSH1 0x1 SWAP1 DUP2 PUSH3 0x135 SWAP2 SWAP1 PUSH3 0x478 JUMP JUMPDEST POP PUSH20 0xD9145CCE52D386F254917E481EB44E9943F39138 PUSH1 0x2 PUSH1 0x0 PUSH2 0x100 EXP DUP2 SLOAD DUP2 PUSH20 0xFFFFFFFFFFFFFFFFFFFFFFFFFFFFFFFFFFFFFFFF MUL NOT AND SWAP1 DUP4 PUSH20 0xFFFFFFFFFFFFFFFFFFFFFFFFFFFFFFFFFFFFFFFF AND MUL OR SWAP1 SSTORE POP PUSH32 0xFFFFFFFFFFFFFFFFFFFFFFFFFFFFFFFFFFFFFFFFFFFFFFFFFFFFFFFFFFFFFFFC PUSH1 0x2 PUSH1 0x14 PUSH2 0x100 EXP DUP2 SLOAD DUP2 PUSH1 0xFF MUL NOT AND SWAP1 DUP4 PUSH1 0x0 SIGNEXTEND PUSH1 0xFF AND MUL OR SWAP1 SSTORE POP PUSH1 0x7B PUSH1 0x2 PUSH1 0x15 PUSH2 0x100 EXP DUP2 SLOAD DUP2 PUSH1 0xFF MUL NOT AND SWAP1 DUP4 PUSH1 0xFF AND MUL OR SWAP1 SSTORE POP PUSH1 0x7B PUSH1 0x3 SSTORE CALLVALUE DUP1 ISZERO PUSH3 0x1F7 JUMPI PUSH1 0x0 DUP1 REVERT JUMPDEST POP PUSH3 0x55F JUMP JUMPDEST PUSH1 0x0 DUP2 MLOAD SWAP1 POP SWAP2 SWAP1 POP JUMP JUMPDEST PUSH32 0x4E487B7100000000000000000000000000000000000000000000000000000000 PUSH1 0x0 MSTORE PUSH1 0x41 PUSH1 0x4 MSTORE PUSH1 0x24 PUSH1 0x0 REVERT JUMPDEST PUSH32 0x4E487B7100000000000000000000000000000000000000000000000000000000 PUSH1 0x0 MSTORE PUSH1 0x22 PUSH1 0x4 MSTORE PUSH1 0x24 PUSH1 0x0 REVERT JUMPDEST PUSH1 0x0 PUSH1 0x2 DUP3 DIV SWAP1 POP PUSH1 0x1 DUP3 AND DUP1 PUSH3 0x280 JUMPI PUSH1 0x7F DUP3 AND SWAP2 POP JUMPDEST PUSH1 0x20 DUP3 LT DUP2 SUB PUSH3 0x296 JUMPI PUSH3 0x295 PUSH3 0x238 JUMP JUMPDEST JUMPDEST POP SWAP2 SWAP1 POP JUMP JUMPDEST PUSH1 0x0 DUP2 SWAP1 POP DUP2 PUSH1 0x0 MSTORE PUSH1 0x20 PUSH1 0x0 KECCAK256 SWAP1 POP SWAP2 SWAP1 POP JUMP JUMPDEST PUSH1 0x0 PUSH1 0x20 PUSH1 0x1F DUP4 ADD DIV SWAP1 POP SWAP2 SWAP1 POP JUMP JUMPDEST PUSH1 0x0 DUP3 DUP3 SHL SWAP1 POP SWAP3 SWAP2 POP POP JUMP JUMPDEST PUSH1 0x0 PUSH1 0x8 DUP4 MUL PUSH3 0x300 PUSH32 0xFFFFFFFFFFFFFFFFFFFFFFFFFFFFFFFFFFFFFFFFFFFFFFFFFFFFFFFFFFFFFFFF DUP3 PUSH3 0x2C1 JUMP JUMPDEST PUSH3 0x30C DUP7 DUP4 PUSH3 0x2C1 JUMP JUMPDEST SWAP6 POP DUP1 NOT DUP5 AND SWAP4 POP DUP1 DUP7 AND DUP5 OR SWAP3 POP POP POP SWAP4 SWAP3 POP POP POP JUMP JUMPDEST PUSH1 0x0 DUP2 SWAP1 POP SWAP2 SWAP1 POP JUMP JUMPDEST PUSH1 0x0 DUP2 SWAP1 POP SWAP2 SWAP1 POP JUMP JUMPDEST PUSH1 0x0 PUSH3 0x359 PUSH3 0x353 PUSH3 0x34D DUP5 PUSH3 0x324 JUMP JUMPDEST PUSH3 0x32E JUMP JUMPDEST PUSH3 0x324 JUMP JUMPDEST SWAP1 POP SWAP2 SWAP1 POP JUMP JUMPDEST PUSH1 0x0 DUP2 SWAP1 POP SWAP2 SWAP1 POP JUMP JUMPDEST PUSH3 0x375 DUP4 PUSH3 0x338 JUMP JUMPDEST PUSH3 0x38D PUSH3 0x384 DUP3 PUSH3 0x360 JUMP JUMPDEST DUP5 DUP5 SLOAD PUSH3 0x2CE JUMP JUMPDEST DUP3 SSTORE POP POP POP POP JUMP JUMPDEST PUSH1 0x0 SWAP1 JUMP JUMPDEST PUSH3 0x3A4 PUSH3 0x395 JUMP JUMPDEST PUSH3 0x3B1 DUP2 DUP5 DUP5 PUSH3 0x36A JUMP JUMPDEST POP POP POP JUMP JUMPDEST JUMPDEST DUP2 DUP2 LT ISZERO PUSH3 0x3D9 JUMPI PUSH3 0x3CD PUSH1 0x0 DUP3 PUSH3 0x39A JUMP JUMPDEST PUSH1 0x1 DUP2 ADD SWAP1 POP PUSH3 0x3B7 JUMP JUMPDEST POP POP JUMP JUMPDEST PUSH1 0x1F DUP3 GT ISZERO PUSH3 0x428 JUMPI PUSH3 0x3F2 DUP2 PUSH3 0x29C JUMP JUMPDEST PUSH3 0x3FD DUP5 PUSH3 0x2B1 JUMP JUMPDEST DUP2 ADD PUSH1 0x20 DUP6 LT ISZERO PUSH3 0x40D JUMPI DUP2 SWAP1 POP JUMPDEST PUSH3 0x425 PUSH3 0x41C DUP6 PUSH3 0x2B1 JUMP JUMPDEST DUP4 ADD DUP3 PUSH3 0x3B6 JUMP JUMPDEST POP POP JUMPDEST POP POP POP JUMP JUMPDEST PUSH1 0x0 DUP3 DUP3 SHR SWAP1 POP SWAP3 SWAP2 POP POP JUMP JUMPDEST PUSH1 0x0 PUSH3 0x44D PUSH1 0x0 NOT DUP5 PUSH1 0x8 MUL PUSH3 0x42D JUMP JUMPDEST NOT DUP1 DUP4 AND SWAP2 POP POP SWAP3 SWAP2 POP POP JUMP JUMPDEST PUSH1 0x0 PUSH3 0x468 DUP4 DUP4 PUSH3 0x43A JUMP JUMPDEST SWAP2 POP DUP3 PUSH1 0x2 MUL DUP3 OR SWAP1 POP SWAP3 SWAP2 POP POP JUMP JUMPDEST PUSH3 0x483 DUP3 PUSH3 0x1FE JUMP JUMPDEST PUSH8 0xFFFFFFFFFFFFFFFF DUP2 GT ISZERO PUSH3 0x49F JUMPI PUSH3 0x49E PUSH3 0x209 JUMP JUMPDEST JUMPDEST PUSH3 0x4AB DUP3 SLOAD PUSH3 0x267 JUMP JUMPDEST PUSH3 0x4B8 DUP3 DUP3 DUP6 PUSH3 0x3DD JUMP JUMPDEST PUSH1 0x0 PUSH1 0x20 SWAP1 POP PUSH1 0x1F DUP4 GT PUSH1 0x1 DUP2 EQ PUSH3 0x4F0 JUMPI PUSH1 0x0 DUP5 ISZERO PUSH3 0x4DB JUMPI DUP3 DUP8 ADD MLOAD SWAP1 POP JUMPDEST PUSH3 0x4E7 DUP6 DUP3 PUSH3 0x45A JUMP JUMPDEST DUP7 SSTORE POP PUSH3 0x557 JUMP JUMPDEST PUSH1 0x1F NOT DUP5 AND PUSH3 0x500 DUP7 PUSH3 0x29C JUMP JUMPDEST PUSH1 0x0 JUMPDEST DUP3 DUP2 LT ISZERO PUSH3 0x52A JUMPI DUP5 DUP10 ADD MLOAD DUP3 SSTORE PUSH1 0x1 DUP3 ADD SWAP2 POP PUSH1 0x20 DUP6 ADD SWAP5 POP PUSH1 0x20 DUP2 ADD SWAP1 POP PUSH3 0x503 JUMP JUMPDEST DUP7 DUP4 LT ISZERO PUSH3 0x54A JUMPI DUP5 DUP10 ADD MLOAD PUSH3 0x546 PUSH1 0x1F DUP10 AND DUP3 PUSH3 0x43A JUMP JUMPDEST DUP4 SSTORE POP JUMPDEST PUSH1 0x1 PUSH1 0x2 DUP9 MUL ADD DUP9 SSTORE POP POP POP JUMPDEST POP POP POP POP POP POP JUMP JUMPDEST PUSH2 0x656 DUP1 PUSH3 0x56F PUSH1 0x0 CODECOPY PUSH1 0x0 RETURN INVALID PUSH1 0x80 PUSH1 0x40 MSTORE CALLVALUE DUP1 ISZERO PUSH2 0x10 JUMPI PUSH1 0x0 DUP1 REVERT JUMPDEST POP PUSH1 0x4 CALLDATASIZE LT PUSH2 0xB4 JUMPI PUSH1 0x0 CALLDATALOAD PUSH1 0xE0 SHR DUP1 PUSH4 0x5CE692F2 GT PUSH2 0x71 JUMPI DUP1 PUSH4 0x5CE692F2 EQ PUSH2 0x16D JUMPI DUP1 PUSH4 0x767800DE EQ PUSH2 0x18B JUMPI DUP1 PUSH4 0xAC9C1959 EQ PUSH2 0x1A9 JUMPI DUP1 PUSH4 0xCB2182C5 EQ PUSH2 0x1C7 JUMPI DUP1 PUSH4 0xE9B61909 EQ PUSH2 0x1E5 JUMPI DUP1 PUSH4 0xEE495002 EQ PUSH2 0x203 JUMPI PUSH2 0xB4 JUMP JUMPDEST DUP1 PUSH4 0x3806605 EQ PUSH2 0xB9 JUMPI DUP1 PUSH4 0xADD6EF2 EQ PUSH2 0xD7 JUMPI DUP1 PUSH4 0x2C622FAE EQ PUSH2 0xF5 JUMPI DUP1 PUSH4 0x3DB3FB0A EQ PUSH2 0x113 JUMPI DUP1 PUSH4 0x4DF7E3D0 EQ PUSH2 0x131 JUMPI DUP1 PUSH4 0x5AB9E50E EQ PUSH2 0x14F JUMPI JUMPDEST PUSH1 0x0 DUP1 REVERT JUMPDEST PUSH2 0xC1 PUSH2 0x221 JUMP JUMPDEST PUSH1 0x40 MLOAD PUSH2 0xCE SWAP2 SWAP1 PUSH2 0x39D JUMP JUMPDEST PUSH1 0x40 MLOAD DUP1 SWAP2 SUB SWAP1 RETURN JUMPDEST PUSH2 0xDF PUSH2 0x227 JUMP JUMPDEST PUSH1 0x40 MLOAD PUSH2 0xEC SWAP2 SWAP1 PUSH2 0x3D3 JUMP JUMPDEST PUSH1 0x40 MLOAD DUP1 SWAP2 SUB SWAP1 RETURN JUMPDEST PUSH2 0xFD PUSH2 0x23A JUMP JUMPDEST PUSH1 0x40 MLOAD PUSH2 0x10A SWAP2 SWAP1 PUSH2 0x47E JUMP JUMPDEST PUSH1 0x40 MLOAD DUP1 SWAP2 SUB SWAP1 RETURN JUMPDEST PUSH2 0x11B PUSH2 0x2C8 JUMP JUMPDEST PUSH1 0x40 MLOAD PUSH2 0x128 SWAP2 SWAP1 PUSH2 0x3D3 JUMP JUMPDEST PUSH1 0x40 MLOAD DUP1 SWAP2 SUB SWAP1 RETURN JUMPDEST PUSH2 0x139 PUSH2 0x2DB JUMP JUMPDEST PUSH1 0x40 MLOAD PUSH2 0x146 SWAP2 SWAP1 PUSH2 0x3D3 JUMP JUMPDEST PUSH1 0x40 MLOAD DUP1 SWAP2 SUB SWAP1 RETURN JUMPDEST PUSH2 0x157 PUSH2 0x2EC JUMP JUMPDEST PUSH1 0x40 MLOAD PUSH2 0x164 SWAP2 SWAP1 PUSH2 0x4BC JUMP JUMPDEST PUSH1 0x40 MLOAD DUP1 SWAP2 SUB SWAP1 RETURN JUMPDEST PUSH2 0x175 PUSH2 0x2FF JUMP JUMPDEST PUSH1 0x40 MLOAD PUSH2 0x182 SWAP2 SWAP1 PUSH2 0x4F3 JUMP JUMPDEST PUSH1 0x40 MLOAD DUP1 SWAP2 SUB SWAP1 RETURN JUMPDEST PUSH2 0x193 PUSH2 0x312 JUMP JUMPDEST PUSH1 0x40 MLOAD PUSH2 0x1A0 SWAP2 SWAP1 PUSH2 0x54F JUMP JUMPDEST PUSH1 0x40 MLOAD DUP1 SWAP2 SUB SWAP1 RETURN JUMPDEST PUSH2 0x1B1 PUSH2 0x338 JUMP JUMPDEST PUSH1 0x40 MLOAD PUSH2 0x1BE SWAP2 SWAP1 PUSH2 0x5A5 JUMP JUMPDEST PUSH1 0x40 MLOAD DUP1 SWAP2 SUB SWAP1 RETURN JUMPDEST PUSH2 0x1CF PUSH2 0x34B JUMP JUMPDEST PUSH1 0x40 MLOAD PUSH2 0x1DC SWAP2 SWAP1 PUSH2 0x3D3 JUMP JUMPDEST PUSH1 0x40 MLOAD DUP1 SWAP2 SUB SWAP1 RETURN JUMPDEST PUSH2 0x1ED PUSH2 0x35E JUMP JUMPDEST PUSH1 0x40 MLOAD PUSH2 0x1FA SWAP2 SWAP1 PUSH2 0x3D3 JUMP JUMPDEST PUSH1 0x40 MLOAD DUP1 SWAP2 SUB SWAP1 RETURN JUMPDEST PUSH2 0x20B PUSH2 0x371 JUMP JUMPDEST PUSH1 0x40 MLOAD PUSH2 0x218 SWAP2 SWAP1 PUSH2 0x3D3 JUMP JUMPDEST PUSH1 0x40 MLOAD DUP1 SWAP2 SUB SWAP1 RETURN JUMPDEST PUSH1 0x3 SLOAD DUP2 JUMP JUMPDEST PUSH1 0x0 PUSH1 0x2 SWAP1 SLOAD SWAP1 PUSH2 0x100 EXP SWAP1 DIV PUSH1 0xFF AND DUP2 JUMP JUMPDEST PUSH1 0x1 DUP1 SLOAD PUSH2 0x247 SWAP1 PUSH2 0x5EF JUMP JUMPDEST DUP1 PUSH1 0x1F ADD PUSH1 0x20 DUP1 SWAP2 DIV MUL PUSH1 0x20 ADD PUSH1 0x40 MLOAD SWAP1 DUP2 ADD PUSH1 0x40 MSTORE DUP1 SWAP3 SWAP2 SWAP1 DUP2 DUP2 MSTORE PUSH1 0x20 ADD DUP3 DUP1 SLOAD PUSH2 0x273 SWAP1 PUSH2 0x5EF JUMP JUMPDEST DUP1 ISZERO PUSH2 0x2C0 JUMPI DUP1 PUSH1 0x1F LT PUSH2 0x295 JUMPI PUSH2 0x100 DUP1 DUP4 SLOAD DIV MUL DUP4 MSTORE SWAP2 PUSH1 0x20 ADD SWAP2 PUSH2 0x2C0 JUMP JUMPDEST DUP3 ADD SWAP2 SWAP1 PUSH1 0x0 MSTORE PUSH1 0x20 PUSH1 0x0 KECCAK256 SWAP1 JUMPDEST DUP2 SLOAD DUP2 MSTORE SWAP1 PUSH1 0x1 ADD SWAP1 PUSH1 0x20 ADD DUP1 DUP4 GT PUSH2 0x2A3 JUMPI DUP3 SWAP1 SUB PUSH1 0x1F AND DUP3 ADD SWAP2 JUMPDEST POP POP POP POP POP DUP2 JUMP JUMPDEST PUSH1 0x0 PUSH1 0x4 SWAP1 SLOAD SWAP1 PUSH2 0x100 EXP SWAP1 DIV PUSH1 0xFF AND DUP2 JUMP JUMPDEST PUSH1 0x0 DUP1 SLOAD SWAP1 PUSH2 0x100 EXP SWAP1 DIV PUSH1 0xFF AND DUP2 JUMP JUMPDEST PUSH1 0x2 PUSH1 0x15 SWAP1 SLOAD SWAP1 PUSH2 0x100 EXP SWAP1 DIV PUSH1 0xFF AND DUP2 JUMP JUMPDEST PUSH1 0x2 PUSH1 0x14 SWAP1 SLOAD SWAP1 PUSH2 0x100 EXP SWAP1 DIV PUSH1 0x0 SIGNEXTEND DUP2 JUMP JUMPDEST PUSH1 0x2 PUSH1 0x0 SWAP1 SLOAD SWAP1 PUSH2 0x100 EXP SWAP1 DIV PUSH20 0xFFFFFFFFFFFFFFFFFFFFFFFFFFFFFFFFFFFFFFFF AND DUP2 JUMP JUMPDEST PUSH1 0x0 PUSH1 0x6 SWAP1 SLOAD SWAP1 PUSH2 0x100 EXP SWAP1 DIV PUSH1 0xE0 SHL DUP2 JUMP JUMPDEST PUSH1 0x0 PUSH1 0x5 SWAP1 SLOAD SWAP1 PUSH2 0x100 EXP SWAP1 DIV PUSH1 0xFF AND DUP2 JUMP JUMPDEST PUSH1 0x0 PUSH1 0x3 SWAP1 SLOAD SWAP1 PUSH2 0x100 EXP SWAP1 DIV PUSH1 0xFF AND DUP2 JUMP JUMPDEST PUSH1 0x0 PUSH1 0x1 SWAP1 SLOAD SWAP1 PUSH2 0x100 EXP SWAP1 DIV PUSH1 0xFF AND DUP2 JUMP JUMPDEST PUSH1 0x0 DUP2 SWAP1 POP SWAP2 SWAP1 POP JUMP JUMPDEST PUSH2 0x397 DUP2 PUSH2 0x384 JUMP JUMPDEST DUP3 MSTORE POP POP JUMP JUMPDEST PUSH1 0x0 PUSH1 0x20 DUP3 ADD SWAP1 POP PUSH2 0x3B2 PUSH1 0x0 DUP4 ADD DUP5 PUSH2 0x38E JUMP JUMPDEST SWAP3 SWAP2 POP POP JUMP JUMPDEST PUSH1 0x0 DUP2 ISZERO ISZERO SWAP1 POP SWAP2 SWAP1 POP JUMP JUMPDEST PUSH2 0x3CD DUP2 PUSH2 0x3B8 JUMP JUMPDEST DUP3 MSTORE POP POP JUMP JUMPDEST PUSH1 0x0 PUSH1 0x20 DUP3 ADD SWAP1 POP PUSH2 0x3E8 PUSH1 0x0 DUP4 ADD DUP5 PUSH2 0x3C4 JUMP JUMPDEST SWAP3 SWAP2 POP POP JUMP JUMPDEST PUSH1 0x0 DUP2 MLOAD SWAP1 POP SWAP2 SWAP1 POP JUMP JUMPDEST PUSH1 0x0 DUP3 DUP3 MSTORE PUSH1 0x20 DUP3 ADD SWAP1 POP SWAP3 SWAP2 POP POP JUMP JUMPDEST PUSH1 0x0 JUMPDEST DUP4 DUP2 LT ISZERO PUSH2 0x428 JUMPI DUP1 DUP3 ADD MLOAD DUP2 DUP5 ADD MSTORE PUSH1 0x20 DUP2 ADD SWAP1 POP PUSH2 0x40D JUMP JUMPDEST PUSH1 0x0 DUP5 DUP5 ADD MSTORE POP POP POP POP JUMP JUMPDEST PUSH1 0x0 PUSH1 0x1F NOT PUSH1 0x1F DUP4 ADD AND SWAP1 POP SWAP2 SWAP1 POP JUMP JUMPDEST PUSH1 0x0 PUSH2 0x450 DUP3 PUSH2 0x3EE JUMP JUMPDEST PUSH2 0x45A DUP2 DUP6 PUSH2 0x3F9 JUMP JUMPDEST SWAP4 POP PUSH2 0x46A DUP2 DUP6 PUSH1 0x20 DUP7 ADD PUSH2 0x40A JUMP JUMPDEST PUSH2 0x473 DUP2 PUSH2 0x434 JUMP JUMPDEST DUP5 ADD SWAP2 POP POP SWAP3 SWAP2 POP POP JUMP JUMPDEST PUSH1 0x0 PUSH1 0x20 DUP3 ADD SWAP1 POP DUP2 DUP2 SUB PUSH1 0x0 DUP4 ADD MSTORE PUSH2 0x498 DUP2 DUP5 PUSH2 0x445 JUMP JUMPDEST SWAP1 POP SWAP3 SWAP2 POP POP JUMP JUMPDEST PUSH1 0x0 PUSH1 0xFF DUP3 AND SWAP1 POP SWAP2 SWAP1 POP JUMP JUMPDEST PUSH2 0x4B6 DUP2 PUSH2 0x4A0 JUMP JUMPDEST DUP3 MSTORE POP POP JUMP JUMPDEST PUSH1 0x0 PUSH1 0x20 DUP3 ADD SWAP1 POP PUSH2 0x4D1 PUSH1 0x0 DUP4 ADD DUP5 PUSH2 0x4AD JUMP JUMPDEST SWAP3 SWAP2 POP POP JUMP JUMPDEST PUSH1 0x0 DUP2 PUSH1 0x0 SIGNEXTEND SWAP1 POP SWAP2 SWAP1 POP JUMP JUMPDEST PUSH2 0x4ED DUP2 PUSH2 0x4D7 JUMP JUMPDEST DUP3 MSTORE POP POP JUMP JUMPDEST PUSH1 0x0 PUSH1 0x20 DUP3 ADD SWAP1 POP PUSH2 0x508 PUSH1 0x0 DUP4 ADD DUP5 PUSH2 0x4E4 JUMP JUMPDEST SWAP3 SWAP2 POP POP JUMP JUMPDEST PUSH1 0x0 PUSH20 0xFFFFFFFFFFFFFFFFFFFFFFFFFFFFFFFFFFFFFFFF DUP3 AND SWAP1 POP SWAP2 SWAP1 POP JUMP JUMPDEST PUSH1 0x0 PUSH2 0x539 DUP3 PUSH2 0x50E JUMP JUMPDEST SWAP1 POP SWAP2 SWAP1 POP JUMP JUMPDEST PUSH2 0x549 DUP2 PUSH2 0x52E JUMP JUMPDEST DUP3 MSTORE POP POP JUMP JUMPDEST PUSH1 0x0 PUSH1 0x20 DUP3 ADD SWAP1 POP PUSH2 0x564 PUSH1 0x0 DUP4 ADD DUP5 PUSH2 0x540 JUMP JUMPDEST SWAP3 SWAP2 POP POP JUMP JUMPDEST PUSH1 0x0 PUSH32 0xFFFFFFFF00000000000000000000000000000000000000000000000000000000 DUP3 AND SWAP1 POP SWAP2 SWAP1 POP JUMP JUMPDEST PUSH2 0x59F DUP2 PUSH2 0x56A JUMP JUMPDEST DUP3 MSTORE POP POP JUMP JUMPDEST PUSH1 0x0 PUSH1 0x20 DUP3 ADD SWAP1 POP PUSH2 0x5BA PUSH1 0x0 DUP4 ADD DUP5 PUSH2 0x596 JUMP JUMPDEST SWAP3 SWAP2 POP POP JUMP JUMPDEST PUSH32 0x4E487B7100000000000000000000000000000000000000000000000000000000 PUSH1 0x0 MSTORE PUSH1 0x22 PUSH1 0x4 MSTORE PUSH1 0x24 PUSH1 0x0 REVERT JUMPDEST PUSH1 0x0 PUSH1 0x2 DUP3 DIV SWAP1 POP PUSH1 0x1 DUP3 AND DUP1 PUSH2 0x607 JUMPI PUSH1 0x7F DUP3 AND SWAP2 POP JUMPDEST PUSH1 0x20 DUP3 LT DUP2 SUB PUSH2 0x61A JUMPI PUSH2 0x619 PUSH2 0x5C0 JUMP JUMPDEST JUMPDEST POP SWAP2 SWAP1 POP JUMP INVALID LOG2 PUSH5 0x6970667358 0x22 SLT KECCAK256 SWAP3 SWAP7 0xC3 0xD3 PUSH26 0x66A686CA3008A2D510B494AA5F0F36653701D06DF793B361F454 0xA5 PUSH5 0x736F6C6343 STOP ADDMOD SLT STOP CALLER "
				},
				"gasEstimates": {
					"creation": {
						"codeDepositCost": "324400",
						"executionCost": "infinite",
						"totalCost": "infinite"
					},
					"external": {
						"addr()": "2536",
						"b()": "2557",
						"b1()": "2631",
						"b2()": "2544",
						"b3()": "2609",
						"b4()": "2588",
						"b5()": "2587",
						"bt()": "2565",
						"bt2()": "infinite",
						"it()": "2525",
						"it2()": "2632",
						"it3()": "2430"
					}
				},
				"methodIdentifiers": {
					"addr()": "767800de",
					"b()": "4df7e3d0",
					"b1()": "ee495002",
					"b2()": "0add6ef2",
					"b3()": "e9b61909",
					"b4()": "3db3fb0a",
					"b5()": "cb2182c5",
					"bt()": "ac9c1959",
					"bt2()": "2c622fae",
					"it()": "5ce692f2",
					"it2()": "5ab9e50e",
					"it3()": "03806605"
				}
			},
			"storageLayout": {
				"storage": [
					{
						"astId": 4,
						"contract": "lecture/DataType.sol:lec2",
						"label": "b",
						"offset": 0,
						"slot": "0",
						"type": "t_bool"
					},
					{
						"astId": 8,
						"contract": "lecture/DataType.sol:lec2",
						"label": "b1",
						"offset": 1,
						"slot": "0",
						"type": "t_bool"
					},
					{
						"astId": 13,
						"contract": "lecture/DataType.sol:lec2",
						"label": "b2",
						"offset": 2,
						"slot": "0",
						"type": "t_bool"
					},
					{
						"astId": 18,
						"contract": "lecture/DataType.sol:lec2",
						"label": "b3",
						"offset": 3,
						"slot": "0",
						"type": "t_bool"
					},
					{
						"astId": 23,
						"contract": "lecture/DataType.sol:lec2",
						"label": "b4",
						"offset": 4,
						"slot": "0",
						"type": "t_bool"
					},
					{
						"astId": 28,
						"contract": "lecture/DataType.sol:lec2",
						"label": "b5",
						"offset": 5,
						"slot": "0",
						"type": "t_bool"
					},
					{
						"astId": 31,
						"contract": "lecture/DataType.sol:lec2",
						"label": "bt",
						"offset": 6,
						"slot": "0",
						"type": "t_bytes4"
					},
					{
						"astId": 34,
						"contract": "lecture/DataType.sol:lec2",
						"label": "bt2",
						"offset": 0,
						"slot": "1",
						"type": "t_bytes_storage"
					},
					{
						"astId": 37,
						"contract": "lecture/DataType.sol:lec2",
						"label": "addr",
						"offset": 0,
						"slot": "2",
						"type": "t_address"
					},
					{
						"astId": 41,
						"contract": "lecture/DataType.sol:lec2",
						"label": "it",
						"offset": 20,
						"slot": "2",
						"type": "t_int8"
					},
					{
						"astId": 44,
						"contract": "lecture/DataType.sol:lec2",
						"label": "it2",
						"offset": 21,
						"slot": "2",
						"type": "t_uint8"
					},
					{
						"astId": 47,
						"contract": "lecture/DataType.sol:lec2",
						"label": "it3",
						"offset": 0,
						"slot": "3",
						"type": "t_uint256"
					}
				],
				"types": {
					"t_address": {
						"encoding": "inplace",
						"label": "address",
						"numberOfBytes": "20"
					},
					"t_bool": {
						"encoding": "inplace",
						"label": "bool",
						"numberOfBytes": "1"
					},
					"t_bytes4": {
						"encoding": "inplace",
						"label": "bytes4",
						"numberOfBytes": "4"
					},
					"t_bytes_storage": {
						"encoding": "bytes",
						"label": "bytes",
						"numberOfBytes": "32"
					},
					"t_int8": {
						"encoding": "inplace",
						"label": "int8",
						"numberOfBytes": "1"
					},
					"t_uint256": {
						"encoding": "inplace",
						"label": "uint256",
						"numberOfBytes": "32"
					},
					"t_uint8": {
						"encoding": "inplace",
						"label": "uint8",
						"numberOfBytes": "1"
					}
				}
			},
			"userdoc": {
				"kind": "user",
				"methods": {},
				"version": 1
			}
		}
	}
}