{
	"lecture/38_interface.sol": {
		"lec39": {
			"abi": [
				{
					"inputs": [
						{
							"internalType": "uint256",
							"name": "",
							"type": "uint256"
						}
					],
					"name": "a",
					"outputs": [
						{
							"internalType": "uint256",
							"name": "",
							"type": "uint256"
						}
					],
					"stateMutability": "view",
					"type": "function"
				},
				{
					"inputs": [
						{
							"internalType": "string",
							"name": "_name",
							"type": "string"
						},
						{
							"internalType": "uint256",
							"name": "_price",
							"type": "uint256"
						}
					],
					"name": "addItemInfo",
					"outputs": [],
					"stateMutability": "nonpayable",
					"type": "function"
				},
				{
					"inputs": [
						{
							"internalType": "uint256",
							"name": "_index",
							"type": "uint256"
						}
					],
					"name": "getItemInfo",
					"outputs": [
						{
							"components": [
								{
									"internalType": "string",
									"name": "name",
									"type": "string"
								},
								{
									"internalType": "uint256",
									"name": "price",
									"type": "uint256"
								}
							],
							"internalType": "struct ItemInfo.item",
							"name": "",
							"type": "tuple"
						}
					],
					"stateMutability": "view",
					"type": "function"
				},
				{
					"inputs": [
						{
							"internalType": "uint256",
							"name": "",
							"type": "uint256"
						}
					],
					"name": "itemList",
					"outputs": [
						{
							"internalType": "string",
							"name": "name",
							"type": "string"
						},
						{
							"internalType": "uint256",
							"name": "price",
							"type": "uint256"
						}
					],
					"stateMutability": "view",
					"type": "function"
				}
			],
			"devdoc": {
				"kind": "dev",
				"methods": {},
				"version": 1
			},
			"evm": {
				"assembly": "    /* \"lecture/38_interface.sol\":570:1018  contract lec39 is ItemInfo{... */\n  mstore(0x40, 0x80)\n  callvalue\n  dup1\n  iszero\n  tag_1\n  jumpi\n  0x00\n  dup1\n  revert\ntag_1:\n  pop\n  dataSize(sub_0)\n  dup1\n  dataOffset(sub_0)\n  0x00\n  codecopy\n  0x00\n  return\nstop\n\nsub_0: assembly {\n        /* \"lecture/38_interface.sol\":570:1018  contract lec39 is ItemInfo{... */\n      mstore(0x40, 0x80)\n      callvalue\n      dup1\n      iszero\n      tag_1\n      jumpi\n      0x00\n      dup1\n      revert\n    tag_1:\n      pop\n      jumpi(tag_2, lt(calldatasize, 0x04))\n      shr(0xe0, calldataload(0x00))\n      dup1\n      0x3d4d3600\n      eq\n      tag_3\n      jumpi\n      dup1\n      0x7ba41e6f\n      eq\n      tag_4\n      jumpi\n      dup1\n      0xde7fe3e7\n      eq\n      tag_5\n      jumpi\n      dup1\n      0xf0fdf834\n      eq\n      tag_6\n      jumpi\n    tag_2:\n      0x00\n      dup1\n      revert\n        /* \"lecture/38_interface.sol\":637:659  item[] public itemList */\n    tag_3:\n      tag_7\n      0x04\n      dup1\n      calldatasize\n      sub\n      dup2\n      add\n      swap1\n      tag_8\n      swap2\n      swap1\n      tag_9\n      jump\t// in\n    tag_8:\n      tag_10\n      jump\t// in\n    tag_7:\n      mload(0x40)\n      tag_11\n      swap3\n      swap2\n      swap1\n      tag_12\n      jump\t// in\n    tag_11:\n      mload(0x40)\n      dup1\n      swap2\n      sub\n      swap1\n      return\n        /* \"lecture/38_interface.sol\":769:892  function addItemInfo(string memory _name,uint256 _price) override public {... */\n    tag_4:\n      tag_13\n      0x04\n      dup1\n      calldatasize\n      sub\n      dup2\n      add\n      swap1\n      tag_14\n      swap2\n      swap1\n      tag_15\n      jump\t// in\n    tag_14:\n      tag_16\n      jump\t// in\n    tag_13:\n      stop\n        /* \"lecture/38_interface.sol\":897:1016  function getItemInfo(uint256 _index) override public view returns(item memory) {... */\n    tag_5:\n      tag_17\n      0x04\n      dup1\n      calldatasize\n      sub\n      dup2\n      add\n      swap1\n      tag_18\n      swap2\n      swap1\n      tag_9\n      jump\t// in\n    tag_18:\n      tag_19\n      jump\t// in\n    tag_17:\n      mload(0x40)\n      tag_20\n      swap2\n      swap1\n      tag_21\n      jump\t// in\n    tag_20:\n      mload(0x40)\n      dup1\n      swap2\n      sub\n      swap1\n      return\n        /* \"lecture/38_interface.sol\":665:680  uint[] public a */\n    tag_6:\n      tag_22\n      0x04\n      dup1\n      calldatasize\n      sub\n      dup2\n      add\n      swap1\n      tag_23\n      swap2\n      swap1\n      tag_9\n      jump\t// in\n    tag_23:\n      tag_24\n      jump\t// in\n    tag_22:\n      mload(0x40)\n      tag_25\n      swap2\n      swap1\n      tag_26\n      jump\t// in\n    tag_25:\n      mload(0x40)\n      dup1\n      swap2\n      sub\n      swap1\n      return\n        /* \"lecture/38_interface.sol\":637:659  item[] public itemList */\n    tag_10:\n      0x00\n      dup2\n      dup2\n      sload\n      dup2\n      lt\n      tag_27\n      jumpi\n      0x00\n      dup1\n      revert\n    tag_27:\n      swap1\n      0x00\n      mstore\n      keccak256(0x00, 0x20)\n      swap1\n      0x02\n      mul\n      add\n      0x00\n      swap2\n      pop\n      swap1\n      pop\n      dup1\n      0x00\n      add\n      dup1\n      sload\n      tag_29\n      swap1\n      tag_30\n      jump\t// in\n    tag_29:\n      dup1\n      0x1f\n      add\n      0x20\n      dup1\n      swap2\n      div\n      mul\n      0x20\n      add\n      mload(0x40)\n      swap1\n      dup2\n      add\n      0x40\n      mstore\n      dup1\n      swap3\n      swap2\n      swap1\n      dup2\n      dup2\n      mstore\n      0x20\n      add\n      dup3\n      dup1\n      sload\n      tag_31\n      swap1\n      tag_30\n      jump\t// in\n    tag_31:\n      dup1\n      iszero\n      tag_32\n      jumpi\n      dup1\n      0x1f\n      lt\n      tag_33\n      jumpi\n      0x0100\n      dup1\n      dup4\n      sload\n      div\n      mul\n      dup4\n      mstore\n      swap2\n      0x20\n      add\n      swap2\n      jump(tag_32)\n    tag_33:\n      dup3\n      add\n      swap2\n      swap1\n      0x00\n      mstore\n      keccak256(0x00, 0x20)\n      swap1\n    tag_34:\n      dup2\n      sload\n      dup2\n      mstore\n      swap1\n      0x01\n      add\n      swap1\n      0x20\n      add\n      dup1\n      dup4\n      gt\n      tag_34\n      jumpi\n      dup3\n      swap1\n      sub\n      0x1f\n      and\n      dup3\n      add\n      swap2\n    tag_32:\n      pop\n      pop\n      pop\n      pop\n      pop\n      swap1\n      dup1\n      0x01\n      add\n      sload\n      swap1\n      pop\n      dup3\n      jump\t// out\n        /* \"lecture/38_interface.sol\":769:892  function addItemInfo(string memory _name,uint256 _price) override public {... */\n    tag_16:\n        /* \"lecture/38_interface.sol\":852:860  itemList */\n      0x00\n        /* \"lecture/38_interface.sol\":866:884  item(_name,_price) */\n      mload(0x40)\n      dup1\n      0x40\n      add\n      0x40\n      mstore\n      dup1\n        /* \"lecture/38_interface.sol\":871:876  _name */\n      dup5\n        /* \"lecture/38_interface.sol\":866:884  item(_name,_price) */\n      dup2\n      mstore\n      0x20\n      add\n        /* \"lecture/38_interface.sol\":877:883  _price */\n      dup4\n        /* \"lecture/38_interface.sol\":866:884  item(_name,_price) */\n      dup2\n      mstore\n      pop\n        /* \"lecture/38_interface.sol\":852:885  itemList.push(item(_name,_price)) */\n      swap1\n      dup1\n      0x01\n      dup2\n      sload\n      add\n      dup1\n      dup3\n      sstore\n      dup1\n      swap2\n      pop\n      pop\n      0x01\n      swap1\n      sub\n      swap1\n      0x00\n      mstore\n      keccak256(0x00, 0x20)\n      swap1\n      0x02\n      mul\n      add\n      0x00\n      swap1\n      swap2\n      swap1\n      swap2\n      swap1\n      swap2\n      pop\n      0x00\n      dup3\n      add\n      mload\n      dup2\n      0x00\n      add\n      swap1\n      dup2\n      tag_37\n      swap2\n      swap1\n      tag_38\n      jump\t// in\n    tag_37:\n      pop\n      0x20\n      dup3\n      add\n      mload\n      dup2\n      0x01\n      add\n      sstore\n      pop\n      pop\n        /* \"lecture/38_interface.sol\":769:892  function addItemInfo(string memory _name,uint256 _price) override public {... */\n      pop\n      pop\n      jump\t// out\n        /* \"lecture/38_interface.sol\":897:1016  function getItemInfo(uint256 _index) override public view returns(item memory) {... */\n    tag_19:\n        /* \"lecture/38_interface.sol\":963:974  item memory */\n      tag_39\n      tag_40\n      jump\t// in\n    tag_39:\n        /* \"lecture/38_interface.sol\":993:1001  itemList */\n      0x00\n        /* \"lecture/38_interface.sol\":1002:1008  _index */\n      dup3\n        /* \"lecture/38_interface.sol\":993:1009  itemList[_index] */\n      dup2\n      sload\n      dup2\n      lt\n      tag_42\n      jumpi\n      tag_43\n      tag_44\n      jump\t// in\n    tag_43:\n    tag_42:\n      swap1\n      0x00\n      mstore\n      keccak256(0x00, 0x20)\n      swap1\n      0x02\n      mul\n      add\n        /* \"lecture/38_interface.sol\":986:1009  return itemList[_index] */\n      mload(0x40)\n      dup1\n      0x40\n      add\n      0x40\n      mstore\n      swap1\n      dup2\n      0x00\n      dup3\n      add\n      dup1\n      sload\n      tag_46\n      swap1\n      tag_30\n      jump\t// in\n    tag_46:\n      dup1\n      0x1f\n      add\n      0x20\n      dup1\n      swap2\n      div\n      mul\n      0x20\n      add\n      mload(0x40)\n      swap1\n      dup2\n      add\n      0x40\n      mstore\n      dup1\n      swap3\n      swap2\n      swap1\n      dup2\n      dup2\n      mstore\n      0x20\n      add\n      dup3\n      dup1\n      sload\n      tag_47\n      swap1\n      tag_30\n      jump\t// in\n    tag_47:\n      dup1\n      iszero\n      tag_48\n      jumpi\n      dup1\n      0x1f\n      lt\n      tag_49\n      jumpi\n      0x0100\n      dup1\n      dup4\n      sload\n      div\n      mul\n      dup4\n      mstore\n      swap2\n      0x20\n      add\n      swap2\n      jump(tag_48)\n    tag_49:\n      dup3\n      add\n      swap2\n      swap1\n      0x00\n      mstore\n      keccak256(0x00, 0x20)\n      swap1\n    tag_50:\n      dup2\n      sload\n      dup2\n      mstore\n      swap1\n      0x01\n      add\n      swap1\n      0x20\n      add\n      dup1\n      dup4\n      gt\n      tag_50\n      jumpi\n      dup3\n      swap1\n      sub\n      0x1f\n      and\n      dup3\n      add\n      swap2\n    tag_48:\n      pop\n      pop\n      pop\n      pop\n      pop\n      dup2\n      mstore\n      0x20\n      add\n      0x01\n      dup3\n      add\n      sload\n      dup2\n      mstore\n      pop\n      pop\n      swap1\n      pop\n        /* \"lecture/38_interface.sol\":897:1016  function getItemInfo(uint256 _index) override public view returns(item memory) {... */\n      swap2\n      swap1\n      pop\n      jump\t// out\n        /* \"lecture/38_interface.sol\":665:680  uint[] public a */\n    tag_24:\n      0x01\n      dup2\n      dup2\n      sload\n      dup2\n      lt\n      tag_51\n      jumpi\n      0x00\n      dup1\n      revert\n    tag_51:\n      swap1\n      0x00\n      mstore\n      keccak256(0x00, 0x20)\n      add\n      0x00\n      swap2\n      pop\n      swap1\n      pop\n      sload\n      dup2\n      jump\t// out\n    tag_40:\n      mload(0x40)\n      dup1\n      0x40\n      add\n      0x40\n      mstore\n      dup1\n      0x60\n      dup2\n      mstore\n      0x20\n      add\n      0x00\n      dup2\n      mstore\n      pop\n      swap1\n      jump\t// out\n        /* \"#utility.yul\":7:82   */\n    tag_53:\n        /* \"#utility.yul\":40:46   */\n      0x00\n        /* \"#utility.yul\":73:75   */\n      0x40\n        /* \"#utility.yul\":67:76   */\n      mload\n        /* \"#utility.yul\":57:76   */\n      swap1\n      pop\n        /* \"#utility.yul\":7:82   */\n      swap1\n      jump\t// out\n        /* \"#utility.yul\":88:205   */\n    tag_54:\n        /* \"#utility.yul\":197:198   */\n      0x00\n        /* \"#utility.yul\":194:195   */\n      dup1\n        /* \"#utility.yul\":187:199   */\n      revert\n        /* \"#utility.yul\":211:328   */\n    tag_55:\n        /* \"#utility.yul\":320:321   */\n      0x00\n        /* \"#utility.yul\":317:318   */\n      dup1\n        /* \"#utility.yul\":310:322   */\n      revert\n        /* \"#utility.yul\":334:411   */\n    tag_56:\n        /* \"#utility.yul\":371:378   */\n      0x00\n        /* \"#utility.yul\":400:405   */\n      dup2\n        /* \"#utility.yul\":389:405   */\n      swap1\n      pop\n        /* \"#utility.yul\":334:411   */\n      swap2\n      swap1\n      pop\n      jump\t// out\n        /* \"#utility.yul\":417:539   */\n    tag_57:\n        /* \"#utility.yul\":490:514   */\n      tag_100\n        /* \"#utility.yul\":508:513   */\n      dup2\n        /* \"#utility.yul\":490:514   */\n      tag_56\n      jump\t// in\n    tag_100:\n        /* \"#utility.yul\":483:488   */\n      dup2\n        /* \"#utility.yul\":480:515   */\n      eq\n        /* \"#utility.yul\":470:533   */\n      tag_101\n      jumpi\n        /* \"#utility.yul\":529:530   */\n      0x00\n        /* \"#utility.yul\":526:527   */\n      dup1\n        /* \"#utility.yul\":519:531   */\n      revert\n        /* \"#utility.yul\":470:533   */\n    tag_101:\n        /* \"#utility.yul\":417:539   */\n      pop\n      jump\t// out\n        /* \"#utility.yul\":545:684   */\n    tag_58:\n        /* \"#utility.yul\":591:596   */\n      0x00\n        /* \"#utility.yul\":629:635   */\n      dup2\n        /* \"#utility.yul\":616:636   */\n      calldataload\n        /* \"#utility.yul\":607:636   */\n      swap1\n      pop\n        /* \"#utility.yul\":645:678   */\n      tag_103\n        /* \"#utility.yul\":672:677   */\n      dup2\n        /* \"#utility.yul\":645:678   */\n      tag_57\n      jump\t// in\n    tag_103:\n        /* \"#utility.yul\":545:684   */\n      swap3\n      swap2\n      pop\n      pop\n      jump\t// out\n        /* \"#utility.yul\":690:1019   */\n    tag_9:\n        /* \"#utility.yul\":749:755   */\n      0x00\n        /* \"#utility.yul\":798:800   */\n      0x20\n        /* \"#utility.yul\":786:795   */\n      dup3\n        /* \"#utility.yul\":777:784   */\n      dup5\n        /* \"#utility.yul\":773:796   */\n      sub\n        /* \"#utility.yul\":769:801   */\n      slt\n        /* \"#utility.yul\":766:885   */\n      iszero\n      tag_105\n      jumpi\n        /* \"#utility.yul\":804:883   */\n      tag_106\n      tag_54\n      jump\t// in\n    tag_106:\n        /* \"#utility.yul\":766:885   */\n    tag_105:\n        /* \"#utility.yul\":924:925   */\n      0x00\n        /* \"#utility.yul\":949:1002   */\n      tag_107\n        /* \"#utility.yul\":994:1001   */\n      dup5\n        /* \"#utility.yul\":985:991   */\n      dup3\n        /* \"#utility.yul\":974:983   */\n      dup6\n        /* \"#utility.yul\":970:992   */\n      add\n        /* \"#utility.yul\":949:1002   */\n      tag_58\n      jump\t// in\n    tag_107:\n        /* \"#utility.yul\":939:1002   */\n      swap2\n      pop\n        /* \"#utility.yul\":895:1012   */\n      pop\n        /* \"#utility.yul\":690:1019   */\n      swap3\n      swap2\n      pop\n      pop\n      jump\t// out\n        /* \"#utility.yul\":1025:1124   */\n    tag_59:\n        /* \"#utility.yul\":1077:1083   */\n      0x00\n        /* \"#utility.yul\":1111:1116   */\n      dup2\n        /* \"#utility.yul\":1105:1117   */\n      mload\n        /* \"#utility.yul\":1095:1117   */\n      swap1\n      pop\n        /* \"#utility.yul\":1025:1124   */\n      swap2\n      swap1\n      pop\n      jump\t// out\n        /* \"#utility.yul\":1130:1299   */\n    tag_60:\n        /* \"#utility.yul\":1214:1225   */\n      0x00\n        /* \"#utility.yul\":1248:1254   */\n      dup3\n        /* \"#utility.yul\":1243:1246   */\n      dup3\n        /* \"#utility.yul\":1236:1255   */\n      mstore\n        /* \"#utility.yul\":1288:1292   */\n      0x20\n        /* \"#utility.yul\":1283:1286   */\n      dup3\n        /* \"#utility.yul\":1279:1293   */\n      add\n        /* \"#utility.yul\":1264:1293   */\n      swap1\n      pop\n        /* \"#utility.yul\":1130:1299   */\n      swap3\n      swap2\n      pop\n      pop\n      jump\t// out\n        /* \"#utility.yul\":1305:1551   */\n    tag_61:\n        /* \"#utility.yul\":1386:1387   */\n      0x00\n        /* \"#utility.yul\":1396:1509   */\n    tag_111:\n        /* \"#utility.yul\":1410:1416   */\n      dup4\n        /* \"#utility.yul\":1407:1408   */\n      dup2\n        /* \"#utility.yul\":1404:1417   */\n      lt\n        /* \"#utility.yul\":1396:1509   */\n      iszero\n      tag_113\n      jumpi\n        /* \"#utility.yul\":1495:1496   */\n      dup1\n        /* \"#utility.yul\":1490:1493   */\n      dup3\n        /* \"#utility.yul\":1486:1497   */\n      add\n        /* \"#utility.yul\":1480:1498   */\n      mload\n        /* \"#utility.yul\":1476:1477   */\n      dup2\n        /* \"#utility.yul\":1471:1474   */\n      dup5\n        /* \"#utility.yul\":1467:1478   */\n      add\n        /* \"#utility.yul\":1460:1499   */\n      mstore\n        /* \"#utility.yul\":1432:1434   */\n      0x20\n        /* \"#utility.yul\":1429:1430   */\n      dup2\n        /* \"#utility.yul\":1425:1435   */\n      add\n        /* \"#utility.yul\":1420:1435   */\n      swap1\n      pop\n        /* \"#utility.yul\":1396:1509   */\n      jump(tag_111)\n    tag_113:\n        /* \"#utility.yul\":1543:1544   */\n      0x00\n        /* \"#utility.yul\":1534:1540   */\n      dup5\n        /* \"#utility.yul\":1529:1532   */\n      dup5\n        /* \"#utility.yul\":1525:1541   */\n      add\n        /* \"#utility.yul\":1518:1545   */\n      mstore\n        /* \"#utility.yul\":1367:1551   */\n      pop\n        /* \"#utility.yul\":1305:1551   */\n      pop\n      pop\n      pop\n      jump\t// out\n        /* \"#utility.yul\":1557:1659   */\n    tag_62:\n        /* \"#utility.yul\":1598:1604   */\n      0x00\n        /* \"#utility.yul\":1649:1651   */\n      0x1f\n        /* \"#utility.yul\":1645:1652   */\n      not\n        /* \"#utility.yul\":1640:1642   */\n      0x1f\n        /* \"#utility.yul\":1633:1638   */\n      dup4\n        /* \"#utility.yul\":1629:1643   */\n      add\n        /* \"#utility.yul\":1625:1653   */\n      and\n        /* \"#utility.yul\":1615:1653   */\n      swap1\n      pop\n        /* \"#utility.yul\":1557:1659   */\n      swap2\n      swap1\n      pop\n      jump\t// out\n        /* \"#utility.yul\":1665:2042   */\n    tag_63:\n        /* \"#utility.yul\":1753:1756   */\n      0x00\n        /* \"#utility.yul\":1781:1820   */\n      tag_116\n        /* \"#utility.yul\":1814:1819   */\n      dup3\n        /* \"#utility.yul\":1781:1820   */\n      tag_59\n      jump\t// in\n    tag_116:\n        /* \"#utility.yul\":1836:1907   */\n      tag_117\n        /* \"#utility.yul\":1900:1906   */\n      dup2\n        /* \"#utility.yul\":1895:1898   */\n      dup6\n        /* \"#utility.yul\":1836:1907   */\n      tag_60\n      jump\t// in\n    tag_117:\n        /* \"#utility.yul\":1829:1907   */\n      swap4\n      pop\n        /* \"#utility.yul\":1916:1981   */\n      tag_118\n        /* \"#utility.yul\":1974:1980   */\n      dup2\n        /* \"#utility.yul\":1969:1972   */\n      dup6\n        /* \"#utility.yul\":1962:1966   */\n      0x20\n        /* \"#utility.yul\":1955:1960   */\n      dup7\n        /* \"#utility.yul\":1951:1967   */\n      add\n        /* \"#utility.yul\":1916:1981   */\n      tag_61\n      jump\t// in\n    tag_118:\n        /* \"#utility.yul\":2006:2035   */\n      tag_119\n        /* \"#utility.yul\":2028:2034   */\n      dup2\n        /* \"#utility.yul\":2006:2035   */\n      tag_62\n      jump\t// in\n    tag_119:\n        /* \"#utility.yul\":2001:2004   */\n      dup5\n        /* \"#utility.yul\":1997:2036   */\n      add\n        /* \"#utility.yul\":1990:2036   */\n      swap2\n      pop\n        /* \"#utility.yul\":1757:2042   */\n      pop\n        /* \"#utility.yul\":1665:2042   */\n      swap3\n      swap2\n      pop\n      pop\n      jump\t// out\n        /* \"#utility.yul\":2048:2166   */\n    tag_64:\n        /* \"#utility.yul\":2135:2159   */\n      tag_121\n        /* \"#utility.yul\":2153:2158   */\n      dup2\n        /* \"#utility.yul\":2135:2159   */\n      tag_56\n      jump\t// in\n    tag_121:\n        /* \"#utility.yul\":2130:2133   */\n      dup3\n        /* \"#utility.yul\":2123:2160   */\n      mstore\n        /* \"#utility.yul\":2048:2166   */\n      pop\n      pop\n      jump\t// out\n        /* \"#utility.yul\":2172:2595   */\n    tag_12:\n        /* \"#utility.yul\":2313:2317   */\n      0x00\n        /* \"#utility.yul\":2351:2353   */\n      0x40\n        /* \"#utility.yul\":2340:2349   */\n      dup3\n        /* \"#utility.yul\":2336:2354   */\n      add\n        /* \"#utility.yul\":2328:2354   */\n      swap1\n      pop\n        /* \"#utility.yul\":2400:2409   */\n      dup2\n        /* \"#utility.yul\":2394:2398   */\n      dup2\n        /* \"#utility.yul\":2390:2410   */\n      sub\n        /* \"#utility.yul\":2386:2387   */\n      0x00\n        /* \"#utility.yul\":2375:2384   */\n      dup4\n        /* \"#utility.yul\":2371:2388   */\n      add\n        /* \"#utility.yul\":2364:2411   */\n      mstore\n        /* \"#utility.yul\":2428:2506   */\n      tag_123\n        /* \"#utility.yul\":2501:2505   */\n      dup2\n        /* \"#utility.yul\":2492:2498   */\n      dup6\n        /* \"#utility.yul\":2428:2506   */\n      tag_63\n      jump\t// in\n    tag_123:\n        /* \"#utility.yul\":2420:2506   */\n      swap1\n      pop\n        /* \"#utility.yul\":2516:2588   */\n      tag_124\n        /* \"#utility.yul\":2584:2586   */\n      0x20\n        /* \"#utility.yul\":2573:2582   */\n      dup4\n        /* \"#utility.yul\":2569:2587   */\n      add\n        /* \"#utility.yul\":2560:2566   */\n      dup5\n        /* \"#utility.yul\":2516:2588   */\n      tag_64\n      jump\t// in\n    tag_124:\n        /* \"#utility.yul\":2172:2595   */\n      swap4\n      swap3\n      pop\n      pop\n      pop\n      jump\t// out\n        /* \"#utility.yul\":2601:2718   */\n    tag_65:\n        /* \"#utility.yul\":2710:2711   */\n      0x00\n        /* \"#utility.yul\":2707:2708   */\n      dup1\n        /* \"#utility.yul\":2700:2712   */\n      revert\n        /* \"#utility.yul\":2724:2841   */\n    tag_66:\n        /* \"#utility.yul\":2833:2834   */\n      0x00\n        /* \"#utility.yul\":2830:2831   */\n      dup1\n        /* \"#utility.yul\":2823:2835   */\n      revert\n        /* \"#utility.yul\":2847:3027   */\n    tag_67:\n        /* \"#utility.yul\":2895:2972   */\n      0x4e487b7100000000000000000000000000000000000000000000000000000000\n        /* \"#utility.yul\":2892:2893   */\n      0x00\n        /* \"#utility.yul\":2885:2973   */\n      mstore\n        /* \"#utility.yul\":2992:2996   */\n      0x41\n        /* \"#utility.yul\":2989:2990   */\n      0x04\n        /* \"#utility.yul\":2982:2997   */\n      mstore\n        /* \"#utility.yul\":3016:3020   */\n      0x24\n        /* \"#utility.yul\":3013:3014   */\n      0x00\n        /* \"#utility.yul\":3006:3021   */\n      revert\n        /* \"#utility.yul\":3033:3314   */\n    tag_68:\n        /* \"#utility.yul\":3116:3143   */\n      tag_129\n        /* \"#utility.yul\":3138:3142   */\n      dup3\n        /* \"#utility.yul\":3116:3143   */\n      tag_62\n      jump\t// in\n    tag_129:\n        /* \"#utility.yul\":3108:3114   */\n      dup2\n        /* \"#utility.yul\":3104:3144   */\n      add\n        /* \"#utility.yul\":3246:3252   */\n      dup2\n        /* \"#utility.yul\":3234:3244   */\n      dup2\n        /* \"#utility.yul\":3231:3253   */\n      lt\n        /* \"#utility.yul\":3210:3228   */\n      0xffffffffffffffff\n        /* \"#utility.yul\":3198:3208   */\n      dup3\n        /* \"#utility.yul\":3195:3229   */\n      gt\n        /* \"#utility.yul\":3192:3254   */\n      or\n        /* \"#utility.yul\":3189:3277   */\n      iszero\n      tag_130\n      jumpi\n        /* \"#utility.yul\":3257:3275   */\n      tag_131\n      tag_67\n      jump\t// in\n    tag_131:\n        /* \"#utility.yul\":3189:3277   */\n    tag_130:\n        /* \"#utility.yul\":3297:3307   */\n      dup1\n        /* \"#utility.yul\":3293:3295   */\n      0x40\n        /* \"#utility.yul\":3286:3308   */\n      mstore\n        /* \"#utility.yul\":3076:3314   */\n      pop\n        /* \"#utility.yul\":3033:3314   */\n      pop\n      pop\n      jump\t// out\n        /* \"#utility.yul\":3320:3449   */\n    tag_69:\n        /* \"#utility.yul\":3354:3360   */\n      0x00\n        /* \"#utility.yul\":3381:3401   */\n      tag_133\n      tag_53\n      jump\t// in\n    tag_133:\n        /* \"#utility.yul\":3371:3401   */\n      swap1\n      pop\n        /* \"#utility.yul\":3410:3443   */\n      tag_134\n        /* \"#utility.yul\":3438:3442   */\n      dup3\n        /* \"#utility.yul\":3430:3436   */\n      dup3\n        /* \"#utility.yul\":3410:3443   */\n      tag_68\n      jump\t// in\n    tag_134:\n        /* \"#utility.yul\":3320:3449   */\n      swap2\n      swap1\n      pop\n      jump\t// out\n        /* \"#utility.yul\":3455:3763   */\n    tag_70:\n        /* \"#utility.yul\":3517:3521   */\n      0x00\n        /* \"#utility.yul\":3607:3625   */\n      0xffffffffffffffff\n        /* \"#utility.yul\":3599:3605   */\n      dup3\n        /* \"#utility.yul\":3596:3626   */\n      gt\n        /* \"#utility.yul\":3593:3649   */\n      iszero\n      tag_136\n      jumpi\n        /* \"#utility.yul\":3629:3647   */\n      tag_137\n      tag_67\n      jump\t// in\n    tag_137:\n        /* \"#utility.yul\":3593:3649   */\n    tag_136:\n        /* \"#utility.yul\":3667:3696   */\n      tag_138\n        /* \"#utility.yul\":3689:3695   */\n      dup3\n        /* \"#utility.yul\":3667:3696   */\n      tag_62\n      jump\t// in\n    tag_138:\n        /* \"#utility.yul\":3659:3696   */\n      swap1\n      pop\n        /* \"#utility.yul\":3751:3755   */\n      0x20\n        /* \"#utility.yul\":3745:3749   */\n      dup2\n        /* \"#utility.yul\":3741:3756   */\n      add\n        /* \"#utility.yul\":3733:3756   */\n      swap1\n      pop\n        /* \"#utility.yul\":3455:3763   */\n      swap2\n      swap1\n      pop\n      jump\t// out\n        /* \"#utility.yul\":3769:3915   */\n    tag_71:\n        /* \"#utility.yul\":3866:3872   */\n      dup3\n        /* \"#utility.yul\":3861:3864   */\n      dup2\n        /* \"#utility.yul\":3856:3859   */\n      dup4\n        /* \"#utility.yul\":3843:3873   */\n      calldatacopy\n        /* \"#utility.yul\":3907:3908   */\n      0x00\n        /* \"#utility.yul\":3898:3904   */\n      dup4\n        /* \"#utility.yul\":3893:3896   */\n      dup4\n        /* \"#utility.yul\":3889:3905   */\n      add\n        /* \"#utility.yul\":3882:3909   */\n      mstore\n        /* \"#utility.yul\":3769:3915   */\n      pop\n      pop\n      pop\n      jump\t// out\n        /* \"#utility.yul\":3921:4346   */\n    tag_72:\n        /* \"#utility.yul\":3999:4004   */\n      0x00\n        /* \"#utility.yul\":4024:4090   */\n      tag_141\n        /* \"#utility.yul\":4040:4089   */\n      tag_142\n        /* \"#utility.yul\":4082:4088   */\n      dup5\n        /* \"#utility.yul\":4040:4089   */\n      tag_70\n      jump\t// in\n    tag_142:\n        /* \"#utility.yul\":4024:4090   */\n      tag_69\n      jump\t// in\n    tag_141:\n        /* \"#utility.yul\":4015:4090   */\n      swap1\n      pop\n        /* \"#utility.yul\":4113:4119   */\n      dup3\n        /* \"#utility.yul\":4106:4111   */\n      dup2\n        /* \"#utility.yul\":4099:4120   */\n      mstore\n        /* \"#utility.yul\":4151:4155   */\n      0x20\n        /* \"#utility.yul\":4144:4149   */\n      dup2\n        /* \"#utility.yul\":4140:4156   */\n      add\n        /* \"#utility.yul\":4189:4192   */\n      dup5\n        /* \"#utility.yul\":4180:4186   */\n      dup5\n        /* \"#utility.yul\":4175:4178   */\n      dup5\n        /* \"#utility.yul\":4171:4187   */\n      add\n        /* \"#utility.yul\":4168:4193   */\n      gt\n        /* \"#utility.yul\":4165:4277   */\n      iszero\n      tag_143\n      jumpi\n        /* \"#utility.yul\":4196:4275   */\n      tag_144\n      tag_66\n      jump\t// in\n    tag_144:\n        /* \"#utility.yul\":4165:4277   */\n    tag_143:\n        /* \"#utility.yul\":4286:4340   */\n      tag_145\n        /* \"#utility.yul\":4333:4339   */\n      dup5\n        /* \"#utility.yul\":4328:4331   */\n      dup3\n        /* \"#utility.yul\":4323:4326   */\n      dup6\n        /* \"#utility.yul\":4286:4340   */\n      tag_71\n      jump\t// in\n    tag_145:\n        /* \"#utility.yul\":4005:4346   */\n      pop\n        /* \"#utility.yul\":3921:4346   */\n      swap4\n      swap3\n      pop\n      pop\n      pop\n      jump\t// out\n        /* \"#utility.yul\":4366:4706   */\n    tag_73:\n        /* \"#utility.yul\":4422:4427   */\n      0x00\n        /* \"#utility.yul\":4471:4474   */\n      dup3\n        /* \"#utility.yul\":4464:4468   */\n      0x1f\n        /* \"#utility.yul\":4456:4462   */\n      dup4\n        /* \"#utility.yul\":4452:4469   */\n      add\n        /* \"#utility.yul\":4448:4475   */\n      slt\n        /* \"#utility.yul\":4438:4560   */\n      tag_147\n      jumpi\n        /* \"#utility.yul\":4479:4558   */\n      tag_148\n      tag_65\n      jump\t// in\n    tag_148:\n        /* \"#utility.yul\":4438:4560   */\n    tag_147:\n        /* \"#utility.yul\":4596:4602   */\n      dup2\n        /* \"#utility.yul\":4583:4603   */\n      calldataload\n        /* \"#utility.yul\":4621:4700   */\n      tag_149\n        /* \"#utility.yul\":4696:4699   */\n      dup5\n        /* \"#utility.yul\":4688:4694   */\n      dup3\n        /* \"#utility.yul\":4681:4685   */\n      0x20\n        /* \"#utility.yul\":4673:4679   */\n      dup7\n        /* \"#utility.yul\":4669:4686   */\n      add\n        /* \"#utility.yul\":4621:4700   */\n      tag_72\n      jump\t// in\n    tag_149:\n        /* \"#utility.yul\":4612:4700   */\n      swap2\n      pop\n        /* \"#utility.yul\":4428:4706   */\n      pop\n        /* \"#utility.yul\":4366:4706   */\n      swap3\n      swap2\n      pop\n      pop\n      jump\t// out\n        /* \"#utility.yul\":4712:5366   */\n    tag_15:\n        /* \"#utility.yul\":4790:4796   */\n      0x00\n        /* \"#utility.yul\":4798:4804   */\n      dup1\n        /* \"#utility.yul\":4847:4849   */\n      0x40\n        /* \"#utility.yul\":4835:4844   */\n      dup4\n        /* \"#utility.yul\":4826:4833   */\n      dup6\n        /* \"#utility.yul\":4822:4845   */\n      sub\n        /* \"#utility.yul\":4818:4850   */\n      slt\n        /* \"#utility.yul\":4815:4934   */\n      iszero\n      tag_151\n      jumpi\n        /* \"#utility.yul\":4853:4932   */\n      tag_152\n      tag_54\n      jump\t// in\n    tag_152:\n        /* \"#utility.yul\":4815:4934   */\n    tag_151:\n        /* \"#utility.yul\":5001:5002   */\n      0x00\n        /* \"#utility.yul\":4990:4999   */\n      dup4\n        /* \"#utility.yul\":4986:5003   */\n      add\n        /* \"#utility.yul\":4973:5004   */\n      calldataload\n        /* \"#utility.yul\":5031:5049   */\n      0xffffffffffffffff\n        /* \"#utility.yul\":5023:5029   */\n      dup2\n        /* \"#utility.yul\":5020:5050   */\n      gt\n        /* \"#utility.yul\":5017:5134   */\n      iszero\n      tag_153\n      jumpi\n        /* \"#utility.yul\":5053:5132   */\n      tag_154\n      tag_55\n      jump\t// in\n    tag_154:\n        /* \"#utility.yul\":5017:5134   */\n    tag_153:\n        /* \"#utility.yul\":5158:5221   */\n      tag_155\n        /* \"#utility.yul\":5213:5220   */\n      dup6\n        /* \"#utility.yul\":5204:5210   */\n      dup3\n        /* \"#utility.yul\":5193:5202   */\n      dup7\n        /* \"#utility.yul\":5189:5211   */\n      add\n        /* \"#utility.yul\":5158:5221   */\n      tag_73\n      jump\t// in\n    tag_155:\n        /* \"#utility.yul\":5148:5221   */\n      swap3\n      pop\n        /* \"#utility.yul\":4944:5231   */\n      pop\n        /* \"#utility.yul\":5270:5272   */\n      0x20\n        /* \"#utility.yul\":5296:5349   */\n      tag_156\n        /* \"#utility.yul\":5341:5348   */\n      dup6\n        /* \"#utility.yul\":5332:5338   */\n      dup3\n        /* \"#utility.yul\":5321:5330   */\n      dup7\n        /* \"#utility.yul\":5317:5339   */\n      add\n        /* \"#utility.yul\":5296:5349   */\n      tag_58\n      jump\t// in\n    tag_156:\n        /* \"#utility.yul\":5286:5349   */\n      swap2\n      pop\n        /* \"#utility.yul\":5241:5359   */\n      pop\n        /* \"#utility.yul\":4712:5366   */\n      swap3\n      pop\n      swap3\n      swap1\n      pop\n      jump\t// out\n        /* \"#utility.yul\":5372:5531   */\n    tag_74:\n        /* \"#utility.yul\":5446:5457   */\n      0x00\n        /* \"#utility.yul\":5480:5486   */\n      dup3\n        /* \"#utility.yul\":5475:5478   */\n      dup3\n        /* \"#utility.yul\":5468:5487   */\n      mstore\n        /* \"#utility.yul\":5520:5524   */\n      0x20\n        /* \"#utility.yul\":5515:5518   */\n      dup3\n        /* \"#utility.yul\":5511:5525   */\n      add\n        /* \"#utility.yul\":5496:5525   */\n      swap1\n      pop\n        /* \"#utility.yul\":5372:5531   */\n      swap3\n      swap2\n      pop\n      pop\n      jump\t// out\n        /* \"#utility.yul\":5537:5894   */\n    tag_75:\n        /* \"#utility.yul\":5615:5618   */\n      0x00\n        /* \"#utility.yul\":5643:5682   */\n      tag_159\n        /* \"#utility.yul\":5676:5681   */\n      dup3\n        /* \"#utility.yul\":5643:5682   */\n      tag_59\n      jump\t// in\n    tag_159:\n        /* \"#utility.yul\":5698:5759   */\n      tag_160\n        /* \"#utility.yul\":5752:5758   */\n      dup2\n        /* \"#utility.yul\":5747:5750   */\n      dup6\n        /* \"#utility.yul\":5698:5759   */\n      tag_74\n      jump\t// in\n    tag_160:\n        /* \"#utility.yul\":5691:5759   */\n      swap4\n      pop\n        /* \"#utility.yul\":5768:5833   */\n      tag_161\n        /* \"#utility.yul\":5826:5832   */\n      dup2\n        /* \"#utility.yul\":5821:5824   */\n      dup6\n        /* \"#utility.yul\":5814:5818   */\n      0x20\n        /* \"#utility.yul\":5807:5812   */\n      dup7\n        /* \"#utility.yul\":5803:5819   */\n      add\n        /* \"#utility.yul\":5768:5833   */\n      tag_61\n      jump\t// in\n    tag_161:\n        /* \"#utility.yul\":5858:5887   */\n      tag_162\n        /* \"#utility.yul\":5880:5886   */\n      dup2\n        /* \"#utility.yul\":5858:5887   */\n      tag_62\n      jump\t// in\n    tag_162:\n        /* \"#utility.yul\":5853:5856   */\n      dup5\n        /* \"#utility.yul\":5849:5888   */\n      add\n        /* \"#utility.yul\":5842:5888   */\n      swap2\n      pop\n        /* \"#utility.yul\":5619:5894   */\n      pop\n        /* \"#utility.yul\":5537:5894   */\n      swap3\n      swap2\n      pop\n      pop\n      jump\t// out\n        /* \"#utility.yul\":5900:6008   */\n    tag_76:\n        /* \"#utility.yul\":5977:6001   */\n      tag_164\n        /* \"#utility.yul\":5995:6000   */\n      dup2\n        /* \"#utility.yul\":5977:6001   */\n      tag_56\n      jump\t// in\n    tag_164:\n        /* \"#utility.yul\":5972:5975   */\n      dup3\n        /* \"#utility.yul\":5965:6002   */\n      mstore\n        /* \"#utility.yul\":5900:6008   */\n      pop\n      pop\n      jump\t// out\n        /* \"#utility.yul\":6066:6661   */\n    tag_77:\n        /* \"#utility.yul\":6173:6176   */\n      0x00\n        /* \"#utility.yul\":6209:6213   */\n      0x40\n        /* \"#utility.yul\":6204:6207   */\n      dup4\n        /* \"#utility.yul\":6200:6214   */\n      add\n        /* \"#utility.yul\":6296:6300   */\n      0x00\n        /* \"#utility.yul\":6289:6294   */\n      dup4\n        /* \"#utility.yul\":6285:6301   */\n      add\n        /* \"#utility.yul\":6279:6302   */\n      mload\n        /* \"#utility.yul\":6349:6352   */\n      dup5\n        /* \"#utility.yul\":6343:6347   */\n      dup3\n        /* \"#utility.yul\":6339:6353   */\n      sub\n        /* \"#utility.yul\":6332:6336   */\n      0x00\n        /* \"#utility.yul\":6327:6330   */\n      dup7\n        /* \"#utility.yul\":6323:6337   */\n      add\n        /* \"#utility.yul\":6316:6354   */\n      mstore\n        /* \"#utility.yul\":6375:6448   */\n      tag_166\n        /* \"#utility.yul\":6443:6447   */\n      dup3\n        /* \"#utility.yul\":6429:6441   */\n      dup3\n        /* \"#utility.yul\":6375:6448   */\n      tag_75\n      jump\t// in\n    tag_166:\n        /* \"#utility.yul\":6367:6448   */\n      swap2\n      pop\n        /* \"#utility.yul\":6224:6459   */\n      pop\n        /* \"#utility.yul\":6542:6546   */\n      0x20\n        /* \"#utility.yul\":6535:6540   */\n      dup4\n        /* \"#utility.yul\":6531:6547   */\n      add\n        /* \"#utility.yul\":6525:6548   */\n      mload\n        /* \"#utility.yul\":6561:6624   */\n      tag_167\n        /* \"#utility.yul\":6618:6622   */\n      0x20\n        /* \"#utility.yul\":6613:6616   */\n      dup7\n        /* \"#utility.yul\":6609:6623   */\n      add\n        /* \"#utility.yul\":6595:6607   */\n      dup3\n        /* \"#utility.yul\":6561:6624   */\n      tag_76\n      jump\t// in\n    tag_167:\n        /* \"#utility.yul\":6469:6634   */\n      pop\n        /* \"#utility.yul\":6651:6655   */\n      dup1\n        /* \"#utility.yul\":6644:6655   */\n      swap2\n      pop\n        /* \"#utility.yul\":6178:6661   */\n      pop\n        /* \"#utility.yul\":6066:6661   */\n      swap3\n      swap2\n      pop\n      pop\n      jump\t// out\n        /* \"#utility.yul\":6667:7016   */\n    tag_21:\n        /* \"#utility.yul\":6798:6802   */\n      0x00\n        /* \"#utility.yul\":6836:6838   */\n      0x20\n        /* \"#utility.yul\":6825:6834   */\n      dup3\n        /* \"#utility.yul\":6821:6839   */\n      add\n        /* \"#utility.yul\":6813:6839   */\n      swap1\n      pop\n        /* \"#utility.yul\":6885:6894   */\n      dup2\n        /* \"#utility.yul\":6879:6883   */\n      dup2\n        /* \"#utility.yul\":6875:6895   */\n      sub\n        /* \"#utility.yul\":6871:6872   */\n      0x00\n        /* \"#utility.yul\":6860:6869   */\n      dup4\n        /* \"#utility.yul\":6856:6873   */\n      add\n        /* \"#utility.yul\":6849:6896   */\n      mstore\n        /* \"#utility.yul\":6913:7009   */\n      tag_169\n        /* \"#utility.yul\":7004:7008   */\n      dup2\n        /* \"#utility.yul\":6995:7001   */\n      dup5\n        /* \"#utility.yul\":6913:7009   */\n      tag_77\n      jump\t// in\n    tag_169:\n        /* \"#utility.yul\":6905:7009   */\n      swap1\n      pop\n        /* \"#utility.yul\":6667:7016   */\n      swap3\n      swap2\n      pop\n      pop\n      jump\t// out\n        /* \"#utility.yul\":7022:7244   */\n    tag_26:\n        /* \"#utility.yul\":7115:7119   */\n      0x00\n        /* \"#utility.yul\":7153:7155   */\n      0x20\n        /* \"#utility.yul\":7142:7151   */\n      dup3\n        /* \"#utility.yul\":7138:7156   */\n      add\n        /* \"#utility.yul\":7130:7156   */\n      swap1\n      pop\n        /* \"#utility.yul\":7166:7237   */\n      tag_171\n        /* \"#utility.yul\":7234:7235   */\n      0x00\n        /* \"#utility.yul\":7223:7232   */\n      dup4\n        /* \"#utility.yul\":7219:7236   */\n      add\n        /* \"#utility.yul\":7210:7216   */\n      dup5\n        /* \"#utility.yul\":7166:7237   */\n      tag_64\n      jump\t// in\n    tag_171:\n        /* \"#utility.yul\":7022:7244   */\n      swap3\n      swap2\n      pop\n      pop\n      jump\t// out\n        /* \"#utility.yul\":7250:7430   */\n    tag_78:\n        /* \"#utility.yul\":7298:7375   */\n      0x4e487b7100000000000000000000000000000000000000000000000000000000\n        /* \"#utility.yul\":7295:7296   */\n      0x00\n        /* \"#utility.yul\":7288:7376   */\n      mstore\n        /* \"#utility.yul\":7395:7399   */\n      0x22\n        /* \"#utility.yul\":7392:7393   */\n      0x04\n        /* \"#utility.yul\":7385:7400   */\n      mstore\n        /* \"#utility.yul\":7419:7423   */\n      0x24\n        /* \"#utility.yul\":7416:7417   */\n      0x00\n        /* \"#utility.yul\":7409:7424   */\n      revert\n        /* \"#utility.yul\":7436:7756   */\n    tag_30:\n        /* \"#utility.yul\":7480:7486   */\n      0x00\n        /* \"#utility.yul\":7517:7518   */\n      0x02\n        /* \"#utility.yul\":7511:7515   */\n      dup3\n        /* \"#utility.yul\":7507:7519   */\n      div\n        /* \"#utility.yul\":7497:7519   */\n      swap1\n      pop\n        /* \"#utility.yul\":7564:7565   */\n      0x01\n        /* \"#utility.yul\":7558:7562   */\n      dup3\n        /* \"#utility.yul\":7554:7566   */\n      and\n        /* \"#utility.yul\":7585:7603   */\n      dup1\n        /* \"#utility.yul\":7575:7656   */\n      tag_174\n      jumpi\n        /* \"#utility.yul\":7641:7645   */\n      0x7f\n        /* \"#utility.yul\":7633:7639   */\n      dup3\n        /* \"#utility.yul\":7629:7646   */\n      and\n        /* \"#utility.yul\":7619:7646   */\n      swap2\n      pop\n        /* \"#utility.yul\":7575:7656   */\n    tag_174:\n        /* \"#utility.yul\":7703:7705   */\n      0x20\n        /* \"#utility.yul\":7695:7701   */\n      dup3\n        /* \"#utility.yul\":7692:7706   */\n      lt\n        /* \"#utility.yul\":7672:7690   */\n      dup2\n        /* \"#utility.yul\":7669:7707   */\n      sub\n        /* \"#utility.yul\":7666:7750   */\n      tag_175\n      jumpi\n        /* \"#utility.yul\":7722:7740   */\n      tag_176\n      tag_78\n      jump\t// in\n    tag_176:\n        /* \"#utility.yul\":7666:7750   */\n    tag_175:\n        /* \"#utility.yul\":7487:7756   */\n      pop\n        /* \"#utility.yul\":7436:7756   */\n      swap2\n      swap1\n      pop\n      jump\t// out\n        /* \"#utility.yul\":7762:7903   */\n    tag_79:\n        /* \"#utility.yul\":7811:7815   */\n      0x00\n        /* \"#utility.yul\":7834:7837   */\n      dup2\n        /* \"#utility.yul\":7826:7837   */\n      swap1\n      pop\n        /* \"#utility.yul\":7857:7860   */\n      dup2\n        /* \"#utility.yul\":7854:7855   */\n      0x00\n        /* \"#utility.yul\":7847:7861   */\n      mstore\n        /* \"#utility.yul\":7891:7895   */\n      0x20\n        /* \"#utility.yul\":7888:7889   */\n      0x00\n        /* \"#utility.yul\":7878:7896   */\n      keccak256\n        /* \"#utility.yul\":7870:7896   */\n      swap1\n      pop\n        /* \"#utility.yul\":7762:7903   */\n      swap2\n      swap1\n      pop\n      jump\t// out\n        /* \"#utility.yul\":7909:8002   */\n    tag_80:\n        /* \"#utility.yul\":7946:7952   */\n      0x00\n        /* \"#utility.yul\":7993:7995   */\n      0x20\n        /* \"#utility.yul\":7988:7990   */\n      0x1f\n        /* \"#utility.yul\":7981:7986   */\n      dup4\n        /* \"#utility.yul\":7977:7991   */\n      add\n        /* \"#utility.yul\":7973:7996   */\n      div\n        /* \"#utility.yul\":7963:7996   */\n      swap1\n      pop\n        /* \"#utility.yul\":7909:8002   */\n      swap2\n      swap1\n      pop\n      jump\t// out\n        /* \"#utility.yul\":8008:8115   */\n    tag_81:\n        /* \"#utility.yul\":8052:8060   */\n      0x00\n        /* \"#utility.yul\":8102:8107   */\n      dup3\n        /* \"#utility.yul\":8096:8100   */\n      dup3\n        /* \"#utility.yul\":8092:8108   */\n      shl\n        /* \"#utility.yul\":8071:8108   */\n      swap1\n      pop\n        /* \"#utility.yul\":8008:8115   */\n      swap3\n      swap2\n      pop\n      pop\n      jump\t// out\n        /* \"#utility.yul\":8121:8514   */\n    tag_82:\n        /* \"#utility.yul\":8190:8196   */\n      0x00\n        /* \"#utility.yul\":8240:8241   */\n      0x08\n        /* \"#utility.yul\":8228:8238   */\n      dup4\n        /* \"#utility.yul\":8224:8242   */\n      mul\n        /* \"#utility.yul\":8263:8360   */\n      tag_181\n        /* \"#utility.yul\":8293:8359   */\n      0xffffffffffffffffffffffffffffffffffffffffffffffffffffffffffffffff\n        /* \"#utility.yul\":8282:8291   */\n      dup3\n        /* \"#utility.yul\":8263:8360   */\n      tag_81\n      jump\t// in\n    tag_181:\n        /* \"#utility.yul\":8381:8420   */\n      tag_182\n        /* \"#utility.yul\":8411:8419   */\n      dup7\n        /* \"#utility.yul\":8400:8409   */\n      dup4\n        /* \"#utility.yul\":8381:8420   */\n      tag_81\n      jump\t// in\n    tag_182:\n        /* \"#utility.yul\":8369:8420   */\n      swap6\n      pop\n        /* \"#utility.yul\":8453:8457   */\n      dup1\n        /* \"#utility.yul\":8449:8458   */\n      not\n        /* \"#utility.yul\":8442:8447   */\n      dup5\n        /* \"#utility.yul\":8438:8459   */\n      and\n        /* \"#utility.yul\":8429:8459   */\n      swap4\n      pop\n        /* \"#utility.yul\":8502:8506   */\n      dup1\n        /* \"#utility.yul\":8492:8500   */\n      dup7\n        /* \"#utility.yul\":8488:8507   */\n      and\n        /* \"#utility.yul\":8481:8486   */\n      dup5\n        /* \"#utility.yul\":8478:8508   */\n      or\n        /* \"#utility.yul\":8468:8508   */\n      swap3\n      pop\n        /* \"#utility.yul\":8197:8514   */\n      pop\n      pop\n        /* \"#utility.yul\":8121:8514   */\n      swap4\n      swap3\n      pop\n      pop\n      pop\n      jump\t// out\n        /* \"#utility.yul\":8520:8580   */\n    tag_83:\n        /* \"#utility.yul\":8548:8551   */\n      0x00\n        /* \"#utility.yul\":8569:8574   */\n      dup2\n        /* \"#utility.yul\":8562:8574   */\n      swap1\n      pop\n        /* \"#utility.yul\":8520:8580   */\n      swap2\n      swap1\n      pop\n      jump\t// out\n        /* \"#utility.yul\":8586:8728   */\n    tag_84:\n        /* \"#utility.yul\":8636:8645   */\n      0x00\n        /* \"#utility.yul\":8669:8722   */\n      tag_185\n        /* \"#utility.yul\":8687:8721   */\n      tag_186\n        /* \"#utility.yul\":8696:8720   */\n      tag_187\n        /* \"#utility.yul\":8714:8719   */\n      dup5\n        /* \"#utility.yul\":8696:8720   */\n      tag_56\n      jump\t// in\n    tag_187:\n        /* \"#utility.yul\":8687:8721   */\n      tag_83\n      jump\t// in\n    tag_186:\n        /* \"#utility.yul\":8669:8722   */\n      tag_56\n      jump\t// in\n    tag_185:\n        /* \"#utility.yul\":8656:8722   */\n      swap1\n      pop\n        /* \"#utility.yul\":8586:8728   */\n      swap2\n      swap1\n      pop\n      jump\t// out\n        /* \"#utility.yul\":8734:8809   */\n    tag_85:\n        /* \"#utility.yul\":8777:8780   */\n      0x00\n        /* \"#utility.yul\":8798:8803   */\n      dup2\n        /* \"#utility.yul\":8791:8803   */\n      swap1\n      pop\n        /* \"#utility.yul\":8734:8809   */\n      swap2\n      swap1\n      pop\n      jump\t// out\n        /* \"#utility.yul\":8815:9084   */\n    tag_86:\n        /* \"#utility.yul\":8925:8964   */\n      tag_190\n        /* \"#utility.yul\":8956:8963   */\n      dup4\n        /* \"#utility.yul\":8925:8964   */\n      tag_84\n      jump\t// in\n    tag_190:\n        /* \"#utility.yul\":8986:9077   */\n      tag_191\n        /* \"#utility.yul\":9035:9076   */\n      tag_192\n        /* \"#utility.yul\":9059:9075   */\n      dup3\n        /* \"#utility.yul\":9035:9076   */\n      tag_85\n      jump\t// in\n    tag_192:\n        /* \"#utility.yul\":9027:9033   */\n      dup5\n        /* \"#utility.yul\":9020:9024   */\n      dup5\n        /* \"#utility.yul\":9014:9025   */\n      sload\n        /* \"#utility.yul\":8986:9077   */\n      tag_82\n      jump\t// in\n    tag_191:\n        /* \"#utility.yul\":8980:8984   */\n      dup3\n        /* \"#utility.yul\":8973:9078   */\n      sstore\n        /* \"#utility.yul\":8891:9084   */\n      pop\n        /* \"#utility.yul\":8815:9084   */\n      pop\n      pop\n      pop\n      jump\t// out\n        /* \"#utility.yul\":9090:9163   */\n    tag_87:\n        /* \"#utility.yul\":9135:9138   */\n      0x00\n        /* \"#utility.yul\":9090:9163   */\n      swap1\n      jump\t// out\n        /* \"#utility.yul\":9169:9358   */\n    tag_88:\n        /* \"#utility.yul\":9246:9278   */\n      tag_195\n      tag_87\n      jump\t// in\n    tag_195:\n        /* \"#utility.yul\":9287:9352   */\n      tag_196\n        /* \"#utility.yul\":9345:9351   */\n      dup2\n        /* \"#utility.yul\":9337:9343   */\n      dup5\n        /* \"#utility.yul\":9331:9335   */\n      dup5\n        /* \"#utility.yul\":9287:9352   */\n      tag_86\n      jump\t// in\n    tag_196:\n        /* \"#utility.yul\":9222:9358   */\n      pop\n        /* \"#utility.yul\":9169:9358   */\n      pop\n      pop\n      jump\t// out\n        /* \"#utility.yul\":9364:9550   */\n    tag_89:\n        /* \"#utility.yul\":9424:9544   */\n    tag_198:\n        /* \"#utility.yul\":9441:9444   */\n      dup2\n        /* \"#utility.yul\":9434:9439   */\n      dup2\n        /* \"#utility.yul\":9431:9445   */\n      lt\n        /* \"#utility.yul\":9424:9544   */\n      iszero\n      tag_200\n      jumpi\n        /* \"#utility.yul\":9495:9534   */\n      tag_201\n        /* \"#utility.yul\":9532:9533   */\n      0x00\n        /* \"#utility.yul\":9525:9530   */\n      dup3\n        /* \"#utility.yul\":9495:9534   */\n      tag_88\n      jump\t// in\n    tag_201:\n        /* \"#utility.yul\":9468:9469   */\n      0x01\n        /* \"#utility.yul\":9461:9466   */\n      dup2\n        /* \"#utility.yul\":9457:9470   */\n      add\n        /* \"#utility.yul\":9448:9470   */\n      swap1\n      pop\n        /* \"#utility.yul\":9424:9544   */\n      jump(tag_198)\n    tag_200:\n        /* \"#utility.yul\":9364:9550   */\n      pop\n      pop\n      jump\t// out\n        /* \"#utility.yul\":9556:10099   */\n    tag_90:\n        /* \"#utility.yul\":9657:9659   */\n      0x1f\n        /* \"#utility.yul\":9652:9655   */\n      dup3\n        /* \"#utility.yul\":9649:9660   */\n      gt\n        /* \"#utility.yul\":9646:10092   */\n      iszero\n      tag_203\n      jumpi\n        /* \"#utility.yul\":9691:9729   */\n      tag_204\n        /* \"#utility.yul\":9723:9728   */\n      dup2\n        /* \"#utility.yul\":9691:9729   */\n      tag_79\n      jump\t// in\n    tag_204:\n        /* \"#utility.yul\":9775:9804   */\n      tag_205\n        /* \"#utility.yul\":9793:9803   */\n      dup5\n        /* \"#utility.yul\":9775:9804   */\n      tag_80\n      jump\t// in\n    tag_205:\n        /* \"#utility.yul\":9765:9773   */\n      dup2\n        /* \"#utility.yul\":9761:9805   */\n      add\n        /* \"#utility.yul\":9958:9960   */\n      0x20\n        /* \"#utility.yul\":9946:9956   */\n      dup6\n        /* \"#utility.yul\":9943:9961   */\n      lt\n        /* \"#utility.yul\":9940:9989   */\n      iszero\n      tag_206\n      jumpi\n        /* \"#utility.yul\":9979:9987   */\n      dup2\n        /* \"#utility.yul\":9964:9987   */\n      swap1\n      pop\n        /* \"#utility.yul\":9940:9989   */\n    tag_206:\n        /* \"#utility.yul\":10002:10082   */\n      tag_207\n        /* \"#utility.yul\":10058:10080   */\n      tag_208\n        /* \"#utility.yul\":10076:10079   */\n      dup6\n        /* \"#utility.yul\":10058:10080   */\n      tag_80\n      jump\t// in\n    tag_208:\n        /* \"#utility.yul\":10048:10056   */\n      dup4\n        /* \"#utility.yul\":10044:10081   */\n      add\n        /* \"#utility.yul\":10031:10042   */\n      dup3\n        /* \"#utility.yul\":10002:10082   */\n      tag_89\n      jump\t// in\n    tag_207:\n        /* \"#utility.yul\":9661:10092   */\n      pop\n      pop\n        /* \"#utility.yul\":9646:10092   */\n    tag_203:\n        /* \"#utility.yul\":9556:10099   */\n      pop\n      pop\n      pop\n      jump\t// out\n        /* \"#utility.yul\":10105:10222   */\n    tag_91:\n        /* \"#utility.yul\":10159:10167   */\n      0x00\n        /* \"#utility.yul\":10209:10214   */\n      dup3\n        /* \"#utility.yul\":10203:10207   */\n      dup3\n        /* \"#utility.yul\":10199:10215   */\n      shr\n        /* \"#utility.yul\":10178:10215   */\n      swap1\n      pop\n        /* \"#utility.yul\":10105:10222   */\n      swap3\n      swap2\n      pop\n      pop\n      jump\t// out\n        /* \"#utility.yul\":10228:10397   */\n    tag_92:\n        /* \"#utility.yul\":10272:10278   */\n      0x00\n        /* \"#utility.yul\":10305:10356   */\n      tag_211\n        /* \"#utility.yul\":10353:10354   */\n      0x00\n        /* \"#utility.yul\":10349:10355   */\n      not\n        /* \"#utility.yul\":10341:10346   */\n      dup5\n        /* \"#utility.yul\":10338:10339   */\n      0x08\n        /* \"#utility.yul\":10334:10347   */\n      mul\n        /* \"#utility.yul\":10305:10356   */\n      tag_91\n      jump\t// in\n    tag_211:\n        /* \"#utility.yul\":10301:10357   */\n      not\n        /* \"#utility.yul\":10386:10390   */\n      dup1\n        /* \"#utility.yul\":10380:10384   */\n      dup4\n        /* \"#utility.yul\":10376:10391   */\n      and\n        /* \"#utility.yul\":10366:10391   */\n      swap2\n      pop\n        /* \"#utility.yul\":10279:10397   */\n      pop\n        /* \"#utility.yul\":10228:10397   */\n      swap3\n      swap2\n      pop\n      pop\n      jump\t// out\n        /* \"#utility.yul\":10402:10697   */\n    tag_93:\n        /* \"#utility.yul\":10478:10482   */\n      0x00\n        /* \"#utility.yul\":10624:10653   */\n      tag_213\n        /* \"#utility.yul\":10649:10652   */\n      dup4\n        /* \"#utility.yul\":10643:10647   */\n      dup4\n        /* \"#utility.yul\":10624:10653   */\n      tag_92\n      jump\t// in\n    tag_213:\n        /* \"#utility.yul\":10616:10653   */\n      swap2\n      pop\n        /* \"#utility.yul\":10686:10689   */\n      dup3\n        /* \"#utility.yul\":10683:10684   */\n      0x02\n        /* \"#utility.yul\":10679:10690   */\n      mul\n        /* \"#utility.yul\":10673:10677   */\n      dup3\n        /* \"#utility.yul\":10670:10691   */\n      or\n        /* \"#utility.yul\":10662:10691   */\n      swap1\n      pop\n        /* \"#utility.yul\":10402:10697   */\n      swap3\n      swap2\n      pop\n      pop\n      jump\t// out\n        /* \"#utility.yul\":10702:12097   */\n    tag_38:\n        /* \"#utility.yul\":10819:10856   */\n      tag_215\n        /* \"#utility.yul\":10852:10855   */\n      dup3\n        /* \"#utility.yul\":10819:10856   */\n      tag_59\n      jump\t// in\n    tag_215:\n        /* \"#utility.yul\":10921:10939   */\n      0xffffffffffffffff\n        /* \"#utility.yul\":10913:10919   */\n      dup2\n        /* \"#utility.yul\":10910:10940   */\n      gt\n        /* \"#utility.yul\":10907:10963   */\n      iszero\n      tag_216\n      jumpi\n        /* \"#utility.yul\":10943:10961   */\n      tag_217\n      tag_67\n      jump\t// in\n    tag_217:\n        /* \"#utility.yul\":10907:10963   */\n    tag_216:\n        /* \"#utility.yul\":10987:11025   */\n      tag_218\n        /* \"#utility.yul\":11019:11023   */\n      dup3\n        /* \"#utility.yul\":11013:11024   */\n      sload\n        /* \"#utility.yul\":10987:11025   */\n      tag_30\n      jump\t// in\n    tag_218:\n        /* \"#utility.yul\":11072:11139   */\n      tag_219\n        /* \"#utility.yul\":11132:11138   */\n      dup3\n        /* \"#utility.yul\":11124:11130   */\n      dup3\n        /* \"#utility.yul\":11118:11122   */\n      dup6\n        /* \"#utility.yul\":11072:11139   */\n      tag_90\n      jump\t// in\n    tag_219:\n        /* \"#utility.yul\":11166:11167   */\n      0x00\n        /* \"#utility.yul\":11190:11194   */\n      0x20\n        /* \"#utility.yul\":11177:11194   */\n      swap1\n      pop\n        /* \"#utility.yul\":11222:11224   */\n      0x1f\n        /* \"#utility.yul\":11214:11220   */\n      dup4\n        /* \"#utility.yul\":11211:11225   */\n      gt\n        /* \"#utility.yul\":11239:11240   */\n      0x01\n        /* \"#utility.yul\":11234:11852   */\n      dup2\n      eq\n      tag_221\n      jumpi\n        /* \"#utility.yul\":11896:11897   */\n      0x00\n        /* \"#utility.yul\":11913:11919   */\n      dup5\n        /* \"#utility.yul\":11910:11987   */\n      iszero\n      tag_222\n      jumpi\n        /* \"#utility.yul\":11962:11971   */\n      dup3\n        /* \"#utility.yul\":11957:11960   */\n      dup8\n        /* \"#utility.yul\":11953:11972   */\n      add\n        /* \"#utility.yul\":11947:11973   */\n      mload\n        /* \"#utility.yul\":11938:11973   */\n      swap1\n      pop\n        /* \"#utility.yul\":11910:11987   */\n    tag_222:\n        /* \"#utility.yul\":12013:12080   */\n      tag_223\n        /* \"#utility.yul\":12073:12079   */\n      dup6\n        /* \"#utility.yul\":12066:12071   */\n      dup3\n        /* \"#utility.yul\":12013:12080   */\n      tag_93\n      jump\t// in\n    tag_223:\n        /* \"#utility.yul\":12007:12011   */\n      dup7\n        /* \"#utility.yul\":12000:12081   */\n      sstore\n        /* \"#utility.yul\":11869:12091   */\n      pop\n        /* \"#utility.yul\":11204:12091   */\n      jump(tag_220)\n        /* \"#utility.yul\":11234:11852   */\n    tag_221:\n        /* \"#utility.yul\":11286:11290   */\n      0x1f\n        /* \"#utility.yul\":11282:11291   */\n      not\n        /* \"#utility.yul\":11274:11280   */\n      dup5\n        /* \"#utility.yul\":11270:11292   */\n      and\n        /* \"#utility.yul\":11320:11357   */\n      tag_224\n        /* \"#utility.yul\":11352:11356   */\n      dup7\n        /* \"#utility.yul\":11320:11357   */\n      tag_79\n      jump\t// in\n    tag_224:\n        /* \"#utility.yul\":11379:11380   */\n      0x00\n        /* \"#utility.yul\":11393:11601   */\n    tag_225:\n        /* \"#utility.yul\":11407:11414   */\n      dup3\n        /* \"#utility.yul\":11404:11405   */\n      dup2\n        /* \"#utility.yul\":11401:11415   */\n      lt\n        /* \"#utility.yul\":11393:11601   */\n      iszero\n      tag_227\n      jumpi\n        /* \"#utility.yul\":11486:11495   */\n      dup5\n        /* \"#utility.yul\":11481:11484   */\n      dup10\n        /* \"#utility.yul\":11477:11496   */\n      add\n        /* \"#utility.yul\":11471:11497   */\n      mload\n        /* \"#utility.yul\":11463:11469   */\n      dup3\n        /* \"#utility.yul\":11456:11498   */\n      sstore\n        /* \"#utility.yul\":11537:11538   */\n      0x01\n        /* \"#utility.yul\":11529:11535   */\n      dup3\n        /* \"#utility.yul\":11525:11539   */\n      add\n        /* \"#utility.yul\":11515:11539   */\n      swap2\n      pop\n        /* \"#utility.yul\":11584:11586   */\n      0x20\n        /* \"#utility.yul\":11573:11582   */\n      dup6\n        /* \"#utility.yul\":11569:11587   */\n      add\n        /* \"#utility.yul\":11556:11587   */\n      swap5\n      pop\n        /* \"#utility.yul\":11430:11434   */\n      0x20\n        /* \"#utility.yul\":11427:11428   */\n      dup2\n        /* \"#utility.yul\":11423:11435   */\n      add\n        /* \"#utility.yul\":11418:11435   */\n      swap1\n      pop\n        /* \"#utility.yul\":11393:11601   */\n      jump(tag_225)\n    tag_227:\n        /* \"#utility.yul\":11629:11635   */\n      dup7\n        /* \"#utility.yul\":11620:11627   */\n      dup4\n        /* \"#utility.yul\":11617:11636   */\n      lt\n        /* \"#utility.yul\":11614:11793   */\n      iszero\n      tag_228\n      jumpi\n        /* \"#utility.yul\":11687:11696   */\n      dup5\n        /* \"#utility.yul\":11682:11685   */\n      dup10\n        /* \"#utility.yul\":11678:11697   */\n      add\n        /* \"#utility.yul\":11672:11698   */\n      mload\n        /* \"#utility.yul\":11730:11778   */\n      tag_229\n        /* \"#utility.yul\":11772:11776   */\n      0x1f\n        /* \"#utility.yul\":11764:11770   */\n      dup10\n        /* \"#utility.yul\":11760:11777   */\n      and\n        /* \"#utility.yul\":11749:11758   */\n      dup3\n        /* \"#utility.yul\":11730:11778   */\n      tag_92\n      jump\t// in\n    tag_229:\n        /* \"#utility.yul\":11722:11728   */\n      dup4\n        /* \"#utility.yul\":11715:11779   */\n      sstore\n        /* \"#utility.yul\":11637:11793   */\n      pop\n        /* \"#utility.yul\":11614:11793   */\n    tag_228:\n        /* \"#utility.yul\":11839:11840   */\n      0x01\n        /* \"#utility.yul\":11835:11836   */\n      0x02\n        /* \"#utility.yul\":11827:11833   */\n      dup9\n        /* \"#utility.yul\":11823:11837   */\n      mul\n        /* \"#utility.yul\":11819:11841   */\n      add\n        /* \"#utility.yul\":11813:11817   */\n      dup9\n        /* \"#utility.yul\":11806:11842   */\n      sstore\n        /* \"#utility.yul\":11241:11852   */\n      pop\n      pop\n      pop\n        /* \"#utility.yul\":11204:12091   */\n    tag_220:\n      pop\n        /* \"#utility.yul\":10794:12097   */\n      pop\n      pop\n      pop\n        /* \"#utility.yul\":10702:12097   */\n      pop\n      pop\n      jump\t// out\n        /* \"#utility.yul\":12103:12283   */\n    tag_44:\n        /* \"#utility.yul\":12151:12228   */\n      0x4e487b7100000000000000000000000000000000000000000000000000000000\n        /* \"#utility.yul\":12148:12149   */\n      0x00\n        /* \"#utility.yul\":12141:12229   */\n      mstore\n        /* \"#utility.yul\":12248:12252   */\n      0x32\n        /* \"#utility.yul\":12245:12246   */\n      0x04\n        /* \"#utility.yul\":12238:12253   */\n      mstore\n        /* \"#utility.yul\":12272:12276   */\n      0x24\n        /* \"#utility.yul\":12269:12270   */\n      0x00\n        /* \"#utility.yul\":12262:12277   */\n      revert\n\n    auxdata: 0xa2646970667358221220c683a784712d5edaad26ba258ad5de0665da09720060c4912957b53caccbf46a64736f6c63430008120033\n}\n",
				"bytecode": {
					"linkReferences": {},
					"object": "608060405234801561001057600080fd5b50610a23806100206000396000f3fe608060405234801561001057600080fd5b506004361061004c5760003560e01c80633d4d3600146100515780637ba41e6f14610082578063de7fe3e71461009e578063f0fdf834146100ce575b600080fd5b61006b60048036038101906100669190610380565b6100fe565b60405161007992919061044c565b60405180910390f35b61009c600480360381019061009791906105b1565b6101ba565b005b6100b860048036038101906100b39190610380565b610220565b6040516100c591906106a3565b60405180910390f35b6100e860048036038101906100e39190610380565b6102f8565b6040516100f591906106c5565b60405180910390f35b6000818154811061010e57600080fd5b90600052602060002090600202016000915090508060000180546101319061070f565b80601f016020809104026020016040519081016040528092919081815260200182805461015d9061070f565b80156101aa5780601f1061017f576101008083540402835291602001916101aa565b820191906000526020600020905b81548152906001019060200180831161018d57829003601f168201915b5050505050908060010154905082565b60006040518060400160405280848152602001838152509080600181540180825580915050600190039060005260206000209060020201600090919091909150600082015181600001908161020f91906108ec565b506020820151816001015550505050565b61022861031c565b6000828154811061023c5761023b6109be565b5b90600052602060002090600202016040518060400160405290816000820180546102659061070f565b80601f01602080910402602001604051908101604052809291908181526020018280546102919061070f565b80156102de5780601f106102b3576101008083540402835291602001916102de565b820191906000526020600020905b8154815290600101906020018083116102c157829003601f168201915b505050505081526020016001820154815250509050919050565b6001818154811061030857600080fd5b906000526020600020016000915090505481565b604051806040016040528060608152602001600081525090565b6000604051905090565b600080fd5b600080fd5b6000819050919050565b61035d8161034a565b811461036857600080fd5b50565b60008135905061037a81610354565b92915050565b60006020828403121561039657610395610340565b5b60006103a48482850161036b565b91505092915050565b600081519050919050565b600082825260208201905092915050565b60005b838110156103e75780820151818401526020810190506103cc565b60008484015250505050565b6000601f19601f8301169050919050565b600061040f826103ad565b61041981856103b8565b93506104298185602086016103c9565b610432816103f3565b840191505092915050565b6104468161034a565b82525050565b600060408201905081810360008301526104668185610404565b9050610475602083018461043d565b9392505050565b600080fd5b600080fd5b7f4e487b7100000000000000000000000000000000000000000000000000000000600052604160045260246000fd5b6104be826103f3565b810181811067ffffffffffffffff821117156104dd576104dc610486565b5b80604052505050565b60006104f0610336565b90506104fc82826104b5565b919050565b600067ffffffffffffffff82111561051c5761051b610486565b5b610525826103f3565b9050602081019050919050565b82818337600083830152505050565b600061055461054f84610501565b6104e6565b9050828152602081018484840111156105705761056f610481565b5b61057b848285610532565b509392505050565b600082601f8301126105985761059761047c565b5b81356105a8848260208601610541565b91505092915050565b600080604083850312156105c8576105c7610340565b5b600083013567ffffffffffffffff8111156105e6576105e5610345565b5b6105f285828601610583565b92505060206106038582860161036b565b9150509250929050565b600082825260208201905092915050565b6000610629826103ad565b610633818561060d565b93506106438185602086016103c9565b61064c816103f3565b840191505092915050565b6106608161034a565b82525050565b60006040830160008301518482036000860152610683828261061e565b91505060208301516106986020860182610657565b508091505092915050565b600060208201905081810360008301526106bd8184610666565b905092915050565b60006020820190506106da600083018461043d565b92915050565b7f4e487b7100000000000000000000000000000000000000000000000000000000600052602260045260246000fd5b6000600282049050600182168061072757607f821691505b60208210810361073a576107396106e0565b5b50919050565b60008190508160005260206000209050919050565b60006020601f8301049050919050565b600082821b905092915050565b6000600883026107a27fffffffffffffffffffffffffffffffffffffffffffffffffffffffffffffffff82610765565b6107ac8683610765565b95508019841693508086168417925050509392505050565b6000819050919050565b60006107e96107e46107df8461034a565b6107c4565b61034a565b9050919050565b6000819050919050565b610803836107ce565b61081761080f826107f0565b848454610772565b825550505050565b600090565b61082c61081f565b6108378184846107fa565b505050565b5b8181101561085b57610850600082610824565b60018101905061083d565b5050565b601f8211156108a05761087181610740565b61087a84610755565b81016020851015610889578190505b61089d61089585610755565b83018261083c565b50505b505050565b600082821c905092915050565b60006108c3600019846008026108a5565b1980831691505092915050565b60006108dc83836108b2565b9150826002028217905092915050565b6108f5826103ad565b67ffffffffffffffff81111561090e5761090d610486565b5b610918825461070f565b61092382828561085f565b600060209050601f8311600181146109565760008415610944578287015190505b61094e85826108d0565b8655506109b6565b601f19841661096486610740565b60005b8281101561098c57848901518255600182019150602085019450602081019050610967565b868310156109a957848901516109a5601f8916826108b2565b8355505b6001600288020188555050505b505050505050565b7f4e487b7100000000000000000000000000000000000000000000000000000000600052603260045260246000fdfea2646970667358221220c683a784712d5edaad26ba258ad5de0665da09720060c4912957b53caccbf46a64736f6c63430008120033",
					"opcodes": "PUSH1 0x80 PUSH1 0x40 MSTORE CALLVALUE DUP1 ISZERO PUSH2 0x10 JUMPI PUSH1 0x0 DUP1 REVERT JUMPDEST POP PUSH2 0xA23 DUP1 PUSH2 0x20 PUSH1 0x0 CODECOPY PUSH1 0x0 RETURN INVALID PUSH1 0x80 PUSH1 0x40 MSTORE CALLVALUE DUP1 ISZERO PUSH2 0x10 JUMPI PUSH1 0x0 DUP1 REVERT JUMPDEST POP PUSH1 0x4 CALLDATASIZE LT PUSH2 0x4C JUMPI PUSH1 0x0 CALLDATALOAD PUSH1 0xE0 SHR DUP1 PUSH4 0x3D4D3600 EQ PUSH2 0x51 JUMPI DUP1 PUSH4 0x7BA41E6F EQ PUSH2 0x82 JUMPI DUP1 PUSH4 0xDE7FE3E7 EQ PUSH2 0x9E JUMPI DUP1 PUSH4 0xF0FDF834 EQ PUSH2 0xCE JUMPI JUMPDEST PUSH1 0x0 DUP1 REVERT JUMPDEST PUSH2 0x6B PUSH1 0x4 DUP1 CALLDATASIZE SUB DUP2 ADD SWAP1 PUSH2 0x66 SWAP2 SWAP1 PUSH2 0x380 JUMP JUMPDEST PUSH2 0xFE JUMP JUMPDEST PUSH1 0x40 MLOAD PUSH2 0x79 SWAP3 SWAP2 SWAP1 PUSH2 0x44C JUMP JUMPDEST PUSH1 0x40 MLOAD DUP1 SWAP2 SUB SWAP1 RETURN JUMPDEST PUSH2 0x9C PUSH1 0x4 DUP1 CALLDATASIZE SUB DUP2 ADD SWAP1 PUSH2 0x97 SWAP2 SWAP1 PUSH2 0x5B1 JUMP JUMPDEST PUSH2 0x1BA JUMP JUMPDEST STOP JUMPDEST PUSH2 0xB8 PUSH1 0x4 DUP1 CALLDATASIZE SUB DUP2 ADD SWAP1 PUSH2 0xB3 SWAP2 SWAP1 PUSH2 0x380 JUMP JUMPDEST PUSH2 0x220 JUMP JUMPDEST PUSH1 0x40 MLOAD PUSH2 0xC5 SWAP2 SWAP1 PUSH2 0x6A3 JUMP JUMPDEST PUSH1 0x40 MLOAD DUP1 SWAP2 SUB SWAP1 RETURN JUMPDEST PUSH2 0xE8 PUSH1 0x4 DUP1 CALLDATASIZE SUB DUP2 ADD SWAP1 PUSH2 0xE3 SWAP2 SWAP1 PUSH2 0x380 JUMP JUMPDEST PUSH2 0x2F8 JUMP JUMPDEST PUSH1 0x40 MLOAD PUSH2 0xF5 SWAP2 SWAP1 PUSH2 0x6C5 JUMP JUMPDEST PUSH1 0x40 MLOAD DUP1 SWAP2 SUB SWAP1 RETURN JUMPDEST PUSH1 0x0 DUP2 DUP2 SLOAD DUP2 LT PUSH2 0x10E JUMPI PUSH1 0x0 DUP1 REVERT JUMPDEST SWAP1 PUSH1 0x0 MSTORE PUSH1 0x20 PUSH1 0x0 KECCAK256 SWAP1 PUSH1 0x2 MUL ADD PUSH1 0x0 SWAP2 POP SWAP1 POP DUP1 PUSH1 0x0 ADD DUP1 SLOAD PUSH2 0x131 SWAP1 PUSH2 0x70F JUMP JUMPDEST DUP1 PUSH1 0x1F ADD PUSH1 0x20 DUP1 SWAP2 DIV MUL PUSH1 0x20 ADD PUSH1 0x40 MLOAD SWAP1 DUP2 ADD PUSH1 0x40 MSTORE DUP1 SWAP3 SWAP2 SWAP1 DUP2 DUP2 MSTORE PUSH1 0x20 ADD DUP3 DUP1 SLOAD PUSH2 0x15D SWAP1 PUSH2 0x70F JUMP JUMPDEST DUP1 ISZERO PUSH2 0x1AA JUMPI DUP1 PUSH1 0x1F LT PUSH2 0x17F JUMPI PUSH2 0x100 DUP1 DUP4 SLOAD DIV MUL DUP4 MSTORE SWAP2 PUSH1 0x20 ADD SWAP2 PUSH2 0x1AA JUMP JUMPDEST DUP3 ADD SWAP2 SWAP1 PUSH1 0x0 MSTORE PUSH1 0x20 PUSH1 0x0 KECCAK256 SWAP1 JUMPDEST DUP2 SLOAD DUP2 MSTORE SWAP1 PUSH1 0x1 ADD SWAP1 PUSH1 0x20 ADD DUP1 DUP4 GT PUSH2 0x18D JUMPI DUP3 SWAP1 SUB PUSH1 0x1F AND DUP3 ADD SWAP2 JUMPDEST POP POP POP POP POP SWAP1 DUP1 PUSH1 0x1 ADD SLOAD SWAP1 POP DUP3 JUMP JUMPDEST PUSH1 0x0 PUSH1 0x40 MLOAD DUP1 PUSH1 0x40 ADD PUSH1 0x40 MSTORE DUP1 DUP5 DUP2 MSTORE PUSH1 0x20 ADD DUP4 DUP2 MSTORE POP SWAP1 DUP1 PUSH1 0x1 DUP2 SLOAD ADD DUP1 DUP3 SSTORE DUP1 SWAP2 POP POP PUSH1 0x1 SWAP1 SUB SWAP1 PUSH1 0x0 MSTORE PUSH1 0x20 PUSH1 0x0 KECCAK256 SWAP1 PUSH1 0x2 MUL ADD PUSH1 0x0 SWAP1 SWAP2 SWAP1 SWAP2 SWAP1 SWAP2 POP PUSH1 0x0 DUP3 ADD MLOAD DUP2 PUSH1 0x0 ADD SWAP1 DUP2 PUSH2 0x20F SWAP2 SWAP1 PUSH2 0x8EC JUMP JUMPDEST POP PUSH1 0x20 DUP3 ADD MLOAD DUP2 PUSH1 0x1 ADD SSTORE POP POP POP POP JUMP JUMPDEST PUSH2 0x228 PUSH2 0x31C JUMP JUMPDEST PUSH1 0x0 DUP3 DUP2 SLOAD DUP2 LT PUSH2 0x23C JUMPI PUSH2 0x23B PUSH2 0x9BE JUMP JUMPDEST JUMPDEST SWAP1 PUSH1 0x0 MSTORE PUSH1 0x20 PUSH1 0x0 KECCAK256 SWAP1 PUSH1 0x2 MUL ADD PUSH1 0x40 MLOAD DUP1 PUSH1 0x40 ADD PUSH1 0x40 MSTORE SWAP1 DUP2 PUSH1 0x0 DUP3 ADD DUP1 SLOAD PUSH2 0x265 SWAP1 PUSH2 0x70F JUMP JUMPDEST DUP1 PUSH1 0x1F ADD PUSH1 0x20 DUP1 SWAP2 DIV MUL PUSH1 0x20 ADD PUSH1 0x40 MLOAD SWAP1 DUP2 ADD PUSH1 0x40 MSTORE DUP1 SWAP3 SWAP2 SWAP1 DUP2 DUP2 MSTORE PUSH1 0x20 ADD DUP3 DUP1 SLOAD PUSH2 0x291 SWAP1 PUSH2 0x70F JUMP JUMPDEST DUP1 ISZERO PUSH2 0x2DE JUMPI DUP1 PUSH1 0x1F LT PUSH2 0x2B3 JUMPI PUSH2 0x100 DUP1 DUP4 SLOAD DIV MUL DUP4 MSTORE SWAP2 PUSH1 0x20 ADD SWAP2 PUSH2 0x2DE JUMP JUMPDEST DUP3 ADD SWAP2 SWAP1 PUSH1 0x0 MSTORE PUSH1 0x20 PUSH1 0x0 KECCAK256 SWAP1 JUMPDEST DUP2 SLOAD DUP2 MSTORE SWAP1 PUSH1 0x1 ADD SWAP1 PUSH1 0x20 ADD DUP1 DUP4 GT PUSH2 0x2C1 JUMPI DUP3 SWAP1 SUB PUSH1 0x1F AND DUP3 ADD SWAP2 JUMPDEST POP POP POP POP POP DUP2 MSTORE PUSH1 0x20 ADD PUSH1 0x1 DUP3 ADD SLOAD DUP2 MSTORE POP POP SWAP1 POP SWAP2 SWAP1 POP JUMP JUMPDEST PUSH1 0x1 DUP2 DUP2 SLOAD DUP2 LT PUSH2 0x308 JUMPI PUSH1 0x0 DUP1 REVERT JUMPDEST SWAP1 PUSH1 0x0 MSTORE PUSH1 0x20 PUSH1 0x0 KECCAK256 ADD PUSH1 0x0 SWAP2 POP SWAP1 POP SLOAD DUP2 JUMP JUMPDEST PUSH1 0x40 MLOAD DUP1 PUSH1 0x40 ADD PUSH1 0x40 MSTORE DUP1 PUSH1 0x60 DUP2 MSTORE PUSH1 0x20 ADD PUSH1 0x0 DUP2 MSTORE POP SWAP1 JUMP JUMPDEST PUSH1 0x0 PUSH1 0x40 MLOAD SWAP1 POP SWAP1 JUMP JUMPDEST PUSH1 0x0 DUP1 REVERT JUMPDEST PUSH1 0x0 DUP1 REVERT JUMPDEST PUSH1 0x0 DUP2 SWAP1 POP SWAP2 SWAP1 POP JUMP JUMPDEST PUSH2 0x35D DUP2 PUSH2 0x34A JUMP JUMPDEST DUP2 EQ PUSH2 0x368 JUMPI PUSH1 0x0 DUP1 REVERT JUMPDEST POP JUMP JUMPDEST PUSH1 0x0 DUP2 CALLDATALOAD SWAP1 POP PUSH2 0x37A DUP2 PUSH2 0x354 JUMP JUMPDEST SWAP3 SWAP2 POP POP JUMP JUMPDEST PUSH1 0x0 PUSH1 0x20 DUP3 DUP5 SUB SLT ISZERO PUSH2 0x396 JUMPI PUSH2 0x395 PUSH2 0x340 JUMP JUMPDEST JUMPDEST PUSH1 0x0 PUSH2 0x3A4 DUP5 DUP3 DUP6 ADD PUSH2 0x36B JUMP JUMPDEST SWAP2 POP POP SWAP3 SWAP2 POP POP JUMP JUMPDEST PUSH1 0x0 DUP2 MLOAD SWAP1 POP SWAP2 SWAP1 POP JUMP JUMPDEST PUSH1 0x0 DUP3 DUP3 MSTORE PUSH1 0x20 DUP3 ADD SWAP1 POP SWAP3 SWAP2 POP POP JUMP JUMPDEST PUSH1 0x0 JUMPDEST DUP4 DUP2 LT ISZERO PUSH2 0x3E7 JUMPI DUP1 DUP3 ADD MLOAD DUP2 DUP5 ADD MSTORE PUSH1 0x20 DUP2 ADD SWAP1 POP PUSH2 0x3CC JUMP JUMPDEST PUSH1 0x0 DUP5 DUP5 ADD MSTORE POP POP POP POP JUMP JUMPDEST PUSH1 0x0 PUSH1 0x1F NOT PUSH1 0x1F DUP4 ADD AND SWAP1 POP SWAP2 SWAP1 POP JUMP JUMPDEST PUSH1 0x0 PUSH2 0x40F DUP3 PUSH2 0x3AD JUMP JUMPDEST PUSH2 0x419 DUP2 DUP6 PUSH2 0x3B8 JUMP JUMPDEST SWAP4 POP PUSH2 0x429 DUP2 DUP6 PUSH1 0x20 DUP7 ADD PUSH2 0x3C9 JUMP JUMPDEST PUSH2 0x432 DUP2 PUSH2 0x3F3 JUMP JUMPDEST DUP5 ADD SWAP2 POP POP SWAP3 SWAP2 POP POP JUMP JUMPDEST PUSH2 0x446 DUP2 PUSH2 0x34A JUMP JUMPDEST DUP3 MSTORE POP POP JUMP JUMPDEST PUSH1 0x0 PUSH1 0x40 DUP3 ADD SWAP1 POP DUP2 DUP2 SUB PUSH1 0x0 DUP4 ADD MSTORE PUSH2 0x466 DUP2 DUP6 PUSH2 0x404 JUMP JUMPDEST SWAP1 POP PUSH2 0x475 PUSH1 0x20 DUP4 ADD DUP5 PUSH2 0x43D JUMP JUMPDEST SWAP4 SWAP3 POP POP POP JUMP JUMPDEST PUSH1 0x0 DUP1 REVERT JUMPDEST PUSH1 0x0 DUP1 REVERT JUMPDEST PUSH32 0x4E487B7100000000000000000000000000000000000000000000000000000000 PUSH1 0x0 MSTORE PUSH1 0x41 PUSH1 0x4 MSTORE PUSH1 0x24 PUSH1 0x0 REVERT JUMPDEST PUSH2 0x4BE DUP3 PUSH2 0x3F3 JUMP JUMPDEST DUP2 ADD DUP2 DUP2 LT PUSH8 0xFFFFFFFFFFFFFFFF DUP3 GT OR ISZERO PUSH2 0x4DD JUMPI PUSH2 0x4DC PUSH2 0x486 JUMP JUMPDEST JUMPDEST DUP1 PUSH1 0x40 MSTORE POP POP POP JUMP JUMPDEST PUSH1 0x0 PUSH2 0x4F0 PUSH2 0x336 JUMP JUMPDEST SWAP1 POP PUSH2 0x4FC DUP3 DUP3 PUSH2 0x4B5 JUMP JUMPDEST SWAP2 SWAP1 POP JUMP JUMPDEST PUSH1 0x0 PUSH8 0xFFFFFFFFFFFFFFFF DUP3 GT ISZERO PUSH2 0x51C JUMPI PUSH2 0x51B PUSH2 0x486 JUMP JUMPDEST JUMPDEST PUSH2 0x525 DUP3 PUSH2 0x3F3 JUMP JUMPDEST SWAP1 POP PUSH1 0x20 DUP2 ADD SWAP1 POP SWAP2 SWAP1 POP JUMP JUMPDEST DUP3 DUP2 DUP4 CALLDATACOPY PUSH1 0x0 DUP4 DUP4 ADD MSTORE POP POP POP JUMP JUMPDEST PUSH1 0x0 PUSH2 0x554 PUSH2 0x54F DUP5 PUSH2 0x501 JUMP JUMPDEST PUSH2 0x4E6 JUMP JUMPDEST SWAP1 POP DUP3 DUP2 MSTORE PUSH1 0x20 DUP2 ADD DUP5 DUP5 DUP5 ADD GT ISZERO PUSH2 0x570 JUMPI PUSH2 0x56F PUSH2 0x481 JUMP JUMPDEST JUMPDEST PUSH2 0x57B DUP5 DUP3 DUP6 PUSH2 0x532 JUMP JUMPDEST POP SWAP4 SWAP3 POP POP POP JUMP JUMPDEST PUSH1 0x0 DUP3 PUSH1 0x1F DUP4 ADD SLT PUSH2 0x598 JUMPI PUSH2 0x597 PUSH2 0x47C JUMP JUMPDEST JUMPDEST DUP2 CALLDATALOAD PUSH2 0x5A8 DUP5 DUP3 PUSH1 0x20 DUP7 ADD PUSH2 0x541 JUMP JUMPDEST SWAP2 POP POP SWAP3 SWAP2 POP POP JUMP JUMPDEST PUSH1 0x0 DUP1 PUSH1 0x40 DUP4 DUP6 SUB SLT ISZERO PUSH2 0x5C8 JUMPI PUSH2 0x5C7 PUSH2 0x340 JUMP JUMPDEST JUMPDEST PUSH1 0x0 DUP4 ADD CALLDATALOAD PUSH8 0xFFFFFFFFFFFFFFFF DUP2 GT ISZERO PUSH2 0x5E6 JUMPI PUSH2 0x5E5 PUSH2 0x345 JUMP JUMPDEST JUMPDEST PUSH2 0x5F2 DUP6 DUP3 DUP7 ADD PUSH2 0x583 JUMP JUMPDEST SWAP3 POP POP PUSH1 0x20 PUSH2 0x603 DUP6 DUP3 DUP7 ADD PUSH2 0x36B JUMP JUMPDEST SWAP2 POP POP SWAP3 POP SWAP3 SWAP1 POP JUMP JUMPDEST PUSH1 0x0 DUP3 DUP3 MSTORE PUSH1 0x20 DUP3 ADD SWAP1 POP SWAP3 SWAP2 POP POP JUMP JUMPDEST PUSH1 0x0 PUSH2 0x629 DUP3 PUSH2 0x3AD JUMP JUMPDEST PUSH2 0x633 DUP2 DUP6 PUSH2 0x60D JUMP JUMPDEST SWAP4 POP PUSH2 0x643 DUP2 DUP6 PUSH1 0x20 DUP7 ADD PUSH2 0x3C9 JUMP JUMPDEST PUSH2 0x64C DUP2 PUSH2 0x3F3 JUMP JUMPDEST DUP5 ADD SWAP2 POP POP SWAP3 SWAP2 POP POP JUMP JUMPDEST PUSH2 0x660 DUP2 PUSH2 0x34A JUMP JUMPDEST DUP3 MSTORE POP POP JUMP JUMPDEST PUSH1 0x0 PUSH1 0x40 DUP4 ADD PUSH1 0x0 DUP4 ADD MLOAD DUP5 DUP3 SUB PUSH1 0x0 DUP7 ADD MSTORE PUSH2 0x683 DUP3 DUP3 PUSH2 0x61E JUMP JUMPDEST SWAP2 POP POP PUSH1 0x20 DUP4 ADD MLOAD PUSH2 0x698 PUSH1 0x20 DUP7 ADD DUP3 PUSH2 0x657 JUMP JUMPDEST POP DUP1 SWAP2 POP POP SWAP3 SWAP2 POP POP JUMP JUMPDEST PUSH1 0x0 PUSH1 0x20 DUP3 ADD SWAP1 POP DUP2 DUP2 SUB PUSH1 0x0 DUP4 ADD MSTORE PUSH2 0x6BD DUP2 DUP5 PUSH2 0x666 JUMP JUMPDEST SWAP1 POP SWAP3 SWAP2 POP POP JUMP JUMPDEST PUSH1 0x0 PUSH1 0x20 DUP3 ADD SWAP1 POP PUSH2 0x6DA PUSH1 0x0 DUP4 ADD DUP5 PUSH2 0x43D JUMP JUMPDEST SWAP3 SWAP2 POP POP JUMP JUMPDEST PUSH32 0x4E487B7100000000000000000000000000000000000000000000000000000000 PUSH1 0x0 MSTORE PUSH1 0x22 PUSH1 0x4 MSTORE PUSH1 0x24 PUSH1 0x0 REVERT JUMPDEST PUSH1 0x0 PUSH1 0x2 DUP3 DIV SWAP1 POP PUSH1 0x1 DUP3 AND DUP1 PUSH2 0x727 JUMPI PUSH1 0x7F DUP3 AND SWAP2 POP JUMPDEST PUSH1 0x20 DUP3 LT DUP2 SUB PUSH2 0x73A JUMPI PUSH2 0x739 PUSH2 0x6E0 JUMP JUMPDEST JUMPDEST POP SWAP2 SWAP1 POP JUMP JUMPDEST PUSH1 0x0 DUP2 SWAP1 POP DUP2 PUSH1 0x0 MSTORE PUSH1 0x20 PUSH1 0x0 KECCAK256 SWAP1 POP SWAP2 SWAP1 POP JUMP JUMPDEST PUSH1 0x0 PUSH1 0x20 PUSH1 0x1F DUP4 ADD DIV SWAP1 POP SWAP2 SWAP1 POP JUMP JUMPDEST PUSH1 0x0 DUP3 DUP3 SHL SWAP1 POP SWAP3 SWAP2 POP POP JUMP JUMPDEST PUSH1 0x0 PUSH1 0x8 DUP4 MUL PUSH2 0x7A2 PUSH32 0xFFFFFFFFFFFFFFFFFFFFFFFFFFFFFFFFFFFFFFFFFFFFFFFFFFFFFFFFFFFFFFFF DUP3 PUSH2 0x765 JUMP JUMPDEST PUSH2 0x7AC DUP7 DUP4 PUSH2 0x765 JUMP JUMPDEST SWAP6 POP DUP1 NOT DUP5 AND SWAP4 POP DUP1 DUP7 AND DUP5 OR SWAP3 POP POP POP SWAP4 SWAP3 POP POP POP JUMP JUMPDEST PUSH1 0x0 DUP2 SWAP1 POP SWAP2 SWAP1 POP JUMP JUMPDEST PUSH1 0x0 PUSH2 0x7E9 PUSH2 0x7E4 PUSH2 0x7DF DUP5 PUSH2 0x34A JUMP JUMPDEST PUSH2 0x7C4 JUMP JUMPDEST PUSH2 0x34A JUMP JUMPDEST SWAP1 POP SWAP2 SWAP1 POP JUMP JUMPDEST PUSH1 0x0 DUP2 SWAP1 POP SWAP2 SWAP1 POP JUMP JUMPDEST PUSH2 0x803 DUP4 PUSH2 0x7CE JUMP JUMPDEST PUSH2 0x817 PUSH2 0x80F DUP3 PUSH2 0x7F0 JUMP JUMPDEST DUP5 DUP5 SLOAD PUSH2 0x772 JUMP JUMPDEST DUP3 SSTORE POP POP POP POP JUMP JUMPDEST PUSH1 0x0 SWAP1 JUMP JUMPDEST PUSH2 0x82C PUSH2 0x81F JUMP JUMPDEST PUSH2 0x837 DUP2 DUP5 DUP5 PUSH2 0x7FA JUMP JUMPDEST POP POP POP JUMP JUMPDEST JUMPDEST DUP2 DUP2 LT ISZERO PUSH2 0x85B JUMPI PUSH2 0x850 PUSH1 0x0 DUP3 PUSH2 0x824 JUMP JUMPDEST PUSH1 0x1 DUP2 ADD SWAP1 POP PUSH2 0x83D JUMP JUMPDEST POP POP JUMP JUMPDEST PUSH1 0x1F DUP3 GT ISZERO PUSH2 0x8A0 JUMPI PUSH2 0x871 DUP2 PUSH2 0x740 JUMP JUMPDEST PUSH2 0x87A DUP5 PUSH2 0x755 JUMP JUMPDEST DUP2 ADD PUSH1 0x20 DUP6 LT ISZERO PUSH2 0x889 JUMPI DUP2 SWAP1 POP JUMPDEST PUSH2 0x89D PUSH2 0x895 DUP6 PUSH2 0x755 JUMP JUMPDEST DUP4 ADD DUP3 PUSH2 0x83C JUMP JUMPDEST POP POP JUMPDEST POP POP POP JUMP JUMPDEST PUSH1 0x0 DUP3 DUP3 SHR SWAP1 POP SWAP3 SWAP2 POP POP JUMP JUMPDEST PUSH1 0x0 PUSH2 0x8C3 PUSH1 0x0 NOT DUP5 PUSH1 0x8 MUL PUSH2 0x8A5 JUMP JUMPDEST NOT DUP1 DUP4 AND SWAP2 POP POP SWAP3 SWAP2 POP POP JUMP JUMPDEST PUSH1 0x0 PUSH2 0x8DC DUP4 DUP4 PUSH2 0x8B2 JUMP JUMPDEST SWAP2 POP DUP3 PUSH1 0x2 MUL DUP3 OR SWAP1 POP SWAP3 SWAP2 POP POP JUMP JUMPDEST PUSH2 0x8F5 DUP3 PUSH2 0x3AD JUMP JUMPDEST PUSH8 0xFFFFFFFFFFFFFFFF DUP2 GT ISZERO PUSH2 0x90E JUMPI PUSH2 0x90D PUSH2 0x486 JUMP JUMPDEST JUMPDEST PUSH2 0x918 DUP3 SLOAD PUSH2 0x70F JUMP JUMPDEST PUSH2 0x923 DUP3 DUP3 DUP6 PUSH2 0x85F JUMP JUMPDEST PUSH1 0x0 PUSH1 0x20 SWAP1 POP PUSH1 0x1F DUP4 GT PUSH1 0x1 DUP2 EQ PUSH2 0x956 JUMPI PUSH1 0x0 DUP5 ISZERO PUSH2 0x944 JUMPI DUP3 DUP8 ADD MLOAD SWAP1 POP JUMPDEST PUSH2 0x94E DUP6 DUP3 PUSH2 0x8D0 JUMP JUMPDEST DUP7 SSTORE POP PUSH2 0x9B6 JUMP JUMPDEST PUSH1 0x1F NOT DUP5 AND PUSH2 0x964 DUP7 PUSH2 0x740 JUMP JUMPDEST PUSH1 0x0 JUMPDEST DUP3 DUP2 LT ISZERO PUSH2 0x98C JUMPI DUP5 DUP10 ADD MLOAD DUP3 SSTORE PUSH1 0x1 DUP3 ADD SWAP2 POP PUSH1 0x20 DUP6 ADD SWAP5 POP PUSH1 0x20 DUP2 ADD SWAP1 POP PUSH2 0x967 JUMP JUMPDEST DUP7 DUP4 LT ISZERO PUSH2 0x9A9 JUMPI DUP5 DUP10 ADD MLOAD PUSH2 0x9A5 PUSH1 0x1F DUP10 AND DUP3 PUSH2 0x8B2 JUMP JUMPDEST DUP4 SSTORE POP JUMPDEST PUSH1 0x1 PUSH1 0x2 DUP9 MUL ADD DUP9 SSTORE POP POP POP JUMPDEST POP POP POP POP POP POP JUMP JUMPDEST PUSH32 0x4E487B7100000000000000000000000000000000000000000000000000000000 PUSH1 0x0 MSTORE PUSH1 0x32 PUSH1 0x4 MSTORE PUSH1 0x24 PUSH1 0x0 REVERT INVALID LOG2 PUSH5 0x6970667358 0x22 SLT KECCAK256 0xC6 DUP4 0xA7 DUP5 PUSH18 0x2D5EDAAD26BA258AD5DE0665DA09720060C4 SWAP2 0x29 JUMPI 0xB5 EXTCODECOPY 0xAC 0xCB DELEGATECALL PUSH11 0x64736F6C63430008120033 "
				},
				"gasEstimates": {
					"creation": {
						"codeDepositCost": "519000",
						"executionCost": "556",
						"totalCost": "519556"
					},
					"external": {
						"a(uint256)": "infinite",
						"addItemInfo(string,uint256)": "infinite",
						"getItemInfo(uint256)": "infinite",
						"itemList(uint256)": "infinite"
					}
				},
				"methodIdentifiers": {
					"a(uint256)": "f0fdf834",
					"addItemInfo(string,uint256)": "7ba41e6f",
					"getItemInfo(uint256)": "de7fe3e7",
					"itemList(uint256)": "3d4d3600"
				}
			},
			"storageLayout": {
				"storage": [
					{
						"astId": 28,
						"contract": "lecture/38_interface.sol:lec39",
						"label": "itemList",
						"offset": 0,
						"slot": "0",
						"type": "t_array(t_struct(item)6_storage)dyn_storage"
					},
					{
						"astId": 31,
						"contract": "lecture/38_interface.sol:lec39",
						"label": "a",
						"offset": 0,
						"slot": "1",
						"type": "t_array(t_uint256)dyn_storage"
					}
				],
				"types": {
					"t_array(t_struct(item)6_storage)dyn_storage": {
						"base": "t_struct(item)6_storage",
						"encoding": "dynamic_array",
						"label": "struct ItemInfo.item[]",
						"numberOfBytes": "32"
					},
					"t_array(t_uint256)dyn_storage": {
						"base": "t_uint256",
						"encoding": "dynamic_array",
						"label": "uint256[]",
						"numberOfBytes": "32"
					},
					"t_string_storage": {
						"encoding": "bytes",
						"label": "string",
						"numberOfBytes": "32"
					},
					"t_struct(item)6_storage": {
						"encoding": "inplace",
						"label": "struct ItemInfo.item",
						"members": [
							{
								"astId": 3,
								"contract": "lecture/38_interface.sol:lec39",
								"label": "name",
								"offset": 0,
								"slot": "0",
								"type": "t_string_storage"
							},
							{
								"astId": 5,
								"contract": "lecture/38_interface.sol:lec39",
								"label": "price",
								"offset": 0,
								"slot": "1",
								"type": "t_uint256"
							}
						],
						"numberOfBytes": "64"
					},
					"t_uint256": {
						"encoding": "inplace",
						"label": "uint256",
						"numberOfBytes": "32"
					}
				}
			},
			"userdoc": {
				"kind": "user",
				"methods": {},
				"version": 1
			}
		}
	}
}