{
	"lecture/21_for,while,do-while.sol": {
		"lec22": {
			"abi": [
				{
					"anonymous": false,
					"inputs": [
						{
							"indexed": true,
							"internalType": "uint256",
							"name": "_index",
							"type": "uint256"
						},
						{
							"indexed": false,
							"internalType": "string",
							"name": "_name",
							"type": "string"
						}
					],
					"name": "CountryIndexName",
					"type": "event"
				},
				{
					"inputs": [],
					"name": "doWhileLoopEvents",
					"outputs": [],
					"stateMutability": "nonpayable",
					"type": "function"
				},
				{
					"inputs": [],
					"name": "forLoopEvents",
					"outputs": [],
					"stateMutability": "nonpayable",
					"type": "function"
				},
				{
					"inputs": [],
					"name": "whileLoopEvents",
					"outputs": [],
					"stateMutability": "nonpayable",
					"type": "function"
				}
			],
			"devdoc": {
				"kind": "dev",
				"methods": {},
				"version": 1
			},
			"evm": {
				"assembly": "    /* \"lecture/21_for,while,do-while.sol\":93:1264  contract lec22{... */\n  mstore(0x40, 0x80)\n    /* \"lecture/21_for,while,do-while.sol\":336:418  string[] private countryList = [\"South Korea\",\"North Korea\",\"USA\",\"China\",\"Japan\"] */\n  mload(0x40)\n  dup1\n  0xa0\n  add\n  0x40\n  mstore\n  dup1\n  mload(0x40)\n  dup1\n  0x40\n  add\n  0x40\n  mstore\n  dup1\n  0x0b\n  dup2\n  mstore\n  0x20\n  add\n  0x536f757468204b6f726561000000000000000000000000000000000000000000\n  dup2\n  mstore\n  pop\n  dup2\n  mstore\n  0x20\n  add\n  mload(0x40)\n  dup1\n  0x40\n  add\n  0x40\n  mstore\n  dup1\n  0x0b\n  dup2\n  mstore\n  0x20\n  add\n  0x4e6f727468204b6f726561000000000000000000000000000000000000000000\n  dup2\n  mstore\n  pop\n  dup2\n  mstore\n  0x20\n  add\n  mload(0x40)\n  dup1\n  0x40\n  add\n  0x40\n  mstore\n  dup1\n  0x03\n  dup2\n  mstore\n  0x20\n  add\n  0x5553410000000000000000000000000000000000000000000000000000000000\n  dup2\n  mstore\n  pop\n  dup2\n  mstore\n  0x20\n  add\n  mload(0x40)\n  dup1\n  0x40\n  add\n  0x40\n  mstore\n  dup1\n  0x05\n  dup2\n  mstore\n  0x20\n  add\n  0x4368696e61000000000000000000000000000000000000000000000000000000\n  dup2\n  mstore\n  pop\n  dup2\n  mstore\n  0x20\n  add\n  mload(0x40)\n  dup1\n  0x40\n  add\n  0x40\n  mstore\n  dup1\n  0x05\n  dup2\n  mstore\n  0x20\n  add\n  0x4a6170616e000000000000000000000000000000000000000000000000000000\n  dup2\n  mstore\n  pop\n  dup2\n  mstore\n  pop\n  0x00\n  swap1\n  0x05\n  tag_1\n  swap3\n  swap2\n  swap1\n  tag_2\n  jump\t// in\ntag_1:\n  pop\n    /* \"lecture/21_for,while,do-while.sol\":93:1264  contract lec22{... */\n  callvalue\n  dup1\n  iszero\n  tag_3\n  jumpi\n  0x00\n  dup1\n  revert\ntag_3:\n  pop\n  jump(tag_4)\ntag_2:\n  dup3\n  dup1\n  sload\n  dup3\n  dup3\n  sstore\n  swap1\n  0x00\n  mstore\n  keccak256(0x00, 0x20)\n  swap1\n  dup2\n  add\n  swap3\n  dup3\n  iszero\n  tag_5\n  jumpi\n  swap2\n  0x20\n  mul\n  dup3\n  add\ntag_6:\n  dup3\n  dup2\n  gt\n  iszero\n  tag_7\n  jumpi\n  dup3\n  mload\n  dup3\n  swap1\n  dup2\n  tag_8\n  swap2\n  swap1\n  tag_9\n  jump\t// in\ntag_8:\n  pop\n  swap2\n  0x20\n  add\n  swap2\n  swap1\n  0x01\n  add\n  swap1\n  jump(tag_6)\ntag_7:\ntag_5:\n  pop\n  swap1\n  pop\n  tag_10\n  swap2\n  swap1\n  tag_11\n  jump\t// in\ntag_10:\n  pop\n  swap1\n  jump\t// out\ntag_11:\ntag_12:\n  dup1\n  dup3\n  gt\n  iszero\n  tag_13\n  jumpi\n  0x00\n  dup2\n  dup2\n  tag_14\n  swap2\n  swap1\n  tag_15\n  jump\t// in\ntag_14:\n  pop\n  0x01\n  add\n  jump(tag_12)\ntag_13:\n  pop\n  swap1\n  jump\t// out\ntag_15:\n  pop\n  dup1\n  sload\n  tag_16\n  swap1\n  tag_17\n  jump\t// in\ntag_16:\n  0x00\n  dup3\n  sstore\n  dup1\n  0x1f\n  lt\n  tag_19\n  jumpi\n  pop\n  jump(tag_18)\ntag_19:\n  0x1f\n  add\n  0x20\n  swap1\n  div\n  swap1\n  0x00\n  mstore\n  keccak256(0x00, 0x20)\n  swap1\n  dup2\n  add\n  swap1\n  tag_20\n  swap2\n  swap1\n  tag_21\n  jump\t// in\ntag_20:\ntag_18:\n  pop\n  jump\t// out\ntag_21:\ntag_22:\n  dup1\n  dup3\n  gt\n  iszero\n  tag_23\n  jumpi\n  0x00\n  dup2\n  0x00\n  swap1\n  sstore\n  pop\n  0x01\n  add\n  jump(tag_22)\ntag_23:\n  pop\n  swap1\n  jump\t// out\n    /* \"#utility.yul\":7:106   */\ntag_24:\n    /* \"#utility.yul\":59:65   */\n  0x00\n    /* \"#utility.yul\":93:98   */\n  dup2\n    /* \"#utility.yul\":87:99   */\n  mload\n    /* \"#utility.yul\":77:99   */\n  swap1\n  pop\n    /* \"#utility.yul\":7:106   */\n  swap2\n  swap1\n  pop\n  jump\t// out\n    /* \"#utility.yul\":112:292   */\ntag_25:\n    /* \"#utility.yul\":160:237   */\n  0x4e487b7100000000000000000000000000000000000000000000000000000000\n    /* \"#utility.yul\":157:158   */\n  0x00\n    /* \"#utility.yul\":150:238   */\n  mstore\n    /* \"#utility.yul\":257:261   */\n  0x41\n    /* \"#utility.yul\":254:255   */\n  0x04\n    /* \"#utility.yul\":247:262   */\n  mstore\n    /* \"#utility.yul\":281:285   */\n  0x24\n    /* \"#utility.yul\":278:279   */\n  0x00\n    /* \"#utility.yul\":271:286   */\n  revert\n    /* \"#utility.yul\":298:478   */\ntag_26:\n    /* \"#utility.yul\":346:423   */\n  0x4e487b7100000000000000000000000000000000000000000000000000000000\n    /* \"#utility.yul\":343:344   */\n  0x00\n    /* \"#utility.yul\":336:424   */\n  mstore\n    /* \"#utility.yul\":443:447   */\n  0x22\n    /* \"#utility.yul\":440:441   */\n  0x04\n    /* \"#utility.yul\":433:448   */\n  mstore\n    /* \"#utility.yul\":467:471   */\n  0x24\n    /* \"#utility.yul\":464:465   */\n  0x00\n    /* \"#utility.yul\":457:472   */\n  revert\n    /* \"#utility.yul\":484:804   */\ntag_17:\n    /* \"#utility.yul\":528:534   */\n  0x00\n    /* \"#utility.yul\":565:566   */\n  0x02\n    /* \"#utility.yul\":559:563   */\n  dup3\n    /* \"#utility.yul\":555:567   */\n  div\n    /* \"#utility.yul\":545:567   */\n  swap1\n  pop\n    /* \"#utility.yul\":612:613   */\n  0x01\n    /* \"#utility.yul\":606:610   */\n  dup3\n    /* \"#utility.yul\":602:614   */\n  and\n    /* \"#utility.yul\":633:651   */\n  dup1\n    /* \"#utility.yul\":623:704   */\n  tag_48\n  jumpi\n    /* \"#utility.yul\":689:693   */\n  0x7f\n    /* \"#utility.yul\":681:687   */\n  dup3\n    /* \"#utility.yul\":677:694   */\n  and\n    /* \"#utility.yul\":667:694   */\n  swap2\n  pop\n    /* \"#utility.yul\":623:704   */\ntag_48:\n    /* \"#utility.yul\":751:753   */\n  0x20\n    /* \"#utility.yul\":743:749   */\n  dup3\n    /* \"#utility.yul\":740:754   */\n  lt\n    /* \"#utility.yul\":720:738   */\n  dup2\n    /* \"#utility.yul\":717:755   */\n  sub\n    /* \"#utility.yul\":714:798   */\n  tag_49\n  jumpi\n    /* \"#utility.yul\":770:788   */\n  tag_50\n  tag_26\n  jump\t// in\ntag_50:\n    /* \"#utility.yul\":714:798   */\ntag_49:\n    /* \"#utility.yul\":535:804   */\n  pop\n    /* \"#utility.yul\":484:804   */\n  swap2\n  swap1\n  pop\n  jump\t// out\n    /* \"#utility.yul\":810:951   */\ntag_27:\n    /* \"#utility.yul\":859:863   */\n  0x00\n    /* \"#utility.yul\":882:885   */\n  dup2\n    /* \"#utility.yul\":874:885   */\n  swap1\n  pop\n    /* \"#utility.yul\":905:908   */\n  dup2\n    /* \"#utility.yul\":902:903   */\n  0x00\n    /* \"#utility.yul\":895:909   */\n  mstore\n    /* \"#utility.yul\":939:943   */\n  0x20\n    /* \"#utility.yul\":936:937   */\n  0x00\n    /* \"#utility.yul\":926:944   */\n  keccak256\n    /* \"#utility.yul\":918:944   */\n  swap1\n  pop\n    /* \"#utility.yul\":810:951   */\n  swap2\n  swap1\n  pop\n  jump\t// out\n    /* \"#utility.yul\":957:1050   */\ntag_28:\n    /* \"#utility.yul\":994:1000   */\n  0x00\n    /* \"#utility.yul\":1041:1043   */\n  0x20\n    /* \"#utility.yul\":1036:1038   */\n  0x1f\n    /* \"#utility.yul\":1029:1034   */\n  dup4\n    /* \"#utility.yul\":1025:1039   */\n  add\n    /* \"#utility.yul\":1021:1044   */\n  div\n    /* \"#utility.yul\":1011:1044   */\n  swap1\n  pop\n    /* \"#utility.yul\":957:1050   */\n  swap2\n  swap1\n  pop\n  jump\t// out\n    /* \"#utility.yul\":1056:1163   */\ntag_29:\n    /* \"#utility.yul\":1100:1108   */\n  0x00\n    /* \"#utility.yul\":1150:1155   */\n  dup3\n    /* \"#utility.yul\":1144:1148   */\n  dup3\n    /* \"#utility.yul\":1140:1156   */\n  shl\n    /* \"#utility.yul\":1119:1156   */\n  swap1\n  pop\n    /* \"#utility.yul\":1056:1163   */\n  swap3\n  swap2\n  pop\n  pop\n  jump\t// out\n    /* \"#utility.yul\":1169:1562   */\ntag_30:\n    /* \"#utility.yul\":1238:1244   */\n  0x00\n    /* \"#utility.yul\":1288:1289   */\n  0x08\n    /* \"#utility.yul\":1276:1286   */\n  dup4\n    /* \"#utility.yul\":1272:1290   */\n  mul\n    /* \"#utility.yul\":1311:1408   */\n  tag_55\n    /* \"#utility.yul\":1341:1407   */\n  0xffffffffffffffffffffffffffffffffffffffffffffffffffffffffffffffff\n    /* \"#utility.yul\":1330:1339   */\n  dup3\n    /* \"#utility.yul\":1311:1408   */\n  tag_29\n  jump\t// in\ntag_55:\n    /* \"#utility.yul\":1429:1468   */\n  tag_56\n    /* \"#utility.yul\":1459:1467   */\n  dup7\n    /* \"#utility.yul\":1448:1457   */\n  dup4\n    /* \"#utility.yul\":1429:1468   */\n  tag_29\n  jump\t// in\ntag_56:\n    /* \"#utility.yul\":1417:1468   */\n  swap6\n  pop\n    /* \"#utility.yul\":1501:1505   */\n  dup1\n    /* \"#utility.yul\":1497:1506   */\n  not\n    /* \"#utility.yul\":1490:1495   */\n  dup5\n    /* \"#utility.yul\":1486:1507   */\n  and\n    /* \"#utility.yul\":1477:1507   */\n  swap4\n  pop\n    /* \"#utility.yul\":1550:1554   */\n  dup1\n    /* \"#utility.yul\":1540:1548   */\n  dup7\n    /* \"#utility.yul\":1536:1555   */\n  and\n    /* \"#utility.yul\":1529:1534   */\n  dup5\n    /* \"#utility.yul\":1526:1556   */\n  or\n    /* \"#utility.yul\":1516:1556   */\n  swap3\n  pop\n    /* \"#utility.yul\":1245:1562   */\n  pop\n  pop\n    /* \"#utility.yul\":1169:1562   */\n  swap4\n  swap3\n  pop\n  pop\n  pop\n  jump\t// out\n    /* \"#utility.yul\":1568:1645   */\ntag_31:\n    /* \"#utility.yul\":1605:1612   */\n  0x00\n    /* \"#utility.yul\":1634:1639   */\n  dup2\n    /* \"#utility.yul\":1623:1639   */\n  swap1\n  pop\n    /* \"#utility.yul\":1568:1645   */\n  swap2\n  swap1\n  pop\n  jump\t// out\n    /* \"#utility.yul\":1651:1711   */\ntag_32:\n    /* \"#utility.yul\":1679:1682   */\n  0x00\n    /* \"#utility.yul\":1700:1705   */\n  dup2\n    /* \"#utility.yul\":1693:1705   */\n  swap1\n  pop\n    /* \"#utility.yul\":1651:1711   */\n  swap2\n  swap1\n  pop\n  jump\t// out\n    /* \"#utility.yul\":1717:1859   */\ntag_33:\n    /* \"#utility.yul\":1767:1776   */\n  0x00\n    /* \"#utility.yul\":1800:1853   */\n  tag_60\n    /* \"#utility.yul\":1818:1852   */\n  tag_61\n    /* \"#utility.yul\":1827:1851   */\n  tag_62\n    /* \"#utility.yul\":1845:1850   */\n  dup5\n    /* \"#utility.yul\":1827:1851   */\n  tag_31\n  jump\t// in\ntag_62:\n    /* \"#utility.yul\":1818:1852   */\n  tag_32\n  jump\t// in\ntag_61:\n    /* \"#utility.yul\":1800:1853   */\n  tag_31\n  jump\t// in\ntag_60:\n    /* \"#utility.yul\":1787:1853   */\n  swap1\n  pop\n    /* \"#utility.yul\":1717:1859   */\n  swap2\n  swap1\n  pop\n  jump\t// out\n    /* \"#utility.yul\":1865:1940   */\ntag_34:\n    /* \"#utility.yul\":1908:1911   */\n  0x00\n    /* \"#utility.yul\":1929:1934   */\n  dup2\n    /* \"#utility.yul\":1922:1934   */\n  swap1\n  pop\n    /* \"#utility.yul\":1865:1940   */\n  swap2\n  swap1\n  pop\n  jump\t// out\n    /* \"#utility.yul\":1946:2215   */\ntag_35:\n    /* \"#utility.yul\":2056:2095   */\n  tag_65\n    /* \"#utility.yul\":2087:2094   */\n  dup4\n    /* \"#utility.yul\":2056:2095   */\n  tag_33\n  jump\t// in\ntag_65:\n    /* \"#utility.yul\":2117:2208   */\n  tag_66\n    /* \"#utility.yul\":2166:2207   */\n  tag_67\n    /* \"#utility.yul\":2190:2206   */\n  dup3\n    /* \"#utility.yul\":2166:2207   */\n  tag_34\n  jump\t// in\ntag_67:\n    /* \"#utility.yul\":2158:2164   */\n  dup5\n    /* \"#utility.yul\":2151:2155   */\n  dup5\n    /* \"#utility.yul\":2145:2156   */\n  sload\n    /* \"#utility.yul\":2117:2208   */\n  tag_30\n  jump\t// in\ntag_66:\n    /* \"#utility.yul\":2111:2115   */\n  dup3\n    /* \"#utility.yul\":2104:2209   */\n  sstore\n    /* \"#utility.yul\":2022:2215   */\n  pop\n    /* \"#utility.yul\":1946:2215   */\n  pop\n  pop\n  pop\n  jump\t// out\n    /* \"#utility.yul\":2221:2294   */\ntag_36:\n    /* \"#utility.yul\":2266:2269   */\n  0x00\n    /* \"#utility.yul\":2221:2294   */\n  swap1\n  jump\t// out\n    /* \"#utility.yul\":2300:2489   */\ntag_37:\n    /* \"#utility.yul\":2377:2409   */\n  tag_70\n  tag_36\n  jump\t// in\ntag_70:\n    /* \"#utility.yul\":2418:2483   */\n  tag_71\n    /* \"#utility.yul\":2476:2482   */\n  dup2\n    /* \"#utility.yul\":2468:2474   */\n  dup5\n    /* \"#utility.yul\":2462:2466   */\n  dup5\n    /* \"#utility.yul\":2418:2483   */\n  tag_35\n  jump\t// in\ntag_71:\n    /* \"#utility.yul\":2353:2489   */\n  pop\n    /* \"#utility.yul\":2300:2489   */\n  pop\n  pop\n  jump\t// out\n    /* \"#utility.yul\":2495:2681   */\ntag_38:\n    /* \"#utility.yul\":2555:2675   */\ntag_73:\n    /* \"#utility.yul\":2572:2575   */\n  dup2\n    /* \"#utility.yul\":2565:2570   */\n  dup2\n    /* \"#utility.yul\":2562:2576   */\n  lt\n    /* \"#utility.yul\":2555:2675   */\n  iszero\n  tag_75\n  jumpi\n    /* \"#utility.yul\":2626:2665   */\n  tag_76\n    /* \"#utility.yul\":2663:2664   */\n  0x00\n    /* \"#utility.yul\":2656:2661   */\n  dup3\n    /* \"#utility.yul\":2626:2665   */\n  tag_37\n  jump\t// in\ntag_76:\n    /* \"#utility.yul\":2599:2600   */\n  0x01\n    /* \"#utility.yul\":2592:2597   */\n  dup2\n    /* \"#utility.yul\":2588:2601   */\n  add\n    /* \"#utility.yul\":2579:2601   */\n  swap1\n  pop\n    /* \"#utility.yul\":2555:2675   */\n  jump(tag_73)\ntag_75:\n    /* \"#utility.yul\":2495:2681   */\n  pop\n  pop\n  jump\t// out\n    /* \"#utility.yul\":2687:3230   */\ntag_39:\n    /* \"#utility.yul\":2788:2790   */\n  0x1f\n    /* \"#utility.yul\":2783:2786   */\n  dup3\n    /* \"#utility.yul\":2780:2791   */\n  gt\n    /* \"#utility.yul\":2777:3223   */\n  iszero\n  tag_78\n  jumpi\n    /* \"#utility.yul\":2822:2860   */\n  tag_79\n    /* \"#utility.yul\":2854:2859   */\n  dup2\n    /* \"#utility.yul\":2822:2860   */\n  tag_27\n  jump\t// in\ntag_79:\n    /* \"#utility.yul\":2906:2935   */\n  tag_80\n    /* \"#utility.yul\":2924:2934   */\n  dup5\n    /* \"#utility.yul\":2906:2935   */\n  tag_28\n  jump\t// in\ntag_80:\n    /* \"#utility.yul\":2896:2904   */\n  dup2\n    /* \"#utility.yul\":2892:2936   */\n  add\n    /* \"#utility.yul\":3089:3091   */\n  0x20\n    /* \"#utility.yul\":3077:3087   */\n  dup6\n    /* \"#utility.yul\":3074:3092   */\n  lt\n    /* \"#utility.yul\":3071:3120   */\n  iszero\n  tag_81\n  jumpi\n    /* \"#utility.yul\":3110:3118   */\n  dup2\n    /* \"#utility.yul\":3095:3118   */\n  swap1\n  pop\n    /* \"#utility.yul\":3071:3120   */\ntag_81:\n    /* \"#utility.yul\":3133:3213   */\n  tag_82\n    /* \"#utility.yul\":3189:3211   */\n  tag_83\n    /* \"#utility.yul\":3207:3210   */\n  dup6\n    /* \"#utility.yul\":3189:3211   */\n  tag_28\n  jump\t// in\ntag_83:\n    /* \"#utility.yul\":3179:3187   */\n  dup4\n    /* \"#utility.yul\":3175:3212   */\n  add\n    /* \"#utility.yul\":3162:3173   */\n  dup3\n    /* \"#utility.yul\":3133:3213   */\n  tag_38\n  jump\t// in\ntag_82:\n    /* \"#utility.yul\":2792:3223   */\n  pop\n  pop\n    /* \"#utility.yul\":2777:3223   */\ntag_78:\n    /* \"#utility.yul\":2687:3230   */\n  pop\n  pop\n  pop\n  jump\t// out\n    /* \"#utility.yul\":3236:3353   */\ntag_40:\n    /* \"#utility.yul\":3290:3298   */\n  0x00\n    /* \"#utility.yul\":3340:3345   */\n  dup3\n    /* \"#utility.yul\":3334:3338   */\n  dup3\n    /* \"#utility.yul\":3330:3346   */\n  shr\n    /* \"#utility.yul\":3309:3346   */\n  swap1\n  pop\n    /* \"#utility.yul\":3236:3353   */\n  swap3\n  swap2\n  pop\n  pop\n  jump\t// out\n    /* \"#utility.yul\":3359:3528   */\ntag_41:\n    /* \"#utility.yul\":3403:3409   */\n  0x00\n    /* \"#utility.yul\":3436:3487   */\n  tag_86\n    /* \"#utility.yul\":3484:3485   */\n  0x00\n    /* \"#utility.yul\":3480:3486   */\n  not\n    /* \"#utility.yul\":3472:3477   */\n  dup5\n    /* \"#utility.yul\":3469:3470   */\n  0x08\n    /* \"#utility.yul\":3465:3478   */\n  mul\n    /* \"#utility.yul\":3436:3487   */\n  tag_40\n  jump\t// in\ntag_86:\n    /* \"#utility.yul\":3432:3488   */\n  not\n    /* \"#utility.yul\":3517:3521   */\n  dup1\n    /* \"#utility.yul\":3511:3515   */\n  dup4\n    /* \"#utility.yul\":3507:3522   */\n  and\n    /* \"#utility.yul\":3497:3522   */\n  swap2\n  pop\n    /* \"#utility.yul\":3410:3528   */\n  pop\n    /* \"#utility.yul\":3359:3528   */\n  swap3\n  swap2\n  pop\n  pop\n  jump\t// out\n    /* \"#utility.yul\":3533:3828   */\ntag_42:\n    /* \"#utility.yul\":3609:3613   */\n  0x00\n    /* \"#utility.yul\":3755:3784   */\n  tag_88\n    /* \"#utility.yul\":3780:3783   */\n  dup4\n    /* \"#utility.yul\":3774:3778   */\n  dup4\n    /* \"#utility.yul\":3755:3784   */\n  tag_41\n  jump\t// in\ntag_88:\n    /* \"#utility.yul\":3747:3784   */\n  swap2\n  pop\n    /* \"#utility.yul\":3817:3820   */\n  dup3\n    /* \"#utility.yul\":3814:3815   */\n  0x02\n    /* \"#utility.yul\":3810:3821   */\n  mul\n    /* \"#utility.yul\":3804:3808   */\n  dup3\n    /* \"#utility.yul\":3801:3822   */\n  or\n    /* \"#utility.yul\":3793:3822   */\n  swap1\n  pop\n    /* \"#utility.yul\":3533:3828   */\n  swap3\n  swap2\n  pop\n  pop\n  jump\t// out\n    /* \"#utility.yul\":3833:5228   */\ntag_9:\n    /* \"#utility.yul\":3950:3987   */\n  tag_90\n    /* \"#utility.yul\":3983:3986   */\n  dup3\n    /* \"#utility.yul\":3950:3987   */\n  tag_24\n  jump\t// in\ntag_90:\n    /* \"#utility.yul\":4052:4070   */\n  0xffffffffffffffff\n    /* \"#utility.yul\":4044:4050   */\n  dup2\n    /* \"#utility.yul\":4041:4071   */\n  gt\n    /* \"#utility.yul\":4038:4094   */\n  iszero\n  tag_91\n  jumpi\n    /* \"#utility.yul\":4074:4092   */\n  tag_92\n  tag_25\n  jump\t// in\ntag_92:\n    /* \"#utility.yul\":4038:4094   */\ntag_91:\n    /* \"#utility.yul\":4118:4156   */\n  tag_93\n    /* \"#utility.yul\":4150:4154   */\n  dup3\n    /* \"#utility.yul\":4144:4155   */\n  sload\n    /* \"#utility.yul\":4118:4156   */\n  tag_17\n  jump\t// in\ntag_93:\n    /* \"#utility.yul\":4203:4270   */\n  tag_94\n    /* \"#utility.yul\":4263:4269   */\n  dup3\n    /* \"#utility.yul\":4255:4261   */\n  dup3\n    /* \"#utility.yul\":4249:4253   */\n  dup6\n    /* \"#utility.yul\":4203:4270   */\n  tag_39\n  jump\t// in\ntag_94:\n    /* \"#utility.yul\":4297:4298   */\n  0x00\n    /* \"#utility.yul\":4321:4325   */\n  0x20\n    /* \"#utility.yul\":4308:4325   */\n  swap1\n  pop\n    /* \"#utility.yul\":4353:4355   */\n  0x1f\n    /* \"#utility.yul\":4345:4351   */\n  dup4\n    /* \"#utility.yul\":4342:4356   */\n  gt\n    /* \"#utility.yul\":4370:4371   */\n  0x01\n    /* \"#utility.yul\":4365:4983   */\n  dup2\n  eq\n  tag_96\n  jumpi\n    /* \"#utility.yul\":5027:5028   */\n  0x00\n    /* \"#utility.yul\":5044:5050   */\n  dup5\n    /* \"#utility.yul\":5041:5118   */\n  iszero\n  tag_97\n  jumpi\n    /* \"#utility.yul\":5093:5102   */\n  dup3\n    /* \"#utility.yul\":5088:5091   */\n  dup8\n    /* \"#utility.yul\":5084:5103   */\n  add\n    /* \"#utility.yul\":5078:5104   */\n  mload\n    /* \"#utility.yul\":5069:5104   */\n  swap1\n  pop\n    /* \"#utility.yul\":5041:5118   */\ntag_97:\n    /* \"#utility.yul\":5144:5211   */\n  tag_98\n    /* \"#utility.yul\":5204:5210   */\n  dup6\n    /* \"#utility.yul\":5197:5202   */\n  dup3\n    /* \"#utility.yul\":5144:5211   */\n  tag_42\n  jump\t// in\ntag_98:\n    /* \"#utility.yul\":5138:5142   */\n  dup7\n    /* \"#utility.yul\":5131:5212   */\n  sstore\n    /* \"#utility.yul\":5000:5222   */\n  pop\n    /* \"#utility.yul\":4335:5222   */\n  jump(tag_95)\n    /* \"#utility.yul\":4365:4983   */\ntag_96:\n    /* \"#utility.yul\":4417:4421   */\n  0x1f\n    /* \"#utility.yul\":4413:4422   */\n  not\n    /* \"#utility.yul\":4405:4411   */\n  dup5\n    /* \"#utility.yul\":4401:4423   */\n  and\n    /* \"#utility.yul\":4451:4488   */\n  tag_99\n    /* \"#utility.yul\":4483:4487   */\n  dup7\n    /* \"#utility.yul\":4451:4488   */\n  tag_27\n  jump\t// in\ntag_99:\n    /* \"#utility.yul\":4510:4511   */\n  0x00\n    /* \"#utility.yul\":4524:4732   */\ntag_100:\n    /* \"#utility.yul\":4538:4545   */\n  dup3\n    /* \"#utility.yul\":4535:4536   */\n  dup2\n    /* \"#utility.yul\":4532:4546   */\n  lt\n    /* \"#utility.yul\":4524:4732   */\n  iszero\n  tag_102\n  jumpi\n    /* \"#utility.yul\":4617:4626   */\n  dup5\n    /* \"#utility.yul\":4612:4615   */\n  dup10\n    /* \"#utility.yul\":4608:4627   */\n  add\n    /* \"#utility.yul\":4602:4628   */\n  mload\n    /* \"#utility.yul\":4594:4600   */\n  dup3\n    /* \"#utility.yul\":4587:4629   */\n  sstore\n    /* \"#utility.yul\":4668:4669   */\n  0x01\n    /* \"#utility.yul\":4660:4666   */\n  dup3\n    /* \"#utility.yul\":4656:4670   */\n  add\n    /* \"#utility.yul\":4646:4670   */\n  swap2\n  pop\n    /* \"#utility.yul\":4715:4717   */\n  0x20\n    /* \"#utility.yul\":4704:4713   */\n  dup6\n    /* \"#utility.yul\":4700:4718   */\n  add\n    /* \"#utility.yul\":4687:4718   */\n  swap5\n  pop\n    /* \"#utility.yul\":4561:4565   */\n  0x20\n    /* \"#utility.yul\":4558:4559   */\n  dup2\n    /* \"#utility.yul\":4554:4566   */\n  add\n    /* \"#utility.yul\":4549:4566   */\n  swap1\n  pop\n    /* \"#utility.yul\":4524:4732   */\n  jump(tag_100)\ntag_102:\n    /* \"#utility.yul\":4760:4766   */\n  dup7\n    /* \"#utility.yul\":4751:4758   */\n  dup4\n    /* \"#utility.yul\":4748:4767   */\n  lt\n    /* \"#utility.yul\":4745:4924   */\n  iszero\n  tag_103\n  jumpi\n    /* \"#utility.yul\":4818:4827   */\n  dup5\n    /* \"#utility.yul\":4813:4816   */\n  dup10\n    /* \"#utility.yul\":4809:4828   */\n  add\n    /* \"#utility.yul\":4803:4829   */\n  mload\n    /* \"#utility.yul\":4861:4909   */\n  tag_104\n    /* \"#utility.yul\":4903:4907   */\n  0x1f\n    /* \"#utility.yul\":4895:4901   */\n  dup10\n    /* \"#utility.yul\":4891:4908   */\n  and\n    /* \"#utility.yul\":4880:4889   */\n  dup3\n    /* \"#utility.yul\":4861:4909   */\n  tag_41\n  jump\t// in\ntag_104:\n    /* \"#utility.yul\":4853:4859   */\n  dup4\n    /* \"#utility.yul\":4846:4910   */\n  sstore\n    /* \"#utility.yul\":4768:4924   */\n  pop\n    /* \"#utility.yul\":4745:4924   */\ntag_103:\n    /* \"#utility.yul\":4970:4971   */\n  0x01\n    /* \"#utility.yul\":4966:4967   */\n  0x02\n    /* \"#utility.yul\":4958:4964   */\n  dup9\n    /* \"#utility.yul\":4954:4968   */\n  mul\n    /* \"#utility.yul\":4950:4972   */\n  add\n    /* \"#utility.yul\":4944:4948   */\n  dup9\n    /* \"#utility.yul\":4937:4973   */\n  sstore\n    /* \"#utility.yul\":4372:4983   */\n  pop\n  pop\n  pop\n    /* \"#utility.yul\":4335:5222   */\ntag_95:\n  pop\n    /* \"#utility.yul\":3925:5228   */\n  pop\n  pop\n  pop\n    /* \"#utility.yul\":3833:5228   */\n  pop\n  pop\n  jump\t// out\n    /* \"lecture/21_for,while,do-while.sol\":93:1264  contract lec22{... */\ntag_4:\n  dataSize(sub_0)\n  dup1\n  dataOffset(sub_0)\n  0x00\n  codecopy\n  0x00\n  return\nstop\n\nsub_0: assembly {\n        /* \"lecture/21_for,while,do-while.sol\":93:1264  contract lec22{... */\n      mstore(0x40, 0x80)\n      callvalue\n      dup1\n      iszero\n      tag_1\n      jumpi\n      0x00\n      dup1\n      revert\n    tag_1:\n      pop\n      jumpi(tag_2, lt(calldatasize, 0x04))\n      shr(0xe0, calldataload(0x00))\n      dup1\n      0x6cde9f8c\n      eq\n      tag_3\n      jumpi\n      dup1\n      0xaf2eb32f\n      eq\n      tag_4\n      jumpi\n      dup1\n      0xddea9b0a\n      eq\n      tag_5\n      jumpi\n    tag_2:\n      0x00\n      dup1\n      revert\n        /* \"lecture/21_for,while,do-while.sol\":426:583  function forLoopEvents() public {... */\n    tag_3:\n      tag_6\n      tag_7\n      jump\t// in\n    tag_6:\n      stop\n        /* \"lecture/21_for,while,do-while.sol\":1067:1262  function doWhileLoopEvents() public {... */\n    tag_4:\n      tag_8\n      tag_9\n      jump\t// in\n    tag_8:\n      stop\n        /* \"lecture/21_for,while,do-while.sol\":749:932  function whileLoopEvents() public {... */\n    tag_5:\n      tag_10\n      tag_11\n      jump\t// in\n    tag_10:\n      stop\n        /* \"lecture/21_for,while,do-while.sol\":426:583  function forLoopEvents() public {... */\n    tag_7:\n        /* \"lecture/21_for,while,do-while.sol\":472:481  uint256 i */\n      0x00\n        /* \"lecture/21_for,while,do-while.sol\":468:577  for(uint256 i = 0; i<countryList.length; i++){... */\n    tag_13:\n        /* \"lecture/21_for,while,do-while.sol\":489:500  countryList */\n      0x00\n        /* \"lecture/21_for,while,do-while.sol\":489:507  countryList.length */\n      dup1\n      sload\n      swap1\n      pop\n        /* \"lecture/21_for,while,do-while.sol\":487:488  i */\n      dup2\n        /* \"lecture/21_for,while,do-while.sol\":487:507  i<countryList.length */\n      lt\n        /* \"lecture/21_for,while,do-while.sol\":468:577  for(uint256 i = 0; i<countryList.length; i++){... */\n      iszero\n      tag_14\n      jumpi\n        /* \"lecture/21_for,while,do-while.sol\":549:550  i */\n      dup1\n        /* \"lecture/21_for,while,do-while.sol\":532:566  CountryIndexName(i,countryList[i]) */\n      0xc3750795857a09dd89d722c915dbd49e7496a6f23cad9de450838745e45f9329\n        /* \"lecture/21_for,while,do-while.sol\":551:562  countryList */\n      0x00\n        /* \"lecture/21_for,while,do-while.sol\":563:564  i */\n      dup4\n        /* \"lecture/21_for,while,do-while.sol\":551:565  countryList[i] */\n      dup2\n      sload\n      dup2\n      lt\n      tag_16\n      jumpi\n      tag_17\n      tag_18\n      jump\t// in\n    tag_17:\n    tag_16:\n      swap1\n      0x00\n      mstore\n      keccak256(0x00, 0x20)\n      add\n        /* \"lecture/21_for,while,do-while.sol\":532:566  CountryIndexName(i,countryList[i]) */\n      mload(0x40)\n      tag_20\n      swap2\n      swap1\n      tag_21\n      jump\t// in\n    tag_20:\n      mload(0x40)\n      dup1\n      swap2\n      sub\n      swap1\n      log2\n        /* \"lecture/21_for,while,do-while.sol\":509:512  i++ */\n      dup1\n      dup1\n      tag_22\n      swap1\n      tag_23\n      jump\t// in\n    tag_22:\n      swap2\n      pop\n      pop\n        /* \"lecture/21_for,while,do-while.sol\":468:577  for(uint256 i = 0; i<countryList.length; i++){... */\n      jump(tag_13)\n    tag_14:\n      pop\n        /* \"lecture/21_for,while,do-while.sol\":426:583  function forLoopEvents() public {... */\n      jump\t// out\n        /* \"lecture/21_for,while,do-while.sol\":1067:1262  function doWhileLoopEvents() public {... */\n    tag_9:\n        /* \"lecture/21_for,while,do-while.sol\":1113:1122  uint256 i */\n      0x00\n        /* \"lecture/21_for,while,do-while.sol\":1136:1256  do{... */\n    tag_25:\n        /* \"lecture/21_for,while,do-while.sol\":1174:1175  i */\n      dup1\n        /* \"lecture/21_for,while,do-while.sol\":1157:1191  CountryIndexName(i,countryList[i]) */\n      0xc3750795857a09dd89d722c915dbd49e7496a6f23cad9de450838745e45f9329\n        /* \"lecture/21_for,while,do-while.sol\":1176:1187  countryList */\n      0x00\n        /* \"lecture/21_for,while,do-while.sol\":1188:1189  i */\n      dup4\n        /* \"lecture/21_for,while,do-while.sol\":1176:1190  countryList[i] */\n      dup2\n      sload\n      dup2\n      lt\n      tag_28\n      jumpi\n      tag_29\n      tag_18\n      jump\t// in\n    tag_29:\n    tag_28:\n      swap1\n      0x00\n      mstore\n      keccak256(0x00, 0x20)\n      add\n        /* \"lecture/21_for,while,do-while.sol\":1157:1191  CountryIndexName(i,countryList[i]) */\n      mload(0x40)\n      tag_31\n      swap2\n      swap1\n      tag_21\n      jump\t// in\n    tag_31:\n      mload(0x40)\n      dup1\n      swap2\n      sub\n      swap1\n      log2\n        /* \"lecture/21_for,while,do-while.sol\":1205:1208  i++ */\n      dup1\n      dup1\n      tag_32\n      swap1\n      tag_23\n      jump\t// in\n    tag_32:\n      swap2\n      pop\n      pop\n        /* \"lecture/21_for,while,do-while.sol\":1236:1247  countryList */\n      0x00\n        /* \"lecture/21_for,while,do-while.sol\":1236:1254  countryList.length */\n      dup1\n      sload\n      swap1\n      pop\n        /* \"lecture/21_for,while,do-while.sol\":1234:1235  i */\n      dup2\n        /* \"lecture/21_for,while,do-while.sol\":1234:1254  i<countryList.length */\n      lt\n        /* \"lecture/21_for,while,do-while.sol\":1136:1256  do{... */\n      tag_25\n      jumpi\n        /* \"lecture/21_for,while,do-while.sol\":1103:1262  {... */\n      pop\n        /* \"lecture/21_for,while,do-while.sol\":1067:1262  function doWhileLoopEvents() public {... */\n      jump\t// out\n        /* \"lecture/21_for,while,do-while.sol\":749:932  function whileLoopEvents() public {... */\n    tag_11:\n        /* \"lecture/21_for,while,do-while.sol\":793:802  uint256 i */\n      0x00\n        /* \"lecture/21_for,while,do-while.sol\":816:926  while(i<countryList.length){... */\n    tag_34:\n        /* \"lecture/21_for,while,do-while.sol\":824:835  countryList */\n      0x00\n        /* \"lecture/21_for,while,do-while.sol\":824:842  countryList.length */\n      dup1\n      sload\n      swap1\n      pop\n        /* \"lecture/21_for,while,do-while.sol\":822:823  i */\n      dup2\n        /* \"lecture/21_for,while,do-while.sol\":822:842  i<countryList.length */\n      lt\n        /* \"lecture/21_for,while,do-while.sol\":816:926  while(i<countryList.length){... */\n      iszero\n      tag_35\n      jumpi\n        /* \"lecture/21_for,while,do-while.sol\":880:881  i */\n      dup1\n        /* \"lecture/21_for,while,do-while.sol\":863:897  CountryIndexName(i,countryList[i]) */\n      0xc3750795857a09dd89d722c915dbd49e7496a6f23cad9de450838745e45f9329\n        /* \"lecture/21_for,while,do-while.sol\":882:893  countryList */\n      0x00\n        /* \"lecture/21_for,while,do-while.sol\":894:895  i */\n      dup4\n        /* \"lecture/21_for,while,do-while.sol\":882:896  countryList[i] */\n      dup2\n      sload\n      dup2\n      lt\n      tag_36\n      jumpi\n      tag_37\n      tag_18\n      jump\t// in\n    tag_37:\n    tag_36:\n      swap1\n      0x00\n      mstore\n      keccak256(0x00, 0x20)\n      add\n        /* \"lecture/21_for,while,do-while.sol\":863:897  CountryIndexName(i,countryList[i]) */\n      mload(0x40)\n      tag_39\n      swap2\n      swap1\n      tag_21\n      jump\t// in\n    tag_39:\n      mload(0x40)\n      dup1\n      swap2\n      sub\n      swap1\n      log2\n        /* \"lecture/21_for,while,do-while.sol\":912:915  i++ */\n      dup1\n      dup1\n      tag_40\n      swap1\n      tag_23\n      jump\t// in\n    tag_40:\n      swap2\n      pop\n      pop\n        /* \"lecture/21_for,while,do-while.sol\":816:926  while(i<countryList.length){... */\n      jump(tag_34)\n    tag_35:\n        /* \"lecture/21_for,while,do-while.sol\":783:932  {... */\n      pop\n        /* \"lecture/21_for,while,do-while.sol\":749:932  function whileLoopEvents() public {... */\n      jump\t// out\n        /* \"#utility.yul\":7:187   */\n    tag_18:\n        /* \"#utility.yul\":55:132   */\n      0x4e487b7100000000000000000000000000000000000000000000000000000000\n        /* \"#utility.yul\":52:53   */\n      0x00\n        /* \"#utility.yul\":45:133   */\n      mstore\n        /* \"#utility.yul\":152:156   */\n      0x32\n        /* \"#utility.yul\":149:150   */\n      0x04\n        /* \"#utility.yul\":142:157   */\n      mstore\n        /* \"#utility.yul\":176:180   */\n      0x24\n        /* \"#utility.yul\":173:174   */\n      0x00\n        /* \"#utility.yul\":166:181   */\n      revert\n        /* \"#utility.yul\":193:373   */\n    tag_41:\n        /* \"#utility.yul\":241:318   */\n      0x4e487b7100000000000000000000000000000000000000000000000000000000\n        /* \"#utility.yul\":238:239   */\n      0x00\n        /* \"#utility.yul\":231:319   */\n      mstore\n        /* \"#utility.yul\":338:342   */\n      0x22\n        /* \"#utility.yul\":335:336   */\n      0x04\n        /* \"#utility.yul\":328:343   */\n      mstore\n        /* \"#utility.yul\":362:366   */\n      0x24\n        /* \"#utility.yul\":359:360   */\n      0x00\n        /* \"#utility.yul\":352:367   */\n      revert\n        /* \"#utility.yul\":379:699   */\n    tag_42:\n        /* \"#utility.yul\":423:429   */\n      0x00\n        /* \"#utility.yul\":460:461   */\n      0x02\n        /* \"#utility.yul\":454:458   */\n      dup3\n        /* \"#utility.yul\":450:462   */\n      div\n        /* \"#utility.yul\":440:462   */\n      swap1\n      pop\n        /* \"#utility.yul\":507:508   */\n      0x01\n        /* \"#utility.yul\":501:505   */\n      dup3\n        /* \"#utility.yul\":497:509   */\n      and\n        /* \"#utility.yul\":528:546   */\n      dup1\n        /* \"#utility.yul\":518:599   */\n      tag_52\n      jumpi\n        /* \"#utility.yul\":584:588   */\n      0x7f\n        /* \"#utility.yul\":576:582   */\n      dup3\n        /* \"#utility.yul\":572:589   */\n      and\n        /* \"#utility.yul\":562:589   */\n      swap2\n      pop\n        /* \"#utility.yul\":518:599   */\n    tag_52:\n        /* \"#utility.yul\":646:648   */\n      0x20\n        /* \"#utility.yul\":638:644   */\n      dup3\n        /* \"#utility.yul\":635:649   */\n      lt\n        /* \"#utility.yul\":615:633   */\n      dup2\n        /* \"#utility.yul\":612:650   */\n      sub\n        /* \"#utility.yul\":609:693   */\n      tag_53\n      jumpi\n        /* \"#utility.yul\":665:683   */\n      tag_54\n      tag_41\n      jump\t// in\n    tag_54:\n        /* \"#utility.yul\":609:693   */\n    tag_53:\n        /* \"#utility.yul\":430:699   */\n      pop\n        /* \"#utility.yul\":379:699   */\n      swap2\n      swap1\n      pop\n      jump\t// out\n        /* \"#utility.yul\":705:874   */\n    tag_43:\n        /* \"#utility.yul\":789:800   */\n      0x00\n        /* \"#utility.yul\":823:829   */\n      dup3\n        /* \"#utility.yul\":818:821   */\n      dup3\n        /* \"#utility.yul\":811:830   */\n      mstore\n        /* \"#utility.yul\":863:867   */\n      0x20\n        /* \"#utility.yul\":858:861   */\n      dup3\n        /* \"#utility.yul\":854:868   */\n      add\n        /* \"#utility.yul\":839:868   */\n      swap1\n      pop\n        /* \"#utility.yul\":705:874   */\n      swap3\n      swap2\n      pop\n      pop\n      jump\t// out\n        /* \"#utility.yul\":880:1021   */\n    tag_44:\n        /* \"#utility.yul\":929:933   */\n      0x00\n        /* \"#utility.yul\":952:955   */\n      dup2\n        /* \"#utility.yul\":944:955   */\n      swap1\n      pop\n        /* \"#utility.yul\":975:978   */\n      dup2\n        /* \"#utility.yul\":972:973   */\n      0x00\n        /* \"#utility.yul\":965:979   */\n      mstore\n        /* \"#utility.yul\":1009:1013   */\n      0x20\n        /* \"#utility.yul\":1006:1007   */\n      0x00\n        /* \"#utility.yul\":996:1014   */\n      keccak256\n        /* \"#utility.yul\":988:1014   */\n      swap1\n      pop\n        /* \"#utility.yul\":880:1021   */\n      swap2\n      swap1\n      pop\n      jump\t// out\n        /* \"#utility.yul\":1051:1882   */\n    tag_45:\n        /* \"#utility.yul\":1136:1139   */\n      0x00\n        /* \"#utility.yul\":1173:1178   */\n      dup2\n        /* \"#utility.yul\":1167:1179   */\n      sload\n        /* \"#utility.yul\":1202:1238   */\n      tag_58\n        /* \"#utility.yul\":1228:1237   */\n      dup2\n        /* \"#utility.yul\":1202:1238   */\n      tag_42\n      jump\t// in\n    tag_58:\n        /* \"#utility.yul\":1254:1325   */\n      tag_59\n        /* \"#utility.yul\":1318:1324   */\n      dup2\n        /* \"#utility.yul\":1313:1316   */\n      dup7\n        /* \"#utility.yul\":1254:1325   */\n      tag_43\n      jump\t// in\n    tag_59:\n        /* \"#utility.yul\":1247:1325   */\n      swap5\n      pop\n        /* \"#utility.yul\":1356:1357   */\n      0x01\n        /* \"#utility.yul\":1345:1354   */\n      dup3\n        /* \"#utility.yul\":1341:1358   */\n      and\n        /* \"#utility.yul\":1372:1373   */\n      0x00\n        /* \"#utility.yul\":1367:1531   */\n      dup2\n      eq\n      tag_61\n      jumpi\n        /* \"#utility.yul\":1545:1546   */\n      0x01\n        /* \"#utility.yul\":1540:1876   */\n      dup2\n      eq\n      tag_62\n      jumpi\n        /* \"#utility.yul\":1334:1876   */\n      jump(tag_60)\n        /* \"#utility.yul\":1367:1531   */\n    tag_61:\n        /* \"#utility.yul\":1451:1455   */\n      0xff\n        /* \"#utility.yul\":1447:1456   */\n      not\n        /* \"#utility.yul\":1436:1445   */\n      dup4\n        /* \"#utility.yul\":1432:1457   */\n      and\n        /* \"#utility.yul\":1427:1430   */\n      dup7\n        /* \"#utility.yul\":1420:1458   */\n      mstore\n        /* \"#utility.yul\":1511:1517   */\n      dup2\n        /* \"#utility.yul\":1504:1518   */\n      iszero\n        /* \"#utility.yul\":1497:1519   */\n      iszero\n        /* \"#utility.yul\":1491:1495   */\n      0x20\n        /* \"#utility.yul\":1487:1520   */\n      mul\n        /* \"#utility.yul\":1482:1485   */\n      dup7\n        /* \"#utility.yul\":1478:1521   */\n      add\n        /* \"#utility.yul\":1471:1521   */\n      swap4\n      pop\n        /* \"#utility.yul\":1367:1531   */\n      jump(tag_60)\n        /* \"#utility.yul\":1540:1876   */\n    tag_62:\n        /* \"#utility.yul\":1607:1645   */\n      tag_63\n        /* \"#utility.yul\":1639:1644   */\n      dup6\n        /* \"#utility.yul\":1607:1645   */\n      tag_44\n      jump\t// in\n    tag_63:\n        /* \"#utility.yul\":1667:1668   */\n      0x00\n        /* \"#utility.yul\":1681:1835   */\n    tag_64:\n        /* \"#utility.yul\":1695:1701   */\n      dup4\n        /* \"#utility.yul\":1692:1693   */\n      dup2\n        /* \"#utility.yul\":1689:1702   */\n      lt\n        /* \"#utility.yul\":1681:1835   */\n      iszero\n      tag_66\n      jumpi\n        /* \"#utility.yul\":1769:1776   */\n      dup2\n        /* \"#utility.yul\":1763:1777   */\n      sload\n        /* \"#utility.yul\":1759:1760   */\n      dup2\n        /* \"#utility.yul\":1754:1757   */\n      dup10\n        /* \"#utility.yul\":1750:1761   */\n      add\n        /* \"#utility.yul\":1743:1778   */\n      mstore\n        /* \"#utility.yul\":1819:1820   */\n      0x01\n        /* \"#utility.yul\":1810:1817   */\n      dup3\n        /* \"#utility.yul\":1806:1821   */\n      add\n        /* \"#utility.yul\":1795:1821   */\n      swap2\n      pop\n        /* \"#utility.yul\":1717:1721   */\n      0x20\n        /* \"#utility.yul\":1714:1715   */\n      dup2\n        /* \"#utility.yul\":1710:1722   */\n      add\n        /* \"#utility.yul\":1705:1722   */\n      swap1\n      pop\n        /* \"#utility.yul\":1681:1835   */\n      jump(tag_64)\n    tag_66:\n        /* \"#utility.yul\":1864:1865   */\n      dup1\n        /* \"#utility.yul\":1859:1862   */\n      dup9\n        /* \"#utility.yul\":1855:1866   */\n      add\n        /* \"#utility.yul\":1848:1866   */\n      swap6\n      pop\n        /* \"#utility.yul\":1547:1876   */\n      pop\n      pop\n        /* \"#utility.yul\":1334:1876   */\n    tag_60:\n      pop\n        /* \"#utility.yul\":1140:1882   */\n      pop\n      pop\n        /* \"#utility.yul\":1051:1882   */\n      swap3\n      swap2\n      pop\n      pop\n      jump\t// out\n        /* \"#utility.yul\":1888:2195   */\n    tag_21:\n        /* \"#utility.yul\":1998:2002   */\n      0x00\n        /* \"#utility.yul\":2036:2038   */\n      0x20\n        /* \"#utility.yul\":2025:2034   */\n      dup3\n        /* \"#utility.yul\":2021:2039   */\n      add\n        /* \"#utility.yul\":2013:2039   */\n      swap1\n      pop\n        /* \"#utility.yul\":2085:2094   */\n      dup2\n        /* \"#utility.yul\":2079:2083   */\n      dup2\n        /* \"#utility.yul\":2075:2095   */\n      sub\n        /* \"#utility.yul\":2071:2072   */\n      0x00\n        /* \"#utility.yul\":2060:2069   */\n      dup4\n        /* \"#utility.yul\":2056:2073   */\n      add\n        /* \"#utility.yul\":2049:2096   */\n      mstore\n        /* \"#utility.yul\":2113:2188   */\n      tag_68\n        /* \"#utility.yul\":2183:2187   */\n      dup2\n        /* \"#utility.yul\":2174:2180   */\n      dup5\n        /* \"#utility.yul\":2113:2188   */\n      tag_45\n      jump\t// in\n    tag_68:\n        /* \"#utility.yul\":2105:2188   */\n      swap1\n      pop\n        /* \"#utility.yul\":1888:2195   */\n      swap3\n      swap2\n      pop\n      pop\n      jump\t// out\n        /* \"#utility.yul\":2201:2381   */\n    tag_46:\n        /* \"#utility.yul\":2249:2326   */\n      0x4e487b7100000000000000000000000000000000000000000000000000000000\n        /* \"#utility.yul\":2246:2247   */\n      0x00\n        /* \"#utility.yul\":2239:2327   */\n      mstore\n        /* \"#utility.yul\":2346:2350   */\n      0x11\n        /* \"#utility.yul\":2343:2344   */\n      0x04\n        /* \"#utility.yul\":2336:2351   */\n      mstore\n        /* \"#utility.yul\":2370:2374   */\n      0x24\n        /* \"#utility.yul\":2367:2368   */\n      0x00\n        /* \"#utility.yul\":2360:2375   */\n      revert\n        /* \"#utility.yul\":2387:2464   */\n    tag_47:\n        /* \"#utility.yul\":2424:2431   */\n      0x00\n        /* \"#utility.yul\":2453:2458   */\n      dup2\n        /* \"#utility.yul\":2442:2458   */\n      swap1\n      pop\n        /* \"#utility.yul\":2387:2464   */\n      swap2\n      swap1\n      pop\n      jump\t// out\n        /* \"#utility.yul\":2470:2703   */\n    tag_23:\n        /* \"#utility.yul\":2509:2512   */\n      0x00\n        /* \"#utility.yul\":2532:2556   */\n      tag_72\n        /* \"#utility.yul\":2550:2555   */\n      dup3\n        /* \"#utility.yul\":2532:2556   */\n      tag_47\n      jump\t// in\n    tag_72:\n        /* \"#utility.yul\":2523:2556   */\n      swap2\n      pop\n        /* \"#utility.yul\":2578:2644   */\n      0xffffffffffffffffffffffffffffffffffffffffffffffffffffffffffffffff\n        /* \"#utility.yul\":2571:2576   */\n      dup3\n        /* \"#utility.yul\":2568:2645   */\n      sub\n        /* \"#utility.yul\":2565:2668   */\n      tag_73\n      jumpi\n        /* \"#utility.yul\":2648:2666   */\n      tag_74\n      tag_46\n      jump\t// in\n    tag_74:\n        /* \"#utility.yul\":2565:2668   */\n    tag_73:\n        /* \"#utility.yul\":2695:2696   */\n      0x01\n        /* \"#utility.yul\":2688:2693   */\n      dup3\n        /* \"#utility.yul\":2684:2697   */\n      add\n        /* \"#utility.yul\":2677:2697   */\n      swap1\n      pop\n        /* \"#utility.yul\":2470:2703   */\n      swap2\n      swap1\n      pop\n      jump\t// out\n\n    auxdata: 0xa2646970667358221220948ddd133d13c43311cc966702ed5af765c466d8ed64c38f38b30a89437c040464736f6c63430008120033\n}\n",
				"bytecode": {
					"linkReferences": {},
					"object": "60806040526040518060a001604052806040518060400160405280600b81526020017f536f757468204b6f72656100000000000000000000000000000000000000000081525081526020016040518060400160405280600b81526020017f4e6f727468204b6f72656100000000000000000000000000000000000000000081525081526020016040518060400160405280600381526020017f555341000000000000000000000000000000000000000000000000000000000081525081526020016040518060400160405280600581526020017f4368696e6100000000000000000000000000000000000000000000000000000081525081526020016040518060400160405280600581526020017f4a6170616e0000000000000000000000000000000000000000000000000000008152508152506000906005620001469291906200015b565b503480156200015457600080fd5b50620005a9565b828054828255906000526020600020908101928215620001a8579160200282015b82811115620001a7578251829081620001969190620004c2565b50916020019190600101906200017c565b5b509050620001b79190620001bb565b5090565b5b80821115620001df5760008181620001d59190620001e3565b50600101620001bc565b5090565b508054620001f190620002b1565b6000825580601f1062000205575062000226565b601f01602090049060005260206000209081019062000225919062000229565b5b50565b5b80821115620002445760008160009055506001016200022a565b5090565b600081519050919050565b7f4e487b7100000000000000000000000000000000000000000000000000000000600052604160045260246000fd5b7f4e487b7100000000000000000000000000000000000000000000000000000000600052602260045260246000fd5b60006002820490506001821680620002ca57607f821691505b602082108103620002e057620002df62000282565b5b50919050565b60008190508160005260206000209050919050565b60006020601f8301049050919050565b600082821b905092915050565b6000600883026200034a7fffffffffffffffffffffffffffffffffffffffffffffffffffffffffffffffff826200030b565b6200035686836200030b565b95508019841693508086168417925050509392505050565b6000819050919050565b6000819050919050565b6000620003a36200039d62000397846200036e565b62000378565b6200036e565b9050919050565b6000819050919050565b620003bf8362000382565b620003d7620003ce82620003aa565b84845462000318565b825550505050565b600090565b620003ee620003df565b620003fb818484620003b4565b505050565b5b81811015620004235762000417600082620003e4565b60018101905062000401565b5050565b601f82111562000472576200043c81620002e6565b6200044784620002fb565b8101602085101562000457578190505b6200046f6200046685620002fb565b83018262000400565b50505b505050565b600082821c905092915050565b6000620004976000198460080262000477565b1980831691505092915050565b6000620004b2838362000484565b9150826002028217905092915050565b620004cd8262000248565b67ffffffffffffffff811115620004e957620004e862000253565b5b620004f58254620002b1565b6200050282828562000427565b600060209050601f8311600181146200053a576000841562000525578287015190505b620005318582620004a4565b865550620005a1565b601f1984166200054a86620002e6565b60005b8281101562000574578489015182556001820191506020850194506020810190506200054d565b8683101562000594578489015162000590601f89168262000484565b8355505b6001600288020188555050505b505050505050565b6103e180620005b96000396000f3fe608060405234801561001057600080fd5b50600436106100415760003560e01c80636cde9f8c14610046578063af2eb32f14610050578063ddea9b0a1461005a575b600080fd5b61004e610064565b005b6100586100df565b005b610062610154565b005b60005b6000805490508110156100dc57807fc3750795857a09dd89d722c915dbd49e7496a6f23cad9de450838745e45f9329600083815481106100aa576100a96101cf565b5b906000526020600020016040516100c19190610308565b60405180910390a280806100d490610363565b915050610067565b50565b60005b807fc3750795857a09dd89d722c915dbd49e7496a6f23cad9de450838745e45f932960008381548110610118576101176101cf565b5b9060005260206000200160405161012f9190610308565b60405180910390a2808061014290610363565b91505060008054905081106100e25750565b60005b6000805490508110156101cc57807fc3750795857a09dd89d722c915dbd49e7496a6f23cad9de450838745e45f93296000838154811061019a576101996101cf565b5b906000526020600020016040516101b19190610308565b60405180910390a280806101c490610363565b915050610157565b50565b7f4e487b7100000000000000000000000000000000000000000000000000000000600052603260045260246000fd5b7f4e487b7100000000000000000000000000000000000000000000000000000000600052602260045260246000fd5b6000600282049050600182168061024557607f821691505b602082108103610258576102576101fe565b5b50919050565b600082825260208201905092915050565b60008190508160005260206000209050919050565b600081546102918161022d565b61029b818661025e565b945060018216600081146102b657600181146102cc576102ff565b60ff1983168652811515602002860193506102ff565b6102d58561026f565b60005b838110156102f7578154818901526001820191506020810190506102d8565b808801955050505b50505092915050565b600060208201905081810360008301526103228184610284565b905092915050565b7f4e487b7100000000000000000000000000000000000000000000000000000000600052601160045260246000fd5b6000819050919050565b600061036e82610359565b91507fffffffffffffffffffffffffffffffffffffffffffffffffffffffffffffffff82036103a05761039f61032a565b5b60018201905091905056fea2646970667358221220948ddd133d13c43311cc966702ed5af765c466d8ed64c38f38b30a89437c040464736f6c63430008120033",
					"opcodes": "PUSH1 0x80 PUSH1 0x40 MSTORE PUSH1 0x40 MLOAD DUP1 PUSH1 0xA0 ADD PUSH1 0x40 MSTORE DUP1 PUSH1 0x40 MLOAD DUP1 PUSH1 0x40 ADD PUSH1 0x40 MSTORE DUP1 PUSH1 0xB DUP2 MSTORE PUSH1 0x20 ADD PUSH32 0x536F757468204B6F726561000000000000000000000000000000000000000000 DUP2 MSTORE POP DUP2 MSTORE PUSH1 0x20 ADD PUSH1 0x40 MLOAD DUP1 PUSH1 0x40 ADD PUSH1 0x40 MSTORE DUP1 PUSH1 0xB DUP2 MSTORE PUSH1 0x20 ADD PUSH32 0x4E6F727468204B6F726561000000000000000000000000000000000000000000 DUP2 MSTORE POP DUP2 MSTORE PUSH1 0x20 ADD PUSH1 0x40 MLOAD DUP1 PUSH1 0x40 ADD PUSH1 0x40 MSTORE DUP1 PUSH1 0x3 DUP2 MSTORE PUSH1 0x20 ADD PUSH32 0x5553410000000000000000000000000000000000000000000000000000000000 DUP2 MSTORE POP DUP2 MSTORE PUSH1 0x20 ADD PUSH1 0x40 MLOAD DUP1 PUSH1 0x40 ADD PUSH1 0x40 MSTORE DUP1 PUSH1 0x5 DUP2 MSTORE PUSH1 0x20 ADD PUSH32 0x4368696E61000000000000000000000000000000000000000000000000000000 DUP2 MSTORE POP DUP2 MSTORE PUSH1 0x20 ADD PUSH1 0x40 MLOAD DUP1 PUSH1 0x40 ADD PUSH1 0x40 MSTORE DUP1 PUSH1 0x5 DUP2 MSTORE PUSH1 0x20 ADD PUSH32 0x4A6170616E000000000000000000000000000000000000000000000000000000 DUP2 MSTORE POP DUP2 MSTORE POP PUSH1 0x0 SWAP1 PUSH1 0x5 PUSH3 0x146 SWAP3 SWAP2 SWAP1 PUSH3 0x15B JUMP JUMPDEST POP CALLVALUE DUP1 ISZERO PUSH3 0x154 JUMPI PUSH1 0x0 DUP1 REVERT JUMPDEST POP PUSH3 0x5A9 JUMP JUMPDEST DUP3 DUP1 SLOAD DUP3 DUP3 SSTORE SWAP1 PUSH1 0x0 MSTORE PUSH1 0x20 PUSH1 0x0 KECCAK256 SWAP1 DUP2 ADD SWAP3 DUP3 ISZERO PUSH3 0x1A8 JUMPI SWAP2 PUSH1 0x20 MUL DUP3 ADD JUMPDEST DUP3 DUP2 GT ISZERO PUSH3 0x1A7 JUMPI DUP3 MLOAD DUP3 SWAP1 DUP2 PUSH3 0x196 SWAP2 SWAP1 PUSH3 0x4C2 JUMP JUMPDEST POP SWAP2 PUSH1 0x20 ADD SWAP2 SWAP1 PUSH1 0x1 ADD SWAP1 PUSH3 0x17C JUMP JUMPDEST JUMPDEST POP SWAP1 POP PUSH3 0x1B7 SWAP2 SWAP1 PUSH3 0x1BB JUMP JUMPDEST POP SWAP1 JUMP JUMPDEST JUMPDEST DUP1 DUP3 GT ISZERO PUSH3 0x1DF JUMPI PUSH1 0x0 DUP2 DUP2 PUSH3 0x1D5 SWAP2 SWAP1 PUSH3 0x1E3 JUMP JUMPDEST POP PUSH1 0x1 ADD PUSH3 0x1BC JUMP JUMPDEST POP SWAP1 JUMP JUMPDEST POP DUP1 SLOAD PUSH3 0x1F1 SWAP1 PUSH3 0x2B1 JUMP JUMPDEST PUSH1 0x0 DUP3 SSTORE DUP1 PUSH1 0x1F LT PUSH3 0x205 JUMPI POP PUSH3 0x226 JUMP JUMPDEST PUSH1 0x1F ADD PUSH1 0x20 SWAP1 DIV SWAP1 PUSH1 0x0 MSTORE PUSH1 0x20 PUSH1 0x0 KECCAK256 SWAP1 DUP2 ADD SWAP1 PUSH3 0x225 SWAP2 SWAP1 PUSH3 0x229 JUMP JUMPDEST JUMPDEST POP JUMP JUMPDEST JUMPDEST DUP1 DUP3 GT ISZERO PUSH3 0x244 JUMPI PUSH1 0x0 DUP2 PUSH1 0x0 SWAP1 SSTORE POP PUSH1 0x1 ADD PUSH3 0x22A JUMP JUMPDEST POP SWAP1 JUMP JUMPDEST PUSH1 0x0 DUP2 MLOAD SWAP1 POP SWAP2 SWAP1 POP JUMP JUMPDEST PUSH32 0x4E487B7100000000000000000000000000000000000000000000000000000000 PUSH1 0x0 MSTORE PUSH1 0x41 PUSH1 0x4 MSTORE PUSH1 0x24 PUSH1 0x0 REVERT JUMPDEST PUSH32 0x4E487B7100000000000000000000000000000000000000000000000000000000 PUSH1 0x0 MSTORE PUSH1 0x22 PUSH1 0x4 MSTORE PUSH1 0x24 PUSH1 0x0 REVERT JUMPDEST PUSH1 0x0 PUSH1 0x2 DUP3 DIV SWAP1 POP PUSH1 0x1 DUP3 AND DUP1 PUSH3 0x2CA JUMPI PUSH1 0x7F DUP3 AND SWAP2 POP JUMPDEST PUSH1 0x20 DUP3 LT DUP2 SUB PUSH3 0x2E0 JUMPI PUSH3 0x2DF PUSH3 0x282 JUMP JUMPDEST JUMPDEST POP SWAP2 SWAP1 POP JUMP JUMPDEST PUSH1 0x0 DUP2 SWAP1 POP DUP2 PUSH1 0x0 MSTORE PUSH1 0x20 PUSH1 0x0 KECCAK256 SWAP1 POP SWAP2 SWAP1 POP JUMP JUMPDEST PUSH1 0x0 PUSH1 0x20 PUSH1 0x1F DUP4 ADD DIV SWAP1 POP SWAP2 SWAP1 POP JUMP JUMPDEST PUSH1 0x0 DUP3 DUP3 SHL SWAP1 POP SWAP3 SWAP2 POP POP JUMP JUMPDEST PUSH1 0x0 PUSH1 0x8 DUP4 MUL PUSH3 0x34A PUSH32 0xFFFFFFFFFFFFFFFFFFFFFFFFFFFFFFFFFFFFFFFFFFFFFFFFFFFFFFFFFFFFFFFF DUP3 PUSH3 0x30B JUMP JUMPDEST PUSH3 0x356 DUP7 DUP4 PUSH3 0x30B JUMP JUMPDEST SWAP6 POP DUP1 NOT DUP5 AND SWAP4 POP DUP1 DUP7 AND DUP5 OR SWAP3 POP POP POP SWAP4 SWAP3 POP POP POP JUMP JUMPDEST PUSH1 0x0 DUP2 SWAP1 POP SWAP2 SWAP1 POP JUMP JUMPDEST PUSH1 0x0 DUP2 SWAP1 POP SWAP2 SWAP1 POP JUMP JUMPDEST PUSH1 0x0 PUSH3 0x3A3 PUSH3 0x39D PUSH3 0x397 DUP5 PUSH3 0x36E JUMP JUMPDEST PUSH3 0x378 JUMP JUMPDEST PUSH3 0x36E JUMP JUMPDEST SWAP1 POP SWAP2 SWAP1 POP JUMP JUMPDEST PUSH1 0x0 DUP2 SWAP1 POP SWAP2 SWAP1 POP JUMP JUMPDEST PUSH3 0x3BF DUP4 PUSH3 0x382 JUMP JUMPDEST PUSH3 0x3D7 PUSH3 0x3CE DUP3 PUSH3 0x3AA JUMP JUMPDEST DUP5 DUP5 SLOAD PUSH3 0x318 JUMP JUMPDEST DUP3 SSTORE POP POP POP POP JUMP JUMPDEST PUSH1 0x0 SWAP1 JUMP JUMPDEST PUSH3 0x3EE PUSH3 0x3DF JUMP JUMPDEST PUSH3 0x3FB DUP2 DUP5 DUP5 PUSH3 0x3B4 JUMP JUMPDEST POP POP POP JUMP JUMPDEST JUMPDEST DUP2 DUP2 LT ISZERO PUSH3 0x423 JUMPI PUSH3 0x417 PUSH1 0x0 DUP3 PUSH3 0x3E4 JUMP JUMPDEST PUSH1 0x1 DUP2 ADD SWAP1 POP PUSH3 0x401 JUMP JUMPDEST POP POP JUMP JUMPDEST PUSH1 0x1F DUP3 GT ISZERO PUSH3 0x472 JUMPI PUSH3 0x43C DUP2 PUSH3 0x2E6 JUMP JUMPDEST PUSH3 0x447 DUP5 PUSH3 0x2FB JUMP JUMPDEST DUP2 ADD PUSH1 0x20 DUP6 LT ISZERO PUSH3 0x457 JUMPI DUP2 SWAP1 POP JUMPDEST PUSH3 0x46F PUSH3 0x466 DUP6 PUSH3 0x2FB JUMP JUMPDEST DUP4 ADD DUP3 PUSH3 0x400 JUMP JUMPDEST POP POP JUMPDEST POP POP POP JUMP JUMPDEST PUSH1 0x0 DUP3 DUP3 SHR SWAP1 POP SWAP3 SWAP2 POP POP JUMP JUMPDEST PUSH1 0x0 PUSH3 0x497 PUSH1 0x0 NOT DUP5 PUSH1 0x8 MUL PUSH3 0x477 JUMP JUMPDEST NOT DUP1 DUP4 AND SWAP2 POP POP SWAP3 SWAP2 POP POP JUMP JUMPDEST PUSH1 0x0 PUSH3 0x4B2 DUP4 DUP4 PUSH3 0x484 JUMP JUMPDEST SWAP2 POP DUP3 PUSH1 0x2 MUL DUP3 OR SWAP1 POP SWAP3 SWAP2 POP POP JUMP JUMPDEST PUSH3 0x4CD DUP3 PUSH3 0x248 JUMP JUMPDEST PUSH8 0xFFFFFFFFFFFFFFFF DUP2 GT ISZERO PUSH3 0x4E9 JUMPI PUSH3 0x4E8 PUSH3 0x253 JUMP JUMPDEST JUMPDEST PUSH3 0x4F5 DUP3 SLOAD PUSH3 0x2B1 JUMP JUMPDEST PUSH3 0x502 DUP3 DUP3 DUP6 PUSH3 0x427 JUMP JUMPDEST PUSH1 0x0 PUSH1 0x20 SWAP1 POP PUSH1 0x1F DUP4 GT PUSH1 0x1 DUP2 EQ PUSH3 0x53A JUMPI PUSH1 0x0 DUP5 ISZERO PUSH3 0x525 JUMPI DUP3 DUP8 ADD MLOAD SWAP1 POP JUMPDEST PUSH3 0x531 DUP6 DUP3 PUSH3 0x4A4 JUMP JUMPDEST DUP7 SSTORE POP PUSH3 0x5A1 JUMP JUMPDEST PUSH1 0x1F NOT DUP5 AND PUSH3 0x54A DUP7 PUSH3 0x2E6 JUMP JUMPDEST PUSH1 0x0 JUMPDEST DUP3 DUP2 LT ISZERO PUSH3 0x574 JUMPI DUP5 DUP10 ADD MLOAD DUP3 SSTORE PUSH1 0x1 DUP3 ADD SWAP2 POP PUSH1 0x20 DUP6 ADD SWAP5 POP PUSH1 0x20 DUP2 ADD SWAP1 POP PUSH3 0x54D JUMP JUMPDEST DUP7 DUP4 LT ISZERO PUSH3 0x594 JUMPI DUP5 DUP10 ADD MLOAD PUSH3 0x590 PUSH1 0x1F DUP10 AND DUP3 PUSH3 0x484 JUMP JUMPDEST DUP4 SSTORE POP JUMPDEST PUSH1 0x1 PUSH1 0x2 DUP9 MUL ADD DUP9 SSTORE POP POP POP JUMPDEST POP POP POP POP POP POP JUMP JUMPDEST PUSH2 0x3E1 DUP1 PUSH3 0x5B9 PUSH1 0x0 CODECOPY PUSH1 0x0 RETURN INVALID PUSH1 0x80 PUSH1 0x40 MSTORE CALLVALUE DUP1 ISZERO PUSH2 0x10 JUMPI PUSH1 0x0 DUP1 REVERT JUMPDEST POP PUSH1 0x4 CALLDATASIZE LT PUSH2 0x41 JUMPI PUSH1 0x0 CALLDATALOAD PUSH1 0xE0 SHR DUP1 PUSH4 0x6CDE9F8C EQ PUSH2 0x46 JUMPI DUP1 PUSH4 0xAF2EB32F EQ PUSH2 0x50 JUMPI DUP1 PUSH4 0xDDEA9B0A EQ PUSH2 0x5A JUMPI JUMPDEST PUSH1 0x0 DUP1 REVERT JUMPDEST PUSH2 0x4E PUSH2 0x64 JUMP JUMPDEST STOP JUMPDEST PUSH2 0x58 PUSH2 0xDF JUMP JUMPDEST STOP JUMPDEST PUSH2 0x62 PUSH2 0x154 JUMP JUMPDEST STOP JUMPDEST PUSH1 0x0 JUMPDEST PUSH1 0x0 DUP1 SLOAD SWAP1 POP DUP2 LT ISZERO PUSH2 0xDC JUMPI DUP1 PUSH32 0xC3750795857A09DD89D722C915DBD49E7496A6F23CAD9DE450838745E45F9329 PUSH1 0x0 DUP4 DUP2 SLOAD DUP2 LT PUSH2 0xAA JUMPI PUSH2 0xA9 PUSH2 0x1CF JUMP JUMPDEST JUMPDEST SWAP1 PUSH1 0x0 MSTORE PUSH1 0x20 PUSH1 0x0 KECCAK256 ADD PUSH1 0x40 MLOAD PUSH2 0xC1 SWAP2 SWAP1 PUSH2 0x308 JUMP JUMPDEST PUSH1 0x40 MLOAD DUP1 SWAP2 SUB SWAP1 LOG2 DUP1 DUP1 PUSH2 0xD4 SWAP1 PUSH2 0x363 JUMP JUMPDEST SWAP2 POP POP PUSH2 0x67 JUMP JUMPDEST POP JUMP JUMPDEST PUSH1 0x0 JUMPDEST DUP1 PUSH32 0xC3750795857A09DD89D722C915DBD49E7496A6F23CAD9DE450838745E45F9329 PUSH1 0x0 DUP4 DUP2 SLOAD DUP2 LT PUSH2 0x118 JUMPI PUSH2 0x117 PUSH2 0x1CF JUMP JUMPDEST JUMPDEST SWAP1 PUSH1 0x0 MSTORE PUSH1 0x20 PUSH1 0x0 KECCAK256 ADD PUSH1 0x40 MLOAD PUSH2 0x12F SWAP2 SWAP1 PUSH2 0x308 JUMP JUMPDEST PUSH1 0x40 MLOAD DUP1 SWAP2 SUB SWAP1 LOG2 DUP1 DUP1 PUSH2 0x142 SWAP1 PUSH2 0x363 JUMP JUMPDEST SWAP2 POP POP PUSH1 0x0 DUP1 SLOAD SWAP1 POP DUP2 LT PUSH2 0xE2 JUMPI POP JUMP JUMPDEST PUSH1 0x0 JUMPDEST PUSH1 0x0 DUP1 SLOAD SWAP1 POP DUP2 LT ISZERO PUSH2 0x1CC JUMPI DUP1 PUSH32 0xC3750795857A09DD89D722C915DBD49E7496A6F23CAD9DE450838745E45F9329 PUSH1 0x0 DUP4 DUP2 SLOAD DUP2 LT PUSH2 0x19A JUMPI PUSH2 0x199 PUSH2 0x1CF JUMP JUMPDEST JUMPDEST SWAP1 PUSH1 0x0 MSTORE PUSH1 0x20 PUSH1 0x0 KECCAK256 ADD PUSH1 0x40 MLOAD PUSH2 0x1B1 SWAP2 SWAP1 PUSH2 0x308 JUMP JUMPDEST PUSH1 0x40 MLOAD DUP1 SWAP2 SUB SWAP1 LOG2 DUP1 DUP1 PUSH2 0x1C4 SWAP1 PUSH2 0x363 JUMP JUMPDEST SWAP2 POP POP PUSH2 0x157 JUMP JUMPDEST POP JUMP JUMPDEST PUSH32 0x4E487B7100000000000000000000000000000000000000000000000000000000 PUSH1 0x0 MSTORE PUSH1 0x32 PUSH1 0x4 MSTORE PUSH1 0x24 PUSH1 0x0 REVERT JUMPDEST PUSH32 0x4E487B7100000000000000000000000000000000000000000000000000000000 PUSH1 0x0 MSTORE PUSH1 0x22 PUSH1 0x4 MSTORE PUSH1 0x24 PUSH1 0x0 REVERT JUMPDEST PUSH1 0x0 PUSH1 0x2 DUP3 DIV SWAP1 POP PUSH1 0x1 DUP3 AND DUP1 PUSH2 0x245 JUMPI PUSH1 0x7F DUP3 AND SWAP2 POP JUMPDEST PUSH1 0x20 DUP3 LT DUP2 SUB PUSH2 0x258 JUMPI PUSH2 0x257 PUSH2 0x1FE JUMP JUMPDEST JUMPDEST POP SWAP2 SWAP1 POP JUMP JUMPDEST PUSH1 0x0 DUP3 DUP3 MSTORE PUSH1 0x20 DUP3 ADD SWAP1 POP SWAP3 SWAP2 POP POP JUMP JUMPDEST PUSH1 0x0 DUP2 SWAP1 POP DUP2 PUSH1 0x0 MSTORE PUSH1 0x20 PUSH1 0x0 KECCAK256 SWAP1 POP SWAP2 SWAP1 POP JUMP JUMPDEST PUSH1 0x0 DUP2 SLOAD PUSH2 0x291 DUP2 PUSH2 0x22D JUMP JUMPDEST PUSH2 0x29B DUP2 DUP7 PUSH2 0x25E JUMP JUMPDEST SWAP5 POP PUSH1 0x1 DUP3 AND PUSH1 0x0 DUP2 EQ PUSH2 0x2B6 JUMPI PUSH1 0x1 DUP2 EQ PUSH2 0x2CC JUMPI PUSH2 0x2FF JUMP JUMPDEST PUSH1 0xFF NOT DUP4 AND DUP7 MSTORE DUP2 ISZERO ISZERO PUSH1 0x20 MUL DUP7 ADD SWAP4 POP PUSH2 0x2FF JUMP JUMPDEST PUSH2 0x2D5 DUP6 PUSH2 0x26F JUMP JUMPDEST PUSH1 0x0 JUMPDEST DUP4 DUP2 LT ISZERO PUSH2 0x2F7 JUMPI DUP2 SLOAD DUP2 DUP10 ADD MSTORE PUSH1 0x1 DUP3 ADD SWAP2 POP PUSH1 0x20 DUP2 ADD SWAP1 POP PUSH2 0x2D8 JUMP JUMPDEST DUP1 DUP9 ADD SWAP6 POP POP POP JUMPDEST POP POP POP SWAP3 SWAP2 POP POP JUMP JUMPDEST PUSH1 0x0 PUSH1 0x20 DUP3 ADD SWAP1 POP DUP2 DUP2 SUB PUSH1 0x0 DUP4 ADD MSTORE PUSH2 0x322 DUP2 DUP5 PUSH2 0x284 JUMP JUMPDEST SWAP1 POP SWAP3 SWAP2 POP POP JUMP JUMPDEST PUSH32 0x4E487B7100000000000000000000000000000000000000000000000000000000 PUSH1 0x0 MSTORE PUSH1 0x11 PUSH1 0x4 MSTORE PUSH1 0x24 PUSH1 0x0 REVERT JUMPDEST PUSH1 0x0 DUP2 SWAP1 POP SWAP2 SWAP1 POP JUMP JUMPDEST PUSH1 0x0 PUSH2 0x36E DUP3 PUSH2 0x359 JUMP JUMPDEST SWAP2 POP PUSH32 0xFFFFFFFFFFFFFFFFFFFFFFFFFFFFFFFFFFFFFFFFFFFFFFFFFFFFFFFFFFFFFFFF DUP3 SUB PUSH2 0x3A0 JUMPI PUSH2 0x39F PUSH2 0x32A JUMP JUMPDEST JUMPDEST PUSH1 0x1 DUP3 ADD SWAP1 POP SWAP2 SWAP1 POP JUMP INVALID LOG2 PUSH5 0x6970667358 0x22 SLT KECCAK256 SWAP5 DUP14 0xDD SGT RETURNDATASIZE SGT 0xC4 CALLER GT 0xCC SWAP7 PUSH8 0x2ED5AF765C466D8 0xED PUSH5 0xC38F38B30A DUP10 NUMBER PUSH29 0x40464736F6C6343000812003300000000000000000000000000000000 "
				},
				"gasEstimates": {
					"creation": {
						"codeDepositCost": "198600",
						"executionCost": "infinite",
						"totalCost": "infinite"
					},
					"external": {
						"doWhileLoopEvents()": "infinite",
						"forLoopEvents()": "infinite",
						"whileLoopEvents()": "infinite"
					}
				},
				"methodIdentifiers": {
					"doWhileLoopEvents()": "af2eb32f",
					"forLoopEvents()": "6cde9f8c",
					"whileLoopEvents()": "ddea9b0a"
				}
			},
			"storageLayout": {
				"storage": [
					{
						"astId": 16,
						"contract": "lecture/21_for,while,do-while.sol:lec22",
						"label": "countryList",
						"offset": 0,
						"slot": "0",
						"type": "t_array(t_string_storage)dyn_storage"
					}
				],
				"types": {
					"t_array(t_string_storage)dyn_storage": {
						"base": "t_string_storage",
						"encoding": "dynamic_array",
						"label": "string[]",
						"numberOfBytes": "32"
					},
					"t_string_storage": {
						"encoding": "bytes",
						"label": "string",
						"numberOfBytes": "32"
					}
				}
			},
			"userdoc": {
				"kind": "user",
				"methods": {},
				"version": 1
			}
		}
	}
}