{
	"lecture/41_3의배수스마트컨트랙트.sol": {
		"MoneyBox": {
			"abi": [
				{
					"inputs": [],
					"stateMutability": "nonpayable",
					"type": "constructor"
				},
				{
					"anonymous": false,
					"inputs": [
						{
							"indexed": true,
							"internalType": "address",
							"name": "sender",
							"type": "address"
						},
						{
							"indexed": false,
							"internalType": "uint256",
							"name": "payment",
							"type": "uint256"
						}
					],
					"name": "WhoPaid",
					"type": "event"
				},
				{
					"inputs": [],
					"name": "checkRound",
					"outputs": [
						{
							"internalType": "uint256",
							"name": "",
							"type": "uint256"
						}
					],
					"stateMutability": "view",
					"type": "function"
				},
				{
					"inputs": [],
					"name": "checkValue",
					"outputs": [
						{
							"internalType": "uint256",
							"name": "",
							"type": "uint256"
						}
					],
					"stateMutability": "view",
					"type": "function"
				},
				{
					"stateMutability": "payable",
					"type": "receive"
				}
			],
			"devdoc": {
				"kind": "dev",
				"methods": {},
				"version": 1
			},
			"evm": {
				"assembly": "    /* \"lecture/41_3\\xec\\x9d\\x98\\xeb\\xb0\\xb0\\xec\\x88\\x98\\xec\\x8a\\xa4\\xeb\\xa7\\x88\\xed\\x8a\\xb8\\xec\\xbb\\xa8\\xed\\x8a\\xb8\\xeb\\x9e\\x99\\xed\\x8a\\xb8.sol\":301:1553  contract MoneyBox {... */\n  mstore(0x40, 0x80)\n    /* \"lecture/41_3\\xec\\x9d\\x98\\xeb\\xb0\\xb0\\xec\\x88\\x98\\xec\\x8a\\xa4\\xeb\\xa7\\x88\\xed\\x8a\\xb8\\xec\\xbb\\xa8\\xed\\x8a\\xb8\\xeb\\x9e\\x99\\xed\\x8a\\xb8.sol\":671:672  1 */\n  0x01\n    /* \"lecture/41_3\\xec\\x9d\\x98\\xeb\\xb0\\xb0\\xec\\x88\\x98\\xec\\x8a\\xa4\\xeb\\xa7\\x88\\xed\\x8a\\xb8\\xec\\xbb\\xa8\\xed\\x8a\\xb8\\xeb\\x9e\\x99\\xed\\x8a\\xb8.sol\":655:672  uint256 round = 1 */\n  0x02\n  sstore\n    /* \"lecture/41_3\\xec\\x9d\\x98\\xeb\\xb0\\xb0\\xec\\x88\\x98\\xec\\x8a\\xa4\\xeb\\xa7\\x88\\xed\\x8a\\xb8\\xec\\xbb\\xa8\\xed\\x8a\\xb8\\xeb\\x9e\\x99\\xed\\x8a\\xb8.sol\":683:732  constructor(){... */\n  callvalue\n  dup1\n  iszero\n  tag_1\n  jumpi\n  0x00\n  dup1\n  revert\ntag_1:\n  pop\n    /* \"lecture/41_3\\xec\\x9d\\x98\\xeb\\xb0\\xb0\\xec\\x88\\x98\\xec\\x8a\\xa4\\xeb\\xa7\\x88\\xed\\x8a\\xb8\\xec\\xbb\\xa8\\xed\\x8a\\xb8\\xeb\\x9e\\x99\\xed\\x8a\\xb8.sol\":715:725  msg.sender */\n  caller\n    /* \"lecture/41_3\\xec\\x9d\\x98\\xeb\\xb0\\xb0\\xec\\x88\\x98\\xec\\x8a\\xa4\\xeb\\xa7\\x88\\xed\\x8a\\xb8\\xec\\xbb\\xa8\\xed\\x8a\\xb8\\xeb\\x9e\\x99\\xed\\x8a\\xb8.sol\":706:712  ownwer */\n  0x00\n  dup1\n    /* \"lecture/41_3\\xec\\x9d\\x98\\xeb\\xb0\\xb0\\xec\\x88\\x98\\xec\\x8a\\xa4\\xeb\\xa7\\x88\\xed\\x8a\\xb8\\xec\\xbb\\xa8\\xed\\x8a\\xb8\\xeb\\x9e\\x99\\xed\\x8a\\xb8.sol\":706:725  ownwer = msg.sender */\n  0x0100\n  exp\n  dup2\n  sload\n  dup2\n  0xffffffffffffffffffffffffffffffffffffffff\n  mul\n  not\n  and\n  swap1\n  dup4\n  0xffffffffffffffffffffffffffffffffffffffff\n  and\n  mul\n  or\n  swap1\n  sstore\n  pop\n    /* \"lecture/41_3\\xec\\x9d\\x98\\xeb\\xb0\\xb0\\xec\\x88\\x98\\xec\\x8a\\xa4\\xeb\\xa7\\x88\\xed\\x8a\\xb8\\xec\\xbb\\xa8\\xed\\x8a\\xb8\\xeb\\x9e\\x99\\xed\\x8a\\xb8.sol\":301:1553  contract MoneyBox {... */\n  dataSize(sub_0)\n  dup1\n  dataOffset(sub_0)\n  0x00\n  codecopy\n  0x00\n  return\nstop\n\nsub_0: assembly {\n        /* \"lecture/41_3\\xec\\x9d\\x98\\xeb\\xb0\\xb0\\xec\\x88\\x98\\xec\\x8a\\xa4\\xeb\\xa7\\x88\\xed\\x8a\\xb8\\xec\\xbb\\xa8\\xed\\x8a\\xb8\\xeb\\x9e\\x99\\xed\\x8a\\xb8.sol\":301:1553  contract MoneyBox {... */\n      mstore(0x40, 0x80)\n      jumpi(tag_1, lt(calldatasize, 0x04))\n      shr(0xe0, calldataload(0x00))\n      dup1\n      0x5c681920\n      eq\n      tag_3\n      jumpi\n      dup1\n      0x69bbe5c7\n      eq\n      tag_4\n      jumpi\n      jump(tag_2)\n    tag_1:\n      jumpi(tag_2, calldatasize)\n        /* \"lecture/41_3\\xec\\x9d\\x98\\xeb\\xb0\\xb0\\xec\\x88\\x98\\xec\\x8a\\xa4\\xeb\\xa7\\x88\\xed\\x8a\\xb8\\xec\\xbb\\xa8\\xed\\x8a\\xb8\\xeb\\x9e\\x99\\xed\\x8a\\xb8.sol\":799:806  1 ether */\n      0x0de0b6b3a7640000\n        /* \"lecture/41_3\\xec\\x9d\\x98\\xeb\\xb0\\xb0\\xec\\x88\\x98\\xec\\x8a\\xa4\\xeb\\xa7\\x88\\xed\\x8a\\xb8\\xec\\xbb\\xa8\\xed\\x8a\\xb8\\xeb\\x9e\\x99\\xed\\x8a\\xb8.sol\":786:795  msg.value */\n      callvalue\n        /* \"lecture/41_3\\xec\\x9d\\x98\\xeb\\xb0\\xb0\\xec\\x88\\x98\\xec\\x8a\\xa4\\xeb\\xa7\\x88\\xed\\x8a\\xb8\\xec\\xbb\\xa8\\xed\\x8a\\xb8\\xeb\\x9e\\x99\\xed\\x8a\\xb8.sol\":786:806  msg.value == 1 ether */\n      eq\n        /* \"lecture/41_3\\xec\\x9d\\x98\\xeb\\xb0\\xb0\\xec\\x88\\x98\\xec\\x8a\\xa4\\xeb\\xa7\\x88\\xed\\x8a\\xb8\\xec\\xbb\\xa8\\xed\\x8a\\xb8\\xeb\\x9e\\x99\\xed\\x8a\\xb8.sol\":778:827  require(msg.value == 1 ether, \"Must be 1 ether.\") */\n      tag_7\n      jumpi\n      mload(0x40)\n      0x08c379a000000000000000000000000000000000000000000000000000000000\n      dup2\n      mstore\n      0x04\n      add\n      tag_8\n      swap1\n      tag_9\n      jump\t// in\n    tag_8:\n      mload(0x40)\n      dup1\n      swap2\n      sub\n      swap1\n      revert\n    tag_7:\n        /* \"lecture/41_3\\xec\\x9d\\x98\\xeb\\xb0\\xb0\\xec\\x88\\x98\\xec\\x8a\\xa4\\xeb\\xa7\\x88\\xed\\x8a\\xb8\\xec\\xbb\\xa8\\xed\\x8a\\xb8\\xeb\\x9e\\x99\\xed\\x8a\\xb8.sol\":882:887  false */\n      0x00\n        /* \"lecture/41_3\\xec\\x9d\\x98\\xeb\\xb0\\xb0\\xec\\x88\\x98\\xec\\x8a\\xa4\\xeb\\xa7\\x88\\xed\\x8a\\xb8\\xec\\xbb\\xa8\\xed\\x8a\\xb8\\xeb\\x9e\\x99\\xed\\x8a\\xb8.sol\":845:887  paidMemberList[round][msg.sender] == false */\n      iszero\n      iszero\n        /* \"lecture/41_3\\xec\\x9d\\x98\\xeb\\xb0\\xb0\\xec\\x88\\x98\\xec\\x8a\\xa4\\xeb\\xa7\\x88\\xed\\x8a\\xb8\\xec\\xbb\\xa8\\xed\\x8a\\xb8\\xeb\\x9e\\x99\\xed\\x8a\\xb8.sol\":845:859  paidMemberList */\n      0x01\n        /* \"lecture/41_3\\xec\\x9d\\x98\\xeb\\xb0\\xb0\\xec\\x88\\x98\\xec\\x8a\\xa4\\xeb\\xa7\\x88\\xed\\x8a\\xb8\\xec\\xbb\\xa8\\xed\\x8a\\xb8\\xeb\\x9e\\x99\\xed\\x8a\\xb8.sol\":845:866  paidMemberList[round] */\n      0x00\n        /* \"lecture/41_3\\xec\\x9d\\x98\\xeb\\xb0\\xb0\\xec\\x88\\x98\\xec\\x8a\\xa4\\xeb\\xa7\\x88\\xed\\x8a\\xb8\\xec\\xbb\\xa8\\xed\\x8a\\xb8\\xeb\\x9e\\x99\\xed\\x8a\\xb8.sol\":860:865  round */\n      sload(0x02)\n        /* \"lecture/41_3\\xec\\x9d\\x98\\xeb\\xb0\\xb0\\xec\\x88\\x98\\xec\\x8a\\xa4\\xeb\\xa7\\x88\\xed\\x8a\\xb8\\xec\\xbb\\xa8\\xed\\x8a\\xb8\\xeb\\x9e\\x99\\xed\\x8a\\xb8.sol\":845:866  paidMemberList[round] */\n      dup2\n      mstore\n      0x20\n      add\n      swap1\n      dup2\n      mstore\n      0x20\n      add\n      0x00\n      keccak256\n        /* \"lecture/41_3\\xec\\x9d\\x98\\xeb\\xb0\\xb0\\xec\\x88\\x98\\xec\\x8a\\xa4\\xeb\\xa7\\x88\\xed\\x8a\\xb8\\xec\\xbb\\xa8\\xed\\x8a\\xb8\\xeb\\x9e\\x99\\xed\\x8a\\xb8.sol\":845:878  paidMemberList[round][msg.sender] */\n      0x00\n        /* \"lecture/41_3\\xec\\x9d\\x98\\xeb\\xb0\\xb0\\xec\\x88\\x98\\xec\\x8a\\xa4\\xeb\\xa7\\x88\\xed\\x8a\\xb8\\xec\\xbb\\xa8\\xed\\x8a\\xb8\\xeb\\x9e\\x99\\xed\\x8a\\xb8.sol\":867:877  msg.sender */\n      caller\n        /* \"lecture/41_3\\xec\\x9d\\x98\\xeb\\xb0\\xb0\\xec\\x88\\x98\\xec\\x8a\\xa4\\xeb\\xa7\\x88\\xed\\x8a\\xb8\\xec\\xbb\\xa8\\xed\\x8a\\xb8\\xeb\\x9e\\x99\\xed\\x8a\\xb8.sol\":845:878  paidMemberList[round][msg.sender] */\n      0xffffffffffffffffffffffffffffffffffffffff\n      and\n      0xffffffffffffffffffffffffffffffffffffffff\n      and\n      dup2\n      mstore\n      0x20\n      add\n      swap1\n      dup2\n      mstore\n      0x20\n      add\n      0x00\n      keccak256\n      0x00\n      swap1\n      sload\n      swap1\n      0x0100\n      exp\n      swap1\n      div\n      0xff\n      and\n        /* \"lecture/41_3\\xec\\x9d\\x98\\xeb\\xb0\\xb0\\xec\\x88\\x98\\xec\\x8a\\xa4\\xeb\\xa7\\x88\\xed\\x8a\\xb8\\xec\\xbb\\xa8\\xed\\x8a\\xb8\\xeb\\x9e\\x99\\xed\\x8a\\xb8.sol\":845:887  paidMemberList[round][msg.sender] == false */\n      iszero\n      iszero\n      eq\n        /* \"lecture/41_3\\xec\\x9d\\x98\\xeb\\xb0\\xb0\\xec\\x88\\x98\\xec\\x8a\\xa4\\xeb\\xa7\\x88\\xed\\x8a\\xb8\\xec\\xbb\\xa8\\xed\\x8a\\xb8\\xeb\\x9e\\x99\\xed\\x8a\\xb8.sol\":837:926  require(paidMemberList[round][msg.sender] == false, \"Must be a new player in each game.\") */\n      tag_10\n      jumpi\n      mload(0x40)\n      0x08c379a000000000000000000000000000000000000000000000000000000000\n      dup2\n      mstore\n      0x04\n      add\n      tag_11\n      swap1\n      tag_12\n      jump\t// in\n    tag_11:\n      mload(0x40)\n      dup1\n      swap2\n      sub\n      swap1\n      revert\n    tag_10:\n        /* \"lecture/41_3\\xec\\x9d\\x98\\xeb\\xb0\\xb0\\xec\\x88\\x98\\xec\\x8a\\xa4\\xeb\\xa7\\x88\\xed\\x8a\\xb8\\xec\\xbb\\xa8\\xed\\x8a\\xb8\\xeb\\x9e\\x99\\xed\\x8a\\xb8.sol\":981:985  true */\n      0x01\n        /* \"lecture/41_3\\xec\\x9d\\x98\\xeb\\xb0\\xb0\\xec\\x88\\x98\\xec\\x8a\\xa4\\xeb\\xa7\\x88\\xed\\x8a\\xb8\\xec\\xbb\\xa8\\xed\\x8a\\xb8\\xeb\\x9e\\x99\\xed\\x8a\\xb8.sol\":945:959  paidMemberList */\n      dup1\n        /* \"lecture/41_3\\xec\\x9d\\x98\\xeb\\xb0\\xb0\\xec\\x88\\x98\\xec\\x8a\\xa4\\xeb\\xa7\\x88\\xed\\x8a\\xb8\\xec\\xbb\\xa8\\xed\\x8a\\xb8\\xeb\\x9e\\x99\\xed\\x8a\\xb8.sol\":945:966  paidMemberList[round] */\n      0x00\n        /* \"lecture/41_3\\xec\\x9d\\x98\\xeb\\xb0\\xb0\\xec\\x88\\x98\\xec\\x8a\\xa4\\xeb\\xa7\\x88\\xed\\x8a\\xb8\\xec\\xbb\\xa8\\xed\\x8a\\xb8\\xeb\\x9e\\x99\\xed\\x8a\\xb8.sol\":960:965  round */\n      sload(0x02)\n        /* \"lecture/41_3\\xec\\x9d\\x98\\xeb\\xb0\\xb0\\xec\\x88\\x98\\xec\\x8a\\xa4\\xeb\\xa7\\x88\\xed\\x8a\\xb8\\xec\\xbb\\xa8\\xed\\x8a\\xb8\\xeb\\x9e\\x99\\xed\\x8a\\xb8.sol\":945:966  paidMemberList[round] */\n      dup2\n      mstore\n      0x20\n      add\n      swap1\n      dup2\n      mstore\n      0x20\n      add\n      0x00\n      keccak256\n        /* \"lecture/41_3\\xec\\x9d\\x98\\xeb\\xb0\\xb0\\xec\\x88\\x98\\xec\\x8a\\xa4\\xeb\\xa7\\x88\\xed\\x8a\\xb8\\xec\\xbb\\xa8\\xed\\x8a\\xb8\\xeb\\x9e\\x99\\xed\\x8a\\xb8.sol\":945:978  paidMemberList[round][msg.sender] */\n      0x00\n        /* \"lecture/41_3\\xec\\x9d\\x98\\xeb\\xb0\\xb0\\xec\\x88\\x98\\xec\\x8a\\xa4\\xeb\\xa7\\x88\\xed\\x8a\\xb8\\xec\\xbb\\xa8\\xed\\x8a\\xb8\\xeb\\x9e\\x99\\xed\\x8a\\xb8.sol\":967:977  msg.sender */\n      caller\n        /* \"lecture/41_3\\xec\\x9d\\x98\\xeb\\xb0\\xb0\\xec\\x88\\x98\\xec\\x8a\\xa4\\xeb\\xa7\\x88\\xed\\x8a\\xb8\\xec\\xbb\\xa8\\xed\\x8a\\xb8\\xeb\\x9e\\x99\\xed\\x8a\\xb8.sol\":945:978  paidMemberList[round][msg.sender] */\n      0xffffffffffffffffffffffffffffffffffffffff\n      and\n      0xffffffffffffffffffffffffffffffffffffffff\n      and\n      dup2\n      mstore\n      0x20\n      add\n      swap1\n      dup2\n      mstore\n      0x20\n      add\n      0x00\n      keccak256\n      0x00\n        /* \"lecture/41_3\\xec\\x9d\\x98\\xeb\\xb0\\xb0\\xec\\x88\\x98\\xec\\x8a\\xa4\\xeb\\xa7\\x88\\xed\\x8a\\xb8\\xec\\xbb\\xa8\\xed\\x8a\\xb8\\xeb\\x9e\\x99\\xed\\x8a\\xb8.sol\":945:985  paidMemberList[round][msg.sender] = true */\n      0x0100\n      exp\n      dup2\n      sload\n      dup2\n      0xff\n      mul\n      not\n      and\n      swap1\n      dup4\n      iszero\n      iszero\n      mul\n      or\n      swap1\n      sstore\n      pop\n        /* \"lecture/41_3\\xec\\x9d\\x98\\xeb\\xb0\\xb0\\xec\\x88\\x98\\xec\\x8a\\xa4\\xeb\\xa7\\x88\\xed\\x8a\\xb8\\xec\\xbb\\xa8\\xed\\x8a\\xb8\\xeb\\x9e\\x99\\xed\\x8a\\xb8.sol\":1017:1027  msg.sender */\n      caller\n        /* \"lecture/41_3\\xec\\x9d\\x98\\xeb\\xb0\\xb0\\xec\\x88\\x98\\xec\\x8a\\xa4\\xeb\\xa7\\x88\\xed\\x8a\\xb8\\xec\\xbb\\xa8\\xed\\x8a\\xb8\\xeb\\x9e\\x99\\xed\\x8a\\xb8.sol\":1009:1038  WhoPaid(msg.sender,msg.value) */\n      0xffffffffffffffffffffffffffffffffffffffff\n      and\n      0x124914a3e6966a060a8132f2c609203a76d9b0cc2b5ba9e626df64525de4765c\n        /* \"lecture/41_3\\xec\\x9d\\x98\\xeb\\xb0\\xb0\\xec\\x88\\x98\\xec\\x8a\\xa4\\xeb\\xa7\\x88\\xed\\x8a\\xb8\\xec\\xbb\\xa8\\xed\\x8a\\xb8\\xeb\\x9e\\x99\\xed\\x8a\\xb8.sol\":1028:1037  msg.value */\n      callvalue\n        /* \"lecture/41_3\\xec\\x9d\\x98\\xeb\\xb0\\xb0\\xec\\x88\\x98\\xec\\x8a\\xa4\\xeb\\xa7\\x88\\xed\\x8a\\xb8\\xec\\xbb\\xa8\\xed\\x8a\\xb8\\xeb\\x9e\\x99\\xed\\x8a\\xb8.sol\":1009:1038  WhoPaid(msg.sender,msg.value) */\n      mload(0x40)\n      tag_13\n      swap2\n      swap1\n      tag_14\n      jump\t// in\n    tag_13:\n      mload(0x40)\n      dup1\n      swap2\n      sub\n      swap1\n      log2\n        /* \"lecture/41_3\\xec\\x9d\\x98\\xeb\\xb0\\xb0\\xec\\x88\\x98\\xec\\x8a\\xa4\\xeb\\xa7\\x88\\xed\\x8a\\xb8\\xec\\xbb\\xa8\\xed\\x8a\\xb8\\xeb\\x9e\\x99\\xed\\x8a\\xb8.sol\":1085:1092  3 ether */\n      0x29a2241af62c0000\n        /* \"lecture/41_3\\xec\\x9d\\x98\\xeb\\xb0\\xb0\\xec\\x88\\x98\\xec\\x8a\\xa4\\xeb\\xa7\\x88\\xed\\x8a\\xb8\\xec\\xbb\\xa8\\xed\\x8a\\xb8\\xeb\\x9e\\x99\\xed\\x8a\\xb8.sol\":1060:1081  address(this).balance */\n      selfbalance\n        /* \"lecture/41_3\\xec\\x9d\\x98\\xeb\\xb0\\xb0\\xec\\x88\\x98\\xec\\x8a\\xa4\\xeb\\xa7\\x88\\xed\\x8a\\xb8\\xec\\xbb\\xa8\\xed\\x8a\\xb8\\xeb\\x9e\\x99\\xed\\x8a\\xb8.sol\":1060:1092  address(this).balance == 3 ether */\n      sub\n        /* \"lecture/41_3\\xec\\x9d\\x98\\xeb\\xb0\\xb0\\xec\\x88\\x98\\xec\\x8a\\xa4\\xeb\\xa7\\x88\\xed\\x8a\\xb8\\xec\\xbb\\xa8\\xed\\x8a\\xb8\\xeb\\x9e\\x99\\xed\\x8a\\xb8.sol\":1057:1253  if(address(this).balance == 3 ether){... */\n      tag_15\n      jumpi\n        /* \"lecture/41_3\\xec\\x9d\\x98\\xeb\\xb0\\xb0\\xec\\x88\\x98\\xec\\x8a\\xa4\\xeb\\xa7\\x88\\xed\\x8a\\xb8\\xec\\xbb\\xa8\\xed\\x8a\\xb8\\xeb\\x9e\\x99\\xed\\x8a\\xb8.sol\":1108:1117  bool sent */\n      0x00\n        /* \"lecture/41_3\\xec\\x9d\\x98\\xeb\\xb0\\xb0\\xec\\x88\\x98\\xec\\x8a\\xa4\\xeb\\xa7\\x88\\xed\\x8a\\xb8\\xec\\xbb\\xa8\\xed\\x8a\\xb8\\xeb\\x9e\\x99\\xed\\x8a\\xb8.sol\":1129:1139  msg.sender */\n      caller\n        /* \"lecture/41_3\\xec\\x9d\\x98\\xeb\\xb0\\xb0\\xec\\x88\\x98\\xec\\x8a\\xa4\\xeb\\xa7\\x88\\xed\\x8a\\xb8\\xec\\xbb\\xa8\\xed\\x8a\\xb8\\xeb\\x9e\\x99\\xed\\x8a\\xb8.sol\":1121:1145  payable(msg.sender).call */\n      0xffffffffffffffffffffffffffffffffffffffff\n      and\n        /* \"lecture/41_3\\xec\\x9d\\x98\\xeb\\xb0\\xb0\\xec\\x88\\x98\\xec\\x8a\\xa4\\xeb\\xa7\\x88\\xed\\x8a\\xb8\\xec\\xbb\\xa8\\xed\\x8a\\xb8\\xeb\\x9e\\x99\\xed\\x8a\\xb8.sol\":1152:1173  address(this).balance */\n      selfbalance\n        /* \"lecture/41_3\\xec\\x9d\\x98\\xeb\\xb0\\xb0\\xec\\x88\\x98\\xec\\x8a\\xa4\\xeb\\xa7\\x88\\xed\\x8a\\xb8\\xec\\xbb\\xa8\\xed\\x8a\\xb8\\xeb\\x9e\\x99\\xed\\x8a\\xb8.sol\":1121:1178  payable(msg.sender).call{value:address(this).balance}(\"\") */\n      mload(0x40)\n      tag_16\n      swap1\n      tag_17\n      jump\t// in\n    tag_16:\n      0x00\n      mload(0x40)\n      dup1\n      dup4\n      sub\n      dup2\n      dup6\n      dup8\n      gas\n      call\n      swap3\n      pop\n      pop\n      pop\n      returndatasize\n      dup1\n      0x00\n      dup2\n      eq\n      tag_20\n      jumpi\n      mload(0x40)\n      swap2\n      pop\n      and(add(returndatasize, 0x3f), not(0x1f))\n      dup3\n      add\n      0x40\n      mstore\n      returndatasize\n      dup3\n      mstore\n      returndatasize\n      0x00\n      0x20\n      dup5\n      add\n      returndatacopy\n      jump(tag_19)\n    tag_20:\n      0x60\n      swap2\n      pop\n    tag_19:\n      pop\n        /* \"lecture/41_3\\xec\\x9d\\x98\\xeb\\xb0\\xb0\\xec\\x88\\x98\\xec\\x8a\\xa4\\xeb\\xa7\\x88\\xed\\x8a\\xb8\\xec\\xbb\\xa8\\xed\\x8a\\xb8\\xeb\\x9e\\x99\\xed\\x8a\\xb8.sol\":1107:1178  (bool sent,)= payable(msg.sender).call{value:address(this).balance}(\"\") */\n      pop\n      swap1\n      pop\n        /* \"lecture/41_3\\xec\\x9d\\x98\\xeb\\xb0\\xb0\\xec\\x88\\x98\\xec\\x8a\\xa4\\xeb\\xa7\\x88\\xed\\x8a\\xb8\\xec\\xbb\\xa8\\xed\\x8a\\xb8\\xeb\\x9e\\x99\\xed\\x8a\\xb8.sol\":1200:1204  sent */\n      dup1\n        /* \"lecture/41_3\\xec\\x9d\\x98\\xeb\\xb0\\xb0\\xec\\x88\\x98\\xec\\x8a\\xa4\\xeb\\xa7\\x88\\xed\\x8a\\xb8\\xec\\xbb\\xa8\\xed\\x8a\\xb8\\xeb\\x9e\\x99\\xed\\x8a\\xb8.sol\":1192:1221  require(sent,\"Failed to pay\") */\n      tag_21\n      jumpi\n      mload(0x40)\n      0x08c379a000000000000000000000000000000000000000000000000000000000\n      dup2\n      mstore\n      0x04\n      add\n      tag_22\n      swap1\n      tag_23\n      jump\t// in\n    tag_22:\n      mload(0x40)\n      dup1\n      swap2\n      sub\n      swap1\n      revert\n    tag_21:\n        /* \"lecture/41_3\\xec\\x9d\\x98\\xeb\\xb0\\xb0\\xec\\x88\\x98\\xec\\x8a\\xa4\\xeb\\xa7\\x88\\xed\\x8a\\xb8\\xec\\xbb\\xa8\\xed\\x8a\\xb8\\xeb\\x9e\\x99\\xed\\x8a\\xb8.sol\":1235:1240  round */\n      0x02\n      0x00\n        /* \"lecture/41_3\\xec\\x9d\\x98\\xeb\\xb0\\xb0\\xec\\x88\\x98\\xec\\x8a\\xa4\\xeb\\xa7\\x88\\xed\\x8a\\xb8\\xec\\xbb\\xa8\\xed\\x8a\\xb8\\xeb\\x9e\\x99\\xed\\x8a\\xb8.sol\":1235:1242  round++ */\n      dup2\n      sload\n      dup1\n      swap3\n      swap2\n      swap1\n      tag_24\n      swap1\n      tag_25\n      jump\t// in\n    tag_24:\n      swap2\n      swap1\n      pop\n      sstore\n      pop\n        /* \"lecture/41_3\\xec\\x9d\\x98\\xeb\\xb0\\xb0\\xec\\x88\\x98\\xec\\x8a\\xa4\\xeb\\xa7\\x88\\xed\\x8a\\xb8\\xec\\xbb\\xa8\\xed\\x8a\\xb8\\xeb\\x9e\\x99\\xed\\x8a\\xb8.sol\":1093:1253  {... */\n      pop\n        /* \"lecture/41_3\\xec\\x9d\\x98\\xeb\\xb0\\xb0\\xec\\x88\\x98\\xec\\x8a\\xa4\\xeb\\xa7\\x88\\xed\\x8a\\xb8\\xec\\xbb\\xa8\\xed\\x8a\\xb8\\xeb\\x9e\\x99\\xed\\x8a\\xb8.sol\":1057:1253  if(address(this).balance == 3 ether){... */\n    tag_15:\n        /* \"lecture/41_3\\xec\\x9d\\x98\\xeb\\xb0\\xb0\\xec\\x88\\x98\\xec\\x8a\\xa4\\xeb\\xa7\\x88\\xed\\x8a\\xb8\\xec\\xbb\\xa8\\xed\\x8a\\xb8\\xeb\\x9e\\x99\\xed\\x8a\\xb8.sol\":301:1553  contract MoneyBox {... */\n      stop\n    tag_2:\n      0x00\n      dup1\n      revert\n        /* \"lecture/41_3\\xec\\x9d\\x98\\xeb\\xb0\\xb0\\xec\\x88\\x98\\xec\\x8a\\xa4\\xeb\\xa7\\x88\\xed\\x8a\\xb8\\xec\\xbb\\xa8\\xed\\x8a\\xb8\\xeb\\x9e\\x99\\xed\\x8a\\xb8.sol\":1377:1544  function checkValue() public view  returns(uint256){... */\n    tag_3:\n      callvalue\n      dup1\n      iszero\n      tag_26\n      jumpi\n      0x00\n      dup1\n      revert\n    tag_26:\n      pop\n      tag_27\n      tag_28\n      jump\t// in\n    tag_27:\n      mload(0x40)\n      tag_29\n      swap2\n      swap1\n      tag_14\n      jump\t// in\n    tag_29:\n      mload(0x40)\n      dup1\n      swap2\n      sub\n      swap1\n      return\n        /* \"lecture/41_3\\xec\\x9d\\x98\\xeb\\xb0\\xb0\\xec\\x88\\x98\\xec\\x8a\\xa4\\xeb\\xa7\\x88\\xed\\x8a\\xb8\\xec\\xbb\\xa8\\xed\\x8a\\xb8\\xeb\\x9e\\x99\\xed\\x8a\\xb8.sol\":1288:1367  function checkRound() public view returns(uint256){... */\n    tag_4:\n      callvalue\n      dup1\n      iszero\n      tag_30\n      jumpi\n      0x00\n      dup1\n      revert\n    tag_30:\n      pop\n      tag_31\n      tag_32\n      jump\t// in\n    tag_31:\n      mload(0x40)\n      tag_33\n      swap2\n      swap1\n      tag_14\n      jump\t// in\n    tag_33:\n      mload(0x40)\n      dup1\n      swap2\n      sub\n      swap1\n      return\n        /* \"lecture/41_3\\xec\\x9d\\x98\\xeb\\xb0\\xb0\\xec\\x88\\x98\\xec\\x8a\\xa4\\xeb\\xa7\\x88\\xed\\x8a\\xb8\\xec\\xbb\\xa8\\xed\\x8a\\xb8\\xeb\\x9e\\x99\\xed\\x8a\\xb8.sol\":1377:1544  function checkValue() public view  returns(uint256){... */\n    tag_28:\n        /* \"lecture/41_3\\xec\\x9d\\x98\\xeb\\xb0\\xb0\\xec\\x88\\x98\\xec\\x8a\\xa4\\xeb\\xa7\\x88\\xed\\x8a\\xb8\\xec\\xbb\\xa8\\xed\\x8a\\xb8\\xeb\\x9e\\x99\\xed\\x8a\\xb8.sol\":1420:1427  uint256 */\n      0x00\n        /* \"lecture/41_3\\xec\\x9d\\x98\\xeb\\xb0\\xb0\\xec\\x88\\x98\\xec\\x8a\\xa4\\xeb\\xa7\\x88\\xed\\x8a\\xb8\\xec\\xbb\\xa8\\xed\\x8a\\xb8\\xeb\\x9e\\x99\\xed\\x8a\\xb8.sol\":1454:1464  msg.sender */\n      caller\n        /* \"lecture/41_3\\xec\\x9d\\x98\\xeb\\xb0\\xb0\\xec\\x88\\x98\\xec\\x8a\\xa4\\xeb\\xa7\\x88\\xed\\x8a\\xb8\\xec\\xbb\\xa8\\xed\\x8a\\xb8\\xeb\\x9e\\x99\\xed\\x8a\\xb8.sol\":1446:1464  ownwer==msg.sender */\n      0xffffffffffffffffffffffffffffffffffffffff\n      and\n        /* \"lecture/41_3\\xec\\x9d\\x98\\xeb\\xb0\\xb0\\xec\\x88\\x98\\xec\\x8a\\xa4\\xeb\\xa7\\x88\\xed\\x8a\\xb8\\xec\\xbb\\xa8\\xed\\x8a\\xb8\\xeb\\x9e\\x99\\xed\\x8a\\xb8.sol\":1446:1452  ownwer */\n      0x00\n      dup1\n      sload\n      swap1\n      0x0100\n      exp\n      swap1\n      div\n      0xffffffffffffffffffffffffffffffffffffffff\n      and\n        /* \"lecture/41_3\\xec\\x9d\\x98\\xeb\\xb0\\xb0\\xec\\x88\\x98\\xec\\x8a\\xa4\\xeb\\xa7\\x88\\xed\\x8a\\xb8\\xec\\xbb\\xa8\\xed\\x8a\\xb8\\xeb\\x9e\\x99\\xed\\x8a\\xb8.sol\":1446:1464  ownwer==msg.sender */\n      0xffffffffffffffffffffffffffffffffffffffff\n      and\n      eq\n        /* \"lecture/41_3\\xec\\x9d\\x98\\xeb\\xb0\\xb0\\xec\\x88\\x98\\xec\\x8a\\xa4\\xeb\\xa7\\x88\\xed\\x8a\\xb8\\xec\\xbb\\xa8\\xed\\x8a\\xb8\\xeb\\x9e\\x99\\xed\\x8a\\xb8.sol\":1438:1499  require(ownwer==msg.sender, \"Only Onwer can check the value\") */\n      tag_35\n      jumpi\n      mload(0x40)\n      0x08c379a000000000000000000000000000000000000000000000000000000000\n      dup2\n      mstore\n      0x04\n      add\n      tag_36\n      swap1\n      tag_37\n      jump\t// in\n    tag_36:\n      mload(0x40)\n      dup1\n      swap2\n      sub\n      swap1\n      revert\n    tag_35:\n        /* \"lecture/41_3\\xec\\x9d\\x98\\xeb\\xb0\\xb0\\xec\\x88\\x98\\xec\\x8a\\xa4\\xeb\\xa7\\x88\\xed\\x8a\\xb8\\xec\\xbb\\xa8\\xed\\x8a\\xb8\\xeb\\x9e\\x99\\xed\\x8a\\xb8.sol\":1516:1537  address(this).balance */\n      selfbalance\n        /* \"lecture/41_3\\xec\\x9d\\x98\\xeb\\xb0\\xb0\\xec\\x88\\x98\\xec\\x8a\\xa4\\xeb\\xa7\\x88\\xed\\x8a\\xb8\\xec\\xbb\\xa8\\xed\\x8a\\xb8\\xeb\\x9e\\x99\\xed\\x8a\\xb8.sol\":1509:1537  return address(this).balance */\n      swap1\n      pop\n        /* \"lecture/41_3\\xec\\x9d\\x98\\xeb\\xb0\\xb0\\xec\\x88\\x98\\xec\\x8a\\xa4\\xeb\\xa7\\x88\\xed\\x8a\\xb8\\xec\\xbb\\xa8\\xed\\x8a\\xb8\\xeb\\x9e\\x99\\xed\\x8a\\xb8.sol\":1377:1544  function checkValue() public view  returns(uint256){... */\n      swap1\n      jump\t// out\n        /* \"lecture/41_3\\xec\\x9d\\x98\\xeb\\xb0\\xb0\\xec\\x88\\x98\\xec\\x8a\\xa4\\xeb\\xa7\\x88\\xed\\x8a\\xb8\\xec\\xbb\\xa8\\xed\\x8a\\xb8\\xeb\\x9e\\x99\\xed\\x8a\\xb8.sol\":1288:1367  function checkRound() public view returns(uint256){... */\n    tag_32:\n        /* \"lecture/41_3\\xec\\x9d\\x98\\xeb\\xb0\\xb0\\xec\\x88\\x98\\xec\\x8a\\xa4\\xeb\\xa7\\x88\\xed\\x8a\\xb8\\xec\\xbb\\xa8\\xed\\x8a\\xb8\\xeb\\x9e\\x99\\xed\\x8a\\xb8.sol\":1330:1337  uint256 */\n      0x00\n        /* \"lecture/41_3\\xec\\x9d\\x98\\xeb\\xb0\\xb0\\xec\\x88\\x98\\xec\\x8a\\xa4\\xeb\\xa7\\x88\\xed\\x8a\\xb8\\xec\\xbb\\xa8\\xed\\x8a\\xb8\\xeb\\x9e\\x99\\xed\\x8a\\xb8.sol\":1355:1360  round */\n      sload(0x02)\n        /* \"lecture/41_3\\xec\\x9d\\x98\\xeb\\xb0\\xb0\\xec\\x88\\x98\\xec\\x8a\\xa4\\xeb\\xa7\\x88\\xed\\x8a\\xb8\\xec\\xbb\\xa8\\xed\\x8a\\xb8\\xeb\\x9e\\x99\\xed\\x8a\\xb8.sol\":1348:1360  return round */\n      swap1\n      pop\n        /* \"lecture/41_3\\xec\\x9d\\x98\\xeb\\xb0\\xb0\\xec\\x88\\x98\\xec\\x8a\\xa4\\xeb\\xa7\\x88\\xed\\x8a\\xb8\\xec\\xbb\\xa8\\xed\\x8a\\xb8\\xeb\\x9e\\x99\\xed\\x8a\\xb8.sol\":1288:1367  function checkRound() public view returns(uint256){... */\n      swap1\n      jump\t// out\n        /* \"#utility.yul\":7:176   */\n    tag_39:\n        /* \"#utility.yul\":91:102   */\n      0x00\n        /* \"#utility.yul\":125:131   */\n      dup3\n        /* \"#utility.yul\":120:123   */\n      dup3\n        /* \"#utility.yul\":113:132   */\n      mstore\n        /* \"#utility.yul\":165:169   */\n      0x20\n        /* \"#utility.yul\":160:163   */\n      dup3\n        /* \"#utility.yul\":156:170   */\n      add\n        /* \"#utility.yul\":141:170   */\n      swap1\n      pop\n        /* \"#utility.yul\":7:176   */\n      swap3\n      swap2\n      pop\n      pop\n      jump\t// out\n        /* \"#utility.yul\":182:348   */\n    tag_40:\n        /* \"#utility.yul\":322:340   */\n      0x4d75737420626520312065746865722e00000000000000000000000000000000\n        /* \"#utility.yul\":318:319   */\n      0x00\n        /* \"#utility.yul\":310:316   */\n      dup3\n        /* \"#utility.yul\":306:320   */\n      add\n        /* \"#utility.yul\":299:341   */\n      mstore\n        /* \"#utility.yul\":182:348   */\n      pop\n      jump\t// out\n        /* \"#utility.yul\":354:720   */\n    tag_41:\n        /* \"#utility.yul\":496:499   */\n      0x00\n        /* \"#utility.yul\":517:584   */\n      tag_58\n        /* \"#utility.yul\":581:583   */\n      0x10\n        /* \"#utility.yul\":576:579   */\n      dup4\n        /* \"#utility.yul\":517:584   */\n      tag_39\n      jump\t// in\n    tag_58:\n        /* \"#utility.yul\":510:584   */\n      swap2\n      pop\n        /* \"#utility.yul\":593:686   */\n      tag_59\n        /* \"#utility.yul\":682:685   */\n      dup3\n        /* \"#utility.yul\":593:686   */\n      tag_40\n      jump\t// in\n    tag_59:\n        /* \"#utility.yul\":711:713   */\n      0x20\n        /* \"#utility.yul\":706:709   */\n      dup3\n        /* \"#utility.yul\":702:714   */\n      add\n        /* \"#utility.yul\":695:714   */\n      swap1\n      pop\n        /* \"#utility.yul\":354:720   */\n      swap2\n      swap1\n      pop\n      jump\t// out\n        /* \"#utility.yul\":726:1145   */\n    tag_9:\n        /* \"#utility.yul\":892:896   */\n      0x00\n        /* \"#utility.yul\":930:932   */\n      0x20\n        /* \"#utility.yul\":919:928   */\n      dup3\n        /* \"#utility.yul\":915:933   */\n      add\n        /* \"#utility.yul\":907:933   */\n      swap1\n      pop\n        /* \"#utility.yul\":979:988   */\n      dup2\n        /* \"#utility.yul\":973:977   */\n      dup2\n        /* \"#utility.yul\":969:989   */\n      sub\n        /* \"#utility.yul\":965:966   */\n      0x00\n        /* \"#utility.yul\":954:963   */\n      dup4\n        /* \"#utility.yul\":950:967   */\n      add\n        /* \"#utility.yul\":943:990   */\n      mstore\n        /* \"#utility.yul\":1007:1138   */\n      tag_61\n        /* \"#utility.yul\":1133:1137   */\n      dup2\n        /* \"#utility.yul\":1007:1138   */\n      tag_41\n      jump\t// in\n    tag_61:\n        /* \"#utility.yul\":999:1138   */\n      swap1\n      pop\n        /* \"#utility.yul\":726:1145   */\n      swap2\n      swap1\n      pop\n      jump\t// out\n        /* \"#utility.yul\":1151:1372   */\n    tag_42:\n        /* \"#utility.yul\":1291:1325   */\n      0x4d7573742062652061206e657720706c6179657220696e20656163682067616d\n        /* \"#utility.yul\":1287:1288   */\n      0x00\n        /* \"#utility.yul\":1279:1285   */\n      dup3\n        /* \"#utility.yul\":1275:1289   */\n      add\n        /* \"#utility.yul\":1268:1326   */\n      mstore\n        /* \"#utility.yul\":1360:1364   */\n      0x652e000000000000000000000000000000000000000000000000000000000000\n        /* \"#utility.yul\":1355:1357   */\n      0x20\n        /* \"#utility.yul\":1347:1353   */\n      dup3\n        /* \"#utility.yul\":1343:1358   */\n      add\n        /* \"#utility.yul\":1336:1365   */\n      mstore\n        /* \"#utility.yul\":1151:1372   */\n      pop\n      jump\t// out\n        /* \"#utility.yul\":1378:1744   */\n    tag_43:\n        /* \"#utility.yul\":1520:1523   */\n      0x00\n        /* \"#utility.yul\":1541:1608   */\n      tag_64\n        /* \"#utility.yul\":1605:1607   */\n      0x22\n        /* \"#utility.yul\":1600:1603   */\n      dup4\n        /* \"#utility.yul\":1541:1608   */\n      tag_39\n      jump\t// in\n    tag_64:\n        /* \"#utility.yul\":1534:1608   */\n      swap2\n      pop\n        /* \"#utility.yul\":1617:1710   */\n      tag_65\n        /* \"#utility.yul\":1706:1709   */\n      dup3\n        /* \"#utility.yul\":1617:1710   */\n      tag_42\n      jump\t// in\n    tag_65:\n        /* \"#utility.yul\":1735:1737   */\n      0x40\n        /* \"#utility.yul\":1730:1733   */\n      dup3\n        /* \"#utility.yul\":1726:1738   */\n      add\n        /* \"#utility.yul\":1719:1738   */\n      swap1\n      pop\n        /* \"#utility.yul\":1378:1744   */\n      swap2\n      swap1\n      pop\n      jump\t// out\n        /* \"#utility.yul\":1750:2169   */\n    tag_12:\n        /* \"#utility.yul\":1916:1920   */\n      0x00\n        /* \"#utility.yul\":1954:1956   */\n      0x20\n        /* \"#utility.yul\":1943:1952   */\n      dup3\n        /* \"#utility.yul\":1939:1957   */\n      add\n        /* \"#utility.yul\":1931:1957   */\n      swap1\n      pop\n        /* \"#utility.yul\":2003:2012   */\n      dup2\n        /* \"#utility.yul\":1997:2001   */\n      dup2\n        /* \"#utility.yul\":1993:2013   */\n      sub\n        /* \"#utility.yul\":1989:1990   */\n      0x00\n        /* \"#utility.yul\":1978:1987   */\n      dup4\n        /* \"#utility.yul\":1974:1991   */\n      add\n        /* \"#utility.yul\":1967:2014   */\n      mstore\n        /* \"#utility.yul\":2031:2162   */\n      tag_67\n        /* \"#utility.yul\":2157:2161   */\n      dup2\n        /* \"#utility.yul\":2031:2162   */\n      tag_43\n      jump\t// in\n    tag_67:\n        /* \"#utility.yul\":2023:2162   */\n      swap1\n      pop\n        /* \"#utility.yul\":1750:2169   */\n      swap2\n      swap1\n      pop\n      jump\t// out\n        /* \"#utility.yul\":2175:2252   */\n    tag_44:\n        /* \"#utility.yul\":2212:2219   */\n      0x00\n        /* \"#utility.yul\":2241:2246   */\n      dup2\n        /* \"#utility.yul\":2230:2246   */\n      swap1\n      pop\n        /* \"#utility.yul\":2175:2252   */\n      swap2\n      swap1\n      pop\n      jump\t// out\n        /* \"#utility.yul\":2258:2376   */\n    tag_45:\n        /* \"#utility.yul\":2345:2369   */\n      tag_70\n        /* \"#utility.yul\":2363:2368   */\n      dup2\n        /* \"#utility.yul\":2345:2369   */\n      tag_44\n      jump\t// in\n    tag_70:\n        /* \"#utility.yul\":2340:2343   */\n      dup3\n        /* \"#utility.yul\":2333:2370   */\n      mstore\n        /* \"#utility.yul\":2258:2376   */\n      pop\n      pop\n      jump\t// out\n        /* \"#utility.yul\":2382:2604   */\n    tag_14:\n        /* \"#utility.yul\":2475:2479   */\n      0x00\n        /* \"#utility.yul\":2513:2515   */\n      0x20\n        /* \"#utility.yul\":2502:2511   */\n      dup3\n        /* \"#utility.yul\":2498:2516   */\n      add\n        /* \"#utility.yul\":2490:2516   */\n      swap1\n      pop\n        /* \"#utility.yul\":2526:2597   */\n      tag_72\n        /* \"#utility.yul\":2594:2595   */\n      0x00\n        /* \"#utility.yul\":2583:2592   */\n      dup4\n        /* \"#utility.yul\":2579:2596   */\n      add\n        /* \"#utility.yul\":2570:2576   */\n      dup5\n        /* \"#utility.yul\":2526:2597   */\n      tag_45\n      jump\t// in\n    tag_72:\n        /* \"#utility.yul\":2382:2604   */\n      swap3\n      swap2\n      pop\n      pop\n      jump\t// out\n        /* \"#utility.yul\":2610:2757   */\n    tag_46:\n        /* \"#utility.yul\":2711:2722   */\n      0x00\n        /* \"#utility.yul\":2748:2751   */\n      dup2\n        /* \"#utility.yul\":2733:2751   */\n      swap1\n      pop\n        /* \"#utility.yul\":2610:2757   */\n      swap3\n      swap2\n      pop\n      pop\n      jump\t// out\n        /* \"#utility.yul\":2763:2877   */\n    tag_47:\n      pop\n      jump\t// out\n        /* \"#utility.yul\":2883:3281   */\n    tag_48:\n        /* \"#utility.yul\":3042:3045   */\n      0x00\n        /* \"#utility.yul\":3063:3146   */\n      tag_76\n        /* \"#utility.yul\":3144:3145   */\n      0x00\n        /* \"#utility.yul\":3139:3142   */\n      dup4\n        /* \"#utility.yul\":3063:3146   */\n      tag_46\n      jump\t// in\n    tag_76:\n        /* \"#utility.yul\":3056:3146   */\n      swap2\n      pop\n        /* \"#utility.yul\":3155:3248   */\n      tag_77\n        /* \"#utility.yul\":3244:3247   */\n      dup3\n        /* \"#utility.yul\":3155:3248   */\n      tag_47\n      jump\t// in\n    tag_77:\n        /* \"#utility.yul\":3273:3274   */\n      0x00\n        /* \"#utility.yul\":3268:3271   */\n      dup3\n        /* \"#utility.yul\":3264:3275   */\n      add\n        /* \"#utility.yul\":3257:3275   */\n      swap1\n      pop\n        /* \"#utility.yul\":2883:3281   */\n      swap2\n      swap1\n      pop\n      jump\t// out\n        /* \"#utility.yul\":3287:3666   */\n    tag_17:\n        /* \"#utility.yul\":3471:3474   */\n      0x00\n        /* \"#utility.yul\":3493:3640   */\n      tag_79\n        /* \"#utility.yul\":3636:3639   */\n      dup3\n        /* \"#utility.yul\":3493:3640   */\n      tag_48\n      jump\t// in\n    tag_79:\n        /* \"#utility.yul\":3486:3640   */\n      swap2\n      pop\n        /* \"#utility.yul\":3657:3660   */\n      dup2\n        /* \"#utility.yul\":3650:3660   */\n      swap1\n      pop\n        /* \"#utility.yul\":3287:3666   */\n      swap2\n      swap1\n      pop\n      jump\t// out\n        /* \"#utility.yul\":3672:3835   */\n    tag_49:\n        /* \"#utility.yul\":3812:3827   */\n      0x4661696c656420746f2070617900000000000000000000000000000000000000\n        /* \"#utility.yul\":3808:3809   */\n      0x00\n        /* \"#utility.yul\":3800:3806   */\n      dup3\n        /* \"#utility.yul\":3796:3810   */\n      add\n        /* \"#utility.yul\":3789:3828   */\n      mstore\n        /* \"#utility.yul\":3672:3835   */\n      pop\n      jump\t// out\n        /* \"#utility.yul\":3841:4207   */\n    tag_50:\n        /* \"#utility.yul\":3983:3986   */\n      0x00\n        /* \"#utility.yul\":4004:4071   */\n      tag_82\n        /* \"#utility.yul\":4068:4070   */\n      0x0d\n        /* \"#utility.yul\":4063:4066   */\n      dup4\n        /* \"#utility.yul\":4004:4071   */\n      tag_39\n      jump\t// in\n    tag_82:\n        /* \"#utility.yul\":3997:4071   */\n      swap2\n      pop\n        /* \"#utility.yul\":4080:4173   */\n      tag_83\n        /* \"#utility.yul\":4169:4172   */\n      dup3\n        /* \"#utility.yul\":4080:4173   */\n      tag_49\n      jump\t// in\n    tag_83:\n        /* \"#utility.yul\":4198:4200   */\n      0x20\n        /* \"#utility.yul\":4193:4196   */\n      dup3\n        /* \"#utility.yul\":4189:4201   */\n      add\n        /* \"#utility.yul\":4182:4201   */\n      swap1\n      pop\n        /* \"#utility.yul\":3841:4207   */\n      swap2\n      swap1\n      pop\n      jump\t// out\n        /* \"#utility.yul\":4213:4632   */\n    tag_23:\n        /* \"#utility.yul\":4379:4383   */\n      0x00\n        /* \"#utility.yul\":4417:4419   */\n      0x20\n        /* \"#utility.yul\":4406:4415   */\n      dup3\n        /* \"#utility.yul\":4402:4420   */\n      add\n        /* \"#utility.yul\":4394:4420   */\n      swap1\n      pop\n        /* \"#utility.yul\":4466:4475   */\n      dup2\n        /* \"#utility.yul\":4460:4464   */\n      dup2\n        /* \"#utility.yul\":4456:4476   */\n      sub\n        /* \"#utility.yul\":4452:4453   */\n      0x00\n        /* \"#utility.yul\":4441:4450   */\n      dup4\n        /* \"#utility.yul\":4437:4454   */\n      add\n        /* \"#utility.yul\":4430:4477   */\n      mstore\n        /* \"#utility.yul\":4494:4625   */\n      tag_85\n        /* \"#utility.yul\":4620:4624   */\n      dup2\n        /* \"#utility.yul\":4494:4625   */\n      tag_50\n      jump\t// in\n    tag_85:\n        /* \"#utility.yul\":4486:4625   */\n      swap1\n      pop\n        /* \"#utility.yul\":4213:4632   */\n      swap2\n      swap1\n      pop\n      jump\t// out\n        /* \"#utility.yul\":4638:4818   */\n    tag_51:\n        /* \"#utility.yul\":4686:4763   */\n      0x4e487b7100000000000000000000000000000000000000000000000000000000\n        /* \"#utility.yul\":4683:4684   */\n      0x00\n        /* \"#utility.yul\":4676:4764   */\n      mstore\n        /* \"#utility.yul\":4783:4787   */\n      0x11\n        /* \"#utility.yul\":4780:4781   */\n      0x04\n        /* \"#utility.yul\":4773:4788   */\n      mstore\n        /* \"#utility.yul\":4807:4811   */\n      0x24\n        /* \"#utility.yul\":4804:4805   */\n      0x00\n        /* \"#utility.yul\":4797:4812   */\n      revert\n        /* \"#utility.yul\":4824:5057   */\n    tag_25:\n        /* \"#utility.yul\":4863:4866   */\n      0x00\n        /* \"#utility.yul\":4886:4910   */\n      tag_88\n        /* \"#utility.yul\":4904:4909   */\n      dup3\n        /* \"#utility.yul\":4886:4910   */\n      tag_44\n      jump\t// in\n    tag_88:\n        /* \"#utility.yul\":4877:4910   */\n      swap2\n      pop\n        /* \"#utility.yul\":4932:4998   */\n      0xffffffffffffffffffffffffffffffffffffffffffffffffffffffffffffffff\n        /* \"#utility.yul\":4925:4930   */\n      dup3\n        /* \"#utility.yul\":4922:4999   */\n      sub\n        /* \"#utility.yul\":4919:5022   */\n      tag_89\n      jumpi\n        /* \"#utility.yul\":5002:5020   */\n      tag_90\n      tag_51\n      jump\t// in\n    tag_90:\n        /* \"#utility.yul\":4919:5022   */\n    tag_89:\n        /* \"#utility.yul\":5049:5050   */\n      0x01\n        /* \"#utility.yul\":5042:5047   */\n      dup3\n        /* \"#utility.yul\":5038:5051   */\n      add\n        /* \"#utility.yul\":5031:5051   */\n      swap1\n      pop\n        /* \"#utility.yul\":4824:5057   */\n      swap2\n      swap1\n      pop\n      jump\t// out\n        /* \"#utility.yul\":5063:5243   */\n    tag_52:\n        /* \"#utility.yul\":5203:5235   */\n      0x4f6e6c79204f6e7765722063616e20636865636b207468652076616c75650000\n        /* \"#utility.yul\":5199:5200   */\n      0x00\n        /* \"#utility.yul\":5191:5197   */\n      dup3\n        /* \"#utility.yul\":5187:5201   */\n      add\n        /* \"#utility.yul\":5180:5236   */\n      mstore\n        /* \"#utility.yul\":5063:5243   */\n      pop\n      jump\t// out\n        /* \"#utility.yul\":5249:5615   */\n    tag_53:\n        /* \"#utility.yul\":5391:5394   */\n      0x00\n        /* \"#utility.yul\":5412:5479   */\n      tag_93\n        /* \"#utility.yul\":5476:5478   */\n      0x1e\n        /* \"#utility.yul\":5471:5474   */\n      dup4\n        /* \"#utility.yul\":5412:5479   */\n      tag_39\n      jump\t// in\n    tag_93:\n        /* \"#utility.yul\":5405:5479   */\n      swap2\n      pop\n        /* \"#utility.yul\":5488:5581   */\n      tag_94\n        /* \"#utility.yul\":5577:5580   */\n      dup3\n        /* \"#utility.yul\":5488:5581   */\n      tag_52\n      jump\t// in\n    tag_94:\n        /* \"#utility.yul\":5606:5608   */\n      0x20\n        /* \"#utility.yul\":5601:5604   */\n      dup3\n        /* \"#utility.yul\":5597:5609   */\n      add\n        /* \"#utility.yul\":5590:5609   */\n      swap1\n      pop\n        /* \"#utility.yul\":5249:5615   */\n      swap2\n      swap1\n      pop\n      jump\t// out\n        /* \"#utility.yul\":5621:6040   */\n    tag_37:\n        /* \"#utility.yul\":5787:5791   */\n      0x00\n        /* \"#utility.yul\":5825:5827   */\n      0x20\n        /* \"#utility.yul\":5814:5823   */\n      dup3\n        /* \"#utility.yul\":5810:5828   */\n      add\n        /* \"#utility.yul\":5802:5828   */\n      swap1\n      pop\n        /* \"#utility.yul\":5874:5883   */\n      dup2\n        /* \"#utility.yul\":5868:5872   */\n      dup2\n        /* \"#utility.yul\":5864:5884   */\n      sub\n        /* \"#utility.yul\":5860:5861   */\n      0x00\n        /* \"#utility.yul\":5849:5858   */\n      dup4\n        /* \"#utility.yul\":5845:5862   */\n      add\n        /* \"#utility.yul\":5838:5885   */\n      mstore\n        /* \"#utility.yul\":5902:6033   */\n      tag_96\n        /* \"#utility.yul\":6028:6032   */\n      dup2\n        /* \"#utility.yul\":5902:6033   */\n      tag_53\n      jump\t// in\n    tag_96:\n        /* \"#utility.yul\":5894:6033   */\n      swap1\n      pop\n        /* \"#utility.yul\":5621:6040   */\n      swap2\n      swap1\n      pop\n      jump\t// out\n\n    auxdata: 0xa2646970667358221220feaa1abc5695e9872b2572e16400d7ed03a18f1f2e629c3bcfef4bccf0cdf27564736f6c63430008130033\n}\n",
				"bytecode": {
					"linkReferences": {},
					"object": "6080604052600160025534801561001557600080fd5b50336000806101000a81548173ffffffffffffffffffffffffffffffffffffffff021916908373ffffffffffffffffffffffffffffffffffffffff1602179055506106ba806100656000396000f3fe60806040526004361061002d5760003560e01c80635c681920146102b657806369bbe5c7146102e1576102b1565b366102b157670de0b6b3a7640000341461007c576040517f08c379a000000000000000000000000000000000000000000000000000000000815260040161007390610409565b60405180910390fd5b6000151560016000600254815260200190815260200160002060003373ffffffffffffffffffffffffffffffffffffffff1673ffffffffffffffffffffffffffffffffffffffff16815260200190815260200160002060009054906101000a900460ff16151514610122576040517f08c379a00000000000000000000000000000000000000000000000000000000081526004016101199061049b565b60405180910390fd5b6001806000600254815260200190815260200160002060003373ffffffffffffffffffffffffffffffffffffffff1673ffffffffffffffffffffffffffffffffffffffff16815260200190815260200160002060006101000a81548160ff0219169083151502179055503373ffffffffffffffffffffffffffffffffffffffff167f124914a3e6966a060a8132f2c609203a76d9b0cc2b5ba9e626df64525de4765c346040516101d291906104d4565b60405180910390a26729a2241af62c000047036102af5760003373ffffffffffffffffffffffffffffffffffffffff164760405161020f90610520565b60006040518083038185875af1925050503d806000811461024c576040519150601f19603f3d011682016040523d82523d6000602084013e610251565b606091505b5050905080610295576040517f08c379a000000000000000000000000000000000000000000000000000000000815260040161028c90610581565b60405180910390fd5b600260008154809291906102a8906105d0565b9190505550505b005b600080fd5b3480156102c257600080fd5b506102cb61030c565b6040516102d891906104d4565b60405180910390f35b3480156102ed57600080fd5b506102f66103a2565b60405161030391906104d4565b60405180910390f35b60003373ffffffffffffffffffffffffffffffffffffffff1660008054906101000a900473ffffffffffffffffffffffffffffffffffffffff1673ffffffffffffffffffffffffffffffffffffffff161461039c576040517f08c379a000000000000000000000000000000000000000000000000000000000815260040161039390610664565b60405180910390fd5b47905090565b6000600254905090565b600082825260208201905092915050565b7f4d75737420626520312065746865722e00000000000000000000000000000000600082015250565b60006103f36010836103ac565b91506103fe826103bd565b602082019050919050565b60006020820190508181036000830152610422816103e6565b9050919050565b7f4d7573742062652061206e657720706c6179657220696e20656163682067616d60008201527f652e000000000000000000000000000000000000000000000000000000000000602082015250565b60006104856022836103ac565b915061049082610429565b604082019050919050565b600060208201905081810360008301526104b481610478565b9050919050565b6000819050919050565b6104ce816104bb565b82525050565b60006020820190506104e960008301846104c5565b92915050565b600081905092915050565b50565b600061050a6000836104ef565b9150610515826104fa565b600082019050919050565b600061052b826104fd565b9150819050919050565b7f4661696c656420746f2070617900000000000000000000000000000000000000600082015250565b600061056b600d836103ac565b915061057682610535565b602082019050919050565b6000602082019050818103600083015261059a8161055e565b9050919050565b7f4e487b7100000000000000000000000000000000000000000000000000000000600052601160045260246000fd5b60006105db826104bb565b91507fffffffffffffffffffffffffffffffffffffffffffffffffffffffffffffffff820361060d5761060c6105a1565b5b600182019050919050565b7f4f6e6c79204f6e7765722063616e20636865636b207468652076616c75650000600082015250565b600061064e601e836103ac565b915061065982610618565b602082019050919050565b6000602082019050818103600083015261067d81610641565b905091905056fea2646970667358221220feaa1abc5695e9872b2572e16400d7ed03a18f1f2e629c3bcfef4bccf0cdf27564736f6c63430008130033",
					"opcodes": "PUSH1 0x80 PUSH1 0x40 MSTORE PUSH1 0x1 PUSH1 0x2 SSTORE CALLVALUE DUP1 ISZERO PUSH2 0x15 JUMPI PUSH1 0x0 DUP1 REVERT JUMPDEST POP CALLER PUSH1 0x0 DUP1 PUSH2 0x100 EXP DUP2 SLOAD DUP2 PUSH20 0xFFFFFFFFFFFFFFFFFFFFFFFFFFFFFFFFFFFFFFFF MUL NOT AND SWAP1 DUP4 PUSH20 0xFFFFFFFFFFFFFFFFFFFFFFFFFFFFFFFFFFFFFFFF AND MUL OR SWAP1 SSTORE POP PUSH2 0x6BA DUP1 PUSH2 0x65 PUSH1 0x0 CODECOPY PUSH1 0x0 RETURN INVALID PUSH1 0x80 PUSH1 0x40 MSTORE PUSH1 0x4 CALLDATASIZE LT PUSH2 0x2D JUMPI PUSH1 0x0 CALLDATALOAD PUSH1 0xE0 SHR DUP1 PUSH4 0x5C681920 EQ PUSH2 0x2B6 JUMPI DUP1 PUSH4 0x69BBE5C7 EQ PUSH2 0x2E1 JUMPI PUSH2 0x2B1 JUMP JUMPDEST CALLDATASIZE PUSH2 0x2B1 JUMPI PUSH8 0xDE0B6B3A7640000 CALLVALUE EQ PUSH2 0x7C JUMPI PUSH1 0x40 MLOAD PUSH32 0x8C379A000000000000000000000000000000000000000000000000000000000 DUP2 MSTORE PUSH1 0x4 ADD PUSH2 0x73 SWAP1 PUSH2 0x409 JUMP JUMPDEST PUSH1 0x40 MLOAD DUP1 SWAP2 SUB SWAP1 REVERT JUMPDEST PUSH1 0x0 ISZERO ISZERO PUSH1 0x1 PUSH1 0x0 PUSH1 0x2 SLOAD DUP2 MSTORE PUSH1 0x20 ADD SWAP1 DUP2 MSTORE PUSH1 0x20 ADD PUSH1 0x0 KECCAK256 PUSH1 0x0 CALLER PUSH20 0xFFFFFFFFFFFFFFFFFFFFFFFFFFFFFFFFFFFFFFFF AND PUSH20 0xFFFFFFFFFFFFFFFFFFFFFFFFFFFFFFFFFFFFFFFF AND DUP2 MSTORE PUSH1 0x20 ADD SWAP1 DUP2 MSTORE PUSH1 0x20 ADD PUSH1 0x0 KECCAK256 PUSH1 0x0 SWAP1 SLOAD SWAP1 PUSH2 0x100 EXP SWAP1 DIV PUSH1 0xFF AND ISZERO ISZERO EQ PUSH2 0x122 JUMPI PUSH1 0x40 MLOAD PUSH32 0x8C379A000000000000000000000000000000000000000000000000000000000 DUP2 MSTORE PUSH1 0x4 ADD PUSH2 0x119 SWAP1 PUSH2 0x49B JUMP JUMPDEST PUSH1 0x40 MLOAD DUP1 SWAP2 SUB SWAP1 REVERT JUMPDEST PUSH1 0x1 DUP1 PUSH1 0x0 PUSH1 0x2 SLOAD DUP2 MSTORE PUSH1 0x20 ADD SWAP1 DUP2 MSTORE PUSH1 0x20 ADD PUSH1 0x0 KECCAK256 PUSH1 0x0 CALLER PUSH20 0xFFFFFFFFFFFFFFFFFFFFFFFFFFFFFFFFFFFFFFFF AND PUSH20 0xFFFFFFFFFFFFFFFFFFFFFFFFFFFFFFFFFFFFFFFF AND DUP2 MSTORE PUSH1 0x20 ADD SWAP1 DUP2 MSTORE PUSH1 0x20 ADD PUSH1 0x0 KECCAK256 PUSH1 0x0 PUSH2 0x100 EXP DUP2 SLOAD DUP2 PUSH1 0xFF MUL NOT AND SWAP1 DUP4 ISZERO ISZERO MUL OR SWAP1 SSTORE POP CALLER PUSH20 0xFFFFFFFFFFFFFFFFFFFFFFFFFFFFFFFFFFFFFFFF AND PUSH32 0x124914A3E6966A060A8132F2C609203A76D9B0CC2B5BA9E626DF64525DE4765C CALLVALUE PUSH1 0x40 MLOAD PUSH2 0x1D2 SWAP2 SWAP1 PUSH2 0x4D4 JUMP JUMPDEST PUSH1 0x40 MLOAD DUP1 SWAP2 SUB SWAP1 LOG2 PUSH8 0x29A2241AF62C0000 SELFBALANCE SUB PUSH2 0x2AF JUMPI PUSH1 0x0 CALLER PUSH20 0xFFFFFFFFFFFFFFFFFFFFFFFFFFFFFFFFFFFFFFFF AND SELFBALANCE PUSH1 0x40 MLOAD PUSH2 0x20F SWAP1 PUSH2 0x520 JUMP JUMPDEST PUSH1 0x0 PUSH1 0x40 MLOAD DUP1 DUP4 SUB DUP2 DUP6 DUP8 GAS CALL SWAP3 POP POP POP RETURNDATASIZE DUP1 PUSH1 0x0 DUP2 EQ PUSH2 0x24C JUMPI PUSH1 0x40 MLOAD SWAP2 POP PUSH1 0x1F NOT PUSH1 0x3F RETURNDATASIZE ADD AND DUP3 ADD PUSH1 0x40 MSTORE RETURNDATASIZE DUP3 MSTORE RETURNDATASIZE PUSH1 0x0 PUSH1 0x20 DUP5 ADD RETURNDATACOPY PUSH2 0x251 JUMP JUMPDEST PUSH1 0x60 SWAP2 POP JUMPDEST POP POP SWAP1 POP DUP1 PUSH2 0x295 JUMPI PUSH1 0x40 MLOAD PUSH32 0x8C379A000000000000000000000000000000000000000000000000000000000 DUP2 MSTORE PUSH1 0x4 ADD PUSH2 0x28C SWAP1 PUSH2 0x581 JUMP JUMPDEST PUSH1 0x40 MLOAD DUP1 SWAP2 SUB SWAP1 REVERT JUMPDEST PUSH1 0x2 PUSH1 0x0 DUP2 SLOAD DUP1 SWAP3 SWAP2 SWAP1 PUSH2 0x2A8 SWAP1 PUSH2 0x5D0 JUMP JUMPDEST SWAP2 SWAP1 POP SSTORE POP POP JUMPDEST STOP JUMPDEST PUSH1 0x0 DUP1 REVERT JUMPDEST CALLVALUE DUP1 ISZERO PUSH2 0x2C2 JUMPI PUSH1 0x0 DUP1 REVERT JUMPDEST POP PUSH2 0x2CB PUSH2 0x30C JUMP JUMPDEST PUSH1 0x40 MLOAD PUSH2 0x2D8 SWAP2 SWAP1 PUSH2 0x4D4 JUMP JUMPDEST PUSH1 0x40 MLOAD DUP1 SWAP2 SUB SWAP1 RETURN JUMPDEST CALLVALUE DUP1 ISZERO PUSH2 0x2ED JUMPI PUSH1 0x0 DUP1 REVERT JUMPDEST POP PUSH2 0x2F6 PUSH2 0x3A2 JUMP JUMPDEST PUSH1 0x40 MLOAD PUSH2 0x303 SWAP2 SWAP1 PUSH2 0x4D4 JUMP JUMPDEST PUSH1 0x40 MLOAD DUP1 SWAP2 SUB SWAP1 RETURN JUMPDEST PUSH1 0x0 CALLER PUSH20 0xFFFFFFFFFFFFFFFFFFFFFFFFFFFFFFFFFFFFFFFF AND PUSH1 0x0 DUP1 SLOAD SWAP1 PUSH2 0x100 EXP SWAP1 DIV PUSH20 0xFFFFFFFFFFFFFFFFFFFFFFFFFFFFFFFFFFFFFFFF AND PUSH20 0xFFFFFFFFFFFFFFFFFFFFFFFFFFFFFFFFFFFFFFFF AND EQ PUSH2 0x39C JUMPI PUSH1 0x40 MLOAD PUSH32 0x8C379A000000000000000000000000000000000000000000000000000000000 DUP2 MSTORE PUSH1 0x4 ADD PUSH2 0x393 SWAP1 PUSH2 0x664 JUMP JUMPDEST PUSH1 0x40 MLOAD DUP1 SWAP2 SUB SWAP1 REVERT JUMPDEST SELFBALANCE SWAP1 POP SWAP1 JUMP JUMPDEST PUSH1 0x0 PUSH1 0x2 SLOAD SWAP1 POP SWAP1 JUMP JUMPDEST PUSH1 0x0 DUP3 DUP3 MSTORE PUSH1 0x20 DUP3 ADD SWAP1 POP SWAP3 SWAP2 POP POP JUMP JUMPDEST PUSH32 0x4D75737420626520312065746865722E00000000000000000000000000000000 PUSH1 0x0 DUP3 ADD MSTORE POP JUMP JUMPDEST PUSH1 0x0 PUSH2 0x3F3 PUSH1 0x10 DUP4 PUSH2 0x3AC JUMP JUMPDEST SWAP2 POP PUSH2 0x3FE DUP3 PUSH2 0x3BD JUMP JUMPDEST PUSH1 0x20 DUP3 ADD SWAP1 POP SWAP2 SWAP1 POP JUMP JUMPDEST PUSH1 0x0 PUSH1 0x20 DUP3 ADD SWAP1 POP DUP2 DUP2 SUB PUSH1 0x0 DUP4 ADD MSTORE PUSH2 0x422 DUP2 PUSH2 0x3E6 JUMP JUMPDEST SWAP1 POP SWAP2 SWAP1 POP JUMP JUMPDEST PUSH32 0x4D7573742062652061206E657720706C6179657220696E20656163682067616D PUSH1 0x0 DUP3 ADD MSTORE PUSH32 0x652E000000000000000000000000000000000000000000000000000000000000 PUSH1 0x20 DUP3 ADD MSTORE POP JUMP JUMPDEST PUSH1 0x0 PUSH2 0x485 PUSH1 0x22 DUP4 PUSH2 0x3AC JUMP JUMPDEST SWAP2 POP PUSH2 0x490 DUP3 PUSH2 0x429 JUMP JUMPDEST PUSH1 0x40 DUP3 ADD SWAP1 POP SWAP2 SWAP1 POP JUMP JUMPDEST PUSH1 0x0 PUSH1 0x20 DUP3 ADD SWAP1 POP DUP2 DUP2 SUB PUSH1 0x0 DUP4 ADD MSTORE PUSH2 0x4B4 DUP2 PUSH2 0x478 JUMP JUMPDEST SWAP1 POP SWAP2 SWAP1 POP JUMP JUMPDEST PUSH1 0x0 DUP2 SWAP1 POP SWAP2 SWAP1 POP JUMP JUMPDEST PUSH2 0x4CE DUP2 PUSH2 0x4BB JUMP JUMPDEST DUP3 MSTORE POP POP JUMP JUMPDEST PUSH1 0x0 PUSH1 0x20 DUP3 ADD SWAP1 POP PUSH2 0x4E9 PUSH1 0x0 DUP4 ADD DUP5 PUSH2 0x4C5 JUMP JUMPDEST SWAP3 SWAP2 POP POP JUMP JUMPDEST PUSH1 0x0 DUP2 SWAP1 POP SWAP3 SWAP2 POP POP JUMP JUMPDEST POP JUMP JUMPDEST PUSH1 0x0 PUSH2 0x50A PUSH1 0x0 DUP4 PUSH2 0x4EF JUMP JUMPDEST SWAP2 POP PUSH2 0x515 DUP3 PUSH2 0x4FA JUMP JUMPDEST PUSH1 0x0 DUP3 ADD SWAP1 POP SWAP2 SWAP1 POP JUMP JUMPDEST PUSH1 0x0 PUSH2 0x52B DUP3 PUSH2 0x4FD JUMP JUMPDEST SWAP2 POP DUP2 SWAP1 POP SWAP2 SWAP1 POP JUMP JUMPDEST PUSH32 0x4661696C656420746F2070617900000000000000000000000000000000000000 PUSH1 0x0 DUP3 ADD MSTORE POP JUMP JUMPDEST PUSH1 0x0 PUSH2 0x56B PUSH1 0xD DUP4 PUSH2 0x3AC JUMP JUMPDEST SWAP2 POP PUSH2 0x576 DUP3 PUSH2 0x535 JUMP JUMPDEST PUSH1 0x20 DUP3 ADD SWAP1 POP SWAP2 SWAP1 POP JUMP JUMPDEST PUSH1 0x0 PUSH1 0x20 DUP3 ADD SWAP1 POP DUP2 DUP2 SUB PUSH1 0x0 DUP4 ADD MSTORE PUSH2 0x59A DUP2 PUSH2 0x55E JUMP JUMPDEST SWAP1 POP SWAP2 SWAP1 POP JUMP JUMPDEST PUSH32 0x4E487B7100000000000000000000000000000000000000000000000000000000 PUSH1 0x0 MSTORE PUSH1 0x11 PUSH1 0x4 MSTORE PUSH1 0x24 PUSH1 0x0 REVERT JUMPDEST PUSH1 0x0 PUSH2 0x5DB DUP3 PUSH2 0x4BB JUMP JUMPDEST SWAP2 POP PUSH32 0xFFFFFFFFFFFFFFFFFFFFFFFFFFFFFFFFFFFFFFFFFFFFFFFFFFFFFFFFFFFFFFFF DUP3 SUB PUSH2 0x60D JUMPI PUSH2 0x60C PUSH2 0x5A1 JUMP JUMPDEST JUMPDEST PUSH1 0x1 DUP3 ADD SWAP1 POP SWAP2 SWAP1 POP JUMP JUMPDEST PUSH32 0x4F6E6C79204F6E7765722063616E20636865636B207468652076616C75650000 PUSH1 0x0 DUP3 ADD MSTORE POP JUMP JUMPDEST PUSH1 0x0 PUSH2 0x64E PUSH1 0x1E DUP4 PUSH2 0x3AC JUMP JUMPDEST SWAP2 POP PUSH2 0x659 DUP3 PUSH2 0x618 JUMP JUMPDEST PUSH1 0x20 DUP3 ADD SWAP1 POP SWAP2 SWAP1 POP JUMP JUMPDEST PUSH1 0x0 PUSH1 0x20 DUP3 ADD SWAP1 POP DUP2 DUP2 SUB PUSH1 0x0 DUP4 ADD MSTORE PUSH2 0x67D DUP2 PUSH2 0x641 JUMP JUMPDEST SWAP1 POP SWAP2 SWAP1 POP JUMP INVALID LOG2 PUSH5 0x6970667358 0x22 SLT KECCAK256 INVALID 0xAA BYTE 0xBC JUMP SWAP6 0xE9 DUP8 0x2B 0x25 PUSH19 0xE16400D7ED03A18F1F2E629C3BCFEF4BCCF0CD CALLCODE PUSH22 0x64736F6C634300081300330000000000000000000000 "
				},
				"gasEstimates": {
					"creation": {
						"codeDepositCost": "344400",
						"executionCost": "46752",
						"totalCost": "391152"
					},
					"external": {
						"checkRound()": "2437",
						"checkValue()": "2581"
					}
				},
				"methodIdentifiers": {
					"checkRound()": "69bbe5c7",
					"checkValue()": "5c681920"
				}
			},
			"storageLayout": {
				"storage": [
					{
						"astId": 9,
						"contract": "lecture/41_3의배수스마트컨트랙트.sol:MoneyBox",
						"label": "ownwer",
						"offset": 0,
						"slot": "0",
						"type": "t_address"
					},
					{
						"astId": 15,
						"contract": "lecture/41_3의배수스마트컨트랙트.sol:MoneyBox",
						"label": "paidMemberList",
						"offset": 0,
						"slot": "1",
						"type": "t_mapping(t_uint256,t_mapping(t_address,t_bool))"
					},
					{
						"astId": 18,
						"contract": "lecture/41_3의배수스마트컨트랙트.sol:MoneyBox",
						"label": "round",
						"offset": 0,
						"slot": "2",
						"type": "t_uint256"
					}
				],
				"types": {
					"t_address": {
						"encoding": "inplace",
						"label": "address",
						"numberOfBytes": "20"
					},
					"t_bool": {
						"encoding": "inplace",
						"label": "bool",
						"numberOfBytes": "1"
					},
					"t_mapping(t_address,t_bool)": {
						"encoding": "mapping",
						"key": "t_address",
						"label": "mapping(address => bool)",
						"numberOfBytes": "32",
						"value": "t_bool"
					},
					"t_mapping(t_uint256,t_mapping(t_address,t_bool))": {
						"encoding": "mapping",
						"key": "t_uint256",
						"label": "mapping(uint256 => mapping(address => bool))",
						"numberOfBytes": "32",
						"value": "t_mapping(t_address,t_bool)"
					},
					"t_uint256": {
						"encoding": "inplace",
						"label": "uint256",
						"numberOfBytes": "32"
					}
				}
			},
			"userdoc": {
				"kind": "user",
				"methods": {},
				"version": 1
			}
		}
	}
}