{
	"lecture/14_상속_super.sol": {
		"Father": {
			"abi": [
				{
					"anonymous": false,
					"inputs": [
						{
							"indexed": false,
							"internalType": "string",
							"name": "name",
							"type": "string"
						}
					],
					"name": "FatherName",
					"type": "event"
				},
				{
					"inputs": [],
					"name": "who",
					"outputs": [],
					"stateMutability": "nonpayable",
					"type": "function"
				}
			],
			"devdoc": {
				"kind": "dev",
				"methods": {},
				"version": 1
			},
			"evm": {
				"assembly": "    /* \"lecture/14_\\xec\\x83\\x81\\xec\\x86\\x8d_super.sol\":285:537  contract Father {... */\n  mstore(0x40, 0x80)\n  callvalue\n  dup1\n  iszero\n  tag_1\n  jumpi\n  0x00\n  dup1\n  revert\ntag_1:\n  pop\n  dataSize(sub_0)\n  dup1\n  dataOffset(sub_0)\n  0x00\n  codecopy\n  0x00\n  return\nstop\n\nsub_0: assembly {\n        /* \"lecture/14_\\xec\\x83\\x81\\xec\\x86\\x8d_super.sol\":285:537  contract Father {... */\n      mstore(0x40, 0x80)\n      callvalue\n      dup1\n      iszero\n      tag_1\n      jumpi\n      0x00\n      dup1\n      revert\n    tag_1:\n      pop\n      jumpi(tag_2, lt(calldatasize, 0x04))\n      shr(0xe0, calldataload(0x00))\n      dup1\n      0xd6d21dfd\n      eq\n      tag_3\n      jumpi\n    tag_2:\n      0x00\n      dup1\n      revert\n        /* \"lecture/14_\\xec\\x83\\x81\\xec\\x86\\x8d_super.sol\":342:535  function who() public virtual{... */\n    tag_3:\n      tag_4\n      tag_5\n      jump\t// in\n    tag_4:\n      stop\n    tag_5:\n        /* \"lecture/14_\\xec\\x83\\x81\\xec\\x86\\x8d_super.sol\":386:408  FatherName(\"KimDaeho\") */\n      0x5657acc33fa9dbb926b6b6a1479e21e5e99a97b612f5d7f3ddfb47197d2148cc\n      mload(0x40)\n      tag_7\n      swap1\n      tag_8\n      jump\t// in\n    tag_7:\n      mload(0x40)\n      dup1\n      swap2\n      sub\n      swap1\n      log1\n        /* \"lecture/14_\\xec\\x83\\x81\\xec\\x86\\x8d_super.sol\":342:535  function who() public virtual{... */\n      jump\t// out\n        /* \"#utility.yul\":7:176   */\n    tag_9:\n        /* \"#utility.yul\":91:102   */\n      0x00\n        /* \"#utility.yul\":125:131   */\n      dup3\n        /* \"#utility.yul\":120:123   */\n      dup3\n        /* \"#utility.yul\":113:132   */\n      mstore\n        /* \"#utility.yul\":165:169   */\n      0x20\n        /* \"#utility.yul\":160:163   */\n      dup3\n        /* \"#utility.yul\":156:170   */\n      add\n        /* \"#utility.yul\":141:170   */\n      swap1\n      pop\n        /* \"#utility.yul\":7:176   */\n      swap3\n      swap2\n      pop\n      pop\n      jump\t// out\n        /* \"#utility.yul\":182:340   */\n    tag_10:\n        /* \"#utility.yul\":322:332   */\n      0x4b696d446165686f000000000000000000000000000000000000000000000000\n        /* \"#utility.yul\":318:319   */\n      0x00\n        /* \"#utility.yul\":310:316   */\n      dup3\n        /* \"#utility.yul\":306:320   */\n      add\n        /* \"#utility.yul\":299:333   */\n      mstore\n        /* \"#utility.yul\":182:340   */\n      pop\n      jump\t// out\n        /* \"#utility.yul\":346:711   */\n    tag_11:\n        /* \"#utility.yul\":488:491   */\n      0x00\n        /* \"#utility.yul\":509:575   */\n      tag_16\n        /* \"#utility.yul\":573:574   */\n      0x08\n        /* \"#utility.yul\":568:571   */\n      dup4\n        /* \"#utility.yul\":509:575   */\n      tag_9\n      jump\t// in\n    tag_16:\n        /* \"#utility.yul\":502:575   */\n      swap2\n      pop\n        /* \"#utility.yul\":584:677   */\n      tag_17\n        /* \"#utility.yul\":673:676   */\n      dup3\n        /* \"#utility.yul\":584:677   */\n      tag_10\n      jump\t// in\n    tag_17:\n        /* \"#utility.yul\":702:704   */\n      0x20\n        /* \"#utility.yul\":697:700   */\n      dup3\n        /* \"#utility.yul\":693:705   */\n      add\n        /* \"#utility.yul\":686:705   */\n      swap1\n      pop\n        /* \"#utility.yul\":346:711   */\n      swap2\n      swap1\n      pop\n      jump\t// out\n        /* \"#utility.yul\":717:1136   */\n    tag_8:\n        /* \"#utility.yul\":883:887   */\n      0x00\n        /* \"#utility.yul\":921:923   */\n      0x20\n        /* \"#utility.yul\":910:919   */\n      dup3\n        /* \"#utility.yul\":906:924   */\n      add\n        /* \"#utility.yul\":898:924   */\n      swap1\n      pop\n        /* \"#utility.yul\":970:979   */\n      dup2\n        /* \"#utility.yul\":964:968   */\n      dup2\n        /* \"#utility.yul\":960:980   */\n      sub\n        /* \"#utility.yul\":956:957   */\n      0x00\n        /* \"#utility.yul\":945:954   */\n      dup4\n        /* \"#utility.yul\":941:958   */\n      add\n        /* \"#utility.yul\":934:981   */\n      mstore\n        /* \"#utility.yul\":998:1129   */\n      tag_19\n        /* \"#utility.yul\":1124:1128   */\n      dup2\n        /* \"#utility.yul\":998:1129   */\n      tag_11\n      jump\t// in\n    tag_19:\n        /* \"#utility.yul\":990:1129   */\n      swap1\n      pop\n        /* \"#utility.yul\":717:1136   */\n      swap2\n      swap1\n      pop\n      jump\t// out\n\n    auxdata: 0xa2646970667358221220f712d54e10e744f7e3388df69b3c8b5e04b77e920454e50948ea1aa8adc8204d64736f6c63430008120033\n}\n",
				"bytecode": {
					"linkReferences": {},
					"object": "608060405234801561001057600080fd5b50610117806100206000396000f3fe6080604052348015600f57600080fd5b506004361060285760003560e01c8063d6d21dfd14602d575b600080fd5b60336035565b005b7f5657acc33fa9dbb926b6b6a1479e21e5e99a97b612f5d7f3ddfb47197d2148cc60405160609060c3565b60405180910390a1565b600082825260208201905092915050565b7f4b696d446165686f000000000000000000000000000000000000000000000000600082015250565b600060af600883606a565b915060b882607b565b602082019050919050565b6000602082019050818103600083015260da8160a4565b905091905056fea2646970667358221220f712d54e10e744f7e3388df69b3c8b5e04b77e920454e50948ea1aa8adc8204d64736f6c63430008120033",
					"opcodes": "PUSH1 0x80 PUSH1 0x40 MSTORE CALLVALUE DUP1 ISZERO PUSH2 0x10 JUMPI PUSH1 0x0 DUP1 REVERT JUMPDEST POP PUSH2 0x117 DUP1 PUSH2 0x20 PUSH1 0x0 CODECOPY PUSH1 0x0 RETURN INVALID PUSH1 0x80 PUSH1 0x40 MSTORE CALLVALUE DUP1 ISZERO PUSH1 0xF JUMPI PUSH1 0x0 DUP1 REVERT JUMPDEST POP PUSH1 0x4 CALLDATASIZE LT PUSH1 0x28 JUMPI PUSH1 0x0 CALLDATALOAD PUSH1 0xE0 SHR DUP1 PUSH4 0xD6D21DFD EQ PUSH1 0x2D JUMPI JUMPDEST PUSH1 0x0 DUP1 REVERT JUMPDEST PUSH1 0x33 PUSH1 0x35 JUMP JUMPDEST STOP JUMPDEST PUSH32 0x5657ACC33FA9DBB926B6B6A1479E21E5E99A97B612F5D7F3DDFB47197D2148CC PUSH1 0x40 MLOAD PUSH1 0x60 SWAP1 PUSH1 0xC3 JUMP JUMPDEST PUSH1 0x40 MLOAD DUP1 SWAP2 SUB SWAP1 LOG1 JUMP JUMPDEST PUSH1 0x0 DUP3 DUP3 MSTORE PUSH1 0x20 DUP3 ADD SWAP1 POP SWAP3 SWAP2 POP POP JUMP JUMPDEST PUSH32 0x4B696D446165686F000000000000000000000000000000000000000000000000 PUSH1 0x0 DUP3 ADD MSTORE POP JUMP JUMPDEST PUSH1 0x0 PUSH1 0xAF PUSH1 0x8 DUP4 PUSH1 0x6A JUMP JUMPDEST SWAP2 POP PUSH1 0xB8 DUP3 PUSH1 0x7B JUMP JUMPDEST PUSH1 0x20 DUP3 ADD SWAP1 POP SWAP2 SWAP1 POP JUMP JUMPDEST PUSH1 0x0 PUSH1 0x20 DUP3 ADD SWAP1 POP DUP2 DUP2 SUB PUSH1 0x0 DUP4 ADD MSTORE PUSH1 0xDA DUP2 PUSH1 0xA4 JUMP JUMPDEST SWAP1 POP SWAP2 SWAP1 POP JUMP INVALID LOG2 PUSH5 0x6970667358 0x22 SLT KECCAK256 0xF7 SLT 0xD5 0x4E LT 0xE7 PREVRANDAO 0xF7 0xE3 CODESIZE DUP14 0xF6 SWAP12 EXTCODECOPY DUP12 0x5E DIV 0xB7 PUSH31 0x920454E50948EA1AA8ADC8204D64736F6C6343000812003300000000000000 "
				},
				"gasEstimates": {
					"creation": {
						"codeDepositCost": "55800",
						"executionCost": "105",
						"totalCost": "55905"
					},
					"external": {
						"who()": "1924"
					}
				},
				"methodIdentifiers": {
					"who()": "d6d21dfd"
				}
			},
			"storageLayout": {
				"storage": [],
				"types": null
			},
			"userdoc": {
				"kind": "user",
				"methods": {},
				"version": 1
			}
		}
	}
}