{
	"lecture/14_상속_super.sol": {
		"Mother": {
			"abi": [
				{
					"anonymous": false,
					"inputs": [
						{
							"indexed": false,
							"internalType": "string",
							"name": "name",
							"type": "string"
						}
					],
					"name": "MotherName",
					"type": "event"
				},
				{
					"inputs": [],
					"name": "who",
					"outputs": [],
					"stateMutability": "nonpayable",
					"type": "function"
				}
			],
			"devdoc": {
				"kind": "dev",
				"methods": {},
				"version": 1
			},
			"evm": {
				"assembly": "    /* \"lecture/14_\\xec\\x83\\x81\\xec\\x86\\x8d_super.sol\":539:669  contract Mother {... */\n  mstore(0x40, 0x80)\n  callvalue\n  dup1\n  iszero\n  tag_1\n  jumpi\n  0x00\n  dup1\n  revert\ntag_1:\n  pop\n  dataSize(sub_0)\n  dup1\n  dataOffset(sub_0)\n  0x00\n  codecopy\n  0x00\n  return\nstop\n\nsub_0: assembly {\n        /* \"lecture/14_\\xec\\x83\\x81\\xec\\x86\\x8d_super.sol\":539:669  contract Mother {... */\n      mstore(0x40, 0x80)\n      callvalue\n      dup1\n      iszero\n      tag_1\n      jumpi\n      0x00\n      dup1\n      revert\n    tag_1:\n      pop\n      jumpi(tag_2, lt(calldatasize, 0x04))\n      shr(0xe0, calldataload(0x00))\n      dup1\n      0xd6d21dfd\n      eq\n      tag_3\n      jumpi\n    tag_2:\n      0x00\n      dup1\n      revert\n        /* \"lecture/14_\\xec\\x83\\x81\\xec\\x86\\x8d_super.sol\":596:667  function who() public virtual{... */\n    tag_3:\n      tag_4\n      tag_5\n      jump\t// in\n    tag_4:\n      stop\n    tag_5:\n        /* \"lecture/14_\\xec\\x83\\x81\\xec\\x86\\x8d_super.sol\":640:660  MotherName(\"leeSol\") */\n      0x9084713d5e2561709d7197f0c1143d7e814a061dae5429ba219fd588fb389c38\n      mload(0x40)\n      tag_7\n      swap1\n      tag_8\n      jump\t// in\n    tag_7:\n      mload(0x40)\n      dup1\n      swap2\n      sub\n      swap1\n      log1\n        /* \"lecture/14_\\xec\\x83\\x81\\xec\\x86\\x8d_super.sol\":596:667  function who() public virtual{... */\n      jump\t// out\n        /* \"#utility.yul\":7:176   */\n    tag_9:\n        /* \"#utility.yul\":91:102   */\n      0x00\n        /* \"#utility.yul\":125:131   */\n      dup3\n        /* \"#utility.yul\":120:123   */\n      dup3\n        /* \"#utility.yul\":113:132   */\n      mstore\n        /* \"#utility.yul\":165:169   */\n      0x20\n        /* \"#utility.yul\":160:163   */\n      dup3\n        /* \"#utility.yul\":156:170   */\n      add\n        /* \"#utility.yul\":141:170   */\n      swap1\n      pop\n        /* \"#utility.yul\":7:176   */\n      swap3\n      swap2\n      pop\n      pop\n      jump\t// out\n        /* \"#utility.yul\":182:338   */\n    tag_10:\n        /* \"#utility.yul\":322:330   */\n      0x6c6565536f6c0000000000000000000000000000000000000000000000000000\n        /* \"#utility.yul\":318:319   */\n      0x00\n        /* \"#utility.yul\":310:316   */\n      dup3\n        /* \"#utility.yul\":306:320   */\n      add\n        /* \"#utility.yul\":299:331   */\n      mstore\n        /* \"#utility.yul\":182:338   */\n      pop\n      jump\t// out\n        /* \"#utility.yul\":344:709   */\n    tag_11:\n        /* \"#utility.yul\":486:489   */\n      0x00\n        /* \"#utility.yul\":507:573   */\n      tag_16\n        /* \"#utility.yul\":571:572   */\n      0x06\n        /* \"#utility.yul\":566:569   */\n      dup4\n        /* \"#utility.yul\":507:573   */\n      tag_9\n      jump\t// in\n    tag_16:\n        /* \"#utility.yul\":500:573   */\n      swap2\n      pop\n        /* \"#utility.yul\":582:675   */\n      tag_17\n        /* \"#utility.yul\":671:674   */\n      dup3\n        /* \"#utility.yul\":582:675   */\n      tag_10\n      jump\t// in\n    tag_17:\n        /* \"#utility.yul\":700:702   */\n      0x20\n        /* \"#utility.yul\":695:698   */\n      dup3\n        /* \"#utility.yul\":691:703   */\n      add\n        /* \"#utility.yul\":684:703   */\n      swap1\n      pop\n        /* \"#utility.yul\":344:709   */\n      swap2\n      swap1\n      pop\n      jump\t// out\n        /* \"#utility.yul\":715:1134   */\n    tag_8:\n        /* \"#utility.yul\":881:885   */\n      0x00\n        /* \"#utility.yul\":919:921   */\n      0x20\n        /* \"#utility.yul\":908:917   */\n      dup3\n        /* \"#utility.yul\":904:922   */\n      add\n        /* \"#utility.yul\":896:922   */\n      swap1\n      pop\n        /* \"#utility.yul\":968:977   */\n      dup2\n        /* \"#utility.yul\":962:966   */\n      dup2\n        /* \"#utility.yul\":958:978   */\n      sub\n        /* \"#utility.yul\":954:955   */\n      0x00\n        /* \"#utility.yul\":943:952   */\n      dup4\n        /* \"#utility.yul\":939:956   */\n      add\n        /* \"#utility.yul\":932:979   */\n      mstore\n        /* \"#utility.yul\":996:1127   */\n      tag_19\n        /* \"#utility.yul\":1122:1126   */\n      dup2\n        /* \"#utility.yul\":996:1127   */\n      tag_11\n      jump\t// in\n    tag_19:\n        /* \"#utility.yul\":988:1127   */\n      swap1\n      pop\n        /* \"#utility.yul\":715:1134   */\n      swap2\n      swap1\n      pop\n      jump\t// out\n\n    auxdata: 0xa26469706673582212200faedc5663a965624bc0b5ca29e01d3f2fbaed2bcd9c518034bc42c5624be72864736f6c63430008120033\n}\n",
				"bytecode": {
					"linkReferences": {},
					"object": "608060405234801561001057600080fd5b50610117806100206000396000f3fe6080604052348015600f57600080fd5b506004361060285760003560e01c8063d6d21dfd14602d575b600080fd5b60336035565b005b7f9084713d5e2561709d7197f0c1143d7e814a061dae5429ba219fd588fb389c3860405160609060c3565b60405180910390a1565b600082825260208201905092915050565b7f6c6565536f6c0000000000000000000000000000000000000000000000000000600082015250565b600060af600683606a565b915060b882607b565b602082019050919050565b6000602082019050818103600083015260da8160a4565b905091905056fea26469706673582212200faedc5663a965624bc0b5ca29e01d3f2fbaed2bcd9c518034bc42c5624be72864736f6c63430008120033",
					"opcodes": "PUSH1 0x80 PUSH1 0x40 MSTORE CALLVALUE DUP1 ISZERO PUSH2 0x10 JUMPI PUSH1 0x0 DUP1 REVERT JUMPDEST POP PUSH2 0x117 DUP1 PUSH2 0x20 PUSH1 0x0 CODECOPY PUSH1 0x0 RETURN INVALID PUSH1 0x80 PUSH1 0x40 MSTORE CALLVALUE DUP1 ISZERO PUSH1 0xF JUMPI PUSH1 0x0 DUP1 REVERT JUMPDEST POP PUSH1 0x4 CALLDATASIZE LT PUSH1 0x28 JUMPI PUSH1 0x0 CALLDATALOAD PUSH1 0xE0 SHR DUP1 PUSH4 0xD6D21DFD EQ PUSH1 0x2D JUMPI JUMPDEST PUSH1 0x0 DUP1 REVERT JUMPDEST PUSH1 0x33 PUSH1 0x35 JUMP JUMPDEST STOP JUMPDEST PUSH32 0x9084713D5E2561709D7197F0C1143D7E814A061DAE5429BA219FD588FB389C38 PUSH1 0x40 MLOAD PUSH1 0x60 SWAP1 PUSH1 0xC3 JUMP JUMPDEST PUSH1 0x40 MLOAD DUP1 SWAP2 SUB SWAP1 LOG1 JUMP JUMPDEST PUSH1 0x0 DUP3 DUP3 MSTORE PUSH1 0x20 DUP3 ADD SWAP1 POP SWAP3 SWAP2 POP POP JUMP JUMPDEST PUSH32 0x6C6565536F6C0000000000000000000000000000000000000000000000000000 PUSH1 0x0 DUP3 ADD MSTORE POP JUMP JUMPDEST PUSH1 0x0 PUSH1 0xAF PUSH1 0x6 DUP4 PUSH1 0x6A JUMP JUMPDEST SWAP2 POP PUSH1 0xB8 DUP3 PUSH1 0x7B JUMP JUMPDEST PUSH1 0x20 DUP3 ADD SWAP1 POP SWAP2 SWAP1 POP JUMP JUMPDEST PUSH1 0x0 PUSH1 0x20 DUP3 ADD SWAP1 POP DUP2 DUP2 SUB PUSH1 0x0 DUP4 ADD MSTORE PUSH1 0xDA DUP2 PUSH1 0xA4 JUMP JUMPDEST SWAP1 POP SWAP2 SWAP1 POP JUMP INVALID LOG2 PUSH5 0x6970667358 0x22 SLT KECCAK256 0xF 0xAE 0xDC JUMP PUSH4 0xA965624B 0xC0 0xB5 0xCA 0x29 0xE0 SAR EXTCODEHASH 0x2F 0xBA 0xED 0x2B 0xCD SWAP13 MLOAD DUP1 CALLVALUE 0xBC TIMESTAMP 0xC5 PUSH3 0x4BE728 PUSH5 0x736F6C6343 STOP ADDMOD SLT STOP CALLER "
				},
				"gasEstimates": {
					"creation": {
						"codeDepositCost": "55800",
						"executionCost": "105",
						"totalCost": "55905"
					},
					"external": {
						"who()": "1924"
					}
				},
				"methodIdentifiers": {
					"who()": "d6d21dfd"
				}
			},
			"storageLayout": {
				"storage": [],
				"types": null
			},
			"userdoc": {
				"kind": "user",
				"methods": {},
				"version": 1
			}
		}
	}
}