{
	"data": {
		"bytecode": {
			"linkReferences": {},
			"object": "608060405234801561001057600080fd5b50610b5f806100206000396000f3fe60806040523480156200001157600080fd5b50600436106200002e5760003560e01c8063447bce4a1462000033575b600080fd5b6200005160048036038101906200004b9190620002e5565b62000069565b60405162000060919062000368565b60405180910390f35b600082826040516200007b9062000126565b620000889291906200041f565b604051809103906000f080156200009c5760015b620000e2577fed1339d3b97aca38a4bc95190b93af9130be96b54e1bc34caa04b59819decfa0604051620000d090620004f3565b60405180910390a16000905062000120565b506040517f08c379a000000000000000000000000000000000000000000000000000000000815260040162000117906200057a565b60405180910390fd5b92915050565b61058d806200059d83390190565b6000604051905090565b600080fd5b600080fd5b600080fd5b600080fd5b6000601f19601f8301169050919050565b7f4e487b7100000000000000000000000000000000000000000000000000000000600052604160045260246000fd5b6200019d8262000152565b810181811067ffffffffffffffff82111715620001bf57620001be62000163565b5b80604052505050565b6000620001d462000134565b9050620001e2828262000192565b919050565b600067ffffffffffffffff82111562000205576200020462000163565b5b620002108262000152565b9050602081019050919050565b82818337600083830152505050565b6000620002436200023d84620001e7565b620001c8565b9050828152602081018484840111156200026257620002616200014d565b5b6200026f8482856200021d565b509392505050565b600082601f8301126200028f576200028e62000148565b5b8135620002a18482602086016200022c565b91505092915050565b6000819050919050565b620002bf81620002aa565b8114620002cb57600080fd5b50565b600081359050620002df81620002b4565b92915050565b60008060408385031215620002ff57620002fe6200013e565b5b600083013567ffffffffffffffff81111562000320576200031f62000143565b5b6200032e8582860162000277565b92505060206200034185828601620002ce565b9150509250929050565b60008115159050919050565b62000362816200034b565b82525050565b60006020820190506200037f600083018462000357565b92915050565b600081519050919050565b600082825260208201905092915050565b60005b83811015620003c1578082015181840152602081019050620003a4565b60008484015250505050565b6000620003da8262000385565b620003e6818562000390565b9350620003f8818560208601620003a1565b620004038162000152565b840191505092915050565b6200041981620002aa565b82525050565b600060408201905081810360008301526200043b8185620003cd565b90506200044c60208301846200040e565b9392505050565b7f6361746368000000000000000000000000000000000000000000000000000000600082015250565b60006200048b60058362000390565b9150620004988262000453565b602082019050919050565b7f4572726f72532121000000000000000000000000000000000000000000000000600082015250565b6000620004db60088362000390565b9150620004e882620004a3565b602082019050919050565b600060408201905081810360008301526200050e816200047c565b905081810360208301526200052381620004cc565b9050919050565b7f6572726f727320696e20746865207472792f636174636820626c6f636b000000600082015250565b600062000562601d8362000390565b91506200056f826200052a565b602082019050919050565b60006020820190508181036000830152620005958162000553565b905091905056fe608060405234801561001057600080fd5b5060405161058d38038061058d833981810160405281019061003291906101fb565b8160009081610041919061046e565b50806001819055505050610540565b6000604051905090565b600080fd5b600080fd5b600080fd5b600080fd5b6000601f19601f8301169050919050565b7f4e487b7100000000000000000000000000000000000000000000000000000000600052604160045260246000fd5b6100b78261006e565b810181811067ffffffffffffffff821117156100d6576100d561007f565b5b80604052505050565b60006100e9610050565b90506100f582826100ae565b919050565b600067ffffffffffffffff8211156101155761011461007f565b5b61011e8261006e565b9050602081019050919050565b60005b8381101561014957808201518184015260208101905061012e565b60008484015250505050565b6000610168610163846100fa565b6100df565b90508281526020810184848401111561018457610183610069565b5b61018f84828561012b565b509392505050565b600082601f8301126101ac576101ab610064565b5b81516101bc848260208601610155565b91505092915050565b6000819050919050565b6101d8816101c5565b81146101e357600080fd5b50565b6000815190506101f5816101cf565b92915050565b600080604083850312156102125761021161005a565b5b600083015167ffffffffffffffff8111156102305761022f61005f565b5b61023c85828601610197565b925050602061024d858286016101e6565b9150509250929050565b600081519050919050565b7f4e487b7100000000000000000000000000000000000000000000000000000000600052602260045260246000fd5b600060028204905060018216806102a957607f821691505b6020821081036102bc576102bb610262565b5b50919050565b60008190508160005260206000209050919050565b60006020601f8301049050919050565b600082821b905092915050565b6000600883026103247fffffffffffffffffffffffffffffffffffffffffffffffffffffffffffffffff826102e7565b61032e86836102e7565b95508019841693508086168417925050509392505050565b6000819050919050565b600061036b610366610361846101c5565b610346565b6101c5565b9050919050565b6000819050919050565b61038583610350565b61039961039182610372565b8484546102f4565b825550505050565b600090565b6103ae6103a1565b6103b981848461037c565b505050565b5b818110156103dd576103d26000826103a6565b6001810190506103bf565b5050565b601f821115610422576103f3816102c2565b6103fc846102d7565b8101602085101561040b578190505b61041f610417856102d7565b8301826103be565b50505b505050565b600082821c905092915050565b600061044560001984600802610427565b1980831691505092915050565b600061045e8383610434565b9150826002028217905092915050565b61047782610257565b67ffffffffffffffff8111156104905761048f61007f565b5b61049a8254610291565b6104a58282856103e1565b600060209050601f8311600181146104d857600084156104c6578287015190505b6104d08582610452565b865550610538565b601f1984166104e6866102c2565b60005b8281101561050e578489015182556001820191506020850194506020810190506104e9565b8683101561052b5784890151610527601f891682610434565b8355505b6001600288020188555050505b505050505050565b603f8061054e6000396000f3fe6080604052600080fdfea26469706673582212209b9c84e8b3eab6c0ec8d5479f047e641dc18ca205825f1044c583f053d497a1a64736f6c63430008120033a2646970667358221220995c9636aa9270b42069a564f7f4b26e3433f902d7dd8604642bc15a3c8720a264736f6c63430008120033",
			"opcodes": "PUSH1 0x80 PUSH1 0x40 MSTORE CALLVALUE DUP1 ISZERO PUSH2 0x10 JUMPI PUSH1 0x0 DUP1 REVERT JUMPDEST POP PUSH2 0xB5F DUP1 PUSH2 0x20 PUSH1 0x0 CODECOPY PUSH1 0x0 RETURN INVALID PUSH1 0x80 PUSH1 0x40 MSTORE CALLVALUE DUP1 ISZERO PUSH3 0x11 JUMPI PUSH1 0x0 DUP1 REVERT JUMPDEST POP PUSH1 0x4 CALLDATASIZE LT PUSH3 0x2E JUMPI PUSH1 0x0 CALLDATALOAD PUSH1 0xE0 SHR DUP1 PUSH4 0x447BCE4A EQ PUSH3 0x33 JUMPI JUMPDEST PUSH1 0x0 DUP1 REVERT JUMPDEST PUSH3 0x51 PUSH1 0x4 DUP1 CALLDATASIZE SUB DUP2 ADD SWAP1 PUSH3 0x4B SWAP2 SWAP1 PUSH3 0x2E5 JUMP JUMPDEST PUSH3 0x69 JUMP JUMPDEST PUSH1 0x40 MLOAD PUSH3 0x60 SWAP2 SWAP1 PUSH3 0x368 JUMP JUMPDEST PUSH1 0x40 MLOAD DUP1 SWAP2 SUB SWAP1 RETURN JUMPDEST PUSH1 0x0 DUP3 DUP3 PUSH1 0x40 MLOAD PUSH3 0x7B SWAP1 PUSH3 0x126 JUMP JUMPDEST PUSH3 0x88 SWAP3 SWAP2 SWAP1 PUSH3 0x41F JUMP JUMPDEST PUSH1 0x40 MLOAD DUP1 SWAP2 SUB SWAP1 PUSH1 0x0 CREATE DUP1 ISZERO PUSH3 0x9C JUMPI PUSH1 0x1 JUMPDEST PUSH3 0xE2 JUMPI PUSH32 0xED1339D3B97ACA38A4BC95190B93AF9130BE96B54E1BC34CAA04B59819DECFA0 PUSH1 0x40 MLOAD PUSH3 0xD0 SWAP1 PUSH3 0x4F3 JUMP JUMPDEST PUSH1 0x40 MLOAD DUP1 SWAP2 SUB SWAP1 LOG1 PUSH1 0x0 SWAP1 POP PUSH3 0x120 JUMP JUMPDEST POP PUSH1 0x40 MLOAD PUSH32 0x8C379A000000000000000000000000000000000000000000000000000000000 DUP2 MSTORE PUSH1 0x4 ADD PUSH3 0x117 SWAP1 PUSH3 0x57A JUMP JUMPDEST PUSH1 0x40 MLOAD DUP1 SWAP2 SUB SWAP1 REVERT JUMPDEST SWAP3 SWAP2 POP POP JUMP JUMPDEST PUSH2 0x58D DUP1 PUSH3 0x59D DUP4 CODECOPY ADD SWAP1 JUMP JUMPDEST PUSH1 0x0 PUSH1 0x40 MLOAD SWAP1 POP SWAP1 JUMP JUMPDEST PUSH1 0x0 DUP1 REVERT JUMPDEST PUSH1 0x0 DUP1 REVERT JUMPDEST PUSH1 0x0 DUP1 REVERT JUMPDEST PUSH1 0x0 DUP1 REVERT JUMPDEST PUSH1 0x0 PUSH1 0x1F NOT PUSH1 0x1F DUP4 ADD AND SWAP1 POP SWAP2 SWAP1 POP JUMP JUMPDEST PUSH32 0x4E487B7100000000000000000000000000000000000000000000000000000000 PUSH1 0x0 MSTORE PUSH1 0x41 PUSH1 0x4 MSTORE PUSH1 0x24 PUSH1 0x0 REVERT JUMPDEST PUSH3 0x19D DUP3 PUSH3 0x152 JUMP JUMPDEST DUP2 ADD DUP2 DUP2 LT PUSH8 0xFFFFFFFFFFFFFFFF DUP3 GT OR ISZERO PUSH3 0x1BF JUMPI PUSH3 0x1BE PUSH3 0x163 JUMP JUMPDEST JUMPDEST DUP1 PUSH1 0x40 MSTORE POP POP POP JUMP JUMPDEST PUSH1 0x0 PUSH3 0x1D4 PUSH3 0x134 JUMP JUMPDEST SWAP1 POP PUSH3 0x1E2 DUP3 DUP3 PUSH3 0x192 JUMP JUMPDEST SWAP2 SWAP1 POP JUMP JUMPDEST PUSH1 0x0 PUSH8 0xFFFFFFFFFFFFFFFF DUP3 GT ISZERO PUSH3 0x205 JUMPI PUSH3 0x204 PUSH3 0x163 JUMP JUMPDEST JUMPDEST PUSH3 0x210 DUP3 PUSH3 0x152 JUMP JUMPDEST SWAP1 POP PUSH1 0x20 DUP2 ADD SWAP1 POP SWAP2 SWAP1 POP JUMP JUMPDEST DUP3 DUP2 DUP4 CALLDATACOPY PUSH1 0x0 DUP4 DUP4 ADD MSTORE POP POP POP JUMP JUMPDEST PUSH1 0x0 PUSH3 0x243 PUSH3 0x23D DUP5 PUSH3 0x1E7 JUMP JUMPDEST PUSH3 0x1C8 JUMP JUMPDEST SWAP1 POP DUP3 DUP2 MSTORE PUSH1 0x20 DUP2 ADD DUP5 DUP5 DUP5 ADD GT ISZERO PUSH3 0x262 JUMPI PUSH3 0x261 PUSH3 0x14D JUMP JUMPDEST JUMPDEST PUSH3 0x26F DUP5 DUP3 DUP6 PUSH3 0x21D JUMP JUMPDEST POP SWAP4 SWAP3 POP POP POP JUMP JUMPDEST PUSH1 0x0 DUP3 PUSH1 0x1F DUP4 ADD SLT PUSH3 0x28F JUMPI PUSH3 0x28E PUSH3 0x148 JUMP JUMPDEST JUMPDEST DUP2 CALLDATALOAD PUSH3 0x2A1 DUP5 DUP3 PUSH1 0x20 DUP7 ADD PUSH3 0x22C JUMP JUMPDEST SWAP2 POP POP SWAP3 SWAP2 POP POP JUMP JUMPDEST PUSH1 0x0 DUP2 SWAP1 POP SWAP2 SWAP1 POP JUMP JUMPDEST PUSH3 0x2BF DUP2 PUSH3 0x2AA JUMP JUMPDEST DUP2 EQ PUSH3 0x2CB JUMPI PUSH1 0x0 DUP1 REVERT JUMPDEST POP JUMP JUMPDEST PUSH1 0x0 DUP2 CALLDATALOAD SWAP1 POP PUSH3 0x2DF DUP2 PUSH3 0x2B4 JUMP JUMPDEST SWAP3 SWAP2 POP POP JUMP JUMPDEST PUSH1 0x0 DUP1 PUSH1 0x40 DUP4 DUP6 SUB SLT ISZERO PUSH3 0x2FF JUMPI PUSH3 0x2FE PUSH3 0x13E JUMP JUMPDEST JUMPDEST PUSH1 0x0 DUP4 ADD CALLDATALOAD PUSH8 0xFFFFFFFFFFFFFFFF DUP2 GT ISZERO PUSH3 0x320 JUMPI PUSH3 0x31F PUSH3 0x143 JUMP JUMPDEST JUMPDEST PUSH3 0x32E DUP6 DUP3 DUP7 ADD PUSH3 0x277 JUMP JUMPDEST SWAP3 POP POP PUSH1 0x20 PUSH3 0x341 DUP6 DUP3 DUP7 ADD PUSH3 0x2CE JUMP JUMPDEST SWAP2 POP POP SWAP3 POP SWAP3 SWAP1 POP JUMP JUMPDEST PUSH1 0x0 DUP2 ISZERO ISZERO SWAP1 POP SWAP2 SWAP1 POP JUMP JUMPDEST PUSH3 0x362 DUP2 PUSH3 0x34B JUMP JUMPDEST DUP3 MSTORE POP POP JUMP JUMPDEST PUSH1 0x0 PUSH1 0x20 DUP3 ADD SWAP1 POP PUSH3 0x37F PUSH1 0x0 DUP4 ADD DUP5 PUSH3 0x357 JUMP JUMPDEST SWAP3 SWAP2 POP POP JUMP JUMPDEST PUSH1 0x0 DUP2 MLOAD SWAP1 POP SWAP2 SWAP1 POP JUMP JUMPDEST PUSH1 0x0 DUP3 DUP3 MSTORE PUSH1 0x20 DUP3 ADD SWAP1 POP SWAP3 SWAP2 POP POP JUMP JUMPDEST PUSH1 0x0 JUMPDEST DUP4 DUP2 LT ISZERO PUSH3 0x3C1 JUMPI DUP1 DUP3 ADD MLOAD DUP2 DUP5 ADD MSTORE PUSH1 0x20 DUP2 ADD SWAP1 POP PUSH3 0x3A4 JUMP JUMPDEST PUSH1 0x0 DUP5 DUP5 ADD MSTORE POP POP POP POP JUMP JUMPDEST PUSH1 0x0 PUSH3 0x3DA DUP3 PUSH3 0x385 JUMP JUMPDEST PUSH3 0x3E6 DUP2 DUP6 PUSH3 0x390 JUMP JUMPDEST SWAP4 POP PUSH3 0x3F8 DUP2 DUP6 PUSH1 0x20 DUP7 ADD PUSH3 0x3A1 JUMP JUMPDEST PUSH3 0x403 DUP2 PUSH3 0x152 JUMP JUMPDEST DUP5 ADD SWAP2 POP POP SWAP3 SWAP2 POP POP JUMP JUMPDEST PUSH3 0x419 DUP2 PUSH3 0x2AA JUMP JUMPDEST DUP3 MSTORE POP POP JUMP JUMPDEST PUSH1 0x0 PUSH1 0x40 DUP3 ADD SWAP1 POP DUP2 DUP2 SUB PUSH1 0x0 DUP4 ADD MSTORE PUSH3 0x43B DUP2 DUP6 PUSH3 0x3CD JUMP JUMPDEST SWAP1 POP PUSH3 0x44C PUSH1 0x20 DUP4 ADD DUP5 PUSH3 0x40E JUMP JUMPDEST SWAP4 SWAP3 POP POP POP JUMP JUMPDEST PUSH32 0x6361746368000000000000000000000000000000000000000000000000000000 PUSH1 0x0 DUP3 ADD MSTORE POP JUMP JUMPDEST PUSH1 0x0 PUSH3 0x48B PUSH1 0x5 DUP4 PUSH3 0x390 JUMP JUMPDEST SWAP2 POP PUSH3 0x498 DUP3 PUSH3 0x453 JUMP JUMPDEST PUSH1 0x20 DUP3 ADD SWAP1 POP SWAP2 SWAP1 POP JUMP JUMPDEST PUSH32 0x4572726F72532121000000000000000000000000000000000000000000000000 PUSH1 0x0 DUP3 ADD MSTORE POP JUMP JUMPDEST PUSH1 0x0 PUSH3 0x4DB PUSH1 0x8 DUP4 PUSH3 0x390 JUMP JUMPDEST SWAP2 POP PUSH3 0x4E8 DUP3 PUSH3 0x4A3 JUMP JUMPDEST PUSH1 0x20 DUP3 ADD SWAP1 POP SWAP2 SWAP1 POP JUMP JUMPDEST PUSH1 0x0 PUSH1 0x40 DUP3 ADD SWAP1 POP DUP2 DUP2 SUB PUSH1 0x0 DUP4 ADD MSTORE PUSH3 0x50E DUP2 PUSH3 0x47C JUMP JUMPDEST SWAP1 POP DUP2 DUP2 SUB PUSH1 0x20 DUP4 ADD MSTORE PUSH3 0x523 DUP2 PUSH3 0x4CC JUMP JUMPDEST SWAP1 POP SWAP2 SWAP1 POP JUMP JUMPDEST PUSH32 0x6572726F727320696E20746865207472792F636174636820626C6F636B000000 PUSH1 0x0 DUP3 ADD MSTORE POP JUMP JUMPDEST PUSH1 0x0 PUSH3 0x562 PUSH1 0x1D DUP4 PUSH3 0x390 JUMP JUMPDEST SWAP2 POP PUSH3 0x56F DUP3 PUSH3 0x52A JUMP JUMPDEST PUSH1 0x20 DUP3 ADD SWAP1 POP SWAP2 SWAP1 POP JUMP JUMPDEST PUSH1 0x0 PUSH1 0x20 DUP3 ADD SWAP1 POP DUP2 DUP2 SUB PUSH1 0x0 DUP4 ADD MSTORE PUSH3 0x595 DUP2 PUSH3 0x553 JUMP JUMPDEST SWAP1 POP SWAP2 SWAP1 POP JUMP INVALID PUSH1 0x80 PUSH1 0x40 MSTORE CALLVALUE DUP1 ISZERO PUSH2 0x10 JUMPI PUSH1 0x0 DUP1 REVERT JUMPDEST POP PUSH1 0x40 MLOAD PUSH2 0x58D CODESIZE SUB DUP1 PUSH2 0x58D DUP4 CODECOPY DUP2 DUP2 ADD PUSH1 0x40 MSTORE DUP2 ADD SWAP1 PUSH2 0x32 SWAP2 SWAP1 PUSH2 0x1FB JUMP JUMPDEST DUP2 PUSH1 0x0 SWAP1 DUP2 PUSH2 0x41 SWAP2 SWAP1 PUSH2 0x46E JUMP JUMPDEST POP DUP1 PUSH1 0x1 DUP2 SWAP1 SSTORE POP POP POP PUSH2 0x540 JUMP JUMPDEST PUSH1 0x0 PUSH1 0x40 MLOAD SWAP1 POP SWAP1 JUMP JUMPDEST PUSH1 0x0 DUP1 REVERT JUMPDEST PUSH1 0x0 DUP1 REVERT JUMPDEST PUSH1 0x0 DUP1 REVERT JUMPDEST PUSH1 0x0 DUP1 REVERT JUMPDEST PUSH1 0x0 PUSH1 0x1F NOT PUSH1 0x1F DUP4 ADD AND SWAP1 POP SWAP2 SWAP1 POP JUMP JUMPDEST PUSH32 0x4E487B7100000000000000000000000000000000000000000000000000000000 PUSH1 0x0 MSTORE PUSH1 0x41 PUSH1 0x4 MSTORE PUSH1 0x24 PUSH1 0x0 REVERT JUMPDEST PUSH2 0xB7 DUP3 PUSH2 0x6E JUMP JUMPDEST DUP2 ADD DUP2 DUP2 LT PUSH8 0xFFFFFFFFFFFFFFFF DUP3 GT OR ISZERO PUSH2 0xD6 JUMPI PUSH2 0xD5 PUSH2 0x7F JUMP JUMPDEST JUMPDEST DUP1 PUSH1 0x40 MSTORE POP POP POP JUMP JUMPDEST PUSH1 0x0 PUSH2 0xE9 PUSH2 0x50 JUMP JUMPDEST SWAP1 POP PUSH2 0xF5 DUP3 DUP3 PUSH2 0xAE JUMP JUMPDEST SWAP2 SWAP1 POP JUMP JUMPDEST PUSH1 0x0 PUSH8 0xFFFFFFFFFFFFFFFF DUP3 GT ISZERO PUSH2 0x115 JUMPI PUSH2 0x114 PUSH2 0x7F JUMP JUMPDEST JUMPDEST PUSH2 0x11E DUP3 PUSH2 0x6E JUMP JUMPDEST SWAP1 POP PUSH1 0x20 DUP2 ADD SWAP1 POP SWAP2 SWAP1 POP JUMP JUMPDEST PUSH1 0x0 JUMPDEST DUP4 DUP2 LT ISZERO PUSH2 0x149 JUMPI DUP1 DUP3 ADD MLOAD DUP2 DUP5 ADD MSTORE PUSH1 0x20 DUP2 ADD SWAP1 POP PUSH2 0x12E JUMP JUMPDEST PUSH1 0x0 DUP5 DUP5 ADD MSTORE POP POP POP POP JUMP JUMPDEST PUSH1 0x0 PUSH2 0x168 PUSH2 0x163 DUP5 PUSH2 0xFA JUMP JUMPDEST PUSH2 0xDF JUMP JUMPDEST SWAP1 POP DUP3 DUP2 MSTORE PUSH1 0x20 DUP2 ADD DUP5 DUP5 DUP5 ADD GT ISZERO PUSH2 0x184 JUMPI PUSH2 0x183 PUSH2 0x69 JUMP JUMPDEST JUMPDEST PUSH2 0x18F DUP5 DUP3 DUP6 PUSH2 0x12B JUMP JUMPDEST POP SWAP4 SWAP3 POP POP POP JUMP JUMPDEST PUSH1 0x0 DUP3 PUSH1 0x1F DUP4 ADD SLT PUSH2 0x1AC JUMPI PUSH2 0x1AB PUSH2 0x64 JUMP JUMPDEST JUMPDEST DUP2 MLOAD PUSH2 0x1BC DUP5 DUP3 PUSH1 0x20 DUP7 ADD PUSH2 0x155 JUMP JUMPDEST SWAP2 POP POP SWAP3 SWAP2 POP POP JUMP JUMPDEST PUSH1 0x0 DUP2 SWAP1 POP SWAP2 SWAP1 POP JUMP JUMPDEST PUSH2 0x1D8 DUP2 PUSH2 0x1C5 JUMP JUMPDEST DUP2 EQ PUSH2 0x1E3 JUMPI PUSH1 0x0 DUP1 REVERT JUMPDEST POP JUMP JUMPDEST PUSH1 0x0 DUP2 MLOAD SWAP1 POP PUSH2 0x1F5 DUP2 PUSH2 0x1CF JUMP JUMPDEST SWAP3 SWAP2 POP POP JUMP JUMPDEST PUSH1 0x0 DUP1 PUSH1 0x40 DUP4 DUP6 SUB SLT ISZERO PUSH2 0x212 JUMPI PUSH2 0x211 PUSH2 0x5A JUMP JUMPDEST JUMPDEST PUSH1 0x0 DUP4 ADD MLOAD PUSH8 0xFFFFFFFFFFFFFFFF DUP2 GT ISZERO PUSH2 0x230 JUMPI PUSH2 0x22F PUSH2 0x5F JUMP JUMPDEST JUMPDEST PUSH2 0x23C DUP6 DUP3 DUP7 ADD PUSH2 0x197 JUMP JUMPDEST SWAP3 POP POP PUSH1 0x20 PUSH2 0x24D DUP6 DUP3 DUP7 ADD PUSH2 0x1E6 JUMP JUMPDEST SWAP2 POP POP SWAP3 POP SWAP3 SWAP1 POP JUMP JUMPDEST PUSH1 0x0 DUP2 MLOAD SWAP1 POP SWAP2 SWAP1 POP JUMP JUMPDEST PUSH32 0x4E487B7100000000000000000000000000000000000000000000000000000000 PUSH1 0x0 MSTORE PUSH1 0x22 PUSH1 0x4 MSTORE PUSH1 0x24 PUSH1 0x0 REVERT JUMPDEST PUSH1 0x0 PUSH1 0x2 DUP3 DIV SWAP1 POP PUSH1 0x1 DUP3 AND DUP1 PUSH2 0x2A9 JUMPI PUSH1 0x7F DUP3 AND SWAP2 POP JUMPDEST PUSH1 0x20 DUP3 LT DUP2 SUB PUSH2 0x2BC JUMPI PUSH2 0x2BB PUSH2 0x262 JUMP JUMPDEST JUMPDEST POP SWAP2 SWAP1 POP JUMP JUMPDEST PUSH1 0x0 DUP2 SWAP1 POP DUP2 PUSH1 0x0 MSTORE PUSH1 0x20 PUSH1 0x0 KECCAK256 SWAP1 POP SWAP2 SWAP1 POP JUMP JUMPDEST PUSH1 0x0 PUSH1 0x20 PUSH1 0x1F DUP4 ADD DIV SWAP1 POP SWAP2 SWAP1 POP JUMP JUMPDEST PUSH1 0x0 DUP3 DUP3 SHL SWAP1 POP SWAP3 SWAP2 POP POP JUMP JUMPDEST PUSH1 0x0 PUSH1 0x8 DUP4 MUL PUSH2 0x324 PUSH32 0xFFFFFFFFFFFFFFFFFFFFFFFFFFFFFFFFFFFFFFFFFFFFFFFFFFFFFFFFFFFFFFFF DUP3 PUSH2 0x2E7 JUMP JUMPDEST PUSH2 0x32E DUP7 DUP4 PUSH2 0x2E7 JUMP JUMPDEST SWAP6 POP DUP1 NOT DUP5 AND SWAP4 POP DUP1 DUP7 AND DUP5 OR SWAP3 POP POP POP SWAP4 SWAP3 POP POP POP JUMP JUMPDEST PUSH1 0x0 DUP2 SWAP1 POP SWAP2 SWAP1 POP JUMP JUMPDEST PUSH1 0x0 PUSH2 0x36B PUSH2 0x366 PUSH2 0x361 DUP5 PUSH2 0x1C5 JUMP JUMPDEST PUSH2 0x346 JUMP JUMPDEST PUSH2 0x1C5 JUMP JUMPDEST SWAP1 POP SWAP2 SWAP1 POP JUMP JUMPDEST PUSH1 0x0 DUP2 SWAP1 POP SWAP2 SWAP1 POP JUMP JUMPDEST PUSH2 0x385 DUP4 PUSH2 0x350 JUMP JUMPDEST PUSH2 0x399 PUSH2 0x391 DUP3 PUSH2 0x372 JUMP JUMPDEST DUP5 DUP5 SLOAD PUSH2 0x2F4 JUMP JUMPDEST DUP3 SSTORE POP POP POP POP JUMP JUMPDEST PUSH1 0x0 SWAP1 JUMP JUMPDEST PUSH2 0x3AE PUSH2 0x3A1 JUMP JUMPDEST PUSH2 0x3B9 DUP2 DUP5 DUP5 PUSH2 0x37C JUMP JUMPDEST POP POP POP JUMP JUMPDEST JUMPDEST DUP2 DUP2 LT ISZERO PUSH2 0x3DD JUMPI PUSH2 0x3D2 PUSH1 0x0 DUP3 PUSH2 0x3A6 JUMP JUMPDEST PUSH1 0x1 DUP2 ADD SWAP1 POP PUSH2 0x3BF JUMP JUMPDEST POP POP JUMP JUMPDEST PUSH1 0x1F DUP3 GT ISZERO PUSH2 0x422 JUMPI PUSH2 0x3F3 DUP2 PUSH2 0x2C2 JUMP JUMPDEST PUSH2 0x3FC DUP5 PUSH2 0x2D7 JUMP JUMPDEST DUP2 ADD PUSH1 0x20 DUP6 LT ISZERO PUSH2 0x40B JUMPI DUP2 SWAP1 POP JUMPDEST PUSH2 0x41F PUSH2 0x417 DUP6 PUSH2 0x2D7 JUMP JUMPDEST DUP4 ADD DUP3 PUSH2 0x3BE JUMP JUMPDEST POP POP JUMPDEST POP POP POP JUMP JUMPDEST PUSH1 0x0 DUP3 DUP3 SHR SWAP1 POP SWAP3 SWAP2 POP POP JUMP JUMPDEST PUSH1 0x0 PUSH2 0x445 PUSH1 0x0 NOT DUP5 PUSH1 0x8 MUL PUSH2 0x427 JUMP JUMPDEST NOT DUP1 DUP4 AND SWAP2 POP POP SWAP3 SWAP2 POP POP JUMP JUMPDEST PUSH1 0x0 PUSH2 0x45E DUP4 DUP4 PUSH2 0x434 JUMP JUMPDEST SWAP2 POP DUP3 PUSH1 0x2 MUL DUP3 OR SWAP1 POP SWAP3 SWAP2 POP POP JUMP JUMPDEST PUSH2 0x477 DUP3 PUSH2 0x257 JUMP JUMPDEST PUSH8 0xFFFFFFFFFFFFFFFF DUP2 GT ISZERO PUSH2 0x490 JUMPI PUSH2 0x48F PUSH2 0x7F JUMP JUMPDEST JUMPDEST PUSH2 0x49A DUP3 SLOAD PUSH2 0x291 JUMP JUMPDEST PUSH2 0x4A5 DUP3 DUP3 DUP6 PUSH2 0x3E1 JUMP JUMPDEST PUSH1 0x0 PUSH1 0x20 SWAP1 POP PUSH1 0x1F DUP4 GT PUSH1 0x1 DUP2 EQ PUSH2 0x4D8 JUMPI PUSH1 0x0 DUP5 ISZERO PUSH2 0x4C6 JUMPI DUP3 DUP8 ADD MLOAD SWAP1 POP JUMPDEST PUSH2 0x4D0 DUP6 DUP3 PUSH2 0x452 JUMP JUMPDEST DUP7 SSTORE POP PUSH2 0x538 JUMP JUMPDEST PUSH1 0x1F NOT DUP5 AND PUSH2 0x4E6 DUP7 PUSH2 0x2C2 JUMP JUMPDEST PUSH1 0x0 JUMPDEST DUP3 DUP2 LT ISZERO PUSH2 0x50E JUMPI DUP5 DUP10 ADD MLOAD DUP3 SSTORE PUSH1 0x1 DUP3 ADD SWAP2 POP PUSH1 0x20 DUP6 ADD SWAP5 POP PUSH1 0x20 DUP2 ADD SWAP1 POP PUSH2 0x4E9 JUMP JUMPDEST DUP7 DUP4 LT ISZERO PUSH2 0x52B JUMPI DUP5 DUP10 ADD MLOAD PUSH2 0x527 PUSH1 0x1F DUP10 AND DUP3 PUSH2 0x434 JUMP JUMPDEST DUP4 SSTORE POP JUMPDEST PUSH1 0x1 PUSH1 0x2 DUP9 MUL ADD DUP9 SSTORE POP POP POP JUMPDEST POP POP POP POP POP POP JUMP JUMPDEST PUSH1 0x3F DUP1 PUSH2 0x54E PUSH1 0x0 CODECOPY PUSH1 0x0 RETURN INVALID PUSH1 0x80 PUSH1 0x40 MSTORE PUSH1 0x0 DUP1 REVERT INVALID LOG2 PUSH5 0x6970667358 0x22 SLT KECCAK256 SWAP12 SWAP13 DUP5 0xE8 0xB3 0xEA 0xB6 0xC0 0xEC DUP14 SLOAD PUSH26 0xF047E641DC18CA205825F1044C583F053D497A1A64736F6C6343 STOP ADDMOD SLT STOP CALLER LOG2 PUSH5 0x6970667358 0x22 SLT KECCAK256 SWAP10 0x5C SWAP7 CALLDATASIZE 0xAA SWAP3 PUSH17 0xB42069A564F7F4B26E3433F902D7DD8604 PUSH5 0x2BC15A3C87 KECCAK256 LOG2 PUSH5 0x736F6C6343 STOP ADDMOD SLT STOP CALLER "
		},
		"gasEstimates": {
			"creation": {
				"codeDepositCost": "582200",
				"executionCost": "613",
				"totalCost": "582813"
			},
			"external": {
				"playTryCatch(string,uint256)": "infinite"
			}
		},
		"methodIdentifiers": {
			"playTryCatch(string,uint256)": "447bce4a"
		}
	},
	"abi": [
		{
			"anonymous": false,
			"inputs": [
				{
					"indexed": false,
					"internalType": "string",
					"name": "_name",
					"type": "string"
				},
				{
					"indexed": false,
					"internalType": "string",
					"name": "_err",
					"type": "string"
				}
			],
			"name": "catchOnly",
			"type": "event"
		},
		{
			"inputs": [
				{
					"internalType": "string",
					"name": "_name",
					"type": "string"
				},
				{
					"internalType": "uint256",
					"name": "_power",
					"type": "uint256"
				}
			],
			"name": "playTryCatch",
			"outputs": [
				{
					"internalType": "bool",
					"name": "",
					"type": "bool"
				}
			],
			"stateMutability": "nonpayable",
			"type": "function"
		}
	]
}